{
  "_format": "hh3-artifact-1",
  "contractName": "SimpleContract",
  "sourceName": "contracts/SimpleContract.sol",
  "abi": [
    {
      "inputs": [
        {
          "internalType": "uint256",
          "name": "requested",
          "type": "uint256"
        },
        {
          "internalType": "uint256",
          "name": "available",
          "type": "uint256"
        }
      ],
      "name": "InsufficientBalance",
      "type": "error"
    },
    {
      "anonymous": false,
      "inputs": [
        {
          "indexed": false,
          "internalType": "uint256",
          "name": "value",
          "type": "uint256"
        }
      ],
      "name": "Set",
      "type": "event"
    },
    {
      "anonymous": false,
      "inputs": [
        {
          "indexed": false,
          "internalType": "address",
          "name": "from",
          "type": "address"
        },
        {
          "indexed": false,
          "internalType": "address",
          "name": "to",
          "type": "address"
        },
        {
          "indexed": false,
          "internalType": "uint256",
          "name": "amount",
          "type": "uint256"
        }
      ],
      "name": "Transfer",
      "type": "event"
    },
    {
      "inputs": [],
      "name": "get",
      "outputs": [
        {
          "internalType": "uint256",
          "name": "",
          "type": "uint256"
        }
      ],
      "stateMutability": "view",
      "type": "function"
    },
    {
      "inputs": [
        {
          "internalType": "uint256",
          "name": "newValue",
          "type": "uint256"
        }
      ],
      "name": "set",
      "outputs": [],
      "stateMutability": "nonpayable",
      "type": "function"
    },
    {
      "inputs": [
        {
          "internalType": "address",
          "name": "to",
          "type": "address"
        },
        {
          "internalType": "uint256",
          "name": "amount",
          "type": "uint256"
        }
      ],
      "name": "transfer",
      "outputs": [],
      "stateMutability": "nonpayable",
      "type": "function"
    },
    {
      "inputs": [],
      "name": "value",
      "outputs": [
        {
          "internalType": "uint256",
          "name": "",
          "type": "uint256"
        }
      ],
      "stateMutability": "view",
      "type": "function"
    }
  ],
  "bytecode": "0x6080604052348015600e575f5ffd5b5061050f8061001c5f395ff3fe608060405234801561000f575f5ffd5b506004361061004a575f3560e01c80633fa4f2451461004e57806360fe47b11461006c5780636d4ce63c14610088578063a9059cbb146100a6575b5f5ffd5b6100566100c2565b60405161006391906102d1565b60405180910390f35b61008660048036038101906100819190610318565b6100c7565b005b610090610107565b60405161009d91906102d1565b60405180910390f35b6100c060048036038101906100bb919061039d565b61010f565b005b5f5481565b805f819055507fdf7a95aebff315db1b7716215d602ab537373cdb769232aae6055c06e798425b816040516100fc91906102d1565b60405180910390a150565b5f5f54905090565b60015f3373ffffffffffffffffffffffffffffffffffffffff1673ffffffffffffffffffffffffffffffffffffffff1681526020019081526020015f20548111158160015f3373ffffffffffffffffffffffffffffffffffffffff1673ffffffffffffffffffffffffffffffffffffffff1681526020019081526020015f205490916101d2576040517fcf4791810000000000000000000000000000000000000000000000000000000081526004016101c99291906103db565b60405180910390fd5b50508060015f3373ffffffffffffffffffffffffffffffffffffffff1673ffffffffffffffffffffffffffffffffffffffff1681526020019081526020015f205f828254610220919061042f565b925050819055508060015f8473ffffffffffffffffffffffffffffffffffffffff1673ffffffffffffffffffffffffffffffffffffffff1681526020019081526020015f205f8282546102739190610462565b925050819055507fddf252ad1be2c89b69c2b068fc378daa952ba7f163c4a11628f55a4df523b3ef3383836040516102ad939291906104a4565b60405180910390a15050565b5f819050919050565b6102cb816102b9565b82525050565b5f6020820190506102e45f8301846102c2565b92915050565b5f5ffd5b6102f7816102b9565b8114610301575f5ffd5b50565b5f81359050610312816102ee565b92915050565b5f6020828403121561032d5761032c6102ea565b5b5f61033a84828501610304565b91505092915050565b5f73ffffffffffffffffffffffffffffffffffffffff82169050919050565b5f61036c82610343565b9050919050565b61037c81610362565b8114610386575f5ffd5b50565b5f8135905061039781610373565b92915050565b5f5f604083850312156103b3576103b26102ea565b5b5f6103c085828601610389565b92505060206103d185828601610304565b9150509250929050565b5f6040820190506103ee5f8301856102c2565b6103fb60208301846102c2565b9392505050565b7f4e487b71000000000000000000000000000000000000000000000000000000005f52601160045260245ffd5b5f610439826102b9565b9150610444836102b9565b925082820390508181111561045c5761045b610402565b5b92915050565b5f61046c826102b9565b9150610477836102b9565b925082820190508082111561048f5761048e610402565b5b92915050565b61049e81610362565b82525050565b5f6060820190506104b75f830186610495565b6104c46020830185610495565b6104d160408301846102c2565b94935050505056fea2646970667358221220231aa72d18bcc8672831d52717ca089c7f934baaafea9d3eebe4feb9091b23b064736f6c634300081c0033",
  "linkReferences": {},
  "deployedLinkReferences": {},
  "immutableReferences": {},
  "inputSourceName": "project/contracts/SimpleContract.sol",
  "buildInfoId": "solc-0_8_28-c43d16fd1c3030f83687a20e3f2588a6a5892cb0"
}