{
  "_format": "hh3-artifact-1",
  "contractName": "SimpleContract",
  "sourceName": "contracts/SimpleContract.sol",
  "abi": [
    {
      "inputs": [
        {
          "internalType": "uint256",
          "name": "requested",
          "type": "uint256"
        },
        {
          "internalType": "uint256",
          "name": "available",
          "type": "uint256"
        }
      ],
      "name": "InsufficientBalance",
      "type": "error"
    },
    {
      "anonymous": false,
      "inputs": [
        {
          "indexed": false,
          "internalType": "uint256",
          "name": "value",
          "type": "uint256"
        }
      ],
      "name": "Set",
      "type": "event"
    },
    {
      "anonymous": false,
      "inputs": [
        {
          "indexed": false,
          "internalType": "address",
          "name": "from",
          "type": "address"
        },
        {
          "indexed": false,
          "internalType": "address",
          "name": "to",
          "type": "address"
        },
        {
          "indexed": false,
          "internalType": "uint256",
          "name": "amount",
          "type": "uint256"
        }
      ],
      "name": "Transfer",
      "type": "event"
    },
    {
      "inputs": [],
      "name": "get",
      "outputs": [
        {
          "internalType": "uint256",
          "name": "",
          "type": "uint256"
        }
      ],
      "stateMutability": "view",
      "type": "function"
    },
    {
      "inputs": [
        {
          "internalType": "uint256",
          "name": "newValue",
          "type": "uint256"
        }
      ],
      "name": "set",
      "outputs": [],
      "stateMutability": "nonpayable",
      "type": "function"
    },
    {
      "inputs": [
        {
          "internalType": "address",
          "name": "to",
          "type": "address"
        },
        {
          "internalType": "uint256",
          "name": "amount",
          "type": "uint256"
        }
      ],
      "name": "transfer",
      "outputs": [],
      "stateMutability": "nonpayable",
      "type": "function"
    },
    {
      "inputs": [],
      "name": "value",
      "outputs": [
        {
          "internalType": "uint256",
          "name": "",
          "type": "uint256"
        }
      ],
      "stateMutability": "view",
      "type": "function"
    }
  ],
  "bytecode": "0x608060405234601c57600e6020565b61057f61002b823961057f90f35b6026565b60405190565b5f80fdfe60806040526004361015610013575b61025d565b61001d5f3561005c565b80633fa4f2451461005757806360fe47b1146100525780636d4ce63c1461004d5763a9059cbb0361000e57610229565b61018d565b61015a565b6100df565b60e01c90565b60405190565b5f80fd5b5f80fd5b5f91031261007a57565b61006c565b1c90565b90565b61009690600861009b930261007f565b610083565b90565b906100a99154610086565b90565b6100b75f5f9061009e565b90565b90565b6100c6906100ba565b9052565b91906100dd905f602085019401906100bd565b565b3461010f576100ef366004610070565b61010b6100fa6100ac565b610102610062565b918291826100ca565b0390f35b610068565b61011d816100ba565b0361012457565b5f80fd5b9050359061013582610114565b565b906020828203126101505761014d915f01610128565b90565b61006c565b5f0190565b346101885761017261016d366004610137565b6102be565b61017a610062565b8061018481610155565b0390f35b610068565b346101bd5761019d366004610070565b6101b96101a861032d565b6101b0610062565b918291826100ca565b0390f35b610068565b60018060a01b031690565b6101d6906101c2565b90565b6101e2816101cd565b036101e957565b5f80fd5b905035906101fa826101d9565b565b91906040838203126102245780610218610221925f86016101ed565b93602001610128565b90565b61006c565b346102585761024261023c3660046101fc565b90610473565b61024a610062565b8061025481610155565b0390f35b610068565b5f80fd5b5f1b90565b906102725f1991610261565b9181191691161790565b90565b61029361028e610298926100ba565b61027c565b6100ba565b90565b90565b906102b36102ae6102ba9261027f565b61029b565b8254610266565b9055565b6102c8815f61029e565b6102fe7fdf7a95aebff315db1b7716215d602ab537373cdb769232aae6055c06e798425b916102f5610062565b918291826100ca565b0390a1565b5f90565b5f1c90565b61031861031d91610307565b610083565b90565b61032a905461030c565b90565b610335610303565b5061033f5f610320565b90565b61035661035161035b926101c2565b61027c565b6101c2565b90565b61036790610342565b90565b6103739061035e565b90565b906103809061036a565b5f5260205260405f2090565b9160206103ad9294936103a660408201965f8301906100bd565b01906100bd565b565b156103b8575050565b6103d25f92839263cf47918160e01b84526004840161038c565b0390fd5b634e487b7160e01b5f52601160045260245ffd5b6103f96103ff919392936100ba565b926100ba565b820391821161040a57565b6103d6565b61041e610424919392936100ba565b926100ba565b820180921161042f57565b6103d6565b61043d906101cd565b9052565b60409061046a610471949695939661046060608401985f850190610434565b6020830190610434565b01906100bd565b565b906104ba8161049d61049761049261048d60013390610376565b610320565b6100ba565b916100ba565b1115826104b46104af60013390610376565b610320565b916103af565b6104e2816104dc6104cd60013390610376565b916104d783610320565b6103ea565b9061029e565b61050a816105046104f560018690610376565b916104ff83610320565b61040f565b9061029e565b339190916105447fddf252ad1be2c89b69c2b068fc378daa952ba7f163c4a11628f55a4df523b3ef9361053b610062565b93849384610441565b0390a156fea264697066735822122022bc92b5fb9adfbec0b6fc96d575894d394ac462d22d9ff0c52e8d2810c208e764736f6c634300081c0033",
  "linkReferences": {},
  "deployedLinkReferences": {},
  "immutableReferences": {},
  "inputSourceName": "project/contracts/SimpleContract.sol",
  "buildInfoId": "solc-0_8_28-629283a1fdcd54140903e68f760a725310900efc"
}