{
  "_format": "hh3-artifact-1",
  "contractName": "TRIZcoin",
  "sourceName": "contracts/TRIZcoin.sol",
  "abi": [
    {
      "inputs": [],
      "stateMutability": "nonpayable",
      "type": "constructor"
    },
    {
      "inputs": [
        {
          "internalType": "address",
          "name": "spender",
          "type": "address"
        },
        {
          "internalType": "uint256",
          "name": "allowance",
          "type": "uint256"
        },
        {
          "internalType": "uint256",
          "name": "needed",
          "type": "uint256"
        }
      ],
      "name": "ERC20InsufficientAllowance",
      "type": "error"
    },
    {
      "inputs": [
        {
          "internalType": "address",
          "name": "sender",
          "type": "address"
        },
        {
          "internalType": "uint256",
          "name": "balance",
          "type": "uint256"
        },
        {
          "internalType": "uint256",
          "name": "needed",
          "type": "uint256"
        }
      ],
      "name": "ERC20InsufficientBalance",
      "type": "error"
    },
    {
      "inputs": [
        {
          "internalType": "address",
          "name": "approver",
          "type": "address"
        }
      ],
      "name": "ERC20InvalidApprover",
      "type": "error"
    },
    {
      "inputs": [
        {
          "internalType": "address",
          "name": "receiver",
          "type": "address"
        }
      ],
      "name": "ERC20InvalidReceiver",
      "type": "error"
    },
    {
      "inputs": [
        {
          "internalType": "address",
          "name": "sender",
          "type": "address"
        }
      ],
      "name": "ERC20InvalidSender",
      "type": "error"
    },
    {
      "inputs": [
        {
          "internalType": "address",
          "name": "spender",
          "type": "address"
        }
      ],
      "name": "ERC20InvalidSpender",
      "type": "error"
    },
    {
      "inputs": [
        {
          "internalType": "address",
          "name": "owner",
          "type": "address"
        }
      ],
      "name": "OwnableInvalidOwner",
      "type": "error"
    },
    {
      "inputs": [
        {
          "internalType": "address",
          "name": "account",
          "type": "address"
        }
      ],
      "name": "OwnableUnauthorizedAccount",
      "type": "error"
    },
    {
      "anonymous": false,
      "inputs": [
        {
          "indexed": true,
          "internalType": "address",
          "name": "owner",
          "type": "address"
        },
        {
          "indexed": true,
          "internalType": "address",
          "name": "spender",
          "type": "address"
        },
        {
          "indexed": false,
          "internalType": "uint256",
          "name": "value",
          "type": "uint256"
        }
      ],
      "name": "Approval",
      "type": "event"
    },
    {
      "anonymous": false,
      "inputs": [
        {
          "indexed": true,
          "internalType": "address",
          "name": "previousOwner",
          "type": "address"
        },
        {
          "indexed": true,
          "internalType": "address",
          "name": "newOwner",
          "type": "address"
        }
      ],
      "name": "OwnershipTransferred",
      "type": "event"
    },
    {
      "anonymous": false,
      "inputs": [
        {
          "indexed": true,
          "internalType": "address",
          "name": "from",
          "type": "address"
        },
        {
          "indexed": true,
          "internalType": "address",
          "name": "to",
          "type": "address"
        },
        {
          "indexed": false,
          "internalType": "uint256",
          "name": "value",
          "type": "uint256"
        }
      ],
      "name": "Transfer",
      "type": "event"
    },
    {
      "inputs": [
        {
          "internalType": "address",
          "name": "owner",
          "type": "address"
        },
        {
          "internalType": "address",
          "name": "spender",
          "type": "address"
        }
      ],
      "name": "allowance",
      "outputs": [
        {
          "internalType": "uint256",
          "name": "",
          "type": "uint256"
        }
      ],
      "stateMutability": "view",
      "type": "function"
    },
    {
      "inputs": [
        {
          "internalType": "address",
          "name": "spender",
          "type": "address"
        },
        {
          "internalType": "uint256",
          "name": "value",
          "type": "uint256"
        }
      ],
      "name": "approve",
      "outputs": [
        {
          "internalType": "bool",
          "name": "",
          "type": "bool"
        }
      ],
      "stateMutability": "nonpayable",
      "type": "function"
    },
    {
      "inputs": [
        {
          "internalType": "address",
          "name": "account",
          "type": "address"
        }
      ],
      "name": "balanceOf",
      "outputs": [
        {
          "internalType": "uint256",
          "name": "",
          "type": "uint256"
        }
      ],
      "stateMutability": "view",
      "type": "function"
    },
    {
      "inputs": [],
      "name": "decimals",
      "outputs": [
        {
          "internalType": "uint8",
          "name": "",
          "type": "uint8"
        }
      ],
      "stateMutability": "view",
      "type": "function"
    },
    {
      "inputs": [],
      "name": "name",
      "outputs": [
        {
          "internalType": "string",
          "name": "",
          "type": "string"
        }
      ],
      "stateMutability": "view",
      "type": "function"
    },
    {
      "inputs": [],
      "name": "owner",
      "outputs": [
        {
          "internalType": "address",
          "name": "",
          "type": "address"
        }
      ],
      "stateMutability": "view",
      "type": "function"
    },
    {
      "inputs": [],
      "name": "renounceOwnership",
      "outputs": [],
      "stateMutability": "nonpayable",
      "type": "function"
    },
    {
      "inputs": [],
      "name": "symbol",
      "outputs": [
        {
          "internalType": "string",
          "name": "",
          "type": "string"
        }
      ],
      "stateMutability": "view",
      "type": "function"
    },
    {
      "inputs": [],
      "name": "totalSupply",
      "outputs": [
        {
          "internalType": "uint256",
          "name": "",
          "type": "uint256"
        }
      ],
      "stateMutability": "view",
      "type": "function"
    },
    {
      "inputs": [
        {
          "internalType": "address",
          "name": "to",
          "type": "address"
        },
        {
          "internalType": "uint256",
          "name": "value",
          "type": "uint256"
        }
      ],
      "name": "transfer",
      "outputs": [
        {
          "internalType": "bool",
          "name": "",
          "type": "bool"
        }
      ],
      "stateMutability": "nonpayable",
      "type": "function"
    },
    {
      "inputs": [
        {
          "internalType": "address",
          "name": "from",
          "type": "address"
        },
        {
          "internalType": "address",
          "name": "to",
          "type": "address"
        },
        {
          "internalType": "uint256",
          "name": "value",
          "type": "uint256"
        }
      ],
      "name": "transferFrom",
      "outputs": [
        {
          "internalType": "bool",
          "name": "",
          "type": "bool"
        }
      ],
      "stateMutability": "nonpayable",
      "type": "function"
    },
    {
      "inputs": [
        {
          "internalType": "address",
          "name": "newOwner",
          "type": "address"
        }
      ],
      "name": "transferOwnership",
      "outputs": [],
      "stateMutability": "nonpayable",
      "type": "function"
    }
  ],
  "bytecode": "0x608060405234610027576100116101ee565b61001961002c565b610f8d61097c8239610f8d90f35b610032565b60405190565b5f80fd5b601f801991011690565b634e487b7160e01b5f52604160045260245ffd5b9061005e90610036565b810190811060018060401b0382111761007657604052565b610040565b9061008e61008761002c565b9283610054565b565b60018060401b0381116100ac576100a8602091610036565b0190565b610040565b906100c36100be83610090565b61007b565b918252565b5f7f5452495a636f696e000000000000000000000000000000000000000000000000910152565b6100f960086100b1565b90610106602083016100c8565b565b6101106100ef565b90565b5f7f5452495a00000000000000000000000000000000000000000000000000000000910152565b61014460046100b1565b9061015160208301610113565b565b61015b61013a565b90565b90565b90565b60ff1690565b634e487b7160e01b5f52601160045260245ffd5b61018790610164565b604d811161019557600a0a90565b61016a565b90565b6101b16101ac6101b69261019a565b610161565b61015e565b90565b6101c86101ce9193929361015e565b9261015e565b916101da83820261015e565b9281840414901517156101e957565b61016a565b610208336101fa610108565b610202610153565b9161029d565b61023733610231620f424061022c610226610221610585565b61017e565b9161019d565b6101b9565b9061059b565b565b90565b60018060a01b031690565b61025b61025661026092610239565b610161565b61023c565b90565b61026c90610247565b90565b6102789061023c565b90565b6102849061026f565b9052565b919061029b905f6020850194019061027b565b565b916102a79161054a565b806102c26102bc6102b75f610263565b61026f565b9161026f565b146102d2576102d0906106a6565b565b6102f56102de5f610263565b5f918291631e4fbdf760e01b835260048301610288565b0390fd5b5190565b634e487b7160e01b5f52602260045260245ffd5b9060016002830492168015610331575b602083101461032c57565b6102fd565b91607f1691610321565b5f5260205f2090565b601f602091010490565b1b90565b9190600861036d9102916103675f198461034e565b9261034e565b9181191691161790565b61038b6103866103909261015e565b610161565b61015e565b90565b90565b91906103ac6103a76103b493610377565b610393565b908354610352565b9055565b5f90565b6103ce916103c86103b8565b91610396565b565b5b8181106103dc575050565b806103e95f6001936103bc565b016103d1565b9190601f81116103ff575b505050565b61040b6104309361033b565b90602061041784610344565b83019310610438575b61042990610344565b01906103d0565b5f80806103fa565b915061042981929050610420565b1c90565b9061045a905f1990600802610446565b191690565b816104699161044a565b906002021790565b9061047b816102f9565b9060018060401b0382116105395761049d826104978554610311565b856103ef565b602090601f83116001146104d1579180916104c0935f926104c5575b505061045f565b90555b565b90915001515f806104b9565b601f198316916104e08561033b565b925f5b81811061052157509160029391856001969410610507575b505050020190556104c3565b610517910151601f84169061044a565b90555f80806104fb565b919360206001819287870151815501950192016104e3565b610040565b9061054891610471565b565b9061055961056092600361053e565b600461053e565b565b5f90565b90565b61057d61057861058292610566565b610161565b610164565b90565b61058d610562565b506105986012610569565b90565b806105b66105b06105ab5f610263565b61026f565b9161026f565b146105d2576105d0916105c85f610263565b91909161080c565b565b6105f56105de5f610263565b5f91829163ec442f0560e01b835260048301610288565b0390fd5b5f1c90565b60018060a01b031690565b61061561061a916105f9565b6105fe565b90565b6106279054610609565b90565b5f1b90565b9061064060018060a01b039161062a565b9181191691161790565b61065e6106596106639261023c565b610161565b61023c565b90565b61066f9061064a565b90565b61067b90610666565b90565b90565b9061069661069161069d92610672565b61067e565b825461062f565b9055565b5f0190565b6106b0600561061d565b6106bb826005610681565b906106ef6106e97f8be0079c531659141344cd1fd0a4f28419497f9722a3daafe3b4186f6b6457e093610672565b91610672565b916106f861002c565b80610702816106a1565b0390a3565b9061071190610672565b5f5260205260405f2090565b90565b61072c610731916105f9565b61071d565b90565b61073e9054610720565b90565b61074a9061015e565b9052565b60409061077761077e949695939661076d60608401985f85019061027b565b6020830190610741565b0190610741565b565b9061078b910361015e565b90565b9061079a5f199161062a565b9181191691161790565b906107b96107b46107c092610377565b610393565b825461078e565b9055565b6107d36107d99193929361015e565b9261015e565b82018092116107e457565b61016a565b906107f4910161015e565b90565b919061080a905f60208501940190610741565b565b9190918061082a61082461081f5f610263565b61026f565b9161026f565b145f1461090b5761084e610847836108426002610734565b6107c4565b60026107a4565b5b8261086a61086461085f5f610263565b61026f565b9161026f565b145f146108df5761088e610887836108826002610734565b610780565b60026107a4565b5b9190916108da6108c86108c27fddf252ad1be2c89b69c2b068fc378daa952ba7f163c4a11628f55a4df523b3ef93610672565b93610672565b936108d161002c565b918291826107f7565b0390a3565b610906826109006108f15f8790610707565b916108fb83610734565b6107e9565b906107a4565b61088f565b61091e6109195f8390610707565b610734565b8061093161092b8561015e565b9161015e565b1061095957610944610954918490610780565b61094f5f8490610707565b6107a4565b61084f565b906109779091925f93849363391434e360e21b85526004850161074e565b0390fdfe60806040526004361015610013575b610590565b61001d5f356100dc565b806306fdde03146100d7578063095ea7b3146100d257806318160ddd146100cd57806323b872dd146100c8578063313ce567146100c357806370a08231146100be578063715018a6146100b95780638da5cb5b146100b457806395d89b41146100af578063a9059cbb146100aa578063dd62ed3e146100a55763f2fde38b0361000e5761055d565b610527565b6104c4565b61048f565b61045a565b610405565b6103cb565b610378565b61031a565b6102ab565b610253565b61016a565b60e01c90565b60405190565b5f80fd5b5f80fd5b5f9103126100fa57565b6100ec565b5190565b60209181520190565b90825f9392825e0152565b601f801991011690565b61014061014960209361014e93610137816100ff565b93848093610103565b9586910161010c565b610117565b0190565b6101679160208201915f818403910152610121565b90565b3461019a5761017a3660046100f0565b6101966101856106ed565b61018d6100e2565b91829182610152565b0390f35b6100e8565b60018060a01b031690565b6101b39061019f565b90565b6101bf816101aa565b036101c657565b5f80fd5b905035906101d7826101b6565b565b90565b6101e5816101d9565b036101ec57565b5f80fd5b905035906101fd826101dc565b565b9190604083820312610227578061021b610224925f86016101ca565b936020016101f0565b90565b6100ec565b151590565b61023a9061022c565b9052565b9190610251905f60208501940190610231565b565b346102845761028061026f6102693660046101ff565b90610707565b6102776100e2565b9182918261023e565b0390f35b6100e8565b610292906101d9565b9052565b91906102a9905f60208501940190610289565b565b346102db576102bb3660046100f0565b6102d76102c6610756565b6102ce6100e2565b91829182610296565b0390f35b6100e8565b9091606082840312610315576103126102fb845f85016101ca565b9361030981602086016101ca565b936040016101f0565b90565b6100ec565b3461034b576103476103366103303660046102e0565b9161076c565b61033e6100e2565b9182918261023e565b0390f35b6100e8565b60ff1690565b61035f90610350565b9052565b9190610376905f60208501940190610356565b565b346103a8576103883660046100f0565b6103a46103936107c1565b61039b6100e2565b91829182610363565b0390f35b6100e8565b906020828203126103c6576103c3915f016101ca565b90565b6100ec565b346103fb576103f76103e66103e13660046103ad565b610821565b6103ee6100e2565b91829182610296565b0390f35b6100e8565b5f0190565b34610433576104153660046100f0565b61041d61088f565b6104256100e2565b8061042f81610400565b0390f35b6100e8565b610441906101aa565b9052565b9190610458905f60208501940190610438565b565b3461048a5761046a3660046100f0565b6104866104756108c9565b61047d6100e2565b91829182610445565b0390f35b6100e8565b346104bf5761049f3660046100f0565b6104bb6104aa6108df565b6104b26100e2565b91829182610152565b0390f35b6100e8565b346104f5576104f16104e06104da3660046101ff565b906108f5565b6104e86100e2565b9182918261023e565b0390f35b6100e8565b9190604083820312610522578061051661051f925f86016101ca565b936020016101ca565b90565b6100ec565b346105585761055461054361053d3660046104fa565b9061092d565b61054b6100e2565b91829182610296565b0390f35b6100e8565b3461058b576105756105703660046103ad565b6109ba565b61057d6100e2565b8061058781610400565b0390f35b6100e8565b5f80fd5b606090565b634e487b7160e01b5f52602260045260245ffd5b90600160028304921680156105cd575b60208310146105c857565b610599565b91607f16916105bd565b60209181520190565b5f5260205f2090565b905f92918054906106036105fc836105ad565b80946105d7565b916001811690815f1461065a575060011461061e575b505050565b61062b91929394506105e0565b915f925b81841061064257505001905f8080610619565b6001816020929593955484860152019101929061062f565b92949550505060ff19168252151560200201905f8080610619565b9061067f916105e9565b90565b634e487b7160e01b5f52604160045260245ffd5b906106a090610117565b810190811067ffffffffffffffff8211176106ba57604052565b610682565b906106df6106d8926106cf6100e2565b93848092610675565b0383610696565b565b6106ea906106bf565b90565b6106f5610594565b5061070060036106e1565b90565b5f90565b61072491610713610703565b5061071c6109c5565b9190916109d2565b600190565b5f90565b5f1c90565b90565b6107416107469161072d565b610732565b90565b6107539054610735565b90565b61075e610729565b506107696002610749565b90565b9161079692610779610703565b5061078e6107856109c5565b82908491610a22565b919091610aae565b600190565b5f90565b90565b90565b6107b96107b46107be9261079f565b6107a2565b610350565b90565b6107c961079b565b506107d460126107a5565b90565b6107eb6107e66107f09261019f565b6107a2565b61019f565b90565b6107fc906107d7565b90565b610808906107f3565b90565b90610815906107ff565b5f5260205260405f2090565b61083761083c91610830610729565b505f61080b565b610749565b90565b610847610b4b565b61084f61087c565b565b90565b61086861086361086d92610851565b6107a2565b61019f565b90565b61087990610854565b90565b61088d6108885f610870565b610bdc565b565b61089761083f565b565b5f90565b60018060a01b031690565b6108b46108b99161072d565b61089d565b90565b6108c690546108a8565b90565b6108d1610899565b506108dc60056108bc565b90565b6108e7610594565b506108f260046106e1565b90565b61091291610901610703565b5061090a6109c5565b919091610aae565b600190565b90610921906107ff565b5f5260205260405f2090565b6109529161094861094d92610940610729565b506001610917565b61080b565b610749565b90565b61096690610961610b4b565b610968565b565b8061098361097d6109785f610870565b6101aa565b916101aa565b146109935761099190610bdc565b565b6109b661099f5f610870565b5f918291631e4fbdf760e01b835260048301610445565b0390fd5b6109c390610955565b565b6109cd610899565b503390565b916109e09291600192610c92565b565b604090610a0b610a129496959396610a0160608401985f850190610438565b6020830190610289565b0190610289565b565b90610a1f91036101d9565b90565b929192610a3081839061092d565b9081610a45610a3f5f196101d9565b916101d9565b10610a52575b5050509050565b81610a65610a5f876101d9565b916101d9565b10610a8b57610a829394610a7a919392610a14565b905f92610c92565b805f8080610a4b565b50610aaa849291925f938493637dc7a0d960e11b8552600485016109e2565b0390fd5b9182610aca610ac4610abf5f610870565b6101aa565b916101aa565b14610b245781610aea610ae4610adf5f610870565b6101aa565b916101aa565b14610afd57610afb92919091610de8565b565b610b20610b095f610870565b5f91829163ec442f0560e01b835260048301610445565b0390fd5b610b47610b305f610870565b5f918291634b637e8f60e11b835260048301610445565b0390fd5b610b536108c9565b610b6c610b66610b616109c5565b6101aa565b916101aa565b03610b7357565b610b95610b7e6109c5565b5f91829163118cdaa760e01b835260048301610445565b0390fd5b5f1b90565b90610baf60018060a01b0391610b99565b9181191691161790565b90565b90610bd1610bcc610bd8926107ff565b610bb9565b8254610b9e565b9055565b610be660056108bc565b610bf1826005610bbc565b90610c25610c1f7f8be0079c531659141344cd1fd0a4f28419497f9722a3daafe3b4186f6b6457e0936107ff565b916107ff565b91610c2e6100e2565b80610c3881610400565b0390a3565b90610c495f1991610b99565b9181191691161790565b610c67610c62610c6c926101d9565b6107a2565b6101d9565b90565b90565b90610c87610c82610c8e92610c53565b610c6f565b8254610c3d565b9055565b909281610caf610ca9610ca45f610870565b6101aa565b916101aa565b14610d7a5783610ccf610cc9610cc45f610870565b6101aa565b916101aa565b14610d5357610cf383610cee610ce760018690610917565b879061080b565b610c72565b610cfd575b505050565b919091610d48610d36610d307f8c5be1e5ebec7d5bd14f71427d1e84f3dd0314c0f7b2291e5b200ac8c7c3b925936107ff565b936107ff565b93610d3f6100e2565b91829182610296565b0390a35f8080610cf8565b610d76610d5f5f610870565b5f918291634a1406b160e11b835260048301610445565b0390fd5b610d9d610d865f610870565b5f91829163e602df0560e01b835260048301610445565b0390fd5b634e487b7160e01b5f52601160045260245ffd5b610dc4610dca919392936101d9565b926101d9565b8201809211610dd557565b610da1565b90610de591016101d9565b90565b91909180610e06610e00610dfb5f610870565b6101aa565b916101aa565b145f14610ee757610e2a610e2383610e1e6002610749565b610db5565b6002610c72565b5b82610e46610e40610e3b5f610870565b6101aa565b916101aa565b145f14610ebb57610e6a610e6383610e5e6002610749565b610a14565b6002610c72565b5b919091610eb6610ea4610e9e7fddf252ad1be2c89b69c2b068fc378daa952ba7f163c4a11628f55a4df523b3ef936107ff565b936107ff565b93610ead6100e2565b91829182610296565b0390a3565b610ee282610edc610ecd5f879061080b565b91610ed783610749565b610dda565b90610c72565b610e6b565b610efa610ef55f839061080b565b610749565b80610f0d610f07856101d9565b916101d9565b10610f3557610f20610f30918490610a14565b610f2b5f849061080b565b610c72565b610e2b565b90610f539091925f93849363391434e360e21b8552600485016109e2565b0390fdfea26469706673582212209dd8ae8b7b57fa7d945ad385b2e58249eada4435aababeebcefc2ae76c3eb9c764736f6c634300081c0033",
  "linkReferences": {},
  "deployedLinkReferences": {},
  "immutableReferences": {},
  "inputSourceName": "project/contracts/TRIZcoin.sol",
  "buildInfoId": "solc-0_8_28-fa1f2872298dfa6dd5890d33ceb68c745e5b6344"
}