{
  "_format": "hh3-artifact-1",
  "contractName": "TournamentFactory",
  "sourceName": "contracts/TournamentFactory.sol",
  "abi": [
    {
      "inputs": [
        {
          "internalType": "address",
          "name": "tokenAddress",
          "type": "address"
        }
      ],
      "stateMutability": "nonpayable",
      "type": "constructor"
    },
    {
      "inputs": [
        {
          "internalType": "address",
          "name": "owner",
          "type": "address"
        }
      ],
      "name": "OwnableInvalidOwner",
      "type": "error"
    },
    {
      "inputs": [
        {
          "internalType": "address",
          "name": "account",
          "type": "address"
        }
      ],
      "name": "OwnableUnauthorizedAccount",
      "type": "error"
    },
    {
      "anonymous": false,
      "inputs": [
        {
          "indexed": false,
          "internalType": "uint256",
          "name": "_id",
          "type": "uint256"
        },
        {
          "indexed": false,
          "internalType": "uint256",
          "name": "_round",
          "type": "uint256"
        },
        {
          "indexed": false,
          "internalType": "uint256",
          "name": "_matchId",
          "type": "uint256"
        }
      ],
      "name": "MatchCreated",
      "type": "event"
    },
    {
      "anonymous": false,
      "inputs": [
        {
          "indexed": false,
          "internalType": "uint256",
          "name": "_id",
          "type": "uint256"
        },
        {
          "indexed": false,
          "internalType": "uint256",
          "name": "_round",
          "type": "uint256"
        },
        {
          "indexed": false,
          "internalType": "uint256",
          "name": "_matchId",
          "type": "uint256"
        }
      ],
      "name": "MatchFinished",
      "type": "event"
    },
    {
      "anonymous": false,
      "inputs": [
        {
          "indexed": true,
          "internalType": "address",
          "name": "previousOwner",
          "type": "address"
        },
        {
          "indexed": true,
          "internalType": "address",
          "name": "newOwner",
          "type": "address"
        }
      ],
      "name": "OwnershipTransferred",
      "type": "event"
    },
    {
      "anonymous": false,
      "inputs": [
        {
          "indexed": false,
          "internalType": "uint256",
          "name": "_id",
          "type": "uint256"
        }
      ],
      "name": "SetStatus",
      "type": "event"
    },
    {
      "anonymous": false,
      "inputs": [
        {
          "indexed": false,
          "internalType": "uint256",
          "name": "_id",
          "type": "uint256"
        }
      ],
      "name": "TournamentCreated",
      "type": "event"
    },
    {
      "inputs": [
        {
          "internalType": "uint256",
          "name": "_id",
          "type": "uint256"
        },
        {
          "internalType": "uint256",
          "name": "_index",
          "type": "uint256"
        }
      ],
      "name": "claimPrize",
      "outputs": [],
      "stateMutability": "nonpayable",
      "type": "function"
    },
    {
      "inputs": [
        {
          "internalType": "uint256",
          "name": "_id",
          "type": "uint256"
        },
        {
          "internalType": "uint256",
          "name": "_index",
          "type": "uint256"
        }
      ],
      "name": "claimRefunds",
      "outputs": [],
      "stateMutability": "nonpayable",
      "type": "function"
    },
    {
      "inputs": [
        {
          "internalType": "uint256",
          "name": "_id",
          "type": "uint256"
        },
        {
          "internalType": "uint256",
          "name": "_round",
          "type": "uint256"
        },
        {
          "internalType": "uint256",
          "name": "_matchId",
          "type": "uint256"
        },
        {
          "components": [
            {
              "internalType": "address",
              "name": "addr",
              "type": "address"
            },
            {
              "internalType": "bool",
              "name": "claimed",
              "type": "bool"
            },
            {
              "internalType": "string",
              "name": "username",
              "type": "string"
            }
          ],
          "internalType": "struct TournamentFactory.Player",
          "name": "p1",
          "type": "tuple"
        },
        {
          "components": [
            {
              "internalType": "address",
              "name": "addr",
              "type": "address"
            },
            {
              "internalType": "bool",
              "name": "claimed",
              "type": "bool"
            },
            {
              "internalType": "string",
              "name": "username",
              "type": "string"
            }
          ],
          "internalType": "struct TournamentFactory.Player",
          "name": "p2",
          "type": "tuple"
        }
      ],
      "name": "createMatch",
      "outputs": [],
      "stateMutability": "nonpayable",
      "type": "function"
    },
    {
      "inputs": [
        {
          "internalType": "uint256",
          "name": "_id",
          "type": "uint256"
        },
        {
          "internalType": "uint256[]",
          "name": "order",
          "type": "uint256[]"
        }
      ],
      "name": "createNextRound",
      "outputs": [],
      "stateMutability": "nonpayable",
      "type": "function"
    },
    {
      "inputs": [
        {
          "internalType": "uint256",
          "name": "_id",
          "type": "uint256"
        },
        {
          "internalType": "uint256[]",
          "name": "order",
          "type": "uint256[]"
        }
      ],
      "name": "createRound",
      "outputs": [],
      "stateMutability": "nonpayable",
      "type": "function"
    },
    {
      "inputs": [
        {
          "internalType": "string",
          "name": "_title",
          "type": "string"
        },
        {
          "internalType": "uint256",
          "name": "_entryFee",
          "type": "uint256"
        },
        {
          "internalType": "uint256",
          "name": "_maxParticipants",
          "type": "uint256"
        },
        {
          "internalType": "uint256",
          "name": "_startTime",
          "type": "uint256"
        },
        {
          "internalType": "string",
          "name": "_username",
          "type": "string"
        }
      ],
      "name": "createTournament",
      "outputs": [],
      "stateMutability": "nonpayable",
      "type": "function"
    },
    {
      "inputs": [
        {
          "internalType": "uint256",
          "name": "_id",
          "type": "uint256"
        },
        {
          "internalType": "uint256",
          "name": "_round",
          "type": "uint256"
        },
        {
          "internalType": "uint256",
          "name": "_matchId",
          "type": "uint256"
        }
      ],
      "name": "getMatch",
      "outputs": [
        {
          "components": [
            {
              "components": [
                {
                  "internalType": "address",
                  "name": "addr",
                  "type": "address"
                },
                {
                  "internalType": "bool",
                  "name": "claimed",
                  "type": "bool"
                },
                {
                  "internalType": "string",
                  "name": "username",
                  "type": "string"
                }
              ],
              "internalType": "struct TournamentFactory.Player",
              "name": "player1",
              "type": "tuple"
            },
            {
              "internalType": "uint256",
              "name": "player1Score",
              "type": "uint256"
            },
            {
              "components": [
                {
                  "internalType": "address",
                  "name": "addr",
                  "type": "address"
                },
                {
                  "internalType": "bool",
                  "name": "claimed",
                  "type": "bool"
                },
                {
                  "internalType": "string",
                  "name": "username",
                  "type": "string"
                }
              ],
              "internalType": "struct TournamentFactory.Player",
              "name": "player2",
              "type": "tuple"
            },
            {
              "internalType": "uint256",
              "name": "player2Score",
              "type": "uint256"
            },
            {
              "internalType": "enum TournamentFactory.Status",
              "name": "status",
              "type": "uint8"
            }
          ],
          "internalType": "struct TournamentFactory.Match",
          "name": "",
          "type": "tuple"
        }
      ],
      "stateMutability": "view",
      "type": "function"
    },
    {
      "inputs": [
        {
          "internalType": "uint256",
          "name": "tournamentId",
          "type": "uint256"
        },
        {
          "internalType": "uint256",
          "name": "round",
          "type": "uint256"
        },
        {
          "internalType": "uint256",
          "name": "matchNumber",
          "type": "uint256"
        }
      ],
      "name": "getMatchKey",
      "outputs": [
        {
          "internalType": "bytes32",
          "name": "",
          "type": "bytes32"
        }
      ],
      "stateMutability": "pure",
      "type": "function"
    },
    {
      "inputs": [
        {
          "internalType": "bytes32",
          "name": "_key",
          "type": "bytes32"
        }
      ],
      "name": "getMatchWithKey",
      "outputs": [
        {
          "components": [
            {
              "components": [
                {
                  "internalType": "address",
                  "name": "addr",
                  "type": "address"
                },
                {
                  "internalType": "bool",
                  "name": "claimed",
                  "type": "bool"
                },
                {
                  "internalType": "string",
                  "name": "username",
                  "type": "string"
                }
              ],
              "internalType": "struct TournamentFactory.Player",
              "name": "player1",
              "type": "tuple"
            },
            {
              "internalType": "uint256",
              "name": "player1Score",
              "type": "uint256"
            },
            {
              "components": [
                {
                  "internalType": "address",
                  "name": "addr",
                  "type": "address"
                },
                {
                  "internalType": "bool",
                  "name": "claimed",
                  "type": "bool"
                },
                {
                  "internalType": "string",
                  "name": "username",
                  "type": "string"
                }
              ],
              "internalType": "struct TournamentFactory.Player",
              "name": "player2",
              "type": "tuple"
            },
            {
              "internalType": "uint256",
              "name": "player2Score",
              "type": "uint256"
            },
            {
              "internalType": "enum TournamentFactory.Status",
              "name": "status",
              "type": "uint8"
            }
          ],
          "internalType": "struct TournamentFactory.Match",
          "name": "",
          "type": "tuple"
        }
      ],
      "stateMutability": "view",
      "type": "function"
    },
    {
      "inputs": [
        {
          "internalType": "uint256",
          "name": "tournamentId",
          "type": "uint256"
        },
        {
          "internalType": "uint256",
          "name": "round",
          "type": "uint256"
        },
        {
          "internalType": "uint256",
          "name": "index",
          "type": "uint256"
        }
      ],
      "name": "getPlayer",
      "outputs": [
        {
          "components": [
            {
              "internalType": "address",
              "name": "addr",
              "type": "address"
            },
            {
              "internalType": "bool",
              "name": "claimed",
              "type": "bool"
            },
            {
              "internalType": "string",
              "name": "username",
              "type": "string"
            }
          ],
          "internalType": "struct TournamentFactory.Player",
          "name": "",
          "type": "tuple"
        }
      ],
      "stateMutability": "view",
      "type": "function"
    },
    {
      "inputs": [
        {
          "internalType": "uint256",
          "name": "tournamentId",
          "type": "uint256"
        },
        {
          "internalType": "uint256",
          "name": "round",
          "type": "uint256"
        },
        {
          "internalType": "uint256",
          "name": "index",
          "type": "uint256"
        }
      ],
      "name": "getPlayerKey",
      "outputs": [
        {
          "internalType": "bytes32",
          "name": "",
          "type": "bytes32"
        }
      ],
      "stateMutability": "pure",
      "type": "function"
    },
    {
      "inputs": [
        {
          "internalType": "uint256",
          "name": "id",
          "type": "uint256"
        }
      ],
      "name": "getTournament",
      "outputs": [
        {
          "components": [
            {
              "internalType": "uint256",
              "name": "id",
              "type": "uint256"
            },
            {
              "internalType": "string",
              "name": "title",
              "type": "string"
            },
            {
              "internalType": "uint256",
              "name": "entryFee",
              "type": "uint256"
            },
            {
              "internalType": "uint256",
              "name": "participants",
              "type": "uint256"
            },
            {
              "internalType": "uint256",
              "name": "maxParticipants",
              "type": "uint256"
            },
            {
              "internalType": "uint256",
              "name": "currentRound",
              "type": "uint256"
            },
            {
              "internalType": "uint256",
              "name": "startTime",
              "type": "uint256"
            },
            {
              "internalType": "enum TournamentFactory.Status",
              "name": "status",
              "type": "uint8"
            }
          ],
          "internalType": "struct TournamentFactory.Tournament",
          "name": "",
          "type": "tuple"
        }
      ],
      "stateMutability": "view",
      "type": "function"
    },
    {
      "inputs": [],
      "name": "getTournamentLength",
      "outputs": [
        {
          "internalType": "uint256",
          "name": "",
          "type": "uint256"
        }
      ],
      "stateMutability": "view",
      "type": "function"
    },
    {
      "inputs": [],
      "name": "getTournaments",
      "outputs": [
        {
          "components": [
            {
              "internalType": "uint256",
              "name": "id",
              "type": "uint256"
            },
            {
              "internalType": "string",
              "name": "title",
              "type": "string"
            },
            {
              "internalType": "uint256",
              "name": "entryFee",
              "type": "uint256"
            },
            {
              "internalType": "uint256",
              "name": "participants",
              "type": "uint256"
            },
            {
              "internalType": "uint256",
              "name": "maxParticipants",
              "type": "uint256"
            },
            {
              "internalType": "uint256",
              "name": "currentRound",
              "type": "uint256"
            },
            {
              "internalType": "uint256",
              "name": "startTime",
              "type": "uint256"
            },
            {
              "internalType": "enum TournamentFactory.Status",
              "name": "status",
              "type": "uint8"
            }
          ],
          "internalType": "struct TournamentFactory.Tournament[]",
          "name": "",
          "type": "tuple[]"
        }
      ],
      "stateMutability": "view",
      "type": "function"
    },
    {
      "inputs": [
        {
          "internalType": "uint256",
          "name": "_id",
          "type": "uint256"
        },
        {
          "internalType": "string",
          "name": "_username",
          "type": "string"
        }
      ],
      "name": "joinTournament",
      "outputs": [],
      "stateMutability": "nonpayable",
      "type": "function"
    },
    {
      "inputs": [],
      "name": "owner",
      "outputs": [
        {
          "internalType": "address",
          "name": "",
          "type": "address"
        }
      ],
      "stateMutability": "view",
      "type": "function"
    },
    {
      "inputs": [],
      "name": "renounceOwnership",
      "outputs": [],
      "stateMutability": "nonpayable",
      "type": "function"
    },
    {
      "inputs": [
        {
          "internalType": "enum TournamentFactory.Status",
          "name": "_statue",
          "type": "uint8"
        },
        {
          "internalType": "uint256",
          "name": "_id",
          "type": "uint256"
        }
      ],
      "name": "setTournamentStatus",
      "outputs": [],
      "stateMutability": "nonpayable",
      "type": "function"
    },
    {
      "inputs": [
        {
          "internalType": "uint256",
          "name": "_id",
          "type": "uint256"
        },
        {
          "internalType": "uint256[]",
          "name": "order",
          "type": "uint256[]"
        }
      ],
      "name": "startTournament",
      "outputs": [],
      "stateMutability": "nonpayable",
      "type": "function"
    },
    {
      "inputs": [
        {
          "internalType": "uint256",
          "name": "_id",
          "type": "uint256"
        },
        {
          "internalType": "uint256",
          "name": "_round",
          "type": "uint256"
        },
        {
          "internalType": "uint256",
          "name": "_matchId",
          "type": "uint256"
        },
        {
          "internalType": "uint256",
          "name": "_score_1",
          "type": "uint256"
        },
        {
          "internalType": "uint256",
          "name": "_score_2",
          "type": "uint256"
        }
      ],
      "name": "submitMatchScore",
      "outputs": [],
      "stateMutability": "nonpayable",
      "type": "function"
    },
    {
      "inputs": [],
      "name": "token",
      "outputs": [
        {
          "internalType": "contract TRIZcoin",
          "name": "",
          "type": "address"
        }
      ],
      "stateMutability": "view",
      "type": "function"
    },
    {
      "inputs": [
        {
          "internalType": "uint256",
          "name": "",
          "type": "uint256"
        }
      ],
      "name": "tournaments",
      "outputs": [
        {
          "internalType": "uint256",
          "name": "id",
          "type": "uint256"
        },
        {
          "internalType": "string",
          "name": "title",
          "type": "string"
        },
        {
          "internalType": "uint256",
          "name": "entryFee",
          "type": "uint256"
        },
        {
          "internalType": "uint256",
          "name": "participants",
          "type": "uint256"
        },
        {
          "internalType": "uint256",
          "name": "maxParticipants",
          "type": "uint256"
        },
        {
          "internalType": "uint256",
          "name": "currentRound",
          "type": "uint256"
        },
        {
          "internalType": "uint256",
          "name": "startTime",
          "type": "uint256"
        },
        {
          "internalType": "enum TournamentFactory.Status",
          "name": "status",
          "type": "uint8"
        }
      ],
      "stateMutability": "view",
      "type": "function"
    },
    {
      "inputs": [
        {
          "internalType": "address",
          "name": "newOwner",
          "type": "address"
        }
      ],
      "name": "transferOwnership",
      "outputs": [],
      "stateMutability": "nonpayable",
      "type": "function"
    }
  ],
  "bytecode": "0x60806040523461002f576100196100146100f4565b61019b565b610021610034565b6136b161032982396136b190f35b61003a565b60405190565b5f80fd5b601f801991011690565b634e487b7160e01b5f52604160045260245ffd5b906100669061003e565b810190811060018060401b0382111761007e57604052565b610048565b9061009661008f610034565b928361005c565b565b5f80fd5b60018060a01b031690565b6100b09061009c565b90565b6100bc816100a7565b036100c357565b5f80fd5b905051906100d4826100b3565b565b906020828203126100ef576100ec915f016100c7565b90565b610098565b6101126139da8038038061010781610083565b9283398101906100d6565b90565b90565b61012c6101276101319261009c565b610115565b61009c565b90565b61013d90610118565b90565b61014990610134565b90565b5f1b90565b9061016260018060a01b039161014c565b9181191691161790565b61017590610134565b90565b90565b9061019061018b6101979261016c565b610178565b8254610151565b9055565b6101b06101b7916101ab33610206565b610140565b600161017b565b565b90565b6101d06101cb6101d5926101b9565b610115565b61009c565b90565b6101e1906101bc565b90565b6101ed906100a7565b9052565b9190610204905f602085019401906101e4565b565b8061022161021b6102165f6101d8565b6100a7565b916100a7565b146102315761022f906102c9565b565b61025461023d5f6101d8565b5f918291631e4fbdf760e01b8352600483016101f1565b0390fd5b5f1c90565b60018060a01b031690565b61027461027991610258565b61025d565b90565b6102869054610268565b90565b61029290610118565b90565b61029e90610289565b90565b90565b906102b96102b46102c092610295565b6102a1565b8254610151565b9055565b5f0190565b6102d25f61027c565b6102dc825f6102a4565b9061031061030a7f8be0079c531659141344cd1fd0a4f28419497f9722a3daafe3b4186f6b6457e093610295565b91610295565b91610319610034565b80610323816102c4565b0390a356fe60806040526004361015610013575b61137a565b61001d5f3561018c565b806304808088146101875780631a5bd7fc146101825780631bd9103b1461017d57806322654955146101785780632c542b881461017357806330e6aaf21461016e57806332bdb9e2146101695780634c7be95f14610164578063679224b41461015f578063715018a61461015a5780637503e1b7146101555780637b1541401461015057806389870d5a1461014b5780638da5cb5b146101465780639d5d40fb14610141578063bf14c8871461013c578063c1deef5214610137578063f2fde38b14610132578063f4716df21461012d578063f7f20cb314610128578063fc0c546a14610123578063fd0c7dfb1461011e5763ffdde68c0361000e57611343565b611288565b611253565b611181565b61100c565b610fd9565b610f86565b610f3d565b610ebf565b610e8a565b610e31565b610da7565b610d3b565b610a12565b6109ce565b610957565b6108cb565b610894565b610720565b6105f8565b6104a0565b61040c565b610260565b60e01c90565b60405190565b5f80fd5b5f80fd5b5f80fd5b90565b6101b0816101a4565b036101b757565b5f80fd5b905035906101c8826101a7565b565b5f80fd5b5f80fd5b5f80fd5b909182601f830112156102105781359167ffffffffffffffff831161020b57602001926020830284011161020657565b6101d2565b6101ce565b6101ca565b9190916040818403126102565761022e835f83016101bb565b92602082013567ffffffffffffffff81116102515761024d92016101d6565b9091565b6101a0565b61019c565b5f0190565b3461028f57610279610273366004610215565b916117a9565b610281610192565b8061028b8161025b565b0390f35b610198565b906020828203126102ad576102aa915f016101bb565b90565b61019c565b6102bb906101a4565b9052565b5190565b60209181520190565b90825f9392825e0152565b601f801991011690565b61030061030960209361030e936102f7816102bf565b938480936102c3565b958691016102cc565b6102d7565b0190565b634e487b7160e01b5f52602160045260245ffd5b6004111561033057565b610312565b9061033f82610326565b565b61034a90610335565b90565b61035690610341565b9052565b906103f19060e08061038c610100840161037a5f8801515f8701906102b2565b602087015185820360208701526102e1565b9461039f604082015160408601906102b2565b6103b1606082015160608601906102b2565b6103c3608082015160808601906102b2565b6103d560a082015160a08601906102b2565b6103e760c082015160c08601906102b2565b015191019061034d565b90565b6104099160208201915f81840391015261035a565b90565b3461043c57610438610427610422366004610294565b61183c565b61042f610192565b918291826103f4565b0390f35b610198565b90916060828403126104765761047361045c845f85016101bb565b9361046a81602086016101bb565b936040016101bb565b90565b61019c565b90565b6104879061047b565b9052565b919061049e905f6020850194019061047e565b565b346104d1576104cd6104bc6104b6366004610441565b916118ad565b6104c4610192565b9182918261048b565b0390f35b610198565b5f80fd5b634e487b7160e01b5f52604160045260245ffd5b906104f8906102d7565b810190811067ffffffffffffffff82111761051257604052565b6104da565b9061052a610523610192565b92836104ee565b565b67ffffffffffffffff811161054a576105466020916102d7565b0190565b6104da565b90825f939282370152565b9092919261056f61056a8261052c565b610517565b9381855260208501908284011161058b576105899261054f565b565b6104d6565b9080601f830112156105ae578160206105ab9335910161055a565b90565b6101ca565b9190916040818403126105f3576105cc835f83016101bb565b92602082013567ffffffffffffffff81116105ee576105eb9201610590565b90565b6101a0565b61019c565b346106275761061161060b3660046105b3565b90611f37565b610619610192565b806106238161025b565b0390f35b610198565b60018060a01b031690565b6106409061062c565b90565b61064c90610637565b9052565b151590565b61065e90610650565b9052565b61069f916040606082019261067d5f8201515f850190610643565b61068f60208201516020850190610655565b01519060408184039101526102e1565b90565b90610705906080806106e86106c460a085015f8801518682035f880152610662565b6106d6602088015160208701906102b2565b60408701518582036040870152610662565b946106fb606082015160608601906102b2565b015191019061034d565b90565b61071d9160208201915f8184039101526106a2565b90565b346107515761074d61073c610736366004610441565b9161225c565b610744610192565b91829182610708565b0390f35b610198565b5f80fd5b5f80fd5b61076781610637565b0361076e57565b5f80fd5b9050359061077f8261075e565b565b61078a81610650565b0361079157565b5f80fd5b905035906107a282610781565b565b919091606081840312610808576107bb6060610517565b926107c8815f8401610772565b5f8501526107d98160208401610795565b6020850152604082013567ffffffffffffffff8111610803576107fc9201610590565b6040830152565b61075a565b610756565b91909160a08184031261088f57610826835f83016101bb565b9261083481602084016101bb565b9261084282604085016101bb565b92606081013567ffffffffffffffff811161088a57836108639183016107a4565b92608082013567ffffffffffffffff81116108855761088292016107a4565b90565b6101a0565b6101a0565b61019c565b346108c6576108b06108a736600461080d565b9392909261247c565b6108b8610192565b806108c28161025b565b0390f35b610198565b346108fa576108e46108de366004610215565b91612523565b6108ec610192565b806108f68161025b565b0390f35b610198565b61093c916040606082019261091a5f8201515f850190610643565b61092c60208201516020850190610655565b01519060408184039101526102e1565b90565b6109549160208201915f8184039101526108ff565b90565b346109885761098461097361096d366004610441565b9161253b565b61097b610192565b9182918261093f565b0390f35b610198565b6109968161047b565b0361099d57565b5f80fd5b905035906109ae8261098d565b565b906020828203126109c9576109c6915f016109a1565b90565b61019c565b346109fe576109fa6109e96109e43660046109b0565b612568565b6109f1610192565b91829182610708565b0390f35b610198565b5f910312610a0d57565b61019c565b34610a4057610a22366004610a03565b610a2a6125d4565b610a32610192565b80610a3c8161025b565b0390f35b610198565b634e487b7160e01b5f52603260045260245ffd5b5490565b5f5260205f2090565b610a6f81610a59565b821015610a8957610a81600891610a5d565b910201905f90565b610a45565b5f1c90565b90565b610aa2610aa791610a8e565b610a93565b90565b610ab49054610a96565b90565b634e487b7160e01b5f52602260045260245ffd5b9060016002830492168015610aeb575b6020831014610ae657565b610ab7565b91607f1691610adb565b5f5260205f2090565b905f9291805490610b18610b1183610acb565b80946102c3565b916001811690815f14610b6f5750600114610b33575b505050565b610b409192939450610af5565b915f925b818410610b5757505001905f8080610b2e565b60018160209295939554848601520191019290610b44565b92949550505060ff19168252151560200201905f8080610b2e565b90610b9491610afe565b90565b90610bb7610bb092610ba7610192565b93848092610b8a565b03836104ee565b565b60ff1690565b610bcb610bd091610a8e565b610bb9565b90565b610bdd9054610bbf565b90565b600290610bec82610a59565b811015610c6657610bfc91610a66565b5090610c095f8301610aaa565b91610c1660018201610b97565b91610c2360028301610aaa565b91610c3060038201610aaa565b91610c3d60048301610aaa565b91610c4a60058201610aaa565b91610c636007610c5c60068501610aaa565b9301610bd3565b90565b5f80fd5b610c73906101a4565b9052565b60209181520190565b610c9f610ca8602093610cad93610c96816102bf565b93848093610c77565b958691016102cc565b6102d7565b0190565b610cba90610341565b9052565b9395610d1e60e096610d14610d32969c9b99610d0a610cff8a610d399e99610cf1610d289a5f6101008501940190610c6a565b8c6020818403910152610c80565b9e60408b0190610c6a565b6060890190610c6a565b6080870190610c6a565b60a0850190610c6a565b60c0830190610c6a565b0190610cb1565b565b34610d7557610d71610d56610d51366004610294565b610be0565b94610d68989698949194939293610192565b98899889610cbe565b0390f35b610198565b9190604083820312610da25780610d96610d9f925f86016101bb565b936020016101bb565b90565b61019c565b34610dd657610dc0610dba366004610d7a565b90612945565b610dc8610192565b80610dd28161025b565b0390f35b610198565b919060a083820312610e2c57610df3815f85016101bb565b92610e0182602083016101bb565b92610e29610e1284604085016101bb565b93610e2081606086016101bb565b936080016101bb565b90565b61019c565b34610e6357610e4d610e44366004610ddb565b93929092612d2d565b610e55610192565b80610e5f8161025b565b0390f35b610198565b610e7190610637565b9052565b9190610e88905f60208501940190610e68565b565b34610eba57610e9a366004610a03565b610eb6610ea5612d40565b610ead610192565b91829182610e75565b0390f35b610198565b34610eee57610ed8610ed2366004610215565b91612dd7565b610ee0610192565b80610eea8161025b565b0390f35b610198565b60041115610efd57565b5f80fd5b90503590610f0e82610ef3565b565b9190604083820312610f385780610f2c610f35925f8601610f01565b936020016101bb565b90565b61019c565b34610f6c57610f56610f50366004610f10565b90612de4565b610f5e610192565b80610f688161025b565b0390f35b610198565b9190610f84905f60208501940190610c6a565b565b34610fb657610f96366004610a03565b610fb2610fa1612e40565b610fa9610192565b91829182610f71565b0390f35b610198565b90602082820312610fd457610fd1915f01610772565b90565b61019c565b3461100757610ff1610fec366004610fbb565b612ebb565b610ff9610192565b806110038161025b565b0390f35b610198565b3461103d57611039611028611022366004610441565b91612ec6565b611030610192565b9182918261048b565b0390f35b610198565b5190565b60209181520190565b60200190565b906110ec9060e08061108761010084016110755f8801515f8701906102b2565b602087015185820360208701526102e1565b9461109a604082015160408601906102b2565b6110ac606082015160608601906102b2565b6110be608082015160808601906102b2565b6110d060a082015160a08601906102b2565b6110e260c082015160c08601906102b2565b015191019061034d565b90565b906110f991611055565b90565b60200190565b9061111661110f83611042565b8092611046565b90816111276020830284019461104f565b925f915b83831061113a57505050505090565b9091929394602061115c611156838560019503875289516110ef565b976110fc565b930193019193929061112b565b61117e9160208201915f818403910152611102565b90565b346111b157611191366004610a03565b6111ad61119c612fa6565b6111a4610192565b91829182611169565b0390f35b610198565b1c90565b60018060a01b031690565b6111d59060086111da93026111b6565b6111ba565b90565b906111e891546111c5565b90565b6111f760015f906111dd565b90565b90565b61121161120c6112169261062c565b6111fa565b61062c565b90565b611222906111fd565b90565b61122e90611219565b90565b61123a90611225565b9052565b9190611251905f60208501940190611231565b565b3461128357611263366004610a03565b61127f61126e6111eb565b611276610192565b9182918261123e565b0390f35b610198565b346112b7576112a161129b366004610d7a565b906130c3565b6112a9610192565b806112b38161025b565b0390f35b610198565b91909160a08184031261133e575f81013567ffffffffffffffff811161133957836112e8918301610590565b926112f681602084016101bb565b9261130482604085016101bb565b9261131283606083016101bb565b92608082013567ffffffffffffffff8111611334576113319201610590565b90565b6101a0565b6101a0565b61019c565b346113755761135f6113563660046112bc565b93929092613373565b611367610192565b806113718161025b565b0390f35b610198565b5f80fd5b90611391929161138c6135c1565b61167a565b565b9061139d906101a4565b9052565b52565b906113ae90610335565b9052565b6113bd610100610517565b90565b9061148761147e60076113d16113b2565b946113e86113e05f8301610aaa565b5f8801611393565b6114006113f760018301610b97565b602088016113a1565b61141861140f60028301610aaa565b60408801611393565b61143061142760038301610aaa565b60608801611393565b61144861143f60048301610aaa565b60808801611393565b61146061145760058301610aaa565b60a08801611393565b61147861146f60068301610aaa565b60c08801611393565b01610bd3565b60e084016113a4565b565b611492906113c0565b90565b90565b6114ac6114a76114b192611495565b6111fa565b6101a4565b90565b90565b6114cb6114c66114d0926114b4565b6111fa565b6101a4565b90565b634e487b7160e01b5f52601160045260245ffd5b6114f66114fc919392936101a4565b926101a4565b820180921161150757565b6114d3565b5090565b61151a90516101a4565b90565b919081101561152d576020020190565b610a45565b3561153c816101a7565b90565b6115489061047b565b90565b906115559061153f565b5f5260205260405f2090565b60018060a01b031690565b61157861157d91610a8e565b611561565b90565b61158a905461156c565b90565b9061159790610637565b9052565b60a01c90565b60ff1690565b6115b36115b89161159b565b6115a1565b90565b6115c590546115a7565b90565b906115d290610650565b9052565b6115e06060610517565b90565b9061163161162860016115f46115d6565b9461160b6116035f8301611580565b5f880161158d565b6116226116195f83016115bb565b602088016115c8565b01610b97565b604084016113a1565b565b61163c906115e3565b90565b90565b61165661165161165b9261163f565b6111fa565b6101a4565b90565b611667906101a4565b5f1981146116755760010190565b6114d3565b92919261169261168c60028390610a66565b50611489565b9161169c5f611498565b946116a65f611498565b955b866116c56116bf6116ba86869061150c565b6101a4565b916101a4565b10156117a05761178961179a916117848961176d611768896117628c8b61175c6117578d61172b61172688611720888e61171a61171561170a60a06004979501611510565b928c908a909161151d565b611532565b91612ec6565b9061154b565b611633565b9961175161173e60a060049a9801611510565b95929161174b6001611642565b906114e7565b9161151d565b611532565b91612ec6565b9061154b565b611633565b889161177b60a08c01611510565b8591929361247c565b61165e565b9661179460026114b7565b906114e7565b956116a8565b50505050509050565b906117b4929161137e565b565b5f90565b606090565b5f90565b6117cb6113b2565b90602080808080808080896117de6117b6565b8152016117e96117ba565b8152016117f46117b6565b8152016117ff6117b6565b81520161180a6117b6565b8152016118156117b6565b8152016118206117b6565b81520161182b6117bf565b81525050565b6118396117c3565b90565b6118536118599161184b611831565b506002610a66565b50611489565b90565b5f90565b90565b61186f611874916101a4565b611860565b9052565b60209392611897858361188f829561189f97611863565b018092611863565b018092611863565b0190565b60200190565b5190565b906118d46118e3926118bd61185c565b5091936118c8610192565b94859360208501611878565b602082018103825203826104ee565b6118f56118ef826118a9565b916118a3565b2090565b90565b5f7f746f75726e616d656e742069736e27742070656e64696e670000000000000000910152565b6119306018602092610c77565b611939816118fc565b0190565b6119529060208101905f818303910152611923565b90565b1561195c57565b611964610192565b62461bcd60e51b81528061197a6004820161193d565b0390fd5b5f7f646561646c696e65207265616368656400000000000000000000000000000000910152565b6119b26010602092610c77565b6119bb8161197e565b0190565b6119d49060208101905f8183039101526119a5565b90565b156119de57565b6119e6610192565b62461bcd60e51b8152806119fc600482016119bf565b0390fd5b5f7f746f75726e616d656e742069732066756c6c0000000000000000000000000000910152565b611a346012602092610c77565b611a3d81611a00565b0190565b611a569060208101905f818303910152611a27565b90565b15611a6057565b611a68610192565b62461bcd60e51b815280611a7e60048201611a41565b0390fd5b611a8e611a9391610a8e565b6111ba565b90565b611aa09054611a82565b90565b611aac90611219565b90565b60e01b90565b90505190611ac282610781565b565b90602082820312611add57611ada915f01611ab5565b90565b61019c565b604090611b0b611b129496959396611b0160608401985f850190610e68565b6020830190610e68565b0190610c6a565b565b611b1c610192565b3d5f823e3d90fd5b5f7f6e6f7420656e6f756768206361736820737472616e6765720000000000000000910152565b611b586018602092610c77565b611b6181611b24565b0190565b611b7a9060208101905f818303910152611b4b565b90565b15611b8457565b611b8c610192565b62461bcd60e51b815280611ba260048201611b65565b0390fd5b5f1b90565b90611bb75f1991611ba6565b9181191691161790565b611bd5611bd0611bda926101a4565b6111fa565b6101a4565b90565b90565b90611bf5611bf0611bfc92611bc1565b611bdd565b8254611bab565b9055565b611c0a6060610517565b90565b611c1c611c22919392936101a4565b926101a4565b8203918211611c2d57565b6114d3565b634e487b7160e01b5f525f60045260245ffd5b611c4f9051610637565b90565b90611c6360018060a01b0391611ba6565b9181191691161790565b611c7690611219565b90565b90565b90611c91611c8c611c9892611c6d565b611c79565b8254611c52565b9055565b611ca69051610650565b90565b60a01b90565b90611cbe60ff60a01b91611ca9565b9181191691161790565b611cd190610650565b90565b90565b90611cec611ce7611cf392611cc8565b611cd4565b8254611caf565b9055565b5190565b601f602091010490565b1b90565b91906008611d24910291611d1e5f1984611d05565b92611d05565b9181191691161790565b9190611d44611d3f611d4c93611bc1565b611bdd565b908354611d09565b9055565b5f90565b611d6691611d60611d50565b91611d2e565b565b5b818110611d74575050565b80611d815f600193611d54565b01611d69565b9190601f8111611d97575b505050565b611da3611dc893610af5565b906020611daf84611cfb565b83019310611dd0575b611dc190611cfb565b0190611d68565b5f8080611d92565b9150611dc181929050611db8565b90611dee905f19906008026111b6565b191690565b81611dfd91611dde565b906002021790565b90611e0f816102bf565b9067ffffffffffffffff8211611ecf57611e3382611e2d8554610acb565b85611d87565b602090601f8311600114611e6757918091611e56935f92611e5b575b5050611df3565b90555b565b90915001515f80611e4f565b601f19831691611e7685610af5565b925f5b818110611eb757509160029391856001969410611e9d575b50505002019055611e59565b611ead910151601f841690611dde565b90555f8080611e91565b91936020600181928787015181550195019201611e79565b6104da565b90611ede91611e05565b565b90611f2360406001611f2994611f035f8201611efd5f8801611c45565b90611c7c565b611f1b5f8201611f1560208801611c9c565b90611cd7565b019201611cf7565b90611ed4565b565b90611f3591611ee0565b565b611f4c611f4660028390610a66565b506118f9565b90611f74611f5c60078401610bd3565b611f6e611f685f610335565b91610335565b14611955565b611f9b611f8360068401610aaa565b611f95611f8f426101a4565b916101a4565b116119d7565b611fcd611faa60038401610aaa565b611fc7611fc1611fbc60048701610aaa565b6101a4565b916101a4565b10611a59565b611fdf611fda6001611a96565b611225565b9060206323b872dd92339061201b5f611ff730611aa3565b9661202661200760028b01610aaa565b61200f610192565b998a9788968795611aaf565b855260048501611ae2565b03925af1801561210a576120da9461204c6120cf926120d5955f916120dc575b50611b7d565b61206a6003860161206461205f82610aaa565b61165e565b90611be0565b61209933916120905f61208761207e611c00565b955f870161158d565b602085016115c8565b604083016113a1565b93600492906120c96120b960036120b260058501610aaa565b9301610aaa565b6120c36001611642565b90611c0d565b91612ec6565b9061154b565b611f2b565b565b6120fd915060203d8111612103575b6120f581836104ee565b810190611ac4565b5f612046565b503d6120eb565b611b14565b61211960a0610517565b90565b5f90565b5f90565b61212c6115d6565b90602080808461213a61211c565b815201612145612120565b8152016121506117ba565b81525050565b61215e612124565b90565b61216961210f565b9060208080808086612179612156565b8152016121846117b6565b81520161218f612156565b81520161219a6117b6565b8152016121a56117bf565b81525050565b6121b3612161565b90565b906121c09061153f565b5f5260205260405f2090565b52565b9061224e61224560066121e061210f565b946121f76121ef5f83016115e3565b5f88016121cc565b61220f61220660028301610aaa565b60208801611393565b61222761221e600383016115e3565b604088016121cc565b61223f61223660058301610aaa565b60608801611393565b01610bd3565b608084016113a4565b565b612259906121cf565b90565b61227b612281926122869461226f6121ab565b506003939190916118ad565b906121b6565b612250565b90565b9061229e949392916122996135c1565b6123bf565b565b6122aa60a0610517565b90565b5190565b6122bb9051610335565b90565b906122ca60ff91611ba6565b9181191691161790565b6122dd90610335565b90565b90565b906122f86122f36122ff926122d4565b6122e0565b82546122be565b9055565b906123796080600661237f946123265f82016123205f88016122ad565b90611f2b565b61233f6002820161233960208801611510565b90611be0565b61235860038201612352604088016122ad565b90611f2b565b6123716005820161236b60608801611510565b90611be0565b0192016122b1565b906122e3565b565b9061238b91612303565b565b6040906123b66123bd94969593966123ac60608401985f850190610c6a565b6020830190610c6a565b0190610c6a565b565b91929361242261243e9295916124196124105f9261240b5f916124026123f95f976123f46123eb6122a0565b9b5f8d016121cc565b611498565b60208a01611393565b604088016121cc565b611498565b60608501611393565b608083016113a4565b6124396003612433858888916118ad565b906121b6565b612381565b9190916124777f5f6f5a0de1d83b1d2ab2af48b8e7ffaba041d7d1b99fd698fbf60083def9216c9361246e610192565b9384938461238d565b0390a1565b9061248994939291612289565b565b9061249e92916124996135c1565b6124d6565b565b634e487b7160e01b5f52601260045260245ffd5b6124c06124c6916101a4565b916101a4565b9081156124d1570490565b6124a0565b91612521926125196124f36124ed60028490610a66565b506118f9565b612513600561250260026114b7565b92019161250e83610aaa565b6124b4565b90611be0565b9190916117a9565b565b9061252e929161248b565b565b612538612124565b90565b61255a612560926125659461254e612530565b50600493919091612ec6565b9061154b565b611633565b90565b61257f612584916125776121ab565b5060036121b6565b612250565b90565b61258f6135c1565b6125976125c1565b565b6125ad6125a86125b292611495565b6111fa565b61062c565b90565b6125be90612599565b90565b6125d26125cd5f6125b5565b61360f565b565b6125dc612587565b565b5f7f506c6179657220696e646578206f7574206f662072616e676500000000000000910152565b6126126019602092610c77565b61261b816125de565b0190565b6126349060208101905f818303910152612605565b90565b1561263e57565b612646610192565b62461bcd60e51b81528061265c6004820161261f565b0390fd5b5f7f546f75726e616d6e6574206964206f7574206f662072616e6765000000000000910152565b612694601a602092610c77565b61269d81612660565b0190565b6126b69060208101905f818303910152612687565b90565b156126c057565b6126c8610192565b62461bcd60e51b8152806126de600482016126a1565b0390fd5b5f7f546f75726e616d656e742069736e27742066696e697368656400000000000000910152565b6127166019602092610c77565b61271f816126e2565b0190565b6127389060208101905f818303910152612709565b90565b1561274257565b61274a610192565b62461bcd60e51b81528061276060048201612723565b0390fd5b90565b5f7f4c617374206d617463682069736e27742066696e697368656400000000000000910152565b61279b6019602092610c77565b6127a481612767565b0190565b6127bd9060208101905f81830391015261278e565b90565b156127c757565b6127cf610192565b62461bcd60e51b8152806127e5600482016127a8565b0390fd5b5f7f4b65657020647265616d696e67206f662077696e6e696e670000000000000000910152565b61281d6018602092610c77565b612826816127e9565b0190565b61283f9060208101905f818303910152612810565b90565b1561284957565b612851610192565b62461bcd60e51b8152806128676004820161282a565b0390fd5b5f7f5072697a6520616c726561647920636c61696d65640000000000000000000000910152565b61289f6015602092610c77565b6128a88161286b565b0190565b6128c19060208101905f818303910152612892565b90565b156128cb57565b6128d3610192565b62461bcd60e51b8152806128e9600482016128ac565b0390fd5b6128fc612902919392936101a4565b926101a4565b9161290e8382026101a4565b92818404149015171561291d57565b6114d3565b91602061294392949361293c60408201965f830190610e68565b0190610c6a565b565b9061296c908061295d6129575f611498565b916101a4565b14908115612bdd575b50612637565b8061297f6129795f611498565b916101a4565b101580612bb5575b612990906126b9565b612a006129fb6129ab6129a560028590610a66565b50611489565b926129d46129bb60e086016122b1565b6129ce6129c86002610335565b91610335565b1461273b565b6129f560039160016129ef6129e95f92611642565b91611498565b916118ad565b906121b6565b612764565b612a28612a0f60068301610bd3565b612a22612a1c6002610335565b91610335565b146127c0565b612a3460028201610aaa565b612a51612a4b612a4660058501610aaa565b6101a4565b916101a4565b115f14612b575780612a84612a6c5f80612aae950101611580565b612a7e612a7833610637565b91610637565b14612842565b612aa2612a9d612a975f808501016115bb565b15610650565b6128c4565b5f806001920101611cd7565b5b6020612ac3612abe6001611a96565b611225565b9163a9059cbb92612b095f612af13394612aeb6080612ae460408401611510565b9201611510565b906128ed565b95612b14612afd610192565b97889687958694611aaf565b845260048401612922565b03925af18015612b5257612b26575b50565b612b469060203d8111612b4b575b612b3e81836104ee565b810190611ac4565b612b23565b503d612b34565b611b14565b80612b84612b6c5f6003612bb0950101611580565b612b7e612b7833610637565b91610637565b14612842565b612ba3612b9e612b985f60038501016115bb565b15610650565b6128c4565b5f60036001920101611cd7565b612aaf565b5061299081612bd5612bcf612bca6002610a59565b6101a4565b916101a4565b109050612987565b9050612bf2612bec6001611642565b916101a4565b145f612966565b90612c0e94939291612c096135c1565b612c10565b565b91929093612c77612c71612c39612c346003612c2e888b8b916118ad565b906121b6565b612764565b93612c478160028701611be0565b612c548460058701611be0565b612c626002600687016122e3565b612c6a612530565b50926101a4565b916101a4565b115f14612d1c575f612c899101611633565b5b83612c9e612c986001611642565b916101a4565b03612ce3575b50919091612cde7f8e36a42896ac2a1d0c0b5ca5aff8b1f91ab25de19c492d83a3dac09ba976437193612cd5610192565b9384938461238d565b0390a1565b612d1690612d116004612d0b85612d0489612cfe60026114b7565b906124b4565b8891612ec6565b9061154b565b611f2b565b5f612ca4565b6003612d289101611633565b612c8a565b90612d3a94939291612bf9565b565b5f90565b612d48612d3c565b50612d525f611580565b90565b90612d689291612d636135c1565b612d6a565b565b9190612d9c91612d93612d88612d8260028790610a66565b506118f9565b6007600191016122e3565b839190916117a9565b612dd27f472dde00d4a421d9e9fc7bef66dbf7671c60e18dfa993294579a036528bc082091612dc9610192565b91829182610f71565b0390a1565b90612de29291612d55565b565b612e05906007612dff612df960028690610a66565b506118f9565b016122e3565b612e3b7f472dde00d4a421d9e9fc7bef66dbf7671c60e18dfa993294579a036528bc082091612e32610192565b91829182610f71565b0390a1565b612e48611d50565b50612e536002610a59565b90565b612e6790612e626135c1565b612e69565b565b80612e84612e7e612e795f6125b5565b610637565b91610637565b14612e9457612e929061360f565b565b612eb7612ea05f6125b5565b5f918291631e4fbdf760e01b835260048301610e75565b0390fd5b612ec490612e56565b565b90612eed612efc92612ed661185c565b509193612ee1610192565b94859360208501611878565b602082018103825203826104ee565b612f0e612f08826118a9565b916118a3565b2090565b606090565b67ffffffffffffffff8111612f2f5760208091020190565b6104da565b90612f46612f4183612f17565b610517565b918252565b90612f5582610a59565b612f5e81612f34565b92612f6c6020850191610a5d565b5f915b838310612f7c5750505050565b60086020600192612f8c85611489565b815201920192019190612f6f565b612fa390612f4b565b90565b612fae612f12565b50612fb96002612f9a565b90565b90565b5f7f746f75726e616d656e742069736e277420657870697265640000000000000000910152565b612ff36018602092610c77565b612ffc81612fbf565b0190565b6130159060208101905f818303910152612fe6565b90565b1561301f57565b613027610192565b62461bcd60e51b81528061303d60048201613000565b0390fd5b5f7f7573657220616c726561647920636c61696d656420726566756e640000000000910152565b613075601b602092610c77565b61307e81613041565b0190565b6130979060208101905f818303910152613068565b90565b156130a157565b6130a9610192565b62461bcd60e51b8152806130bf60048201613082565b0390fd5b61310861310361315d926130fd6130e56130df60028490610a66565b50611489565b95600492906130f660a08901611510565b9091612ec6565b9061154b565b612fbc565b61311460e084016122b1565b6131276131216003610335565b91610335565b14806131ef575b61313790613018565b61315361314e6131485f84016115bb565b15610650565b61309a565b5f60019101611cd7565b602061317161316c6001611a96565b611225565b9163a9059cbb926131a15f6131896040339501611510565b956131ac613195610192565b97889687958694611aaf565b845260048401612922565b03925af180156131ea576131be575b50565b6131de9060203d81116131e3575b6131d681836104ee565b810190611ac4565b6131bb565b503d6131cc565b611b14565b506131376131ff60c08501611510565b61321161320b426101a4565b916101a4565b10905061312e565b90565b613227610100610517565b90565b5f5260205f2090565b5490565b61324081613233565b82101561325a5761325260089161322a565b910201905f90565b610a45565b9061332060e06007613326946132825f820161327c5f8801611510565b90611be0565b61329b6001820161329560208801611cf7565b90611ed4565b6132b4600282016132ae60408801611510565b90611be0565b6132cd600382016132c760608801611510565b90611be0565b6132e6600482016132e060808801611510565b90611be0565b6132ff600582016132f960a08801611510565b90611be0565b6133186006820161331260c08801611510565b90611be0565b0192016122b1565b906122e3565b565b9190613339576133379161325f565b565b611c32565b908154916801000000000000000083101561336e578261336691600161336c95018155613237565b90613328565b565b6104da565b909392919361338a6133856001611a96565b611225565b60206323b872dd9133906133ba5f6133a130611aa3565b956133c5886133ae610192565b98899788968795611aaf565b855260048501611ae2565b03925af180156135bc576133e0915f9161358e575b50611b7d565b60026133eb90613219565b9260026133f790610a59565b9291906001879088600261340a906114b7565b613413916124b4565b92935f9561341f61321c565b975f89019061342d91611393565b602088019061343b916113a1565b604087019061344991611393565b61345290611642565b606086019061346091611393565b608085019061346e91611393565b60a084019061347c91611393565b60c083019061348a91611393565b60e0820190613498916113a4565b6134a19161333e565b33905f6134ac611c00565b925f8401906134ba9161158d565b60208301906134c8916115c8565b60408201906134d6916113a1565b9060049060026134e590610a59565b60016134f090611642565b6134f991611c0d565b906002613505906114b7565b61350e916124b4565b5f61351890611498565b9061352292612ec6565b61352b9161154b565b9061353591611f2b565b600261354090610a59565b600161354b90611642565b61355491611c0d565b7f113d32d0b7aec15a8c7f50af4cb42f4695e5b95524ed69519ac88d6c1f1f40f69061357e610192565b613589819282610f71565b0390a1565b6135af915060203d81116135b5575b6135a781836104ee565b810190611ac4565b5f6133da565b503d61359d565b611b14565b6135c9612d40565b6135e26135dc6135d761366e565b610637565b91610637565b036135e957565b61360b6135f461366e565b5f91829163118cdaa760e01b835260048301610e75565b0390fd5b6136185f611580565b613622825f611c7c565b906136566136507f8be0079c531659141344cd1fd0a4f28419497f9722a3daafe3b4186f6b6457e093611c6d565b91611c6d565b9161365f610192565b806136698161025b565b0390a3565b613676612d3c565b50339056fea26469706673582212201851618ae38d32bec907ed73ea73bf8e4b200297a13fe02da15a43e2bb1e60d264736f6c634300081c0033",
  "linkReferences": {},
  "deployedLinkReferences": {},
  "immutableReferences": {},
  "inputSourceName": "project/contracts/TournamentFactory.sol",
  "buildInfoId": "solc-0_8_28-4c0ffa3b7a19e6ff0453a919cb6625a692e781c0"
}