{
  "_format": "hh3-artifact-1",
  "contractName": "TournamentFactory",
  "sourceName": "contracts/TournamentFactory.sol",
  "abi": [
    {
      "inputs": [],
      "stateMutability": "nonpayable",
      "type": "constructor"
    },
    {
      "anonymous": false,
      "inputs": [
        {
          "indexed": false,
          "internalType": "uint8",
          "name": "id",
          "type": "uint8"
        },
        {
          "indexed": false,
          "internalType": "uint256",
          "name": "entryFee",
          "type": "uint256"
        },
        {
          "indexed": false,
          "internalType": "uint8",
          "name": "participants",
          "type": "uint8"
        },
        {
          "indexed": false,
          "internalType": "uint256",
          "name": "startDate",
          "type": "uint256"
        },
        {
          "indexed": false,
          "internalType": "enum TournamentFactory.Status",
          "name": "status",
          "type": "uint8"
        }
      ],
      "name": "TournamentCreated",
      "type": "event"
    },
    {
      "inputs": [
        {
          "internalType": "uint8",
          "name": "_id",
          "type": "uint8"
        },
        {
          "internalType": "string",
          "name": "_title",
          "type": "string"
        },
        {
          "internalType": "uint256",
          "name": "_entryFee",
          "type": "uint256"
        },
        {
          "internalType": "uint8",
          "name": "_participants",
          "type": "uint8"
        },
        {
          "internalType": "uint256",
          "name": "_startTime",
          "type": "uint256"
        },
        {
          "internalType": "enum TournamentFactory.Status",
          "name": "_status",
          "type": "uint8"
        }
      ],
      "name": "createTournament",
      "outputs": [],
      "stateMutability": "nonpayable",
      "type": "function"
    },
    {
      "inputs": [],
      "name": "getTournaments",
      "outputs": [
        {
          "components": [
            {
              "internalType": "uint8",
              "name": "id",
              "type": "uint8"
            },
            {
              "internalType": "string",
              "name": "title",
              "type": "string"
            },
            {
              "internalType": "uint256",
              "name": "entryFee",
              "type": "uint256"
            },
            {
              "internalType": "uint8",
              "name": "participants",
              "type": "uint8"
            },
            {
              "internalType": "uint256",
              "name": "startTime",
              "type": "uint256"
            },
            {
              "internalType": "enum TournamentFactory.Status",
              "name": "status",
              "type": "uint8"
            }
          ],
          "internalType": "struct TournamentFactory.Tournament[]",
          "name": "",
          "type": "tuple[]"
        }
      ],
      "stateMutability": "view",
      "type": "function"
    },
    {
      "inputs": [],
      "name": "owner",
      "outputs": [
        {
          "internalType": "address",
          "name": "",
          "type": "address"
        }
      ],
      "stateMutability": "view",
      "type": "function"
    },
    {
      "inputs": [
        {
          "internalType": "uint256",
          "name": "",
          "type": "uint256"
        }
      ],
      "name": "tournaments",
      "outputs": [
        {
          "internalType": "uint8",
          "name": "id",
          "type": "uint8"
        },
        {
          "internalType": "string",
          "name": "title",
          "type": "string"
        },
        {
          "internalType": "uint256",
          "name": "entryFee",
          "type": "uint256"
        },
        {
          "internalType": "uint8",
          "name": "participants",
          "type": "uint8"
        },
        {
          "internalType": "uint256",
          "name": "startTime",
          "type": "uint256"
        },
        {
          "internalType": "enum TournamentFactory.Status",
          "name": "status",
          "type": "uint8"
        }
      ],
      "stateMutability": "view",
      "type": "function"
    }
  ],
  "bytecode": "0x6080604052348015600e575f5ffd5b50335f5f6101000a81548173ffffffffffffffffffffffffffffffffffffffff021916908373ffffffffffffffffffffffffffffffffffffffff160217905550610e2f8061005b5f395ff3fe608060405234801561000f575f5ffd5b506004361061004a575f3560e01c80637503e1b71461004e5780638da5cb5b14610083578063cbb33f52146100a1578063f7f20cb3146100bd575b5f5ffd5b610068600480360381019061006391906104f2565b6100db565b60405161007a9695949392919061062a565b60405180910390f35b61008b6101cc565b60405161009891906106cf565b60405180910390f35b6100bb60048036038101906100b69190610861565b6101f0565b005b6100c561033d565b6040516100d29190610abc565b60405180910390f35b600181815481106100ea575f80fd5b905f5260205f2090600602015f91509050805f015f9054906101000a900460ff169080600101805461011b90610b09565b80601f016020809104026020016040519081016040528092919081815260200182805461014790610b09565b80156101925780601f1061016957610100808354040283529160200191610192565b820191905f5260205f20905b81548152906001019060200180831161017557829003601f168201915b505050505090806002015490806003015f9054906101000a900460ff1690806004015490806005015f9054906101000a900460ff16905086565b5f5f9054906101000a900473ffffffffffffffffffffffffffffffffffffffff1681565b60016040518060c001604052808860ff1681526020018781526020018681526020018560ff168152602001848152602001836002811115610234576102336105b7565b5b815250908060018154018082558091505060019003905f5260205f2090600602015f909190919091505f820151815f015f6101000a81548160ff021916908360ff16021790555060208201518160010190816102909190610cd9565b50604082015181600201556060820151816003015f6101000a81548160ff021916908360ff1602179055506080820151816004015560a0820151816005015f6101000a81548160ff021916908360028111156102ef576102ee6105b7565b5b021790555050507fd78d3381e95a1f23229761188397a4a9ca4a8daa50370a926158781127340260868585858560405161032d959493929190610da8565b60405180910390a1505050505050565b60606001805480602002602001604051908101604052809291908181526020015f905b828210156104a5578382905f5260205f2090600602016040518060c00160405290815f82015f9054906101000a900460ff1660ff1660ff1681526020016001820180546103ac90610b09565b80601f01602080910402602001604051908101604052809291908181526020018280546103d890610b09565b80156104235780601f106103fa57610100808354040283529160200191610423565b820191905f5260205f20905b81548152906001019060200180831161040657829003601f168201915b5050505050815260200160028201548152602001600382015f9054906101000a900460ff1660ff1660ff16815260200160048201548152602001600582015f9054906101000a900460ff1660028111156104805761047f6105b7565b5b6002811115610492576104916105b7565b5b8152505081526020019060010190610360565b50505050905090565b5f604051905090565b5f5ffd5b5f5ffd5b5f819050919050565b6104d1816104bf565b81146104db575f5ffd5b50565b5f813590506104ec816104c8565b92915050565b5f60208284031215610507576105066104b7565b5b5f610514848285016104de565b91505092915050565b5f60ff82169050919050565b6105328161051d565b82525050565b5f81519050919050565b5f82825260208201905092915050565b8281835e5f83830152505050565b5f601f19601f8301169050919050565b5f61057a82610538565b6105848185610542565b9350610594818560208601610552565b61059d81610560565b840191505092915050565b6105b1816104bf565b82525050565b7f4e487b71000000000000000000000000000000000000000000000000000000005f52602160045260245ffd5b600381106105f5576105f46105b7565b5b50565b5f819050610605826105e4565b919050565b5f610614826105f8565b9050919050565b6106248161060a565b82525050565b5f60c08201905061063d5f830189610529565b818103602083015261064f8188610570565b905061065e60408301876105a8565b61066b6060830186610529565b61067860808301856105a8565b61068560a083018461061b565b979650505050505050565b5f73ffffffffffffffffffffffffffffffffffffffff82169050919050565b5f6106b982610690565b9050919050565b6106c9816106af565b82525050565b5f6020820190506106e25f8301846106c0565b92915050565b6106f18161051d565b81146106fb575f5ffd5b50565b5f8135905061070c816106e8565b92915050565b5f5ffd5b5f5ffd5b7f4e487b71000000000000000000000000000000000000000000000000000000005f52604160045260245ffd5b61075082610560565b810181811067ffffffffffffffff8211171561076f5761076e61071a565b5b80604052505050565b5f6107816104ae565b905061078d8282610747565b919050565b5f67ffffffffffffffff8211156107ac576107ab61071a565b5b6107b582610560565b9050602081019050919050565b828183375f83830152505050565b5f6107e26107dd84610792565b610778565b9050828152602081018484840111156107fe576107fd610716565b5b6108098482856107c2565b509392505050565b5f82601f83011261082557610824610712565b5b81356108358482602086016107d0565b91505092915050565b6003811061084a575f5ffd5b50565b5f8135905061085b8161083e565b92915050565b5f5f5f5f5f5f60c0878903121561087b5761087a6104b7565b5b5f61088889828a016106fe565b965050602087013567ffffffffffffffff8111156108a9576108a86104bb565b5b6108b589828a01610811565b95505060406108c689828a016104de565b94505060606108d789828a016106fe565b93505060806108e889828a016104de565b92505060a06108f989828a0161084d565b9150509295509295509295565b5f81519050919050565b5f82825260208201905092915050565b5f819050602082019050919050565b6109388161051d565b82525050565b5f82825260208201905092915050565b5f61095882610538565b610962818561093e565b9350610972818560208601610552565b61097b81610560565b840191505092915050565b61098f816104bf565b82525050565b61099e8161060a565b82525050565b5f60c083015f8301516109b95f86018261092f565b50602083015184820360208601526109d1828261094e565b91505060408301516109e66040860182610986565b5060608301516109f9606086018261092f565b506080830151610a0c6080860182610986565b5060a0830151610a1f60a0860182610995565b508091505092915050565b5f610a3583836109a4565b905092915050565b5f602082019050919050565b5f610a5382610906565b610a5d8185610910565b935083602082028501610a6f85610920565b805f5b85811015610aaa5784840389528151610a8b8582610a2a565b9450610a9683610a3d565b925060208a01995050600181019050610a72565b50829750879550505050505092915050565b5f6020820190508181035f830152610ad48184610a49565b905092915050565b7f4e487b71000000000000000000000000000000000000000000000000000000005f52602260045260245ffd5b5f6002820490506001821680610b2057607f821691505b602082108103610b3357610b32610adc565b5b50919050565b5f819050815f5260205f209050919050565b5f6020601f8301049050919050565b5f82821b905092915050565b5f60088302610b957fffffffffffffffffffffffffffffffffffffffffffffffffffffffffffffffff82610b5a565b610b9f8683610b5a565b95508019841693508086168417925050509392505050565b5f819050919050565b5f610bda610bd5610bd0846104bf565b610bb7565b6104bf565b9050919050565b5f819050919050565b610bf383610bc0565b610c07610bff82610be1565b848454610b66565b825550505050565b5f5f905090565b610c1e610c0f565b610c29818484610bea565b505050565b5b81811015610c4c57610c415f82610c16565b600181019050610c2f565b5050565b601f821115610c9157610c6281610b39565b610c6b84610b4b565b81016020851015610c7a578190505b610c8e610c8685610b4b565b830182610c2e565b50505b505050565b5f82821c905092915050565b5f610cb15f1984600802610c96565b1980831691505092915050565b5f610cc98383610ca2565b9150826002028217905092915050565b610ce282610538565b67ffffffffffffffff811115610cfb57610cfa61071a565b5b610d058254610b09565b610d10828285610c50565b5f60209050601f831160018114610d41575f8415610d2f578287015190505b610d398582610cbe565b865550610da0565b601f198416610d4f86610b39565b5f5b82811015610d7657848901518255600182019150602085019450602081019050610d51565b86831015610d935784890151610d8f601f891682610ca2565b8355505b6001600288020188555050505b505050505050565b5f60a082019050610dbb5f830188610529565b610dc860208301876105a8565b610dd56040830186610529565b610de260608301856105a8565b610def608083018461061b565b969550505050505056fea2646970667358221220b9e62615f31ef0d45613b0375daaf60d5fd40c2e8c010026146c098bc3642b3764736f6c634300081c0033",
  "linkReferences": {},
  "deployedLinkReferences": {},
  "immutableReferences": {},
  "inputSourceName": "project/contracts/TournamentFactory.sol",
  "buildInfoId": "solc-0_8_28-d9861fcaf5c55f7d895f028c7fc319dd3cbbf5a1"
}