{"project/contracts/SimpleContract.sol":{"SimpleContract":{"abi":[{"inputs":[{"internalType":"uint256","name":"requested","type":"uint256"},{"internalType":"uint256","name":"available","type":"uint256"}],"name":"InsufficientBalance","type":"error"},{"anonymous":false,"inputs":[{"indexed":false,"internalType":"uint256","name":"value","type":"uint256"}],"name":"Set","type":"event"},{"anonymous":false,"inputs":[{"indexed":false,"internalType":"address","name":"from","type":"address"},{"indexed":false,"internalType":"address","name":"to","type":"address"},{"indexed":false,"internalType":"uint256","name":"amount","type":"uint256"}],"name":"Transfer","type":"event"},{"inputs":[],"name":"get","outputs":[{"internalType":"uint256","name":"","type":"uint256"}],"stateMutability":"view","type":"function"},{"inputs":[{"internalType":"uint256","name":"newValue","type":"uint256"}],"name":"set","outputs":[],"stateMutability":"nonpayable","type":"function"},{"inputs":[{"internalType":"address","name":"to","type":"address"},{"internalType":"uint256","name":"amount","type":"uint256"}],"name":"transfer","outputs":[],"stateMutability":"nonpayable","type":"function"},{"inputs":[],"name":"value","outputs":[{"internalType":"uint256","name":"","type":"uint256"}],"stateMutability":"view","type":"function"}],"evm":{"bytecode":{"linkReferences":{},"object":"608060405234601c57600e6020565b61057f61002b823961057f90f35b6026565b60405190565b5f80fdfe60806040526004361015610013575b61025d565b61001d5f3561005c565b80633fa4f2451461005757806360fe47b1146100525780636d4ce63c1461004d5763a9059cbb0361000e57610229565b61018d565b61015a565b6100df565b60e01c90565b60405190565b5f80fd5b5f80fd5b5f91031261007a57565b61006c565b1c90565b90565b61009690600861009b930261007f565b610083565b90565b906100a99154610086565b90565b6100b75f5f9061009e565b90565b90565b6100c6906100ba565b9052565b91906100dd905f602085019401906100bd565b565b3461010f576100ef366004610070565b61010b6100fa6100ac565b610102610062565b918291826100ca565b0390f35b610068565b61011d816100ba565b0361012457565b5f80fd5b9050359061013582610114565b565b906020828203126101505761014d915f01610128565b90565b61006c565b5f0190565b346101885761017261016d366004610137565b6102be565b61017a610062565b8061018481610155565b0390f35b610068565b346101bd5761019d366004610070565b6101b96101a861032d565b6101b0610062565b918291826100ca565b0390f35b610068565b60018060a01b031690565b6101d6906101c2565b90565b6101e2816101cd565b036101e957565b5f80fd5b905035906101fa826101d9565b565b91906040838203126102245780610218610221925f86016101ed565b93602001610128565b90565b61006c565b346102585761024261023c3660046101fc565b90610473565b61024a610062565b8061025481610155565b0390f35b610068565b5f80fd5b5f1b90565b906102725f1991610261565b9181191691161790565b90565b61029361028e610298926100ba565b61027c565b6100ba565b90565b90565b906102b36102ae6102ba9261027f565b61029b565b8254610266565b9055565b6102c8815f61029e565b6102fe7fdf7a95aebff315db1b7716215d602ab537373cdb769232aae6055c06e798425b916102f5610062565b918291826100ca565b0390a1565b5f90565b5f1c90565b61031861031d91610307565b610083565b90565b61032a905461030c565b90565b610335610303565b5061033f5f610320565b90565b61035661035161035b926101c2565b61027c565b6101c2565b90565b61036790610342565b90565b6103739061035e565b90565b906103809061036a565b5f5260205260405f2090565b9160206103ad9294936103a660408201965f8301906100bd565b01906100bd565b565b156103b8575050565b6103d25f92839263cf47918160e01b84526004840161038c565b0390fd5b634e487b7160e01b5f52601160045260245ffd5b6103f96103ff919392936100ba565b926100ba565b820391821161040a57565b6103d6565b61041e610424919392936100ba565b926100ba565b820180921161042f57565b6103d6565b61043d906101cd565b9052565b60409061046a610471949695939661046060608401985f850190610434565b6020830190610434565b01906100bd565b565b906104ba8161049d61049761049261048d60013390610376565b610320565b6100ba565b916100ba565b1115826104b46104af60013390610376565b610320565b916103af565b6104e2816104dc6104cd60013390610376565b916104d783610320565b6103ea565b9061029e565b61050a816105046104f560018690610376565b916104ff83610320565b61040f565b9061029e565b339190916105447fddf252ad1be2c89b69c2b068fc378daa952ba7f163c4a11628f55a4df523b3ef9361053b610062565b93849384610441565b0390a156fea264697066735822122022bc92b5fb9adfbec0b6fc96d575894d394ac462d22d9ff0c52e8d2810c208e764736f6c634300081c0033","opcodes":"PUSH1 0x80 PUSH1 0x40 MSTORE CALLVALUE PUSH1 0x1C JUMPI PUSH1 0xE PUSH1 0x20 JUMP JUMPDEST PUSH2 0x57F PUSH2 0x2B DUP3 CODECOPY PUSH2 0x57F SWAP1 RETURN JUMPDEST PUSH1 0x26 JUMP JUMPDEST PUSH1 0x40 MLOAD SWAP1 JUMP JUMPDEST PUSH0 DUP1 REVERT INVALID PUSH1 0x80 PUSH1 0x40 MSTORE PUSH1 0x4 CALLDATASIZE LT ISZERO PUSH2 0x13 JUMPI JUMPDEST PUSH2 0x25D JUMP JUMPDEST PUSH2 0x1D PUSH0 CALLDATALOAD PUSH2 0x5C JUMP JUMPDEST DUP1 PUSH4 0x3FA4F245 EQ PUSH2 0x57 JUMPI DUP1 PUSH4 0x60FE47B1 EQ PUSH2 0x52 JUMPI DUP1 PUSH4 0x6D4CE63C EQ PUSH2 0x4D JUMPI PUSH4 0xA9059CBB SUB PUSH2 0xE JUMPI PUSH2 0x229 JUMP JUMPDEST PUSH2 0x18D JUMP JUMPDEST PUSH2 0x15A JUMP JUMPDEST PUSH2 0xDF JUMP JUMPDEST PUSH1 0xE0 SHR SWAP1 JUMP JUMPDEST PUSH1 0x40 MLOAD SWAP1 JUMP JUMPDEST PUSH0 DUP1 REVERT JUMPDEST PUSH0 DUP1 REVERT JUMPDEST PUSH0 SWAP2 SUB SLT PUSH2 0x7A JUMPI JUMP JUMPDEST PUSH2 0x6C JUMP JUMPDEST SHR SWAP1 JUMP JUMPDEST SWAP1 JUMP JUMPDEST PUSH2 0x96 SWAP1 PUSH1 0x8 PUSH2 0x9B SWAP4 MUL PUSH2 0x7F JUMP JUMPDEST PUSH2 0x83 JUMP JUMPDEST SWAP1 JUMP JUMPDEST SWAP1 PUSH2 0xA9 SWAP2 SLOAD PUSH2 0x86 JUMP JUMPDEST SWAP1 JUMP JUMPDEST PUSH2 0xB7 PUSH0 PUSH0 SWAP1 PUSH2 0x9E JUMP JUMPDEST SWAP1 JUMP JUMPDEST SWAP1 JUMP JUMPDEST PUSH2 0xC6 SWAP1 PUSH2 0xBA JUMP JUMPDEST SWAP1 MSTORE JUMP JUMPDEST SWAP2 SWAP1 PUSH2 0xDD SWAP1 PUSH0 PUSH1 0x20 DUP6 ADD SWAP5 ADD SWAP1 PUSH2 0xBD JUMP JUMPDEST JUMP JUMPDEST CALLVALUE PUSH2 0x10F JUMPI PUSH2 0xEF CALLDATASIZE PUSH1 0x4 PUSH2 0x70 JUMP JUMPDEST PUSH2 0x10B PUSH2 0xFA PUSH2 0xAC JUMP JUMPDEST PUSH2 0x102 PUSH2 0x62 JUMP JUMPDEST SWAP2 DUP3 SWAP2 DUP3 PUSH2 0xCA JUMP JUMPDEST SUB SWAP1 RETURN JUMPDEST PUSH2 0x68 JUMP JUMPDEST PUSH2 0x11D DUP2 PUSH2 0xBA JUMP JUMPDEST SUB PUSH2 0x124 JUMPI JUMP JUMPDEST PUSH0 DUP1 REVERT JUMPDEST SWAP1 POP CALLDATALOAD SWAP1 PUSH2 0x135 DUP3 PUSH2 0x114 JUMP JUMPDEST JUMP JUMPDEST SWAP1 PUSH1 0x20 DUP3 DUP3 SUB SLT PUSH2 0x150 JUMPI PUSH2 0x14D SWAP2 PUSH0 ADD PUSH2 0x128 JUMP JUMPDEST SWAP1 JUMP JUMPDEST PUSH2 0x6C JUMP JUMPDEST PUSH0 ADD SWAP1 JUMP JUMPDEST CALLVALUE PUSH2 0x188 JUMPI PUSH2 0x172 PUSH2 0x16D CALLDATASIZE PUSH1 0x4 PUSH2 0x137 JUMP JUMPDEST PUSH2 0x2BE JUMP JUMPDEST PUSH2 0x17A PUSH2 0x62 JUMP JUMPDEST DUP1 PUSH2 0x184 DUP2 PUSH2 0x155 JUMP JUMPDEST SUB SWAP1 RETURN JUMPDEST PUSH2 0x68 JUMP JUMPDEST CALLVALUE PUSH2 0x1BD JUMPI PUSH2 0x19D CALLDATASIZE PUSH1 0x4 PUSH2 0x70 JUMP JUMPDEST PUSH2 0x1B9 PUSH2 0x1A8 PUSH2 0x32D JUMP JUMPDEST PUSH2 0x1B0 PUSH2 0x62 JUMP JUMPDEST SWAP2 DUP3 SWAP2 DUP3 PUSH2 0xCA JUMP JUMPDEST SUB SWAP1 RETURN JUMPDEST PUSH2 0x68 JUMP JUMPDEST PUSH1 0x1 DUP1 PUSH1 0xA0 SHL SUB AND SWAP1 JUMP JUMPDEST PUSH2 0x1D6 SWAP1 PUSH2 0x1C2 JUMP JUMPDEST SWAP1 JUMP JUMPDEST PUSH2 0x1E2 DUP2 PUSH2 0x1CD JUMP JUMPDEST SUB PUSH2 0x1E9 JUMPI JUMP JUMPDEST PUSH0 DUP1 REVERT JUMPDEST SWAP1 POP CALLDATALOAD SWAP1 PUSH2 0x1FA DUP3 PUSH2 0x1D9 JUMP JUMPDEST JUMP JUMPDEST SWAP2 SWAP1 PUSH1 0x40 DUP4 DUP3 SUB SLT PUSH2 0x224 JUMPI DUP1 PUSH2 0x218 PUSH2 0x221 SWAP3 PUSH0 DUP7 ADD PUSH2 0x1ED JUMP JUMPDEST SWAP4 PUSH1 0x20 ADD PUSH2 0x128 JUMP JUMPDEST SWAP1 JUMP JUMPDEST PUSH2 0x6C JUMP JUMPDEST CALLVALUE PUSH2 0x258 JUMPI PUSH2 0x242 PUSH2 0x23C CALLDATASIZE PUSH1 0x4 PUSH2 0x1FC JUMP JUMPDEST SWAP1 PUSH2 0x473 JUMP JUMPDEST PUSH2 0x24A PUSH2 0x62 JUMP JUMPDEST DUP1 PUSH2 0x254 DUP2 PUSH2 0x155 JUMP JUMPDEST SUB SWAP1 RETURN JUMPDEST PUSH2 0x68 JUMP JUMPDEST PUSH0 DUP1 REVERT JUMPDEST PUSH0 SHL SWAP1 JUMP JUMPDEST SWAP1 PUSH2 0x272 PUSH0 NOT SWAP2 PUSH2 0x261 JUMP JUMPDEST SWAP2 DUP2 NOT AND SWAP2 AND OR SWAP1 JUMP JUMPDEST SWAP1 JUMP JUMPDEST PUSH2 0x293 PUSH2 0x28E PUSH2 0x298 SWAP3 PUSH2 0xBA JUMP JUMPDEST PUSH2 0x27C JUMP JUMPDEST PUSH2 0xBA JUMP JUMPDEST SWAP1 JUMP JUMPDEST SWAP1 JUMP JUMPDEST SWAP1 PUSH2 0x2B3 PUSH2 0x2AE PUSH2 0x2BA SWAP3 PUSH2 0x27F JUMP JUMPDEST PUSH2 0x29B JUMP JUMPDEST DUP3 SLOAD PUSH2 0x266 JUMP JUMPDEST SWAP1 SSTORE JUMP JUMPDEST PUSH2 0x2C8 DUP2 PUSH0 PUSH2 0x29E JUMP JUMPDEST PUSH2 0x2FE PUSH32 0xDF7A95AEBFF315DB1B7716215D602AB537373CDB769232AAE6055C06E798425B SWAP2 PUSH2 0x2F5 PUSH2 0x62 JUMP JUMPDEST SWAP2 DUP3 SWAP2 DUP3 PUSH2 0xCA JUMP JUMPDEST SUB SWAP1 LOG1 JUMP JUMPDEST PUSH0 SWAP1 JUMP JUMPDEST PUSH0 SHR SWAP1 JUMP JUMPDEST PUSH2 0x318 PUSH2 0x31D SWAP2 PUSH2 0x307 JUMP JUMPDEST PUSH2 0x83 JUMP JUMPDEST SWAP1 JUMP JUMPDEST PUSH2 0x32A SWAP1 SLOAD PUSH2 0x30C JUMP JUMPDEST SWAP1 JUMP JUMPDEST PUSH2 0x335 PUSH2 0x303 JUMP JUMPDEST POP PUSH2 0x33F PUSH0 PUSH2 0x320 JUMP JUMPDEST SWAP1 JUMP JUMPDEST PUSH2 0x356 PUSH2 0x351 PUSH2 0x35B SWAP3 PUSH2 0x1C2 JUMP JUMPDEST PUSH2 0x27C JUMP JUMPDEST PUSH2 0x1C2 JUMP JUMPDEST SWAP1 JUMP JUMPDEST PUSH2 0x367 SWAP1 PUSH2 0x342 JUMP JUMPDEST SWAP1 JUMP JUMPDEST PUSH2 0x373 SWAP1 PUSH2 0x35E JUMP JUMPDEST SWAP1 JUMP JUMPDEST SWAP1 PUSH2 0x380 SWAP1 PUSH2 0x36A JUMP JUMPDEST PUSH0 MSTORE PUSH1 0x20 MSTORE PUSH1 0x40 PUSH0 KECCAK256 SWAP1 JUMP JUMPDEST SWAP2 PUSH1 0x20 PUSH2 0x3AD SWAP3 SWAP5 SWAP4 PUSH2 0x3A6 PUSH1 0x40 DUP3 ADD SWAP7 PUSH0 DUP4 ADD SWAP1 PUSH2 0xBD JUMP JUMPDEST ADD SWAP1 PUSH2 0xBD JUMP JUMPDEST JUMP JUMPDEST ISZERO PUSH2 0x3B8 JUMPI POP POP JUMP JUMPDEST PUSH2 0x3D2 PUSH0 SWAP3 DUP4 SWAP3 PUSH4 0xCF479181 PUSH1 0xE0 SHL DUP5 MSTORE PUSH1 0x4 DUP5 ADD PUSH2 0x38C JUMP JUMPDEST SUB SWAP1 REVERT JUMPDEST PUSH4 0x4E487B71 PUSH1 0xE0 SHL PUSH0 MSTORE PUSH1 0x11 PUSH1 0x4 MSTORE PUSH1 0x24 PUSH0 REVERT JUMPDEST PUSH2 0x3F9 PUSH2 0x3FF SWAP2 SWAP4 SWAP3 SWAP4 PUSH2 0xBA JUMP JUMPDEST SWAP3 PUSH2 0xBA JUMP JUMPDEST DUP3 SUB SWAP2 DUP3 GT PUSH2 0x40A JUMPI JUMP JUMPDEST PUSH2 0x3D6 JUMP JUMPDEST PUSH2 0x41E PUSH2 0x424 SWAP2 SWAP4 SWAP3 SWAP4 PUSH2 0xBA JUMP JUMPDEST SWAP3 PUSH2 0xBA JUMP JUMPDEST DUP3 ADD DUP1 SWAP3 GT PUSH2 0x42F JUMPI JUMP JUMPDEST PUSH2 0x3D6 JUMP JUMPDEST PUSH2 0x43D SWAP1 PUSH2 0x1CD JUMP JUMPDEST SWAP1 MSTORE JUMP JUMPDEST PUSH1 0x40 SWAP1 PUSH2 0x46A PUSH2 0x471 SWAP5 SWAP7 SWAP6 SWAP4 SWAP7 PUSH2 0x460 PUSH1 0x60 DUP5 ADD SWAP9 PUSH0 DUP6 ADD SWAP1 PUSH2 0x434 JUMP JUMPDEST PUSH1 0x20 DUP4 ADD SWAP1 PUSH2 0x434 JUMP JUMPDEST ADD SWAP1 PUSH2 0xBD JUMP JUMPDEST JUMP JUMPDEST SWAP1 PUSH2 0x4BA DUP2 PUSH2 0x49D PUSH2 0x497 PUSH2 0x492 PUSH2 0x48D PUSH1 0x1 CALLER SWAP1 PUSH2 0x376 JUMP JUMPDEST PUSH2 0x320 JUMP JUMPDEST PUSH2 0xBA JUMP JUMPDEST SWAP2 PUSH2 0xBA JUMP JUMPDEST GT ISZERO DUP3 PUSH2 0x4B4 PUSH2 0x4AF PUSH1 0x1 CALLER SWAP1 PUSH2 0x376 JUMP JUMPDEST PUSH2 0x320 JUMP JUMPDEST SWAP2 PUSH2 0x3AF JUMP JUMPDEST PUSH2 0x4E2 DUP2 PUSH2 0x4DC PUSH2 0x4CD PUSH1 0x1 CALLER SWAP1 PUSH2 0x376 JUMP JUMPDEST SWAP2 PUSH2 0x4D7 DUP4 PUSH2 0x320 JUMP JUMPDEST PUSH2 0x3EA JUMP JUMPDEST SWAP1 PUSH2 0x29E JUMP JUMPDEST PUSH2 0x50A DUP2 PUSH2 0x504 PUSH2 0x4F5 PUSH1 0x1 DUP7 SWAP1 PUSH2 0x376 JUMP JUMPDEST SWAP2 PUSH2 0x4FF DUP4 PUSH2 0x320 JUMP JUMPDEST PUSH2 0x40F JUMP JUMPDEST SWAP1 PUSH2 0x29E JUMP JUMPDEST CALLER SWAP2 SWAP1 SWAP2 PUSH2 0x544 PUSH32 0xDDF252AD1BE2C89B69C2B068FC378DAA952BA7F163C4A11628F55A4DF523B3EF SWAP4 PUSH2 0x53B PUSH2 0x62 JUMP JUMPDEST SWAP4 DUP5 SWAP4 DUP5 PUSH2 0x441 JUMP JUMPDEST SUB SWAP1 LOG1 JUMP INVALID LOG2 PUSH5 0x6970667358 0x22 SLT KECCAK256 0x22 0xBC SWAP3 0xB5 0xFB SWAP11 0xDF 0xBE 0xC0 0xB6 0xFC SWAP7 0xD5 PUSH22 0x894D394AC462D22D9FF0C52E8D2810C208E764736F6C PUSH4 0x4300081C STOP CALLER "},"methodIdentifiers":{"get()":"6d4ce63c","set(uint256)":"60fe47b1","transfer(address,uint256)":"a9059cbb","value()":"3fa4f245"}}}}}