{"project/contracts/TournamentFactory.sol":{"TournamentFactory":{"abi":[{"inputs":[],"stateMutability":"nonpayable","type":"constructor"},{"anonymous":false,"inputs":[{"indexed":false,"internalType":"uint8","name":"id","type":"uint8"},{"indexed":false,"internalType":"uint256","name":"entryFee","type":"uint256"},{"indexed":false,"internalType":"uint8","name":"participents","type":"uint8"},{"indexed":false,"internalType":"uint256","name":"startDate","type":"uint256"},{"indexed":false,"internalType":"enum TournamentFactory.Status","name":"status","type":"uint8"}],"name":"TournamentCreated","type":"event"},{"inputs":[{"internalType":"uint8","name":"_id","type":"uint8"},{"internalType":"uint256","name":"_entryFee","type":"uint256"},{"internalType":"uint8","name":"_participents","type":"uint8"},{"internalType":"uint256","name":"_startDate","type":"uint256"},{"internalType":"enum TournamentFactory.Status","name":"_status","type":"uint8"}],"name":"createTournament","outputs":[],"stateMutability":"nonpayable","type":"function"},{"inputs":[],"name":"getTournaments","outputs":[{"components":[{"internalType":"uint8","name":"id","type":"uint8"},{"internalType":"uint256","name":"entryFee","type":"uint256"},{"internalType":"uint8","name":"participents","type":"uint8"},{"internalType":"uint256","name":"startDate","type":"uint256"},{"internalType":"enum TournamentFactory.Status","name":"status","type":"uint8"}],"internalType":"struct TournamentFactory.Tournament[]","name":"","type":"tuple[]"}],"stateMutability":"view","type":"function"},{"inputs":[],"name":"owner","outputs":[{"internalType":"address","name":"","type":"address"}],"stateMutability":"view","type":"function"},{"inputs":[{"internalType":"uint256","name":"","type":"uint256"}],"name":"tournaments","outputs":[{"internalType":"uint8","name":"id","type":"uint8"},{"internalType":"uint256","name":"entryFee","type":"uint256"},{"internalType":"uint8","name":"participents","type":"uint8"},{"internalType":"uint256","name":"startDate","type":"uint256"},{"internalType":"enum TournamentFactory.Status","name":"status","type":"uint8"}],"stateMutability":"view","type":"function"}],"evm":{"bytecode":{"linkReferences":{},"object":"6080604052348015600e575f5ffd5b50335f5f6101000a81548173ffffffffffffffffffffffffffffffffffffffff021916908373ffffffffffffffffffffffffffffffffffffffff1602179055506107718061005b5f395ff3fe608060405234801561000f575f5ffd5b506004361061004a575f3560e01c8063363e37081461004e5780637503e1b71461006a5780638da5cb5b1461009e578063f7f20cb3146100bc575b5f5ffd5b61006860048036038101906100639190610404565b6100da565b005b610084600480360381019061007f919061047b565b61020a565b604051610095959493929190610537565b60405180910390f35b6100a661026f565b6040516100b391906105c7565b60405180910390f35b6100c4610293565b6040516100d1919061071b565b60405180910390f35b60016040518060a001604052808760ff1681526020018681526020018560ff168152602001848152602001836002811115610118576101176104c4565b5b815250908060018154018082558091505060019003905f5260205f2090600502015f909190919091505f820151815f015f6101000a81548160ff021916908360ff160217905550602082015181600101556040820151816002015f6101000a81548160ff021916908360ff160217905550606082015181600301556080820151816004015f6101000a81548160ff021916908360028111156101bd576101bc6104c4565b5b021790555050507fd78d3381e95a1f23229761188397a4a9ca4a8daa50370a92615878112734026085858585856040516101fb959493929190610537565b60405180910390a15050505050565b60018181548110610219575f80fd5b905f5260205f2090600502015f91509050805f015f9054906101000a900460ff1690806001015490806002015f9054906101000a900460ff1690806003015490806004015f9054906101000a900460ff16905085565b5f5f9054906101000a900473ffffffffffffffffffffffffffffffffffffffff1681565b60606001805480602002602001604051908101604052809291908181526020015f905b8282101561036b578382905f5260205f2090600502016040518060a00160405290815f82015f9054906101000a900460ff1660ff1660ff16815260200160018201548152602001600282015f9054906101000a900460ff1660ff1660ff16815260200160038201548152602001600482015f9054906101000a900460ff166002811115610346576103456104c4565b5b6002811115610358576103576104c4565b5b81525050815260200190600101906102b6565b50505050905090565b5f5ffd5b5f60ff82169050919050565b61038d81610378565b8114610397575f5ffd5b50565b5f813590506103a881610384565b92915050565b5f819050919050565b6103c0816103ae565b81146103ca575f5ffd5b50565b5f813590506103db816103b7565b92915050565b600381106103ed575f5ffd5b50565b5f813590506103fe816103e1565b92915050565b5f5f5f5f5f60a0868803121561041d5761041c610374565b5b5f61042a8882890161039a565b955050602061043b888289016103cd565b945050604061044c8882890161039a565b935050606061045d888289016103cd565b925050608061046e888289016103f0565b9150509295509295909350565b5f602082840312156104905761048f610374565b5b5f61049d848285016103cd565b91505092915050565b6104af81610378565b82525050565b6104be816103ae565b82525050565b7f4e487b71000000000000000000000000000000000000000000000000000000005f52602160045260245ffd5b60038110610502576105016104c4565b5b50565b5f819050610512826104f1565b919050565b5f61052182610505565b9050919050565b61053181610517565b82525050565b5f60a08201905061054a5f8301886104a6565b61055760208301876104b5565b61056460408301866104a6565b61057160608301856104b5565b61057e6080830184610528565b9695505050505050565b5f73ffffffffffffffffffffffffffffffffffffffff82169050919050565b5f6105b182610588565b9050919050565b6105c1816105a7565b82525050565b5f6020820190506105da5f8301846105b8565b92915050565b5f81519050919050565b5f82825260208201905092915050565b5f819050602082019050919050565b61061281610378565b82525050565b610621816103ae565b82525050565b61063081610517565b82525050565b60a082015f82015161064a5f850182610609565b50602082015161065d6020850182610618565b5060408201516106706040850182610609565b5060608201516106836060850182610618565b5060808201516106966080850182610627565b50505050565b5f6106a78383610636565b60a08301905092915050565b5f602082019050919050565b5f6106c9826105e0565b6106d381856105ea565b93506106de836105fa565b805f5b8381101561070e5781516106f5888261069c565b9750610700836106b3565b9250506001810190506106e1565b5085935050505092915050565b5f6020820190508181035f83015261073381846106bf565b90509291505056fea26469706673582212206ec43ba49969d8890866c720b077a630de9d55866c9ecf91ad3da0129064b1d664736f6c634300081c0033","opcodes":"PUSH1 0x80 PUSH1 0x40 MSTORE CALLVALUE DUP1 ISZERO PUSH1 0xE JUMPI PUSH0 PUSH0 REVERT JUMPDEST POP CALLER PUSH0 PUSH0 PUSH2 0x100 EXP DUP2 SLOAD DUP2 PUSH20 0xFFFFFFFFFFFFFFFFFFFFFFFFFFFFFFFFFFFFFFFF MUL NOT AND SWAP1 DUP4 PUSH20 0xFFFFFFFFFFFFFFFFFFFFFFFFFFFFFFFFFFFFFFFF AND MUL OR SWAP1 SSTORE POP PUSH2 0x771 DUP1 PUSH2 0x5B PUSH0 CODECOPY PUSH0 RETURN INVALID PUSH1 0x80 PUSH1 0x40 MSTORE CALLVALUE DUP1 ISZERO PUSH2 0xF JUMPI PUSH0 PUSH0 REVERT JUMPDEST POP PUSH1 0x4 CALLDATASIZE LT PUSH2 0x4A JUMPI PUSH0 CALLDATALOAD PUSH1 0xE0 SHR DUP1 PUSH4 0x363E3708 EQ PUSH2 0x4E JUMPI DUP1 PUSH4 0x7503E1B7 EQ PUSH2 0x6A JUMPI DUP1 PUSH4 0x8DA5CB5B EQ PUSH2 0x9E JUMPI DUP1 PUSH4 0xF7F20CB3 EQ PUSH2 0xBC JUMPI JUMPDEST PUSH0 PUSH0 REVERT JUMPDEST PUSH2 0x68 PUSH1 0x4 DUP1 CALLDATASIZE SUB DUP2 ADD SWAP1 PUSH2 0x63 SWAP2 SWAP1 PUSH2 0x404 JUMP JUMPDEST PUSH2 0xDA JUMP JUMPDEST STOP JUMPDEST PUSH2 0x84 PUSH1 0x4 DUP1 CALLDATASIZE SUB DUP2 ADD SWAP1 PUSH2 0x7F SWAP2 SWAP1 PUSH2 0x47B JUMP JUMPDEST PUSH2 0x20A JUMP JUMPDEST PUSH1 0x40 MLOAD PUSH2 0x95 SWAP6 SWAP5 SWAP4 SWAP3 SWAP2 SWAP1 PUSH2 0x537 JUMP JUMPDEST PUSH1 0x40 MLOAD DUP1 SWAP2 SUB SWAP1 RETURN JUMPDEST PUSH2 0xA6 PUSH2 0x26F JUMP JUMPDEST PUSH1 0x40 MLOAD PUSH2 0xB3 SWAP2 SWAP1 PUSH2 0x5C7 JUMP JUMPDEST PUSH1 0x40 MLOAD DUP1 SWAP2 SUB SWAP1 RETURN JUMPDEST PUSH2 0xC4 PUSH2 0x293 JUMP JUMPDEST PUSH1 0x40 MLOAD PUSH2 0xD1 SWAP2 SWAP1 PUSH2 0x71B JUMP JUMPDEST PUSH1 0x40 MLOAD DUP1 SWAP2 SUB SWAP1 RETURN JUMPDEST PUSH1 0x1 PUSH1 0x40 MLOAD DUP1 PUSH1 0xA0 ADD PUSH1 0x40 MSTORE DUP1 DUP8 PUSH1 0xFF AND DUP2 MSTORE PUSH1 0x20 ADD DUP7 DUP2 MSTORE PUSH1 0x20 ADD DUP6 PUSH1 0xFF AND DUP2 MSTORE PUSH1 0x20 ADD DUP5 DUP2 MSTORE PUSH1 0x20 ADD DUP4 PUSH1 0x2 DUP2 GT ISZERO PUSH2 0x118 JUMPI PUSH2 0x117 PUSH2 0x4C4 JUMP JUMPDEST JUMPDEST DUP2 MSTORE POP SWAP1 DUP1 PUSH1 0x1 DUP2 SLOAD ADD DUP1 DUP3 SSTORE DUP1 SWAP2 POP POP PUSH1 0x1 SWAP1 SUB SWAP1 PUSH0 MSTORE PUSH1 0x20 PUSH0 KECCAK256 SWAP1 PUSH1 0x5 MUL ADD PUSH0 SWAP1 SWAP2 SWAP1 SWAP2 SWAP1 SWAP2 POP PUSH0 DUP3 ADD MLOAD DUP2 PUSH0 ADD PUSH0 PUSH2 0x100 EXP DUP2 SLOAD DUP2 PUSH1 0xFF MUL NOT AND SWAP1 DUP4 PUSH1 0xFF AND MUL OR SWAP1 SSTORE POP PUSH1 0x20 DUP3 ADD MLOAD DUP2 PUSH1 0x1 ADD SSTORE PUSH1 0x40 DUP3 ADD MLOAD DUP2 PUSH1 0x2 ADD PUSH0 PUSH2 0x100 EXP DUP2 SLOAD DUP2 PUSH1 0xFF MUL NOT AND SWAP1 DUP4 PUSH1 0xFF AND MUL OR SWAP1 SSTORE POP PUSH1 0x60 DUP3 ADD MLOAD DUP2 PUSH1 0x3 ADD SSTORE PUSH1 0x80 DUP3 ADD MLOAD DUP2 PUSH1 0x4 ADD PUSH0 PUSH2 0x100 EXP DUP2 SLOAD DUP2 PUSH1 0xFF MUL NOT AND SWAP1 DUP4 PUSH1 0x2 DUP2 GT ISZERO PUSH2 0x1BD JUMPI PUSH2 0x1BC PUSH2 0x4C4 JUMP JUMPDEST JUMPDEST MUL OR SWAP1 SSTORE POP POP POP PUSH32 0xD78D3381E95A1F23229761188397A4A9CA4A8DAA50370A926158781127340260 DUP6 DUP6 DUP6 DUP6 DUP6 PUSH1 0x40 MLOAD PUSH2 0x1FB SWAP6 SWAP5 SWAP4 SWAP3 SWAP2 SWAP1 PUSH2 0x537 JUMP JUMPDEST PUSH1 0x40 MLOAD DUP1 SWAP2 SUB SWAP1 LOG1 POP POP POP POP POP JUMP JUMPDEST PUSH1 0x1 DUP2 DUP2 SLOAD DUP2 LT PUSH2 0x219 JUMPI PUSH0 DUP1 REVERT JUMPDEST SWAP1 PUSH0 MSTORE PUSH1 0x20 PUSH0 KECCAK256 SWAP1 PUSH1 0x5 MUL ADD PUSH0 SWAP2 POP SWAP1 POP DUP1 PUSH0 ADD PUSH0 SWAP1 SLOAD SWAP1 PUSH2 0x100 EXP SWAP1 DIV PUSH1 0xFF AND SWAP1 DUP1 PUSH1 0x1 ADD SLOAD SWAP1 DUP1 PUSH1 0x2 ADD PUSH0 SWAP1 SLOAD SWAP1 PUSH2 0x100 EXP SWAP1 DIV PUSH1 0xFF AND SWAP1 DUP1 PUSH1 0x3 ADD SLOAD SWAP1 DUP1 PUSH1 0x4 ADD PUSH0 SWAP1 SLOAD SWAP1 PUSH2 0x100 EXP SWAP1 DIV PUSH1 0xFF AND SWAP1 POP DUP6 JUMP JUMPDEST PUSH0 PUSH0 SWAP1 SLOAD SWAP1 PUSH2 0x100 EXP SWAP1 DIV PUSH20 0xFFFFFFFFFFFFFFFFFFFFFFFFFFFFFFFFFFFFFFFF AND DUP2 JUMP JUMPDEST PUSH1 0x60 PUSH1 0x1 DUP1 SLOAD DUP1 PUSH1 0x20 MUL PUSH1 0x20 ADD PUSH1 0x40 MLOAD SWAP1 DUP2 ADD PUSH1 0x40 MSTORE DUP1 SWAP3 SWAP2 SWAP1 DUP2 DUP2 MSTORE PUSH1 0x20 ADD PUSH0 SWAP1 JUMPDEST DUP3 DUP3 LT ISZERO PUSH2 0x36B JUMPI DUP4 DUP3 SWAP1 PUSH0 MSTORE PUSH1 0x20 PUSH0 KECCAK256 SWAP1 PUSH1 0x5 MUL ADD PUSH1 0x40 MLOAD DUP1 PUSH1 0xA0 ADD PUSH1 0x40 MSTORE SWAP1 DUP2 PUSH0 DUP3 ADD PUSH0 SWAP1 SLOAD SWAP1 PUSH2 0x100 EXP SWAP1 DIV PUSH1 0xFF AND PUSH1 0xFF AND PUSH1 0xFF AND DUP2 MSTORE PUSH1 0x20 ADD PUSH1 0x1 DUP3 ADD SLOAD DUP2 MSTORE PUSH1 0x20 ADD PUSH1 0x2 DUP3 ADD PUSH0 SWAP1 SLOAD SWAP1 PUSH2 0x100 EXP SWAP1 DIV PUSH1 0xFF AND PUSH1 0xFF AND PUSH1 0xFF AND DUP2 MSTORE PUSH1 0x20 ADD PUSH1 0x3 DUP3 ADD SLOAD DUP2 MSTORE PUSH1 0x20 ADD PUSH1 0x4 DUP3 ADD PUSH0 SWAP1 SLOAD SWAP1 PUSH2 0x100 EXP SWAP1 DIV PUSH1 0xFF AND PUSH1 0x2 DUP2 GT ISZERO PUSH2 0x346 JUMPI PUSH2 0x345 PUSH2 0x4C4 JUMP JUMPDEST JUMPDEST PUSH1 0x2 DUP2 GT ISZERO PUSH2 0x358 JUMPI PUSH2 0x357 PUSH2 0x4C4 JUMP JUMPDEST JUMPDEST DUP2 MSTORE POP POP DUP2 MSTORE PUSH1 0x20 ADD SWAP1 PUSH1 0x1 ADD SWAP1 PUSH2 0x2B6 JUMP JUMPDEST POP POP POP POP SWAP1 POP SWAP1 JUMP JUMPDEST PUSH0 PUSH0 REVERT JUMPDEST PUSH0 PUSH1 0xFF DUP3 AND SWAP1 POP SWAP2 SWAP1 POP JUMP JUMPDEST PUSH2 0x38D DUP2 PUSH2 0x378 JUMP JUMPDEST DUP2 EQ PUSH2 0x397 JUMPI PUSH0 PUSH0 REVERT JUMPDEST POP JUMP JUMPDEST PUSH0 DUP2 CALLDATALOAD SWAP1 POP PUSH2 0x3A8 DUP2 PUSH2 0x384 JUMP JUMPDEST SWAP3 SWAP2 POP POP JUMP JUMPDEST PUSH0 DUP2 SWAP1 POP SWAP2 SWAP1 POP JUMP JUMPDEST PUSH2 0x3C0 DUP2 PUSH2 0x3AE JUMP JUMPDEST DUP2 EQ PUSH2 0x3CA JUMPI PUSH0 PUSH0 REVERT JUMPDEST POP JUMP JUMPDEST PUSH0 DUP2 CALLDATALOAD SWAP1 POP PUSH2 0x3DB DUP2 PUSH2 0x3B7 JUMP JUMPDEST SWAP3 SWAP2 POP POP JUMP JUMPDEST PUSH1 0x3 DUP2 LT PUSH2 0x3ED JUMPI PUSH0 PUSH0 REVERT JUMPDEST POP JUMP JUMPDEST PUSH0 DUP2 CALLDATALOAD SWAP1 POP PUSH2 0x3FE DUP2 PUSH2 0x3E1 JUMP JUMPDEST SWAP3 SWAP2 POP POP JUMP JUMPDEST PUSH0 PUSH0 PUSH0 PUSH0 PUSH0 PUSH1 0xA0 DUP7 DUP9 SUB SLT ISZERO PUSH2 0x41D JUMPI PUSH2 0x41C PUSH2 0x374 JUMP JUMPDEST JUMPDEST PUSH0 PUSH2 0x42A DUP9 DUP3 DUP10 ADD PUSH2 0x39A JUMP JUMPDEST SWAP6 POP POP PUSH1 0x20 PUSH2 0x43B DUP9 DUP3 DUP10 ADD PUSH2 0x3CD JUMP JUMPDEST SWAP5 POP POP PUSH1 0x40 PUSH2 0x44C DUP9 DUP3 DUP10 ADD PUSH2 0x39A JUMP JUMPDEST SWAP4 POP POP PUSH1 0x60 PUSH2 0x45D DUP9 DUP3 DUP10 ADD PUSH2 0x3CD JUMP JUMPDEST SWAP3 POP POP PUSH1 0x80 PUSH2 0x46E DUP9 DUP3 DUP10 ADD PUSH2 0x3F0 JUMP JUMPDEST SWAP2 POP POP SWAP3 SWAP6 POP SWAP3 SWAP6 SWAP1 SWAP4 POP JUMP JUMPDEST PUSH0 PUSH1 0x20 DUP3 DUP5 SUB SLT ISZERO PUSH2 0x490 JUMPI PUSH2 0x48F PUSH2 0x374 JUMP JUMPDEST JUMPDEST PUSH0 PUSH2 0x49D DUP5 DUP3 DUP6 ADD PUSH2 0x3CD JUMP JUMPDEST SWAP2 POP POP SWAP3 SWAP2 POP POP JUMP JUMPDEST PUSH2 0x4AF DUP2 PUSH2 0x378 JUMP JUMPDEST DUP3 MSTORE POP POP JUMP JUMPDEST PUSH2 0x4BE DUP2 PUSH2 0x3AE JUMP JUMPDEST DUP3 MSTORE POP POP JUMP JUMPDEST PUSH32 0x4E487B7100000000000000000000000000000000000000000000000000000000 PUSH0 MSTORE PUSH1 0x21 PUSH1 0x4 MSTORE PUSH1 0x24 PUSH0 REVERT JUMPDEST PUSH1 0x3 DUP2 LT PUSH2 0x502 JUMPI PUSH2 0x501 PUSH2 0x4C4 JUMP JUMPDEST JUMPDEST POP JUMP JUMPDEST PUSH0 DUP2 SWAP1 POP PUSH2 0x512 DUP3 PUSH2 0x4F1 JUMP JUMPDEST SWAP2 SWAP1 POP JUMP JUMPDEST PUSH0 PUSH2 0x521 DUP3 PUSH2 0x505 JUMP JUMPDEST SWAP1 POP SWAP2 SWAP1 POP JUMP JUMPDEST PUSH2 0x531 DUP2 PUSH2 0x517 JUMP JUMPDEST DUP3 MSTORE POP POP JUMP JUMPDEST PUSH0 PUSH1 0xA0 DUP3 ADD SWAP1 POP PUSH2 0x54A PUSH0 DUP4 ADD DUP9 PUSH2 0x4A6 JUMP JUMPDEST PUSH2 0x557 PUSH1 0x20 DUP4 ADD DUP8 PUSH2 0x4B5 JUMP JUMPDEST PUSH2 0x564 PUSH1 0x40 DUP4 ADD DUP7 PUSH2 0x4A6 JUMP JUMPDEST PUSH2 0x571 PUSH1 0x60 DUP4 ADD DUP6 PUSH2 0x4B5 JUMP JUMPDEST PUSH2 0x57E PUSH1 0x80 DUP4 ADD DUP5 PUSH2 0x528 JUMP JUMPDEST SWAP7 SWAP6 POP POP POP POP POP POP JUMP JUMPDEST PUSH0 PUSH20 0xFFFFFFFFFFFFFFFFFFFFFFFFFFFFFFFFFFFFFFFF DUP3 AND SWAP1 POP SWAP2 SWAP1 POP JUMP JUMPDEST PUSH0 PUSH2 0x5B1 DUP3 PUSH2 0x588 JUMP JUMPDEST SWAP1 POP SWAP2 SWAP1 POP JUMP JUMPDEST PUSH2 0x5C1 DUP2 PUSH2 0x5A7 JUMP JUMPDEST DUP3 MSTORE POP POP JUMP JUMPDEST PUSH0 PUSH1 0x20 DUP3 ADD SWAP1 POP PUSH2 0x5DA PUSH0 DUP4 ADD DUP5 PUSH2 0x5B8 JUMP JUMPDEST SWAP3 SWAP2 POP POP JUMP JUMPDEST PUSH0 DUP2 MLOAD SWAP1 POP SWAP2 SWAP1 POP JUMP JUMPDEST PUSH0 DUP3 DUP3 MSTORE PUSH1 0x20 DUP3 ADD SWAP1 POP SWAP3 SWAP2 POP POP JUMP JUMPDEST PUSH0 DUP2 SWAP1 POP PUSH1 0x20 DUP3 ADD SWAP1 POP SWAP2 SWAP1 POP JUMP JUMPDEST PUSH2 0x612 DUP2 PUSH2 0x378 JUMP JUMPDEST DUP3 MSTORE POP POP JUMP JUMPDEST PUSH2 0x621 DUP2 PUSH2 0x3AE JUMP JUMPDEST DUP3 MSTORE POP POP JUMP JUMPDEST PUSH2 0x630 DUP2 PUSH2 0x517 JUMP JUMPDEST DUP3 MSTORE POP POP JUMP JUMPDEST PUSH1 0xA0 DUP3 ADD PUSH0 DUP3 ADD MLOAD PUSH2 0x64A PUSH0 DUP6 ADD DUP3 PUSH2 0x609 JUMP JUMPDEST POP PUSH1 0x20 DUP3 ADD MLOAD PUSH2 0x65D PUSH1 0x20 DUP6 ADD DUP3 PUSH2 0x618 JUMP JUMPDEST POP PUSH1 0x40 DUP3 ADD MLOAD PUSH2 0x670 PUSH1 0x40 DUP6 ADD DUP3 PUSH2 0x609 JUMP JUMPDEST POP PUSH1 0x60 DUP3 ADD MLOAD PUSH2 0x683 PUSH1 0x60 DUP6 ADD DUP3 PUSH2 0x618 JUMP JUMPDEST POP PUSH1 0x80 DUP3 ADD MLOAD PUSH2 0x696 PUSH1 0x80 DUP6 ADD DUP3 PUSH2 0x627 JUMP JUMPDEST POP POP POP POP JUMP JUMPDEST PUSH0 PUSH2 0x6A7 DUP4 DUP4 PUSH2 0x636 JUMP JUMPDEST PUSH1 0xA0 DUP4 ADD SWAP1 POP SWAP3 SWAP2 POP POP JUMP JUMPDEST PUSH0 PUSH1 0x20 DUP3 ADD SWAP1 POP SWAP2 SWAP1 POP JUMP JUMPDEST PUSH0 PUSH2 0x6C9 DUP3 PUSH2 0x5E0 JUMP JUMPDEST PUSH2 0x6D3 DUP2 DUP6 PUSH2 0x5EA JUMP JUMPDEST SWAP4 POP PUSH2 0x6DE DUP4 PUSH2 0x5FA JUMP JUMPDEST DUP1 PUSH0 JUMPDEST DUP4 DUP2 LT ISZERO PUSH2 0x70E JUMPI DUP2 MLOAD PUSH2 0x6F5 DUP9 DUP3 PUSH2 0x69C JUMP JUMPDEST SWAP8 POP PUSH2 0x700 DUP4 PUSH2 0x6B3 JUMP JUMPDEST SWAP3 POP POP PUSH1 0x1 DUP2 ADD SWAP1 POP PUSH2 0x6E1 JUMP JUMPDEST POP DUP6 SWAP4 POP POP POP POP SWAP3 SWAP2 POP POP JUMP JUMPDEST PUSH0 PUSH1 0x20 DUP3 ADD SWAP1 POP DUP2 DUP2 SUB PUSH0 DUP4 ADD MSTORE PUSH2 0x733 DUP2 DUP5 PUSH2 0x6BF JUMP JUMPDEST SWAP1 POP SWAP3 SWAP2 POP POP JUMP INVALID LOG2 PUSH5 0x6970667358 0x22 SLT KECCAK256 PUSH15 0xC43BA49969D8890866C720B077A630 0xDE SWAP14 SSTORE DUP7 PUSH13 0x9ECF91AD3DA0129064B1D66473 PUSH16 0x6C634300081C00330000000000000000 "},"methodIdentifiers":{"createTournament(uint8,uint256,uint8,uint256,uint8)":"363e3708","getTournaments()":"f7f20cb3","owner()":"8da5cb5b","tournaments(uint256)":"7503e1b7"}}}}}