{"project/contracts/TournamentFactory.sol":{"TournamentFactory":{"abi":[{"inputs":[{"internalType":"address","name":"tokenAddress","type":"address"}],"stateMutability":"nonpayable","type":"constructor"},{"inputs":[{"internalType":"address","name":"owner","type":"address"}],"name":"OwnableInvalidOwner","type":"error"},{"inputs":[{"internalType":"address","name":"account","type":"address"}],"name":"OwnableUnauthorizedAccount","type":"error"},{"anonymous":false,"inputs":[{"indexed":true,"internalType":"address","name":"previousOwner","type":"address"},{"indexed":true,"internalType":"address","name":"newOwner","type":"address"}],"name":"OwnershipTransferred","type":"event"},{"anonymous":false,"inputs":[{"indexed":false,"internalType":"uint256","name":"id","type":"uint256"},{"indexed":false,"internalType":"uint256","name":"entryFee","type":"uint256"},{"indexed":false,"internalType":"uint8","name":"participants","type":"uint8"},{"indexed":false,"internalType":"uint256","name":"startDate","type":"uint256"},{"indexed":false,"internalType":"enum TournamentFactory.Status","name":"status","type":"uint8"}],"name":"TournamentCreated","type":"event"},{"inputs":[{"internalType":"string","name":"_title","type":"string"},{"internalType":"uint256","name":"_entryFee","type":"uint256"},{"internalType":"uint8","name":"_maxParticipants","type":"uint8"},{"internalType":"uint256","name":"_startTime","type":"uint256"},{"internalType":"string","name":"_username","type":"string"}],"name":"createTournament","outputs":[],"stateMutability":"nonpayable","type":"function"},{"inputs":[{"internalType":"uint256","name":"_id","type":"uint256"},{"internalType":"uint256","name":"_round","type":"uint256"},{"internalType":"uint256","name":"_matchId","type":"uint256"}],"name":"getMatch","outputs":[{"components":[{"components":[{"internalType":"address","name":"addr","type":"address"},{"internalType":"bool","name":"claimed","type":"bool"},{"internalType":"string","name":"username","type":"string"}],"internalType":"struct TournamentFactory.Player","name":"player1","type":"tuple"},{"internalType":"uint256","name":"player1Score","type":"uint256"},{"components":[{"internalType":"address","name":"addr","type":"address"},{"internalType":"bool","name":"claimed","type":"bool"},{"internalType":"string","name":"username","type":"string"}],"internalType":"struct TournamentFactory.Player","name":"player2","type":"tuple"},{"internalType":"uint256","name":"player2Score","type":"uint256"},{"internalType":"enum TournamentFactory.Status","name":"status","type":"uint8"}],"internalType":"struct TournamentFactory.Match","name":"","type":"tuple"}],"stateMutability":"view","type":"function"},{"inputs":[{"internalType":"uint256","name":"tournamentId","type":"uint256"},{"internalType":"uint256","name":"round","type":"uint256"},{"internalType":"uint256","name":"matchNumber","type":"uint256"}],"name":"getMatchKey","outputs":[{"internalType":"bytes32","name":"","type":"bytes32"}],"stateMutability":"pure","type":"function"},{"inputs":[{"internalType":"uint256","name":"tournamentId","type":"uint256"},{"internalType":"uint8","name":"round","type":"uint8"},{"internalType":"uint16","name":"index","type":"uint16"}],"name":"getPlayer","outputs":[{"components":[{"internalType":"address","name":"addr","type":"address"},{"internalType":"bool","name":"claimed","type":"bool"},{"internalType":"string","name":"username","type":"string"}],"internalType":"struct TournamentFactory.Player","name":"","type":"tuple"}],"stateMutability":"view","type":"function"},{"inputs":[{"internalType":"uint256","name":"tournamentId","type":"uint256"},{"internalType":"uint256","name":"round","type":"uint256"},{"internalType":"uint256","name":"index","type":"uint256"}],"name":"getPlayerKey","outputs":[{"internalType":"bytes32","name":"","type":"bytes32"}],"stateMutability":"pure","type":"function"},{"inputs":[{"internalType":"uint256","name":"id","type":"uint256"}],"name":"getTournament","outputs":[{"components":[{"internalType":"uint256","name":"id","type":"uint256"},{"internalType":"string","name":"title","type":"string"},{"internalType":"uint256","name":"entryFee","type":"uint256"},{"internalType":"uint8","name":"participants","type":"uint8"},{"internalType":"uint8","name":"maxParticipants","type":"uint8"},{"internalType":"uint256","name":"currentRound","type":"uint256"},{"internalType":"uint256","name":"startTime","type":"uint256"},{"internalType":"enum TournamentFactory.Status","name":"status","type":"uint8"}],"internalType":"struct TournamentFactory.Tournament","name":"","type":"tuple"}],"stateMutability":"view","type":"function"},{"inputs":[],"name":"getTournamentLength","outputs":[{"internalType":"uint256","name":"","type":"uint256"}],"stateMutability":"view","type":"function"},{"inputs":[],"name":"getTournaments","outputs":[{"components":[{"internalType":"uint256","name":"id","type":"uint256"},{"internalType":"string","name":"title","type":"string"},{"internalType":"uint256","name":"entryFee","type":"uint256"},{"internalType":"uint8","name":"participants","type":"uint8"},{"internalType":"uint8","name":"maxParticipants","type":"uint8"},{"internalType":"uint256","name":"currentRound","type":"uint256"},{"internalType":"uint256","name":"startTime","type":"uint256"},{"internalType":"enum TournamentFactory.Status","name":"status","type":"uint8"}],"internalType":"struct TournamentFactory.Tournament[]","name":"","type":"tuple[]"}],"stateMutability":"view","type":"function"},{"inputs":[{"internalType":"uint256","name":"_id","type":"uint256"},{"internalType":"string","name":"_username","type":"string"}],"name":"joinTournament","outputs":[],"stateMutability":"nonpayable","type":"function"},{"inputs":[],"name":"owner","outputs":[{"internalType":"address","name":"","type":"address"}],"stateMutability":"view","type":"function"},{"inputs":[],"name":"renounceOwnership","outputs":[],"stateMutability":"nonpayable","type":"function"},{"inputs":[{"internalType":"enum TournamentFactory.Status","name":"_statue","type":"uint8"},{"internalType":"uint256","name":"_id","type":"uint256"}],"name":"setTournamentStatus","outputs":[],"stateMutability":"nonpayable","type":"function"},{"inputs":[{"internalType":"uint256","name":"_id","type":"uint256"},{"internalType":"uint256[]","name":"order","type":"uint256[]"}],"name":"startTournament","outputs":[],"stateMutability":"nonpayable","type":"function"},{"inputs":[{"internalType":"uint256","name":"_id","type":"uint256"},{"internalType":"uint16","name":"_index","type":"uint16"}],"name":"takeRefunds","outputs":[],"stateMutability":"nonpayable","type":"function"},{"inputs":[],"name":"token","outputs":[{"internalType":"contract TRIZcoin","name":"","type":"address"}],"stateMutability":"view","type":"function"},{"inputs":[{"internalType":"uint256","name":"","type":"uint256"}],"name":"tournaments","outputs":[{"internalType":"uint256","name":"id","type":"uint256"},{"internalType":"string","name":"title","type":"string"},{"internalType":"uint256","name":"entryFee","type":"uint256"},{"internalType":"uint8","name":"participants","type":"uint8"},{"internalType":"uint8","name":"maxParticipants","type":"uint8"},{"internalType":"uint256","name":"currentRound","type":"uint256"},{"internalType":"uint256","name":"startTime","type":"uint256"},{"internalType":"enum TournamentFactory.Status","name":"status","type":"uint8"}],"stateMutability":"view","type":"function"},{"inputs":[{"internalType":"address","name":"newOwner","type":"address"}],"name":"transferOwnership","outputs":[],"stateMutability":"nonpayable","type":"function"}],"evm":{"bytecode":{"linkReferences":{},"object":"60806040523461002f576100196100146100f4565b61019b565b610021610034565b612c1f6103298239612c1f90f35b61003a565b60405190565b5f80fd5b601f801991011690565b634e487b7160e01b5f52604160045260245ffd5b906100669061003e565b810190811060018060401b0382111761007e57604052565b610048565b9061009661008f610034565b928361005c565b565b5f80fd5b60018060a01b031690565b6100b09061009c565b90565b6100bc816100a7565b036100c357565b5f80fd5b905051906100d4826100b3565b565b906020828203126100ef576100ec915f016100c7565b90565b610098565b610112612f488038038061010781610083565b9283398101906100d6565b90565b90565b61012c6101276101319261009c565b610115565b61009c565b90565b61013d90610118565b90565b61014990610134565b90565b5f1b90565b9061016260018060a01b039161014c565b9181191691161790565b61017590610134565b90565b90565b9061019061018b6101979261016c565b610178565b8254610151565b9055565b6101b06101b7916101ab33610206565b610140565b600161017b565b565b90565b6101d06101cb6101d5926101b9565b610115565b61009c565b90565b6101e1906101bc565b90565b6101ed906100a7565b9052565b9190610204905f602085019401906101e4565b565b8061022161021b6102165f6101d8565b6100a7565b916100a7565b146102315761022f906102c9565b565b61025461023d5f6101d8565b5f918291631e4fbdf760e01b8352600483016101f1565b0390fd5b5f1c90565b60018060a01b031690565b61027461027991610258565b61025d565b90565b6102869054610268565b90565b61029290610118565b90565b61029e90610289565b90565b90565b906102b96102b46102c092610295565b6102a1565b8254610151565b9055565b5f0190565b6102d25f61027c565b6102dc825f6102a4565b9061031061030a7f8be0079c531659141344cd1fd0a4f28419497f9722a3daafe3b4186f6b6457e093610295565b91610295565b91610319610034565b80610323816102c4565b0390a356fe60806040526004361015610013575b61111e565b61001d5f3561012c565b80631a5bd7fc146101275780631bd9103b14610122578063226549551461011d5780632c542b881461011857806343d2f8dd1461011357806351c330341461010e578063715018a6146101095780637503e1b7146101045780638da5cb5b146100ff5780639d5d40fb146100fa578063bf14c887146100f5578063c1deef52146100f0578063d670c0c7146100eb578063f2fde38b146100e6578063f4716df2146100e1578063f7f20cb3146100dc5763fc0c546a0361000e576110e9565b611017565b610ea2565b610e6f565b610df8565b610d31565b610ce8565b610c6a565b610ba8565b610b47565b6107c3565b610780565b6106f2565b610612565b6104ea565b610389565b6102f5565b60e01c90565b60405190565b5f80fd5b5f80fd5b5f80fd5b90565b61015081610144565b0361015757565b5f80fd5b9050359061016882610147565b565b9060208282031261018357610180915f0161015b565b90565b61013c565b61019190610144565b9052565b5190565b60209181520190565b90825f9392825e0152565b601f801991011690565b6101d66101df6020936101e4936101cd81610195565b93848093610199565b958691016101a2565b6101ad565b0190565b60ff1690565b6101f7906101e8565b9052565b634e487b7160e01b5f52602160045260245ffd5b6004111561021957565b6101fb565b906102288261020f565b565b6102339061021e565b90565b61023f9061022a565b9052565b906102da9060e08061027561010084016102635f8801515f870190610188565b602087015185820360208701526101b7565b9461028860408201516040860190610188565b61029a606082015160608601906101ee565b6102ac608082015160808601906101ee565b6102be60a082015160a0860190610188565b6102d060c082015160c0860190610188565b0151910190610236565b90565b6102f29160208201915f818403910152610243565b90565b346103255761032161031061030b36600461016a565b6112bc565b610318610132565b918291826102dd565b0390f35b610138565b909160608284031261035f5761035c610345845f850161015b565b93610353816020860161015b565b9360400161015b565b90565b61013c565b90565b61037090610364565b9052565b9190610387905f60208501940190610367565b565b346103ba576103b66103a561039f36600461032a565b9161132d565b6103ad610132565b91829182610374565b0390f35b610138565b5f80fd5b5f80fd5b634e487b7160e01b5f52604160045260245ffd5b906103e5906101ad565b810190811067ffffffffffffffff8211176103ff57604052565b6103c7565b90610417610410610132565b92836103db565b565b67ffffffffffffffff8111610437576104336020916101ad565b0190565b6103c7565b90825f939282370152565b9092919261045c61045782610419565b610404565b93818552602085019082840111610478576104769261043c565b565b6103c3565b9080601f8301121561049b5781602061049893359101610447565b90565b6103bf565b9190916040818403126104e0576104b9835f830161015b565b92602082013567ffffffffffffffff81116104db576104d8920161047d565b90565b610140565b61013c565b5f0190565b34610519576105036104fd3660046104a0565b90611a92565b61050b610132565b80610515816104e5565b0390f35b610138565b60018060a01b031690565b6105329061051e565b90565b61053e90610529565b9052565b151590565b61055090610542565b9052565b610591916040606082019261056f5f8201515f850190610535565b61058160208201516020850190610547565b01519060408184039101526101b7565b90565b906105f7906080806105da6105b660a085015f8801518682035f880152610554565b6105c860208801516020870190610188565b60408701518582036040870152610554565b946105ed60608201516060860190610188565b0151910190610236565b90565b61060f9160208201915f818403910152610594565b90565b346106435761063f61062e61062836600461032a565b91611e75565b610636610132565b918291826105fa565b0390f35b610138565b610651816101e8565b0361065857565b5f80fd5b9050359061066982610648565b565b91909160a0818403126106ed575f81013567ffffffffffffffff81116106e8578361069791830161047d565b926106a5816020840161015b565b926106b3826040850161065c565b926106c1836060830161015b565b92608082013567ffffffffffffffff81116106e3576106e0920161047d565b90565b610140565b610140565b61013c565b346107245761070e61070536600461066b565b9392909261217a565b610716610132565b80610720816104e5565b0390f35b610138565b61ffff1690565b61073981610729565b0361074057565b5f80fd5b9050359061075182610730565b565b919060408382031261077b578061076f610778925f860161015b565b93602001610744565b90565b61013c565b346107af57610799610793366004610753565b906124cb565b6107a1610132565b806107ab816104e5565b0390f35b610138565b5f9103126107be57565b61013c565b346107f1576107d33660046107b4565b6107db612676565b6107e3610132565b806107ed816104e5565b0390f35b610138565b634e487b7160e01b5f52603260045260245ffd5b5490565b5f5260205f2090565b6108208161080a565b82101561083a5761083260079161080e565b910201905f90565b6107f6565b5f1c90565b90565b6108536108589161083f565b610844565b90565b6108659054610847565b90565b634e487b7160e01b5f52602260045260245ffd5b906001600283049216801561089c575b602083101461089757565b610868565b91607f169161088c565b5f5260205f2090565b905f92918054906108c96108c28361087c565b8094610199565b916001811690815f1461092057506001146108e4575b505050565b6108f191929394506108a6565b915f925b81841061090857505001905f80806108df565b600181602092959395548486015201910192906108f5565b92949550505060ff19168252151560200201905f80806108df565b90610945916108af565b90565b9061096861096192610958610132565b9384809261093b565b03836103db565b565b60ff1690565b61097c6109819161083f565b61096a565b90565b61098e9054610970565b90565b60081c90565b6109a36109a891610991565b61096a565b90565b6109b59054610997565b90565b60ff1690565b6109ca6109cf9161083f565b6109b8565b90565b6109dc90546109be565b90565b6002906109eb8261080a565b811015610a65576109fb91610817565b5090610a085f830161085b565b91610a1560018201610948565b91610a226002830161085b565b91610a2f60038201610984565b91610a3c600383016109ab565b91610a496004820161085b565b91610a626006610a5b6005850161085b565b93016109d2565b90565b5f80fd5b610a7290610144565b9052565b60209181520190565b610a9e610aa7602093610aac93610a9581610195565b93848093610a76565b958691016101a2565b6101ad565b0190565b610ab9906101e8565b9052565b610ac69061022a565b9052565b9395610b2a60e096610b20610b3e969c9b99610b16610b0b8a610b459e99610afd610b349a5f6101008501940190610a69565b8c6020818403910152610a7f565b9e60408b0190610a69565b6060890190610ab0565b6080870190610ab0565b60a0850190610a69565b60c0830190610a69565b0190610abd565b565b34610b8157610b7d610b62610b5d36600461016a565b6109df565b94610b74989698949194939293610132565b98899889610aca565b0390f35b610138565b610b8f90610529565b9052565b9190610ba6905f60208501940190610b86565b565b34610bd857610bb83660046107b4565b610bd4610bc3612684565b610bcb610132565b91829182610b93565b0390f35b610138565b5f80fd5b5f80fd5b909182601f83011215610c1f5781359167ffffffffffffffff8311610c1a576020019260208302840111610c1557565b610be1565b610bdd565b6103bf565b919091604081840312610c6557610c3d835f830161015b565b92602082013567ffffffffffffffff8111610c6057610c5c9201610be5565b9091565b610140565b61013c565b34610c9957610c83610c7d366004610c24565b9161293d565b610c8b610132565b80610c95816104e5565b0390f35b610138565b60041115610ca857565b5f80fd5b90503590610cb982610c9e565b565b9190604083820312610ce35780610cd7610ce0925f8601610cac565b9360200161015b565b90565b61013c565b34610d1757610d01610cfb366004610cbb565b9061294a565b610d09610132565b80610d13816104e5565b0390f35b610138565b9190610d2f905f60208501940190610a69565b565b34610d6157610d413660046107b4565b610d5d610d4c61296b565b610d54610132565b91829182610d1c565b0390f35b610138565b9091606082840312610d9b57610d98610d81845f850161015b565b93610d8f816020860161065c565b93604001610744565b90565b61013c565b610ddd9160406060820192610dbb5f8201515f850190610535565b610dcd60208201516020850190610547565b01519060408184039101526101b7565b90565b610df59160208201915f818403910152610da0565b90565b34610e2957610e25610e14610e0e366004610d66565b9161298c565b610e1c610132565b91829182610de0565b0390f35b610138565b610e3781610529565b03610e3e57565b5f80fd5b90503590610e4f82610e2e565b565b90602082820312610e6a57610e67915f01610e42565b90565b61013c565b34610e9d57610e87610e82366004610e51565b612a2e565b610e8f610132565b80610e99816104e5565b0390f35b610138565b34610ed357610ecf610ebe610eb836600461032a565b91612a39565b610ec6610132565b91829182610374565b0390f35b610138565b5190565b60209181520190565b60200190565b90610f829060e080610f1d6101008401610f0b5f8801515f870190610188565b602087015185820360208701526101b7565b94610f3060408201516040860190610188565b610f42606082015160608601906101ee565b610f54608082015160808601906101ee565b610f6660a082015160a0860190610188565b610f7860c082015160c0860190610188565b0151910190610236565b90565b90610f8f91610eeb565b90565b60200190565b90610fac610fa583610ed8565b8092610edc565b9081610fbd60208302840194610ee5565b925f915b838310610fd057505050505090565b90919293946020610ff2610fec83856001950387528951610f85565b97610f92565b9301930191939290610fc1565b6110149160208201915f818403910152610f98565b90565b34611047576110273660046107b4565b611043611032612b19565b61103a610132565b91829182610fff565b0390f35b610138565b1c90565b60018060a01b031690565b61106b906008611070930261104c565b611050565b90565b9061107e915461105b565b90565b61108d60015f90611073565b90565b90565b6110a76110a26110ac9261051e565b611090565b61051e565b90565b6110b890611093565b90565b6110c4906110af565b90565b6110d0906110bb565b9052565b91906110e7905f602085019401906110c7565b565b34611119576110f93660046107b4565b611115611104611081565b61110c610132565b918291826110d4565b0390f35b610138565b5f80fd5b61112d610100610404565b90565b5f90565b606090565b5f90565b5f90565b611149611122565b906020808080808080808961115c611130565b815201611167611134565b815201611172611130565b81520161117d611139565b815201611188611139565b815201611193611130565b81520161119e611130565b8152016111a961113d565b81525050565b6111b7611141565b90565b906111c490610144565b9052565b52565b906111d5906101e8565b9052565b906111e39061021e565b9052565b906112ae6112a560066111f8611122565b9461120f6112075f830161085b565b5f88016111ba565b61122761121e60018301610948565b602088016111c8565b61123f6112366002830161085b565b604088016111ba565b61125761124e60038301610984565b606088016111cb565b61126f611266600383016109ab565b608088016111cb565b61128761127e6004830161085b565b60a088016111ba565b61129f6112966005830161085b565b60c088016111ba565b016109d2565b60e084016111d9565b565b6112b9906111e7565b90565b6112d36112d9916112cb6111af565b506002610817565b506112b0565b90565b5f90565b90565b6112ef6112f491610144565b6112e0565b9052565b60209392611317858361130f829561131f976112e3565b0180926112e3565b0180926112e3565b0190565b60200190565b5190565b906113546113639261133d6112dc565b509193611348610132565b948593602085016112f8565b602082018103825203826103db565b61137561136f82611329565b91611323565b2090565b90565b5f7f746f75726e616d656e742069736e27742070656e64696e670000000000000000910152565b6113b06018602092610a76565b6113b98161137c565b0190565b6113d29060208101905f8183039101526113a3565b90565b156113dc57565b6113e4610132565b62461bcd60e51b8152806113fa600482016113bd565b0390fd5b5f7f646561646c696e65207265616368656400000000000000000000000000000000910152565b6114326010602092610a76565b61143b816113fe565b0190565b6114549060208101905f818303910152611425565b90565b1561145e57565b611466610132565b62461bcd60e51b81528061147c6004820161143f565b0390fd5b5f7f746f75726e616d656e742069732066756c6c0000000000000000000000000000910152565b6114b46012602092610a76565b6114bd81611480565b0190565b6114d69060208101905f8183039101526114a7565b90565b156114e057565b6114e8610132565b62461bcd60e51b8152806114fe600482016114c1565b0390fd5b61150e6115139161083f565b611050565b90565b6115209054611502565b90565b61152c906110af565b90565b60e01b90565b61153e81610542565b0361154557565b5f80fd5b9050519061155682611535565b565b906020828203126115715761156e915f01611549565b90565b61013c565b60409061159f6115a6949695939661159560608401985f850190610b86565b6020830190610b86565b0190610a69565b565b6115b0610132565b3d5f823e3d90fd5b5f7f6e6f7420656e6f756768206361736820737472616e6765720000000000000000910152565b6115ec6018602092610a76565b6115f5816115b8565b0190565b61160e9060208101905f8183039101526115df565b90565b1561161857565b611620610132565b62461bcd60e51b815280611636600482016115f9565b0390fd5b634e487b7160e01b5f52601160045260245ffd5b611657906101e8565b60ff81146116655760010190565b61163a565b5f1b90565b9061167b60ff9161166a565b9181191691161790565b61169961169461169e926101e8565b611090565b6101e8565b90565b90565b906116b96116b46116c092611685565b6116a1565b825461166f565b9055565b6116ce6060610404565b90565b906116db90610529565b9052565b906116e990610542565b9052565b90565b6117046116ff611709926116ed565b611090565b6101e8565b90565b61171861171e916101e8565b916101e8565b90039060ff821161172b57565b61163a565b61174461173f611749926101e8565b611090565b610144565b90565b61175590610364565b90565b906117629061174c565b5f5260205260405f2090565b634e487b7160e01b5f525f60045260245ffd5b61178b9051610529565b90565b9061179f60018060a01b039161166a565b9181191691161790565b6117b2906110af565b90565b90565b906117cd6117c86117d4926117a9565b6117b5565b825461178e565b9055565b6117e29051610542565b90565b60a01b90565b906117fa60ff60a01b916117e5565b9181191691161790565b61180d90610542565b90565b90565b9061182861182361182f92611804565b611810565b82546117eb565b9055565b5190565b601f602091010490565b1b90565b9190600861186091029161185a5f1984611841565b92611841565b9181191691161790565b61187e61187961188392610144565b611090565b610144565b90565b90565b919061189f61189a6118a79361186a565b611886565b908354611845565b9055565b5f90565b6118c1916118bb6118ab565b91611889565b565b5b8181106118cf575050565b806118dc5f6001936118af565b016118c4565b9190601f81116118f2575b505050565b6118fe611923936108a6565b90602061190a84611837565b8301931061192b575b61191c90611837565b01906118c3565b5f80806118ed565b915061191c81929050611913565b90611949905f199060080261104c565b191690565b8161195891611939565b906002021790565b9061196a81610195565b9067ffffffffffffffff8211611a2a5761198e82611988855461087c565b856118e2565b602090601f83116001146119c2579180916119b1935f926119b6575b505061194e565b90555b565b90915001515f806119aa565b601f198316916119d1856108a6565b925f5b818110611a12575091600293918560019694106119f8575b505050020190556119b4565b611a08910151601f841690611939565b90555f80806119ec565b919360206001819287870151815501950192016119d4565b6103c7565b90611a3991611960565b565b90611a7e60406001611a8494611a5e5f8201611a585f8801611781565b906117b8565b611a765f8201611a70602088016117d8565b90611813565b019201611833565b90611a2f565b565b90611a9091611a3b565b565b611aa7611aa160028390610817565b50611379565b90611acf611ab7600684016109d2565b611ac9611ac35f61021e565b9161021e565b146113d5565b611af6611ade6005840161085b565b611af0611aea42610144565b91610144565b11611457565b611b28611b0560038401610984565b611b22611b1c611b17600387016109ab565b6101e8565b916101e8565b106114d9565b611b3a611b356001611516565b6110bb565b9060206323b872dd923390611b765f611b5230611523565b96611b81611b6260028b0161085b565b611b6a610132565b998a978896879561152f565b855260048501611576565b03925af18015611c6d57611c3d94611ba7611c3292611c38955f91611c3f575b50611611565b611bc560038601611bbf611bba82610984565b61164e565b906116a4565b611bf43391611beb5f611be2611bd96116c4565b955f87016116d1565b602085016116df565b604083016111c8565b9360049290611c2c611c27611c176003611c106004860161085b565b9401610984565b611c2160016116f0565b9061170c565b611730565b91612a39565b90611758565b611a86565b565b611c60915060203d8111611c66575b611c5881836103db565b810190611558565b5f611ba1565b503d611c4e565b6115a8565b611c7c60a0610404565b90565b611c896060610404565b90565b5f90565b5f90565b611c9c611c7f565b906020808084611caa611c8c565b815201611cb5611c90565b815201611cc0611134565b81525050565b611cce611c94565b90565b611cd9611c72565b9060208080808086611ce9611cc6565b815201611cf4611130565b815201611cff611cc6565b815201611d0a611130565b815201611d1561113d565b81525050565b611d23611cd1565b90565b90611d309061174c565b5f5260205260405f2090565b60018060a01b031690565b611d53611d589161083f565b611d3c565b90565b611d659054611d47565b90565b60a01c90565b60ff1690565b611d80611d8591611d68565b611d6e565b90565b611d929054611d74565b90565b90611de3611dda6001611da6611c7f565b94611dbd611db55f8301611d5b565b5f88016116d1565b611dd4611dcb5f8301611d88565b602088016116df565b01610948565b604084016111c8565b565b52565b90611e67611e5e6006611df9611c72565b94611e10611e085f8301611d95565b5f8801611de5565b611e28611e1f6002830161085b565b602088016111ba565b611e40611e3760038301611d95565b60408801611de5565b611e58611e4f6005830161085b565b606088016111ba565b016109d2565b608084016111d9565b565b611e7290611de8565b90565b611e94611e9a92611e9f94611e88611d1b565b5060039391909161132d565b90611d26565b611e69565b90565b90565b90565b611ebc611eb7611ec192611ea5565b611090565b6101e8565b90565b634e487b7160e01b5f52601260045260245ffd5b611ee4611eea916101e8565b916101e8565b908115611ef5570490565b611ec4565b611f05610100610404565b90565b5f5260205f2090565b5490565b611f1e81611f11565b821015611f3857611f30600791611f08565b910201905f90565b6107f6565b611f479051610144565b90565b90611f565f199161166a565b9181191691161790565b90611f75611f70611f7c9261186a565b611886565b8254611f4a565b9055565b611f8a90516101e8565b90565b60081b90565b90611fa061ff0091611f8d565b9181191691161790565b90611fbf611fba611fc692611685565b6116a1565b8254611f93565b9055565b611fd4905161021e565b90565b611fe09061021e565b90565b90565b90611ffb611ff661200292611fd7565b611fe3565b825461166f565b9055565b906120c760e060066120cd946120295f82016120235f8801611f3d565b90611f60565b6120426001820161203c60208801611833565b90611a2f565b61205b6002820161205560408801611f3d565b90611f60565b6120746003820161206e60608801611f80565b906116a4565b61208d6003820161208760808801611f80565b90611faa565b6120a6600482016120a060a08801611f3d565b90611f60565b6120bf600582016120b960c08801611f3d565b90611f60565b019201611fca565b90611fe6565b565b91906120e0576120de91612006565b565b61176e565b9081549168010000000000000000831015612115578261210d91600161211395018155611f15565b906120cf565b565b6103c7565b61212e612129612133926116ed565b611090565b610144565b90565b61214561214b91939293610144565b92610144565b820391821161215657565b61163a565b90565b61217261216d6121779261215b565b611090565b610144565b90565b909392919361219161218c6001611516565b6110bb565b60206323b872dd9133906121c15f6121a830611523565b956121cc886121b5610132565b9889978896879561152f565b855260048501611576565b03925af18015612380576121e7915f91612352575b50611611565b60026121f290611ea2565b9260026121fe9061080a565b9291906001879088600261221190611ea8565b61221a91611ed8565b92935f95612226611efa565b975f890190612234916111ba565b6020880190612242916111c8565b6040870190612250916111ba565b612259906116f0565b6060860190612267916111cb565b6080850190612275916111cb565b61227e90611730565b60a084019061228c916111ba565b60c083019061229a916111ba565b60e08201906122a8916111d9565b6122b1916120e5565b33905f6122bc6116c4565b925f8401906122ca916116d1565b60208301906122d8916116df565b60408201906122e6916111c8565b9060049060026122f59061080a565b60016123009061211a565b61230991612136565b90600261231590611ea8565b61231e91611ed8565b5f9061232990611730565b906123339061215e565b9061233d92612a39565b61234691611758565b9061235091611a86565b565b612373915060203d8111612379575b61236b81836103db565b810190611558565b5f6121e1565b503d612361565b6115a8565b61239961239461239e92610729565b611090565b610144565b90565b90565b5f7f746f75726e616d656e742069736e277420657870697265640000000000000000910152565b6123d86018602092610a76565b6123e1816123a4565b0190565b6123fa9060208101905f8183039101526123cb565b90565b1561240457565b61240c610132565b62461bcd60e51b815280612422600482016123e5565b0390fd5b5f7f7573657220616c726561647920636c61696d656420726566756e640000000000910152565b61245a601b602092610a76565b61246381612426565b0190565b61247c9060208101905f81830391015261244d565b90565b1561248657565b61248e610132565b62461bcd60e51b8152806124a460048201612467565b0390fd5b9160206124c99294936124c260408201965f830190610b86565b0190610a69565b565b61251861251361256d9261250d6124ed6124e760028490610817565b506112b0565b956004929061250761250160a08a01611f3d565b91612385565b91612a39565b90611758565b6123a1565b61252460e08401611fca565b612537612531600361021e565b9161021e565b14806125ff575b612547906123fd565b61256361255e6125585f8401611d88565b15610542565b61247f565b5f60019101611813565b602061258161257c6001611516565b6110bb565b9163a9059cbb926125b15f6125996040339501611f3d565b956125bc6125a5610132565b9788968795869461152f565b8452600484016124a8565b03925af180156125fa576125ce575b50565b6125ee9060203d81116125f3575b6125e681836103db565b810190611558565b6125cb565b503d6125dc565b6115a8565b5061254761260f60c08501611f3d565b61262161261b42610144565b91610144565b10905061253e565b612631612b2f565b612639612663565b565b61264f61264a6126549261215b565b611090565b61051e565b90565b6126609061263b565b90565b61267461266f5f612657565b612b7d565b565b61267e612629565b565b5f90565b61268c612680565b506126965f611d5b565b90565b906126ac92916126a7612b2f565b6127b6565b565b6126c26126bd6126c792611ea5565b611090565b610144565b90565b6126d96126df91939293610144565b92610144565b82018092116126ea57565b61163a565b5090565b6126fc90611d95565b90565b61270960a0610404565b90565b5190565b906127866080600661278c946127335f820161272d5f880161270c565b90611a86565b61274c6002820161274660208801611f3d565b90611f60565b6127656003820161275f6040880161270c565b90611a86565b61277e6005820161277860608801611f3d565b90611f60565b019201611fca565b90611fe6565b565b9061279891612710565b565b6127a390610144565b5f1981146127b15760010190565b61163a565b9290926127ce6127c860028390610817565b50611379565b916127dd600160068501611fe6565b6127e65f61215e565b946127f05f61215e565b955b8661280f612809612804858a906126ef565b610144565b91610144565b10156129345761280961280461292a61291961280f946129148c61290f8b6129098e61285b6128566004612850866128496004870161085b565b8a91612a39565b90611758565b6126f3565b6128f261289b6128966004612890886128766004890161085b565b61288a8d612884600161211a565b906126ca565b91612a39565b90611758565b6126f3565b6128e96128e05f926128db5f916128d26128c95f976128c46128bb6126ff565b9b5f8d01611de5565b61215e565b60208a016111ba565b60408801611de5565b61215e565b606085016111ba565b608083016111d9565b946129026004600395930161085b565b909161132d565b90611d26565b61278e565b61279a565b9961292460026126ae565b906126ca565b98925050506127f2565b50509350505050565b906129489291612699565b565b600661296361295d612969946002610817565b50611379565b01611fe6565b565b6129736118ab565b5061297e600261080a565b90565b612989611c94565b90565b6129bb6129c1926129c69461299f612981565b506129b56129af60049593611730565b91612385565b91612a39565b90611758565b6126f3565b90565b6129da906129d5612b2f565b6129dc565b565b806129f76129f16129ec5f612657565b610529565b91610529565b14612a0757612a0590612b7d565b565b612a2a612a135f612657565b5f918291631e4fbdf760e01b835260048301610b93565b0390fd5b612a37906129c9565b565b90612a60612a6f92612a496112dc565b509193612a54610132565b948593602085016112f8565b602082018103825203826103db565b612a81612a7b82611329565b91611323565b2090565b606090565b67ffffffffffffffff8111612aa25760208091020190565b6103c7565b90612ab9612ab483612a8a565b610404565b918252565b90612ac88261080a565b612ad181612aa7565b92612adf602085019161080e565b5f915b838310612aef5750505050565b60076020600192612aff856112b0565b815201920192019190612ae2565b612b1690612abe565b90565b612b21612a85565b50612b2c6002612b0d565b90565b612b37612684565b612b50612b4a612b45612bdc565b610529565b91610529565b03612b5757565b612b79612b62612bdc565b5f91829163118cdaa760e01b835260048301610b93565b0390fd5b612b865f611d5b565b612b90825f6117b8565b90612bc4612bbe7f8be0079c531659141344cd1fd0a4f28419497f9722a3daafe3b4186f6b6457e0936117a9565b916117a9565b91612bcd610132565b80612bd7816104e5565b0390a3565b612be4612680565b50339056fea2646970667358221220c83f455d94ce8cfe906c5f42e7cb782c1ef797c4c7472ff86a368b761056702064736f6c634300081c0033","opcodes":"PUSH1 0x80 PUSH1 0x40 MSTORE CALLVALUE PUSH2 0x2F JUMPI PUSH2 0x19 PUSH2 0x14 PUSH2 0xF4 JUMP JUMPDEST PUSH2 0x19B JUMP JUMPDEST PUSH2 0x21 PUSH2 0x34 JUMP JUMPDEST PUSH2 0x2C1F PUSH2 0x329 DUP3 CODECOPY PUSH2 0x2C1F SWAP1 RETURN JUMPDEST PUSH2 0x3A JUMP JUMPDEST PUSH1 0x40 MLOAD SWAP1 JUMP JUMPDEST PUSH0 DUP1 REVERT JUMPDEST PUSH1 0x1F DUP1 NOT SWAP2 ADD AND SWAP1 JUMP JUMPDEST PUSH4 0x4E487B71 PUSH1 0xE0 SHL PUSH0 MSTORE PUSH1 0x41 PUSH1 0x4 MSTORE PUSH1 0x24 PUSH0 REVERT JUMPDEST SWAP1 PUSH2 0x66 SWAP1 PUSH2 0x3E JUMP JUMPDEST DUP2 ADD SWAP1 DUP2 LT PUSH1 0x1 DUP1 PUSH1 0x40 SHL SUB DUP3 GT OR PUSH2 0x7E JUMPI PUSH1 0x40 MSTORE JUMP JUMPDEST PUSH2 0x48 JUMP JUMPDEST SWAP1 PUSH2 0x96 PUSH2 0x8F PUSH2 0x34 JUMP JUMPDEST SWAP3 DUP4 PUSH2 0x5C JUMP JUMPDEST JUMP JUMPDEST PUSH0 DUP1 REVERT JUMPDEST PUSH1 0x1 DUP1 PUSH1 0xA0 SHL SUB AND SWAP1 JUMP JUMPDEST PUSH2 0xB0 SWAP1 PUSH2 0x9C JUMP JUMPDEST SWAP1 JUMP JUMPDEST PUSH2 0xBC DUP2 PUSH2 0xA7 JUMP JUMPDEST SUB PUSH2 0xC3 JUMPI JUMP JUMPDEST PUSH0 DUP1 REVERT JUMPDEST SWAP1 POP MLOAD SWAP1 PUSH2 0xD4 DUP3 PUSH2 0xB3 JUMP JUMPDEST JUMP JUMPDEST SWAP1 PUSH1 0x20 DUP3 DUP3 SUB SLT PUSH2 0xEF JUMPI PUSH2 0xEC SWAP2 PUSH0 ADD PUSH2 0xC7 JUMP JUMPDEST SWAP1 JUMP JUMPDEST PUSH2 0x98 JUMP JUMPDEST PUSH2 0x112 PUSH2 0x2F48 DUP1 CODESIZE SUB DUP1 PUSH2 0x107 DUP2 PUSH2 0x83 JUMP JUMPDEST SWAP3 DUP4 CODECOPY DUP2 ADD SWAP1 PUSH2 0xD6 JUMP JUMPDEST SWAP1 JUMP JUMPDEST SWAP1 JUMP JUMPDEST PUSH2 0x12C PUSH2 0x127 PUSH2 0x131 SWAP3 PUSH2 0x9C JUMP JUMPDEST PUSH2 0x115 JUMP JUMPDEST PUSH2 0x9C JUMP JUMPDEST SWAP1 JUMP JUMPDEST PUSH2 0x13D SWAP1 PUSH2 0x118 JUMP JUMPDEST SWAP1 JUMP JUMPDEST PUSH2 0x149 SWAP1 PUSH2 0x134 JUMP JUMPDEST SWAP1 JUMP JUMPDEST PUSH0 SHL SWAP1 JUMP JUMPDEST SWAP1 PUSH2 0x162 PUSH1 0x1 DUP1 PUSH1 0xA0 SHL SUB SWAP2 PUSH2 0x14C JUMP JUMPDEST SWAP2 DUP2 NOT AND SWAP2 AND OR SWAP1 JUMP JUMPDEST PUSH2 0x175 SWAP1 PUSH2 0x134 JUMP JUMPDEST SWAP1 JUMP JUMPDEST SWAP1 JUMP JUMPDEST SWAP1 PUSH2 0x190 PUSH2 0x18B PUSH2 0x197 SWAP3 PUSH2 0x16C JUMP JUMPDEST PUSH2 0x178 JUMP JUMPDEST DUP3 SLOAD PUSH2 0x151 JUMP JUMPDEST SWAP1 SSTORE JUMP JUMPDEST PUSH2 0x1B0 PUSH2 0x1B7 SWAP2 PUSH2 0x1AB CALLER PUSH2 0x206 JUMP JUMPDEST PUSH2 0x140 JUMP JUMPDEST PUSH1 0x1 PUSH2 0x17B JUMP JUMPDEST JUMP JUMPDEST SWAP1 JUMP JUMPDEST PUSH2 0x1D0 PUSH2 0x1CB PUSH2 0x1D5 SWAP3 PUSH2 0x1B9 JUMP JUMPDEST PUSH2 0x115 JUMP JUMPDEST PUSH2 0x9C JUMP JUMPDEST SWAP1 JUMP JUMPDEST PUSH2 0x1E1 SWAP1 PUSH2 0x1BC JUMP JUMPDEST SWAP1 JUMP JUMPDEST PUSH2 0x1ED SWAP1 PUSH2 0xA7 JUMP JUMPDEST SWAP1 MSTORE JUMP JUMPDEST SWAP2 SWAP1 PUSH2 0x204 SWAP1 PUSH0 PUSH1 0x20 DUP6 ADD SWAP5 ADD SWAP1 PUSH2 0x1E4 JUMP JUMPDEST JUMP JUMPDEST DUP1 PUSH2 0x221 PUSH2 0x21B PUSH2 0x216 PUSH0 PUSH2 0x1D8 JUMP JUMPDEST PUSH2 0xA7 JUMP JUMPDEST SWAP2 PUSH2 0xA7 JUMP JUMPDEST EQ PUSH2 0x231 JUMPI PUSH2 0x22F SWAP1 PUSH2 0x2C9 JUMP JUMPDEST JUMP JUMPDEST PUSH2 0x254 PUSH2 0x23D PUSH0 PUSH2 0x1D8 JUMP JUMPDEST PUSH0 SWAP2 DUP3 SWAP2 PUSH4 0x1E4FBDF7 PUSH1 0xE0 SHL DUP4 MSTORE PUSH1 0x4 DUP4 ADD PUSH2 0x1F1 JUMP JUMPDEST SUB SWAP1 REVERT JUMPDEST PUSH0 SHR SWAP1 JUMP JUMPDEST PUSH1 0x1 DUP1 PUSH1 0xA0 SHL SUB AND SWAP1 JUMP JUMPDEST PUSH2 0x274 PUSH2 0x279 SWAP2 PUSH2 0x258 JUMP JUMPDEST PUSH2 0x25D JUMP JUMPDEST SWAP1 JUMP JUMPDEST PUSH2 0x286 SWAP1 SLOAD PUSH2 0x268 JUMP JUMPDEST SWAP1 JUMP JUMPDEST PUSH2 0x292 SWAP1 PUSH2 0x118 JUMP JUMPDEST SWAP1 JUMP JUMPDEST PUSH2 0x29E SWAP1 PUSH2 0x289 JUMP JUMPDEST SWAP1 JUMP JUMPDEST SWAP1 JUMP JUMPDEST SWAP1 PUSH2 0x2B9 PUSH2 0x2B4 PUSH2 0x2C0 SWAP3 PUSH2 0x295 JUMP JUMPDEST PUSH2 0x2A1 JUMP JUMPDEST DUP3 SLOAD PUSH2 0x151 JUMP JUMPDEST SWAP1 SSTORE JUMP JUMPDEST PUSH0 ADD SWAP1 JUMP JUMPDEST PUSH2 0x2D2 PUSH0 PUSH2 0x27C JUMP JUMPDEST PUSH2 0x2DC DUP3 PUSH0 PUSH2 0x2A4 JUMP JUMPDEST SWAP1 PUSH2 0x310 PUSH2 0x30A PUSH32 0x8BE0079C531659141344CD1FD0A4F28419497F9722A3DAAFE3B4186F6B6457E0 SWAP4 PUSH2 0x295 JUMP JUMPDEST SWAP2 PUSH2 0x295 JUMP JUMPDEST SWAP2 PUSH2 0x319 PUSH2 0x34 JUMP JUMPDEST DUP1 PUSH2 0x323 DUP2 PUSH2 0x2C4 JUMP JUMPDEST SUB SWAP1 LOG3 JUMP INVALID PUSH1 0x80 PUSH1 0x40 MSTORE PUSH1 0x4 CALLDATASIZE LT ISZERO PUSH2 0x13 JUMPI JUMPDEST PUSH2 0x111E JUMP JUMPDEST PUSH2 0x1D PUSH0 CALLDATALOAD PUSH2 0x12C JUMP JUMPDEST DUP1 PUSH4 0x1A5BD7FC EQ PUSH2 0x127 JUMPI DUP1 PUSH4 0x1BD9103B EQ PUSH2 0x122 JUMPI DUP1 PUSH4 0x22654955 EQ PUSH2 0x11D JUMPI DUP1 PUSH4 0x2C542B88 EQ PUSH2 0x118 JUMPI DUP1 PUSH4 0x43D2F8DD EQ PUSH2 0x113 JUMPI DUP1 PUSH4 0x51C33034 EQ PUSH2 0x10E JUMPI DUP1 PUSH4 0x715018A6 EQ PUSH2 0x109 JUMPI DUP1 PUSH4 0x7503E1B7 EQ PUSH2 0x104 JUMPI DUP1 PUSH4 0x8DA5CB5B EQ PUSH2 0xFF JUMPI DUP1 PUSH4 0x9D5D40FB EQ PUSH2 0xFA JUMPI DUP1 PUSH4 0xBF14C887 EQ PUSH2 0xF5 JUMPI DUP1 PUSH4 0xC1DEEF52 EQ PUSH2 0xF0 JUMPI DUP1 PUSH4 0xD670C0C7 EQ PUSH2 0xEB JUMPI DUP1 PUSH4 0xF2FDE38B EQ PUSH2 0xE6 JUMPI DUP1 PUSH4 0xF4716DF2 EQ PUSH2 0xE1 JUMPI DUP1 PUSH4 0xF7F20CB3 EQ PUSH2 0xDC JUMPI PUSH4 0xFC0C546A SUB PUSH2 0xE JUMPI PUSH2 0x10E9 JUMP JUMPDEST PUSH2 0x1017 JUMP JUMPDEST PUSH2 0xEA2 JUMP JUMPDEST PUSH2 0xE6F JUMP JUMPDEST PUSH2 0xDF8 JUMP JUMPDEST PUSH2 0xD31 JUMP JUMPDEST PUSH2 0xCE8 JUMP JUMPDEST PUSH2 0xC6A JUMP JUMPDEST PUSH2 0xBA8 JUMP JUMPDEST PUSH2 0xB47 JUMP JUMPDEST PUSH2 0x7C3 JUMP JUMPDEST PUSH2 0x780 JUMP JUMPDEST PUSH2 0x6F2 JUMP JUMPDEST PUSH2 0x612 JUMP JUMPDEST PUSH2 0x4EA JUMP JUMPDEST PUSH2 0x389 JUMP JUMPDEST PUSH2 0x2F5 JUMP JUMPDEST PUSH1 0xE0 SHR SWAP1 JUMP JUMPDEST PUSH1 0x40 MLOAD SWAP1 JUMP JUMPDEST PUSH0 DUP1 REVERT JUMPDEST PUSH0 DUP1 REVERT JUMPDEST PUSH0 DUP1 REVERT JUMPDEST SWAP1 JUMP JUMPDEST PUSH2 0x150 DUP2 PUSH2 0x144 JUMP JUMPDEST SUB PUSH2 0x157 JUMPI JUMP JUMPDEST PUSH0 DUP1 REVERT JUMPDEST SWAP1 POP CALLDATALOAD SWAP1 PUSH2 0x168 DUP3 PUSH2 0x147 JUMP JUMPDEST JUMP JUMPDEST SWAP1 PUSH1 0x20 DUP3 DUP3 SUB SLT PUSH2 0x183 JUMPI PUSH2 0x180 SWAP2 PUSH0 ADD PUSH2 0x15B JUMP JUMPDEST SWAP1 JUMP JUMPDEST PUSH2 0x13C JUMP JUMPDEST PUSH2 0x191 SWAP1 PUSH2 0x144 JUMP JUMPDEST SWAP1 MSTORE JUMP JUMPDEST MLOAD SWAP1 JUMP JUMPDEST PUSH1 0x20 SWAP2 DUP2 MSTORE ADD SWAP1 JUMP JUMPDEST SWAP1 DUP3 PUSH0 SWAP4 SWAP3 DUP3 MCOPY ADD MSTORE JUMP JUMPDEST PUSH1 0x1F DUP1 NOT SWAP2 ADD AND SWAP1 JUMP JUMPDEST PUSH2 0x1D6 PUSH2 0x1DF PUSH1 0x20 SWAP4 PUSH2 0x1E4 SWAP4 PUSH2 0x1CD DUP2 PUSH2 0x195 JUMP JUMPDEST SWAP4 DUP5 DUP1 SWAP4 PUSH2 0x199 JUMP JUMPDEST SWAP6 DUP7 SWAP2 ADD PUSH2 0x1A2 JUMP JUMPDEST PUSH2 0x1AD JUMP JUMPDEST ADD SWAP1 JUMP JUMPDEST PUSH1 0xFF AND SWAP1 JUMP JUMPDEST PUSH2 0x1F7 SWAP1 PUSH2 0x1E8 JUMP JUMPDEST SWAP1 MSTORE JUMP JUMPDEST PUSH4 0x4E487B71 PUSH1 0xE0 SHL PUSH0 MSTORE PUSH1 0x21 PUSH1 0x4 MSTORE PUSH1 0x24 PUSH0 REVERT JUMPDEST PUSH1 0x4 GT ISZERO PUSH2 0x219 JUMPI JUMP JUMPDEST PUSH2 0x1FB JUMP JUMPDEST SWAP1 PUSH2 0x228 DUP3 PUSH2 0x20F JUMP JUMPDEST JUMP JUMPDEST PUSH2 0x233 SWAP1 PUSH2 0x21E JUMP JUMPDEST SWAP1 JUMP JUMPDEST PUSH2 0x23F SWAP1 PUSH2 0x22A JUMP JUMPDEST SWAP1 MSTORE JUMP JUMPDEST SWAP1 PUSH2 0x2DA SWAP1 PUSH1 0xE0 DUP1 PUSH2 0x275 PUSH2 0x100 DUP5 ADD PUSH2 0x263 PUSH0 DUP9 ADD MLOAD PUSH0 DUP8 ADD SWAP1 PUSH2 0x188 JUMP JUMPDEST PUSH1 0x20 DUP8 ADD MLOAD DUP6 DUP3 SUB PUSH1 0x20 DUP8 ADD MSTORE PUSH2 0x1B7 JUMP JUMPDEST SWAP5 PUSH2 0x288 PUSH1 0x40 DUP3 ADD MLOAD PUSH1 0x40 DUP7 ADD SWAP1 PUSH2 0x188 JUMP JUMPDEST PUSH2 0x29A PUSH1 0x60 DUP3 ADD MLOAD PUSH1 0x60 DUP7 ADD SWAP1 PUSH2 0x1EE JUMP JUMPDEST PUSH2 0x2AC PUSH1 0x80 DUP3 ADD MLOAD PUSH1 0x80 DUP7 ADD SWAP1 PUSH2 0x1EE JUMP JUMPDEST PUSH2 0x2BE PUSH1 0xA0 DUP3 ADD MLOAD PUSH1 0xA0 DUP7 ADD SWAP1 PUSH2 0x188 JUMP JUMPDEST PUSH2 0x2D0 PUSH1 0xC0 DUP3 ADD MLOAD PUSH1 0xC0 DUP7 ADD SWAP1 PUSH2 0x188 JUMP JUMPDEST ADD MLOAD SWAP2 ADD SWAP1 PUSH2 0x236 JUMP JUMPDEST SWAP1 JUMP JUMPDEST PUSH2 0x2F2 SWAP2 PUSH1 0x20 DUP3 ADD SWAP2 PUSH0 DUP2 DUP5 SUB SWAP2 ADD MSTORE PUSH2 0x243 JUMP JUMPDEST SWAP1 JUMP JUMPDEST CALLVALUE PUSH2 0x325 JUMPI PUSH2 0x321 PUSH2 0x310 PUSH2 0x30B CALLDATASIZE PUSH1 0x4 PUSH2 0x16A JUMP JUMPDEST PUSH2 0x12BC JUMP JUMPDEST PUSH2 0x318 PUSH2 0x132 JUMP JUMPDEST SWAP2 DUP3 SWAP2 DUP3 PUSH2 0x2DD JUMP JUMPDEST SUB SWAP1 RETURN JUMPDEST PUSH2 0x138 JUMP JUMPDEST SWAP1 SWAP2 PUSH1 0x60 DUP3 DUP5 SUB SLT PUSH2 0x35F JUMPI PUSH2 0x35C PUSH2 0x345 DUP5 PUSH0 DUP6 ADD PUSH2 0x15B JUMP JUMPDEST SWAP4 PUSH2 0x353 DUP2 PUSH1 0x20 DUP7 ADD PUSH2 0x15B JUMP JUMPDEST SWAP4 PUSH1 0x40 ADD PUSH2 0x15B JUMP JUMPDEST SWAP1 JUMP JUMPDEST PUSH2 0x13C JUMP JUMPDEST SWAP1 JUMP JUMPDEST PUSH2 0x370 SWAP1 PUSH2 0x364 JUMP JUMPDEST SWAP1 MSTORE JUMP JUMPDEST SWAP2 SWAP1 PUSH2 0x387 SWAP1 PUSH0 PUSH1 0x20 DUP6 ADD SWAP5 ADD SWAP1 PUSH2 0x367 JUMP JUMPDEST JUMP JUMPDEST CALLVALUE PUSH2 0x3BA JUMPI PUSH2 0x3B6 PUSH2 0x3A5 PUSH2 0x39F CALLDATASIZE PUSH1 0x4 PUSH2 0x32A JUMP JUMPDEST SWAP2 PUSH2 0x132D JUMP JUMPDEST PUSH2 0x3AD PUSH2 0x132 JUMP JUMPDEST SWAP2 DUP3 SWAP2 DUP3 PUSH2 0x374 JUMP JUMPDEST SUB SWAP1 RETURN JUMPDEST PUSH2 0x138 JUMP JUMPDEST PUSH0 DUP1 REVERT JUMPDEST PUSH0 DUP1 REVERT JUMPDEST PUSH4 0x4E487B71 PUSH1 0xE0 SHL PUSH0 MSTORE PUSH1 0x41 PUSH1 0x4 MSTORE PUSH1 0x24 PUSH0 REVERT JUMPDEST SWAP1 PUSH2 0x3E5 SWAP1 PUSH2 0x1AD JUMP JUMPDEST DUP2 ADD SWAP1 DUP2 LT PUSH8 0xFFFFFFFFFFFFFFFF DUP3 GT OR PUSH2 0x3FF JUMPI PUSH1 0x40 MSTORE JUMP JUMPDEST PUSH2 0x3C7 JUMP JUMPDEST SWAP1 PUSH2 0x417 PUSH2 0x410 PUSH2 0x132 JUMP JUMPDEST SWAP3 DUP4 PUSH2 0x3DB JUMP JUMPDEST JUMP JUMPDEST PUSH8 0xFFFFFFFFFFFFFFFF DUP2 GT PUSH2 0x437 JUMPI PUSH2 0x433 PUSH1 0x20 SWAP2 PUSH2 0x1AD JUMP JUMPDEST ADD SWAP1 JUMP JUMPDEST PUSH2 0x3C7 JUMP JUMPDEST SWAP1 DUP3 PUSH0 SWAP4 SWAP3 DUP3 CALLDATACOPY ADD MSTORE JUMP JUMPDEST SWAP1 SWAP3 SWAP2 SWAP3 PUSH2 0x45C PUSH2 0x457 DUP3 PUSH2 0x419 JUMP JUMPDEST PUSH2 0x404 JUMP JUMPDEST SWAP4 DUP2 DUP6 MSTORE PUSH1 0x20 DUP6 ADD SWAP1 DUP3 DUP5 ADD GT PUSH2 0x478 JUMPI PUSH2 0x476 SWAP3 PUSH2 0x43C JUMP JUMPDEST JUMP JUMPDEST PUSH2 0x3C3 JUMP JUMPDEST SWAP1 DUP1 PUSH1 0x1F DUP4 ADD SLT ISZERO PUSH2 0x49B JUMPI DUP2 PUSH1 0x20 PUSH2 0x498 SWAP4 CALLDATALOAD SWAP2 ADD PUSH2 0x447 JUMP JUMPDEST SWAP1 JUMP JUMPDEST PUSH2 0x3BF JUMP JUMPDEST SWAP2 SWAP1 SWAP2 PUSH1 0x40 DUP2 DUP5 SUB SLT PUSH2 0x4E0 JUMPI PUSH2 0x4B9 DUP4 PUSH0 DUP4 ADD PUSH2 0x15B JUMP JUMPDEST SWAP3 PUSH1 0x20 DUP3 ADD CALLDATALOAD PUSH8 0xFFFFFFFFFFFFFFFF DUP2 GT PUSH2 0x4DB JUMPI PUSH2 0x4D8 SWAP3 ADD PUSH2 0x47D JUMP JUMPDEST SWAP1 JUMP JUMPDEST PUSH2 0x140 JUMP JUMPDEST PUSH2 0x13C JUMP JUMPDEST PUSH0 ADD SWAP1 JUMP JUMPDEST CALLVALUE PUSH2 0x519 JUMPI PUSH2 0x503 PUSH2 0x4FD CALLDATASIZE PUSH1 0x4 PUSH2 0x4A0 JUMP JUMPDEST SWAP1 PUSH2 0x1A92 JUMP JUMPDEST PUSH2 0x50B PUSH2 0x132 JUMP JUMPDEST DUP1 PUSH2 0x515 DUP2 PUSH2 0x4E5 JUMP JUMPDEST SUB SWAP1 RETURN JUMPDEST PUSH2 0x138 JUMP JUMPDEST PUSH1 0x1 DUP1 PUSH1 0xA0 SHL SUB AND SWAP1 JUMP JUMPDEST PUSH2 0x532 SWAP1 PUSH2 0x51E JUMP JUMPDEST SWAP1 JUMP JUMPDEST PUSH2 0x53E SWAP1 PUSH2 0x529 JUMP JUMPDEST SWAP1 MSTORE JUMP JUMPDEST ISZERO ISZERO SWAP1 JUMP JUMPDEST PUSH2 0x550 SWAP1 PUSH2 0x542 JUMP JUMPDEST SWAP1 MSTORE JUMP JUMPDEST PUSH2 0x591 SWAP2 PUSH1 0x40 PUSH1 0x60 DUP3 ADD SWAP3 PUSH2 0x56F PUSH0 DUP3 ADD MLOAD PUSH0 DUP6 ADD SWAP1 PUSH2 0x535 JUMP JUMPDEST PUSH2 0x581 PUSH1 0x20 DUP3 ADD MLOAD PUSH1 0x20 DUP6 ADD SWAP1 PUSH2 0x547 JUMP JUMPDEST ADD MLOAD SWAP1 PUSH1 0x40 DUP2 DUP5 SUB SWAP2 ADD MSTORE PUSH2 0x1B7 JUMP JUMPDEST SWAP1 JUMP JUMPDEST SWAP1 PUSH2 0x5F7 SWAP1 PUSH1 0x80 DUP1 PUSH2 0x5DA PUSH2 0x5B6 PUSH1 0xA0 DUP6 ADD PUSH0 DUP9 ADD MLOAD DUP7 DUP3 SUB PUSH0 DUP9 ADD MSTORE PUSH2 0x554 JUMP JUMPDEST PUSH2 0x5C8 PUSH1 0x20 DUP9 ADD MLOAD PUSH1 0x20 DUP8 ADD SWAP1 PUSH2 0x188 JUMP JUMPDEST PUSH1 0x40 DUP8 ADD MLOAD DUP6 DUP3 SUB PUSH1 0x40 DUP8 ADD MSTORE PUSH2 0x554 JUMP JUMPDEST SWAP5 PUSH2 0x5ED PUSH1 0x60 DUP3 ADD MLOAD PUSH1 0x60 DUP7 ADD SWAP1 PUSH2 0x188 JUMP JUMPDEST ADD MLOAD SWAP2 ADD SWAP1 PUSH2 0x236 JUMP JUMPDEST SWAP1 JUMP JUMPDEST PUSH2 0x60F SWAP2 PUSH1 0x20 DUP3 ADD SWAP2 PUSH0 DUP2 DUP5 SUB SWAP2 ADD MSTORE PUSH2 0x594 JUMP JUMPDEST SWAP1 JUMP JUMPDEST CALLVALUE PUSH2 0x643 JUMPI PUSH2 0x63F PUSH2 0x62E PUSH2 0x628 CALLDATASIZE PUSH1 0x4 PUSH2 0x32A JUMP JUMPDEST SWAP2 PUSH2 0x1E75 JUMP JUMPDEST PUSH2 0x636 PUSH2 0x132 JUMP JUMPDEST SWAP2 DUP3 SWAP2 DUP3 PUSH2 0x5FA JUMP JUMPDEST SUB SWAP1 RETURN JUMPDEST PUSH2 0x138 JUMP JUMPDEST PUSH2 0x651 DUP2 PUSH2 0x1E8 JUMP JUMPDEST SUB PUSH2 0x658 JUMPI JUMP JUMPDEST PUSH0 DUP1 REVERT JUMPDEST SWAP1 POP CALLDATALOAD SWAP1 PUSH2 0x669 DUP3 PUSH2 0x648 JUMP JUMPDEST JUMP JUMPDEST SWAP2 SWAP1 SWAP2 PUSH1 0xA0 DUP2 DUP5 SUB SLT PUSH2 0x6ED JUMPI PUSH0 DUP2 ADD CALLDATALOAD PUSH8 0xFFFFFFFFFFFFFFFF DUP2 GT PUSH2 0x6E8 JUMPI DUP4 PUSH2 0x697 SWAP2 DUP4 ADD PUSH2 0x47D JUMP JUMPDEST SWAP3 PUSH2 0x6A5 DUP2 PUSH1 0x20 DUP5 ADD PUSH2 0x15B JUMP JUMPDEST SWAP3 PUSH2 0x6B3 DUP3 PUSH1 0x40 DUP6 ADD PUSH2 0x65C JUMP JUMPDEST SWAP3 PUSH2 0x6C1 DUP4 PUSH1 0x60 DUP4 ADD PUSH2 0x15B JUMP JUMPDEST SWAP3 PUSH1 0x80 DUP3 ADD CALLDATALOAD PUSH8 0xFFFFFFFFFFFFFFFF DUP2 GT PUSH2 0x6E3 JUMPI PUSH2 0x6E0 SWAP3 ADD PUSH2 0x47D JUMP JUMPDEST SWAP1 JUMP JUMPDEST PUSH2 0x140 JUMP JUMPDEST PUSH2 0x140 JUMP JUMPDEST PUSH2 0x13C JUMP JUMPDEST CALLVALUE PUSH2 0x724 JUMPI PUSH2 0x70E PUSH2 0x705 CALLDATASIZE PUSH1 0x4 PUSH2 0x66B JUMP JUMPDEST SWAP4 SWAP3 SWAP1 SWAP3 PUSH2 0x217A JUMP JUMPDEST PUSH2 0x716 PUSH2 0x132 JUMP JUMPDEST DUP1 PUSH2 0x720 DUP2 PUSH2 0x4E5 JUMP JUMPDEST SUB SWAP1 RETURN JUMPDEST PUSH2 0x138 JUMP JUMPDEST PUSH2 0xFFFF AND SWAP1 JUMP JUMPDEST PUSH2 0x739 DUP2 PUSH2 0x729 JUMP JUMPDEST SUB PUSH2 0x740 JUMPI JUMP JUMPDEST PUSH0 DUP1 REVERT JUMPDEST SWAP1 POP CALLDATALOAD SWAP1 PUSH2 0x751 DUP3 PUSH2 0x730 JUMP JUMPDEST JUMP JUMPDEST SWAP2 SWAP1 PUSH1 0x40 DUP4 DUP3 SUB SLT PUSH2 0x77B JUMPI DUP1 PUSH2 0x76F PUSH2 0x778 SWAP3 PUSH0 DUP7 ADD PUSH2 0x15B JUMP JUMPDEST SWAP4 PUSH1 0x20 ADD PUSH2 0x744 JUMP JUMPDEST SWAP1 JUMP JUMPDEST PUSH2 0x13C JUMP JUMPDEST CALLVALUE PUSH2 0x7AF JUMPI PUSH2 0x799 PUSH2 0x793 CALLDATASIZE PUSH1 0x4 PUSH2 0x753 JUMP JUMPDEST SWAP1 PUSH2 0x24CB JUMP JUMPDEST PUSH2 0x7A1 PUSH2 0x132 JUMP JUMPDEST DUP1 PUSH2 0x7AB DUP2 PUSH2 0x4E5 JUMP JUMPDEST SUB SWAP1 RETURN JUMPDEST PUSH2 0x138 JUMP JUMPDEST PUSH0 SWAP2 SUB SLT PUSH2 0x7BE JUMPI JUMP JUMPDEST PUSH2 0x13C JUMP JUMPDEST CALLVALUE PUSH2 0x7F1 JUMPI PUSH2 0x7D3 CALLDATASIZE PUSH1 0x4 PUSH2 0x7B4 JUMP JUMPDEST PUSH2 0x7DB PUSH2 0x2676 JUMP JUMPDEST PUSH2 0x7E3 PUSH2 0x132 JUMP JUMPDEST DUP1 PUSH2 0x7ED DUP2 PUSH2 0x4E5 JUMP JUMPDEST SUB SWAP1 RETURN JUMPDEST PUSH2 0x138 JUMP JUMPDEST PUSH4 0x4E487B71 PUSH1 0xE0 SHL PUSH0 MSTORE PUSH1 0x32 PUSH1 0x4 MSTORE PUSH1 0x24 PUSH0 REVERT JUMPDEST SLOAD SWAP1 JUMP JUMPDEST PUSH0 MSTORE PUSH1 0x20 PUSH0 KECCAK256 SWAP1 JUMP JUMPDEST PUSH2 0x820 DUP2 PUSH2 0x80A JUMP JUMPDEST DUP3 LT ISZERO PUSH2 0x83A JUMPI PUSH2 0x832 PUSH1 0x7 SWAP2 PUSH2 0x80E JUMP JUMPDEST SWAP2 MUL ADD SWAP1 PUSH0 SWAP1 JUMP JUMPDEST PUSH2 0x7F6 JUMP JUMPDEST PUSH0 SHR SWAP1 JUMP JUMPDEST SWAP1 JUMP JUMPDEST PUSH2 0x853 PUSH2 0x858 SWAP2 PUSH2 0x83F JUMP JUMPDEST PUSH2 0x844 JUMP JUMPDEST SWAP1 JUMP JUMPDEST PUSH2 0x865 SWAP1 SLOAD PUSH2 0x847 JUMP JUMPDEST SWAP1 JUMP JUMPDEST PUSH4 0x4E487B71 PUSH1 0xE0 SHL PUSH0 MSTORE PUSH1 0x22 PUSH1 0x4 MSTORE PUSH1 0x24 PUSH0 REVERT JUMPDEST SWAP1 PUSH1 0x1 PUSH1 0x2 DUP4 DIV SWAP3 AND DUP1 ISZERO PUSH2 0x89C JUMPI JUMPDEST PUSH1 0x20 DUP4 LT EQ PUSH2 0x897 JUMPI JUMP JUMPDEST PUSH2 0x868 JUMP JUMPDEST SWAP2 PUSH1 0x7F AND SWAP2 PUSH2 0x88C JUMP JUMPDEST PUSH0 MSTORE PUSH1 0x20 PUSH0 KECCAK256 SWAP1 JUMP JUMPDEST SWAP1 PUSH0 SWAP3 SWAP2 DUP1 SLOAD SWAP1 PUSH2 0x8C9 PUSH2 0x8C2 DUP4 PUSH2 0x87C JUMP JUMPDEST DUP1 SWAP5 PUSH2 0x199 JUMP JUMPDEST SWAP2 PUSH1 0x1 DUP2 AND SWAP1 DUP2 PUSH0 EQ PUSH2 0x920 JUMPI POP PUSH1 0x1 EQ PUSH2 0x8E4 JUMPI JUMPDEST POP POP POP JUMP JUMPDEST PUSH2 0x8F1 SWAP2 SWAP3 SWAP4 SWAP5 POP PUSH2 0x8A6 JUMP JUMPDEST SWAP2 PUSH0 SWAP3 JUMPDEST DUP2 DUP5 LT PUSH2 0x908 JUMPI POP POP ADD SWAP1 PUSH0 DUP1 DUP1 PUSH2 0x8DF JUMP JUMPDEST PUSH1 0x1 DUP2 PUSH1 0x20 SWAP3 SWAP6 SWAP4 SWAP6 SLOAD DUP5 DUP7 ADD MSTORE ADD SWAP2 ADD SWAP3 SWAP1 PUSH2 0x8F5 JUMP JUMPDEST SWAP3 SWAP5 SWAP6 POP POP POP PUSH1 0xFF NOT AND DUP3 MSTORE ISZERO ISZERO PUSH1 0x20 MUL ADD SWAP1 PUSH0 DUP1 DUP1 PUSH2 0x8DF JUMP JUMPDEST SWAP1 PUSH2 0x945 SWAP2 PUSH2 0x8AF JUMP JUMPDEST SWAP1 JUMP JUMPDEST SWAP1 PUSH2 0x968 PUSH2 0x961 SWAP3 PUSH2 0x958 PUSH2 0x132 JUMP JUMPDEST SWAP4 DUP5 DUP1 SWAP3 PUSH2 0x93B JUMP JUMPDEST SUB DUP4 PUSH2 0x3DB JUMP JUMPDEST JUMP JUMPDEST PUSH1 0xFF AND SWAP1 JUMP JUMPDEST PUSH2 0x97C PUSH2 0x981 SWAP2 PUSH2 0x83F JUMP JUMPDEST PUSH2 0x96A JUMP JUMPDEST SWAP1 JUMP JUMPDEST PUSH2 0x98E SWAP1 SLOAD PUSH2 0x970 JUMP JUMPDEST SWAP1 JUMP JUMPDEST PUSH1 0x8 SHR SWAP1 JUMP JUMPDEST PUSH2 0x9A3 PUSH2 0x9A8 SWAP2 PUSH2 0x991 JUMP JUMPDEST PUSH2 0x96A JUMP JUMPDEST SWAP1 JUMP JUMPDEST PUSH2 0x9B5 SWAP1 SLOAD PUSH2 0x997 JUMP JUMPDEST SWAP1 JUMP JUMPDEST PUSH1 0xFF AND SWAP1 JUMP JUMPDEST PUSH2 0x9CA PUSH2 0x9CF SWAP2 PUSH2 0x83F JUMP JUMPDEST PUSH2 0x9B8 JUMP JUMPDEST SWAP1 JUMP JUMPDEST PUSH2 0x9DC SWAP1 SLOAD PUSH2 0x9BE JUMP JUMPDEST SWAP1 JUMP JUMPDEST PUSH1 0x2 SWAP1 PUSH2 0x9EB DUP3 PUSH2 0x80A JUMP JUMPDEST DUP2 LT ISZERO PUSH2 0xA65 JUMPI PUSH2 0x9FB SWAP2 PUSH2 0x817 JUMP JUMPDEST POP SWAP1 PUSH2 0xA08 PUSH0 DUP4 ADD PUSH2 0x85B JUMP JUMPDEST SWAP2 PUSH2 0xA15 PUSH1 0x1 DUP3 ADD PUSH2 0x948 JUMP JUMPDEST SWAP2 PUSH2 0xA22 PUSH1 0x2 DUP4 ADD PUSH2 0x85B JUMP JUMPDEST SWAP2 PUSH2 0xA2F PUSH1 0x3 DUP3 ADD PUSH2 0x984 JUMP JUMPDEST SWAP2 PUSH2 0xA3C PUSH1 0x3 DUP4 ADD PUSH2 0x9AB JUMP JUMPDEST SWAP2 PUSH2 0xA49 PUSH1 0x4 DUP3 ADD PUSH2 0x85B JUMP JUMPDEST SWAP2 PUSH2 0xA62 PUSH1 0x6 PUSH2 0xA5B PUSH1 0x5 DUP6 ADD PUSH2 0x85B JUMP JUMPDEST SWAP4 ADD PUSH2 0x9D2 JUMP JUMPDEST SWAP1 JUMP JUMPDEST PUSH0 DUP1 REVERT JUMPDEST PUSH2 0xA72 SWAP1 PUSH2 0x144 JUMP JUMPDEST SWAP1 MSTORE JUMP JUMPDEST PUSH1 0x20 SWAP2 DUP2 MSTORE ADD SWAP1 JUMP JUMPDEST PUSH2 0xA9E PUSH2 0xAA7 PUSH1 0x20 SWAP4 PUSH2 0xAAC SWAP4 PUSH2 0xA95 DUP2 PUSH2 0x195 JUMP JUMPDEST SWAP4 DUP5 DUP1 SWAP4 PUSH2 0xA76 JUMP JUMPDEST SWAP6 DUP7 SWAP2 ADD PUSH2 0x1A2 JUMP JUMPDEST PUSH2 0x1AD JUMP JUMPDEST ADD SWAP1 JUMP JUMPDEST PUSH2 0xAB9 SWAP1 PUSH2 0x1E8 JUMP JUMPDEST SWAP1 MSTORE JUMP JUMPDEST PUSH2 0xAC6 SWAP1 PUSH2 0x22A JUMP JUMPDEST SWAP1 MSTORE JUMP JUMPDEST SWAP4 SWAP6 PUSH2 0xB2A PUSH1 0xE0 SWAP7 PUSH2 0xB20 PUSH2 0xB3E SWAP7 SWAP13 SWAP12 SWAP10 PUSH2 0xB16 PUSH2 0xB0B DUP11 PUSH2 0xB45 SWAP15 SWAP10 PUSH2 0xAFD PUSH2 0xB34 SWAP11 PUSH0 PUSH2 0x100 DUP6 ADD SWAP5 ADD SWAP1 PUSH2 0xA69 JUMP JUMPDEST DUP13 PUSH1 0x20 DUP2 DUP5 SUB SWAP2 ADD MSTORE PUSH2 0xA7F JUMP JUMPDEST SWAP15 PUSH1 0x40 DUP12 ADD SWAP1 PUSH2 0xA69 JUMP JUMPDEST PUSH1 0x60 DUP10 ADD SWAP1 PUSH2 0xAB0 JUMP JUMPDEST PUSH1 0x80 DUP8 ADD SWAP1 PUSH2 0xAB0 JUMP JUMPDEST PUSH1 0xA0 DUP6 ADD SWAP1 PUSH2 0xA69 JUMP JUMPDEST PUSH1 0xC0 DUP4 ADD SWAP1 PUSH2 0xA69 JUMP JUMPDEST ADD SWAP1 PUSH2 0xABD JUMP JUMPDEST JUMP JUMPDEST CALLVALUE PUSH2 0xB81 JUMPI PUSH2 0xB7D PUSH2 0xB62 PUSH2 0xB5D CALLDATASIZE PUSH1 0x4 PUSH2 0x16A JUMP JUMPDEST PUSH2 0x9DF JUMP JUMPDEST SWAP5 PUSH2 0xB74 SWAP9 SWAP7 SWAP9 SWAP5 SWAP2 SWAP5 SWAP4 SWAP3 SWAP4 PUSH2 0x132 JUMP JUMPDEST SWAP9 DUP10 SWAP9 DUP10 PUSH2 0xACA JUMP JUMPDEST SUB SWAP1 RETURN JUMPDEST PUSH2 0x138 JUMP JUMPDEST PUSH2 0xB8F SWAP1 PUSH2 0x529 JUMP JUMPDEST SWAP1 MSTORE JUMP JUMPDEST SWAP2 SWAP1 PUSH2 0xBA6 SWAP1 PUSH0 PUSH1 0x20 DUP6 ADD SWAP5 ADD SWAP1 PUSH2 0xB86 JUMP JUMPDEST JUMP JUMPDEST CALLVALUE PUSH2 0xBD8 JUMPI PUSH2 0xBB8 CALLDATASIZE PUSH1 0x4 PUSH2 0x7B4 JUMP JUMPDEST PUSH2 0xBD4 PUSH2 0xBC3 PUSH2 0x2684 JUMP JUMPDEST PUSH2 0xBCB PUSH2 0x132 JUMP JUMPDEST SWAP2 DUP3 SWAP2 DUP3 PUSH2 0xB93 JUMP JUMPDEST SUB SWAP1 RETURN JUMPDEST PUSH2 0x138 JUMP JUMPDEST PUSH0 DUP1 REVERT JUMPDEST PUSH0 DUP1 REVERT JUMPDEST SWAP1 SWAP2 DUP3 PUSH1 0x1F DUP4 ADD SLT ISZERO PUSH2 0xC1F JUMPI DUP2 CALLDATALOAD SWAP2 PUSH8 0xFFFFFFFFFFFFFFFF DUP4 GT PUSH2 0xC1A JUMPI PUSH1 0x20 ADD SWAP3 PUSH1 0x20 DUP4 MUL DUP5 ADD GT PUSH2 0xC15 JUMPI JUMP JUMPDEST PUSH2 0xBE1 JUMP JUMPDEST PUSH2 0xBDD JUMP JUMPDEST PUSH2 0x3BF JUMP JUMPDEST SWAP2 SWAP1 SWAP2 PUSH1 0x40 DUP2 DUP5 SUB SLT PUSH2 0xC65 JUMPI PUSH2 0xC3D DUP4 PUSH0 DUP4 ADD PUSH2 0x15B JUMP JUMPDEST SWAP3 PUSH1 0x20 DUP3 ADD CALLDATALOAD PUSH8 0xFFFFFFFFFFFFFFFF DUP2 GT PUSH2 0xC60 JUMPI PUSH2 0xC5C SWAP3 ADD PUSH2 0xBE5 JUMP JUMPDEST SWAP1 SWAP2 JUMP JUMPDEST PUSH2 0x140 JUMP JUMPDEST PUSH2 0x13C JUMP JUMPDEST CALLVALUE PUSH2 0xC99 JUMPI PUSH2 0xC83 PUSH2 0xC7D CALLDATASIZE PUSH1 0x4 PUSH2 0xC24 JUMP JUMPDEST SWAP2 PUSH2 0x293D JUMP JUMPDEST PUSH2 0xC8B PUSH2 0x132 JUMP JUMPDEST DUP1 PUSH2 0xC95 DUP2 PUSH2 0x4E5 JUMP JUMPDEST SUB SWAP1 RETURN JUMPDEST PUSH2 0x138 JUMP JUMPDEST PUSH1 0x4 GT ISZERO PUSH2 0xCA8 JUMPI JUMP JUMPDEST PUSH0 DUP1 REVERT JUMPDEST SWAP1 POP CALLDATALOAD SWAP1 PUSH2 0xCB9 DUP3 PUSH2 0xC9E JUMP JUMPDEST JUMP JUMPDEST SWAP2 SWAP1 PUSH1 0x40 DUP4 DUP3 SUB SLT PUSH2 0xCE3 JUMPI DUP1 PUSH2 0xCD7 PUSH2 0xCE0 SWAP3 PUSH0 DUP7 ADD PUSH2 0xCAC JUMP JUMPDEST SWAP4 PUSH1 0x20 ADD PUSH2 0x15B JUMP JUMPDEST SWAP1 JUMP JUMPDEST PUSH2 0x13C JUMP JUMPDEST CALLVALUE PUSH2 0xD17 JUMPI PUSH2 0xD01 PUSH2 0xCFB CALLDATASIZE PUSH1 0x4 PUSH2 0xCBB JUMP JUMPDEST SWAP1 PUSH2 0x294A JUMP JUMPDEST PUSH2 0xD09 PUSH2 0x132 JUMP JUMPDEST DUP1 PUSH2 0xD13 DUP2 PUSH2 0x4E5 JUMP JUMPDEST SUB SWAP1 RETURN JUMPDEST PUSH2 0x138 JUMP JUMPDEST SWAP2 SWAP1 PUSH2 0xD2F SWAP1 PUSH0 PUSH1 0x20 DUP6 ADD SWAP5 ADD SWAP1 PUSH2 0xA69 JUMP JUMPDEST JUMP JUMPDEST CALLVALUE PUSH2 0xD61 JUMPI PUSH2 0xD41 CALLDATASIZE PUSH1 0x4 PUSH2 0x7B4 JUMP JUMPDEST PUSH2 0xD5D PUSH2 0xD4C PUSH2 0x296B JUMP JUMPDEST PUSH2 0xD54 PUSH2 0x132 JUMP JUMPDEST SWAP2 DUP3 SWAP2 DUP3 PUSH2 0xD1C JUMP JUMPDEST SUB SWAP1 RETURN JUMPDEST PUSH2 0x138 JUMP JUMPDEST SWAP1 SWAP2 PUSH1 0x60 DUP3 DUP5 SUB SLT PUSH2 0xD9B JUMPI PUSH2 0xD98 PUSH2 0xD81 DUP5 PUSH0 DUP6 ADD PUSH2 0x15B JUMP JUMPDEST SWAP4 PUSH2 0xD8F DUP2 PUSH1 0x20 DUP7 ADD PUSH2 0x65C JUMP JUMPDEST SWAP4 PUSH1 0x40 ADD PUSH2 0x744 JUMP JUMPDEST SWAP1 JUMP JUMPDEST PUSH2 0x13C JUMP JUMPDEST PUSH2 0xDDD SWAP2 PUSH1 0x40 PUSH1 0x60 DUP3 ADD SWAP3 PUSH2 0xDBB PUSH0 DUP3 ADD MLOAD PUSH0 DUP6 ADD SWAP1 PUSH2 0x535 JUMP JUMPDEST PUSH2 0xDCD PUSH1 0x20 DUP3 ADD MLOAD PUSH1 0x20 DUP6 ADD SWAP1 PUSH2 0x547 JUMP JUMPDEST ADD MLOAD SWAP1 PUSH1 0x40 DUP2 DUP5 SUB SWAP2 ADD MSTORE PUSH2 0x1B7 JUMP JUMPDEST SWAP1 JUMP JUMPDEST PUSH2 0xDF5 SWAP2 PUSH1 0x20 DUP3 ADD SWAP2 PUSH0 DUP2 DUP5 SUB SWAP2 ADD MSTORE PUSH2 0xDA0 JUMP JUMPDEST SWAP1 JUMP JUMPDEST CALLVALUE PUSH2 0xE29 JUMPI PUSH2 0xE25 PUSH2 0xE14 PUSH2 0xE0E CALLDATASIZE PUSH1 0x4 PUSH2 0xD66 JUMP JUMPDEST SWAP2 PUSH2 0x298C JUMP JUMPDEST PUSH2 0xE1C PUSH2 0x132 JUMP JUMPDEST SWAP2 DUP3 SWAP2 DUP3 PUSH2 0xDE0 JUMP JUMPDEST SUB SWAP1 RETURN JUMPDEST PUSH2 0x138 JUMP JUMPDEST PUSH2 0xE37 DUP2 PUSH2 0x529 JUMP JUMPDEST SUB PUSH2 0xE3E JUMPI JUMP JUMPDEST PUSH0 DUP1 REVERT JUMPDEST SWAP1 POP CALLDATALOAD SWAP1 PUSH2 0xE4F DUP3 PUSH2 0xE2E JUMP JUMPDEST JUMP JUMPDEST SWAP1 PUSH1 0x20 DUP3 DUP3 SUB SLT PUSH2 0xE6A JUMPI PUSH2 0xE67 SWAP2 PUSH0 ADD PUSH2 0xE42 JUMP JUMPDEST SWAP1 JUMP JUMPDEST PUSH2 0x13C JUMP JUMPDEST CALLVALUE PUSH2 0xE9D JUMPI PUSH2 0xE87 PUSH2 0xE82 CALLDATASIZE PUSH1 0x4 PUSH2 0xE51 JUMP JUMPDEST PUSH2 0x2A2E JUMP JUMPDEST PUSH2 0xE8F PUSH2 0x132 JUMP JUMPDEST DUP1 PUSH2 0xE99 DUP2 PUSH2 0x4E5 JUMP JUMPDEST SUB SWAP1 RETURN JUMPDEST PUSH2 0x138 JUMP JUMPDEST CALLVALUE PUSH2 0xED3 JUMPI PUSH2 0xECF PUSH2 0xEBE PUSH2 0xEB8 CALLDATASIZE PUSH1 0x4 PUSH2 0x32A JUMP JUMPDEST SWAP2 PUSH2 0x2A39 JUMP JUMPDEST PUSH2 0xEC6 PUSH2 0x132 JUMP JUMPDEST SWAP2 DUP3 SWAP2 DUP3 PUSH2 0x374 JUMP JUMPDEST SUB SWAP1 RETURN JUMPDEST PUSH2 0x138 JUMP JUMPDEST MLOAD SWAP1 JUMP JUMPDEST PUSH1 0x20 SWAP2 DUP2 MSTORE ADD SWAP1 JUMP JUMPDEST PUSH1 0x20 ADD SWAP1 JUMP JUMPDEST SWAP1 PUSH2 0xF82 SWAP1 PUSH1 0xE0 DUP1 PUSH2 0xF1D PUSH2 0x100 DUP5 ADD PUSH2 0xF0B PUSH0 DUP9 ADD MLOAD PUSH0 DUP8 ADD SWAP1 PUSH2 0x188 JUMP JUMPDEST PUSH1 0x20 DUP8 ADD MLOAD DUP6 DUP3 SUB PUSH1 0x20 DUP8 ADD MSTORE PUSH2 0x1B7 JUMP JUMPDEST SWAP5 PUSH2 0xF30 PUSH1 0x40 DUP3 ADD MLOAD PUSH1 0x40 DUP7 ADD SWAP1 PUSH2 0x188 JUMP JUMPDEST PUSH2 0xF42 PUSH1 0x60 DUP3 ADD MLOAD PUSH1 0x60 DUP7 ADD SWAP1 PUSH2 0x1EE JUMP JUMPDEST PUSH2 0xF54 PUSH1 0x80 DUP3 ADD MLOAD PUSH1 0x80 DUP7 ADD SWAP1 PUSH2 0x1EE JUMP JUMPDEST PUSH2 0xF66 PUSH1 0xA0 DUP3 ADD MLOAD PUSH1 0xA0 DUP7 ADD SWAP1 PUSH2 0x188 JUMP JUMPDEST PUSH2 0xF78 PUSH1 0xC0 DUP3 ADD MLOAD PUSH1 0xC0 DUP7 ADD SWAP1 PUSH2 0x188 JUMP JUMPDEST ADD MLOAD SWAP2 ADD SWAP1 PUSH2 0x236 JUMP JUMPDEST SWAP1 JUMP JUMPDEST SWAP1 PUSH2 0xF8F SWAP2 PUSH2 0xEEB JUMP JUMPDEST SWAP1 JUMP JUMPDEST PUSH1 0x20 ADD SWAP1 JUMP JUMPDEST SWAP1 PUSH2 0xFAC PUSH2 0xFA5 DUP4 PUSH2 0xED8 JUMP JUMPDEST DUP1 SWAP3 PUSH2 0xEDC JUMP JUMPDEST SWAP1 DUP2 PUSH2 0xFBD PUSH1 0x20 DUP4 MUL DUP5 ADD SWAP5 PUSH2 0xEE5 JUMP JUMPDEST SWAP3 PUSH0 SWAP2 JUMPDEST DUP4 DUP4 LT PUSH2 0xFD0 JUMPI POP POP POP POP POP SWAP1 JUMP JUMPDEST SWAP1 SWAP2 SWAP3 SWAP4 SWAP5 PUSH1 0x20 PUSH2 0xFF2 PUSH2 0xFEC DUP4 DUP6 PUSH1 0x1 SWAP6 SUB DUP8 MSTORE DUP10 MLOAD PUSH2 0xF85 JUMP JUMPDEST SWAP8 PUSH2 0xF92 JUMP JUMPDEST SWAP4 ADD SWAP4 ADD SWAP2 SWAP4 SWAP3 SWAP1 PUSH2 0xFC1 JUMP JUMPDEST PUSH2 0x1014 SWAP2 PUSH1 0x20 DUP3 ADD SWAP2 PUSH0 DUP2 DUP5 SUB SWAP2 ADD MSTORE PUSH2 0xF98 JUMP JUMPDEST SWAP1 JUMP JUMPDEST CALLVALUE PUSH2 0x1047 JUMPI PUSH2 0x1027 CALLDATASIZE PUSH1 0x4 PUSH2 0x7B4 JUMP JUMPDEST PUSH2 0x1043 PUSH2 0x1032 PUSH2 0x2B19 JUMP JUMPDEST PUSH2 0x103A PUSH2 0x132 JUMP JUMPDEST SWAP2 DUP3 SWAP2 DUP3 PUSH2 0xFFF JUMP JUMPDEST SUB SWAP1 RETURN JUMPDEST PUSH2 0x138 JUMP JUMPDEST SHR SWAP1 JUMP JUMPDEST PUSH1 0x1 DUP1 PUSH1 0xA0 SHL SUB AND SWAP1 JUMP JUMPDEST PUSH2 0x106B SWAP1 PUSH1 0x8 PUSH2 0x1070 SWAP4 MUL PUSH2 0x104C JUMP JUMPDEST PUSH2 0x1050 JUMP JUMPDEST SWAP1 JUMP JUMPDEST SWAP1 PUSH2 0x107E SWAP2 SLOAD PUSH2 0x105B JUMP JUMPDEST SWAP1 JUMP JUMPDEST PUSH2 0x108D PUSH1 0x1 PUSH0 SWAP1 PUSH2 0x1073 JUMP JUMPDEST SWAP1 JUMP JUMPDEST SWAP1 JUMP JUMPDEST PUSH2 0x10A7 PUSH2 0x10A2 PUSH2 0x10AC SWAP3 PUSH2 0x51E JUMP JUMPDEST PUSH2 0x1090 JUMP JUMPDEST PUSH2 0x51E JUMP JUMPDEST SWAP1 JUMP JUMPDEST PUSH2 0x10B8 SWAP1 PUSH2 0x1093 JUMP JUMPDEST SWAP1 JUMP JUMPDEST PUSH2 0x10C4 SWAP1 PUSH2 0x10AF JUMP JUMPDEST SWAP1 JUMP JUMPDEST PUSH2 0x10D0 SWAP1 PUSH2 0x10BB JUMP JUMPDEST SWAP1 MSTORE JUMP JUMPDEST SWAP2 SWAP1 PUSH2 0x10E7 SWAP1 PUSH0 PUSH1 0x20 DUP6 ADD SWAP5 ADD SWAP1 PUSH2 0x10C7 JUMP JUMPDEST JUMP JUMPDEST CALLVALUE PUSH2 0x1119 JUMPI PUSH2 0x10F9 CALLDATASIZE PUSH1 0x4 PUSH2 0x7B4 JUMP JUMPDEST PUSH2 0x1115 PUSH2 0x1104 PUSH2 0x1081 JUMP JUMPDEST PUSH2 0x110C PUSH2 0x132 JUMP JUMPDEST SWAP2 DUP3 SWAP2 DUP3 PUSH2 0x10D4 JUMP JUMPDEST SUB SWAP1 RETURN JUMPDEST PUSH2 0x138 JUMP JUMPDEST PUSH0 DUP1 REVERT JUMPDEST PUSH2 0x112D PUSH2 0x100 PUSH2 0x404 JUMP JUMPDEST SWAP1 JUMP JUMPDEST PUSH0 SWAP1 JUMP JUMPDEST PUSH1 0x60 SWAP1 JUMP JUMPDEST PUSH0 SWAP1 JUMP JUMPDEST PUSH0 SWAP1 JUMP JUMPDEST PUSH2 0x1149 PUSH2 0x1122 JUMP JUMPDEST SWAP1 PUSH1 0x20 DUP1 DUP1 DUP1 DUP1 DUP1 DUP1 DUP1 DUP10 PUSH2 0x115C PUSH2 0x1130 JUMP JUMPDEST DUP2 MSTORE ADD PUSH2 0x1167 PUSH2 0x1134 JUMP JUMPDEST DUP2 MSTORE ADD PUSH2 0x1172 PUSH2 0x1130 JUMP JUMPDEST DUP2 MSTORE ADD PUSH2 0x117D PUSH2 0x1139 JUMP JUMPDEST DUP2 MSTORE ADD PUSH2 0x1188 PUSH2 0x1139 JUMP JUMPDEST DUP2 MSTORE ADD PUSH2 0x1193 PUSH2 0x1130 JUMP JUMPDEST DUP2 MSTORE ADD PUSH2 0x119E PUSH2 0x1130 JUMP JUMPDEST DUP2 MSTORE ADD PUSH2 0x11A9 PUSH2 0x113D JUMP JUMPDEST DUP2 MSTORE POP POP JUMP JUMPDEST PUSH2 0x11B7 PUSH2 0x1141 JUMP JUMPDEST SWAP1 JUMP JUMPDEST SWAP1 PUSH2 0x11C4 SWAP1 PUSH2 0x144 JUMP JUMPDEST SWAP1 MSTORE JUMP JUMPDEST MSTORE JUMP JUMPDEST SWAP1 PUSH2 0x11D5 SWAP1 PUSH2 0x1E8 JUMP JUMPDEST SWAP1 MSTORE JUMP JUMPDEST SWAP1 PUSH2 0x11E3 SWAP1 PUSH2 0x21E JUMP JUMPDEST SWAP1 MSTORE JUMP JUMPDEST SWAP1 PUSH2 0x12AE PUSH2 0x12A5 PUSH1 0x6 PUSH2 0x11F8 PUSH2 0x1122 JUMP JUMPDEST SWAP5 PUSH2 0x120F PUSH2 0x1207 PUSH0 DUP4 ADD PUSH2 0x85B JUMP JUMPDEST PUSH0 DUP9 ADD PUSH2 0x11BA JUMP JUMPDEST PUSH2 0x1227 PUSH2 0x121E PUSH1 0x1 DUP4 ADD PUSH2 0x948 JUMP JUMPDEST PUSH1 0x20 DUP9 ADD PUSH2 0x11C8 JUMP JUMPDEST PUSH2 0x123F PUSH2 0x1236 PUSH1 0x2 DUP4 ADD PUSH2 0x85B JUMP JUMPDEST PUSH1 0x40 DUP9 ADD PUSH2 0x11BA JUMP JUMPDEST PUSH2 0x1257 PUSH2 0x124E PUSH1 0x3 DUP4 ADD PUSH2 0x984 JUMP JUMPDEST PUSH1 0x60 DUP9 ADD PUSH2 0x11CB JUMP JUMPDEST PUSH2 0x126F PUSH2 0x1266 PUSH1 0x3 DUP4 ADD PUSH2 0x9AB JUMP JUMPDEST PUSH1 0x80 DUP9 ADD PUSH2 0x11CB JUMP JUMPDEST PUSH2 0x1287 PUSH2 0x127E PUSH1 0x4 DUP4 ADD PUSH2 0x85B JUMP JUMPDEST PUSH1 0xA0 DUP9 ADD PUSH2 0x11BA JUMP JUMPDEST PUSH2 0x129F PUSH2 0x1296 PUSH1 0x5 DUP4 ADD PUSH2 0x85B JUMP JUMPDEST PUSH1 0xC0 DUP9 ADD PUSH2 0x11BA JUMP JUMPDEST ADD PUSH2 0x9D2 JUMP JUMPDEST PUSH1 0xE0 DUP5 ADD PUSH2 0x11D9 JUMP JUMPDEST JUMP JUMPDEST PUSH2 0x12B9 SWAP1 PUSH2 0x11E7 JUMP JUMPDEST SWAP1 JUMP JUMPDEST PUSH2 0x12D3 PUSH2 0x12D9 SWAP2 PUSH2 0x12CB PUSH2 0x11AF JUMP JUMPDEST POP PUSH1 0x2 PUSH2 0x817 JUMP JUMPDEST POP PUSH2 0x12B0 JUMP JUMPDEST SWAP1 JUMP JUMPDEST PUSH0 SWAP1 JUMP JUMPDEST SWAP1 JUMP JUMPDEST PUSH2 0x12EF PUSH2 0x12F4 SWAP2 PUSH2 0x144 JUMP JUMPDEST PUSH2 0x12E0 JUMP JUMPDEST SWAP1 MSTORE JUMP JUMPDEST PUSH1 0x20 SWAP4 SWAP3 PUSH2 0x1317 DUP6 DUP4 PUSH2 0x130F DUP3 SWAP6 PUSH2 0x131F SWAP8 PUSH2 0x12E3 JUMP JUMPDEST ADD DUP1 SWAP3 PUSH2 0x12E3 JUMP JUMPDEST ADD DUP1 SWAP3 PUSH2 0x12E3 JUMP JUMPDEST ADD SWAP1 JUMP JUMPDEST PUSH1 0x20 ADD SWAP1 JUMP JUMPDEST MLOAD SWAP1 JUMP JUMPDEST SWAP1 PUSH2 0x1354 PUSH2 0x1363 SWAP3 PUSH2 0x133D PUSH2 0x12DC JUMP JUMPDEST POP SWAP2 SWAP4 PUSH2 0x1348 PUSH2 0x132 JUMP JUMPDEST SWAP5 DUP6 SWAP4 PUSH1 0x20 DUP6 ADD PUSH2 0x12F8 JUMP JUMPDEST PUSH1 0x20 DUP3 ADD DUP2 SUB DUP3 MSTORE SUB DUP3 PUSH2 0x3DB JUMP JUMPDEST PUSH2 0x1375 PUSH2 0x136F DUP3 PUSH2 0x1329 JUMP JUMPDEST SWAP2 PUSH2 0x1323 JUMP JUMPDEST KECCAK256 SWAP1 JUMP JUMPDEST SWAP1 JUMP JUMPDEST PUSH0 PUSH32 0x746F75726E616D656E742069736E27742070656E64696E670000000000000000 SWAP2 ADD MSTORE JUMP JUMPDEST PUSH2 0x13B0 PUSH1 0x18 PUSH1 0x20 SWAP3 PUSH2 0xA76 JUMP JUMPDEST PUSH2 0x13B9 DUP2 PUSH2 0x137C JUMP JUMPDEST ADD SWAP1 JUMP JUMPDEST PUSH2 0x13D2 SWAP1 PUSH1 0x20 DUP2 ADD SWAP1 PUSH0 DUP2 DUP4 SUB SWAP2 ADD MSTORE PUSH2 0x13A3 JUMP JUMPDEST SWAP1 JUMP JUMPDEST ISZERO PUSH2 0x13DC JUMPI JUMP JUMPDEST PUSH2 0x13E4 PUSH2 0x132 JUMP JUMPDEST PUSH3 0x461BCD PUSH1 0xE5 SHL DUP2 MSTORE DUP1 PUSH2 0x13FA PUSH1 0x4 DUP3 ADD PUSH2 0x13BD JUMP JUMPDEST SUB SWAP1 REVERT JUMPDEST PUSH0 PUSH32 0x646561646C696E65207265616368656400000000000000000000000000000000 SWAP2 ADD MSTORE JUMP JUMPDEST PUSH2 0x1432 PUSH1 0x10 PUSH1 0x20 SWAP3 PUSH2 0xA76 JUMP JUMPDEST PUSH2 0x143B DUP2 PUSH2 0x13FE JUMP JUMPDEST ADD SWAP1 JUMP JUMPDEST PUSH2 0x1454 SWAP1 PUSH1 0x20 DUP2 ADD SWAP1 PUSH0 DUP2 DUP4 SUB SWAP2 ADD MSTORE PUSH2 0x1425 JUMP JUMPDEST SWAP1 JUMP JUMPDEST ISZERO PUSH2 0x145E JUMPI JUMP JUMPDEST PUSH2 0x1466 PUSH2 0x132 JUMP JUMPDEST PUSH3 0x461BCD PUSH1 0xE5 SHL DUP2 MSTORE DUP1 PUSH2 0x147C PUSH1 0x4 DUP3 ADD PUSH2 0x143F JUMP JUMPDEST SUB SWAP1 REVERT JUMPDEST PUSH0 PUSH32 0x746F75726E616D656E742069732066756C6C0000000000000000000000000000 SWAP2 ADD MSTORE JUMP JUMPDEST PUSH2 0x14B4 PUSH1 0x12 PUSH1 0x20 SWAP3 PUSH2 0xA76 JUMP JUMPDEST PUSH2 0x14BD DUP2 PUSH2 0x1480 JUMP JUMPDEST ADD SWAP1 JUMP JUMPDEST PUSH2 0x14D6 SWAP1 PUSH1 0x20 DUP2 ADD SWAP1 PUSH0 DUP2 DUP4 SUB SWAP2 ADD MSTORE PUSH2 0x14A7 JUMP JUMPDEST SWAP1 JUMP JUMPDEST ISZERO PUSH2 0x14E0 JUMPI JUMP JUMPDEST PUSH2 0x14E8 PUSH2 0x132 JUMP JUMPDEST PUSH3 0x461BCD PUSH1 0xE5 SHL DUP2 MSTORE DUP1 PUSH2 0x14FE PUSH1 0x4 DUP3 ADD PUSH2 0x14C1 JUMP JUMPDEST SUB SWAP1 REVERT JUMPDEST PUSH2 0x150E PUSH2 0x1513 SWAP2 PUSH2 0x83F JUMP JUMPDEST PUSH2 0x1050 JUMP JUMPDEST SWAP1 JUMP JUMPDEST PUSH2 0x1520 SWAP1 SLOAD PUSH2 0x1502 JUMP JUMPDEST SWAP1 JUMP JUMPDEST PUSH2 0x152C SWAP1 PUSH2 0x10AF JUMP JUMPDEST SWAP1 JUMP JUMPDEST PUSH1 0xE0 SHL SWAP1 JUMP JUMPDEST PUSH2 0x153E DUP2 PUSH2 0x542 JUMP JUMPDEST SUB PUSH2 0x1545 JUMPI JUMP JUMPDEST PUSH0 DUP1 REVERT JUMPDEST SWAP1 POP MLOAD SWAP1 PUSH2 0x1556 DUP3 PUSH2 0x1535 JUMP JUMPDEST JUMP JUMPDEST SWAP1 PUSH1 0x20 DUP3 DUP3 SUB SLT PUSH2 0x1571 JUMPI PUSH2 0x156E SWAP2 PUSH0 ADD PUSH2 0x1549 JUMP JUMPDEST SWAP1 JUMP JUMPDEST PUSH2 0x13C JUMP JUMPDEST PUSH1 0x40 SWAP1 PUSH2 0x159F PUSH2 0x15A6 SWAP5 SWAP7 SWAP6 SWAP4 SWAP7 PUSH2 0x1595 PUSH1 0x60 DUP5 ADD SWAP9 PUSH0 DUP6 ADD SWAP1 PUSH2 0xB86 JUMP JUMPDEST PUSH1 0x20 DUP4 ADD SWAP1 PUSH2 0xB86 JUMP JUMPDEST ADD SWAP1 PUSH2 0xA69 JUMP JUMPDEST JUMP JUMPDEST PUSH2 0x15B0 PUSH2 0x132 JUMP JUMPDEST RETURNDATASIZE PUSH0 DUP3 RETURNDATACOPY RETURNDATASIZE SWAP1 REVERT JUMPDEST PUSH0 PUSH32 0x6E6F7420656E6F756768206361736820737472616E6765720000000000000000 SWAP2 ADD MSTORE JUMP JUMPDEST PUSH2 0x15EC PUSH1 0x18 PUSH1 0x20 SWAP3 PUSH2 0xA76 JUMP JUMPDEST PUSH2 0x15F5 DUP2 PUSH2 0x15B8 JUMP JUMPDEST ADD SWAP1 JUMP JUMPDEST PUSH2 0x160E SWAP1 PUSH1 0x20 DUP2 ADD SWAP1 PUSH0 DUP2 DUP4 SUB SWAP2 ADD MSTORE PUSH2 0x15DF JUMP JUMPDEST SWAP1 JUMP JUMPDEST ISZERO PUSH2 0x1618 JUMPI JUMP JUMPDEST PUSH2 0x1620 PUSH2 0x132 JUMP JUMPDEST PUSH3 0x461BCD PUSH1 0xE5 SHL DUP2 MSTORE DUP1 PUSH2 0x1636 PUSH1 0x4 DUP3 ADD PUSH2 0x15F9 JUMP JUMPDEST SUB SWAP1 REVERT JUMPDEST PUSH4 0x4E487B71 PUSH1 0xE0 SHL PUSH0 MSTORE PUSH1 0x11 PUSH1 0x4 MSTORE PUSH1 0x24 PUSH0 REVERT JUMPDEST PUSH2 0x1657 SWAP1 PUSH2 0x1E8 JUMP JUMPDEST PUSH1 0xFF DUP2 EQ PUSH2 0x1665 JUMPI PUSH1 0x1 ADD SWAP1 JUMP JUMPDEST PUSH2 0x163A JUMP JUMPDEST PUSH0 SHL SWAP1 JUMP JUMPDEST SWAP1 PUSH2 0x167B PUSH1 0xFF SWAP2 PUSH2 0x166A JUMP JUMPDEST SWAP2 DUP2 NOT AND SWAP2 AND OR SWAP1 JUMP JUMPDEST PUSH2 0x1699 PUSH2 0x1694 PUSH2 0x169E SWAP3 PUSH2 0x1E8 JUMP JUMPDEST PUSH2 0x1090 JUMP JUMPDEST PUSH2 0x1E8 JUMP JUMPDEST SWAP1 JUMP JUMPDEST SWAP1 JUMP JUMPDEST SWAP1 PUSH2 0x16B9 PUSH2 0x16B4 PUSH2 0x16C0 SWAP3 PUSH2 0x1685 JUMP JUMPDEST PUSH2 0x16A1 JUMP JUMPDEST DUP3 SLOAD PUSH2 0x166F JUMP JUMPDEST SWAP1 SSTORE JUMP JUMPDEST PUSH2 0x16CE PUSH1 0x60 PUSH2 0x404 JUMP JUMPDEST SWAP1 JUMP JUMPDEST SWAP1 PUSH2 0x16DB SWAP1 PUSH2 0x529 JUMP JUMPDEST SWAP1 MSTORE JUMP JUMPDEST SWAP1 PUSH2 0x16E9 SWAP1 PUSH2 0x542 JUMP JUMPDEST SWAP1 MSTORE JUMP JUMPDEST SWAP1 JUMP JUMPDEST PUSH2 0x1704 PUSH2 0x16FF PUSH2 0x1709 SWAP3 PUSH2 0x16ED JUMP JUMPDEST PUSH2 0x1090 JUMP JUMPDEST PUSH2 0x1E8 JUMP JUMPDEST SWAP1 JUMP JUMPDEST PUSH2 0x1718 PUSH2 0x171E SWAP2 PUSH2 0x1E8 JUMP JUMPDEST SWAP2 PUSH2 0x1E8 JUMP JUMPDEST SWAP1 SUB SWAP1 PUSH1 0xFF DUP3 GT PUSH2 0x172B JUMPI JUMP JUMPDEST PUSH2 0x163A JUMP JUMPDEST PUSH2 0x1744 PUSH2 0x173F PUSH2 0x1749 SWAP3 PUSH2 0x1E8 JUMP JUMPDEST PUSH2 0x1090 JUMP JUMPDEST PUSH2 0x144 JUMP JUMPDEST SWAP1 JUMP JUMPDEST PUSH2 0x1755 SWAP1 PUSH2 0x364 JUMP JUMPDEST SWAP1 JUMP JUMPDEST SWAP1 PUSH2 0x1762 SWAP1 PUSH2 0x174C JUMP JUMPDEST PUSH0 MSTORE PUSH1 0x20 MSTORE PUSH1 0x40 PUSH0 KECCAK256 SWAP1 JUMP JUMPDEST PUSH4 0x4E487B71 PUSH1 0xE0 SHL PUSH0 MSTORE PUSH0 PUSH1 0x4 MSTORE PUSH1 0x24 PUSH0 REVERT JUMPDEST PUSH2 0x178B SWAP1 MLOAD PUSH2 0x529 JUMP JUMPDEST SWAP1 JUMP JUMPDEST SWAP1 PUSH2 0x179F PUSH1 0x1 DUP1 PUSH1 0xA0 SHL SUB SWAP2 PUSH2 0x166A JUMP JUMPDEST SWAP2 DUP2 NOT AND SWAP2 AND OR SWAP1 JUMP JUMPDEST PUSH2 0x17B2 SWAP1 PUSH2 0x10AF JUMP JUMPDEST SWAP1 JUMP JUMPDEST SWAP1 JUMP JUMPDEST SWAP1 PUSH2 0x17CD PUSH2 0x17C8 PUSH2 0x17D4 SWAP3 PUSH2 0x17A9 JUMP JUMPDEST PUSH2 0x17B5 JUMP JUMPDEST DUP3 SLOAD PUSH2 0x178E JUMP JUMPDEST SWAP1 SSTORE JUMP JUMPDEST PUSH2 0x17E2 SWAP1 MLOAD PUSH2 0x542 JUMP JUMPDEST SWAP1 JUMP JUMPDEST PUSH1 0xA0 SHL SWAP1 JUMP JUMPDEST SWAP1 PUSH2 0x17FA PUSH1 0xFF PUSH1 0xA0 SHL SWAP2 PUSH2 0x17E5 JUMP JUMPDEST SWAP2 DUP2 NOT AND SWAP2 AND OR SWAP1 JUMP JUMPDEST PUSH2 0x180D SWAP1 PUSH2 0x542 JUMP JUMPDEST SWAP1 JUMP JUMPDEST SWAP1 JUMP JUMPDEST SWAP1 PUSH2 0x1828 PUSH2 0x1823 PUSH2 0x182F SWAP3 PUSH2 0x1804 JUMP JUMPDEST PUSH2 0x1810 JUMP JUMPDEST DUP3 SLOAD PUSH2 0x17EB JUMP JUMPDEST SWAP1 SSTORE JUMP JUMPDEST MLOAD SWAP1 JUMP JUMPDEST PUSH1 0x1F PUSH1 0x20 SWAP2 ADD DIV SWAP1 JUMP JUMPDEST SHL SWAP1 JUMP JUMPDEST SWAP2 SWAP1 PUSH1 0x8 PUSH2 0x1860 SWAP2 MUL SWAP2 PUSH2 0x185A PUSH0 NOT DUP5 PUSH2 0x1841 JUMP JUMPDEST SWAP3 PUSH2 0x1841 JUMP JUMPDEST SWAP2 DUP2 NOT AND SWAP2 AND OR SWAP1 JUMP JUMPDEST PUSH2 0x187E PUSH2 0x1879 PUSH2 0x1883 SWAP3 PUSH2 0x144 JUMP JUMPDEST PUSH2 0x1090 JUMP JUMPDEST PUSH2 0x144 JUMP JUMPDEST SWAP1 JUMP JUMPDEST SWAP1 JUMP JUMPDEST SWAP2 SWAP1 PUSH2 0x189F PUSH2 0x189A PUSH2 0x18A7 SWAP4 PUSH2 0x186A JUMP JUMPDEST PUSH2 0x1886 JUMP JUMPDEST SWAP1 DUP4 SLOAD PUSH2 0x1845 JUMP JUMPDEST SWAP1 SSTORE JUMP JUMPDEST PUSH0 SWAP1 JUMP JUMPDEST PUSH2 0x18C1 SWAP2 PUSH2 0x18BB PUSH2 0x18AB JUMP JUMPDEST SWAP2 PUSH2 0x1889 JUMP JUMPDEST JUMP JUMPDEST JUMPDEST DUP2 DUP2 LT PUSH2 0x18CF JUMPI POP POP JUMP JUMPDEST DUP1 PUSH2 0x18DC PUSH0 PUSH1 0x1 SWAP4 PUSH2 0x18AF JUMP JUMPDEST ADD PUSH2 0x18C4 JUMP JUMPDEST SWAP2 SWAP1 PUSH1 0x1F DUP2 GT PUSH2 0x18F2 JUMPI JUMPDEST POP POP POP JUMP JUMPDEST PUSH2 0x18FE PUSH2 0x1923 SWAP4 PUSH2 0x8A6 JUMP JUMPDEST SWAP1 PUSH1 0x20 PUSH2 0x190A DUP5 PUSH2 0x1837 JUMP JUMPDEST DUP4 ADD SWAP4 LT PUSH2 0x192B JUMPI JUMPDEST PUSH2 0x191C SWAP1 PUSH2 0x1837 JUMP JUMPDEST ADD SWAP1 PUSH2 0x18C3 JUMP JUMPDEST PUSH0 DUP1 DUP1 PUSH2 0x18ED JUMP JUMPDEST SWAP2 POP PUSH2 0x191C DUP2 SWAP3 SWAP1 POP PUSH2 0x1913 JUMP JUMPDEST SWAP1 PUSH2 0x1949 SWAP1 PUSH0 NOT SWAP1 PUSH1 0x8 MUL PUSH2 0x104C JUMP JUMPDEST NOT AND SWAP1 JUMP JUMPDEST DUP2 PUSH2 0x1958 SWAP2 PUSH2 0x1939 JUMP JUMPDEST SWAP1 PUSH1 0x2 MUL OR SWAP1 JUMP JUMPDEST SWAP1 PUSH2 0x196A DUP2 PUSH2 0x195 JUMP JUMPDEST SWAP1 PUSH8 0xFFFFFFFFFFFFFFFF DUP3 GT PUSH2 0x1A2A JUMPI PUSH2 0x198E DUP3 PUSH2 0x1988 DUP6 SLOAD PUSH2 0x87C JUMP JUMPDEST DUP6 PUSH2 0x18E2 JUMP JUMPDEST PUSH1 0x20 SWAP1 PUSH1 0x1F DUP4 GT PUSH1 0x1 EQ PUSH2 0x19C2 JUMPI SWAP2 DUP1 SWAP2 PUSH2 0x19B1 SWAP4 PUSH0 SWAP3 PUSH2 0x19B6 JUMPI JUMPDEST POP POP PUSH2 0x194E JUMP JUMPDEST SWAP1 SSTORE JUMPDEST JUMP JUMPDEST SWAP1 SWAP2 POP ADD MLOAD PUSH0 DUP1 PUSH2 0x19AA JUMP JUMPDEST PUSH1 0x1F NOT DUP4 AND SWAP2 PUSH2 0x19D1 DUP6 PUSH2 0x8A6 JUMP JUMPDEST SWAP3 PUSH0 JUMPDEST DUP2 DUP2 LT PUSH2 0x1A12 JUMPI POP SWAP2 PUSH1 0x2 SWAP4 SWAP2 DUP6 PUSH1 0x1 SWAP7 SWAP5 LT PUSH2 0x19F8 JUMPI JUMPDEST POP POP POP MUL ADD SWAP1 SSTORE PUSH2 0x19B4 JUMP JUMPDEST PUSH2 0x1A08 SWAP2 ADD MLOAD PUSH1 0x1F DUP5 AND SWAP1 PUSH2 0x1939 JUMP JUMPDEST SWAP1 SSTORE PUSH0 DUP1 DUP1 PUSH2 0x19EC JUMP JUMPDEST SWAP2 SWAP4 PUSH1 0x20 PUSH1 0x1 DUP2 SWAP3 DUP8 DUP8 ADD MLOAD DUP2 SSTORE ADD SWAP6 ADD SWAP3 ADD PUSH2 0x19D4 JUMP JUMPDEST PUSH2 0x3C7 JUMP JUMPDEST SWAP1 PUSH2 0x1A39 SWAP2 PUSH2 0x1960 JUMP JUMPDEST JUMP JUMPDEST SWAP1 PUSH2 0x1A7E PUSH1 0x40 PUSH1 0x1 PUSH2 0x1A84 SWAP5 PUSH2 0x1A5E PUSH0 DUP3 ADD PUSH2 0x1A58 PUSH0 DUP9 ADD PUSH2 0x1781 JUMP JUMPDEST SWAP1 PUSH2 0x17B8 JUMP JUMPDEST PUSH2 0x1A76 PUSH0 DUP3 ADD PUSH2 0x1A70 PUSH1 0x20 DUP9 ADD PUSH2 0x17D8 JUMP JUMPDEST SWAP1 PUSH2 0x1813 JUMP JUMPDEST ADD SWAP3 ADD PUSH2 0x1833 JUMP JUMPDEST SWAP1 PUSH2 0x1A2F JUMP JUMPDEST JUMP JUMPDEST SWAP1 PUSH2 0x1A90 SWAP2 PUSH2 0x1A3B JUMP JUMPDEST JUMP JUMPDEST PUSH2 0x1AA7 PUSH2 0x1AA1 PUSH1 0x2 DUP4 SWAP1 PUSH2 0x817 JUMP JUMPDEST POP PUSH2 0x1379 JUMP JUMPDEST SWAP1 PUSH2 0x1ACF PUSH2 0x1AB7 PUSH1 0x6 DUP5 ADD PUSH2 0x9D2 JUMP JUMPDEST PUSH2 0x1AC9 PUSH2 0x1AC3 PUSH0 PUSH2 0x21E JUMP JUMPDEST SWAP2 PUSH2 0x21E JUMP JUMPDEST EQ PUSH2 0x13D5 JUMP JUMPDEST PUSH2 0x1AF6 PUSH2 0x1ADE PUSH1 0x5 DUP5 ADD PUSH2 0x85B JUMP JUMPDEST PUSH2 0x1AF0 PUSH2 0x1AEA TIMESTAMP PUSH2 0x144 JUMP JUMPDEST SWAP2 PUSH2 0x144 JUMP JUMPDEST GT PUSH2 0x1457 JUMP JUMPDEST PUSH2 0x1B28 PUSH2 0x1B05 PUSH1 0x3 DUP5 ADD PUSH2 0x984 JUMP JUMPDEST PUSH2 0x1B22 PUSH2 0x1B1C PUSH2 0x1B17 PUSH1 0x3 DUP8 ADD PUSH2 0x9AB JUMP JUMPDEST PUSH2 0x1E8 JUMP JUMPDEST SWAP2 PUSH2 0x1E8 JUMP JUMPDEST LT PUSH2 0x14D9 JUMP JUMPDEST PUSH2 0x1B3A PUSH2 0x1B35 PUSH1 0x1 PUSH2 0x1516 JUMP JUMPDEST PUSH2 0x10BB JUMP JUMPDEST SWAP1 PUSH1 0x20 PUSH4 0x23B872DD SWAP3 CALLER SWAP1 PUSH2 0x1B76 PUSH0 PUSH2 0x1B52 ADDRESS PUSH2 0x1523 JUMP JUMPDEST SWAP7 PUSH2 0x1B81 PUSH2 0x1B62 PUSH1 0x2 DUP12 ADD PUSH2 0x85B JUMP JUMPDEST PUSH2 0x1B6A PUSH2 0x132 JUMP JUMPDEST SWAP10 DUP11 SWAP8 DUP9 SWAP7 DUP8 SWAP6 PUSH2 0x152F JUMP JUMPDEST DUP6 MSTORE PUSH1 0x4 DUP6 ADD PUSH2 0x1576 JUMP JUMPDEST SUB SWAP3 GAS CALL DUP1 ISZERO PUSH2 0x1C6D JUMPI PUSH2 0x1C3D SWAP5 PUSH2 0x1BA7 PUSH2 0x1C32 SWAP3 PUSH2 0x1C38 SWAP6 PUSH0 SWAP2 PUSH2 0x1C3F JUMPI JUMPDEST POP PUSH2 0x1611 JUMP JUMPDEST PUSH2 0x1BC5 PUSH1 0x3 DUP7 ADD PUSH2 0x1BBF PUSH2 0x1BBA DUP3 PUSH2 0x984 JUMP JUMPDEST PUSH2 0x164E JUMP JUMPDEST SWAP1 PUSH2 0x16A4 JUMP JUMPDEST PUSH2 0x1BF4 CALLER SWAP2 PUSH2 0x1BEB PUSH0 PUSH2 0x1BE2 PUSH2 0x1BD9 PUSH2 0x16C4 JUMP JUMPDEST SWAP6 PUSH0 DUP8 ADD PUSH2 0x16D1 JUMP JUMPDEST PUSH1 0x20 DUP6 ADD PUSH2 0x16DF JUMP JUMPDEST PUSH1 0x40 DUP4 ADD PUSH2 0x11C8 JUMP JUMPDEST SWAP4 PUSH1 0x4 SWAP3 SWAP1 PUSH2 0x1C2C PUSH2 0x1C27 PUSH2 0x1C17 PUSH1 0x3 PUSH2 0x1C10 PUSH1 0x4 DUP7 ADD PUSH2 0x85B JUMP JUMPDEST SWAP5 ADD PUSH2 0x984 JUMP JUMPDEST PUSH2 0x1C21 PUSH1 0x1 PUSH2 0x16F0 JUMP JUMPDEST SWAP1 PUSH2 0x170C JUMP JUMPDEST PUSH2 0x1730 JUMP JUMPDEST SWAP2 PUSH2 0x2A39 JUMP JUMPDEST SWAP1 PUSH2 0x1758 JUMP JUMPDEST PUSH2 0x1A86 JUMP JUMPDEST JUMP JUMPDEST PUSH2 0x1C60 SWAP2 POP PUSH1 0x20 RETURNDATASIZE DUP2 GT PUSH2 0x1C66 JUMPI JUMPDEST PUSH2 0x1C58 DUP2 DUP4 PUSH2 0x3DB JUMP JUMPDEST DUP2 ADD SWAP1 PUSH2 0x1558 JUMP JUMPDEST PUSH0 PUSH2 0x1BA1 JUMP JUMPDEST POP RETURNDATASIZE PUSH2 0x1C4E JUMP JUMPDEST PUSH2 0x15A8 JUMP JUMPDEST PUSH2 0x1C7C PUSH1 0xA0 PUSH2 0x404 JUMP JUMPDEST SWAP1 JUMP JUMPDEST PUSH2 0x1C89 PUSH1 0x60 PUSH2 0x404 JUMP JUMPDEST SWAP1 JUMP JUMPDEST PUSH0 SWAP1 JUMP JUMPDEST PUSH0 SWAP1 JUMP JUMPDEST PUSH2 0x1C9C PUSH2 0x1C7F JUMP JUMPDEST SWAP1 PUSH1 0x20 DUP1 DUP1 DUP5 PUSH2 0x1CAA PUSH2 0x1C8C JUMP JUMPDEST DUP2 MSTORE ADD PUSH2 0x1CB5 PUSH2 0x1C90 JUMP JUMPDEST DUP2 MSTORE ADD PUSH2 0x1CC0 PUSH2 0x1134 JUMP JUMPDEST DUP2 MSTORE POP POP JUMP JUMPDEST PUSH2 0x1CCE PUSH2 0x1C94 JUMP JUMPDEST SWAP1 JUMP JUMPDEST PUSH2 0x1CD9 PUSH2 0x1C72 JUMP JUMPDEST SWAP1 PUSH1 0x20 DUP1 DUP1 DUP1 DUP1 DUP7 PUSH2 0x1CE9 PUSH2 0x1CC6 JUMP JUMPDEST DUP2 MSTORE ADD PUSH2 0x1CF4 PUSH2 0x1130 JUMP JUMPDEST DUP2 MSTORE ADD PUSH2 0x1CFF PUSH2 0x1CC6 JUMP JUMPDEST DUP2 MSTORE ADD PUSH2 0x1D0A PUSH2 0x1130 JUMP JUMPDEST DUP2 MSTORE ADD PUSH2 0x1D15 PUSH2 0x113D JUMP JUMPDEST DUP2 MSTORE POP POP JUMP JUMPDEST PUSH2 0x1D23 PUSH2 0x1CD1 JUMP JUMPDEST SWAP1 JUMP JUMPDEST SWAP1 PUSH2 0x1D30 SWAP1 PUSH2 0x174C JUMP JUMPDEST PUSH0 MSTORE PUSH1 0x20 MSTORE PUSH1 0x40 PUSH0 KECCAK256 SWAP1 JUMP JUMPDEST PUSH1 0x1 DUP1 PUSH1 0xA0 SHL SUB AND SWAP1 JUMP JUMPDEST PUSH2 0x1D53 PUSH2 0x1D58 SWAP2 PUSH2 0x83F JUMP JUMPDEST PUSH2 0x1D3C JUMP JUMPDEST SWAP1 JUMP JUMPDEST PUSH2 0x1D65 SWAP1 SLOAD PUSH2 0x1D47 JUMP JUMPDEST SWAP1 JUMP JUMPDEST PUSH1 0xA0 SHR SWAP1 JUMP JUMPDEST PUSH1 0xFF AND SWAP1 JUMP JUMPDEST PUSH2 0x1D80 PUSH2 0x1D85 SWAP2 PUSH2 0x1D68 JUMP JUMPDEST PUSH2 0x1D6E JUMP JUMPDEST SWAP1 JUMP JUMPDEST PUSH2 0x1D92 SWAP1 SLOAD PUSH2 0x1D74 JUMP JUMPDEST SWAP1 JUMP JUMPDEST SWAP1 PUSH2 0x1DE3 PUSH2 0x1DDA PUSH1 0x1 PUSH2 0x1DA6 PUSH2 0x1C7F JUMP JUMPDEST SWAP5 PUSH2 0x1DBD PUSH2 0x1DB5 PUSH0 DUP4 ADD PUSH2 0x1D5B JUMP JUMPDEST PUSH0 DUP9 ADD PUSH2 0x16D1 JUMP JUMPDEST PUSH2 0x1DD4 PUSH2 0x1DCB PUSH0 DUP4 ADD PUSH2 0x1D88 JUMP JUMPDEST PUSH1 0x20 DUP9 ADD PUSH2 0x16DF JUMP JUMPDEST ADD PUSH2 0x948 JUMP JUMPDEST PUSH1 0x40 DUP5 ADD PUSH2 0x11C8 JUMP JUMPDEST JUMP JUMPDEST MSTORE JUMP JUMPDEST SWAP1 PUSH2 0x1E67 PUSH2 0x1E5E PUSH1 0x6 PUSH2 0x1DF9 PUSH2 0x1C72 JUMP JUMPDEST SWAP5 PUSH2 0x1E10 PUSH2 0x1E08 PUSH0 DUP4 ADD PUSH2 0x1D95 JUMP JUMPDEST PUSH0 DUP9 ADD PUSH2 0x1DE5 JUMP JUMPDEST PUSH2 0x1E28 PUSH2 0x1E1F PUSH1 0x2 DUP4 ADD PUSH2 0x85B JUMP JUMPDEST PUSH1 0x20 DUP9 ADD PUSH2 0x11BA JUMP JUMPDEST PUSH2 0x1E40 PUSH2 0x1E37 PUSH1 0x3 DUP4 ADD PUSH2 0x1D95 JUMP JUMPDEST PUSH1 0x40 DUP9 ADD PUSH2 0x1DE5 JUMP JUMPDEST PUSH2 0x1E58 PUSH2 0x1E4F PUSH1 0x5 DUP4 ADD PUSH2 0x85B JUMP JUMPDEST PUSH1 0x60 DUP9 ADD PUSH2 0x11BA JUMP JUMPDEST ADD PUSH2 0x9D2 JUMP JUMPDEST PUSH1 0x80 DUP5 ADD PUSH2 0x11D9 JUMP JUMPDEST JUMP JUMPDEST PUSH2 0x1E72 SWAP1 PUSH2 0x1DE8 JUMP JUMPDEST SWAP1 JUMP JUMPDEST PUSH2 0x1E94 PUSH2 0x1E9A SWAP3 PUSH2 0x1E9F SWAP5 PUSH2 0x1E88 PUSH2 0x1D1B JUMP JUMPDEST POP PUSH1 0x3 SWAP4 SWAP2 SWAP1 SWAP2 PUSH2 0x132D JUMP JUMPDEST SWAP1 PUSH2 0x1D26 JUMP JUMPDEST PUSH2 0x1E69 JUMP JUMPDEST SWAP1 JUMP JUMPDEST SWAP1 JUMP JUMPDEST SWAP1 JUMP JUMPDEST PUSH2 0x1EBC PUSH2 0x1EB7 PUSH2 0x1EC1 SWAP3 PUSH2 0x1EA5 JUMP JUMPDEST PUSH2 0x1090 JUMP JUMPDEST PUSH2 0x1E8 JUMP JUMPDEST SWAP1 JUMP JUMPDEST PUSH4 0x4E487B71 PUSH1 0xE0 SHL PUSH0 MSTORE PUSH1 0x12 PUSH1 0x4 MSTORE PUSH1 0x24 PUSH0 REVERT JUMPDEST PUSH2 0x1EE4 PUSH2 0x1EEA SWAP2 PUSH2 0x1E8 JUMP JUMPDEST SWAP2 PUSH2 0x1E8 JUMP JUMPDEST SWAP1 DUP2 ISZERO PUSH2 0x1EF5 JUMPI DIV SWAP1 JUMP JUMPDEST PUSH2 0x1EC4 JUMP JUMPDEST PUSH2 0x1F05 PUSH2 0x100 PUSH2 0x404 JUMP JUMPDEST SWAP1 JUMP JUMPDEST PUSH0 MSTORE PUSH1 0x20 PUSH0 KECCAK256 SWAP1 JUMP JUMPDEST SLOAD SWAP1 JUMP JUMPDEST PUSH2 0x1F1E DUP2 PUSH2 0x1F11 JUMP JUMPDEST DUP3 LT ISZERO PUSH2 0x1F38 JUMPI PUSH2 0x1F30 PUSH1 0x7 SWAP2 PUSH2 0x1F08 JUMP JUMPDEST SWAP2 MUL ADD SWAP1 PUSH0 SWAP1 JUMP JUMPDEST PUSH2 0x7F6 JUMP JUMPDEST PUSH2 0x1F47 SWAP1 MLOAD PUSH2 0x144 JUMP JUMPDEST SWAP1 JUMP JUMPDEST SWAP1 PUSH2 0x1F56 PUSH0 NOT SWAP2 PUSH2 0x166A JUMP JUMPDEST SWAP2 DUP2 NOT AND SWAP2 AND OR SWAP1 JUMP JUMPDEST SWAP1 PUSH2 0x1F75 PUSH2 0x1F70 PUSH2 0x1F7C SWAP3 PUSH2 0x186A JUMP JUMPDEST PUSH2 0x1886 JUMP JUMPDEST DUP3 SLOAD PUSH2 0x1F4A JUMP JUMPDEST SWAP1 SSTORE JUMP JUMPDEST PUSH2 0x1F8A SWAP1 MLOAD PUSH2 0x1E8 JUMP JUMPDEST SWAP1 JUMP JUMPDEST PUSH1 0x8 SHL SWAP1 JUMP JUMPDEST SWAP1 PUSH2 0x1FA0 PUSH2 0xFF00 SWAP2 PUSH2 0x1F8D JUMP JUMPDEST SWAP2 DUP2 NOT AND SWAP2 AND OR SWAP1 JUMP JUMPDEST SWAP1 PUSH2 0x1FBF PUSH2 0x1FBA PUSH2 0x1FC6 SWAP3 PUSH2 0x1685 JUMP JUMPDEST PUSH2 0x16A1 JUMP JUMPDEST DUP3 SLOAD PUSH2 0x1F93 JUMP JUMPDEST SWAP1 SSTORE JUMP JUMPDEST PUSH2 0x1FD4 SWAP1 MLOAD PUSH2 0x21E JUMP JUMPDEST SWAP1 JUMP JUMPDEST PUSH2 0x1FE0 SWAP1 PUSH2 0x21E JUMP JUMPDEST SWAP1 JUMP JUMPDEST SWAP1 JUMP JUMPDEST SWAP1 PUSH2 0x1FFB PUSH2 0x1FF6 PUSH2 0x2002 SWAP3 PUSH2 0x1FD7 JUMP JUMPDEST PUSH2 0x1FE3 JUMP JUMPDEST DUP3 SLOAD PUSH2 0x166F JUMP JUMPDEST SWAP1 SSTORE JUMP JUMPDEST SWAP1 PUSH2 0x20C7 PUSH1 0xE0 PUSH1 0x6 PUSH2 0x20CD SWAP5 PUSH2 0x2029 PUSH0 DUP3 ADD PUSH2 0x2023 PUSH0 DUP9 ADD PUSH2 0x1F3D JUMP JUMPDEST SWAP1 PUSH2 0x1F60 JUMP JUMPDEST PUSH2 0x2042 PUSH1 0x1 DUP3 ADD PUSH2 0x203C PUSH1 0x20 DUP9 ADD PUSH2 0x1833 JUMP JUMPDEST SWAP1 PUSH2 0x1A2F JUMP JUMPDEST PUSH2 0x205B PUSH1 0x2 DUP3 ADD PUSH2 0x2055 PUSH1 0x40 DUP9 ADD PUSH2 0x1F3D JUMP JUMPDEST SWAP1 PUSH2 0x1F60 JUMP JUMPDEST PUSH2 0x2074 PUSH1 0x3 DUP3 ADD PUSH2 0x206E PUSH1 0x60 DUP9 ADD PUSH2 0x1F80 JUMP JUMPDEST SWAP1 PUSH2 0x16A4 JUMP JUMPDEST PUSH2 0x208D PUSH1 0x3 DUP3 ADD PUSH2 0x2087 PUSH1 0x80 DUP9 ADD PUSH2 0x1F80 JUMP JUMPDEST SWAP1 PUSH2 0x1FAA JUMP JUMPDEST PUSH2 0x20A6 PUSH1 0x4 DUP3 ADD PUSH2 0x20A0 PUSH1 0xA0 DUP9 ADD PUSH2 0x1F3D JUMP JUMPDEST SWAP1 PUSH2 0x1F60 JUMP JUMPDEST PUSH2 0x20BF PUSH1 0x5 DUP3 ADD PUSH2 0x20B9 PUSH1 0xC0 DUP9 ADD PUSH2 0x1F3D JUMP JUMPDEST SWAP1 PUSH2 0x1F60 JUMP JUMPDEST ADD SWAP3 ADD PUSH2 0x1FCA JUMP JUMPDEST SWAP1 PUSH2 0x1FE6 JUMP JUMPDEST JUMP JUMPDEST SWAP2 SWAP1 PUSH2 0x20E0 JUMPI PUSH2 0x20DE SWAP2 PUSH2 0x2006 JUMP JUMPDEST JUMP JUMPDEST PUSH2 0x176E JUMP JUMPDEST SWAP1 DUP2 SLOAD SWAP2 PUSH9 0x10000000000000000 DUP4 LT ISZERO PUSH2 0x2115 JUMPI DUP3 PUSH2 0x210D SWAP2 PUSH1 0x1 PUSH2 0x2113 SWAP6 ADD DUP2 SSTORE PUSH2 0x1F15 JUMP JUMPDEST SWAP1 PUSH2 0x20CF JUMP JUMPDEST JUMP JUMPDEST PUSH2 0x3C7 JUMP JUMPDEST PUSH2 0x212E PUSH2 0x2129 PUSH2 0x2133 SWAP3 PUSH2 0x16ED JUMP JUMPDEST PUSH2 0x1090 JUMP JUMPDEST PUSH2 0x144 JUMP JUMPDEST SWAP1 JUMP JUMPDEST PUSH2 0x2145 PUSH2 0x214B SWAP2 SWAP4 SWAP3 SWAP4 PUSH2 0x144 JUMP JUMPDEST SWAP3 PUSH2 0x144 JUMP JUMPDEST DUP3 SUB SWAP2 DUP3 GT PUSH2 0x2156 JUMPI JUMP JUMPDEST PUSH2 0x163A JUMP JUMPDEST SWAP1 JUMP JUMPDEST PUSH2 0x2172 PUSH2 0x216D PUSH2 0x2177 SWAP3 PUSH2 0x215B JUMP JUMPDEST PUSH2 0x1090 JUMP JUMPDEST PUSH2 0x144 JUMP JUMPDEST SWAP1 JUMP JUMPDEST SWAP1 SWAP4 SWAP3 SWAP2 SWAP4 PUSH2 0x2191 PUSH2 0x218C PUSH1 0x1 PUSH2 0x1516 JUMP JUMPDEST PUSH2 0x10BB JUMP JUMPDEST PUSH1 0x20 PUSH4 0x23B872DD SWAP2 CALLER SWAP1 PUSH2 0x21C1 PUSH0 PUSH2 0x21A8 ADDRESS PUSH2 0x1523 JUMP JUMPDEST SWAP6 PUSH2 0x21CC DUP9 PUSH2 0x21B5 PUSH2 0x132 JUMP JUMPDEST SWAP9 DUP10 SWAP8 DUP9 SWAP7 DUP8 SWAP6 PUSH2 0x152F JUMP JUMPDEST DUP6 MSTORE PUSH1 0x4 DUP6 ADD PUSH2 0x1576 JUMP JUMPDEST SUB SWAP3 GAS CALL DUP1 ISZERO PUSH2 0x2380 JUMPI PUSH2 0x21E7 SWAP2 PUSH0 SWAP2 PUSH2 0x2352 JUMPI JUMPDEST POP PUSH2 0x1611 JUMP JUMPDEST PUSH1 0x2 PUSH2 0x21F2 SWAP1 PUSH2 0x1EA2 JUMP JUMPDEST SWAP3 PUSH1 0x2 PUSH2 0x21FE SWAP1 PUSH2 0x80A JUMP JUMPDEST SWAP3 SWAP2 SWAP1 PUSH1 0x1 DUP8 SWAP1 DUP9 PUSH1 0x2 PUSH2 0x2211 SWAP1 PUSH2 0x1EA8 JUMP JUMPDEST PUSH2 0x221A SWAP2 PUSH2 0x1ED8 JUMP JUMPDEST SWAP3 SWAP4 PUSH0 SWAP6 PUSH2 0x2226 PUSH2 0x1EFA JUMP JUMPDEST SWAP8 PUSH0 DUP10 ADD SWAP1 PUSH2 0x2234 SWAP2 PUSH2 0x11BA JUMP JUMPDEST PUSH1 0x20 DUP9 ADD SWAP1 PUSH2 0x2242 SWAP2 PUSH2 0x11C8 JUMP JUMPDEST PUSH1 0x40 DUP8 ADD SWAP1 PUSH2 0x2250 SWAP2 PUSH2 0x11BA JUMP JUMPDEST PUSH2 0x2259 SWAP1 PUSH2 0x16F0 JUMP JUMPDEST PUSH1 0x60 DUP7 ADD SWAP1 PUSH2 0x2267 SWAP2 PUSH2 0x11CB JUMP JUMPDEST PUSH1 0x80 DUP6 ADD SWAP1 PUSH2 0x2275 SWAP2 PUSH2 0x11CB JUMP JUMPDEST PUSH2 0x227E SWAP1 PUSH2 0x1730 JUMP JUMPDEST PUSH1 0xA0 DUP5 ADD SWAP1 PUSH2 0x228C SWAP2 PUSH2 0x11BA JUMP JUMPDEST PUSH1 0xC0 DUP4 ADD SWAP1 PUSH2 0x229A SWAP2 PUSH2 0x11BA JUMP JUMPDEST PUSH1 0xE0 DUP3 ADD SWAP1 PUSH2 0x22A8 SWAP2 PUSH2 0x11D9 JUMP JUMPDEST PUSH2 0x22B1 SWAP2 PUSH2 0x20E5 JUMP JUMPDEST CALLER SWAP1 PUSH0 PUSH2 0x22BC PUSH2 0x16C4 JUMP JUMPDEST SWAP3 PUSH0 DUP5 ADD SWAP1 PUSH2 0x22CA SWAP2 PUSH2 0x16D1 JUMP JUMPDEST PUSH1 0x20 DUP4 ADD SWAP1 PUSH2 0x22D8 SWAP2 PUSH2 0x16DF JUMP JUMPDEST PUSH1 0x40 DUP3 ADD SWAP1 PUSH2 0x22E6 SWAP2 PUSH2 0x11C8 JUMP JUMPDEST SWAP1 PUSH1 0x4 SWAP1 PUSH1 0x2 PUSH2 0x22F5 SWAP1 PUSH2 0x80A JUMP JUMPDEST PUSH1 0x1 PUSH2 0x2300 SWAP1 PUSH2 0x211A JUMP JUMPDEST PUSH2 0x2309 SWAP2 PUSH2 0x2136 JUMP JUMPDEST SWAP1 PUSH1 0x2 PUSH2 0x2315 SWAP1 PUSH2 0x1EA8 JUMP JUMPDEST PUSH2 0x231E SWAP2 PUSH2 0x1ED8 JUMP JUMPDEST PUSH0 SWAP1 PUSH2 0x2329 SWAP1 PUSH2 0x1730 JUMP JUMPDEST SWAP1 PUSH2 0x2333 SWAP1 PUSH2 0x215E JUMP JUMPDEST SWAP1 PUSH2 0x233D SWAP3 PUSH2 0x2A39 JUMP JUMPDEST PUSH2 0x2346 SWAP2 PUSH2 0x1758 JUMP JUMPDEST SWAP1 PUSH2 0x2350 SWAP2 PUSH2 0x1A86 JUMP JUMPDEST JUMP JUMPDEST PUSH2 0x2373 SWAP2 POP PUSH1 0x20 RETURNDATASIZE DUP2 GT PUSH2 0x2379 JUMPI JUMPDEST PUSH2 0x236B DUP2 DUP4 PUSH2 0x3DB JUMP JUMPDEST DUP2 ADD SWAP1 PUSH2 0x1558 JUMP JUMPDEST PUSH0 PUSH2 0x21E1 JUMP JUMPDEST POP RETURNDATASIZE PUSH2 0x2361 JUMP JUMPDEST PUSH2 0x15A8 JUMP JUMPDEST PUSH2 0x2399 PUSH2 0x2394 PUSH2 0x239E SWAP3 PUSH2 0x729 JUMP JUMPDEST PUSH2 0x1090 JUMP JUMPDEST PUSH2 0x144 JUMP JUMPDEST SWAP1 JUMP JUMPDEST SWAP1 JUMP JUMPDEST PUSH0 PUSH32 0x746F75726E616D656E742069736E277420657870697265640000000000000000 SWAP2 ADD MSTORE JUMP JUMPDEST PUSH2 0x23D8 PUSH1 0x18 PUSH1 0x20 SWAP3 PUSH2 0xA76 JUMP JUMPDEST PUSH2 0x23E1 DUP2 PUSH2 0x23A4 JUMP JUMPDEST ADD SWAP1 JUMP JUMPDEST PUSH2 0x23FA SWAP1 PUSH1 0x20 DUP2 ADD SWAP1 PUSH0 DUP2 DUP4 SUB SWAP2 ADD MSTORE PUSH2 0x23CB JUMP JUMPDEST SWAP1 JUMP JUMPDEST ISZERO PUSH2 0x2404 JUMPI JUMP JUMPDEST PUSH2 0x240C PUSH2 0x132 JUMP JUMPDEST PUSH3 0x461BCD PUSH1 0xE5 SHL DUP2 MSTORE DUP1 PUSH2 0x2422 PUSH1 0x4 DUP3 ADD PUSH2 0x23E5 JUMP JUMPDEST SUB SWAP1 REVERT JUMPDEST PUSH0 PUSH32 0x7573657220616C726561647920636C61696D656420726566756E640000000000 SWAP2 ADD MSTORE JUMP JUMPDEST PUSH2 0x245A PUSH1 0x1B PUSH1 0x20 SWAP3 PUSH2 0xA76 JUMP JUMPDEST PUSH2 0x2463 DUP2 PUSH2 0x2426 JUMP JUMPDEST ADD SWAP1 JUMP JUMPDEST PUSH2 0x247C SWAP1 PUSH1 0x20 DUP2 ADD SWAP1 PUSH0 DUP2 DUP4 SUB SWAP2 ADD MSTORE PUSH2 0x244D JUMP JUMPDEST SWAP1 JUMP JUMPDEST ISZERO PUSH2 0x2486 JUMPI JUMP JUMPDEST PUSH2 0x248E PUSH2 0x132 JUMP JUMPDEST PUSH3 0x461BCD PUSH1 0xE5 SHL DUP2 MSTORE DUP1 PUSH2 0x24A4 PUSH1 0x4 DUP3 ADD PUSH2 0x2467 JUMP JUMPDEST SUB SWAP1 REVERT JUMPDEST SWAP2 PUSH1 0x20 PUSH2 0x24C9 SWAP3 SWAP5 SWAP4 PUSH2 0x24C2 PUSH1 0x40 DUP3 ADD SWAP7 PUSH0 DUP4 ADD SWAP1 PUSH2 0xB86 JUMP JUMPDEST ADD SWAP1 PUSH2 0xA69 JUMP JUMPDEST JUMP JUMPDEST PUSH2 0x2518 PUSH2 0x2513 PUSH2 0x256D SWAP3 PUSH2 0x250D PUSH2 0x24ED PUSH2 0x24E7 PUSH1 0x2 DUP5 SWAP1 PUSH2 0x817 JUMP JUMPDEST POP PUSH2 0x12B0 JUMP JUMPDEST SWAP6 PUSH1 0x4 SWAP3 SWAP1 PUSH2 0x2507 PUSH2 0x2501 PUSH1 0xA0 DUP11 ADD PUSH2 0x1F3D JUMP JUMPDEST SWAP2 PUSH2 0x2385 JUMP JUMPDEST SWAP2 PUSH2 0x2A39 JUMP JUMPDEST SWAP1 PUSH2 0x1758 JUMP JUMPDEST PUSH2 0x23A1 JUMP JUMPDEST PUSH2 0x2524 PUSH1 0xE0 DUP5 ADD PUSH2 0x1FCA JUMP JUMPDEST PUSH2 0x2537 PUSH2 0x2531 PUSH1 0x3 PUSH2 0x21E JUMP JUMPDEST SWAP2 PUSH2 0x21E JUMP JUMPDEST EQ DUP1 PUSH2 0x25FF JUMPI JUMPDEST PUSH2 0x2547 SWAP1 PUSH2 0x23FD JUMP JUMPDEST PUSH2 0x2563 PUSH2 0x255E PUSH2 0x2558 PUSH0 DUP5 ADD PUSH2 0x1D88 JUMP JUMPDEST ISZERO PUSH2 0x542 JUMP JUMPDEST PUSH2 0x247F JUMP JUMPDEST PUSH0 PUSH1 0x1 SWAP2 ADD PUSH2 0x1813 JUMP JUMPDEST PUSH1 0x20 PUSH2 0x2581 PUSH2 0x257C PUSH1 0x1 PUSH2 0x1516 JUMP JUMPDEST PUSH2 0x10BB JUMP JUMPDEST SWAP2 PUSH4 0xA9059CBB SWAP3 PUSH2 0x25B1 PUSH0 PUSH2 0x2599 PUSH1 0x40 CALLER SWAP6 ADD PUSH2 0x1F3D JUMP JUMPDEST SWAP6 PUSH2 0x25BC PUSH2 0x25A5 PUSH2 0x132 JUMP JUMPDEST SWAP8 DUP9 SWAP7 DUP8 SWAP6 DUP7 SWAP5 PUSH2 0x152F JUMP JUMPDEST DUP5 MSTORE PUSH1 0x4 DUP5 ADD PUSH2 0x24A8 JUMP JUMPDEST SUB SWAP3 GAS CALL DUP1 ISZERO PUSH2 0x25FA JUMPI PUSH2 0x25CE JUMPI JUMPDEST POP JUMP JUMPDEST PUSH2 0x25EE SWAP1 PUSH1 0x20 RETURNDATASIZE DUP2 GT PUSH2 0x25F3 JUMPI JUMPDEST PUSH2 0x25E6 DUP2 DUP4 PUSH2 0x3DB JUMP JUMPDEST DUP2 ADD SWAP1 PUSH2 0x1558 JUMP JUMPDEST PUSH2 0x25CB JUMP JUMPDEST POP RETURNDATASIZE PUSH2 0x25DC JUMP JUMPDEST PUSH2 0x15A8 JUMP JUMPDEST POP PUSH2 0x2547 PUSH2 0x260F PUSH1 0xC0 DUP6 ADD PUSH2 0x1F3D JUMP JUMPDEST PUSH2 0x2621 PUSH2 0x261B TIMESTAMP PUSH2 0x144 JUMP JUMPDEST SWAP2 PUSH2 0x144 JUMP JUMPDEST LT SWAP1 POP PUSH2 0x253E JUMP JUMPDEST PUSH2 0x2631 PUSH2 0x2B2F JUMP JUMPDEST PUSH2 0x2639 PUSH2 0x2663 JUMP JUMPDEST JUMP JUMPDEST PUSH2 0x264F PUSH2 0x264A PUSH2 0x2654 SWAP3 PUSH2 0x215B JUMP JUMPDEST PUSH2 0x1090 JUMP JUMPDEST PUSH2 0x51E JUMP JUMPDEST SWAP1 JUMP JUMPDEST PUSH2 0x2660 SWAP1 PUSH2 0x263B JUMP JUMPDEST SWAP1 JUMP JUMPDEST PUSH2 0x2674 PUSH2 0x266F PUSH0 PUSH2 0x2657 JUMP JUMPDEST PUSH2 0x2B7D JUMP JUMPDEST JUMP JUMPDEST PUSH2 0x267E PUSH2 0x2629 JUMP JUMPDEST JUMP JUMPDEST PUSH0 SWAP1 JUMP JUMPDEST PUSH2 0x268C PUSH2 0x2680 JUMP JUMPDEST POP PUSH2 0x2696 PUSH0 PUSH2 0x1D5B JUMP JUMPDEST SWAP1 JUMP JUMPDEST SWAP1 PUSH2 0x26AC SWAP3 SWAP2 PUSH2 0x26A7 PUSH2 0x2B2F JUMP JUMPDEST PUSH2 0x27B6 JUMP JUMPDEST JUMP JUMPDEST PUSH2 0x26C2 PUSH2 0x26BD PUSH2 0x26C7 SWAP3 PUSH2 0x1EA5 JUMP JUMPDEST PUSH2 0x1090 JUMP JUMPDEST PUSH2 0x144 JUMP JUMPDEST SWAP1 JUMP JUMPDEST PUSH2 0x26D9 PUSH2 0x26DF SWAP2 SWAP4 SWAP3 SWAP4 PUSH2 0x144 JUMP JUMPDEST SWAP3 PUSH2 0x144 JUMP JUMPDEST DUP3 ADD DUP1 SWAP3 GT PUSH2 0x26EA JUMPI JUMP JUMPDEST PUSH2 0x163A JUMP JUMPDEST POP SWAP1 JUMP JUMPDEST PUSH2 0x26FC SWAP1 PUSH2 0x1D95 JUMP JUMPDEST SWAP1 JUMP JUMPDEST PUSH2 0x2709 PUSH1 0xA0 PUSH2 0x404 JUMP JUMPDEST SWAP1 JUMP JUMPDEST MLOAD SWAP1 JUMP JUMPDEST SWAP1 PUSH2 0x2786 PUSH1 0x80 PUSH1 0x6 PUSH2 0x278C SWAP5 PUSH2 0x2733 PUSH0 DUP3 ADD PUSH2 0x272D PUSH0 DUP9 ADD PUSH2 0x270C JUMP JUMPDEST SWAP1 PUSH2 0x1A86 JUMP JUMPDEST PUSH2 0x274C PUSH1 0x2 DUP3 ADD PUSH2 0x2746 PUSH1 0x20 DUP9 ADD PUSH2 0x1F3D JUMP JUMPDEST SWAP1 PUSH2 0x1F60 JUMP JUMPDEST PUSH2 0x2765 PUSH1 0x3 DUP3 ADD PUSH2 0x275F PUSH1 0x40 DUP9 ADD PUSH2 0x270C JUMP JUMPDEST SWAP1 PUSH2 0x1A86 JUMP JUMPDEST PUSH2 0x277E PUSH1 0x5 DUP3 ADD PUSH2 0x2778 PUSH1 0x60 DUP9 ADD PUSH2 0x1F3D JUMP JUMPDEST SWAP1 PUSH2 0x1F60 JUMP JUMPDEST ADD SWAP3 ADD PUSH2 0x1FCA JUMP JUMPDEST SWAP1 PUSH2 0x1FE6 JUMP JUMPDEST JUMP JUMPDEST SWAP1 PUSH2 0x2798 SWAP2 PUSH2 0x2710 JUMP JUMPDEST JUMP JUMPDEST PUSH2 0x27A3 SWAP1 PUSH2 0x144 JUMP JUMPDEST PUSH0 NOT DUP2 EQ PUSH2 0x27B1 JUMPI PUSH1 0x1 ADD SWAP1 JUMP JUMPDEST PUSH2 0x163A JUMP JUMPDEST SWAP3 SWAP1 SWAP3 PUSH2 0x27CE PUSH2 0x27C8 PUSH1 0x2 DUP4 SWAP1 PUSH2 0x817 JUMP JUMPDEST POP PUSH2 0x1379 JUMP JUMPDEST SWAP2 PUSH2 0x27DD PUSH1 0x1 PUSH1 0x6 DUP6 ADD PUSH2 0x1FE6 JUMP JUMPDEST PUSH2 0x27E6 PUSH0 PUSH2 0x215E JUMP JUMPDEST SWAP5 PUSH2 0x27F0 PUSH0 PUSH2 0x215E JUMP JUMPDEST SWAP6 JUMPDEST DUP7 PUSH2 0x280F PUSH2 0x2809 PUSH2 0x2804 DUP6 DUP11 SWAP1 PUSH2 0x26EF JUMP JUMPDEST PUSH2 0x144 JUMP JUMPDEST SWAP2 PUSH2 0x144 JUMP JUMPDEST LT ISZERO PUSH2 0x2934 JUMPI PUSH2 0x2809 PUSH2 0x2804 PUSH2 0x292A PUSH2 0x2919 PUSH2 0x280F SWAP5 PUSH2 0x2914 DUP13 PUSH2 0x290F DUP12 PUSH2 0x2909 DUP15 PUSH2 0x285B PUSH2 0x2856 PUSH1 0x4 PUSH2 0x2850 DUP7 PUSH2 0x2849 PUSH1 0x4 DUP8 ADD PUSH2 0x85B JUMP JUMPDEST DUP11 SWAP2 PUSH2 0x2A39 JUMP JUMPDEST SWAP1 PUSH2 0x1758 JUMP JUMPDEST PUSH2 0x26F3 JUMP JUMPDEST PUSH2 0x28F2 PUSH2 0x289B PUSH2 0x2896 PUSH1 0x4 PUSH2 0x2890 DUP9 PUSH2 0x2876 PUSH1 0x4 DUP10 ADD PUSH2 0x85B JUMP JUMPDEST PUSH2 0x288A DUP14 PUSH2 0x2884 PUSH1 0x1 PUSH2 0x211A JUMP JUMPDEST SWAP1 PUSH2 0x26CA JUMP JUMPDEST SWAP2 PUSH2 0x2A39 JUMP JUMPDEST SWAP1 PUSH2 0x1758 JUMP JUMPDEST PUSH2 0x26F3 JUMP JUMPDEST PUSH2 0x28E9 PUSH2 0x28E0 PUSH0 SWAP3 PUSH2 0x28DB PUSH0 SWAP2 PUSH2 0x28D2 PUSH2 0x28C9 PUSH0 SWAP8 PUSH2 0x28C4 PUSH2 0x28BB PUSH2 0x26FF JUMP JUMPDEST SWAP12 PUSH0 DUP14 ADD PUSH2 0x1DE5 JUMP JUMPDEST PUSH2 0x215E JUMP JUMPDEST PUSH1 0x20 DUP11 ADD PUSH2 0x11BA JUMP JUMPDEST PUSH1 0x40 DUP9 ADD PUSH2 0x1DE5 JUMP JUMPDEST PUSH2 0x215E JUMP JUMPDEST PUSH1 0x60 DUP6 ADD PUSH2 0x11BA JUMP JUMPDEST PUSH1 0x80 DUP4 ADD PUSH2 0x11D9 JUMP JUMPDEST SWAP5 PUSH2 0x2902 PUSH1 0x4 PUSH1 0x3 SWAP6 SWAP4 ADD PUSH2 0x85B JUMP JUMPDEST SWAP1 SWAP2 PUSH2 0x132D JUMP JUMPDEST SWAP1 PUSH2 0x1D26 JUMP JUMPDEST PUSH2 0x278E JUMP JUMPDEST PUSH2 0x279A JUMP JUMPDEST SWAP10 PUSH2 0x2924 PUSH1 0x2 PUSH2 0x26AE JUMP JUMPDEST SWAP1 PUSH2 0x26CA JUMP JUMPDEST SWAP9 SWAP3 POP POP POP PUSH2 0x27F2 JUMP JUMPDEST POP POP SWAP4 POP POP POP POP JUMP JUMPDEST SWAP1 PUSH2 0x2948 SWAP3 SWAP2 PUSH2 0x2699 JUMP JUMPDEST JUMP JUMPDEST PUSH1 0x6 PUSH2 0x2963 PUSH2 0x295D PUSH2 0x2969 SWAP5 PUSH1 0x2 PUSH2 0x817 JUMP JUMPDEST POP PUSH2 0x1379 JUMP JUMPDEST ADD PUSH2 0x1FE6 JUMP JUMPDEST JUMP JUMPDEST PUSH2 0x2973 PUSH2 0x18AB JUMP JUMPDEST POP PUSH2 0x297E PUSH1 0x2 PUSH2 0x80A JUMP JUMPDEST SWAP1 JUMP JUMPDEST PUSH2 0x2989 PUSH2 0x1C94 JUMP JUMPDEST SWAP1 JUMP JUMPDEST PUSH2 0x29BB PUSH2 0x29C1 SWAP3 PUSH2 0x29C6 SWAP5 PUSH2 0x299F PUSH2 0x2981 JUMP JUMPDEST POP PUSH2 0x29B5 PUSH2 0x29AF PUSH1 0x4 SWAP6 SWAP4 PUSH2 0x1730 JUMP JUMPDEST SWAP2 PUSH2 0x2385 JUMP JUMPDEST SWAP2 PUSH2 0x2A39 JUMP JUMPDEST SWAP1 PUSH2 0x1758 JUMP JUMPDEST PUSH2 0x26F3 JUMP JUMPDEST SWAP1 JUMP JUMPDEST PUSH2 0x29DA SWAP1 PUSH2 0x29D5 PUSH2 0x2B2F JUMP JUMPDEST PUSH2 0x29DC JUMP JUMPDEST JUMP JUMPDEST DUP1 PUSH2 0x29F7 PUSH2 0x29F1 PUSH2 0x29EC PUSH0 PUSH2 0x2657 JUMP JUMPDEST PUSH2 0x529 JUMP JUMPDEST SWAP2 PUSH2 0x529 JUMP JUMPDEST EQ PUSH2 0x2A07 JUMPI PUSH2 0x2A05 SWAP1 PUSH2 0x2B7D JUMP JUMPDEST JUMP JUMPDEST PUSH2 0x2A2A PUSH2 0x2A13 PUSH0 PUSH2 0x2657 JUMP JUMPDEST PUSH0 SWAP2 DUP3 SWAP2 PUSH4 0x1E4FBDF7 PUSH1 0xE0 SHL DUP4 MSTORE PUSH1 0x4 DUP4 ADD PUSH2 0xB93 JUMP JUMPDEST SUB SWAP1 REVERT JUMPDEST PUSH2 0x2A37 SWAP1 PUSH2 0x29C9 JUMP JUMPDEST JUMP JUMPDEST SWAP1 PUSH2 0x2A60 PUSH2 0x2A6F SWAP3 PUSH2 0x2A49 PUSH2 0x12DC JUMP JUMPDEST POP SWAP2 SWAP4 PUSH2 0x2A54 PUSH2 0x132 JUMP JUMPDEST SWAP5 DUP6 SWAP4 PUSH1 0x20 DUP6 ADD PUSH2 0x12F8 JUMP JUMPDEST PUSH1 0x20 DUP3 ADD DUP2 SUB DUP3 MSTORE SUB DUP3 PUSH2 0x3DB JUMP JUMPDEST PUSH2 0x2A81 PUSH2 0x2A7B DUP3 PUSH2 0x1329 JUMP JUMPDEST SWAP2 PUSH2 0x1323 JUMP JUMPDEST KECCAK256 SWAP1 JUMP JUMPDEST PUSH1 0x60 SWAP1 JUMP JUMPDEST PUSH8 0xFFFFFFFFFFFFFFFF DUP2 GT PUSH2 0x2AA2 JUMPI PUSH1 0x20 DUP1 SWAP2 MUL ADD SWAP1 JUMP JUMPDEST PUSH2 0x3C7 JUMP JUMPDEST SWAP1 PUSH2 0x2AB9 PUSH2 0x2AB4 DUP4 PUSH2 0x2A8A JUMP JUMPDEST PUSH2 0x404 JUMP JUMPDEST SWAP2 DUP3 MSTORE JUMP JUMPDEST SWAP1 PUSH2 0x2AC8 DUP3 PUSH2 0x80A JUMP JUMPDEST PUSH2 0x2AD1 DUP2 PUSH2 0x2AA7 JUMP JUMPDEST SWAP3 PUSH2 0x2ADF PUSH1 0x20 DUP6 ADD SWAP2 PUSH2 0x80E JUMP JUMPDEST PUSH0 SWAP2 JUMPDEST DUP4 DUP4 LT PUSH2 0x2AEF JUMPI POP POP POP POP JUMP JUMPDEST PUSH1 0x7 PUSH1 0x20 PUSH1 0x1 SWAP3 PUSH2 0x2AFF DUP6 PUSH2 0x12B0 JUMP JUMPDEST DUP2 MSTORE ADD SWAP3 ADD SWAP3 ADD SWAP2 SWAP1 PUSH2 0x2AE2 JUMP JUMPDEST PUSH2 0x2B16 SWAP1 PUSH2 0x2ABE JUMP JUMPDEST SWAP1 JUMP JUMPDEST PUSH2 0x2B21 PUSH2 0x2A85 JUMP JUMPDEST POP PUSH2 0x2B2C PUSH1 0x2 PUSH2 0x2B0D JUMP JUMPDEST SWAP1 JUMP JUMPDEST PUSH2 0x2B37 PUSH2 0x2684 JUMP JUMPDEST PUSH2 0x2B50 PUSH2 0x2B4A PUSH2 0x2B45 PUSH2 0x2BDC JUMP JUMPDEST PUSH2 0x529 JUMP JUMPDEST SWAP2 PUSH2 0x529 JUMP JUMPDEST SUB PUSH2 0x2B57 JUMPI JUMP JUMPDEST PUSH2 0x2B79 PUSH2 0x2B62 PUSH2 0x2BDC JUMP JUMPDEST PUSH0 SWAP2 DUP3 SWAP2 PUSH4 0x118CDAA7 PUSH1 0xE0 SHL DUP4 MSTORE PUSH1 0x4 DUP4 ADD PUSH2 0xB93 JUMP JUMPDEST SUB SWAP1 REVERT JUMPDEST PUSH2 0x2B86 PUSH0 PUSH2 0x1D5B JUMP JUMPDEST PUSH2 0x2B90 DUP3 PUSH0 PUSH2 0x17B8 JUMP JUMPDEST SWAP1 PUSH2 0x2BC4 PUSH2 0x2BBE PUSH32 0x8BE0079C531659141344CD1FD0A4F28419497F9722A3DAAFE3B4186F6B6457E0 SWAP4 PUSH2 0x17A9 JUMP JUMPDEST SWAP2 PUSH2 0x17A9 JUMP JUMPDEST SWAP2 PUSH2 0x2BCD PUSH2 0x132 JUMP JUMPDEST DUP1 PUSH2 0x2BD7 DUP2 PUSH2 0x4E5 JUMP JUMPDEST SUB SWAP1 LOG3 JUMP JUMPDEST PUSH2 0x2BE4 PUSH2 0x2680 JUMP JUMPDEST POP CALLER SWAP1 JUMP INVALID LOG2 PUSH5 0x6970667358 0x22 SLT KECCAK256 0xC8 EXTCODEHASH GASLIMIT TSTORE SWAP5 0xCE DUP13 INVALID SWAP1 PUSH13 0x5F42E7CB782C1EF797C4C7472F 0xF8 PUSH11 0x368B761056702064736F6C PUSH4 0x4300081C STOP CALLER "},"methodIdentifiers":{"createTournament(string,uint256,uint8,uint256,string)":"43d2f8dd","getMatch(uint256,uint256,uint256)":"2c542b88","getMatchKey(uint256,uint256,uint256)":"1bd9103b","getPlayer(uint256,uint8,uint16)":"d670c0c7","getPlayerKey(uint256,uint256,uint256)":"f4716df2","getTournament(uint256)":"1a5bd7fc","getTournamentLength()":"c1deef52","getTournaments()":"f7f20cb3","joinTournament(uint256,string)":"22654955","owner()":"8da5cb5b","renounceOwnership()":"715018a6","setTournamentStatus(uint8,uint256)":"bf14c887","startTournament(uint256,uint256[])":"9d5d40fb","takeRefunds(uint256,uint16)":"51c33034","token()":"fc0c546a","tournaments(uint256)":"7503e1b7","transferOwnership(address)":"f2fde38b"}}}}}