{"project/contracts/TournamentFactory.sol":{"TournamentFactory":{"abi":[{"inputs":[],"stateMutability":"nonpayable","type":"constructor"},{"inputs":[{"internalType":"address","name":"spender","type":"address"},{"internalType":"uint256","name":"allowance","type":"uint256"},{"internalType":"uint256","name":"needed","type":"uint256"}],"name":"ERC20InsufficientAllowance","type":"error"},{"inputs":[{"internalType":"address","name":"sender","type":"address"},{"internalType":"uint256","name":"balance","type":"uint256"},{"internalType":"uint256","name":"needed","type":"uint256"}],"name":"ERC20InsufficientBalance","type":"error"},{"inputs":[{"internalType":"address","name":"approver","type":"address"}],"name":"ERC20InvalidApprover","type":"error"},{"inputs":[{"internalType":"address","name":"receiver","type":"address"}],"name":"ERC20InvalidReceiver","type":"error"},{"inputs":[{"internalType":"address","name":"sender","type":"address"}],"name":"ERC20InvalidSender","type":"error"},{"inputs":[{"internalType":"address","name":"spender","type":"address"}],"name":"ERC20InvalidSpender","type":"error"},{"inputs":[{"internalType":"address","name":"owner","type":"address"}],"name":"OwnableInvalidOwner","type":"error"},{"inputs":[{"internalType":"address","name":"account","type":"address"}],"name":"OwnableUnauthorizedAccount","type":"error"},{"anonymous":false,"inputs":[{"indexed":true,"internalType":"address","name":"owner","type":"address"},{"indexed":true,"internalType":"address","name":"spender","type":"address"},{"indexed":false,"internalType":"uint256","name":"value","type":"uint256"}],"name":"Approval","type":"event"},{"anonymous":false,"inputs":[{"indexed":true,"internalType":"address","name":"previousOwner","type":"address"},{"indexed":true,"internalType":"address","name":"newOwner","type":"address"}],"name":"OwnershipTransferred","type":"event"},{"anonymous":false,"inputs":[{"indexed":false,"internalType":"uint256","name":"id","type":"uint256"},{"indexed":false,"internalType":"uint256","name":"entryFee","type":"uint256"},{"indexed":false,"internalType":"uint8","name":"participants","type":"uint8"},{"indexed":false,"internalType":"uint256","name":"startDate","type":"uint256"},{"indexed":false,"internalType":"enum TournamentFactory.Status","name":"status","type":"uint8"}],"name":"TournamentCreated","type":"event"},{"anonymous":false,"inputs":[{"indexed":true,"internalType":"address","name":"from","type":"address"},{"indexed":true,"internalType":"address","name":"to","type":"address"},{"indexed":false,"internalType":"uint256","name":"value","type":"uint256"}],"name":"Transfer","type":"event"},{"inputs":[{"internalType":"address","name":"owner","type":"address"},{"internalType":"address","name":"spender","type":"address"}],"name":"allowance","outputs":[{"internalType":"uint256","name":"","type":"uint256"}],"stateMutability":"view","type":"function"},{"inputs":[{"internalType":"address","name":"spender","type":"address"},{"internalType":"uint256","name":"value","type":"uint256"}],"name":"approve","outputs":[{"internalType":"bool","name":"","type":"bool"}],"stateMutability":"nonpayable","type":"function"},{"inputs":[{"internalType":"address","name":"account","type":"address"}],"name":"balanceOf","outputs":[{"internalType":"uint256","name":"","type":"uint256"}],"stateMutability":"view","type":"function"},{"inputs":[{"internalType":"string","name":"_title","type":"string"},{"internalType":"uint256","name":"_entryFee","type":"uint256"},{"internalType":"uint8","name":"_participants","type":"uint8"},{"internalType":"uint256","name":"_startTime","type":"uint256"},{"internalType":"enum TournamentFactory.Status","name":"_status","type":"uint8"}],"name":"createTournament","outputs":[],"stateMutability":"nonpayable","type":"function"},{"inputs":[],"name":"decimals","outputs":[{"internalType":"uint8","name":"","type":"uint8"}],"stateMutability":"view","type":"function"},{"inputs":[{"internalType":"uint256","name":"id","type":"uint256"}],"name":"getTournament","outputs":[{"components":[{"internalType":"uint256","name":"id","type":"uint256"},{"internalType":"string","name":"title","type":"string"},{"internalType":"uint256","name":"entryFee","type":"uint256"},{"internalType":"uint8","name":"participants","type":"uint8"},{"internalType":"uint256","name":"startTime","type":"uint256"},{"internalType":"enum TournamentFactory.Status","name":"status","type":"uint8"},{"components":[{"internalType":"address","name":"player1","type":"address"},{"internalType":"uint256","name":"player1Score","type":"uint256"},{"internalType":"address","name":"player2","type":"address"},{"internalType":"uint256","name":"player2Score","type":"uint256"},{"internalType":"enum TournamentFactory.Status","name":"status","type":"uint8"}],"internalType":"struct TournamentFactory.Match[]","name":"matches","type":"tuple[]"}],"internalType":"struct TournamentFactory.Tournament","name":"","type":"tuple"}],"stateMutability":"view","type":"function"},{"inputs":[],"name":"getTournaments","outputs":[{"components":[{"internalType":"uint256","name":"id","type":"uint256"},{"internalType":"string","name":"title","type":"string"},{"internalType":"uint256","name":"entryFee","type":"uint256"},{"internalType":"uint8","name":"participants","type":"uint8"},{"internalType":"uint256","name":"startTime","type":"uint256"},{"internalType":"enum TournamentFactory.Status","name":"status","type":"uint8"},{"components":[{"internalType":"address","name":"player1","type":"address"},{"internalType":"uint256","name":"player1Score","type":"uint256"},{"internalType":"address","name":"player2","type":"address"},{"internalType":"uint256","name":"player2Score","type":"uint256"},{"internalType":"enum TournamentFactory.Status","name":"status","type":"uint8"}],"internalType":"struct TournamentFactory.Match[]","name":"matches","type":"tuple[]"}],"internalType":"struct TournamentFactory.Tournament[]","name":"","type":"tuple[]"}],"stateMutability":"view","type":"function"},{"inputs":[],"name":"name","outputs":[{"internalType":"string","name":"","type":"string"}],"stateMutability":"view","type":"function"},{"inputs":[],"name":"owner","outputs":[{"internalType":"address","name":"","type":"address"}],"stateMutability":"view","type":"function"},{"inputs":[],"name":"renounceOwnership","outputs":[],"stateMutability":"nonpayable","type":"function"},{"inputs":[],"name":"symbol","outputs":[{"internalType":"string","name":"","type":"string"}],"stateMutability":"view","type":"function"},{"inputs":[],"name":"totalSupply","outputs":[{"internalType":"uint256","name":"","type":"uint256"}],"stateMutability":"view","type":"function"},{"inputs":[{"internalType":"uint256","name":"","type":"uint256"}],"name":"tournaments","outputs":[{"internalType":"uint256","name":"id","type":"uint256"},{"internalType":"string","name":"title","type":"string"},{"internalType":"uint256","name":"entryFee","type":"uint256"},{"internalType":"uint8","name":"participants","type":"uint8"},{"internalType":"uint256","name":"startTime","type":"uint256"},{"internalType":"enum TournamentFactory.Status","name":"status","type":"uint8"}],"stateMutability":"view","type":"function"},{"inputs":[{"internalType":"address","name":"to","type":"address"},{"internalType":"uint256","name":"value","type":"uint256"}],"name":"transfer","outputs":[{"internalType":"bool","name":"","type":"bool"}],"stateMutability":"nonpayable","type":"function"},{"inputs":[{"internalType":"address","name":"from","type":"address"},{"internalType":"address","name":"to","type":"address"},{"internalType":"uint256","name":"value","type":"uint256"}],"name":"transferFrom","outputs":[{"internalType":"bool","name":"","type":"bool"}],"stateMutability":"nonpayable","type":"function"},{"inputs":[{"internalType":"address","name":"newOwner","type":"address"}],"name":"transferOwnership","outputs":[],"stateMutability":"nonpayable","type":"function"}],"evm":{"bytecode":{"linkReferences":{},"object":"60806040523461002757610011610183565b61001961002c565b6123ea6108f282396123ea90f35b610032565b60405190565b5f80fd5b601f801991011690565b634e487b7160e01b5f52604160045260245ffd5b9061005e90610036565b810190811060018060401b0382111761007657604052565b610040565b9061008e61008761002c565b9283610054565b565b60018060401b0381116100ac576100a8602091610036565b0190565b610040565b906100c36100be83610090565b61007b565b918252565b5f7f5452495a636f696e000000000000000000000000000000000000000000000000910152565b6100f960086100b1565b90610106602083016100c8565b565b6101106100ef565b90565b5f7f5452495a00000000000000000000000000000000000000000000000000000000910152565b61014460046100b1565b9061015160208301610113565b565b61015b61013a565b90565b90565b90565b90565b61017b6101766101809261015e565b610164565b610161565b90565b61019d61018e610108565b610196610153565b3391610405565b6101b2336101ac612710610167565b906104fc565b565b5190565b634e487b7160e01b5f52602260045260245ffd5b90600160028304921680156101ec575b60208310146101e757565b6101b8565b91607f16916101dc565b5f5260205f2090565b601f602091010490565b1b90565b919060086102289102916102225f1984610209565b92610209565b9181191691161790565b61024661024161024b92610161565b610164565b610161565b90565b90565b919061026761026261026f93610232565b61024e565b90835461020d565b9055565b5f90565b61028991610283610273565b91610251565b565b5b818110610297575050565b806102a45f600193610277565b0161028c565b9190601f81116102ba575b505050565b6102c66102eb936101f6565b9060206102d2846101ff565b830193106102f3575b6102e4906101ff565b019061028b565b5f80806102b5565b91506102e4819290506102db565b1c90565b90610315905f1990600802610301565b191690565b8161032491610305565b906002021790565b90610336816101b4565b9060018060401b0382116103f4576103588261035285546101cc565b856102aa565b602090601f831160011461038c5791809161037b935f92610380575b505061031a565b90555b565b90915001515f80610374565b601f1983169161039b856101f6565b925f5b8181106103dc575091600293918560019694106103c2575b5050500201905561037e565b6103d2910151601f841690610305565b90555f80806103b6565b9193602060018192878701518155019501920161039e565b610040565b906104039161032c565b565b61041c9061041561042394610425565b60046103f9565b60056103f9565b565b61042e90610430565b565b6104399061043b565b565b610444906104aa565b565b90565b60018060a01b031690565b61046861046361046d92610446565b610164565b610449565b90565b61047990610454565b90565b61048590610449565b90565b6104919061047c565b9052565b91906104a8905f60208501940190610488565b565b806104c56104bf6104ba5f610470565b61047c565b9161047c565b146104d5576104d390610607565b565b6104f86104e15f610470565b5f918291631e4fbdf760e01b835260048301610495565b0390fd5b8061051761051161050c5f610470565b61047c565b9161047c565b1461053357610531916105295f610470565b91909161077f565b565b61055661053f5f610470565b5f91829163ec442f0560e01b835260048301610495565b0390fd5b5f1c90565b60018060a01b031690565b61057661057b9161055a565b61055f565b90565b610588905461056a565b90565b5f1b90565b906105a160018060a01b039161058b565b9181191691161790565b6105bf6105ba6105c492610449565b610164565b610449565b90565b6105d0906105ab565b90565b6105dc906105c7565b90565b90565b906105f76105f26105fe926105d3565b6105df565b8254610590565b9055565b5f0190565b6106105f61057e565b61061a825f6105e2565b9061064e6106487f8be0079c531659141344cd1fd0a4f28419497f9722a3daafe3b4186f6b6457e0936105d3565b916105d3565b9161065761002c565b8061066181610602565b0390a3565b90610670906105d3565b5f5260205260405f2090565b90565b61068b6106909161055a565b61067c565b90565b61069d905461067f565b90565b6106a990610161565b9052565b6040906106d66106dd94969593966106cc60608401985f850190610488565b60208301906106a0565b01906106a0565b565b906106ea9103610161565b90565b906106f95f199161058b565b9181191691161790565b9061071861071361071f92610232565b61024e565b82546106ed565b9055565b634e487b7160e01b5f52601160045260245ffd5b61074661074c91939293610161565b92610161565b820180921161075757565b610723565b906107679101610161565b90565b919061077d905f602085019401906106a0565b565b9190918061079d6107976107925f610470565b61047c565b9161047c565b145f1461087f576107c16107ba836107b56003610693565b610737565b6003610703565b5b826107dd6107d76107d25f610470565b61047c565b9161047c565b145f14610852576108016107fa836107f56003610693565b6106df565b6003610703565b5b91909161084d61083b6108357fddf252ad1be2c89b69c2b068fc378daa952ba7f163c4a11628f55a4df523b3ef936105d3565b936105d3565b9361084461002c565b9182918261076a565b0390a3565b61087a8261087461086560018790610666565b9161086f83610693565b61075c565b90610703565b610802565b61089361088e60018390610666565b610693565b806108a66108a085610161565b91610161565b106108cf576108b96108ca9184906106df565b6108c560018490610666565b610703565b6107c2565b906108ed9091925f93849363391434e360e21b8552600485016106ad565b0390fdfe60806040526004361015610013575b610e4c565b61001d5f3561011c565b806306fdde0314610117578063095ea7b31461011257806318160ddd1461010d5780631a5bd7fc1461010857806323b872dd14610103578063313ce567146100fe57806370a08231146100f9578063715018a6146100f45780637503e1b7146100ef5780638da5cb5b146100ea57806395d89b41146100e5578063a9059cbb146100e0578063b7ebf9aa146100db578063dd62ed3e146100d6578063f2fde38b146100d15763f7f20cb30361000e57610e17565b610cb4565b610c7e565b610c1a565b610a92565b610a5d565b610a28565b6109ca565b6106bc565b610682565b61062f565b6105d7565b610568565b6102ef565b610297565b6101aa565b60e01c90565b60405190565b5f80fd5b5f80fd5b5f91031261013a57565b61012c565b5190565b60209181520190565b90825f9392825e0152565b601f801991011690565b61018061018960209361018e936101778161013f565b93848093610143565b9586910161014c565b610157565b0190565b6101a79160208201915f818403910152610161565b90565b346101da576101ba366004610130565b6101d66101c5610e61565b6101cd610122565b91829182610192565b0390f35b610128565b5f80fd5b60018060a01b031690565b6101f7906101e3565b90565b610203816101ee565b0361020a57565b5f80fd5b9050359061021b826101fa565b565b90565b6102298161021d565b0361023057565b5f80fd5b9050359061024182610220565b565b919060408382031261026b578061025f610268925f860161020e565b93602001610234565b90565b61012c565b151590565b61027e90610270565b9052565b9190610295905f60208501940190610275565b565b346102c8576102c46102b36102ad366004610243565b90610e7b565b6102bb610122565b91829182610282565b0390f35b610128565b6102d69061021d565b9052565b91906102ed905f602085019401906102cd565b565b3461031f576102ff366004610130565b61031b61030a610ea1565b610312610122565b918291826102da565b0390f35b610128565b9060208282031261033d5761033a915f01610234565b90565b61012c565b61034b9061021d565b9052565b60209181520190565b6103776103806020936103859361036e8161013f565b9384809361034f565b9586910161014c565b610157565b0190565b60ff1690565b61039890610389565b9052565b634e487b7160e01b5f52602160045260245ffd5b600311156103ba57565b61039c565b906103c9826103b0565b565b6103d4906103bf565b90565b6103e0906103cb565b9052565b5190565b60209181520190565b60200190565b610400906101ee565b9052565b9060808061045c9361041c5f8201515f8601906103f7565b61042e60208201516020860190610342565b610440604082015160408601906103f7565b61045260608201516060860190610342565b01519101906103d7565b565b9061046b8160a093610404565b0190565b60200190565b9061049261048c610485846103e4565b80936103e8565b926103f1565b905f5b8181106104a25750505090565b9091926104bb6104b5600192865161045e565b9461046f565b9101919091610495565b61054d9160c06104f460e083016104e25f8601515f860190610342565b60208501518482036020860152610358565b9261050760408201516040850190610342565b6105196060820151606085019061038f565b61052b60808201516080850190610342565b61053d60a082015160a08501906103d7565b01519060c0818403910152610475565b90565b6105659160208201915f8184039101526104c5565b90565b346105985761059461058361057e366004610324565b611198565b61058b610122565b91829182610550565b0390f35b610128565b90916060828403126105d2576105cf6105b8845f850161020e565b936105c6816020860161020e565b93604001610234565b90565b61012c565b34610608576106046105f36105ed36600461059d565b916111b8565b6105fb610122565b91829182610282565b0390f35b610128565b61061690610389565b9052565b919061062d905f6020850194019061060d565b565b3461065f5761063f366004610130565b61065b61064a61120d565b610652610122565b9182918261061a565b0390f35b610128565b9060208282031261067d5761067a915f0161020e565b90565b61012c565b346106b2576106ae61069d610698366004610664565b61126d565b6106a5610122565b918291826102da565b0390f35b610128565b5f0190565b346106ea576106cc366004610130565b6106d46112dc565b6106dc610122565b806106e6816106b7565b0390f35b610128565b634e487b7160e01b5f52603260045260245ffd5b5490565b5f5260205f2090565b61071981610703565b8210156107335761072b600791610707565b910201905f90565b6106ef565b5f1c90565b90565b61074c61075191610738565b61073d565b90565b61075e9054610740565b90565b634e487b7160e01b5f52602260045260245ffd5b9060016002830492168015610795575b602083101461079057565b610761565b91607f1691610785565b5f5260205f2090565b905f92918054906107c26107bb83610775565b809461034f565b916001811690815f1461081957506001146107dd575b505050565b6107ea919293945061079f565b915f925b81841061080157505001905f80806107d8565b600181602092959395548486015201910192906107ee565b92949550505060ff19168252151560200201905f80806107d8565b9061083e916107a8565b90565b634e487b7160e01b5f52604160045260245ffd5b9061085f90610157565b810190811067ffffffffffffffff82111761087957604052565b610841565b9061089e6108979261088e610122565b93848092610834565b0383610855565b565b60ff1690565b6108b26108b791610738565b6108a0565b90565b6108c490546108a6565b90565b60ff1690565b6108d96108de91610738565b6108c7565b90565b6108eb90546108cd565b90565b6006906108fa82610703565b81101561095a5761090a91610710565b50906109175f8301610754565b916109246001820161087e565b9161093160028301610754565b9161093e600382016108ba565b91610957600561095060048501610754565b93016108e1565b90565b5f80fd5b610967906103cb565b9052565b91946109b760a0949897956109ad6109a26109c1956109c89a61099560c08a01925f8b01906102cd565b88820360208a0152610161565b9a60408701906102cd565b606085019061060d565b60808301906102cd565b019061095e565b565b34610a01576109fd6109e56109e0366004610324565b6108ee565b926109f4969496929192610122565b9687968761096b565b0390f35b610128565b610a0f906101ee565b9052565b9190610a26905f60208501940190610a06565b565b34610a5857610a38366004610130565b610a54610a436112ea565b610a4b610122565b91829182610a13565b0390f35b610128565b34610a8d57610a6d366004610130565b610a89610a786112ff565b610a80610122565b91829182610192565b0390f35b610128565b34610ac357610abf610aae610aa8366004610243565b90611315565b610ab6610122565b91829182610282565b0390f35b610128565b5f80fd5b5f80fd5b90610ae3610adc610122565b9283610855565b565b67ffffffffffffffff8111610b0357610aff602091610157565b0190565b610841565b90825f939282370152565b90929192610b28610b2382610ae5565b610ad0565b93818552602085019082840111610b4457610b4292610b08565b565b610acc565b9080601f83011215610b6757816020610b6493359101610b13565b90565b610ac8565b610b7581610389565b03610b7c57565b5f80fd5b90503590610b8d82610b6c565b565b60031115610b9957565b5f80fd5b90503590610baa82610b8f565b565b919060a083820312610c15575f83013567ffffffffffffffff8111610c105781610bd7918501610b49565b92610be58260208301610234565b92610c0d610bf68460408501610b80565b93610c048160608601610234565b93608001610b9d565b90565b6101df565b61012c565b34610c4c57610c36610c2d366004610bac565b93929092611bbd565b610c3e610122565b80610c48816106b7565b0390f35b610128565b9190604083820312610c795780610c6d610c76925f860161020e565b9360200161020e565b90565b61012c565b34610caf57610cab610c9a610c94366004610c51565b90611d8b565b610ca2610122565b918291826102da565b0390f35b610128565b34610ce257610ccc610cc7366004610664565b611e18565b610cd4610122565b80610cde816106b7565b0390f35b610128565b5190565b60209181520190565b60200190565b610d829160c0610d2960e08301610d175f8601515f860190610342565b60208501518482036020860152610358565b92610d3c60408201516040850190610342565b610d4e6060820151606085019061038f565b610d6060808201516080850190610342565b610d7260a082015160a08501906103d7565b01519060c0818403910152610475565b90565b90610d8f91610cfa565b90565b60200190565b90610dac610da583610ce7565b8092610ceb565b9081610dbd60208302840194610cf4565b925f915b838310610dd057505050505090565b90919293946020610df2610dec83856001950387528951610d85565b97610d92565b9301930191939290610dc1565b610e149160208201915f818403910152610d98565b90565b34610e4757610e27366004610130565b610e43610e32611eb7565b610e3a610122565b91829182610dff565b0390f35b610128565b5f80fd5b606090565b610e5e9061087e565b90565b610e69610e50565b50610e746004610e55565b90565b5f90565b610e9891610e87610e77565b50610e90611ecd565b919091611eda565b600190565b5f90565b610ea9610e9d565b50610eb46003610754565b90565b610ec160e0610ad0565b90565b5f90565b606090565b5f90565b5f90565b606090565b610ee2610eb7565b90602080808080808088610ef4610ec4565b815201610eff610ec8565b815201610f0a610ec4565b815201610f15610ecd565b815201610f20610ec4565b815201610f2b610ed1565b815201610f36610ed5565b81525050565b610f44610eda565b90565b90610f519061021d565b9052565b52565b90610f6290610389565b9052565b90610f70906103bf565b9052565b5490565b67ffffffffffffffff8111610f905760208091020190565b610841565b90610fa7610fa283610f78565b610ad0565b918252565b5f5260205f2090565b60018060a01b031690565b610fcc610fd191610738565b610fb5565b90565b610fde9054610fc0565b90565b90610feb906101ee565b9052565b610ff960a0610ad0565b90565b9061107b611072600461100d610fef565b9461102461101c5f8301610fd4565b5f8801610fe1565b61103c61103360018301610754565b60208801610f47565b61105461104b60028301610fd4565b60408801610fe1565b61106c61106360038301610754565b60608801610f47565b016108e1565b60808401610f66565b565b61108690610ffc565b90565b9061109382610f74565b61109c81610f95565b926110aa6020850191610fac565b5f915b8383106110ba5750505050565b600560206001926110ca8561107d565b8152019201920191906110ad565b52565b9061118a61118160066110ec610eb7565b946111036110fb5f8301610754565b5f8801610f47565b61111b6111126001830161087e565b60208801610f55565b61113361112a60028301610754565b60408801610f47565b61114b611142600383016108ba565b60608801610f58565b61116361115a60048301610754565b60808801610f47565b61117b611172600583016108e1565b60a08801610f66565b01611089565b60c084016110d8565b565b611195906110db565b90565b6111af6111b5916111a7610f3c565b506006610710565b5061118c565b90565b916111e2926111c5610e77565b506111da6111d1611ecd565b82908491611f2a565b919091611fb6565b600190565b5f90565b90565b90565b61120561120061120a926111eb565b6111ee565b610389565b90565b6112156111e7565b5061122060126111f1565b90565b61123761123261123c926101e3565b6111ee565b6101e3565b90565b61124890611223565b90565b6112549061123f565b90565b906112619061124b565b5f5260205260405f2090565b6112846112899161127c610e9d565b506001611257565b610754565b90565b611294612053565b61129c6112c9565b565b90565b6112b56112b06112ba9261129e565b6111ee565b6101e3565b90565b6112c6906112a1565b90565b6112da6112d55f6112bd565b6120a1565b565b6112e461128c565b565b5f90565b6112f26112e6565b506112fc5f610fd4565b90565b611307610e50565b506113126005610e55565b90565b61133291611321610e77565b5061132a611ecd565b919091611fb6565b600190565b5f7f6e6f7420656e6f7567682063617368207374616e676572000000000000000000910152565b61136b6017602092610143565b61137481611337565b0190565b61138d9060208101905f81830391015261135e565b90565b1561139757565b61139f610122565b62461bcd60e51b8152806113b560048201611378565b0390fd5b90565b6113d06113cb6113d5926113b9565b6111ee565b61021d565b90565b5f90565b6113e4610fef565b90602080808080866113f46113d8565b8152016113ff610ec4565b81520161140a6113d8565b815201611415610ec4565b815201611420610ed1565b81525050565b61142e6113dc565b90565b5f5b82811061143f57505050565b60209061144a611426565b8184015201611433565b9061147961146183610f95565b9260208061146f8693610f78565b9201910390611431565b565b61148560a0610ad0565b90565b61149c6114976114a19261129e565b6111ee565b61021d565b90565b906114ae826103e4565b8110156114bf576020809102010190565b6106ef565b90565b6114d160e0610ad0565b90565b5f5260205f2090565b5490565b6114ea816114dd565b821015611504576114fc6007916114d4565b910201905f90565b6106ef565b634e487b7160e01b5f525f60045260245ffd5b611526905161021d565b90565b5f1b90565b9061153a5f1991611529565b9181191691161790565b61155861155361155d9261021d565b6111ee565b61021d565b90565b90565b9061157861157361157f92611544565b611560565b825461152e565b9055565b5190565b601f602091010490565b1b90565b919060086115b09102916115aa5f1984611591565b92611591565b9181191691161790565b91906115d06115cb6115d893611544565b611560565b908354611595565b9055565b6115ee916115e8610e9d565b916115ba565b565b5b8181106115fc575050565b806116095f6001936115dc565b016115f1565b9190601f811161161f575b505050565b61162b6116509361079f565b90602061163784611587565b83019310611658575b61164990611587565b01906115f0565b5f808061161a565b915061164981929050611640565b1c90565b9061167a905f1990600802611666565b191690565b816116899161166a565b906002021790565b9061169b8161013f565b9067ffffffffffffffff821161175b576116bf826116b98554610775565b8561160f565b602090601f83116001146116f3579180916116e2935f926116e7575b505061167f565b90555b565b90915001515f806116db565b601f198316916117028561079f565b925f5b81811061174357509160029391856001969410611729575b505050020190556116e5565b611739910151601f84169061166a565b90555f808061171d565b91936020600181928787015181550195019201611705565b610841565b9061176a91611691565b565b6117769051610389565b90565b9061178560ff91611529565b9181191691161790565b6117a361179e6117a892610389565b6111ee565b610389565b90565b90565b906117c36117be6117ca9261178f565b6117ab565b8254611779565b9055565b6117d890516103bf565b90565b6117e4906103bf565b90565b90565b906117ff6117fa611806926117db565b6117e7565b8254611779565b9055565b5190565b634e487b7160e01b5f52601160045260245ffd5b6118316118379193929361021d565b9261021d565b9161184383820261021d565b92818404149015171561185257565b61180e565b611862906005611822565b90565b60045f91828082015561187b83600183016115dc565b82600282015561188e83600383016115dc565b0155565b905f036118a4576118a290611865565b565b611509565b5b8181106118b5575050565b806118c25f600593611892565b016118aa565b90918281106118d7575b505050565b6118f56118ef6118e961190095611857565b92611857565b92610fac565b9182019101906118a9565b5f80806118d2565b90680100000000000000008111611931578161192661192f93610f74565b908281556118c8565b565b610841565b5190565b61194490516101ee565b90565b9061195860018060a01b0391611529565b9181191691161790565b90565b9061197a6119756119819261124b565b611962565b8254611947565b9055565b906119fb60806004611a01946119a85f82016119a25f880161193a565b90611965565b6119c1600182016119bb6020880161151c565b90611563565b6119da600282016119d46040880161193a565b90611965565b6119f3600382016119ed6060880161151c565b90611563565b0192016117ce565b906117ea565b565b90611a0d91611985565b565b611a34611a2e611a1e846103e4565b93611a298585611908565b6103f1565b91610fac565b5f915b838310611a445750505050565b6005602082611a5d611a57600195611936565b86611a03565b01920192019190611a37565b90611a7391611a0f565b565b90611b1d60c06006611b2394611a985f8201611a925f880161151c565b90611563565b611ab160018201611aab60208801611583565b90611760565b611aca60028201611ac46040880161151c565b90611563565b611ae360038201611add6060880161176c565b906117ae565b611afc60048201611af66080880161151c565b90611563565b611b1560058201611b0f60a088016117ce565b906117ea565b01920161180a565b90611a69565b565b9190611b3657611b3491611a75565b565b611509565b9081549168010000000000000000831015611b6b5782611b63916001611b69950181556114e1565b90611b25565b565b610841565b90959492611bbb94611baa611bb492611ba0608096611b9660a088019c5f8901906102cd565b60208701906102cd565b604085019061060d565b60608301906102cd565b019061095e565b565b33611bc79061126d565b82611bd19061021d565b90611bdb9061021d565b1015611be690611390565b6001611bf1906113bc565b611bfa90611454565b90335f5f611c07906112bd565b5f905f92611c1361147b565b945f860190611c2191610fe1565b611c2a90611488565b6020850190611c3891610f47565b6040840190611c4691610fe1565b611c4f90611488565b6060830190611c5d91610f47565b6080820190611c6b91610f66565b82905f90611c7882611488565b611c8290846114a4565b52611c8c90611488565b611c95916114a4565b51506006611ca2906114c4565b916006611cae90610703565b9190848688918a9394611cbf6114c7565b965f880190611ccd91610f47565b6020870190611cdb91610f55565b6040860190611ce991610f47565b6060850190611cf791610f58565b6080840190611d0591610f47565b60a0830190611d1391610f66565b60c0820190611d21916110d8565b611d2a91611b3b565b6006611d3590610703565b909192937f5200794ba7d5386d6d997f966e54f17526ab61032ac5e883f64d3ae762fbef5994611d63610122565b948594611d709486611b70565b0390a1565b90611d7f9061124b565b5f5260205260405f2090565b611db091611da6611dab92611d9e610e9d565b506002611d75565b611257565b610754565b90565b611dc490611dbf612053565b611dc6565b565b80611de1611ddb611dd65f6112bd565b6101ee565b916101ee565b14611df157611def906120a1565b565b611e14611dfd5f6112bd565b5f918291631e4fbdf760e01b835260048301610a13565b0390fd5b611e2190611db3565b565b606090565b67ffffffffffffffff8111611e405760208091020190565b610841565b90611e57611e5283611e28565b610ad0565b918252565b90611e6682610703565b611e6f81611e45565b92611e7d6020850191610707565b5f915b838310611e8d5750505050565b60076020600192611e9d8561118c565b815201920192019190611e80565b611eb490611e5c565b90565b611ebf611e23565b50611eca6006611eab565b90565b611ed56112e6565b503390565b91611ee89291600192612100565b565b604090611f13611f1a9496959396611f0960608401985f850190610a06565b60208301906102cd565b01906102cd565b565b90611f27910361021d565b90565b929192611f38818390611d8b565b9081611f4d611f475f1961021d565b9161021d565b10611f5a575b5050509050565b81611f6d611f678761021d565b9161021d565b10611f9357611f8a9394611f82919392611f1c565b905f92612100565b805f8080611f53565b50611fb2849291925f938493637dc7a0d960e11b855260048501611eea565b0390fd5b9182611fd2611fcc611fc75f6112bd565b6101ee565b916101ee565b1461202c5781611ff2611fec611fe75f6112bd565b6101ee565b916101ee565b146120055761200392919091612242565b565b6120286120115f6112bd565b5f91829163ec442f0560e01b835260048301610a13565b0390fd5b61204f6120385f6112bd565b5f918291634b637e8f60e11b835260048301610a13565b0390fd5b61205b6112ea565b61207461206e612069611ecd565b6101ee565b916101ee565b0361207b57565b61209d612086611ecd565b5f91829163118cdaa760e01b835260048301610a13565b0390fd5b6120aa5f610fd4565b6120b4825f611965565b906120e86120e27f8be0079c531659141344cd1fd0a4f28419497f9722a3daafe3b4186f6b6457e09361124b565b9161124b565b916120f1610122565b806120fb816106b7565b0390a3565b90928161211d6121176121125f6112bd565b6101ee565b916101ee565b146121e8578361213d6121376121325f6112bd565b6101ee565b916101ee565b146121c1576121618361215c61215560028690611d75565b8790611257565b611563565b61216b575b505050565b9190916121b66121a461219e7f8c5be1e5ebec7d5bd14f71427d1e84f3dd0314c0f7b2291e5b200ac8c7c3b9259361124b565b9361124b565b936121ad610122565b918291826102da565b0390a35f8080612166565b6121e46121cd5f6112bd565b5f918291634a1406b160e11b835260048301610a13565b0390fd5b61220b6121f45f6112bd565b5f91829163e602df0560e01b835260048301610a13565b0390fd5b61221e6122249193929361021d565b9261021d565b820180921161222f57565b61180e565b9061223f910161021d565b90565b9190918061226061225a6122555f6112bd565b6101ee565b916101ee565b145f146123425761228461227d836122786003610754565b61220f565b6003611563565b5b826122a061229a6122955f6112bd565b6101ee565b916101ee565b145f14612315576122c46122bd836122b86003610754565b611f1c565b6003611563565b5b9190916123106122fe6122f87fddf252ad1be2c89b69c2b068fc378daa952ba7f163c4a11628f55a4df523b3ef9361124b565b9361124b565b93612307610122565b918291826102da565b0390a3565b61233d8261233761232860018790611257565b9161233283610754565b612234565b90611563565b6122c5565b61235661235160018390611257565b610754565b806123696123638561021d565b9161021d565b106123925761237c61238d918490611f1c565b61238860018490611257565b611563565b612285565b906123b09091925f93849363391434e360e21b855260048501611eea565b0390fdfea264697066735822122073e7d79e6c847327d0f4cd99d7252faaff3598780d73f54ab6ae5758eb81ba2764736f6c634300081c0033","opcodes":"PUSH1 0x80 PUSH1 0x40 MSTORE CALLVALUE PUSH2 0x27 JUMPI PUSH2 0x11 PUSH2 0x183 JUMP JUMPDEST PUSH2 0x19 PUSH2 0x2C JUMP JUMPDEST PUSH2 0x23EA PUSH2 0x8F2 DUP3 CODECOPY PUSH2 0x23EA SWAP1 RETURN JUMPDEST PUSH2 0x32 JUMP JUMPDEST PUSH1 0x40 MLOAD SWAP1 JUMP JUMPDEST PUSH0 DUP1 REVERT JUMPDEST PUSH1 0x1F DUP1 NOT SWAP2 ADD AND SWAP1 JUMP JUMPDEST PUSH4 0x4E487B71 PUSH1 0xE0 SHL PUSH0 MSTORE PUSH1 0x41 PUSH1 0x4 MSTORE PUSH1 0x24 PUSH0 REVERT JUMPDEST SWAP1 PUSH2 0x5E SWAP1 PUSH2 0x36 JUMP JUMPDEST DUP2 ADD SWAP1 DUP2 LT PUSH1 0x1 DUP1 PUSH1 0x40 SHL SUB DUP3 GT OR PUSH2 0x76 JUMPI PUSH1 0x40 MSTORE JUMP JUMPDEST PUSH2 0x40 JUMP JUMPDEST SWAP1 PUSH2 0x8E PUSH2 0x87 PUSH2 0x2C JUMP JUMPDEST SWAP3 DUP4 PUSH2 0x54 JUMP JUMPDEST JUMP JUMPDEST PUSH1 0x1 DUP1 PUSH1 0x40 SHL SUB DUP2 GT PUSH2 0xAC JUMPI PUSH2 0xA8 PUSH1 0x20 SWAP2 PUSH2 0x36 JUMP JUMPDEST ADD SWAP1 JUMP JUMPDEST PUSH2 0x40 JUMP JUMPDEST SWAP1 PUSH2 0xC3 PUSH2 0xBE DUP4 PUSH2 0x90 JUMP JUMPDEST PUSH2 0x7B JUMP JUMPDEST SWAP2 DUP3 MSTORE JUMP JUMPDEST PUSH0 PUSH32 0x5452495A636F696E000000000000000000000000000000000000000000000000 SWAP2 ADD MSTORE JUMP JUMPDEST PUSH2 0xF9 PUSH1 0x8 PUSH2 0xB1 JUMP JUMPDEST SWAP1 PUSH2 0x106 PUSH1 0x20 DUP4 ADD PUSH2 0xC8 JUMP JUMPDEST JUMP JUMPDEST PUSH2 0x110 PUSH2 0xEF JUMP JUMPDEST SWAP1 JUMP JUMPDEST PUSH0 PUSH32 0x5452495A00000000000000000000000000000000000000000000000000000000 SWAP2 ADD MSTORE JUMP JUMPDEST PUSH2 0x144 PUSH1 0x4 PUSH2 0xB1 JUMP JUMPDEST SWAP1 PUSH2 0x151 PUSH1 0x20 DUP4 ADD PUSH2 0x113 JUMP JUMPDEST JUMP JUMPDEST PUSH2 0x15B PUSH2 0x13A JUMP JUMPDEST SWAP1 JUMP JUMPDEST SWAP1 JUMP JUMPDEST SWAP1 JUMP JUMPDEST SWAP1 JUMP JUMPDEST PUSH2 0x17B PUSH2 0x176 PUSH2 0x180 SWAP3 PUSH2 0x15E JUMP JUMPDEST PUSH2 0x164 JUMP JUMPDEST PUSH2 0x161 JUMP JUMPDEST SWAP1 JUMP JUMPDEST PUSH2 0x19D PUSH2 0x18E PUSH2 0x108 JUMP JUMPDEST PUSH2 0x196 PUSH2 0x153 JUMP JUMPDEST CALLER SWAP2 PUSH2 0x405 JUMP JUMPDEST PUSH2 0x1B2 CALLER PUSH2 0x1AC PUSH2 0x2710 PUSH2 0x167 JUMP JUMPDEST SWAP1 PUSH2 0x4FC JUMP JUMPDEST JUMP JUMPDEST MLOAD SWAP1 JUMP JUMPDEST PUSH4 0x4E487B71 PUSH1 0xE0 SHL PUSH0 MSTORE PUSH1 0x22 PUSH1 0x4 MSTORE PUSH1 0x24 PUSH0 REVERT JUMPDEST SWAP1 PUSH1 0x1 PUSH1 0x2 DUP4 DIV SWAP3 AND DUP1 ISZERO PUSH2 0x1EC JUMPI JUMPDEST PUSH1 0x20 DUP4 LT EQ PUSH2 0x1E7 JUMPI JUMP JUMPDEST PUSH2 0x1B8 JUMP JUMPDEST SWAP2 PUSH1 0x7F AND SWAP2 PUSH2 0x1DC JUMP JUMPDEST PUSH0 MSTORE PUSH1 0x20 PUSH0 KECCAK256 SWAP1 JUMP JUMPDEST PUSH1 0x1F PUSH1 0x20 SWAP2 ADD DIV SWAP1 JUMP JUMPDEST SHL SWAP1 JUMP JUMPDEST SWAP2 SWAP1 PUSH1 0x8 PUSH2 0x228 SWAP2 MUL SWAP2 PUSH2 0x222 PUSH0 NOT DUP5 PUSH2 0x209 JUMP JUMPDEST SWAP3 PUSH2 0x209 JUMP JUMPDEST SWAP2 DUP2 NOT AND SWAP2 AND OR SWAP1 JUMP JUMPDEST PUSH2 0x246 PUSH2 0x241 PUSH2 0x24B SWAP3 PUSH2 0x161 JUMP JUMPDEST PUSH2 0x164 JUMP JUMPDEST PUSH2 0x161 JUMP JUMPDEST SWAP1 JUMP JUMPDEST SWAP1 JUMP JUMPDEST SWAP2 SWAP1 PUSH2 0x267 PUSH2 0x262 PUSH2 0x26F SWAP4 PUSH2 0x232 JUMP JUMPDEST PUSH2 0x24E JUMP JUMPDEST SWAP1 DUP4 SLOAD PUSH2 0x20D JUMP JUMPDEST SWAP1 SSTORE JUMP JUMPDEST PUSH0 SWAP1 JUMP JUMPDEST PUSH2 0x289 SWAP2 PUSH2 0x283 PUSH2 0x273 JUMP JUMPDEST SWAP2 PUSH2 0x251 JUMP JUMPDEST JUMP JUMPDEST JUMPDEST DUP2 DUP2 LT PUSH2 0x297 JUMPI POP POP JUMP JUMPDEST DUP1 PUSH2 0x2A4 PUSH0 PUSH1 0x1 SWAP4 PUSH2 0x277 JUMP JUMPDEST ADD PUSH2 0x28C JUMP JUMPDEST SWAP2 SWAP1 PUSH1 0x1F DUP2 GT PUSH2 0x2BA JUMPI JUMPDEST POP POP POP JUMP JUMPDEST PUSH2 0x2C6 PUSH2 0x2EB SWAP4 PUSH2 0x1F6 JUMP JUMPDEST SWAP1 PUSH1 0x20 PUSH2 0x2D2 DUP5 PUSH2 0x1FF JUMP JUMPDEST DUP4 ADD SWAP4 LT PUSH2 0x2F3 JUMPI JUMPDEST PUSH2 0x2E4 SWAP1 PUSH2 0x1FF JUMP JUMPDEST ADD SWAP1 PUSH2 0x28B JUMP JUMPDEST PUSH0 DUP1 DUP1 PUSH2 0x2B5 JUMP JUMPDEST SWAP2 POP PUSH2 0x2E4 DUP2 SWAP3 SWAP1 POP PUSH2 0x2DB JUMP JUMPDEST SHR SWAP1 JUMP JUMPDEST SWAP1 PUSH2 0x315 SWAP1 PUSH0 NOT SWAP1 PUSH1 0x8 MUL PUSH2 0x301 JUMP JUMPDEST NOT AND SWAP1 JUMP JUMPDEST DUP2 PUSH2 0x324 SWAP2 PUSH2 0x305 JUMP JUMPDEST SWAP1 PUSH1 0x2 MUL OR SWAP1 JUMP JUMPDEST SWAP1 PUSH2 0x336 DUP2 PUSH2 0x1B4 JUMP JUMPDEST SWAP1 PUSH1 0x1 DUP1 PUSH1 0x40 SHL SUB DUP3 GT PUSH2 0x3F4 JUMPI PUSH2 0x358 DUP3 PUSH2 0x352 DUP6 SLOAD PUSH2 0x1CC JUMP JUMPDEST DUP6 PUSH2 0x2AA JUMP JUMPDEST PUSH1 0x20 SWAP1 PUSH1 0x1F DUP4 GT PUSH1 0x1 EQ PUSH2 0x38C JUMPI SWAP2 DUP1 SWAP2 PUSH2 0x37B SWAP4 PUSH0 SWAP3 PUSH2 0x380 JUMPI JUMPDEST POP POP PUSH2 0x31A JUMP JUMPDEST SWAP1 SSTORE JUMPDEST JUMP JUMPDEST SWAP1 SWAP2 POP ADD MLOAD PUSH0 DUP1 PUSH2 0x374 JUMP JUMPDEST PUSH1 0x1F NOT DUP4 AND SWAP2 PUSH2 0x39B DUP6 PUSH2 0x1F6 JUMP JUMPDEST SWAP3 PUSH0 JUMPDEST DUP2 DUP2 LT PUSH2 0x3DC JUMPI POP SWAP2 PUSH1 0x2 SWAP4 SWAP2 DUP6 PUSH1 0x1 SWAP7 SWAP5 LT PUSH2 0x3C2 JUMPI JUMPDEST POP POP POP MUL ADD SWAP1 SSTORE PUSH2 0x37E JUMP JUMPDEST PUSH2 0x3D2 SWAP2 ADD MLOAD PUSH1 0x1F DUP5 AND SWAP1 PUSH2 0x305 JUMP JUMPDEST SWAP1 SSTORE PUSH0 DUP1 DUP1 PUSH2 0x3B6 JUMP JUMPDEST SWAP2 SWAP4 PUSH1 0x20 PUSH1 0x1 DUP2 SWAP3 DUP8 DUP8 ADD MLOAD DUP2 SSTORE ADD SWAP6 ADD SWAP3 ADD PUSH2 0x39E JUMP JUMPDEST PUSH2 0x40 JUMP JUMPDEST SWAP1 PUSH2 0x403 SWAP2 PUSH2 0x32C JUMP JUMPDEST JUMP JUMPDEST PUSH2 0x41C SWAP1 PUSH2 0x415 PUSH2 0x423 SWAP5 PUSH2 0x425 JUMP JUMPDEST PUSH1 0x4 PUSH2 0x3F9 JUMP JUMPDEST PUSH1 0x5 PUSH2 0x3F9 JUMP JUMPDEST JUMP JUMPDEST PUSH2 0x42E SWAP1 PUSH2 0x430 JUMP JUMPDEST JUMP JUMPDEST PUSH2 0x439 SWAP1 PUSH2 0x43B JUMP JUMPDEST JUMP JUMPDEST PUSH2 0x444 SWAP1 PUSH2 0x4AA JUMP JUMPDEST JUMP JUMPDEST SWAP1 JUMP JUMPDEST PUSH1 0x1 DUP1 PUSH1 0xA0 SHL SUB AND SWAP1 JUMP JUMPDEST PUSH2 0x468 PUSH2 0x463 PUSH2 0x46D SWAP3 PUSH2 0x446 JUMP JUMPDEST PUSH2 0x164 JUMP JUMPDEST PUSH2 0x449 JUMP JUMPDEST SWAP1 JUMP JUMPDEST PUSH2 0x479 SWAP1 PUSH2 0x454 JUMP JUMPDEST SWAP1 JUMP JUMPDEST PUSH2 0x485 SWAP1 PUSH2 0x449 JUMP JUMPDEST SWAP1 JUMP JUMPDEST PUSH2 0x491 SWAP1 PUSH2 0x47C JUMP JUMPDEST SWAP1 MSTORE JUMP JUMPDEST SWAP2 SWAP1 PUSH2 0x4A8 SWAP1 PUSH0 PUSH1 0x20 DUP6 ADD SWAP5 ADD SWAP1 PUSH2 0x488 JUMP JUMPDEST JUMP JUMPDEST DUP1 PUSH2 0x4C5 PUSH2 0x4BF PUSH2 0x4BA PUSH0 PUSH2 0x470 JUMP JUMPDEST PUSH2 0x47C JUMP JUMPDEST SWAP2 PUSH2 0x47C JUMP JUMPDEST EQ PUSH2 0x4D5 JUMPI PUSH2 0x4D3 SWAP1 PUSH2 0x607 JUMP JUMPDEST JUMP JUMPDEST PUSH2 0x4F8 PUSH2 0x4E1 PUSH0 PUSH2 0x470 JUMP JUMPDEST PUSH0 SWAP2 DUP3 SWAP2 PUSH4 0x1E4FBDF7 PUSH1 0xE0 SHL DUP4 MSTORE PUSH1 0x4 DUP4 ADD PUSH2 0x495 JUMP JUMPDEST SUB SWAP1 REVERT JUMPDEST DUP1 PUSH2 0x517 PUSH2 0x511 PUSH2 0x50C PUSH0 PUSH2 0x470 JUMP JUMPDEST PUSH2 0x47C JUMP JUMPDEST SWAP2 PUSH2 0x47C JUMP JUMPDEST EQ PUSH2 0x533 JUMPI PUSH2 0x531 SWAP2 PUSH2 0x529 PUSH0 PUSH2 0x470 JUMP JUMPDEST SWAP2 SWAP1 SWAP2 PUSH2 0x77F JUMP JUMPDEST JUMP JUMPDEST PUSH2 0x556 PUSH2 0x53F PUSH0 PUSH2 0x470 JUMP JUMPDEST PUSH0 SWAP2 DUP3 SWAP2 PUSH4 0xEC442F05 PUSH1 0xE0 SHL DUP4 MSTORE PUSH1 0x4 DUP4 ADD PUSH2 0x495 JUMP JUMPDEST SUB SWAP1 REVERT JUMPDEST PUSH0 SHR SWAP1 JUMP JUMPDEST PUSH1 0x1 DUP1 PUSH1 0xA0 SHL SUB AND SWAP1 JUMP JUMPDEST PUSH2 0x576 PUSH2 0x57B SWAP2 PUSH2 0x55A JUMP JUMPDEST PUSH2 0x55F JUMP JUMPDEST SWAP1 JUMP JUMPDEST PUSH2 0x588 SWAP1 SLOAD PUSH2 0x56A JUMP JUMPDEST SWAP1 JUMP JUMPDEST PUSH0 SHL SWAP1 JUMP JUMPDEST SWAP1 PUSH2 0x5A1 PUSH1 0x1 DUP1 PUSH1 0xA0 SHL SUB SWAP2 PUSH2 0x58B JUMP JUMPDEST SWAP2 DUP2 NOT AND SWAP2 AND OR SWAP1 JUMP JUMPDEST PUSH2 0x5BF PUSH2 0x5BA PUSH2 0x5C4 SWAP3 PUSH2 0x449 JUMP JUMPDEST PUSH2 0x164 JUMP JUMPDEST PUSH2 0x449 JUMP JUMPDEST SWAP1 JUMP JUMPDEST PUSH2 0x5D0 SWAP1 PUSH2 0x5AB JUMP JUMPDEST SWAP1 JUMP JUMPDEST PUSH2 0x5DC SWAP1 PUSH2 0x5C7 JUMP JUMPDEST SWAP1 JUMP JUMPDEST SWAP1 JUMP JUMPDEST SWAP1 PUSH2 0x5F7 PUSH2 0x5F2 PUSH2 0x5FE SWAP3 PUSH2 0x5D3 JUMP JUMPDEST PUSH2 0x5DF JUMP JUMPDEST DUP3 SLOAD PUSH2 0x590 JUMP JUMPDEST SWAP1 SSTORE JUMP JUMPDEST PUSH0 ADD SWAP1 JUMP JUMPDEST PUSH2 0x610 PUSH0 PUSH2 0x57E JUMP JUMPDEST PUSH2 0x61A DUP3 PUSH0 PUSH2 0x5E2 JUMP JUMPDEST SWAP1 PUSH2 0x64E PUSH2 0x648 PUSH32 0x8BE0079C531659141344CD1FD0A4F28419497F9722A3DAAFE3B4186F6B6457E0 SWAP4 PUSH2 0x5D3 JUMP JUMPDEST SWAP2 PUSH2 0x5D3 JUMP JUMPDEST SWAP2 PUSH2 0x657 PUSH2 0x2C JUMP JUMPDEST DUP1 PUSH2 0x661 DUP2 PUSH2 0x602 JUMP JUMPDEST SUB SWAP1 LOG3 JUMP JUMPDEST SWAP1 PUSH2 0x670 SWAP1 PUSH2 0x5D3 JUMP JUMPDEST PUSH0 MSTORE PUSH1 0x20 MSTORE PUSH1 0x40 PUSH0 KECCAK256 SWAP1 JUMP JUMPDEST SWAP1 JUMP JUMPDEST PUSH2 0x68B PUSH2 0x690 SWAP2 PUSH2 0x55A JUMP JUMPDEST PUSH2 0x67C JUMP JUMPDEST SWAP1 JUMP JUMPDEST PUSH2 0x69D SWAP1 SLOAD PUSH2 0x67F JUMP JUMPDEST SWAP1 JUMP JUMPDEST PUSH2 0x6A9 SWAP1 PUSH2 0x161 JUMP JUMPDEST SWAP1 MSTORE JUMP JUMPDEST PUSH1 0x40 SWAP1 PUSH2 0x6D6 PUSH2 0x6DD SWAP5 SWAP7 SWAP6 SWAP4 SWAP7 PUSH2 0x6CC PUSH1 0x60 DUP5 ADD SWAP9 PUSH0 DUP6 ADD SWAP1 PUSH2 0x488 JUMP JUMPDEST PUSH1 0x20 DUP4 ADD SWAP1 PUSH2 0x6A0 JUMP JUMPDEST ADD SWAP1 PUSH2 0x6A0 JUMP JUMPDEST JUMP JUMPDEST SWAP1 PUSH2 0x6EA SWAP2 SUB PUSH2 0x161 JUMP JUMPDEST SWAP1 JUMP JUMPDEST SWAP1 PUSH2 0x6F9 PUSH0 NOT SWAP2 PUSH2 0x58B JUMP JUMPDEST SWAP2 DUP2 NOT AND SWAP2 AND OR SWAP1 JUMP JUMPDEST SWAP1 PUSH2 0x718 PUSH2 0x713 PUSH2 0x71F SWAP3 PUSH2 0x232 JUMP JUMPDEST PUSH2 0x24E JUMP JUMPDEST DUP3 SLOAD PUSH2 0x6ED JUMP JUMPDEST SWAP1 SSTORE JUMP JUMPDEST PUSH4 0x4E487B71 PUSH1 0xE0 SHL PUSH0 MSTORE PUSH1 0x11 PUSH1 0x4 MSTORE PUSH1 0x24 PUSH0 REVERT JUMPDEST PUSH2 0x746 PUSH2 0x74C SWAP2 SWAP4 SWAP3 SWAP4 PUSH2 0x161 JUMP JUMPDEST SWAP3 PUSH2 0x161 JUMP JUMPDEST DUP3 ADD DUP1 SWAP3 GT PUSH2 0x757 JUMPI JUMP JUMPDEST PUSH2 0x723 JUMP JUMPDEST SWAP1 PUSH2 0x767 SWAP2 ADD PUSH2 0x161 JUMP JUMPDEST SWAP1 JUMP JUMPDEST SWAP2 SWAP1 PUSH2 0x77D SWAP1 PUSH0 PUSH1 0x20 DUP6 ADD SWAP5 ADD SWAP1 PUSH2 0x6A0 JUMP JUMPDEST JUMP JUMPDEST SWAP2 SWAP1 SWAP2 DUP1 PUSH2 0x79D PUSH2 0x797 PUSH2 0x792 PUSH0 PUSH2 0x470 JUMP JUMPDEST PUSH2 0x47C JUMP JUMPDEST SWAP2 PUSH2 0x47C JUMP JUMPDEST EQ PUSH0 EQ PUSH2 0x87F JUMPI PUSH2 0x7C1 PUSH2 0x7BA DUP4 PUSH2 0x7B5 PUSH1 0x3 PUSH2 0x693 JUMP JUMPDEST PUSH2 0x737 JUMP JUMPDEST PUSH1 0x3 PUSH2 0x703 JUMP JUMPDEST JUMPDEST DUP3 PUSH2 0x7DD PUSH2 0x7D7 PUSH2 0x7D2 PUSH0 PUSH2 0x470 JUMP JUMPDEST PUSH2 0x47C JUMP JUMPDEST SWAP2 PUSH2 0x47C JUMP JUMPDEST EQ PUSH0 EQ PUSH2 0x852 JUMPI PUSH2 0x801 PUSH2 0x7FA DUP4 PUSH2 0x7F5 PUSH1 0x3 PUSH2 0x693 JUMP JUMPDEST PUSH2 0x6DF JUMP JUMPDEST PUSH1 0x3 PUSH2 0x703 JUMP JUMPDEST JUMPDEST SWAP2 SWAP1 SWAP2 PUSH2 0x84D PUSH2 0x83B PUSH2 0x835 PUSH32 0xDDF252AD1BE2C89B69C2B068FC378DAA952BA7F163C4A11628F55A4DF523B3EF SWAP4 PUSH2 0x5D3 JUMP JUMPDEST SWAP4 PUSH2 0x5D3 JUMP JUMPDEST SWAP4 PUSH2 0x844 PUSH2 0x2C JUMP JUMPDEST SWAP2 DUP3 SWAP2 DUP3 PUSH2 0x76A JUMP JUMPDEST SUB SWAP1 LOG3 JUMP JUMPDEST PUSH2 0x87A DUP3 PUSH2 0x874 PUSH2 0x865 PUSH1 0x1 DUP8 SWAP1 PUSH2 0x666 JUMP JUMPDEST SWAP2 PUSH2 0x86F DUP4 PUSH2 0x693 JUMP JUMPDEST PUSH2 0x75C JUMP JUMPDEST SWAP1 PUSH2 0x703 JUMP JUMPDEST PUSH2 0x802 JUMP JUMPDEST PUSH2 0x893 PUSH2 0x88E PUSH1 0x1 DUP4 SWAP1 PUSH2 0x666 JUMP JUMPDEST PUSH2 0x693 JUMP JUMPDEST DUP1 PUSH2 0x8A6 PUSH2 0x8A0 DUP6 PUSH2 0x161 JUMP JUMPDEST SWAP2 PUSH2 0x161 JUMP JUMPDEST LT PUSH2 0x8CF JUMPI PUSH2 0x8B9 PUSH2 0x8CA SWAP2 DUP5 SWAP1 PUSH2 0x6DF JUMP JUMPDEST PUSH2 0x8C5 PUSH1 0x1 DUP5 SWAP1 PUSH2 0x666 JUMP JUMPDEST PUSH2 0x703 JUMP JUMPDEST PUSH2 0x7C2 JUMP JUMPDEST SWAP1 PUSH2 0x8ED SWAP1 SWAP2 SWAP3 PUSH0 SWAP4 DUP5 SWAP4 PUSH4 0x391434E3 PUSH1 0xE2 SHL DUP6 MSTORE PUSH1 0x4 DUP6 ADD PUSH2 0x6AD JUMP JUMPDEST SUB SWAP1 REVERT INVALID PUSH1 0x80 PUSH1 0x40 MSTORE PUSH1 0x4 CALLDATASIZE LT ISZERO PUSH2 0x13 JUMPI JUMPDEST PUSH2 0xE4C JUMP JUMPDEST PUSH2 0x1D PUSH0 CALLDATALOAD PUSH2 0x11C JUMP JUMPDEST DUP1 PUSH4 0x6FDDE03 EQ PUSH2 0x117 JUMPI DUP1 PUSH4 0x95EA7B3 EQ PUSH2 0x112 JUMPI DUP1 PUSH4 0x18160DDD EQ PUSH2 0x10D JUMPI DUP1 PUSH4 0x1A5BD7FC EQ PUSH2 0x108 JUMPI DUP1 PUSH4 0x23B872DD EQ PUSH2 0x103 JUMPI DUP1 PUSH4 0x313CE567 EQ PUSH2 0xFE JUMPI DUP1 PUSH4 0x70A08231 EQ PUSH2 0xF9 JUMPI DUP1 PUSH4 0x715018A6 EQ PUSH2 0xF4 JUMPI DUP1 PUSH4 0x7503E1B7 EQ PUSH2 0xEF JUMPI DUP1 PUSH4 0x8DA5CB5B EQ PUSH2 0xEA JUMPI DUP1 PUSH4 0x95D89B41 EQ PUSH2 0xE5 JUMPI DUP1 PUSH4 0xA9059CBB EQ PUSH2 0xE0 JUMPI DUP1 PUSH4 0xB7EBF9AA EQ PUSH2 0xDB JUMPI DUP1 PUSH4 0xDD62ED3E EQ PUSH2 0xD6 JUMPI DUP1 PUSH4 0xF2FDE38B EQ PUSH2 0xD1 JUMPI PUSH4 0xF7F20CB3 SUB PUSH2 0xE JUMPI PUSH2 0xE17 JUMP JUMPDEST PUSH2 0xCB4 JUMP JUMPDEST PUSH2 0xC7E JUMP JUMPDEST PUSH2 0xC1A JUMP JUMPDEST PUSH2 0xA92 JUMP JUMPDEST PUSH2 0xA5D JUMP JUMPDEST PUSH2 0xA28 JUMP JUMPDEST PUSH2 0x9CA JUMP JUMPDEST PUSH2 0x6BC JUMP JUMPDEST PUSH2 0x682 JUMP JUMPDEST PUSH2 0x62F JUMP JUMPDEST PUSH2 0x5D7 JUMP JUMPDEST PUSH2 0x568 JUMP JUMPDEST PUSH2 0x2EF JUMP JUMPDEST PUSH2 0x297 JUMP JUMPDEST PUSH2 0x1AA JUMP JUMPDEST PUSH1 0xE0 SHR SWAP1 JUMP JUMPDEST PUSH1 0x40 MLOAD SWAP1 JUMP JUMPDEST PUSH0 DUP1 REVERT JUMPDEST PUSH0 DUP1 REVERT JUMPDEST PUSH0 SWAP2 SUB SLT PUSH2 0x13A JUMPI JUMP JUMPDEST PUSH2 0x12C JUMP JUMPDEST MLOAD SWAP1 JUMP JUMPDEST PUSH1 0x20 SWAP2 DUP2 MSTORE ADD SWAP1 JUMP JUMPDEST SWAP1 DUP3 PUSH0 SWAP4 SWAP3 DUP3 MCOPY ADD MSTORE JUMP JUMPDEST PUSH1 0x1F DUP1 NOT SWAP2 ADD AND SWAP1 JUMP JUMPDEST PUSH2 0x180 PUSH2 0x189 PUSH1 0x20 SWAP4 PUSH2 0x18E SWAP4 PUSH2 0x177 DUP2 PUSH2 0x13F JUMP JUMPDEST SWAP4 DUP5 DUP1 SWAP4 PUSH2 0x143 JUMP JUMPDEST SWAP6 DUP7 SWAP2 ADD PUSH2 0x14C JUMP JUMPDEST PUSH2 0x157 JUMP JUMPDEST ADD SWAP1 JUMP JUMPDEST PUSH2 0x1A7 SWAP2 PUSH1 0x20 DUP3 ADD SWAP2 PUSH0 DUP2 DUP5 SUB SWAP2 ADD MSTORE PUSH2 0x161 JUMP JUMPDEST SWAP1 JUMP JUMPDEST CALLVALUE PUSH2 0x1DA JUMPI PUSH2 0x1BA CALLDATASIZE PUSH1 0x4 PUSH2 0x130 JUMP JUMPDEST PUSH2 0x1D6 PUSH2 0x1C5 PUSH2 0xE61 JUMP JUMPDEST PUSH2 0x1CD PUSH2 0x122 JUMP JUMPDEST SWAP2 DUP3 SWAP2 DUP3 PUSH2 0x192 JUMP JUMPDEST SUB SWAP1 RETURN JUMPDEST PUSH2 0x128 JUMP JUMPDEST PUSH0 DUP1 REVERT JUMPDEST PUSH1 0x1 DUP1 PUSH1 0xA0 SHL SUB AND SWAP1 JUMP JUMPDEST PUSH2 0x1F7 SWAP1 PUSH2 0x1E3 JUMP JUMPDEST SWAP1 JUMP JUMPDEST PUSH2 0x203 DUP2 PUSH2 0x1EE JUMP JUMPDEST SUB PUSH2 0x20A JUMPI JUMP JUMPDEST PUSH0 DUP1 REVERT JUMPDEST SWAP1 POP CALLDATALOAD SWAP1 PUSH2 0x21B DUP3 PUSH2 0x1FA JUMP JUMPDEST JUMP JUMPDEST SWAP1 JUMP JUMPDEST PUSH2 0x229 DUP2 PUSH2 0x21D JUMP JUMPDEST SUB PUSH2 0x230 JUMPI JUMP JUMPDEST PUSH0 DUP1 REVERT JUMPDEST SWAP1 POP CALLDATALOAD SWAP1 PUSH2 0x241 DUP3 PUSH2 0x220 JUMP JUMPDEST JUMP JUMPDEST SWAP2 SWAP1 PUSH1 0x40 DUP4 DUP3 SUB SLT PUSH2 0x26B JUMPI DUP1 PUSH2 0x25F PUSH2 0x268 SWAP3 PUSH0 DUP7 ADD PUSH2 0x20E JUMP JUMPDEST SWAP4 PUSH1 0x20 ADD PUSH2 0x234 JUMP JUMPDEST SWAP1 JUMP JUMPDEST PUSH2 0x12C JUMP JUMPDEST ISZERO ISZERO SWAP1 JUMP JUMPDEST PUSH2 0x27E SWAP1 PUSH2 0x270 JUMP JUMPDEST SWAP1 MSTORE JUMP JUMPDEST SWAP2 SWAP1 PUSH2 0x295 SWAP1 PUSH0 PUSH1 0x20 DUP6 ADD SWAP5 ADD SWAP1 PUSH2 0x275 JUMP JUMPDEST JUMP JUMPDEST CALLVALUE PUSH2 0x2C8 JUMPI PUSH2 0x2C4 PUSH2 0x2B3 PUSH2 0x2AD CALLDATASIZE PUSH1 0x4 PUSH2 0x243 JUMP JUMPDEST SWAP1 PUSH2 0xE7B JUMP JUMPDEST PUSH2 0x2BB PUSH2 0x122 JUMP JUMPDEST SWAP2 DUP3 SWAP2 DUP3 PUSH2 0x282 JUMP JUMPDEST SUB SWAP1 RETURN JUMPDEST PUSH2 0x128 JUMP JUMPDEST PUSH2 0x2D6 SWAP1 PUSH2 0x21D JUMP JUMPDEST SWAP1 MSTORE JUMP JUMPDEST SWAP2 SWAP1 PUSH2 0x2ED SWAP1 PUSH0 PUSH1 0x20 DUP6 ADD SWAP5 ADD SWAP1 PUSH2 0x2CD JUMP JUMPDEST JUMP JUMPDEST CALLVALUE PUSH2 0x31F JUMPI PUSH2 0x2FF CALLDATASIZE PUSH1 0x4 PUSH2 0x130 JUMP JUMPDEST PUSH2 0x31B PUSH2 0x30A PUSH2 0xEA1 JUMP JUMPDEST PUSH2 0x312 PUSH2 0x122 JUMP JUMPDEST SWAP2 DUP3 SWAP2 DUP3 PUSH2 0x2DA JUMP JUMPDEST SUB SWAP1 RETURN JUMPDEST PUSH2 0x128 JUMP JUMPDEST SWAP1 PUSH1 0x20 DUP3 DUP3 SUB SLT PUSH2 0x33D JUMPI PUSH2 0x33A SWAP2 PUSH0 ADD PUSH2 0x234 JUMP JUMPDEST SWAP1 JUMP JUMPDEST PUSH2 0x12C JUMP JUMPDEST PUSH2 0x34B SWAP1 PUSH2 0x21D JUMP JUMPDEST SWAP1 MSTORE JUMP JUMPDEST PUSH1 0x20 SWAP2 DUP2 MSTORE ADD SWAP1 JUMP JUMPDEST PUSH2 0x377 PUSH2 0x380 PUSH1 0x20 SWAP4 PUSH2 0x385 SWAP4 PUSH2 0x36E DUP2 PUSH2 0x13F JUMP JUMPDEST SWAP4 DUP5 DUP1 SWAP4 PUSH2 0x34F JUMP JUMPDEST SWAP6 DUP7 SWAP2 ADD PUSH2 0x14C JUMP JUMPDEST PUSH2 0x157 JUMP JUMPDEST ADD SWAP1 JUMP JUMPDEST PUSH1 0xFF AND SWAP1 JUMP JUMPDEST PUSH2 0x398 SWAP1 PUSH2 0x389 JUMP JUMPDEST SWAP1 MSTORE JUMP JUMPDEST PUSH4 0x4E487B71 PUSH1 0xE0 SHL PUSH0 MSTORE PUSH1 0x21 PUSH1 0x4 MSTORE PUSH1 0x24 PUSH0 REVERT JUMPDEST PUSH1 0x3 GT ISZERO PUSH2 0x3BA JUMPI JUMP JUMPDEST PUSH2 0x39C JUMP JUMPDEST SWAP1 PUSH2 0x3C9 DUP3 PUSH2 0x3B0 JUMP JUMPDEST JUMP JUMPDEST PUSH2 0x3D4 SWAP1 PUSH2 0x3BF JUMP JUMPDEST SWAP1 JUMP JUMPDEST PUSH2 0x3E0 SWAP1 PUSH2 0x3CB JUMP JUMPDEST SWAP1 MSTORE JUMP JUMPDEST MLOAD SWAP1 JUMP JUMPDEST PUSH1 0x20 SWAP2 DUP2 MSTORE ADD SWAP1 JUMP JUMPDEST PUSH1 0x20 ADD SWAP1 JUMP JUMPDEST PUSH2 0x400 SWAP1 PUSH2 0x1EE JUMP JUMPDEST SWAP1 MSTORE JUMP JUMPDEST SWAP1 PUSH1 0x80 DUP1 PUSH2 0x45C SWAP4 PUSH2 0x41C PUSH0 DUP3 ADD MLOAD PUSH0 DUP7 ADD SWAP1 PUSH2 0x3F7 JUMP JUMPDEST PUSH2 0x42E PUSH1 0x20 DUP3 ADD MLOAD PUSH1 0x20 DUP7 ADD SWAP1 PUSH2 0x342 JUMP JUMPDEST PUSH2 0x440 PUSH1 0x40 DUP3 ADD MLOAD PUSH1 0x40 DUP7 ADD SWAP1 PUSH2 0x3F7 JUMP JUMPDEST PUSH2 0x452 PUSH1 0x60 DUP3 ADD MLOAD PUSH1 0x60 DUP7 ADD SWAP1 PUSH2 0x342 JUMP JUMPDEST ADD MLOAD SWAP2 ADD SWAP1 PUSH2 0x3D7 JUMP JUMPDEST JUMP JUMPDEST SWAP1 PUSH2 0x46B DUP2 PUSH1 0xA0 SWAP4 PUSH2 0x404 JUMP JUMPDEST ADD SWAP1 JUMP JUMPDEST PUSH1 0x20 ADD SWAP1 JUMP JUMPDEST SWAP1 PUSH2 0x492 PUSH2 0x48C PUSH2 0x485 DUP5 PUSH2 0x3E4 JUMP JUMPDEST DUP1 SWAP4 PUSH2 0x3E8 JUMP JUMPDEST SWAP3 PUSH2 0x3F1 JUMP JUMPDEST SWAP1 PUSH0 JUMPDEST DUP2 DUP2 LT PUSH2 0x4A2 JUMPI POP POP POP SWAP1 JUMP JUMPDEST SWAP1 SWAP2 SWAP3 PUSH2 0x4BB PUSH2 0x4B5 PUSH1 0x1 SWAP3 DUP7 MLOAD PUSH2 0x45E JUMP JUMPDEST SWAP5 PUSH2 0x46F JUMP JUMPDEST SWAP2 ADD SWAP2 SWAP1 SWAP2 PUSH2 0x495 JUMP JUMPDEST PUSH2 0x54D SWAP2 PUSH1 0xC0 PUSH2 0x4F4 PUSH1 0xE0 DUP4 ADD PUSH2 0x4E2 PUSH0 DUP7 ADD MLOAD PUSH0 DUP7 ADD SWAP1 PUSH2 0x342 JUMP JUMPDEST PUSH1 0x20 DUP6 ADD MLOAD DUP5 DUP3 SUB PUSH1 0x20 DUP7 ADD MSTORE PUSH2 0x358 JUMP JUMPDEST SWAP3 PUSH2 0x507 PUSH1 0x40 DUP3 ADD MLOAD PUSH1 0x40 DUP6 ADD SWAP1 PUSH2 0x342 JUMP JUMPDEST PUSH2 0x519 PUSH1 0x60 DUP3 ADD MLOAD PUSH1 0x60 DUP6 ADD SWAP1 PUSH2 0x38F JUMP JUMPDEST PUSH2 0x52B PUSH1 0x80 DUP3 ADD MLOAD PUSH1 0x80 DUP6 ADD SWAP1 PUSH2 0x342 JUMP JUMPDEST PUSH2 0x53D PUSH1 0xA0 DUP3 ADD MLOAD PUSH1 0xA0 DUP6 ADD SWAP1 PUSH2 0x3D7 JUMP JUMPDEST ADD MLOAD SWAP1 PUSH1 0xC0 DUP2 DUP5 SUB SWAP2 ADD MSTORE PUSH2 0x475 JUMP JUMPDEST SWAP1 JUMP JUMPDEST PUSH2 0x565 SWAP2 PUSH1 0x20 DUP3 ADD SWAP2 PUSH0 DUP2 DUP5 SUB SWAP2 ADD MSTORE PUSH2 0x4C5 JUMP JUMPDEST SWAP1 JUMP JUMPDEST CALLVALUE PUSH2 0x598 JUMPI PUSH2 0x594 PUSH2 0x583 PUSH2 0x57E CALLDATASIZE PUSH1 0x4 PUSH2 0x324 JUMP JUMPDEST PUSH2 0x1198 JUMP JUMPDEST PUSH2 0x58B PUSH2 0x122 JUMP JUMPDEST SWAP2 DUP3 SWAP2 DUP3 PUSH2 0x550 JUMP JUMPDEST SUB SWAP1 RETURN JUMPDEST PUSH2 0x128 JUMP JUMPDEST SWAP1 SWAP2 PUSH1 0x60 DUP3 DUP5 SUB SLT PUSH2 0x5D2 JUMPI PUSH2 0x5CF PUSH2 0x5B8 DUP5 PUSH0 DUP6 ADD PUSH2 0x20E JUMP JUMPDEST SWAP4 PUSH2 0x5C6 DUP2 PUSH1 0x20 DUP7 ADD PUSH2 0x20E JUMP JUMPDEST SWAP4 PUSH1 0x40 ADD PUSH2 0x234 JUMP JUMPDEST SWAP1 JUMP JUMPDEST PUSH2 0x12C JUMP JUMPDEST CALLVALUE PUSH2 0x608 JUMPI PUSH2 0x604 PUSH2 0x5F3 PUSH2 0x5ED CALLDATASIZE PUSH1 0x4 PUSH2 0x59D JUMP JUMPDEST SWAP2 PUSH2 0x11B8 JUMP JUMPDEST PUSH2 0x5FB PUSH2 0x122 JUMP JUMPDEST SWAP2 DUP3 SWAP2 DUP3 PUSH2 0x282 JUMP JUMPDEST SUB SWAP1 RETURN JUMPDEST PUSH2 0x128 JUMP JUMPDEST PUSH2 0x616 SWAP1 PUSH2 0x389 JUMP JUMPDEST SWAP1 MSTORE JUMP JUMPDEST SWAP2 SWAP1 PUSH2 0x62D SWAP1 PUSH0 PUSH1 0x20 DUP6 ADD SWAP5 ADD SWAP1 PUSH2 0x60D JUMP JUMPDEST JUMP JUMPDEST CALLVALUE PUSH2 0x65F JUMPI PUSH2 0x63F CALLDATASIZE PUSH1 0x4 PUSH2 0x130 JUMP JUMPDEST PUSH2 0x65B PUSH2 0x64A PUSH2 0x120D JUMP JUMPDEST PUSH2 0x652 PUSH2 0x122 JUMP JUMPDEST SWAP2 DUP3 SWAP2 DUP3 PUSH2 0x61A JUMP JUMPDEST SUB SWAP1 RETURN JUMPDEST PUSH2 0x128 JUMP JUMPDEST SWAP1 PUSH1 0x20 DUP3 DUP3 SUB SLT PUSH2 0x67D JUMPI PUSH2 0x67A SWAP2 PUSH0 ADD PUSH2 0x20E JUMP JUMPDEST SWAP1 JUMP JUMPDEST PUSH2 0x12C JUMP JUMPDEST CALLVALUE PUSH2 0x6B2 JUMPI PUSH2 0x6AE PUSH2 0x69D PUSH2 0x698 CALLDATASIZE PUSH1 0x4 PUSH2 0x664 JUMP JUMPDEST PUSH2 0x126D JUMP JUMPDEST PUSH2 0x6A5 PUSH2 0x122 JUMP JUMPDEST SWAP2 DUP3 SWAP2 DUP3 PUSH2 0x2DA JUMP JUMPDEST SUB SWAP1 RETURN JUMPDEST PUSH2 0x128 JUMP JUMPDEST PUSH0 ADD SWAP1 JUMP JUMPDEST CALLVALUE PUSH2 0x6EA JUMPI PUSH2 0x6CC CALLDATASIZE PUSH1 0x4 PUSH2 0x130 JUMP JUMPDEST PUSH2 0x6D4 PUSH2 0x12DC JUMP JUMPDEST PUSH2 0x6DC PUSH2 0x122 JUMP JUMPDEST DUP1 PUSH2 0x6E6 DUP2 PUSH2 0x6B7 JUMP JUMPDEST SUB SWAP1 RETURN JUMPDEST PUSH2 0x128 JUMP JUMPDEST PUSH4 0x4E487B71 PUSH1 0xE0 SHL PUSH0 MSTORE PUSH1 0x32 PUSH1 0x4 MSTORE PUSH1 0x24 PUSH0 REVERT JUMPDEST SLOAD SWAP1 JUMP JUMPDEST PUSH0 MSTORE PUSH1 0x20 PUSH0 KECCAK256 SWAP1 JUMP JUMPDEST PUSH2 0x719 DUP2 PUSH2 0x703 JUMP JUMPDEST DUP3 LT ISZERO PUSH2 0x733 JUMPI PUSH2 0x72B PUSH1 0x7 SWAP2 PUSH2 0x707 JUMP JUMPDEST SWAP2 MUL ADD SWAP1 PUSH0 SWAP1 JUMP JUMPDEST PUSH2 0x6EF JUMP JUMPDEST PUSH0 SHR SWAP1 JUMP JUMPDEST SWAP1 JUMP JUMPDEST PUSH2 0x74C PUSH2 0x751 SWAP2 PUSH2 0x738 JUMP JUMPDEST PUSH2 0x73D JUMP JUMPDEST SWAP1 JUMP JUMPDEST PUSH2 0x75E SWAP1 SLOAD PUSH2 0x740 JUMP JUMPDEST SWAP1 JUMP JUMPDEST PUSH4 0x4E487B71 PUSH1 0xE0 SHL PUSH0 MSTORE PUSH1 0x22 PUSH1 0x4 MSTORE PUSH1 0x24 PUSH0 REVERT JUMPDEST SWAP1 PUSH1 0x1 PUSH1 0x2 DUP4 DIV SWAP3 AND DUP1 ISZERO PUSH2 0x795 JUMPI JUMPDEST PUSH1 0x20 DUP4 LT EQ PUSH2 0x790 JUMPI JUMP JUMPDEST PUSH2 0x761 JUMP JUMPDEST SWAP2 PUSH1 0x7F AND SWAP2 PUSH2 0x785 JUMP JUMPDEST PUSH0 MSTORE PUSH1 0x20 PUSH0 KECCAK256 SWAP1 JUMP JUMPDEST SWAP1 PUSH0 SWAP3 SWAP2 DUP1 SLOAD SWAP1 PUSH2 0x7C2 PUSH2 0x7BB DUP4 PUSH2 0x775 JUMP JUMPDEST DUP1 SWAP5 PUSH2 0x34F JUMP JUMPDEST SWAP2 PUSH1 0x1 DUP2 AND SWAP1 DUP2 PUSH0 EQ PUSH2 0x819 JUMPI POP PUSH1 0x1 EQ PUSH2 0x7DD JUMPI JUMPDEST POP POP POP JUMP JUMPDEST PUSH2 0x7EA SWAP2 SWAP3 SWAP4 SWAP5 POP PUSH2 0x79F JUMP JUMPDEST SWAP2 PUSH0 SWAP3 JUMPDEST DUP2 DUP5 LT PUSH2 0x801 JUMPI POP POP ADD SWAP1 PUSH0 DUP1 DUP1 PUSH2 0x7D8 JUMP JUMPDEST PUSH1 0x1 DUP2 PUSH1 0x20 SWAP3 SWAP6 SWAP4 SWAP6 SLOAD DUP5 DUP7 ADD MSTORE ADD SWAP2 ADD SWAP3 SWAP1 PUSH2 0x7EE JUMP JUMPDEST SWAP3 SWAP5 SWAP6 POP POP POP PUSH1 0xFF NOT AND DUP3 MSTORE ISZERO ISZERO PUSH1 0x20 MUL ADD SWAP1 PUSH0 DUP1 DUP1 PUSH2 0x7D8 JUMP JUMPDEST SWAP1 PUSH2 0x83E SWAP2 PUSH2 0x7A8 JUMP JUMPDEST SWAP1 JUMP JUMPDEST PUSH4 0x4E487B71 PUSH1 0xE0 SHL PUSH0 MSTORE PUSH1 0x41 PUSH1 0x4 MSTORE PUSH1 0x24 PUSH0 REVERT JUMPDEST SWAP1 PUSH2 0x85F SWAP1 PUSH2 0x157 JUMP JUMPDEST DUP2 ADD SWAP1 DUP2 LT PUSH8 0xFFFFFFFFFFFFFFFF DUP3 GT OR PUSH2 0x879 JUMPI PUSH1 0x40 MSTORE JUMP JUMPDEST PUSH2 0x841 JUMP JUMPDEST SWAP1 PUSH2 0x89E PUSH2 0x897 SWAP3 PUSH2 0x88E PUSH2 0x122 JUMP JUMPDEST SWAP4 DUP5 DUP1 SWAP3 PUSH2 0x834 JUMP JUMPDEST SUB DUP4 PUSH2 0x855 JUMP JUMPDEST JUMP JUMPDEST PUSH1 0xFF AND SWAP1 JUMP JUMPDEST PUSH2 0x8B2 PUSH2 0x8B7 SWAP2 PUSH2 0x738 JUMP JUMPDEST PUSH2 0x8A0 JUMP JUMPDEST SWAP1 JUMP JUMPDEST PUSH2 0x8C4 SWAP1 SLOAD PUSH2 0x8A6 JUMP JUMPDEST SWAP1 JUMP JUMPDEST PUSH1 0xFF AND SWAP1 JUMP JUMPDEST PUSH2 0x8D9 PUSH2 0x8DE SWAP2 PUSH2 0x738 JUMP JUMPDEST PUSH2 0x8C7 JUMP JUMPDEST SWAP1 JUMP JUMPDEST PUSH2 0x8EB SWAP1 SLOAD PUSH2 0x8CD JUMP JUMPDEST SWAP1 JUMP JUMPDEST PUSH1 0x6 SWAP1 PUSH2 0x8FA DUP3 PUSH2 0x703 JUMP JUMPDEST DUP2 LT ISZERO PUSH2 0x95A JUMPI PUSH2 0x90A SWAP2 PUSH2 0x710 JUMP JUMPDEST POP SWAP1 PUSH2 0x917 PUSH0 DUP4 ADD PUSH2 0x754 JUMP JUMPDEST SWAP2 PUSH2 0x924 PUSH1 0x1 DUP3 ADD PUSH2 0x87E JUMP JUMPDEST SWAP2 PUSH2 0x931 PUSH1 0x2 DUP4 ADD PUSH2 0x754 JUMP JUMPDEST SWAP2 PUSH2 0x93E PUSH1 0x3 DUP3 ADD PUSH2 0x8BA JUMP JUMPDEST SWAP2 PUSH2 0x957 PUSH1 0x5 PUSH2 0x950 PUSH1 0x4 DUP6 ADD PUSH2 0x754 JUMP JUMPDEST SWAP4 ADD PUSH2 0x8E1 JUMP JUMPDEST SWAP1 JUMP JUMPDEST PUSH0 DUP1 REVERT JUMPDEST PUSH2 0x967 SWAP1 PUSH2 0x3CB JUMP JUMPDEST SWAP1 MSTORE JUMP JUMPDEST SWAP2 SWAP5 PUSH2 0x9B7 PUSH1 0xA0 SWAP5 SWAP9 SWAP8 SWAP6 PUSH2 0x9AD PUSH2 0x9A2 PUSH2 0x9C1 SWAP6 PUSH2 0x9C8 SWAP11 PUSH2 0x995 PUSH1 0xC0 DUP11 ADD SWAP3 PUSH0 DUP12 ADD SWAP1 PUSH2 0x2CD JUMP JUMPDEST DUP9 DUP3 SUB PUSH1 0x20 DUP11 ADD MSTORE PUSH2 0x161 JUMP JUMPDEST SWAP11 PUSH1 0x40 DUP8 ADD SWAP1 PUSH2 0x2CD JUMP JUMPDEST PUSH1 0x60 DUP6 ADD SWAP1 PUSH2 0x60D JUMP JUMPDEST PUSH1 0x80 DUP4 ADD SWAP1 PUSH2 0x2CD JUMP JUMPDEST ADD SWAP1 PUSH2 0x95E JUMP JUMPDEST JUMP JUMPDEST CALLVALUE PUSH2 0xA01 JUMPI PUSH2 0x9FD PUSH2 0x9E5 PUSH2 0x9E0 CALLDATASIZE PUSH1 0x4 PUSH2 0x324 JUMP JUMPDEST PUSH2 0x8EE JUMP JUMPDEST SWAP3 PUSH2 0x9F4 SWAP7 SWAP5 SWAP7 SWAP3 SWAP2 SWAP3 PUSH2 0x122 JUMP JUMPDEST SWAP7 DUP8 SWAP7 DUP8 PUSH2 0x96B JUMP JUMPDEST SUB SWAP1 RETURN JUMPDEST PUSH2 0x128 JUMP JUMPDEST PUSH2 0xA0F SWAP1 PUSH2 0x1EE JUMP JUMPDEST SWAP1 MSTORE JUMP JUMPDEST SWAP2 SWAP1 PUSH2 0xA26 SWAP1 PUSH0 PUSH1 0x20 DUP6 ADD SWAP5 ADD SWAP1 PUSH2 0xA06 JUMP JUMPDEST JUMP JUMPDEST CALLVALUE PUSH2 0xA58 JUMPI PUSH2 0xA38 CALLDATASIZE PUSH1 0x4 PUSH2 0x130 JUMP JUMPDEST PUSH2 0xA54 PUSH2 0xA43 PUSH2 0x12EA JUMP JUMPDEST PUSH2 0xA4B PUSH2 0x122 JUMP JUMPDEST SWAP2 DUP3 SWAP2 DUP3 PUSH2 0xA13 JUMP JUMPDEST SUB SWAP1 RETURN JUMPDEST PUSH2 0x128 JUMP JUMPDEST CALLVALUE PUSH2 0xA8D JUMPI PUSH2 0xA6D CALLDATASIZE PUSH1 0x4 PUSH2 0x130 JUMP JUMPDEST PUSH2 0xA89 PUSH2 0xA78 PUSH2 0x12FF JUMP JUMPDEST PUSH2 0xA80 PUSH2 0x122 JUMP JUMPDEST SWAP2 DUP3 SWAP2 DUP3 PUSH2 0x192 JUMP JUMPDEST SUB SWAP1 RETURN JUMPDEST PUSH2 0x128 JUMP JUMPDEST CALLVALUE PUSH2 0xAC3 JUMPI PUSH2 0xABF PUSH2 0xAAE PUSH2 0xAA8 CALLDATASIZE PUSH1 0x4 PUSH2 0x243 JUMP JUMPDEST SWAP1 PUSH2 0x1315 JUMP JUMPDEST PUSH2 0xAB6 PUSH2 0x122 JUMP JUMPDEST SWAP2 DUP3 SWAP2 DUP3 PUSH2 0x282 JUMP JUMPDEST SUB SWAP1 RETURN JUMPDEST PUSH2 0x128 JUMP JUMPDEST PUSH0 DUP1 REVERT JUMPDEST PUSH0 DUP1 REVERT JUMPDEST SWAP1 PUSH2 0xAE3 PUSH2 0xADC PUSH2 0x122 JUMP JUMPDEST SWAP3 DUP4 PUSH2 0x855 JUMP JUMPDEST JUMP JUMPDEST PUSH8 0xFFFFFFFFFFFFFFFF DUP2 GT PUSH2 0xB03 JUMPI PUSH2 0xAFF PUSH1 0x20 SWAP2 PUSH2 0x157 JUMP JUMPDEST ADD SWAP1 JUMP JUMPDEST PUSH2 0x841 JUMP JUMPDEST SWAP1 DUP3 PUSH0 SWAP4 SWAP3 DUP3 CALLDATACOPY ADD MSTORE JUMP JUMPDEST SWAP1 SWAP3 SWAP2 SWAP3 PUSH2 0xB28 PUSH2 0xB23 DUP3 PUSH2 0xAE5 JUMP JUMPDEST PUSH2 0xAD0 JUMP JUMPDEST SWAP4 DUP2 DUP6 MSTORE PUSH1 0x20 DUP6 ADD SWAP1 DUP3 DUP5 ADD GT PUSH2 0xB44 JUMPI PUSH2 0xB42 SWAP3 PUSH2 0xB08 JUMP JUMPDEST JUMP JUMPDEST PUSH2 0xACC JUMP JUMPDEST SWAP1 DUP1 PUSH1 0x1F DUP4 ADD SLT ISZERO PUSH2 0xB67 JUMPI DUP2 PUSH1 0x20 PUSH2 0xB64 SWAP4 CALLDATALOAD SWAP2 ADD PUSH2 0xB13 JUMP JUMPDEST SWAP1 JUMP JUMPDEST PUSH2 0xAC8 JUMP JUMPDEST PUSH2 0xB75 DUP2 PUSH2 0x389 JUMP JUMPDEST SUB PUSH2 0xB7C JUMPI JUMP JUMPDEST PUSH0 DUP1 REVERT JUMPDEST SWAP1 POP CALLDATALOAD SWAP1 PUSH2 0xB8D DUP3 PUSH2 0xB6C JUMP JUMPDEST JUMP JUMPDEST PUSH1 0x3 GT ISZERO PUSH2 0xB99 JUMPI JUMP JUMPDEST PUSH0 DUP1 REVERT JUMPDEST SWAP1 POP CALLDATALOAD SWAP1 PUSH2 0xBAA DUP3 PUSH2 0xB8F JUMP JUMPDEST JUMP JUMPDEST SWAP2 SWAP1 PUSH1 0xA0 DUP4 DUP3 SUB SLT PUSH2 0xC15 JUMPI PUSH0 DUP4 ADD CALLDATALOAD PUSH8 0xFFFFFFFFFFFFFFFF DUP2 GT PUSH2 0xC10 JUMPI DUP2 PUSH2 0xBD7 SWAP2 DUP6 ADD PUSH2 0xB49 JUMP JUMPDEST SWAP3 PUSH2 0xBE5 DUP3 PUSH1 0x20 DUP4 ADD PUSH2 0x234 JUMP JUMPDEST SWAP3 PUSH2 0xC0D PUSH2 0xBF6 DUP5 PUSH1 0x40 DUP6 ADD PUSH2 0xB80 JUMP JUMPDEST SWAP4 PUSH2 0xC04 DUP2 PUSH1 0x60 DUP7 ADD PUSH2 0x234 JUMP JUMPDEST SWAP4 PUSH1 0x80 ADD PUSH2 0xB9D JUMP JUMPDEST SWAP1 JUMP JUMPDEST PUSH2 0x1DF JUMP JUMPDEST PUSH2 0x12C JUMP JUMPDEST CALLVALUE PUSH2 0xC4C JUMPI PUSH2 0xC36 PUSH2 0xC2D CALLDATASIZE PUSH1 0x4 PUSH2 0xBAC JUMP JUMPDEST SWAP4 SWAP3 SWAP1 SWAP3 PUSH2 0x1BBD JUMP JUMPDEST PUSH2 0xC3E PUSH2 0x122 JUMP JUMPDEST DUP1 PUSH2 0xC48 DUP2 PUSH2 0x6B7 JUMP JUMPDEST SUB SWAP1 RETURN JUMPDEST PUSH2 0x128 JUMP JUMPDEST SWAP2 SWAP1 PUSH1 0x40 DUP4 DUP3 SUB SLT PUSH2 0xC79 JUMPI DUP1 PUSH2 0xC6D PUSH2 0xC76 SWAP3 PUSH0 DUP7 ADD PUSH2 0x20E JUMP JUMPDEST SWAP4 PUSH1 0x20 ADD PUSH2 0x20E JUMP JUMPDEST SWAP1 JUMP JUMPDEST PUSH2 0x12C JUMP JUMPDEST CALLVALUE PUSH2 0xCAF JUMPI PUSH2 0xCAB PUSH2 0xC9A PUSH2 0xC94 CALLDATASIZE PUSH1 0x4 PUSH2 0xC51 JUMP JUMPDEST SWAP1 PUSH2 0x1D8B JUMP JUMPDEST PUSH2 0xCA2 PUSH2 0x122 JUMP JUMPDEST SWAP2 DUP3 SWAP2 DUP3 PUSH2 0x2DA JUMP JUMPDEST SUB SWAP1 RETURN JUMPDEST PUSH2 0x128 JUMP JUMPDEST CALLVALUE PUSH2 0xCE2 JUMPI PUSH2 0xCCC PUSH2 0xCC7 CALLDATASIZE PUSH1 0x4 PUSH2 0x664 JUMP JUMPDEST PUSH2 0x1E18 JUMP JUMPDEST PUSH2 0xCD4 PUSH2 0x122 JUMP JUMPDEST DUP1 PUSH2 0xCDE DUP2 PUSH2 0x6B7 JUMP JUMPDEST SUB SWAP1 RETURN JUMPDEST PUSH2 0x128 JUMP JUMPDEST MLOAD SWAP1 JUMP JUMPDEST PUSH1 0x20 SWAP2 DUP2 MSTORE ADD SWAP1 JUMP JUMPDEST PUSH1 0x20 ADD SWAP1 JUMP JUMPDEST PUSH2 0xD82 SWAP2 PUSH1 0xC0 PUSH2 0xD29 PUSH1 0xE0 DUP4 ADD PUSH2 0xD17 PUSH0 DUP7 ADD MLOAD PUSH0 DUP7 ADD SWAP1 PUSH2 0x342 JUMP JUMPDEST PUSH1 0x20 DUP6 ADD MLOAD DUP5 DUP3 SUB PUSH1 0x20 DUP7 ADD MSTORE PUSH2 0x358 JUMP JUMPDEST SWAP3 PUSH2 0xD3C PUSH1 0x40 DUP3 ADD MLOAD PUSH1 0x40 DUP6 ADD SWAP1 PUSH2 0x342 JUMP JUMPDEST PUSH2 0xD4E PUSH1 0x60 DUP3 ADD MLOAD PUSH1 0x60 DUP6 ADD SWAP1 PUSH2 0x38F JUMP JUMPDEST PUSH2 0xD60 PUSH1 0x80 DUP3 ADD MLOAD PUSH1 0x80 DUP6 ADD SWAP1 PUSH2 0x342 JUMP JUMPDEST PUSH2 0xD72 PUSH1 0xA0 DUP3 ADD MLOAD PUSH1 0xA0 DUP6 ADD SWAP1 PUSH2 0x3D7 JUMP JUMPDEST ADD MLOAD SWAP1 PUSH1 0xC0 DUP2 DUP5 SUB SWAP2 ADD MSTORE PUSH2 0x475 JUMP JUMPDEST SWAP1 JUMP JUMPDEST SWAP1 PUSH2 0xD8F SWAP2 PUSH2 0xCFA JUMP JUMPDEST SWAP1 JUMP JUMPDEST PUSH1 0x20 ADD SWAP1 JUMP JUMPDEST SWAP1 PUSH2 0xDAC PUSH2 0xDA5 DUP4 PUSH2 0xCE7 JUMP JUMPDEST DUP1 SWAP3 PUSH2 0xCEB JUMP JUMPDEST SWAP1 DUP2 PUSH2 0xDBD PUSH1 0x20 DUP4 MUL DUP5 ADD SWAP5 PUSH2 0xCF4 JUMP JUMPDEST SWAP3 PUSH0 SWAP2 JUMPDEST DUP4 DUP4 LT PUSH2 0xDD0 JUMPI POP POP POP POP POP SWAP1 JUMP JUMPDEST SWAP1 SWAP2 SWAP3 SWAP4 SWAP5 PUSH1 0x20 PUSH2 0xDF2 PUSH2 0xDEC DUP4 DUP6 PUSH1 0x1 SWAP6 SUB DUP8 MSTORE DUP10 MLOAD PUSH2 0xD85 JUMP JUMPDEST SWAP8 PUSH2 0xD92 JUMP JUMPDEST SWAP4 ADD SWAP4 ADD SWAP2 SWAP4 SWAP3 SWAP1 PUSH2 0xDC1 JUMP JUMPDEST PUSH2 0xE14 SWAP2 PUSH1 0x20 DUP3 ADD SWAP2 PUSH0 DUP2 DUP5 SUB SWAP2 ADD MSTORE PUSH2 0xD98 JUMP JUMPDEST SWAP1 JUMP JUMPDEST CALLVALUE PUSH2 0xE47 JUMPI PUSH2 0xE27 CALLDATASIZE PUSH1 0x4 PUSH2 0x130 JUMP JUMPDEST PUSH2 0xE43 PUSH2 0xE32 PUSH2 0x1EB7 JUMP JUMPDEST PUSH2 0xE3A PUSH2 0x122 JUMP JUMPDEST SWAP2 DUP3 SWAP2 DUP3 PUSH2 0xDFF JUMP JUMPDEST SUB SWAP1 RETURN JUMPDEST PUSH2 0x128 JUMP JUMPDEST PUSH0 DUP1 REVERT JUMPDEST PUSH1 0x60 SWAP1 JUMP JUMPDEST PUSH2 0xE5E SWAP1 PUSH2 0x87E JUMP JUMPDEST SWAP1 JUMP JUMPDEST PUSH2 0xE69 PUSH2 0xE50 JUMP JUMPDEST POP PUSH2 0xE74 PUSH1 0x4 PUSH2 0xE55 JUMP JUMPDEST SWAP1 JUMP JUMPDEST PUSH0 SWAP1 JUMP JUMPDEST PUSH2 0xE98 SWAP2 PUSH2 0xE87 PUSH2 0xE77 JUMP JUMPDEST POP PUSH2 0xE90 PUSH2 0x1ECD JUMP JUMPDEST SWAP2 SWAP1 SWAP2 PUSH2 0x1EDA JUMP JUMPDEST PUSH1 0x1 SWAP1 JUMP JUMPDEST PUSH0 SWAP1 JUMP JUMPDEST PUSH2 0xEA9 PUSH2 0xE9D JUMP JUMPDEST POP PUSH2 0xEB4 PUSH1 0x3 PUSH2 0x754 JUMP JUMPDEST SWAP1 JUMP JUMPDEST PUSH2 0xEC1 PUSH1 0xE0 PUSH2 0xAD0 JUMP JUMPDEST SWAP1 JUMP JUMPDEST PUSH0 SWAP1 JUMP JUMPDEST PUSH1 0x60 SWAP1 JUMP JUMPDEST PUSH0 SWAP1 JUMP JUMPDEST PUSH0 SWAP1 JUMP JUMPDEST PUSH1 0x60 SWAP1 JUMP JUMPDEST PUSH2 0xEE2 PUSH2 0xEB7 JUMP JUMPDEST SWAP1 PUSH1 0x20 DUP1 DUP1 DUP1 DUP1 DUP1 DUP1 DUP9 PUSH2 0xEF4 PUSH2 0xEC4 JUMP JUMPDEST DUP2 MSTORE ADD PUSH2 0xEFF PUSH2 0xEC8 JUMP JUMPDEST DUP2 MSTORE ADD PUSH2 0xF0A PUSH2 0xEC4 JUMP JUMPDEST DUP2 MSTORE ADD PUSH2 0xF15 PUSH2 0xECD JUMP JUMPDEST DUP2 MSTORE ADD PUSH2 0xF20 PUSH2 0xEC4 JUMP JUMPDEST DUP2 MSTORE ADD PUSH2 0xF2B PUSH2 0xED1 JUMP JUMPDEST DUP2 MSTORE ADD PUSH2 0xF36 PUSH2 0xED5 JUMP JUMPDEST DUP2 MSTORE POP POP JUMP JUMPDEST PUSH2 0xF44 PUSH2 0xEDA JUMP JUMPDEST SWAP1 JUMP JUMPDEST SWAP1 PUSH2 0xF51 SWAP1 PUSH2 0x21D JUMP JUMPDEST SWAP1 MSTORE JUMP JUMPDEST MSTORE JUMP JUMPDEST SWAP1 PUSH2 0xF62 SWAP1 PUSH2 0x389 JUMP JUMPDEST SWAP1 MSTORE JUMP JUMPDEST SWAP1 PUSH2 0xF70 SWAP1 PUSH2 0x3BF JUMP JUMPDEST SWAP1 MSTORE JUMP JUMPDEST SLOAD SWAP1 JUMP JUMPDEST PUSH8 0xFFFFFFFFFFFFFFFF DUP2 GT PUSH2 0xF90 JUMPI PUSH1 0x20 DUP1 SWAP2 MUL ADD SWAP1 JUMP JUMPDEST PUSH2 0x841 JUMP JUMPDEST SWAP1 PUSH2 0xFA7 PUSH2 0xFA2 DUP4 PUSH2 0xF78 JUMP JUMPDEST PUSH2 0xAD0 JUMP JUMPDEST SWAP2 DUP3 MSTORE JUMP JUMPDEST PUSH0 MSTORE PUSH1 0x20 PUSH0 KECCAK256 SWAP1 JUMP JUMPDEST PUSH1 0x1 DUP1 PUSH1 0xA0 SHL SUB AND SWAP1 JUMP JUMPDEST PUSH2 0xFCC PUSH2 0xFD1 SWAP2 PUSH2 0x738 JUMP JUMPDEST PUSH2 0xFB5 JUMP JUMPDEST SWAP1 JUMP JUMPDEST PUSH2 0xFDE SWAP1 SLOAD PUSH2 0xFC0 JUMP JUMPDEST SWAP1 JUMP JUMPDEST SWAP1 PUSH2 0xFEB SWAP1 PUSH2 0x1EE JUMP JUMPDEST SWAP1 MSTORE JUMP JUMPDEST PUSH2 0xFF9 PUSH1 0xA0 PUSH2 0xAD0 JUMP JUMPDEST SWAP1 JUMP JUMPDEST SWAP1 PUSH2 0x107B PUSH2 0x1072 PUSH1 0x4 PUSH2 0x100D PUSH2 0xFEF JUMP JUMPDEST SWAP5 PUSH2 0x1024 PUSH2 0x101C PUSH0 DUP4 ADD PUSH2 0xFD4 JUMP JUMPDEST PUSH0 DUP9 ADD PUSH2 0xFE1 JUMP JUMPDEST PUSH2 0x103C PUSH2 0x1033 PUSH1 0x1 DUP4 ADD PUSH2 0x754 JUMP JUMPDEST PUSH1 0x20 DUP9 ADD PUSH2 0xF47 JUMP JUMPDEST PUSH2 0x1054 PUSH2 0x104B PUSH1 0x2 DUP4 ADD PUSH2 0xFD4 JUMP JUMPDEST PUSH1 0x40 DUP9 ADD PUSH2 0xFE1 JUMP JUMPDEST PUSH2 0x106C PUSH2 0x1063 PUSH1 0x3 DUP4 ADD PUSH2 0x754 JUMP JUMPDEST PUSH1 0x60 DUP9 ADD PUSH2 0xF47 JUMP JUMPDEST ADD PUSH2 0x8E1 JUMP JUMPDEST PUSH1 0x80 DUP5 ADD PUSH2 0xF66 JUMP JUMPDEST JUMP JUMPDEST PUSH2 0x1086 SWAP1 PUSH2 0xFFC JUMP JUMPDEST SWAP1 JUMP JUMPDEST SWAP1 PUSH2 0x1093 DUP3 PUSH2 0xF74 JUMP JUMPDEST PUSH2 0x109C DUP2 PUSH2 0xF95 JUMP JUMPDEST SWAP3 PUSH2 0x10AA PUSH1 0x20 DUP6 ADD SWAP2 PUSH2 0xFAC JUMP JUMPDEST PUSH0 SWAP2 JUMPDEST DUP4 DUP4 LT PUSH2 0x10BA JUMPI POP POP POP POP JUMP JUMPDEST PUSH1 0x5 PUSH1 0x20 PUSH1 0x1 SWAP3 PUSH2 0x10CA DUP6 PUSH2 0x107D JUMP JUMPDEST DUP2 MSTORE ADD SWAP3 ADD SWAP3 ADD SWAP2 SWAP1 PUSH2 0x10AD JUMP JUMPDEST MSTORE JUMP JUMPDEST SWAP1 PUSH2 0x118A PUSH2 0x1181 PUSH1 0x6 PUSH2 0x10EC PUSH2 0xEB7 JUMP JUMPDEST SWAP5 PUSH2 0x1103 PUSH2 0x10FB PUSH0 DUP4 ADD PUSH2 0x754 JUMP JUMPDEST PUSH0 DUP9 ADD PUSH2 0xF47 JUMP JUMPDEST PUSH2 0x111B PUSH2 0x1112 PUSH1 0x1 DUP4 ADD PUSH2 0x87E JUMP JUMPDEST PUSH1 0x20 DUP9 ADD PUSH2 0xF55 JUMP JUMPDEST PUSH2 0x1133 PUSH2 0x112A PUSH1 0x2 DUP4 ADD PUSH2 0x754 JUMP JUMPDEST PUSH1 0x40 DUP9 ADD PUSH2 0xF47 JUMP JUMPDEST PUSH2 0x114B PUSH2 0x1142 PUSH1 0x3 DUP4 ADD PUSH2 0x8BA JUMP JUMPDEST PUSH1 0x60 DUP9 ADD PUSH2 0xF58 JUMP JUMPDEST PUSH2 0x1163 PUSH2 0x115A PUSH1 0x4 DUP4 ADD PUSH2 0x754 JUMP JUMPDEST PUSH1 0x80 DUP9 ADD PUSH2 0xF47 JUMP JUMPDEST PUSH2 0x117B PUSH2 0x1172 PUSH1 0x5 DUP4 ADD PUSH2 0x8E1 JUMP JUMPDEST PUSH1 0xA0 DUP9 ADD PUSH2 0xF66 JUMP JUMPDEST ADD PUSH2 0x1089 JUMP JUMPDEST PUSH1 0xC0 DUP5 ADD PUSH2 0x10D8 JUMP JUMPDEST JUMP JUMPDEST PUSH2 0x1195 SWAP1 PUSH2 0x10DB JUMP JUMPDEST SWAP1 JUMP JUMPDEST PUSH2 0x11AF PUSH2 0x11B5 SWAP2 PUSH2 0x11A7 PUSH2 0xF3C JUMP JUMPDEST POP PUSH1 0x6 PUSH2 0x710 JUMP JUMPDEST POP PUSH2 0x118C JUMP JUMPDEST SWAP1 JUMP JUMPDEST SWAP2 PUSH2 0x11E2 SWAP3 PUSH2 0x11C5 PUSH2 0xE77 JUMP JUMPDEST POP PUSH2 0x11DA PUSH2 0x11D1 PUSH2 0x1ECD JUMP JUMPDEST DUP3 SWAP1 DUP5 SWAP2 PUSH2 0x1F2A JUMP JUMPDEST SWAP2 SWAP1 SWAP2 PUSH2 0x1FB6 JUMP JUMPDEST PUSH1 0x1 SWAP1 JUMP JUMPDEST PUSH0 SWAP1 JUMP JUMPDEST SWAP1 JUMP JUMPDEST SWAP1 JUMP JUMPDEST PUSH2 0x1205 PUSH2 0x1200 PUSH2 0x120A SWAP3 PUSH2 0x11EB JUMP JUMPDEST PUSH2 0x11EE JUMP JUMPDEST PUSH2 0x389 JUMP JUMPDEST SWAP1 JUMP JUMPDEST PUSH2 0x1215 PUSH2 0x11E7 JUMP JUMPDEST POP PUSH2 0x1220 PUSH1 0x12 PUSH2 0x11F1 JUMP JUMPDEST SWAP1 JUMP JUMPDEST PUSH2 0x1237 PUSH2 0x1232 PUSH2 0x123C SWAP3 PUSH2 0x1E3 JUMP JUMPDEST PUSH2 0x11EE JUMP JUMPDEST PUSH2 0x1E3 JUMP JUMPDEST SWAP1 JUMP JUMPDEST PUSH2 0x1248 SWAP1 PUSH2 0x1223 JUMP JUMPDEST SWAP1 JUMP JUMPDEST PUSH2 0x1254 SWAP1 PUSH2 0x123F JUMP JUMPDEST SWAP1 JUMP JUMPDEST SWAP1 PUSH2 0x1261 SWAP1 PUSH2 0x124B JUMP JUMPDEST PUSH0 MSTORE PUSH1 0x20 MSTORE PUSH1 0x40 PUSH0 KECCAK256 SWAP1 JUMP JUMPDEST PUSH2 0x1284 PUSH2 0x1289 SWAP2 PUSH2 0x127C PUSH2 0xE9D JUMP JUMPDEST POP PUSH1 0x1 PUSH2 0x1257 JUMP JUMPDEST PUSH2 0x754 JUMP JUMPDEST SWAP1 JUMP JUMPDEST PUSH2 0x1294 PUSH2 0x2053 JUMP JUMPDEST PUSH2 0x129C PUSH2 0x12C9 JUMP JUMPDEST JUMP JUMPDEST SWAP1 JUMP JUMPDEST PUSH2 0x12B5 PUSH2 0x12B0 PUSH2 0x12BA SWAP3 PUSH2 0x129E JUMP JUMPDEST PUSH2 0x11EE JUMP JUMPDEST PUSH2 0x1E3 JUMP JUMPDEST SWAP1 JUMP JUMPDEST PUSH2 0x12C6 SWAP1 PUSH2 0x12A1 JUMP JUMPDEST SWAP1 JUMP JUMPDEST PUSH2 0x12DA PUSH2 0x12D5 PUSH0 PUSH2 0x12BD JUMP JUMPDEST PUSH2 0x20A1 JUMP JUMPDEST JUMP JUMPDEST PUSH2 0x12E4 PUSH2 0x128C JUMP JUMPDEST JUMP JUMPDEST PUSH0 SWAP1 JUMP JUMPDEST PUSH2 0x12F2 PUSH2 0x12E6 JUMP JUMPDEST POP PUSH2 0x12FC PUSH0 PUSH2 0xFD4 JUMP JUMPDEST SWAP1 JUMP JUMPDEST PUSH2 0x1307 PUSH2 0xE50 JUMP JUMPDEST POP PUSH2 0x1312 PUSH1 0x5 PUSH2 0xE55 JUMP JUMPDEST SWAP1 JUMP JUMPDEST PUSH2 0x1332 SWAP2 PUSH2 0x1321 PUSH2 0xE77 JUMP JUMPDEST POP PUSH2 0x132A PUSH2 0x1ECD JUMP JUMPDEST SWAP2 SWAP1 SWAP2 PUSH2 0x1FB6 JUMP JUMPDEST PUSH1 0x1 SWAP1 JUMP JUMPDEST PUSH0 PUSH32 0x6E6F7420656E6F7567682063617368207374616E676572000000000000000000 SWAP2 ADD MSTORE JUMP JUMPDEST PUSH2 0x136B PUSH1 0x17 PUSH1 0x20 SWAP3 PUSH2 0x143 JUMP JUMPDEST PUSH2 0x1374 DUP2 PUSH2 0x1337 JUMP JUMPDEST ADD SWAP1 JUMP JUMPDEST PUSH2 0x138D SWAP1 PUSH1 0x20 DUP2 ADD SWAP1 PUSH0 DUP2 DUP4 SUB SWAP2 ADD MSTORE PUSH2 0x135E JUMP JUMPDEST SWAP1 JUMP JUMPDEST ISZERO PUSH2 0x1397 JUMPI JUMP JUMPDEST PUSH2 0x139F PUSH2 0x122 JUMP JUMPDEST PUSH3 0x461BCD PUSH1 0xE5 SHL DUP2 MSTORE DUP1 PUSH2 0x13B5 PUSH1 0x4 DUP3 ADD PUSH2 0x1378 JUMP JUMPDEST SUB SWAP1 REVERT JUMPDEST SWAP1 JUMP JUMPDEST PUSH2 0x13D0 PUSH2 0x13CB PUSH2 0x13D5 SWAP3 PUSH2 0x13B9 JUMP JUMPDEST PUSH2 0x11EE JUMP JUMPDEST PUSH2 0x21D JUMP JUMPDEST SWAP1 JUMP JUMPDEST PUSH0 SWAP1 JUMP JUMPDEST PUSH2 0x13E4 PUSH2 0xFEF JUMP JUMPDEST SWAP1 PUSH1 0x20 DUP1 DUP1 DUP1 DUP1 DUP7 PUSH2 0x13F4 PUSH2 0x13D8 JUMP JUMPDEST DUP2 MSTORE ADD PUSH2 0x13FF PUSH2 0xEC4 JUMP JUMPDEST DUP2 MSTORE ADD PUSH2 0x140A PUSH2 0x13D8 JUMP JUMPDEST DUP2 MSTORE ADD PUSH2 0x1415 PUSH2 0xEC4 JUMP JUMPDEST DUP2 MSTORE ADD PUSH2 0x1420 PUSH2 0xED1 JUMP JUMPDEST DUP2 MSTORE POP POP JUMP JUMPDEST PUSH2 0x142E PUSH2 0x13DC JUMP JUMPDEST SWAP1 JUMP JUMPDEST PUSH0 JUMPDEST DUP3 DUP2 LT PUSH2 0x143F JUMPI POP POP POP JUMP JUMPDEST PUSH1 0x20 SWAP1 PUSH2 0x144A PUSH2 0x1426 JUMP JUMPDEST DUP2 DUP5 ADD MSTORE ADD PUSH2 0x1433 JUMP JUMPDEST SWAP1 PUSH2 0x1479 PUSH2 0x1461 DUP4 PUSH2 0xF95 JUMP JUMPDEST SWAP3 PUSH1 0x20 DUP1 PUSH2 0x146F DUP7 SWAP4 PUSH2 0xF78 JUMP JUMPDEST SWAP3 ADD SWAP2 SUB SWAP1 PUSH2 0x1431 JUMP JUMPDEST JUMP JUMPDEST PUSH2 0x1485 PUSH1 0xA0 PUSH2 0xAD0 JUMP JUMPDEST SWAP1 JUMP JUMPDEST PUSH2 0x149C PUSH2 0x1497 PUSH2 0x14A1 SWAP3 PUSH2 0x129E JUMP JUMPDEST PUSH2 0x11EE JUMP JUMPDEST PUSH2 0x21D JUMP JUMPDEST SWAP1 JUMP JUMPDEST SWAP1 PUSH2 0x14AE DUP3 PUSH2 0x3E4 JUMP JUMPDEST DUP2 LT ISZERO PUSH2 0x14BF JUMPI PUSH1 0x20 DUP1 SWAP2 MUL ADD ADD SWAP1 JUMP JUMPDEST PUSH2 0x6EF JUMP JUMPDEST SWAP1 JUMP JUMPDEST PUSH2 0x14D1 PUSH1 0xE0 PUSH2 0xAD0 JUMP JUMPDEST SWAP1 JUMP JUMPDEST PUSH0 MSTORE PUSH1 0x20 PUSH0 KECCAK256 SWAP1 JUMP JUMPDEST SLOAD SWAP1 JUMP JUMPDEST PUSH2 0x14EA DUP2 PUSH2 0x14DD JUMP JUMPDEST DUP3 LT ISZERO PUSH2 0x1504 JUMPI PUSH2 0x14FC PUSH1 0x7 SWAP2 PUSH2 0x14D4 JUMP JUMPDEST SWAP2 MUL ADD SWAP1 PUSH0 SWAP1 JUMP JUMPDEST PUSH2 0x6EF JUMP JUMPDEST PUSH4 0x4E487B71 PUSH1 0xE0 SHL PUSH0 MSTORE PUSH0 PUSH1 0x4 MSTORE PUSH1 0x24 PUSH0 REVERT JUMPDEST PUSH2 0x1526 SWAP1 MLOAD PUSH2 0x21D JUMP JUMPDEST SWAP1 JUMP JUMPDEST PUSH0 SHL SWAP1 JUMP JUMPDEST SWAP1 PUSH2 0x153A PUSH0 NOT SWAP2 PUSH2 0x1529 JUMP JUMPDEST SWAP2 DUP2 NOT AND SWAP2 AND OR SWAP1 JUMP JUMPDEST PUSH2 0x1558 PUSH2 0x1553 PUSH2 0x155D SWAP3 PUSH2 0x21D JUMP JUMPDEST PUSH2 0x11EE JUMP JUMPDEST PUSH2 0x21D JUMP JUMPDEST SWAP1 JUMP JUMPDEST SWAP1 JUMP JUMPDEST SWAP1 PUSH2 0x1578 PUSH2 0x1573 PUSH2 0x157F SWAP3 PUSH2 0x1544 JUMP JUMPDEST PUSH2 0x1560 JUMP JUMPDEST DUP3 SLOAD PUSH2 0x152E JUMP JUMPDEST SWAP1 SSTORE JUMP JUMPDEST MLOAD SWAP1 JUMP JUMPDEST PUSH1 0x1F PUSH1 0x20 SWAP2 ADD DIV SWAP1 JUMP JUMPDEST SHL SWAP1 JUMP JUMPDEST SWAP2 SWAP1 PUSH1 0x8 PUSH2 0x15B0 SWAP2 MUL SWAP2 PUSH2 0x15AA PUSH0 NOT DUP5 PUSH2 0x1591 JUMP JUMPDEST SWAP3 PUSH2 0x1591 JUMP JUMPDEST SWAP2 DUP2 NOT AND SWAP2 AND OR SWAP1 JUMP JUMPDEST SWAP2 SWAP1 PUSH2 0x15D0 PUSH2 0x15CB PUSH2 0x15D8 SWAP4 PUSH2 0x1544 JUMP JUMPDEST PUSH2 0x1560 JUMP JUMPDEST SWAP1 DUP4 SLOAD PUSH2 0x1595 JUMP JUMPDEST SWAP1 SSTORE JUMP JUMPDEST PUSH2 0x15EE SWAP2 PUSH2 0x15E8 PUSH2 0xE9D JUMP JUMPDEST SWAP2 PUSH2 0x15BA JUMP JUMPDEST JUMP JUMPDEST JUMPDEST DUP2 DUP2 LT PUSH2 0x15FC JUMPI POP POP JUMP JUMPDEST DUP1 PUSH2 0x1609 PUSH0 PUSH1 0x1 SWAP4 PUSH2 0x15DC JUMP JUMPDEST ADD PUSH2 0x15F1 JUMP JUMPDEST SWAP2 SWAP1 PUSH1 0x1F DUP2 GT PUSH2 0x161F JUMPI JUMPDEST POP POP POP JUMP JUMPDEST PUSH2 0x162B PUSH2 0x1650 SWAP4 PUSH2 0x79F JUMP JUMPDEST SWAP1 PUSH1 0x20 PUSH2 0x1637 DUP5 PUSH2 0x1587 JUMP JUMPDEST DUP4 ADD SWAP4 LT PUSH2 0x1658 JUMPI JUMPDEST PUSH2 0x1649 SWAP1 PUSH2 0x1587 JUMP JUMPDEST ADD SWAP1 PUSH2 0x15F0 JUMP JUMPDEST PUSH0 DUP1 DUP1 PUSH2 0x161A JUMP JUMPDEST SWAP2 POP PUSH2 0x1649 DUP2 SWAP3 SWAP1 POP PUSH2 0x1640 JUMP JUMPDEST SHR SWAP1 JUMP JUMPDEST SWAP1 PUSH2 0x167A SWAP1 PUSH0 NOT SWAP1 PUSH1 0x8 MUL PUSH2 0x1666 JUMP JUMPDEST NOT AND SWAP1 JUMP JUMPDEST DUP2 PUSH2 0x1689 SWAP2 PUSH2 0x166A JUMP JUMPDEST SWAP1 PUSH1 0x2 MUL OR SWAP1 JUMP JUMPDEST SWAP1 PUSH2 0x169B DUP2 PUSH2 0x13F JUMP JUMPDEST SWAP1 PUSH8 0xFFFFFFFFFFFFFFFF DUP3 GT PUSH2 0x175B JUMPI PUSH2 0x16BF DUP3 PUSH2 0x16B9 DUP6 SLOAD PUSH2 0x775 JUMP JUMPDEST DUP6 PUSH2 0x160F JUMP JUMPDEST PUSH1 0x20 SWAP1 PUSH1 0x1F DUP4 GT PUSH1 0x1 EQ PUSH2 0x16F3 JUMPI SWAP2 DUP1 SWAP2 PUSH2 0x16E2 SWAP4 PUSH0 SWAP3 PUSH2 0x16E7 JUMPI JUMPDEST POP POP PUSH2 0x167F JUMP JUMPDEST SWAP1 SSTORE JUMPDEST JUMP JUMPDEST SWAP1 SWAP2 POP ADD MLOAD PUSH0 DUP1 PUSH2 0x16DB JUMP JUMPDEST PUSH1 0x1F NOT DUP4 AND SWAP2 PUSH2 0x1702 DUP6 PUSH2 0x79F JUMP JUMPDEST SWAP3 PUSH0 JUMPDEST DUP2 DUP2 LT PUSH2 0x1743 JUMPI POP SWAP2 PUSH1 0x2 SWAP4 SWAP2 DUP6 PUSH1 0x1 SWAP7 SWAP5 LT PUSH2 0x1729 JUMPI JUMPDEST POP POP POP MUL ADD SWAP1 SSTORE PUSH2 0x16E5 JUMP JUMPDEST PUSH2 0x1739 SWAP2 ADD MLOAD PUSH1 0x1F DUP5 AND SWAP1 PUSH2 0x166A JUMP JUMPDEST SWAP1 SSTORE PUSH0 DUP1 DUP1 PUSH2 0x171D JUMP JUMPDEST SWAP2 SWAP4 PUSH1 0x20 PUSH1 0x1 DUP2 SWAP3 DUP8 DUP8 ADD MLOAD DUP2 SSTORE ADD SWAP6 ADD SWAP3 ADD PUSH2 0x1705 JUMP JUMPDEST PUSH2 0x841 JUMP JUMPDEST SWAP1 PUSH2 0x176A SWAP2 PUSH2 0x1691 JUMP JUMPDEST JUMP JUMPDEST PUSH2 0x1776 SWAP1 MLOAD PUSH2 0x389 JUMP JUMPDEST SWAP1 JUMP JUMPDEST SWAP1 PUSH2 0x1785 PUSH1 0xFF SWAP2 PUSH2 0x1529 JUMP JUMPDEST SWAP2 DUP2 NOT AND SWAP2 AND OR SWAP1 JUMP JUMPDEST PUSH2 0x17A3 PUSH2 0x179E PUSH2 0x17A8 SWAP3 PUSH2 0x389 JUMP JUMPDEST PUSH2 0x11EE JUMP JUMPDEST PUSH2 0x389 JUMP JUMPDEST SWAP1 JUMP JUMPDEST SWAP1 JUMP JUMPDEST SWAP1 PUSH2 0x17C3 PUSH2 0x17BE PUSH2 0x17CA SWAP3 PUSH2 0x178F JUMP JUMPDEST PUSH2 0x17AB JUMP JUMPDEST DUP3 SLOAD PUSH2 0x1779 JUMP JUMPDEST SWAP1 SSTORE JUMP JUMPDEST PUSH2 0x17D8 SWAP1 MLOAD PUSH2 0x3BF JUMP JUMPDEST SWAP1 JUMP JUMPDEST PUSH2 0x17E4 SWAP1 PUSH2 0x3BF JUMP JUMPDEST SWAP1 JUMP JUMPDEST SWAP1 JUMP JUMPDEST SWAP1 PUSH2 0x17FF PUSH2 0x17FA PUSH2 0x1806 SWAP3 PUSH2 0x17DB JUMP JUMPDEST PUSH2 0x17E7 JUMP JUMPDEST DUP3 SLOAD PUSH2 0x1779 JUMP JUMPDEST SWAP1 SSTORE JUMP JUMPDEST MLOAD SWAP1 JUMP JUMPDEST PUSH4 0x4E487B71 PUSH1 0xE0 SHL PUSH0 MSTORE PUSH1 0x11 PUSH1 0x4 MSTORE PUSH1 0x24 PUSH0 REVERT JUMPDEST PUSH2 0x1831 PUSH2 0x1837 SWAP2 SWAP4 SWAP3 SWAP4 PUSH2 0x21D JUMP JUMPDEST SWAP3 PUSH2 0x21D JUMP JUMPDEST SWAP2 PUSH2 0x1843 DUP4 DUP3 MUL PUSH2 0x21D JUMP JUMPDEST SWAP3 DUP2 DUP5 DIV EQ SWAP1 ISZERO OR ISZERO PUSH2 0x1852 JUMPI JUMP JUMPDEST PUSH2 0x180E JUMP JUMPDEST PUSH2 0x1862 SWAP1 PUSH1 0x5 PUSH2 0x1822 JUMP JUMPDEST SWAP1 JUMP JUMPDEST PUSH1 0x4 PUSH0 SWAP2 DUP3 DUP1 DUP3 ADD SSTORE PUSH2 0x187B DUP4 PUSH1 0x1 DUP4 ADD PUSH2 0x15DC JUMP JUMPDEST DUP3 PUSH1 0x2 DUP3 ADD SSTORE PUSH2 0x188E DUP4 PUSH1 0x3 DUP4 ADD PUSH2 0x15DC JUMP JUMPDEST ADD SSTORE JUMP JUMPDEST SWAP1 PUSH0 SUB PUSH2 0x18A4 JUMPI PUSH2 0x18A2 SWAP1 PUSH2 0x1865 JUMP JUMPDEST JUMP JUMPDEST PUSH2 0x1509 JUMP JUMPDEST JUMPDEST DUP2 DUP2 LT PUSH2 0x18B5 JUMPI POP POP JUMP JUMPDEST DUP1 PUSH2 0x18C2 PUSH0 PUSH1 0x5 SWAP4 PUSH2 0x1892 JUMP JUMPDEST ADD PUSH2 0x18AA JUMP JUMPDEST SWAP1 SWAP2 DUP3 DUP2 LT PUSH2 0x18D7 JUMPI JUMPDEST POP POP POP JUMP JUMPDEST PUSH2 0x18F5 PUSH2 0x18EF PUSH2 0x18E9 PUSH2 0x1900 SWAP6 PUSH2 0x1857 JUMP JUMPDEST SWAP3 PUSH2 0x1857 JUMP JUMPDEST SWAP3 PUSH2 0xFAC JUMP JUMPDEST SWAP2 DUP3 ADD SWAP2 ADD SWAP1 PUSH2 0x18A9 JUMP JUMPDEST PUSH0 DUP1 DUP1 PUSH2 0x18D2 JUMP JUMPDEST SWAP1 PUSH9 0x10000000000000000 DUP2 GT PUSH2 0x1931 JUMPI DUP2 PUSH2 0x1926 PUSH2 0x192F SWAP4 PUSH2 0xF74 JUMP JUMPDEST SWAP1 DUP3 DUP2 SSTORE PUSH2 0x18C8 JUMP JUMPDEST JUMP JUMPDEST PUSH2 0x841 JUMP JUMPDEST MLOAD SWAP1 JUMP JUMPDEST PUSH2 0x1944 SWAP1 MLOAD PUSH2 0x1EE JUMP JUMPDEST SWAP1 JUMP JUMPDEST SWAP1 PUSH2 0x1958 PUSH1 0x1 DUP1 PUSH1 0xA0 SHL SUB SWAP2 PUSH2 0x1529 JUMP JUMPDEST SWAP2 DUP2 NOT AND SWAP2 AND OR SWAP1 JUMP JUMPDEST SWAP1 JUMP JUMPDEST SWAP1 PUSH2 0x197A PUSH2 0x1975 PUSH2 0x1981 SWAP3 PUSH2 0x124B JUMP JUMPDEST PUSH2 0x1962 JUMP JUMPDEST DUP3 SLOAD PUSH2 0x1947 JUMP JUMPDEST SWAP1 SSTORE JUMP JUMPDEST SWAP1 PUSH2 0x19FB PUSH1 0x80 PUSH1 0x4 PUSH2 0x1A01 SWAP5 PUSH2 0x19A8 PUSH0 DUP3 ADD PUSH2 0x19A2 PUSH0 DUP9 ADD PUSH2 0x193A JUMP JUMPDEST SWAP1 PUSH2 0x1965 JUMP JUMPDEST PUSH2 0x19C1 PUSH1 0x1 DUP3 ADD PUSH2 0x19BB PUSH1 0x20 DUP9 ADD PUSH2 0x151C JUMP JUMPDEST SWAP1 PUSH2 0x1563 JUMP JUMPDEST PUSH2 0x19DA PUSH1 0x2 DUP3 ADD PUSH2 0x19D4 PUSH1 0x40 DUP9 ADD PUSH2 0x193A JUMP JUMPDEST SWAP1 PUSH2 0x1965 JUMP JUMPDEST PUSH2 0x19F3 PUSH1 0x3 DUP3 ADD PUSH2 0x19ED PUSH1 0x60 DUP9 ADD PUSH2 0x151C JUMP JUMPDEST SWAP1 PUSH2 0x1563 JUMP JUMPDEST ADD SWAP3 ADD PUSH2 0x17CE JUMP JUMPDEST SWAP1 PUSH2 0x17EA JUMP JUMPDEST JUMP JUMPDEST SWAP1 PUSH2 0x1A0D SWAP2 PUSH2 0x1985 JUMP JUMPDEST JUMP JUMPDEST PUSH2 0x1A34 PUSH2 0x1A2E PUSH2 0x1A1E DUP5 PUSH2 0x3E4 JUMP JUMPDEST SWAP4 PUSH2 0x1A29 DUP6 DUP6 PUSH2 0x1908 JUMP JUMPDEST PUSH2 0x3F1 JUMP JUMPDEST SWAP2 PUSH2 0xFAC JUMP JUMPDEST PUSH0 SWAP2 JUMPDEST DUP4 DUP4 LT PUSH2 0x1A44 JUMPI POP POP POP POP JUMP JUMPDEST PUSH1 0x5 PUSH1 0x20 DUP3 PUSH2 0x1A5D PUSH2 0x1A57 PUSH1 0x1 SWAP6 PUSH2 0x1936 JUMP JUMPDEST DUP7 PUSH2 0x1A03 JUMP JUMPDEST ADD SWAP3 ADD SWAP3 ADD SWAP2 SWAP1 PUSH2 0x1A37 JUMP JUMPDEST SWAP1 PUSH2 0x1A73 SWAP2 PUSH2 0x1A0F JUMP JUMPDEST JUMP JUMPDEST SWAP1 PUSH2 0x1B1D PUSH1 0xC0 PUSH1 0x6 PUSH2 0x1B23 SWAP5 PUSH2 0x1A98 PUSH0 DUP3 ADD PUSH2 0x1A92 PUSH0 DUP9 ADD PUSH2 0x151C JUMP JUMPDEST SWAP1 PUSH2 0x1563 JUMP JUMPDEST PUSH2 0x1AB1 PUSH1 0x1 DUP3 ADD PUSH2 0x1AAB PUSH1 0x20 DUP9 ADD PUSH2 0x1583 JUMP JUMPDEST SWAP1 PUSH2 0x1760 JUMP JUMPDEST PUSH2 0x1ACA PUSH1 0x2 DUP3 ADD PUSH2 0x1AC4 PUSH1 0x40 DUP9 ADD PUSH2 0x151C JUMP JUMPDEST SWAP1 PUSH2 0x1563 JUMP JUMPDEST PUSH2 0x1AE3 PUSH1 0x3 DUP3 ADD PUSH2 0x1ADD PUSH1 0x60 DUP9 ADD PUSH2 0x176C JUMP JUMPDEST SWAP1 PUSH2 0x17AE JUMP JUMPDEST PUSH2 0x1AFC PUSH1 0x4 DUP3 ADD PUSH2 0x1AF6 PUSH1 0x80 DUP9 ADD PUSH2 0x151C JUMP JUMPDEST SWAP1 PUSH2 0x1563 JUMP JUMPDEST PUSH2 0x1B15 PUSH1 0x5 DUP3 ADD PUSH2 0x1B0F PUSH1 0xA0 DUP9 ADD PUSH2 0x17CE JUMP JUMPDEST SWAP1 PUSH2 0x17EA JUMP JUMPDEST ADD SWAP3 ADD PUSH2 0x180A JUMP JUMPDEST SWAP1 PUSH2 0x1A69 JUMP JUMPDEST JUMP JUMPDEST SWAP2 SWAP1 PUSH2 0x1B36 JUMPI PUSH2 0x1B34 SWAP2 PUSH2 0x1A75 JUMP JUMPDEST JUMP JUMPDEST PUSH2 0x1509 JUMP JUMPDEST SWAP1 DUP2 SLOAD SWAP2 PUSH9 0x10000000000000000 DUP4 LT ISZERO PUSH2 0x1B6B JUMPI DUP3 PUSH2 0x1B63 SWAP2 PUSH1 0x1 PUSH2 0x1B69 SWAP6 ADD DUP2 SSTORE PUSH2 0x14E1 JUMP JUMPDEST SWAP1 PUSH2 0x1B25 JUMP JUMPDEST JUMP JUMPDEST PUSH2 0x841 JUMP JUMPDEST SWAP1 SWAP6 SWAP5 SWAP3 PUSH2 0x1BBB SWAP5 PUSH2 0x1BAA PUSH2 0x1BB4 SWAP3 PUSH2 0x1BA0 PUSH1 0x80 SWAP7 PUSH2 0x1B96 PUSH1 0xA0 DUP9 ADD SWAP13 PUSH0 DUP10 ADD SWAP1 PUSH2 0x2CD JUMP JUMPDEST PUSH1 0x20 DUP8 ADD SWAP1 PUSH2 0x2CD JUMP JUMPDEST PUSH1 0x40 DUP6 ADD SWAP1 PUSH2 0x60D JUMP JUMPDEST PUSH1 0x60 DUP4 ADD SWAP1 PUSH2 0x2CD JUMP JUMPDEST ADD SWAP1 PUSH2 0x95E JUMP JUMPDEST JUMP JUMPDEST CALLER PUSH2 0x1BC7 SWAP1 PUSH2 0x126D JUMP JUMPDEST DUP3 PUSH2 0x1BD1 SWAP1 PUSH2 0x21D JUMP JUMPDEST SWAP1 PUSH2 0x1BDB SWAP1 PUSH2 0x21D JUMP JUMPDEST LT ISZERO PUSH2 0x1BE6 SWAP1 PUSH2 0x1390 JUMP JUMPDEST PUSH1 0x1 PUSH2 0x1BF1 SWAP1 PUSH2 0x13BC JUMP JUMPDEST PUSH2 0x1BFA SWAP1 PUSH2 0x1454 JUMP JUMPDEST SWAP1 CALLER PUSH0 PUSH0 PUSH2 0x1C07 SWAP1 PUSH2 0x12BD JUMP JUMPDEST PUSH0 SWAP1 PUSH0 SWAP3 PUSH2 0x1C13 PUSH2 0x147B JUMP JUMPDEST SWAP5 PUSH0 DUP7 ADD SWAP1 PUSH2 0x1C21 SWAP2 PUSH2 0xFE1 JUMP JUMPDEST PUSH2 0x1C2A SWAP1 PUSH2 0x1488 JUMP JUMPDEST PUSH1 0x20 DUP6 ADD SWAP1 PUSH2 0x1C38 SWAP2 PUSH2 0xF47 JUMP JUMPDEST PUSH1 0x40 DUP5 ADD SWAP1 PUSH2 0x1C46 SWAP2 PUSH2 0xFE1 JUMP JUMPDEST PUSH2 0x1C4F SWAP1 PUSH2 0x1488 JUMP JUMPDEST PUSH1 0x60 DUP4 ADD SWAP1 PUSH2 0x1C5D SWAP2 PUSH2 0xF47 JUMP JUMPDEST PUSH1 0x80 DUP3 ADD SWAP1 PUSH2 0x1C6B SWAP2 PUSH2 0xF66 JUMP JUMPDEST DUP3 SWAP1 PUSH0 SWAP1 PUSH2 0x1C78 DUP3 PUSH2 0x1488 JUMP JUMPDEST PUSH2 0x1C82 SWAP1 DUP5 PUSH2 0x14A4 JUMP JUMPDEST MSTORE PUSH2 0x1C8C SWAP1 PUSH2 0x1488 JUMP JUMPDEST PUSH2 0x1C95 SWAP2 PUSH2 0x14A4 JUMP JUMPDEST MLOAD POP PUSH1 0x6 PUSH2 0x1CA2 SWAP1 PUSH2 0x14C4 JUMP JUMPDEST SWAP2 PUSH1 0x6 PUSH2 0x1CAE SWAP1 PUSH2 0x703 JUMP JUMPDEST SWAP2 SWAP1 DUP5 DUP7 DUP9 SWAP2 DUP11 SWAP4 SWAP5 PUSH2 0x1CBF PUSH2 0x14C7 JUMP JUMPDEST SWAP7 PUSH0 DUP9 ADD SWAP1 PUSH2 0x1CCD SWAP2 PUSH2 0xF47 JUMP JUMPDEST PUSH1 0x20 DUP8 ADD SWAP1 PUSH2 0x1CDB SWAP2 PUSH2 0xF55 JUMP JUMPDEST PUSH1 0x40 DUP7 ADD SWAP1 PUSH2 0x1CE9 SWAP2 PUSH2 0xF47 JUMP JUMPDEST PUSH1 0x60 DUP6 ADD SWAP1 PUSH2 0x1CF7 SWAP2 PUSH2 0xF58 JUMP JUMPDEST PUSH1 0x80 DUP5 ADD SWAP1 PUSH2 0x1D05 SWAP2 PUSH2 0xF47 JUMP JUMPDEST PUSH1 0xA0 DUP4 ADD SWAP1 PUSH2 0x1D13 SWAP2 PUSH2 0xF66 JUMP JUMPDEST PUSH1 0xC0 DUP3 ADD SWAP1 PUSH2 0x1D21 SWAP2 PUSH2 0x10D8 JUMP JUMPDEST PUSH2 0x1D2A SWAP2 PUSH2 0x1B3B JUMP JUMPDEST PUSH1 0x6 PUSH2 0x1D35 SWAP1 PUSH2 0x703 JUMP JUMPDEST SWAP1 SWAP2 SWAP3 SWAP4 PUSH32 0x5200794BA7D5386D6D997F966E54F17526AB61032AC5E883F64D3AE762FBEF59 SWAP5 PUSH2 0x1D63 PUSH2 0x122 JUMP JUMPDEST SWAP5 DUP6 SWAP5 PUSH2 0x1D70 SWAP5 DUP7 PUSH2 0x1B70 JUMP JUMPDEST SUB SWAP1 LOG1 JUMP JUMPDEST SWAP1 PUSH2 0x1D7F SWAP1 PUSH2 0x124B JUMP JUMPDEST PUSH0 MSTORE PUSH1 0x20 MSTORE PUSH1 0x40 PUSH0 KECCAK256 SWAP1 JUMP JUMPDEST PUSH2 0x1DB0 SWAP2 PUSH2 0x1DA6 PUSH2 0x1DAB SWAP3 PUSH2 0x1D9E PUSH2 0xE9D JUMP JUMPDEST POP PUSH1 0x2 PUSH2 0x1D75 JUMP JUMPDEST PUSH2 0x1257 JUMP JUMPDEST PUSH2 0x754 JUMP JUMPDEST SWAP1 JUMP JUMPDEST PUSH2 0x1DC4 SWAP1 PUSH2 0x1DBF PUSH2 0x2053 JUMP JUMPDEST PUSH2 0x1DC6 JUMP JUMPDEST JUMP JUMPDEST DUP1 PUSH2 0x1DE1 PUSH2 0x1DDB PUSH2 0x1DD6 PUSH0 PUSH2 0x12BD JUMP JUMPDEST PUSH2 0x1EE JUMP JUMPDEST SWAP2 PUSH2 0x1EE JUMP JUMPDEST EQ PUSH2 0x1DF1 JUMPI PUSH2 0x1DEF SWAP1 PUSH2 0x20A1 JUMP JUMPDEST JUMP JUMPDEST PUSH2 0x1E14 PUSH2 0x1DFD PUSH0 PUSH2 0x12BD JUMP JUMPDEST PUSH0 SWAP2 DUP3 SWAP2 PUSH4 0x1E4FBDF7 PUSH1 0xE0 SHL DUP4 MSTORE PUSH1 0x4 DUP4 ADD PUSH2 0xA13 JUMP JUMPDEST SUB SWAP1 REVERT JUMPDEST PUSH2 0x1E21 SWAP1 PUSH2 0x1DB3 JUMP JUMPDEST JUMP JUMPDEST PUSH1 0x60 SWAP1 JUMP JUMPDEST PUSH8 0xFFFFFFFFFFFFFFFF DUP2 GT PUSH2 0x1E40 JUMPI PUSH1 0x20 DUP1 SWAP2 MUL ADD SWAP1 JUMP JUMPDEST PUSH2 0x841 JUMP JUMPDEST SWAP1 PUSH2 0x1E57 PUSH2 0x1E52 DUP4 PUSH2 0x1E28 JUMP JUMPDEST PUSH2 0xAD0 JUMP JUMPDEST SWAP2 DUP3 MSTORE JUMP JUMPDEST SWAP1 PUSH2 0x1E66 DUP3 PUSH2 0x703 JUMP JUMPDEST PUSH2 0x1E6F DUP2 PUSH2 0x1E45 JUMP JUMPDEST SWAP3 PUSH2 0x1E7D PUSH1 0x20 DUP6 ADD SWAP2 PUSH2 0x707 JUMP JUMPDEST PUSH0 SWAP2 JUMPDEST DUP4 DUP4 LT PUSH2 0x1E8D JUMPI POP POP POP POP JUMP JUMPDEST PUSH1 0x7 PUSH1 0x20 PUSH1 0x1 SWAP3 PUSH2 0x1E9D DUP6 PUSH2 0x118C JUMP JUMPDEST DUP2 MSTORE ADD SWAP3 ADD SWAP3 ADD SWAP2 SWAP1 PUSH2 0x1E80 JUMP JUMPDEST PUSH2 0x1EB4 SWAP1 PUSH2 0x1E5C JUMP JUMPDEST SWAP1 JUMP JUMPDEST PUSH2 0x1EBF PUSH2 0x1E23 JUMP JUMPDEST POP PUSH2 0x1ECA PUSH1 0x6 PUSH2 0x1EAB JUMP JUMPDEST SWAP1 JUMP JUMPDEST PUSH2 0x1ED5 PUSH2 0x12E6 JUMP JUMPDEST POP CALLER SWAP1 JUMP JUMPDEST SWAP2 PUSH2 0x1EE8 SWAP3 SWAP2 PUSH1 0x1 SWAP3 PUSH2 0x2100 JUMP JUMPDEST JUMP JUMPDEST PUSH1 0x40 SWAP1 PUSH2 0x1F13 PUSH2 0x1F1A SWAP5 SWAP7 SWAP6 SWAP4 SWAP7 PUSH2 0x1F09 PUSH1 0x60 DUP5 ADD SWAP9 PUSH0 DUP6 ADD SWAP1 PUSH2 0xA06 JUMP JUMPDEST PUSH1 0x20 DUP4 ADD SWAP1 PUSH2 0x2CD JUMP JUMPDEST ADD SWAP1 PUSH2 0x2CD JUMP JUMPDEST JUMP JUMPDEST SWAP1 PUSH2 0x1F27 SWAP2 SUB PUSH2 0x21D JUMP JUMPDEST SWAP1 JUMP JUMPDEST SWAP3 SWAP2 SWAP3 PUSH2 0x1F38 DUP2 DUP4 SWAP1 PUSH2 0x1D8B JUMP JUMPDEST SWAP1 DUP2 PUSH2 0x1F4D PUSH2 0x1F47 PUSH0 NOT PUSH2 0x21D JUMP JUMPDEST SWAP2 PUSH2 0x21D JUMP JUMPDEST LT PUSH2 0x1F5A JUMPI JUMPDEST POP POP POP SWAP1 POP JUMP JUMPDEST DUP2 PUSH2 0x1F6D PUSH2 0x1F67 DUP8 PUSH2 0x21D JUMP JUMPDEST SWAP2 PUSH2 0x21D JUMP JUMPDEST LT PUSH2 0x1F93 JUMPI PUSH2 0x1F8A SWAP4 SWAP5 PUSH2 0x1F82 SWAP2 SWAP4 SWAP3 PUSH2 0x1F1C JUMP JUMPDEST SWAP1 PUSH0 SWAP3 PUSH2 0x2100 JUMP JUMPDEST DUP1 PUSH0 DUP1 DUP1 PUSH2 0x1F53 JUMP JUMPDEST POP PUSH2 0x1FB2 DUP5 SWAP3 SWAP2 SWAP3 PUSH0 SWAP4 DUP5 SWAP4 PUSH4 0x7DC7A0D9 PUSH1 0xE1 SHL DUP6 MSTORE PUSH1 0x4 DUP6 ADD PUSH2 0x1EEA JUMP JUMPDEST SUB SWAP1 REVERT JUMPDEST SWAP2 DUP3 PUSH2 0x1FD2 PUSH2 0x1FCC PUSH2 0x1FC7 PUSH0 PUSH2 0x12BD JUMP JUMPDEST PUSH2 0x1EE JUMP JUMPDEST SWAP2 PUSH2 0x1EE JUMP JUMPDEST EQ PUSH2 0x202C JUMPI DUP2 PUSH2 0x1FF2 PUSH2 0x1FEC PUSH2 0x1FE7 PUSH0 PUSH2 0x12BD JUMP JUMPDEST PUSH2 0x1EE JUMP JUMPDEST SWAP2 PUSH2 0x1EE JUMP JUMPDEST EQ PUSH2 0x2005 JUMPI PUSH2 0x2003 SWAP3 SWAP2 SWAP1 SWAP2 PUSH2 0x2242 JUMP JUMPDEST JUMP JUMPDEST PUSH2 0x2028 PUSH2 0x2011 PUSH0 PUSH2 0x12BD JUMP JUMPDEST PUSH0 SWAP2 DUP3 SWAP2 PUSH4 0xEC442F05 PUSH1 0xE0 SHL DUP4 MSTORE PUSH1 0x4 DUP4 ADD PUSH2 0xA13 JUMP JUMPDEST SUB SWAP1 REVERT JUMPDEST PUSH2 0x204F PUSH2 0x2038 PUSH0 PUSH2 0x12BD JUMP JUMPDEST PUSH0 SWAP2 DUP3 SWAP2 PUSH4 0x4B637E8F PUSH1 0xE1 SHL DUP4 MSTORE PUSH1 0x4 DUP4 ADD PUSH2 0xA13 JUMP JUMPDEST SUB SWAP1 REVERT JUMPDEST PUSH2 0x205B PUSH2 0x12EA JUMP JUMPDEST PUSH2 0x2074 PUSH2 0x206E PUSH2 0x2069 PUSH2 0x1ECD JUMP JUMPDEST PUSH2 0x1EE JUMP JUMPDEST SWAP2 PUSH2 0x1EE JUMP JUMPDEST SUB PUSH2 0x207B JUMPI JUMP JUMPDEST PUSH2 0x209D PUSH2 0x2086 PUSH2 0x1ECD JUMP JUMPDEST PUSH0 SWAP2 DUP3 SWAP2 PUSH4 0x118CDAA7 PUSH1 0xE0 SHL DUP4 MSTORE PUSH1 0x4 DUP4 ADD PUSH2 0xA13 JUMP JUMPDEST SUB SWAP1 REVERT JUMPDEST PUSH2 0x20AA PUSH0 PUSH2 0xFD4 JUMP JUMPDEST PUSH2 0x20B4 DUP3 PUSH0 PUSH2 0x1965 JUMP JUMPDEST SWAP1 PUSH2 0x20E8 PUSH2 0x20E2 PUSH32 0x8BE0079C531659141344CD1FD0A4F28419497F9722A3DAAFE3B4186F6B6457E0 SWAP4 PUSH2 0x124B JUMP JUMPDEST SWAP2 PUSH2 0x124B JUMP JUMPDEST SWAP2 PUSH2 0x20F1 PUSH2 0x122 JUMP JUMPDEST DUP1 PUSH2 0x20FB DUP2 PUSH2 0x6B7 JUMP JUMPDEST SUB SWAP1 LOG3 JUMP JUMPDEST SWAP1 SWAP3 DUP2 PUSH2 0x211D PUSH2 0x2117 PUSH2 0x2112 PUSH0 PUSH2 0x12BD JUMP JUMPDEST PUSH2 0x1EE JUMP JUMPDEST SWAP2 PUSH2 0x1EE JUMP JUMPDEST EQ PUSH2 0x21E8 JUMPI DUP4 PUSH2 0x213D PUSH2 0x2137 PUSH2 0x2132 PUSH0 PUSH2 0x12BD JUMP JUMPDEST PUSH2 0x1EE JUMP JUMPDEST SWAP2 PUSH2 0x1EE JUMP JUMPDEST EQ PUSH2 0x21C1 JUMPI PUSH2 0x2161 DUP4 PUSH2 0x215C PUSH2 0x2155 PUSH1 0x2 DUP7 SWAP1 PUSH2 0x1D75 JUMP JUMPDEST DUP8 SWAP1 PUSH2 0x1257 JUMP JUMPDEST PUSH2 0x1563 JUMP JUMPDEST PUSH2 0x216B JUMPI JUMPDEST POP POP POP JUMP JUMPDEST SWAP2 SWAP1 SWAP2 PUSH2 0x21B6 PUSH2 0x21A4 PUSH2 0x219E PUSH32 0x8C5BE1E5EBEC7D5BD14F71427D1E84F3DD0314C0F7B2291E5B200AC8C7C3B925 SWAP4 PUSH2 0x124B JUMP JUMPDEST SWAP4 PUSH2 0x124B JUMP JUMPDEST SWAP4 PUSH2 0x21AD PUSH2 0x122 JUMP JUMPDEST SWAP2 DUP3 SWAP2 DUP3 PUSH2 0x2DA JUMP JUMPDEST SUB SWAP1 LOG3 PUSH0 DUP1 DUP1 PUSH2 0x2166 JUMP JUMPDEST PUSH2 0x21E4 PUSH2 0x21CD PUSH0 PUSH2 0x12BD JUMP JUMPDEST PUSH0 SWAP2 DUP3 SWAP2 PUSH4 0x4A1406B1 PUSH1 0xE1 SHL DUP4 MSTORE PUSH1 0x4 DUP4 ADD PUSH2 0xA13 JUMP JUMPDEST SUB SWAP1 REVERT JUMPDEST PUSH2 0x220B PUSH2 0x21F4 PUSH0 PUSH2 0x12BD JUMP JUMPDEST PUSH0 SWAP2 DUP3 SWAP2 PUSH4 0xE602DF05 PUSH1 0xE0 SHL DUP4 MSTORE PUSH1 0x4 DUP4 ADD PUSH2 0xA13 JUMP JUMPDEST SUB SWAP1 REVERT JUMPDEST PUSH2 0x221E PUSH2 0x2224 SWAP2 SWAP4 SWAP3 SWAP4 PUSH2 0x21D JUMP JUMPDEST SWAP3 PUSH2 0x21D JUMP JUMPDEST DUP3 ADD DUP1 SWAP3 GT PUSH2 0x222F JUMPI JUMP JUMPDEST PUSH2 0x180E JUMP JUMPDEST SWAP1 PUSH2 0x223F SWAP2 ADD PUSH2 0x21D JUMP JUMPDEST SWAP1 JUMP JUMPDEST SWAP2 SWAP1 SWAP2 DUP1 PUSH2 0x2260 PUSH2 0x225A PUSH2 0x2255 PUSH0 PUSH2 0x12BD JUMP JUMPDEST PUSH2 0x1EE JUMP JUMPDEST SWAP2 PUSH2 0x1EE JUMP JUMPDEST EQ PUSH0 EQ PUSH2 0x2342 JUMPI PUSH2 0x2284 PUSH2 0x227D DUP4 PUSH2 0x2278 PUSH1 0x3 PUSH2 0x754 JUMP JUMPDEST PUSH2 0x220F JUMP JUMPDEST PUSH1 0x3 PUSH2 0x1563 JUMP JUMPDEST JUMPDEST DUP3 PUSH2 0x22A0 PUSH2 0x229A PUSH2 0x2295 PUSH0 PUSH2 0x12BD JUMP JUMPDEST PUSH2 0x1EE JUMP JUMPDEST SWAP2 PUSH2 0x1EE JUMP JUMPDEST EQ PUSH0 EQ PUSH2 0x2315 JUMPI PUSH2 0x22C4 PUSH2 0x22BD DUP4 PUSH2 0x22B8 PUSH1 0x3 PUSH2 0x754 JUMP JUMPDEST PUSH2 0x1F1C JUMP JUMPDEST PUSH1 0x3 PUSH2 0x1563 JUMP JUMPDEST JUMPDEST SWAP2 SWAP1 SWAP2 PUSH2 0x2310 PUSH2 0x22FE PUSH2 0x22F8 PUSH32 0xDDF252AD1BE2C89B69C2B068FC378DAA952BA7F163C4A11628F55A4DF523B3EF SWAP4 PUSH2 0x124B JUMP JUMPDEST SWAP4 PUSH2 0x124B JUMP JUMPDEST SWAP4 PUSH2 0x2307 PUSH2 0x122 JUMP JUMPDEST SWAP2 DUP3 SWAP2 DUP3 PUSH2 0x2DA JUMP JUMPDEST SUB SWAP1 LOG3 JUMP JUMPDEST PUSH2 0x233D DUP3 PUSH2 0x2337 PUSH2 0x2328 PUSH1 0x1 DUP8 SWAP1 PUSH2 0x1257 JUMP JUMPDEST SWAP2 PUSH2 0x2332 DUP4 PUSH2 0x754 JUMP JUMPDEST PUSH2 0x2234 JUMP JUMPDEST SWAP1 PUSH2 0x1563 JUMP JUMPDEST PUSH2 0x22C5 JUMP JUMPDEST PUSH2 0x2356 PUSH2 0x2351 PUSH1 0x1 DUP4 SWAP1 PUSH2 0x1257 JUMP JUMPDEST PUSH2 0x754 JUMP JUMPDEST DUP1 PUSH2 0x2369 PUSH2 0x2363 DUP6 PUSH2 0x21D JUMP JUMPDEST SWAP2 PUSH2 0x21D JUMP JUMPDEST LT PUSH2 0x2392 JUMPI PUSH2 0x237C PUSH2 0x238D SWAP2 DUP5 SWAP1 PUSH2 0x1F1C JUMP JUMPDEST PUSH2 0x2388 PUSH1 0x1 DUP5 SWAP1 PUSH2 0x1257 JUMP JUMPDEST PUSH2 0x1563 JUMP JUMPDEST PUSH2 0x2285 JUMP JUMPDEST SWAP1 PUSH2 0x23B0 SWAP1 SWAP2 SWAP3 PUSH0 SWAP4 DUP5 SWAP4 PUSH4 0x391434E3 PUSH1 0xE2 SHL DUP6 MSTORE PUSH1 0x4 DUP6 ADD PUSH2 0x1EEA JUMP JUMPDEST SUB SWAP1 REVERT INVALID LOG2 PUSH5 0x6970667358 0x22 SLT KECCAK256 PUSH20 0xE7D79E6C847327D0F4CD99D7252FAAFF3598780D PUSH20 0xF54AB6AE5758EB81BA2764736F6C634300081C00 CALLER "},"methodIdentifiers":{"allowance(address,address)":"dd62ed3e","approve(address,uint256)":"095ea7b3","balanceOf(address)":"70a08231","createTournament(string,uint256,uint8,uint256,uint8)":"b7ebf9aa","decimals()":"313ce567","getTournament(uint256)":"1a5bd7fc","getTournaments()":"f7f20cb3","name()":"06fdde03","owner()":"8da5cb5b","renounceOwnership()":"715018a6","symbol()":"95d89b41","totalSupply()":"18160ddd","tournaments(uint256)":"7503e1b7","transfer(address,uint256)":"a9059cbb","transferFrom(address,address,uint256)":"23b872dd","transferOwnership(address)":"f2fde38b"}}}}}