{"project/contracts/TournamentFactory.sol":{"TournamentFactory":{"abi":[{"inputs":[{"internalType":"address","name":"tokenAddress","type":"address"}],"stateMutability":"nonpayable","type":"constructor"},{"inputs":[{"internalType":"address","name":"owner","type":"address"}],"name":"OwnableInvalidOwner","type":"error"},{"inputs":[{"internalType":"address","name":"account","type":"address"}],"name":"OwnableUnauthorizedAccount","type":"error"},{"anonymous":false,"inputs":[{"indexed":false,"internalType":"uint256","name":"_id","type":"uint256"},{"indexed":false,"internalType":"uint256","name":"_round","type":"uint256"},{"indexed":false,"internalType":"uint256","name":"_matchId","type":"uint256"}],"name":"MatchCreated","type":"event"},{"anonymous":false,"inputs":[{"indexed":false,"internalType":"uint256","name":"_id","type":"uint256"},{"indexed":false,"internalType":"uint256","name":"_round","type":"uint256"},{"indexed":false,"internalType":"uint256","name":"_matchId","type":"uint256"}],"name":"MatchFinished","type":"event"},{"anonymous":false,"inputs":[{"indexed":true,"internalType":"address","name":"previousOwner","type":"address"},{"indexed":true,"internalType":"address","name":"newOwner","type":"address"}],"name":"OwnershipTransferred","type":"event"},{"anonymous":false,"inputs":[{"indexed":false,"internalType":"uint256","name":"_id","type":"uint256"}],"name":"RoundsCreated","type":"event"},{"anonymous":false,"inputs":[{"indexed":false,"internalType":"uint256","name":"_id","type":"uint256"}],"name":"SetStatus","type":"event"},{"anonymous":false,"inputs":[{"indexed":false,"internalType":"uint256","name":"_id","type":"uint256"}],"name":"TournamentCreated","type":"event"},{"inputs":[{"internalType":"uint256","name":"_id","type":"uint256"},{"internalType":"uint256","name":"_index","type":"uint256"}],"name":"claimPrize","outputs":[],"stateMutability":"nonpayable","type":"function"},{"inputs":[{"internalType":"uint256","name":"_id","type":"uint256"},{"internalType":"uint256","name":"_index","type":"uint256"}],"name":"claimRefunds","outputs":[],"stateMutability":"nonpayable","type":"function"},{"inputs":[{"internalType":"uint256","name":"_id","type":"uint256"},{"internalType":"uint256","name":"_round","type":"uint256"},{"internalType":"uint256","name":"_matchId","type":"uint256"},{"components":[{"internalType":"address","name":"addr","type":"address"},{"internalType":"bool","name":"claimed","type":"bool"},{"internalType":"string","name":"username","type":"string"}],"internalType":"struct TournamentFactory.Player","name":"p1","type":"tuple"},{"components":[{"internalType":"address","name":"addr","type":"address"},{"internalType":"bool","name":"claimed","type":"bool"},{"internalType":"string","name":"username","type":"string"}],"internalType":"struct TournamentFactory.Player","name":"p2","type":"tuple"}],"name":"createMatch","outputs":[],"stateMutability":"nonpayable","type":"function"},{"inputs":[{"internalType":"uint256","name":"_id","type":"uint256"},{"internalType":"uint256[]","name":"order","type":"uint256[]"}],"name":"createNextRound","outputs":[],"stateMutability":"nonpayable","type":"function"},{"inputs":[{"internalType":"uint256","name":"_id","type":"uint256"},{"internalType":"uint256[]","name":"order","type":"uint256[]"}],"name":"createRound","outputs":[],"stateMutability":"nonpayable","type":"function"},{"inputs":[{"internalType":"string","name":"_title","type":"string"},{"internalType":"uint256","name":"_entryFee","type":"uint256"},{"internalType":"uint256","name":"_maxParticipants","type":"uint256"},{"internalType":"uint256","name":"_startTime","type":"uint256"},{"internalType":"string","name":"_username","type":"string"}],"name":"createTournament","outputs":[],"stateMutability":"nonpayable","type":"function"},{"inputs":[{"internalType":"uint256","name":"_id","type":"uint256"},{"internalType":"uint256","name":"_round","type":"uint256"},{"internalType":"uint256","name":"_matchId","type":"uint256"}],"name":"getMatch","outputs":[{"components":[{"components":[{"internalType":"address","name":"addr","type":"address"},{"internalType":"bool","name":"claimed","type":"bool"},{"internalType":"string","name":"username","type":"string"}],"internalType":"struct TournamentFactory.Player","name":"player1","type":"tuple"},{"internalType":"uint256","name":"player1Score","type":"uint256"},{"components":[{"internalType":"address","name":"addr","type":"address"},{"internalType":"bool","name":"claimed","type":"bool"},{"internalType":"string","name":"username","type":"string"}],"internalType":"struct TournamentFactory.Player","name":"player2","type":"tuple"},{"internalType":"uint256","name":"player2Score","type":"uint256"},{"internalType":"enum TournamentFactory.Status","name":"status","type":"uint8"}],"internalType":"struct TournamentFactory.Match","name":"","type":"tuple"}],"stateMutability":"view","type":"function"},{"inputs":[{"internalType":"uint256","name":"tournamentId","type":"uint256"},{"internalType":"uint256","name":"round","type":"uint256"},{"internalType":"uint256","name":"matchNumber","type":"uint256"}],"name":"getMatchKey","outputs":[{"internalType":"bytes32","name":"","type":"bytes32"}],"stateMutability":"pure","type":"function"},{"inputs":[{"internalType":"bytes32","name":"_key","type":"bytes32"}],"name":"getMatchWithKey","outputs":[{"components":[{"components":[{"internalType":"address","name":"addr","type":"address"},{"internalType":"bool","name":"claimed","type":"bool"},{"internalType":"string","name":"username","type":"string"}],"internalType":"struct TournamentFactory.Player","name":"player1","type":"tuple"},{"internalType":"uint256","name":"player1Score","type":"uint256"},{"components":[{"internalType":"address","name":"addr","type":"address"},{"internalType":"bool","name":"claimed","type":"bool"},{"internalType":"string","name":"username","type":"string"}],"internalType":"struct TournamentFactory.Player","name":"player2","type":"tuple"},{"internalType":"uint256","name":"player2Score","type":"uint256"},{"internalType":"enum TournamentFactory.Status","name":"status","type":"uint8"}],"internalType":"struct TournamentFactory.Match","name":"","type":"tuple"}],"stateMutability":"view","type":"function"},{"inputs":[{"internalType":"uint256","name":"tournamentId","type":"uint256"},{"internalType":"uint256","name":"round","type":"uint256"},{"internalType":"uint256","name":"index","type":"uint256"}],"name":"getPlayer","outputs":[{"components":[{"internalType":"address","name":"addr","type":"address"},{"internalType":"bool","name":"claimed","type":"bool"},{"internalType":"string","name":"username","type":"string"}],"internalType":"struct TournamentFactory.Player","name":"","type":"tuple"}],"stateMutability":"view","type":"function"},{"inputs":[{"internalType":"uint256","name":"tournamentId","type":"uint256"},{"internalType":"uint256","name":"round","type":"uint256"},{"internalType":"uint256","name":"index","type":"uint256"}],"name":"getPlayerKey","outputs":[{"internalType":"bytes32","name":"","type":"bytes32"}],"stateMutability":"pure","type":"function"},{"inputs":[{"internalType":"uint256","name":"id","type":"uint256"}],"name":"getTournament","outputs":[{"components":[{"internalType":"uint256","name":"id","type":"uint256"},{"internalType":"string","name":"title","type":"string"},{"internalType":"uint256","name":"entryFee","type":"uint256"},{"internalType":"uint256","name":"participants","type":"uint256"},{"internalType":"uint256","name":"maxParticipants","type":"uint256"},{"internalType":"uint256","name":"currentRound","type":"uint256"},{"internalType":"uint256","name":"startTime","type":"uint256"},{"internalType":"enum TournamentFactory.Status","name":"status","type":"uint8"}],"internalType":"struct TournamentFactory.Tournament","name":"","type":"tuple"}],"stateMutability":"view","type":"function"},{"inputs":[],"name":"getTournamentLength","outputs":[{"internalType":"uint256","name":"","type":"uint256"}],"stateMutability":"view","type":"function"},{"inputs":[],"name":"getTournaments","outputs":[{"components":[{"internalType":"uint256","name":"id","type":"uint256"},{"internalType":"string","name":"title","type":"string"},{"internalType":"uint256","name":"entryFee","type":"uint256"},{"internalType":"uint256","name":"participants","type":"uint256"},{"internalType":"uint256","name":"maxParticipants","type":"uint256"},{"internalType":"uint256","name":"currentRound","type":"uint256"},{"internalType":"uint256","name":"startTime","type":"uint256"},{"internalType":"enum TournamentFactory.Status","name":"status","type":"uint8"}],"internalType":"struct TournamentFactory.Tournament[]","name":"","type":"tuple[]"}],"stateMutability":"view","type":"function"},{"inputs":[{"internalType":"uint256","name":"_id","type":"uint256"},{"internalType":"string","name":"_username","type":"string"}],"name":"joinTournament","outputs":[],"stateMutability":"nonpayable","type":"function"},{"inputs":[],"name":"owner","outputs":[{"internalType":"address","name":"","type":"address"}],"stateMutability":"view","type":"function"},{"inputs":[],"name":"renounceOwnership","outputs":[],"stateMutability":"nonpayable","type":"function"},{"inputs":[{"internalType":"enum TournamentFactory.Status","name":"_statue","type":"uint8"},{"internalType":"uint256","name":"_id","type":"uint256"}],"name":"setTournamentStatus","outputs":[],"stateMutability":"nonpayable","type":"function"},{"inputs":[{"internalType":"uint256","name":"_id","type":"uint256"},{"internalType":"uint256[]","name":"order","type":"uint256[]"}],"name":"startTournament","outputs":[],"stateMutability":"nonpayable","type":"function"},{"inputs":[{"internalType":"uint256","name":"_id","type":"uint256"},{"internalType":"uint256","name":"_round","type":"uint256"},{"internalType":"uint256","name":"_matchId","type":"uint256"},{"internalType":"uint256","name":"_score_1","type":"uint256"},{"internalType":"uint256","name":"_score_2","type":"uint256"}],"name":"submitMatchScore","outputs":[],"stateMutability":"nonpayable","type":"function"},{"inputs":[],"name":"token","outputs":[{"internalType":"contract TRIZcoin","name":"","type":"address"}],"stateMutability":"view","type":"function"},{"inputs":[{"internalType":"uint256","name":"","type":"uint256"}],"name":"tournaments","outputs":[{"internalType":"uint256","name":"id","type":"uint256"},{"internalType":"string","name":"title","type":"string"},{"internalType":"uint256","name":"entryFee","type":"uint256"},{"internalType":"uint256","name":"participants","type":"uint256"},{"internalType":"uint256","name":"maxParticipants","type":"uint256"},{"internalType":"uint256","name":"currentRound","type":"uint256"},{"internalType":"uint256","name":"startTime","type":"uint256"},{"internalType":"enum TournamentFactory.Status","name":"status","type":"uint8"}],"stateMutability":"view","type":"function"},{"inputs":[{"internalType":"address","name":"newOwner","type":"address"}],"name":"transferOwnership","outputs":[],"stateMutability":"nonpayable","type":"function"}],"evm":{"bytecode":{"linkReferences":{},"object":"60806040523461002f576100196100146100f4565b61019b565b610021610034565b61407f610329823961407f90f35b61003a565b60405190565b5f80fd5b601f801991011690565b634e487b7160e01b5f52604160045260245ffd5b906100669061003e565b810190811060018060401b0382111761007e57604052565b610048565b9061009661008f610034565b928361005c565b565b5f80fd5b60018060a01b031690565b6100b09061009c565b90565b6100bc816100a7565b036100c357565b5f80fd5b905051906100d4826100b3565b565b906020828203126100ef576100ec915f016100c7565b90565b610098565b6101126143a88038038061010781610083565b9283398101906100d6565b90565b90565b61012c6101276101319261009c565b610115565b61009c565b90565b61013d90610118565b90565b61014990610134565b90565b5f1b90565b9061016260018060a01b039161014c565b9181191691161790565b61017590610134565b90565b90565b9061019061018b6101979261016c565b610178565b8254610151565b9055565b6101b06101b7916101ab33610206565b610140565b600161017b565b565b90565b6101d06101cb6101d5926101b9565b610115565b61009c565b90565b6101e1906101bc565b90565b6101ed906100a7565b9052565b9190610204905f602085019401906101e4565b565b8061022161021b6102165f6101d8565b6100a7565b916100a7565b146102315761022f906102c9565b565b61025461023d5f6101d8565b5f918291631e4fbdf760e01b8352600483016101f1565b0390fd5b5f1c90565b60018060a01b031690565b61027461027991610258565b61025d565b90565b6102869054610268565b90565b61029290610118565b90565b61029e90610289565b90565b90565b906102b96102b46102c092610295565b6102a1565b8254610151565b9055565b5f0190565b6102d25f61027c565b6102dc825f6102a4565b9061031061030a7f8be0079c531659141344cd1fd0a4f28419497f9722a3daafe3b4186f6b6457e093610295565b91610295565b91610319610034565b80610323816102c4565b0390a356fe60806040526004361015610013575b61137a565b61001d5f3561018c565b806304808088146101875780631a5bd7fc146101825780631bd9103b1461017d57806322654955146101785780632c542b881461017357806330e6aaf21461016e57806332bdb9e2146101695780634c7be95f14610164578063679224b41461015f578063715018a61461015a5780637503e1b7146101555780637b1541401461015057806389870d5a1461014b5780638da5cb5b146101465780639d5d40fb14610141578063bf14c8871461013c578063c1deef5214610137578063f2fde38b14610132578063f4716df21461012d578063f7f20cb314610128578063fc0c546a14610123578063fd0c7dfb1461011e5763ffdde68c0361000e57611343565b611288565b611253565b611181565b61100c565b610fd9565b610f86565b610f3d565b610ebf565b610e8a565b610e31565b610da7565b610d3b565b610a12565b6109ce565b610957565b6108cb565b610894565b610720565b6105f8565b6104a0565b61040c565b610260565b60e01c90565b60405190565b5f80fd5b5f80fd5b5f80fd5b90565b6101b0816101a4565b036101b757565b5f80fd5b905035906101c8826101a7565b565b5f80fd5b5f80fd5b5f80fd5b909182601f830112156102105781359167ffffffffffffffff831161020b57602001926020830284011161020657565b6101d2565b6101ce565b6101ca565b9190916040818403126102565761022e835f83016101bb565b92602082013567ffffffffffffffff81116102515761024d92016101d6565b9091565b6101a0565b61019c565b5f0190565b3461028f57610279610273366004610215565b916117e2565b610281610192565b8061028b8161025b565b0390f35b610198565b906020828203126102ad576102aa915f016101bb565b90565b61019c565b6102bb906101a4565b9052565b5190565b60209181520190565b90825f9392825e0152565b601f801991011690565b61030061030960209361030e936102f7816102bf565b938480936102c3565b958691016102cc565b6102d7565b0190565b634e487b7160e01b5f52602160045260245ffd5b6004111561033057565b610312565b9061033f82610326565b565b61034a90610335565b90565b61035690610341565b9052565b906103f19060e08061038c610100840161037a5f8801515f8701906102b2565b602087015185820360208701526102e1565b9461039f604082015160408601906102b2565b6103b1606082015160608601906102b2565b6103c3608082015160808601906102b2565b6103d560a082015160a08601906102b2565b6103e760c082015160c08601906102b2565b015191019061034d565b90565b6104099160208201915f81840391015261035a565b90565b3461043c57610438610427610422366004610294565b611875565b61042f610192565b918291826103f4565b0390f35b610198565b90916060828403126104765761047361045c845f85016101bb565b9361046a81602086016101bb565b936040016101bb565b90565b61019c565b90565b6104879061047b565b9052565b919061049e905f6020850194019061047e565b565b346104d1576104cd6104bc6104b6366004610441565b916118e6565b6104c4610192565b9182918261048b565b0390f35b610198565b5f80fd5b634e487b7160e01b5f52604160045260245ffd5b906104f8906102d7565b810190811067ffffffffffffffff82111761051257604052565b6104da565b9061052a610523610192565b92836104ee565b565b67ffffffffffffffff811161054a576105466020916102d7565b0190565b6104da565b90825f939282370152565b9092919261056f61056a8261052c565b610517565b9381855260208501908284011161058b576105899261054f565b565b6104d6565b9080601f830112156105ae578160206105ab9335910161055a565b90565b6101ca565b9190916040818403126105f3576105cc835f83016101bb565b92602082013567ffffffffffffffff81116105ee576105eb9201610590565b90565b6101a0565b61019c565b346106275761061161060b3660046105b3565b9061216b565b610619610192565b806106238161025b565b0390f35b610198565b60018060a01b031690565b6106409061062c565b90565b61064c90610637565b9052565b151590565b61065e90610650565b9052565b61069f916040606082019261067d5f8201515f850190610643565b61068f60208201516020850190610655565b01519060408184039101526102e1565b90565b90610705906080806106e86106c460a085015f8801518682035f880152610662565b6106d6602088015160208701906102b2565b60408701518582036040870152610662565b946106fb606082015160608601906102b2565b015191019061034d565b90565b61071d9160208201915f8184039101526106a2565b90565b346107515761074d61073c610736366004610441565b9161259d565b610744610192565b91829182610708565b0390f35b610198565b5f80fd5b5f80fd5b61076781610637565b0361076e57565b5f80fd5b9050359061077f8261075e565b565b61078a81610650565b0361079157565b5f80fd5b905035906107a282610781565b565b919091606081840312610808576107bb6060610517565b926107c8815f8401610772565b5f8501526107d98160208401610795565b6020850152604082013567ffffffffffffffff8111610803576107fc9201610590565b6040830152565b61075a565b610756565b91909160a08184031261088f57610826835f83016101bb565b9261083481602084016101bb565b9261084282604085016101bb565b92606081013567ffffffffffffffff811161088a57836108639183016107a4565b92608082013567ffffffffffffffff81116108855761088292016107a4565b90565b6101a0565b6101a0565b61019c565b346108c6576108b06108a736600461080d565b939290926127a7565b6108b8610192565b806108c28161025b565b0390f35b610198565b346108fa576108e46108de366004610215565b9161284e565b6108ec610192565b806108f68161025b565b0390f35b610198565b61093c916040606082019261091a5f8201515f850190610643565b61092c60208201516020850190610655565b01519060408184039101526102e1565b90565b6109549160208201915f8184039101526108ff565b90565b346109885761098461097361096d366004610441565b91612866565b61097b610192565b9182918261093f565b0390f35b610198565b6109968161047b565b0361099d57565b5f80fd5b905035906109ae8261098d565b565b906020828203126109c9576109c6915f016109a1565b90565b61019c565b346109fe576109fa6109e96109e43660046109b0565b612893565b6109f1610192565b91829182610708565b0390f35b610198565b5f910312610a0d57565b61019c565b34610a4057610a22366004610a03565b610a2a6128ff565b610a32610192565b80610a3c8161025b565b0390f35b610198565b634e487b7160e01b5f52603260045260245ffd5b5490565b5f5260205f2090565b610a6f81610a59565b821015610a8957610a81600891610a5d565b910201905f90565b610a45565b5f1c90565b90565b610aa2610aa791610a8e565b610a93565b90565b610ab49054610a96565b90565b634e487b7160e01b5f52602260045260245ffd5b9060016002830492168015610aeb575b6020831014610ae657565b610ab7565b91607f1691610adb565b5f5260205f2090565b905f9291805490610b18610b1183610acb565b80946102c3565b916001811690815f14610b6f5750600114610b33575b505050565b610b409192939450610af5565b915f925b818410610b5757505001905f8080610b2e565b60018160209295939554848601520191019290610b44565b92949550505060ff19168252151560200201905f8080610b2e565b90610b9491610afe565b90565b90610bb7610bb092610ba7610192565b93848092610b8a565b03836104ee565b565b60ff1690565b610bcb610bd091610a8e565b610bb9565b90565b610bdd9054610bbf565b90565b600290610bec82610a59565b811015610c6657610bfc91610a66565b5090610c095f8301610aaa565b91610c1660018201610b97565b91610c2360028301610aaa565b91610c3060038201610aaa565b91610c3d60048301610aaa565b91610c4a60058201610aaa565b91610c636007610c5c60068501610aaa565b9301610bd3565b90565b5f80fd5b610c73906101a4565b9052565b60209181520190565b610c9f610ca8602093610cad93610c96816102bf565b93848093610c77565b958691016102cc565b6102d7565b0190565b610cba90610341565b9052565b9395610d1e60e096610d14610d32969c9b99610d0a610cff8a610d399e99610cf1610d289a5f6101008501940190610c6a565b8c6020818403910152610c80565b9e60408b0190610c6a565b6060890190610c6a565b6080870190610c6a565b60a0850190610c6a565b60c0830190610c6a565b0190610cb1565b565b34610d7557610d71610d56610d51366004610294565b610be0565b94610d68989698949194939293610192565b98899889610cbe565b0390f35b610198565b9190604083820312610da25780610d96610d9f925f86016101bb565b936020016101bb565b90565b61019c565b34610dd657610dc0610dba366004610d7a565b90612c70565b610dc8610192565b80610dd28161025b565b0390f35b610198565b919060a083820312610e2c57610df3815f85016101bb565b92610e0182602083016101bb565b92610e29610e1284604085016101bb565b93610e2081606086016101bb565b936080016101bb565b90565b61019c565b34610e6357610e4d610e44366004610ddb565b93929092613058565b610e55610192565b80610e5f8161025b565b0390f35b610198565b610e7190610637565b9052565b9190610e88905f60208501940190610e68565b565b34610eba57610e9a366004610a03565b610eb6610ea561306b565b610ead610192565b91829182610e75565b0390f35b610198565b34610eee57610ed8610ed2366004610215565b91613102565b610ee0610192565b80610eea8161025b565b0390f35b610198565b60041115610efd57565b5f80fd5b90503590610f0e82610ef3565b565b9190604083820312610f385780610f2c610f35925f8601610f01565b936020016101bb565b90565b61019c565b34610f6c57610f56610f50366004610f10565b9061317f565b610f5e610192565b80610f688161025b565b0390f35b610198565b9190610f84905f60208501940190610c6a565b565b34610fb657610f96366004610a03565b610fb2610fa161318b565b610fa9610192565b91829182610f71565b0390f35b610198565b90602082820312610fd457610fd1915f01610772565b90565b61019c565b3461100757610ff1610fec366004610fbb565b613206565b610ff9610192565b806110038161025b565b0390f35b610198565b3461103d57611039611028611022366004610441565b91613211565b611030610192565b9182918261048b565b0390f35b610198565b5190565b60209181520190565b60200190565b906110ec9060e08061108761010084016110755f8801515f8701906102b2565b602087015185820360208701526102e1565b9461109a604082015160408601906102b2565b6110ac606082015160608601906102b2565b6110be608082015160808601906102b2565b6110d060a082015160a08601906102b2565b6110e260c082015160c08601906102b2565b015191019061034d565b90565b906110f991611055565b90565b60200190565b9061111661110f83611042565b8092611046565b90816111276020830284019461104f565b925f915b83831061113a57505050505090565b9091929394602061115c611156838560019503875289516110ef565b976110fc565b930193019193929061112b565b61117e9160208201915f818403910152611102565b90565b346111b157611191366004610a03565b6111ad61119c6132f1565b6111a4610192565b91829182611169565b0390f35b610198565b1c90565b60018060a01b031690565b6111d59060086111da93026111b6565b6111ba565b90565b906111e891546111c5565b90565b6111f760015f906111dd565b90565b90565b61121161120c6112169261062c565b6111fa565b61062c565b90565b611222906111fd565b90565b61122e90611219565b90565b61123a90611225565b9052565b9190611251905f60208501940190611231565b565b3461128357611263366004610a03565b61127f61126e6111eb565b611276610192565b9182918261123e565b0390f35b610198565b346112b7576112a161129b366004610d7a565b906134b6565b6112a9610192565b806112b38161025b565b0390f35b610198565b91909160a08184031261133e575f81013567ffffffffffffffff811161133957836112e8918301610590565b926112f681602084016101bb565b9261130482604085016101bb565b9261131283606083016101bb565b92608082013567ffffffffffffffff8111611334576113319201610590565b90565b6101a0565b6101a0565b61019c565b346113755761135f6113563660046112bc565b93929092613aea565b611367610192565b806113718161025b565b0390f35b610198565b5f80fd5b90611391929161138c613f8f565b61167a565b565b9061139d906101a4565b9052565b52565b906113ae90610335565b9052565b6113bd610100610517565b90565b9061148761147e60076113d16113b2565b946113e86113e05f8301610aaa565b5f8801611393565b6114006113f760018301610b97565b602088016113a1565b61141861140f60028301610aaa565b60408801611393565b61143061142760038301610aaa565b60608801611393565b61144861143f60048301610aaa565b60808801611393565b61146061145760058301610aaa565b60a08801611393565b61147861146f60068301610aaa565b60c08801611393565b01610bd3565b60e084016113a4565b565b611492906113c0565b90565b90565b6114ac6114a76114b192611495565b6111fa565b6101a4565b90565b90565b6114cb6114c66114d0926114b4565b6111fa565b6101a4565b90565b634e487b7160e01b5f52601160045260245ffd5b6114f66114fc919392936101a4565b926101a4565b820180921161150757565b6114d3565b5090565b61151a90516101a4565b90565b919081101561152d576020020190565b610a45565b3561153c816101a7565b90565b6115489061047b565b90565b906115559061153f565b5f5260205260405f2090565b60018060a01b031690565b61157861157d91610a8e565b611561565b90565b61158a905461156c565b90565b9061159790610637565b9052565b60a01c90565b60ff1690565b6115b36115b89161159b565b6115a1565b90565b6115c590546115a7565b90565b906115d290610650565b9052565b6115e06060610517565b90565b9061163161162860016115f46115d6565b9461160b6116035f8301611580565b5f880161158d565b6116226116195f83016115bb565b602088016115c8565b01610b97565b604084016113a1565b565b61163c906115e3565b90565b90565b61165661165161165b9261163f565b6111fa565b6101a4565b90565b611667906101a4565b5f1981146116755760010190565b6114d3565b92919261169261168c60028390610a66565b50611489565b9161169c5f611498565b946116a65f611498565b955b866116c56116bf6116ba86869061150c565b6101a4565b916101a4565b10156117a05761178961179a916117848961176d611768896117628c8b61175c6117578d61172b61172688611720888e61171a61171561170a60a06004979501611510565b928c908a909161151d565b611532565b91613211565b9061154b565b611633565b9961175161173e60a060049a9801611510565b95929161174b6001611642565b906114e7565b9161151d565b611532565b91613211565b9061154b565b611633565b889161177b60a08c01611510565b859192936127a7565b61165e565b9661179460026114b7565b906114e7565b956116a8565b505050919250506117dd7fd3c80747cf34c27f74c281e72950414233266100a718398cdb1ecc060a2a6dab916117d4610192565b91829182610f71565b0390a1565b906117ed929161137e565b565b5f90565b606090565b5f90565b6118046113b2565b90602080808080808080896118176117ef565b8152016118226117f3565b81520161182d6117ef565b8152016118386117ef565b8152016118436117ef565b81520161184e6117ef565b8152016118596117ef565b8152016118646117f8565b81525050565b6118726117fc565b90565b61188c6118929161188461186a565b506002610a66565b50611489565b90565b5f90565b90565b6118a86118ad916101a4565b611899565b9052565b602093926118d085836118c882956118d89761189c565b01809261189c565b01809261189c565b0190565b60200190565b5190565b9061190d61191c926118f6611895565b509193611901610192565b948593602085016118b1565b602082018103825203826104ee565b61192e611928826118e2565b916118dc565b2090565b90565b5f7f746f75726e616d656e742069736e27742070656e64696e670000000000000000910152565b6119696018602092610c77565b61197281611935565b0190565b61198b9060208101905f81830391015261195c565b90565b1561199557565b61199d610192565b62461bcd60e51b8152806119b360048201611976565b0390fd5b5f7f646561646c696e65207265616368656400000000000000000000000000000000910152565b6119eb6010602092610c77565b6119f4816119b7565b0190565b611a0d9060208101905f8183039101526119de565b90565b15611a1757565b611a1f610192565b62461bcd60e51b815280611a35600482016119f8565b0390fd5b5f7f746f75726e616d656e742069732066756c6c0000000000000000000000000000910152565b611a6d6012602092610c77565b611a7681611a39565b0190565b611a8f9060208101905f818303910152611a60565b90565b15611a9957565b611aa1610192565b62461bcd60e51b815280611ab760048201611a7a565b0390fd5b90565b90565b611ad5611ad0611ada92611abe565b6111fa565b6101a4565b90565b90565b611af4611aef611af992611add565b6111fa565b6101a4565b90565b5f7f557365726e616d65206c656e67746820696e76616c6964000000000000000000910152565b611b306017602092610c77565b611b3981611afc565b0190565b611b529060208101905f818303910152611b23565b90565b15611b5c57565b611b64610192565b62461bcd60e51b815280611b7a60048201611b3d565b0390fd5b905090565b611ba8611b9f92602092611b96816102bf565b94858093611b7e565b938491016102cc565b0190565b80611bbd602092611bc4959461189c565b0190611b83565b90565b90611bd19061153f565b5f5260205260405f2090565b611be9611bee91610a8e565b6115a1565b90565b611bfb9054611bdd565b90565b5f7f557365726e616d6520616c726561647920757365640000000000000000000000910152565b611c326015602092610c77565b611c3b81611bfe565b0190565b611c549060208101905f818303910152611c25565b90565b15611c5e57565b611c66610192565b62461bcd60e51b815280611c7c60048201611c3f565b0390fd5b611c8c611c9191610a8e565b6111ba565b90565b611c9e9054611c80565b90565b611caa90611219565b90565b60e01b90565b90505190611cc082610781565b565b90602082820312611cdb57611cd8915f01611cb3565b90565b61019c565b604090611d09611d109496959396611cff60608401985f850190610e68565b6020830190610e68565b0190610c6a565b565b611d1a610192565b3d5f823e3d90fd5b5f7f6e6f7420656e6f756768206361736820737472616e6765720000000000000000910152565b611d566018602092610c77565b611d5f81611d22565b0190565b611d789060208101905f818303910152611d49565b90565b15611d8257565b611d8a610192565b62461bcd60e51b815280611da060048201611d63565b0390fd5b5f1b90565b90611db55f1991611da4565b9181191691161790565b611dd3611dce611dd8926101a4565b6111fa565b6101a4565b90565b90565b90611df3611dee611dfa92611dbf565b611ddb565b8254611da9565b9055565b611e086060610517565b90565b611e1a611e20919392936101a4565b926101a4565b8203918211611e2b57565b6114d3565b634e487b7160e01b5f525f60045260245ffd5b611e4d9051610637565b90565b90611e6160018060a01b0391611da4565b9181191691161790565b611e7490611219565b90565b90565b90611e8f611e8a611e9692611e6b565b611e77565b8254611e50565b9055565b611ea49051610650565b90565b60a01b90565b90611ebc60ff60a01b91611ea7565b9181191691161790565b611ecf90610650565b90565b90565b90611eea611ee5611ef192611ec6565b611ed2565b8254611ead565b9055565b5190565b601f602091010490565b1b90565b91906008611f22910291611f1c5f1984611f03565b92611f03565b9181191691161790565b9190611f42611f3d611f4a93611dbf565b611ddb565b908354611f07565b9055565b5f90565b611f6491611f5e611f4e565b91611f2c565b565b5b818110611f72575050565b80611f7f5f600193611f52565b01611f67565b9190601f8111611f95575b505050565b611fa1611fc693610af5565b906020611fad84611ef9565b83019310611fce575b611fbf90611ef9565b0190611f66565b5f8080611f90565b9150611fbf81929050611fb6565b90611fec905f19906008026111b6565b191690565b81611ffb91611fdc565b906002021790565b9061200d816102bf565b9067ffffffffffffffff82116120cd576120318261202b8554610acb565b85611f85565b602090601f831160011461206557918091612054935f92612059575b5050611ff1565b90555b565b90915001515f8061204d565b601f1983169161207485610af5565b925f5b8181106120b55750916002939185600196941061209b575b50505002019055612057565b6120ab910151601f841690611fdc565b90555f808061208f565b91936020600181928787015181550195019201612077565b6104da565b906120dc91612003565b565b9061212160406001612127946121015f82016120fb5f8801611e43565b90611e7a565b6121195f820161211360208801611e9a565b90611ed5565b019201611ef5565b906120d2565b565b90612133916120de565b565b9061214160ff91611da4565b9181191691161790565b9061216061215b61216792611ec6565b611ed2565b8254612135565b9055565b9061218161217b60028490610a66565b50611932565b916121a961219160078501610bd3565b6121a361219d5f610335565b91610335565b1461198e565b6121d06121b860068501610aaa565b6121ca6121c4426101a4565b916101a4565b11611a10565b6122026121df60038501610aaa565b6121fc6121f66121f160048801610aaa565b6101a4565b916101a4565b10611a92565b61223961221661221184611abb565b6118e2565b8061222a6122246003611ac1565b916101a4565b10159081612433575b50611b55565b61229c61229761229161228c6005856122738891612264612258610192565b93849260208401611bac565b602082018103825203826104ee565b61228561227f826118e2565b916118dc565b2090611bc7565b611bf1565b15610650565b611c57565b6122ae6122a96001611c94565b611225565b9060206323b872dd9233906122ea5f6122c630611ca1565b966122f56122d660028c01610aaa565b6122de610192565b998a9788968795611cad565b855260048501611ce0565b03925af1801561242e576123fe9461231b6123b1926123f9955f91612400575b50611d7b565b6123396003820161233361232e82610aaa565b61165e565b90611dde565b6123ac3361236c5f612363899161235a612351611dfe565b955f870161158d565b602085016115c8565b604083016113a1565b916123a660049186906123a0612390600361238960058501610aaa565b9301610aaa565b61239a6001611642565b90611e0b565b91613211565b9061154b565b612129565b6001926123e06005926123d16123c5610192565b93849260208401611bac565b602082018103825203826104ee565b6123f26123ec826118e2565b916118dc565b2090611bc7565b61214b565b565b612421915060203d8111612427575b61241981836104ee565b810190611cc2565b5f612315565b503d61240f565b611d12565b90506124486124426012611ae0565b916101a4565b11155f612233565b61245a60a0610517565b90565b5f90565b5f90565b61246d6115d6565b90602080808461247b61245d565b815201612486612461565b8152016124916117f3565b81525050565b61249f612465565b90565b6124aa612450565b90602080808080866124ba612497565b8152016124c56117ef565b8152016124d0612497565b8152016124db6117ef565b8152016124e66117f8565b81525050565b6124f46124a2565b90565b906125019061153f565b5f5260205260405f2090565b52565b9061258f6125866006612521612450565b946125386125305f83016115e3565b5f880161250d565b61255061254760028301610aaa565b60208801611393565b61256861255f600383016115e3565b6040880161250d565b61258061257760058301610aaa565b60608801611393565b01610bd3565b608084016113a4565b565b61259a90612510565b90565b6125bc6125c2926125c7946125b06124ec565b506003939190916118e6565b906124f7565b612591565b90565b906125df949392916125da613f8f565b6126ea565b565b6125eb60a0610517565b90565b5190565b6125fc9051610335565b90565b61260890610335565b90565b90565b9061262361261e61262a926125ff565b61260b565b8254612135565b9055565b906126a4608060066126aa946126515f820161264b5f88016125ee565b90612129565b61266a6002820161266460208801611510565b90611dde565b6126836003820161267d604088016125ee565b90612129565b61269c6005820161269660608801611510565b90611dde565b0192016125f2565b9061260e565b565b906126b69161262e565b565b6040906126e16126e894969593966126d760608401985f850190610c6a565b6020830190610c6a565b0190610c6a565b565b91929361274d61276992959161274461273b5f926127365f9161272d6127245f9761271f6127166125e1565b9b5f8d0161250d565b611498565b60208a01611393565b6040880161250d565b611498565b60608501611393565b608083016113a4565b612764600361275e858888916118e6565b906124f7565b6126ac565b9190916127a27f5f6f5a0de1d83b1d2ab2af48b8e7ffaba041d7d1b99fd698fbf60083def9216c93612799610192565b938493846126b8565b0390a1565b906127b4949392916125ca565b565b906127c992916127c4613f8f565b612801565b565b634e487b7160e01b5f52601260045260245ffd5b6127eb6127f1916101a4565b916101a4565b9081156127fc570490565b6127cb565b9161284c9261284461281e61281860028490610a66565b50611932565b61283e600561282d60026114b7565b92019161283983610aaa565b6127df565b90611dde565b9190916117e2565b565b9061285992916127b6565b565b612863612465565b90565b61288561288b926128909461287961285b565b50600493919091613211565b9061154b565b611633565b90565b6128aa6128af916128a26124ec565b5060036124f7565b612591565b90565b6128ba613f8f565b6128c26128ec565b565b6128d86128d36128dd92611495565b6111fa565b61062c565b90565b6128e9906128c4565b90565b6128fd6128f85f6128e0565b613fdd565b565b6129076128b2565b565b5f7f506c6179657220696e646578206f7574206f662072616e676500000000000000910152565b61293d6019602092610c77565b61294681612909565b0190565b61295f9060208101905f818303910152612930565b90565b1561296957565b612971610192565b62461bcd60e51b8152806129876004820161294a565b0390fd5b5f7f546f75726e616d6e6574206964206f7574206f662072616e6765000000000000910152565b6129bf601a602092610c77565b6129c88161298b565b0190565b6129e19060208101905f8183039101526129b2565b90565b156129eb57565b6129f3610192565b62461bcd60e51b815280612a09600482016129cc565b0390fd5b5f7f546f75726e616d656e742069736e27742066696e697368656400000000000000910152565b612a416019602092610c77565b612a4a81612a0d565b0190565b612a639060208101905f818303910152612a34565b90565b15612a6d57565b612a75610192565b62461bcd60e51b815280612a8b60048201612a4e565b0390fd5b90565b5f7f4c617374206d617463682069736e27742066696e697368656400000000000000910152565b612ac66019602092610c77565b612acf81612a92565b0190565b612ae89060208101905f818303910152612ab9565b90565b15612af257565b612afa610192565b62461bcd60e51b815280612b1060048201612ad3565b0390fd5b5f7f4b65657020647265616d696e67206f662077696e6e696e670000000000000000910152565b612b486018602092610c77565b612b5181612b14565b0190565b612b6a9060208101905f818303910152612b3b565b90565b15612b7457565b612b7c610192565b62461bcd60e51b815280612b9260048201612b55565b0390fd5b5f7f5072697a6520616c726561647920636c61696d65640000000000000000000000910152565b612bca6015602092610c77565b612bd381612b96565b0190565b612bec9060208101905f818303910152612bbd565b90565b15612bf657565b612bfe610192565b62461bcd60e51b815280612c1460048201612bd7565b0390fd5b612c27612c2d919392936101a4565b926101a4565b91612c398382026101a4565b928184041490151715612c4857565b6114d3565b916020612c6e929493612c6760408201965f830190610e68565b0190610c6a565b565b90612c979080612c88612c825f611498565b916101a4565b14908115612f08575b50612962565b80612caa612ca45f611498565b916101a4565b101580612ee0575b612cbb906129e4565b612d2b612d26612cd6612cd060028590610a66565b50611489565b92612cff612ce660e086016125f2565b612cf9612cf36002610335565b91610335565b14612a66565b612d206003916001612d1a612d145f92611642565b91611498565b916118e6565b906124f7565b612a8f565b612d53612d3a60068301610bd3565b612d4d612d476002610335565b91610335565b14612aeb565b612d5f60028201610aaa565b612d7c612d76612d7160058501610aaa565b6101a4565b916101a4565b115f14612e825780612daf612d975f80612dd9950101611580565b612da9612da333610637565b91610637565b14612b6d565b612dcd612dc8612dc25f808501016115bb565b15610650565b612bef565b5f806001920101611ed5565b5b6020612dee612de96001611c94565b611225565b9163a9059cbb92612e345f612e1c3394612e166080612e0f60408401611510565b9201611510565b90612c18565b95612e3f612e28610192565b97889687958694611cad565b845260048401612c4d565b03925af18015612e7d57612e51575b50565b612e719060203d8111612e76575b612e6981836104ee565b810190611cc2565b612e4e565b503d612e5f565b611d12565b80612eaf612e975f6003612edb950101611580565b612ea9612ea333610637565b91610637565b14612b6d565b612ece612ec9612ec35f60038501016115bb565b15610650565b612bef565b5f60036001920101611ed5565b612dda565b50612cbb81612f00612efa612ef56002610a59565b6101a4565b916101a4565b109050612cb2565b9050612f1d612f176001611642565b916101a4565b145f612c91565b90612f3994939291612f34613f8f565b612f3b565b565b91929093612fa2612f9c612f64612f5f6003612f59888b8b916118e6565b906124f7565b612a8f565b93612f728160028701611dde565b612f7f8460058701611dde565b612f8d60026006870161260e565b612f9561285b565b50926101a4565b916101a4565b115f14613047575f612fb49101611633565b5b83612fc9612fc36001611642565b916101a4565b0361300e575b509190916130097f8e36a42896ac2a1d0c0b5ca5aff8b1f91ab25de19c492d83a3dac09ba976437193613000610192565b938493846126b8565b0390a1565b6130419061303c60046130368561302f8961302960026114b7565b906127df565b8891613211565b9061154b565b612129565b5f612fcf565b60036130539101611633565b612fb5565b9061306594939291612f24565b565b5f90565b613073613067565b5061307d5f611580565b90565b90613093929161308e613f8f565b613095565b565b91906130c7916130be6130b36130ad60028790610a66565b50611932565b60076001910161260e565b839190916117e2565b6130fd7f472dde00d4a421d9e9fc7bef66dbf7671c60e18dfa993294579a036528bc0820916130f4610192565b91829182610f71565b0390a1565b9061310d9291613080565b565b906131219161311c613f8f565b613123565b565b61314490600761313e61313860028690610a66565b50611932565b0161260e565b61317a7f472dde00d4a421d9e9fc7bef66dbf7671c60e18dfa993294579a036528bc082091613171610192565b91829182610f71565b0390a1565b906131899161310f565b565b613193611f4e565b5061319e6002610a59565b90565b6131b2906131ad613f8f565b6131b4565b565b806131cf6131c96131c45f6128e0565b610637565b91610637565b146131df576131dd90613fdd565b565b6132026131eb5f6128e0565b5f918291631e4fbdf760e01b835260048301610e75565b0390fd5b61320f906131a1565b565b9061323861324792613221611895565b50919361322c610192565b948593602085016118b1565b602082018103825203826104ee565b613259613253826118e2565b916118dc565b2090565b606090565b67ffffffffffffffff811161327a5760208091020190565b6104da565b9061329161328c83613262565b610517565b918252565b906132a082610a59565b6132a98161327f565b926132b76020850191610a5d565b5f915b8383106132c75750505050565b600860206001926132d785611489565b8152019201920191906132ba565b6132ee90613296565b90565b6132f961325d565b5061330460026132e5565b90565b90565b5f7f746f75726e616d656e742069736e277420657870697265640000000000000000910152565b61333e6018602092610c77565b6133478161330a565b0190565b6133609060208101905f818303910152613331565b90565b1561336a57565b613372610192565b62461bcd60e51b8152806133886004820161334b565b0390fd5b60207f66756e6473000000000000000000000000000000000000000000000000000000917f547279696e6720746f207769746864726177206f7468657220757365722773205f8201520152565b6133e66025604092610c77565b6133ef8161338c565b0190565b6134089060208101905f8183039101526133d9565b90565b1561341257565b61341a610192565b62461bcd60e51b815280613430600482016133f3565b0390fd5b5f7f7573657220616c726561647920636c61696d656420726566756e640000000000910152565b613468601b602092610c77565b61347181613434565b0190565b61348a9060208101905f81830391015261345b565b90565b1561349457565b61349c610192565b62461bcd60e51b8152806134b260048201613475565b0390fd5b6134fb6134f6613576926134f06134d86134d260028490610a66565b50611489565b95600492906134e960a08901611510565b9091613211565b9061154b565b613307565b61350760e084016125f2565b61351a6135146003610335565b91610335565b1480613608575b61352a90613363565b6135506135385f8301611580565b61354a61354433610637565b91610637565b1461340b565b61356c6135676135615f84016115bb565b15610650565b61348d565b5f60019101611ed5565b602061358a6135856001611c94565b611225565b9163a9059cbb926135ba5f6135a26040339501611510565b956135c56135ae610192565b97889687958694611cad565b845260048401612c4d565b03925af18015613603576135d7575b50565b6135f79060203d81116135fc575b6135ef81836104ee565b810190611cc2565b6135d4565b503d6135e5565b611d12565b5061352a61361860c08501611510565b61362a613624426101a4565b916101a4565b109050613521565b9050519061363f826101a7565b565b9060208282031261365a57613657915f01613632565b90565b61019c565b5f7f4e6f7420656e6f756768206361736820737472616e6765720000000000000000910152565b6136936018602092610c77565b61369c8161365f565b0190565b6136b59060208101905f818303910152613686565b90565b156136bf57565b6136c7610192565b62461bcd60e51b8152806136dd600482016136a0565b0390fd5b5f7f546f6b656e207472616e73666572206661696c65640000000000000000000000910152565b6137156015602092610c77565b61371e816136e1565b0190565b6137379060208101905f818303910152613708565b90565b1561374157565b613749610192565b62461bcd60e51b81528061375f60048201613722565b0390fd5b5f7f5469746c65206c656e67746820696e76616c6964000000000000000000000000910152565b6137976014602092610c77565b6137a081613763565b0190565b6137b99060208101905f81830391015261378a565b90565b156137c357565b6137cb610192565b62461bcd60e51b8152806137e1600482016137a4565b0390fd5b5f7f456e74727920666565206d757374206265203e20300000000000000000000000910152565b6138196015602092610c77565b613822816137e5565b0190565b61383b9060208101905f81830391015261380c565b90565b1561384557565b61384d610192565b62461bcd60e51b81528061386360048201613826565b0390fd5b60207f6620320000000000000000000000000000000000000000000000000000000000917f4d6178207061727469636970616e7473206d75737420626520706f776572206f5f8201520152565b6138c16023604092610c77565b6138ca81613867565b0190565b6138e39060208101905f8183039101526138b4565b90565b156138ed57565b6138f5610192565b62461bcd60e51b81528061390b600482016138ce565b0390fd5b5f7f53746172742074696d65206d75737420626520696e2074686520667574757265910152565b61394260208092610c77565b61394b8161390f565b0190565b6139649060208101905f818303910152613936565b90565b1561396e57565b613976610192565b62461bcd60e51b81528061398c6004820161394f565b0390fd5b90565b61399e610100610517565b90565b5f5260205f2090565b5490565b6139b7816139aa565b8210156139d1576139c96008916139a1565b910201905f90565b610a45565b90613a9760e06007613a9d946139f95f82016139f35f8801611510565b90611dde565b613a1260018201613a0c60208801611ef5565b906120d2565b613a2b60028201613a2560408801611510565b90611dde565b613a4460038201613a3e60608801611510565b90611dde565b613a5d60048201613a5760808801611510565b90611dde565b613a7660058201613a7060a08801611510565b90611dde565b613a8f60068201613a8960c08801611510565b90611dde565b0192016125f2565b9061260e565b565b9190613ab057613aae916139d6565b565b611e30565b9081549168010000000000000000831015613ae55782613add916001613ae3950181556139ae565b90613a9f565b565b6104da565b90929192613b2f6020613b05613b006001611c94565b611225565b6370a0823190613b243392613b18610192565b95869485938493611cad565b835260048301610e75565b03915afa8015613f8a57613b5e915f91613f5c575b50613b57613b51846101a4565b916101a4565b10156136b8565b613b70613b6b6001611c94565b611225565b60206323b872dd913390613ba05f613b8730611ca1565b95613bab88613b94610192565b98899788968795611cad565b855260048501611ce0565b03925af18015613f5757613bc6915f91613f29575b5061373a565b613bfd613bda613bd584611abb565b6118e2565b80613bee613be86003611ac1565b916101a4565b10159081613f0c575b506137bc565b613c34613c11613c0c87611abb565b6118e2565b80613c25613c1f6003611ac1565b916101a4565b10159081613eef575b50611b55565b613c5081613c4a613c445f611498565b916101a4565b1161383e565b83613c64613c5e6001611642565b916101a4565b1180613ebb575b613c74906138e6565b8242613c7f906101a4565b90613c89906101a4565b11613c9390613967565b6002613c9e90613990565b926002613caa90610a59565b92919060018690876002613cbd906114b7565b613cc6916127df565b92935f95613cd2613993565b975f890190613ce091611393565b6020880190613cee916113a1565b6040870190613cfc91611393565b613d0590611642565b6060860190613d1391611393565b6080850190613d2191611393565b60a0840190613d2f91611393565b60c0830190613d3d91611393565b60e0820190613d4b916113a4565b613d5491613ab5565b335f8390613d60611dfe565b925f840190613d6e9161158d565b6020830190613d7c916115c8565b6040820190613d8a916113a1565b906004906002613d9990610a59565b6001613da490611642565b613dad91611e0b565b906002613db9906114b7565b613dc2916127df565b5f613dcc90611498565b90613dd692613211565b613ddf9161154b565b90613de991612129565b6001906005906002613dfa90610a59565b6001613e0590611642565b613e0e91611e0b565b90613e17610192565b9182916020830191613e2892611bac565b602082018103825203613e3b90826104ee565b613e44816118e2565b90613e4e906118dc565b20613e5891611bc7565b90613e629161214b565b6002613e6d90610a59565b6001613e7890611642565b613e8191611e0b565b7f113d32d0b7aec15a8c7f50af4cb42f4695e5b95524ed69519ac88d6c1f1f40f690613eab610192565b613eb6819282610f71565b0390a1565b50613c7484613ed486613ece6001611642565b90611e0b565b16613ee7613ee15f611498565b916101a4565b149050613c6b565b9050613f04613efe6012611ae0565b916101a4565b11155f613c2e565b9050613f21613f1b6012611ae0565b916101a4565b11155f613bf7565b613f4a915060203d8111613f50575b613f4281836104ee565b810190611cc2565b5f613bc0565b503d613f38565b611d12565b613f7d915060203d8111613f83575b613f7581836104ee565b810190613641565b5f613b44565b503d613f6b565b611d12565b613f9761306b565b613fb0613faa613fa561403c565b610637565b91610637565b03613fb757565b613fd9613fc261403c565b5f91829163118cdaa760e01b835260048301610e75565b0390fd5b613fe65f611580565b613ff0825f611e7a565b9061402461401e7f8be0079c531659141344cd1fd0a4f28419497f9722a3daafe3b4186f6b6457e093611e6b565b91611e6b565b9161402d610192565b806140378161025b565b0390a3565b614044613067565b50339056fea2646970667358221220dd9980791936210436168ec4ee01ae5da7ca473593376d2ccccdad9fab13686664736f6c634300081c0033","opcodes":"PUSH1 0x80 PUSH1 0x40 MSTORE CALLVALUE PUSH2 0x2F JUMPI PUSH2 0x19 PUSH2 0x14 PUSH2 0xF4 JUMP JUMPDEST PUSH2 0x19B JUMP JUMPDEST PUSH2 0x21 PUSH2 0x34 JUMP JUMPDEST PUSH2 0x407F PUSH2 0x329 DUP3 CODECOPY PUSH2 0x407F SWAP1 RETURN JUMPDEST PUSH2 0x3A JUMP JUMPDEST PUSH1 0x40 MLOAD SWAP1 JUMP JUMPDEST PUSH0 DUP1 REVERT JUMPDEST PUSH1 0x1F DUP1 NOT SWAP2 ADD AND SWAP1 JUMP JUMPDEST PUSH4 0x4E487B71 PUSH1 0xE0 SHL PUSH0 MSTORE PUSH1 0x41 PUSH1 0x4 MSTORE PUSH1 0x24 PUSH0 REVERT JUMPDEST SWAP1 PUSH2 0x66 SWAP1 PUSH2 0x3E JUMP JUMPDEST DUP2 ADD SWAP1 DUP2 LT PUSH1 0x1 DUP1 PUSH1 0x40 SHL SUB DUP3 GT OR PUSH2 0x7E JUMPI PUSH1 0x40 MSTORE JUMP JUMPDEST PUSH2 0x48 JUMP JUMPDEST SWAP1 PUSH2 0x96 PUSH2 0x8F PUSH2 0x34 JUMP JUMPDEST SWAP3 DUP4 PUSH2 0x5C JUMP JUMPDEST JUMP JUMPDEST PUSH0 DUP1 REVERT JUMPDEST PUSH1 0x1 DUP1 PUSH1 0xA0 SHL SUB AND SWAP1 JUMP JUMPDEST PUSH2 0xB0 SWAP1 PUSH2 0x9C JUMP JUMPDEST SWAP1 JUMP JUMPDEST PUSH2 0xBC DUP2 PUSH2 0xA7 JUMP JUMPDEST SUB PUSH2 0xC3 JUMPI JUMP JUMPDEST PUSH0 DUP1 REVERT JUMPDEST SWAP1 POP MLOAD SWAP1 PUSH2 0xD4 DUP3 PUSH2 0xB3 JUMP JUMPDEST JUMP JUMPDEST SWAP1 PUSH1 0x20 DUP3 DUP3 SUB SLT PUSH2 0xEF JUMPI PUSH2 0xEC SWAP2 PUSH0 ADD PUSH2 0xC7 JUMP JUMPDEST SWAP1 JUMP JUMPDEST PUSH2 0x98 JUMP JUMPDEST PUSH2 0x112 PUSH2 0x43A8 DUP1 CODESIZE SUB DUP1 PUSH2 0x107 DUP2 PUSH2 0x83 JUMP JUMPDEST SWAP3 DUP4 CODECOPY DUP2 ADD SWAP1 PUSH2 0xD6 JUMP JUMPDEST SWAP1 JUMP JUMPDEST SWAP1 JUMP JUMPDEST PUSH2 0x12C PUSH2 0x127 PUSH2 0x131 SWAP3 PUSH2 0x9C JUMP JUMPDEST PUSH2 0x115 JUMP JUMPDEST PUSH2 0x9C JUMP JUMPDEST SWAP1 JUMP JUMPDEST PUSH2 0x13D SWAP1 PUSH2 0x118 JUMP JUMPDEST SWAP1 JUMP JUMPDEST PUSH2 0x149 SWAP1 PUSH2 0x134 JUMP JUMPDEST SWAP1 JUMP JUMPDEST PUSH0 SHL SWAP1 JUMP JUMPDEST SWAP1 PUSH2 0x162 PUSH1 0x1 DUP1 PUSH1 0xA0 SHL SUB SWAP2 PUSH2 0x14C JUMP JUMPDEST SWAP2 DUP2 NOT AND SWAP2 AND OR SWAP1 JUMP JUMPDEST PUSH2 0x175 SWAP1 PUSH2 0x134 JUMP JUMPDEST SWAP1 JUMP JUMPDEST SWAP1 JUMP JUMPDEST SWAP1 PUSH2 0x190 PUSH2 0x18B PUSH2 0x197 SWAP3 PUSH2 0x16C JUMP JUMPDEST PUSH2 0x178 JUMP JUMPDEST DUP3 SLOAD PUSH2 0x151 JUMP JUMPDEST SWAP1 SSTORE JUMP JUMPDEST PUSH2 0x1B0 PUSH2 0x1B7 SWAP2 PUSH2 0x1AB CALLER PUSH2 0x206 JUMP JUMPDEST PUSH2 0x140 JUMP JUMPDEST PUSH1 0x1 PUSH2 0x17B JUMP JUMPDEST JUMP JUMPDEST SWAP1 JUMP JUMPDEST PUSH2 0x1D0 PUSH2 0x1CB PUSH2 0x1D5 SWAP3 PUSH2 0x1B9 JUMP JUMPDEST PUSH2 0x115 JUMP JUMPDEST PUSH2 0x9C JUMP JUMPDEST SWAP1 JUMP JUMPDEST PUSH2 0x1E1 SWAP1 PUSH2 0x1BC JUMP JUMPDEST SWAP1 JUMP JUMPDEST PUSH2 0x1ED SWAP1 PUSH2 0xA7 JUMP JUMPDEST SWAP1 MSTORE JUMP JUMPDEST SWAP2 SWAP1 PUSH2 0x204 SWAP1 PUSH0 PUSH1 0x20 DUP6 ADD SWAP5 ADD SWAP1 PUSH2 0x1E4 JUMP JUMPDEST JUMP JUMPDEST DUP1 PUSH2 0x221 PUSH2 0x21B PUSH2 0x216 PUSH0 PUSH2 0x1D8 JUMP JUMPDEST PUSH2 0xA7 JUMP JUMPDEST SWAP2 PUSH2 0xA7 JUMP JUMPDEST EQ PUSH2 0x231 JUMPI PUSH2 0x22F SWAP1 PUSH2 0x2C9 JUMP JUMPDEST JUMP JUMPDEST PUSH2 0x254 PUSH2 0x23D PUSH0 PUSH2 0x1D8 JUMP JUMPDEST PUSH0 SWAP2 DUP3 SWAP2 PUSH4 0x1E4FBDF7 PUSH1 0xE0 SHL DUP4 MSTORE PUSH1 0x4 DUP4 ADD PUSH2 0x1F1 JUMP JUMPDEST SUB SWAP1 REVERT JUMPDEST PUSH0 SHR SWAP1 JUMP JUMPDEST PUSH1 0x1 DUP1 PUSH1 0xA0 SHL SUB AND SWAP1 JUMP JUMPDEST PUSH2 0x274 PUSH2 0x279 SWAP2 PUSH2 0x258 JUMP JUMPDEST PUSH2 0x25D JUMP JUMPDEST SWAP1 JUMP JUMPDEST PUSH2 0x286 SWAP1 SLOAD PUSH2 0x268 JUMP JUMPDEST SWAP1 JUMP JUMPDEST PUSH2 0x292 SWAP1 PUSH2 0x118 JUMP JUMPDEST SWAP1 JUMP JUMPDEST PUSH2 0x29E SWAP1 PUSH2 0x289 JUMP JUMPDEST SWAP1 JUMP JUMPDEST SWAP1 JUMP JUMPDEST SWAP1 PUSH2 0x2B9 PUSH2 0x2B4 PUSH2 0x2C0 SWAP3 PUSH2 0x295 JUMP JUMPDEST PUSH2 0x2A1 JUMP JUMPDEST DUP3 SLOAD PUSH2 0x151 JUMP JUMPDEST SWAP1 SSTORE JUMP JUMPDEST PUSH0 ADD SWAP1 JUMP JUMPDEST PUSH2 0x2D2 PUSH0 PUSH2 0x27C JUMP JUMPDEST PUSH2 0x2DC DUP3 PUSH0 PUSH2 0x2A4 JUMP JUMPDEST SWAP1 PUSH2 0x310 PUSH2 0x30A PUSH32 0x8BE0079C531659141344CD1FD0A4F28419497F9722A3DAAFE3B4186F6B6457E0 SWAP4 PUSH2 0x295 JUMP JUMPDEST SWAP2 PUSH2 0x295 JUMP JUMPDEST SWAP2 PUSH2 0x319 PUSH2 0x34 JUMP JUMPDEST DUP1 PUSH2 0x323 DUP2 PUSH2 0x2C4 JUMP JUMPDEST SUB SWAP1 LOG3 JUMP INVALID PUSH1 0x80 PUSH1 0x40 MSTORE PUSH1 0x4 CALLDATASIZE LT ISZERO PUSH2 0x13 JUMPI JUMPDEST PUSH2 0x137A JUMP JUMPDEST PUSH2 0x1D PUSH0 CALLDATALOAD PUSH2 0x18C JUMP JUMPDEST DUP1 PUSH4 0x4808088 EQ PUSH2 0x187 JUMPI DUP1 PUSH4 0x1A5BD7FC EQ PUSH2 0x182 JUMPI DUP1 PUSH4 0x1BD9103B EQ PUSH2 0x17D JUMPI DUP1 PUSH4 0x22654955 EQ PUSH2 0x178 JUMPI DUP1 PUSH4 0x2C542B88 EQ PUSH2 0x173 JUMPI DUP1 PUSH4 0x30E6AAF2 EQ PUSH2 0x16E JUMPI DUP1 PUSH4 0x32BDB9E2 EQ PUSH2 0x169 JUMPI DUP1 PUSH4 0x4C7BE95F EQ PUSH2 0x164 JUMPI DUP1 PUSH4 0x679224B4 EQ PUSH2 0x15F JUMPI DUP1 PUSH4 0x715018A6 EQ PUSH2 0x15A JUMPI DUP1 PUSH4 0x7503E1B7 EQ PUSH2 0x155 JUMPI DUP1 PUSH4 0x7B154140 EQ PUSH2 0x150 JUMPI DUP1 PUSH4 0x89870D5A EQ PUSH2 0x14B JUMPI DUP1 PUSH4 0x8DA5CB5B EQ PUSH2 0x146 JUMPI DUP1 PUSH4 0x9D5D40FB EQ PUSH2 0x141 JUMPI DUP1 PUSH4 0xBF14C887 EQ PUSH2 0x13C JUMPI DUP1 PUSH4 0xC1DEEF52 EQ PUSH2 0x137 JUMPI DUP1 PUSH4 0xF2FDE38B EQ PUSH2 0x132 JUMPI DUP1 PUSH4 0xF4716DF2 EQ PUSH2 0x12D JUMPI DUP1 PUSH4 0xF7F20CB3 EQ PUSH2 0x128 JUMPI DUP1 PUSH4 0xFC0C546A EQ PUSH2 0x123 JUMPI DUP1 PUSH4 0xFD0C7DFB EQ PUSH2 0x11E JUMPI PUSH4 0xFFDDE68C SUB PUSH2 0xE JUMPI PUSH2 0x1343 JUMP JUMPDEST PUSH2 0x1288 JUMP JUMPDEST PUSH2 0x1253 JUMP JUMPDEST PUSH2 0x1181 JUMP JUMPDEST PUSH2 0x100C JUMP JUMPDEST PUSH2 0xFD9 JUMP JUMPDEST PUSH2 0xF86 JUMP JUMPDEST PUSH2 0xF3D JUMP JUMPDEST PUSH2 0xEBF JUMP JUMPDEST PUSH2 0xE8A JUMP JUMPDEST PUSH2 0xE31 JUMP JUMPDEST PUSH2 0xDA7 JUMP JUMPDEST PUSH2 0xD3B JUMP JUMPDEST PUSH2 0xA12 JUMP JUMPDEST PUSH2 0x9CE JUMP JUMPDEST PUSH2 0x957 JUMP JUMPDEST PUSH2 0x8CB JUMP JUMPDEST PUSH2 0x894 JUMP JUMPDEST PUSH2 0x720 JUMP JUMPDEST PUSH2 0x5F8 JUMP JUMPDEST PUSH2 0x4A0 JUMP JUMPDEST PUSH2 0x40C JUMP JUMPDEST PUSH2 0x260 JUMP JUMPDEST PUSH1 0xE0 SHR SWAP1 JUMP JUMPDEST PUSH1 0x40 MLOAD SWAP1 JUMP JUMPDEST PUSH0 DUP1 REVERT JUMPDEST PUSH0 DUP1 REVERT JUMPDEST PUSH0 DUP1 REVERT JUMPDEST SWAP1 JUMP JUMPDEST PUSH2 0x1B0 DUP2 PUSH2 0x1A4 JUMP JUMPDEST SUB PUSH2 0x1B7 JUMPI JUMP JUMPDEST PUSH0 DUP1 REVERT JUMPDEST SWAP1 POP CALLDATALOAD SWAP1 PUSH2 0x1C8 DUP3 PUSH2 0x1A7 JUMP JUMPDEST JUMP JUMPDEST PUSH0 DUP1 REVERT JUMPDEST PUSH0 DUP1 REVERT JUMPDEST PUSH0 DUP1 REVERT JUMPDEST SWAP1 SWAP2 DUP3 PUSH1 0x1F DUP4 ADD SLT ISZERO PUSH2 0x210 JUMPI DUP2 CALLDATALOAD SWAP2 PUSH8 0xFFFFFFFFFFFFFFFF DUP4 GT PUSH2 0x20B JUMPI PUSH1 0x20 ADD SWAP3 PUSH1 0x20 DUP4 MUL DUP5 ADD GT PUSH2 0x206 JUMPI JUMP JUMPDEST PUSH2 0x1D2 JUMP JUMPDEST PUSH2 0x1CE JUMP JUMPDEST PUSH2 0x1CA JUMP JUMPDEST SWAP2 SWAP1 SWAP2 PUSH1 0x40 DUP2 DUP5 SUB SLT PUSH2 0x256 JUMPI PUSH2 0x22E DUP4 PUSH0 DUP4 ADD PUSH2 0x1BB JUMP JUMPDEST SWAP3 PUSH1 0x20 DUP3 ADD CALLDATALOAD PUSH8 0xFFFFFFFFFFFFFFFF DUP2 GT PUSH2 0x251 JUMPI PUSH2 0x24D SWAP3 ADD PUSH2 0x1D6 JUMP JUMPDEST SWAP1 SWAP2 JUMP JUMPDEST PUSH2 0x1A0 JUMP JUMPDEST PUSH2 0x19C JUMP JUMPDEST PUSH0 ADD SWAP1 JUMP JUMPDEST CALLVALUE PUSH2 0x28F JUMPI PUSH2 0x279 PUSH2 0x273 CALLDATASIZE PUSH1 0x4 PUSH2 0x215 JUMP JUMPDEST SWAP2 PUSH2 0x17E2 JUMP JUMPDEST PUSH2 0x281 PUSH2 0x192 JUMP JUMPDEST DUP1 PUSH2 0x28B DUP2 PUSH2 0x25B JUMP JUMPDEST SUB SWAP1 RETURN JUMPDEST PUSH2 0x198 JUMP JUMPDEST SWAP1 PUSH1 0x20 DUP3 DUP3 SUB SLT PUSH2 0x2AD JUMPI PUSH2 0x2AA SWAP2 PUSH0 ADD PUSH2 0x1BB JUMP JUMPDEST SWAP1 JUMP JUMPDEST PUSH2 0x19C JUMP JUMPDEST PUSH2 0x2BB SWAP1 PUSH2 0x1A4 JUMP JUMPDEST SWAP1 MSTORE JUMP JUMPDEST MLOAD SWAP1 JUMP JUMPDEST PUSH1 0x20 SWAP2 DUP2 MSTORE ADD SWAP1 JUMP JUMPDEST SWAP1 DUP3 PUSH0 SWAP4 SWAP3 DUP3 MCOPY ADD MSTORE JUMP JUMPDEST PUSH1 0x1F DUP1 NOT SWAP2 ADD AND SWAP1 JUMP JUMPDEST PUSH2 0x300 PUSH2 0x309 PUSH1 0x20 SWAP4 PUSH2 0x30E SWAP4 PUSH2 0x2F7 DUP2 PUSH2 0x2BF JUMP JUMPDEST SWAP4 DUP5 DUP1 SWAP4 PUSH2 0x2C3 JUMP JUMPDEST SWAP6 DUP7 SWAP2 ADD PUSH2 0x2CC JUMP JUMPDEST PUSH2 0x2D7 JUMP JUMPDEST ADD SWAP1 JUMP JUMPDEST PUSH4 0x4E487B71 PUSH1 0xE0 SHL PUSH0 MSTORE PUSH1 0x21 PUSH1 0x4 MSTORE PUSH1 0x24 PUSH0 REVERT JUMPDEST PUSH1 0x4 GT ISZERO PUSH2 0x330 JUMPI JUMP JUMPDEST PUSH2 0x312 JUMP JUMPDEST SWAP1 PUSH2 0x33F DUP3 PUSH2 0x326 JUMP JUMPDEST JUMP JUMPDEST PUSH2 0x34A SWAP1 PUSH2 0x335 JUMP JUMPDEST SWAP1 JUMP JUMPDEST PUSH2 0x356 SWAP1 PUSH2 0x341 JUMP JUMPDEST SWAP1 MSTORE JUMP JUMPDEST SWAP1 PUSH2 0x3F1 SWAP1 PUSH1 0xE0 DUP1 PUSH2 0x38C PUSH2 0x100 DUP5 ADD PUSH2 0x37A PUSH0 DUP9 ADD MLOAD PUSH0 DUP8 ADD SWAP1 PUSH2 0x2B2 JUMP JUMPDEST PUSH1 0x20 DUP8 ADD MLOAD DUP6 DUP3 SUB PUSH1 0x20 DUP8 ADD MSTORE PUSH2 0x2E1 JUMP JUMPDEST SWAP5 PUSH2 0x39F PUSH1 0x40 DUP3 ADD MLOAD PUSH1 0x40 DUP7 ADD SWAP1 PUSH2 0x2B2 JUMP JUMPDEST PUSH2 0x3B1 PUSH1 0x60 DUP3 ADD MLOAD PUSH1 0x60 DUP7 ADD SWAP1 PUSH2 0x2B2 JUMP JUMPDEST PUSH2 0x3C3 PUSH1 0x80 DUP3 ADD MLOAD PUSH1 0x80 DUP7 ADD SWAP1 PUSH2 0x2B2 JUMP JUMPDEST PUSH2 0x3D5 PUSH1 0xA0 DUP3 ADD MLOAD PUSH1 0xA0 DUP7 ADD SWAP1 PUSH2 0x2B2 JUMP JUMPDEST PUSH2 0x3E7 PUSH1 0xC0 DUP3 ADD MLOAD PUSH1 0xC0 DUP7 ADD SWAP1 PUSH2 0x2B2 JUMP JUMPDEST ADD MLOAD SWAP2 ADD SWAP1 PUSH2 0x34D JUMP JUMPDEST SWAP1 JUMP JUMPDEST PUSH2 0x409 SWAP2 PUSH1 0x20 DUP3 ADD SWAP2 PUSH0 DUP2 DUP5 SUB SWAP2 ADD MSTORE PUSH2 0x35A JUMP JUMPDEST SWAP1 JUMP JUMPDEST CALLVALUE PUSH2 0x43C JUMPI PUSH2 0x438 PUSH2 0x427 PUSH2 0x422 CALLDATASIZE PUSH1 0x4 PUSH2 0x294 JUMP JUMPDEST PUSH2 0x1875 JUMP JUMPDEST PUSH2 0x42F PUSH2 0x192 JUMP JUMPDEST SWAP2 DUP3 SWAP2 DUP3 PUSH2 0x3F4 JUMP JUMPDEST SUB SWAP1 RETURN JUMPDEST PUSH2 0x198 JUMP JUMPDEST SWAP1 SWAP2 PUSH1 0x60 DUP3 DUP5 SUB SLT PUSH2 0x476 JUMPI PUSH2 0x473 PUSH2 0x45C DUP5 PUSH0 DUP6 ADD PUSH2 0x1BB JUMP JUMPDEST SWAP4 PUSH2 0x46A DUP2 PUSH1 0x20 DUP7 ADD PUSH2 0x1BB JUMP JUMPDEST SWAP4 PUSH1 0x40 ADD PUSH2 0x1BB JUMP JUMPDEST SWAP1 JUMP JUMPDEST PUSH2 0x19C JUMP JUMPDEST SWAP1 JUMP JUMPDEST PUSH2 0x487 SWAP1 PUSH2 0x47B JUMP JUMPDEST SWAP1 MSTORE JUMP JUMPDEST SWAP2 SWAP1 PUSH2 0x49E SWAP1 PUSH0 PUSH1 0x20 DUP6 ADD SWAP5 ADD SWAP1 PUSH2 0x47E JUMP JUMPDEST JUMP JUMPDEST CALLVALUE PUSH2 0x4D1 JUMPI PUSH2 0x4CD PUSH2 0x4BC PUSH2 0x4B6 CALLDATASIZE PUSH1 0x4 PUSH2 0x441 JUMP JUMPDEST SWAP2 PUSH2 0x18E6 JUMP JUMPDEST PUSH2 0x4C4 PUSH2 0x192 JUMP JUMPDEST SWAP2 DUP3 SWAP2 DUP3 PUSH2 0x48B JUMP JUMPDEST SUB SWAP1 RETURN JUMPDEST PUSH2 0x198 JUMP JUMPDEST PUSH0 DUP1 REVERT JUMPDEST PUSH4 0x4E487B71 PUSH1 0xE0 SHL PUSH0 MSTORE PUSH1 0x41 PUSH1 0x4 MSTORE PUSH1 0x24 PUSH0 REVERT JUMPDEST SWAP1 PUSH2 0x4F8 SWAP1 PUSH2 0x2D7 JUMP JUMPDEST DUP2 ADD SWAP1 DUP2 LT PUSH8 0xFFFFFFFFFFFFFFFF DUP3 GT OR PUSH2 0x512 JUMPI PUSH1 0x40 MSTORE JUMP JUMPDEST PUSH2 0x4DA JUMP JUMPDEST SWAP1 PUSH2 0x52A PUSH2 0x523 PUSH2 0x192 JUMP JUMPDEST SWAP3 DUP4 PUSH2 0x4EE JUMP JUMPDEST JUMP JUMPDEST PUSH8 0xFFFFFFFFFFFFFFFF DUP2 GT PUSH2 0x54A JUMPI PUSH2 0x546 PUSH1 0x20 SWAP2 PUSH2 0x2D7 JUMP JUMPDEST ADD SWAP1 JUMP JUMPDEST PUSH2 0x4DA JUMP JUMPDEST SWAP1 DUP3 PUSH0 SWAP4 SWAP3 DUP3 CALLDATACOPY ADD MSTORE JUMP JUMPDEST SWAP1 SWAP3 SWAP2 SWAP3 PUSH2 0x56F PUSH2 0x56A DUP3 PUSH2 0x52C JUMP JUMPDEST PUSH2 0x517 JUMP JUMPDEST SWAP4 DUP2 DUP6 MSTORE PUSH1 0x20 DUP6 ADD SWAP1 DUP3 DUP5 ADD GT PUSH2 0x58B JUMPI PUSH2 0x589 SWAP3 PUSH2 0x54F JUMP JUMPDEST JUMP JUMPDEST PUSH2 0x4D6 JUMP JUMPDEST SWAP1 DUP1 PUSH1 0x1F DUP4 ADD SLT ISZERO PUSH2 0x5AE JUMPI DUP2 PUSH1 0x20 PUSH2 0x5AB SWAP4 CALLDATALOAD SWAP2 ADD PUSH2 0x55A JUMP JUMPDEST SWAP1 JUMP JUMPDEST PUSH2 0x1CA JUMP JUMPDEST SWAP2 SWAP1 SWAP2 PUSH1 0x40 DUP2 DUP5 SUB SLT PUSH2 0x5F3 JUMPI PUSH2 0x5CC DUP4 PUSH0 DUP4 ADD PUSH2 0x1BB JUMP JUMPDEST SWAP3 PUSH1 0x20 DUP3 ADD CALLDATALOAD PUSH8 0xFFFFFFFFFFFFFFFF DUP2 GT PUSH2 0x5EE JUMPI PUSH2 0x5EB SWAP3 ADD PUSH2 0x590 JUMP JUMPDEST SWAP1 JUMP JUMPDEST PUSH2 0x1A0 JUMP JUMPDEST PUSH2 0x19C JUMP JUMPDEST CALLVALUE PUSH2 0x627 JUMPI PUSH2 0x611 PUSH2 0x60B CALLDATASIZE PUSH1 0x4 PUSH2 0x5B3 JUMP JUMPDEST SWAP1 PUSH2 0x216B JUMP JUMPDEST PUSH2 0x619 PUSH2 0x192 JUMP JUMPDEST DUP1 PUSH2 0x623 DUP2 PUSH2 0x25B JUMP JUMPDEST SUB SWAP1 RETURN JUMPDEST PUSH2 0x198 JUMP JUMPDEST PUSH1 0x1 DUP1 PUSH1 0xA0 SHL SUB AND SWAP1 JUMP JUMPDEST PUSH2 0x640 SWAP1 PUSH2 0x62C JUMP JUMPDEST SWAP1 JUMP JUMPDEST PUSH2 0x64C SWAP1 PUSH2 0x637 JUMP JUMPDEST SWAP1 MSTORE JUMP JUMPDEST ISZERO ISZERO SWAP1 JUMP JUMPDEST PUSH2 0x65E SWAP1 PUSH2 0x650 JUMP JUMPDEST SWAP1 MSTORE JUMP JUMPDEST PUSH2 0x69F SWAP2 PUSH1 0x40 PUSH1 0x60 DUP3 ADD SWAP3 PUSH2 0x67D PUSH0 DUP3 ADD MLOAD PUSH0 DUP6 ADD SWAP1 PUSH2 0x643 JUMP JUMPDEST PUSH2 0x68F PUSH1 0x20 DUP3 ADD MLOAD PUSH1 0x20 DUP6 ADD SWAP1 PUSH2 0x655 JUMP JUMPDEST ADD MLOAD SWAP1 PUSH1 0x40 DUP2 DUP5 SUB SWAP2 ADD MSTORE PUSH2 0x2E1 JUMP JUMPDEST SWAP1 JUMP JUMPDEST SWAP1 PUSH2 0x705 SWAP1 PUSH1 0x80 DUP1 PUSH2 0x6E8 PUSH2 0x6C4 PUSH1 0xA0 DUP6 ADD PUSH0 DUP9 ADD MLOAD DUP7 DUP3 SUB PUSH0 DUP9 ADD MSTORE PUSH2 0x662 JUMP JUMPDEST PUSH2 0x6D6 PUSH1 0x20 DUP9 ADD MLOAD PUSH1 0x20 DUP8 ADD SWAP1 PUSH2 0x2B2 JUMP JUMPDEST PUSH1 0x40 DUP8 ADD MLOAD DUP6 DUP3 SUB PUSH1 0x40 DUP8 ADD MSTORE PUSH2 0x662 JUMP JUMPDEST SWAP5 PUSH2 0x6FB PUSH1 0x60 DUP3 ADD MLOAD PUSH1 0x60 DUP7 ADD SWAP1 PUSH2 0x2B2 JUMP JUMPDEST ADD MLOAD SWAP2 ADD SWAP1 PUSH2 0x34D JUMP JUMPDEST SWAP1 JUMP JUMPDEST PUSH2 0x71D SWAP2 PUSH1 0x20 DUP3 ADD SWAP2 PUSH0 DUP2 DUP5 SUB SWAP2 ADD MSTORE PUSH2 0x6A2 JUMP JUMPDEST SWAP1 JUMP JUMPDEST CALLVALUE PUSH2 0x751 JUMPI PUSH2 0x74D PUSH2 0x73C PUSH2 0x736 CALLDATASIZE PUSH1 0x4 PUSH2 0x441 JUMP JUMPDEST SWAP2 PUSH2 0x259D JUMP JUMPDEST PUSH2 0x744 PUSH2 0x192 JUMP JUMPDEST SWAP2 DUP3 SWAP2 DUP3 PUSH2 0x708 JUMP JUMPDEST SUB SWAP1 RETURN JUMPDEST PUSH2 0x198 JUMP JUMPDEST PUSH0 DUP1 REVERT JUMPDEST PUSH0 DUP1 REVERT JUMPDEST PUSH2 0x767 DUP2 PUSH2 0x637 JUMP JUMPDEST SUB PUSH2 0x76E JUMPI JUMP JUMPDEST PUSH0 DUP1 REVERT JUMPDEST SWAP1 POP CALLDATALOAD SWAP1 PUSH2 0x77F DUP3 PUSH2 0x75E JUMP JUMPDEST JUMP JUMPDEST PUSH2 0x78A DUP2 PUSH2 0x650 JUMP JUMPDEST SUB PUSH2 0x791 JUMPI JUMP JUMPDEST PUSH0 DUP1 REVERT JUMPDEST SWAP1 POP CALLDATALOAD SWAP1 PUSH2 0x7A2 DUP3 PUSH2 0x781 JUMP JUMPDEST JUMP JUMPDEST SWAP2 SWAP1 SWAP2 PUSH1 0x60 DUP2 DUP5 SUB SLT PUSH2 0x808 JUMPI PUSH2 0x7BB PUSH1 0x60 PUSH2 0x517 JUMP JUMPDEST SWAP3 PUSH2 0x7C8 DUP2 PUSH0 DUP5 ADD PUSH2 0x772 JUMP JUMPDEST PUSH0 DUP6 ADD MSTORE PUSH2 0x7D9 DUP2 PUSH1 0x20 DUP5 ADD PUSH2 0x795 JUMP JUMPDEST PUSH1 0x20 DUP6 ADD MSTORE PUSH1 0x40 DUP3 ADD CALLDATALOAD PUSH8 0xFFFFFFFFFFFFFFFF DUP2 GT PUSH2 0x803 JUMPI PUSH2 0x7FC SWAP3 ADD PUSH2 0x590 JUMP JUMPDEST PUSH1 0x40 DUP4 ADD MSTORE JUMP JUMPDEST PUSH2 0x75A JUMP JUMPDEST PUSH2 0x756 JUMP JUMPDEST SWAP2 SWAP1 SWAP2 PUSH1 0xA0 DUP2 DUP5 SUB SLT PUSH2 0x88F JUMPI PUSH2 0x826 DUP4 PUSH0 DUP4 ADD PUSH2 0x1BB JUMP JUMPDEST SWAP3 PUSH2 0x834 DUP2 PUSH1 0x20 DUP5 ADD PUSH2 0x1BB JUMP JUMPDEST SWAP3 PUSH2 0x842 DUP3 PUSH1 0x40 DUP6 ADD PUSH2 0x1BB JUMP JUMPDEST SWAP3 PUSH1 0x60 DUP2 ADD CALLDATALOAD PUSH8 0xFFFFFFFFFFFFFFFF DUP2 GT PUSH2 0x88A JUMPI DUP4 PUSH2 0x863 SWAP2 DUP4 ADD PUSH2 0x7A4 JUMP JUMPDEST SWAP3 PUSH1 0x80 DUP3 ADD CALLDATALOAD PUSH8 0xFFFFFFFFFFFFFFFF DUP2 GT PUSH2 0x885 JUMPI PUSH2 0x882 SWAP3 ADD PUSH2 0x7A4 JUMP JUMPDEST SWAP1 JUMP JUMPDEST PUSH2 0x1A0 JUMP JUMPDEST PUSH2 0x1A0 JUMP JUMPDEST PUSH2 0x19C JUMP JUMPDEST CALLVALUE PUSH2 0x8C6 JUMPI PUSH2 0x8B0 PUSH2 0x8A7 CALLDATASIZE PUSH1 0x4 PUSH2 0x80D JUMP JUMPDEST SWAP4 SWAP3 SWAP1 SWAP3 PUSH2 0x27A7 JUMP JUMPDEST PUSH2 0x8B8 PUSH2 0x192 JUMP JUMPDEST DUP1 PUSH2 0x8C2 DUP2 PUSH2 0x25B JUMP JUMPDEST SUB SWAP1 RETURN JUMPDEST PUSH2 0x198 JUMP JUMPDEST CALLVALUE PUSH2 0x8FA JUMPI PUSH2 0x8E4 PUSH2 0x8DE CALLDATASIZE PUSH1 0x4 PUSH2 0x215 JUMP JUMPDEST SWAP2 PUSH2 0x284E JUMP JUMPDEST PUSH2 0x8EC PUSH2 0x192 JUMP JUMPDEST DUP1 PUSH2 0x8F6 DUP2 PUSH2 0x25B JUMP JUMPDEST SUB SWAP1 RETURN JUMPDEST PUSH2 0x198 JUMP JUMPDEST PUSH2 0x93C SWAP2 PUSH1 0x40 PUSH1 0x60 DUP3 ADD SWAP3 PUSH2 0x91A PUSH0 DUP3 ADD MLOAD PUSH0 DUP6 ADD SWAP1 PUSH2 0x643 JUMP JUMPDEST PUSH2 0x92C PUSH1 0x20 DUP3 ADD MLOAD PUSH1 0x20 DUP6 ADD SWAP1 PUSH2 0x655 JUMP JUMPDEST ADD MLOAD SWAP1 PUSH1 0x40 DUP2 DUP5 SUB SWAP2 ADD MSTORE PUSH2 0x2E1 JUMP JUMPDEST SWAP1 JUMP JUMPDEST PUSH2 0x954 SWAP2 PUSH1 0x20 DUP3 ADD SWAP2 PUSH0 DUP2 DUP5 SUB SWAP2 ADD MSTORE PUSH2 0x8FF JUMP JUMPDEST SWAP1 JUMP JUMPDEST CALLVALUE PUSH2 0x988 JUMPI PUSH2 0x984 PUSH2 0x973 PUSH2 0x96D CALLDATASIZE PUSH1 0x4 PUSH2 0x441 JUMP JUMPDEST SWAP2 PUSH2 0x2866 JUMP JUMPDEST PUSH2 0x97B PUSH2 0x192 JUMP JUMPDEST SWAP2 DUP3 SWAP2 DUP3 PUSH2 0x93F JUMP JUMPDEST SUB SWAP1 RETURN JUMPDEST PUSH2 0x198 JUMP JUMPDEST PUSH2 0x996 DUP2 PUSH2 0x47B JUMP JUMPDEST SUB PUSH2 0x99D JUMPI JUMP JUMPDEST PUSH0 DUP1 REVERT JUMPDEST SWAP1 POP CALLDATALOAD SWAP1 PUSH2 0x9AE DUP3 PUSH2 0x98D JUMP JUMPDEST JUMP JUMPDEST SWAP1 PUSH1 0x20 DUP3 DUP3 SUB SLT PUSH2 0x9C9 JUMPI PUSH2 0x9C6 SWAP2 PUSH0 ADD PUSH2 0x9A1 JUMP JUMPDEST SWAP1 JUMP JUMPDEST PUSH2 0x19C JUMP JUMPDEST CALLVALUE PUSH2 0x9FE JUMPI PUSH2 0x9FA PUSH2 0x9E9 PUSH2 0x9E4 CALLDATASIZE PUSH1 0x4 PUSH2 0x9B0 JUMP JUMPDEST PUSH2 0x2893 JUMP JUMPDEST PUSH2 0x9F1 PUSH2 0x192 JUMP JUMPDEST SWAP2 DUP3 SWAP2 DUP3 PUSH2 0x708 JUMP JUMPDEST SUB SWAP1 RETURN JUMPDEST PUSH2 0x198 JUMP JUMPDEST PUSH0 SWAP2 SUB SLT PUSH2 0xA0D JUMPI JUMP JUMPDEST PUSH2 0x19C JUMP JUMPDEST CALLVALUE PUSH2 0xA40 JUMPI PUSH2 0xA22 CALLDATASIZE PUSH1 0x4 PUSH2 0xA03 JUMP JUMPDEST PUSH2 0xA2A PUSH2 0x28FF JUMP JUMPDEST PUSH2 0xA32 PUSH2 0x192 JUMP JUMPDEST DUP1 PUSH2 0xA3C DUP2 PUSH2 0x25B JUMP JUMPDEST SUB SWAP1 RETURN JUMPDEST PUSH2 0x198 JUMP JUMPDEST PUSH4 0x4E487B71 PUSH1 0xE0 SHL PUSH0 MSTORE PUSH1 0x32 PUSH1 0x4 MSTORE PUSH1 0x24 PUSH0 REVERT JUMPDEST SLOAD SWAP1 JUMP JUMPDEST PUSH0 MSTORE PUSH1 0x20 PUSH0 KECCAK256 SWAP1 JUMP JUMPDEST PUSH2 0xA6F DUP2 PUSH2 0xA59 JUMP JUMPDEST DUP3 LT ISZERO PUSH2 0xA89 JUMPI PUSH2 0xA81 PUSH1 0x8 SWAP2 PUSH2 0xA5D JUMP JUMPDEST SWAP2 MUL ADD SWAP1 PUSH0 SWAP1 JUMP JUMPDEST PUSH2 0xA45 JUMP JUMPDEST PUSH0 SHR SWAP1 JUMP JUMPDEST SWAP1 JUMP JUMPDEST PUSH2 0xAA2 PUSH2 0xAA7 SWAP2 PUSH2 0xA8E JUMP JUMPDEST PUSH2 0xA93 JUMP JUMPDEST SWAP1 JUMP JUMPDEST PUSH2 0xAB4 SWAP1 SLOAD PUSH2 0xA96 JUMP JUMPDEST SWAP1 JUMP JUMPDEST PUSH4 0x4E487B71 PUSH1 0xE0 SHL PUSH0 MSTORE PUSH1 0x22 PUSH1 0x4 MSTORE PUSH1 0x24 PUSH0 REVERT JUMPDEST SWAP1 PUSH1 0x1 PUSH1 0x2 DUP4 DIV SWAP3 AND DUP1 ISZERO PUSH2 0xAEB JUMPI JUMPDEST PUSH1 0x20 DUP4 LT EQ PUSH2 0xAE6 JUMPI JUMP JUMPDEST PUSH2 0xAB7 JUMP JUMPDEST SWAP2 PUSH1 0x7F AND SWAP2 PUSH2 0xADB JUMP JUMPDEST PUSH0 MSTORE PUSH1 0x20 PUSH0 KECCAK256 SWAP1 JUMP JUMPDEST SWAP1 PUSH0 SWAP3 SWAP2 DUP1 SLOAD SWAP1 PUSH2 0xB18 PUSH2 0xB11 DUP4 PUSH2 0xACB JUMP JUMPDEST DUP1 SWAP5 PUSH2 0x2C3 JUMP JUMPDEST SWAP2 PUSH1 0x1 DUP2 AND SWAP1 DUP2 PUSH0 EQ PUSH2 0xB6F JUMPI POP PUSH1 0x1 EQ PUSH2 0xB33 JUMPI JUMPDEST POP POP POP JUMP JUMPDEST PUSH2 0xB40 SWAP2 SWAP3 SWAP4 SWAP5 POP PUSH2 0xAF5 JUMP JUMPDEST SWAP2 PUSH0 SWAP3 JUMPDEST DUP2 DUP5 LT PUSH2 0xB57 JUMPI POP POP ADD SWAP1 PUSH0 DUP1 DUP1 PUSH2 0xB2E JUMP JUMPDEST PUSH1 0x1 DUP2 PUSH1 0x20 SWAP3 SWAP6 SWAP4 SWAP6 SLOAD DUP5 DUP7 ADD MSTORE ADD SWAP2 ADD SWAP3 SWAP1 PUSH2 0xB44 JUMP JUMPDEST SWAP3 SWAP5 SWAP6 POP POP POP PUSH1 0xFF NOT AND DUP3 MSTORE ISZERO ISZERO PUSH1 0x20 MUL ADD SWAP1 PUSH0 DUP1 DUP1 PUSH2 0xB2E JUMP JUMPDEST SWAP1 PUSH2 0xB94 SWAP2 PUSH2 0xAFE JUMP JUMPDEST SWAP1 JUMP JUMPDEST SWAP1 PUSH2 0xBB7 PUSH2 0xBB0 SWAP3 PUSH2 0xBA7 PUSH2 0x192 JUMP JUMPDEST SWAP4 DUP5 DUP1 SWAP3 PUSH2 0xB8A JUMP JUMPDEST SUB DUP4 PUSH2 0x4EE JUMP JUMPDEST JUMP JUMPDEST PUSH1 0xFF AND SWAP1 JUMP JUMPDEST PUSH2 0xBCB PUSH2 0xBD0 SWAP2 PUSH2 0xA8E JUMP JUMPDEST PUSH2 0xBB9 JUMP JUMPDEST SWAP1 JUMP JUMPDEST PUSH2 0xBDD SWAP1 SLOAD PUSH2 0xBBF JUMP JUMPDEST SWAP1 JUMP JUMPDEST PUSH1 0x2 SWAP1 PUSH2 0xBEC DUP3 PUSH2 0xA59 JUMP JUMPDEST DUP2 LT ISZERO PUSH2 0xC66 JUMPI PUSH2 0xBFC SWAP2 PUSH2 0xA66 JUMP JUMPDEST POP SWAP1 PUSH2 0xC09 PUSH0 DUP4 ADD PUSH2 0xAAA JUMP JUMPDEST SWAP2 PUSH2 0xC16 PUSH1 0x1 DUP3 ADD PUSH2 0xB97 JUMP JUMPDEST SWAP2 PUSH2 0xC23 PUSH1 0x2 DUP4 ADD PUSH2 0xAAA JUMP JUMPDEST SWAP2 PUSH2 0xC30 PUSH1 0x3 DUP3 ADD PUSH2 0xAAA JUMP JUMPDEST SWAP2 PUSH2 0xC3D PUSH1 0x4 DUP4 ADD PUSH2 0xAAA JUMP JUMPDEST SWAP2 PUSH2 0xC4A PUSH1 0x5 DUP3 ADD PUSH2 0xAAA JUMP JUMPDEST SWAP2 PUSH2 0xC63 PUSH1 0x7 PUSH2 0xC5C PUSH1 0x6 DUP6 ADD PUSH2 0xAAA JUMP JUMPDEST SWAP4 ADD PUSH2 0xBD3 JUMP JUMPDEST SWAP1 JUMP JUMPDEST PUSH0 DUP1 REVERT JUMPDEST PUSH2 0xC73 SWAP1 PUSH2 0x1A4 JUMP JUMPDEST SWAP1 MSTORE JUMP JUMPDEST PUSH1 0x20 SWAP2 DUP2 MSTORE ADD SWAP1 JUMP JUMPDEST PUSH2 0xC9F PUSH2 0xCA8 PUSH1 0x20 SWAP4 PUSH2 0xCAD SWAP4 PUSH2 0xC96 DUP2 PUSH2 0x2BF JUMP JUMPDEST SWAP4 DUP5 DUP1 SWAP4 PUSH2 0xC77 JUMP JUMPDEST SWAP6 DUP7 SWAP2 ADD PUSH2 0x2CC JUMP JUMPDEST PUSH2 0x2D7 JUMP JUMPDEST ADD SWAP1 JUMP JUMPDEST PUSH2 0xCBA SWAP1 PUSH2 0x341 JUMP JUMPDEST SWAP1 MSTORE JUMP JUMPDEST SWAP4 SWAP6 PUSH2 0xD1E PUSH1 0xE0 SWAP7 PUSH2 0xD14 PUSH2 0xD32 SWAP7 SWAP13 SWAP12 SWAP10 PUSH2 0xD0A PUSH2 0xCFF DUP11 PUSH2 0xD39 SWAP15 SWAP10 PUSH2 0xCF1 PUSH2 0xD28 SWAP11 PUSH0 PUSH2 0x100 DUP6 ADD SWAP5 ADD SWAP1 PUSH2 0xC6A JUMP JUMPDEST DUP13 PUSH1 0x20 DUP2 DUP5 SUB SWAP2 ADD MSTORE PUSH2 0xC80 JUMP JUMPDEST SWAP15 PUSH1 0x40 DUP12 ADD SWAP1 PUSH2 0xC6A JUMP JUMPDEST PUSH1 0x60 DUP10 ADD SWAP1 PUSH2 0xC6A JUMP JUMPDEST PUSH1 0x80 DUP8 ADD SWAP1 PUSH2 0xC6A JUMP JUMPDEST PUSH1 0xA0 DUP6 ADD SWAP1 PUSH2 0xC6A JUMP JUMPDEST PUSH1 0xC0 DUP4 ADD SWAP1 PUSH2 0xC6A JUMP JUMPDEST ADD SWAP1 PUSH2 0xCB1 JUMP JUMPDEST JUMP JUMPDEST CALLVALUE PUSH2 0xD75 JUMPI PUSH2 0xD71 PUSH2 0xD56 PUSH2 0xD51 CALLDATASIZE PUSH1 0x4 PUSH2 0x294 JUMP JUMPDEST PUSH2 0xBE0 JUMP JUMPDEST SWAP5 PUSH2 0xD68 SWAP9 SWAP7 SWAP9 SWAP5 SWAP2 SWAP5 SWAP4 SWAP3 SWAP4 PUSH2 0x192 JUMP JUMPDEST SWAP9 DUP10 SWAP9 DUP10 PUSH2 0xCBE JUMP JUMPDEST SUB SWAP1 RETURN JUMPDEST PUSH2 0x198 JUMP JUMPDEST SWAP2 SWAP1 PUSH1 0x40 DUP4 DUP3 SUB SLT PUSH2 0xDA2 JUMPI DUP1 PUSH2 0xD96 PUSH2 0xD9F SWAP3 PUSH0 DUP7 ADD PUSH2 0x1BB JUMP JUMPDEST SWAP4 PUSH1 0x20 ADD PUSH2 0x1BB JUMP JUMPDEST SWAP1 JUMP JUMPDEST PUSH2 0x19C JUMP JUMPDEST CALLVALUE PUSH2 0xDD6 JUMPI PUSH2 0xDC0 PUSH2 0xDBA CALLDATASIZE PUSH1 0x4 PUSH2 0xD7A JUMP JUMPDEST SWAP1 PUSH2 0x2C70 JUMP JUMPDEST PUSH2 0xDC8 PUSH2 0x192 JUMP JUMPDEST DUP1 PUSH2 0xDD2 DUP2 PUSH2 0x25B JUMP JUMPDEST SUB SWAP1 RETURN JUMPDEST PUSH2 0x198 JUMP JUMPDEST SWAP2 SWAP1 PUSH1 0xA0 DUP4 DUP3 SUB SLT PUSH2 0xE2C JUMPI PUSH2 0xDF3 DUP2 PUSH0 DUP6 ADD PUSH2 0x1BB JUMP JUMPDEST SWAP3 PUSH2 0xE01 DUP3 PUSH1 0x20 DUP4 ADD PUSH2 0x1BB JUMP JUMPDEST SWAP3 PUSH2 0xE29 PUSH2 0xE12 DUP5 PUSH1 0x40 DUP6 ADD PUSH2 0x1BB JUMP JUMPDEST SWAP4 PUSH2 0xE20 DUP2 PUSH1 0x60 DUP7 ADD PUSH2 0x1BB JUMP JUMPDEST SWAP4 PUSH1 0x80 ADD PUSH2 0x1BB JUMP JUMPDEST SWAP1 JUMP JUMPDEST PUSH2 0x19C JUMP JUMPDEST CALLVALUE PUSH2 0xE63 JUMPI PUSH2 0xE4D PUSH2 0xE44 CALLDATASIZE PUSH1 0x4 PUSH2 0xDDB JUMP JUMPDEST SWAP4 SWAP3 SWAP1 SWAP3 PUSH2 0x3058 JUMP JUMPDEST PUSH2 0xE55 PUSH2 0x192 JUMP JUMPDEST DUP1 PUSH2 0xE5F DUP2 PUSH2 0x25B JUMP JUMPDEST SUB SWAP1 RETURN JUMPDEST PUSH2 0x198 JUMP JUMPDEST PUSH2 0xE71 SWAP1 PUSH2 0x637 JUMP JUMPDEST SWAP1 MSTORE JUMP JUMPDEST SWAP2 SWAP1 PUSH2 0xE88 SWAP1 PUSH0 PUSH1 0x20 DUP6 ADD SWAP5 ADD SWAP1 PUSH2 0xE68 JUMP JUMPDEST JUMP JUMPDEST CALLVALUE PUSH2 0xEBA JUMPI PUSH2 0xE9A CALLDATASIZE PUSH1 0x4 PUSH2 0xA03 JUMP JUMPDEST PUSH2 0xEB6 PUSH2 0xEA5 PUSH2 0x306B JUMP JUMPDEST PUSH2 0xEAD PUSH2 0x192 JUMP JUMPDEST SWAP2 DUP3 SWAP2 DUP3 PUSH2 0xE75 JUMP JUMPDEST SUB SWAP1 RETURN JUMPDEST PUSH2 0x198 JUMP JUMPDEST CALLVALUE PUSH2 0xEEE JUMPI PUSH2 0xED8 PUSH2 0xED2 CALLDATASIZE PUSH1 0x4 PUSH2 0x215 JUMP JUMPDEST SWAP2 PUSH2 0x3102 JUMP JUMPDEST PUSH2 0xEE0 PUSH2 0x192 JUMP JUMPDEST DUP1 PUSH2 0xEEA DUP2 PUSH2 0x25B JUMP JUMPDEST SUB SWAP1 RETURN JUMPDEST PUSH2 0x198 JUMP JUMPDEST PUSH1 0x4 GT ISZERO PUSH2 0xEFD JUMPI JUMP JUMPDEST PUSH0 DUP1 REVERT JUMPDEST SWAP1 POP CALLDATALOAD SWAP1 PUSH2 0xF0E DUP3 PUSH2 0xEF3 JUMP JUMPDEST JUMP JUMPDEST SWAP2 SWAP1 PUSH1 0x40 DUP4 DUP3 SUB SLT PUSH2 0xF38 JUMPI DUP1 PUSH2 0xF2C PUSH2 0xF35 SWAP3 PUSH0 DUP7 ADD PUSH2 0xF01 JUMP JUMPDEST SWAP4 PUSH1 0x20 ADD PUSH2 0x1BB JUMP JUMPDEST SWAP1 JUMP JUMPDEST PUSH2 0x19C JUMP JUMPDEST CALLVALUE PUSH2 0xF6C JUMPI PUSH2 0xF56 PUSH2 0xF50 CALLDATASIZE PUSH1 0x4 PUSH2 0xF10 JUMP JUMPDEST SWAP1 PUSH2 0x317F JUMP JUMPDEST PUSH2 0xF5E PUSH2 0x192 JUMP JUMPDEST DUP1 PUSH2 0xF68 DUP2 PUSH2 0x25B JUMP JUMPDEST SUB SWAP1 RETURN JUMPDEST PUSH2 0x198 JUMP JUMPDEST SWAP2 SWAP1 PUSH2 0xF84 SWAP1 PUSH0 PUSH1 0x20 DUP6 ADD SWAP5 ADD SWAP1 PUSH2 0xC6A JUMP JUMPDEST JUMP JUMPDEST CALLVALUE PUSH2 0xFB6 JUMPI PUSH2 0xF96 CALLDATASIZE PUSH1 0x4 PUSH2 0xA03 JUMP JUMPDEST PUSH2 0xFB2 PUSH2 0xFA1 PUSH2 0x318B JUMP JUMPDEST PUSH2 0xFA9 PUSH2 0x192 JUMP JUMPDEST SWAP2 DUP3 SWAP2 DUP3 PUSH2 0xF71 JUMP JUMPDEST SUB SWAP1 RETURN JUMPDEST PUSH2 0x198 JUMP JUMPDEST SWAP1 PUSH1 0x20 DUP3 DUP3 SUB SLT PUSH2 0xFD4 JUMPI PUSH2 0xFD1 SWAP2 PUSH0 ADD PUSH2 0x772 JUMP JUMPDEST SWAP1 JUMP JUMPDEST PUSH2 0x19C JUMP JUMPDEST CALLVALUE PUSH2 0x1007 JUMPI PUSH2 0xFF1 PUSH2 0xFEC CALLDATASIZE PUSH1 0x4 PUSH2 0xFBB JUMP JUMPDEST PUSH2 0x3206 JUMP JUMPDEST PUSH2 0xFF9 PUSH2 0x192 JUMP JUMPDEST DUP1 PUSH2 0x1003 DUP2 PUSH2 0x25B JUMP JUMPDEST SUB SWAP1 RETURN JUMPDEST PUSH2 0x198 JUMP JUMPDEST CALLVALUE PUSH2 0x103D JUMPI PUSH2 0x1039 PUSH2 0x1028 PUSH2 0x1022 CALLDATASIZE PUSH1 0x4 PUSH2 0x441 JUMP JUMPDEST SWAP2 PUSH2 0x3211 JUMP JUMPDEST PUSH2 0x1030 PUSH2 0x192 JUMP JUMPDEST SWAP2 DUP3 SWAP2 DUP3 PUSH2 0x48B JUMP JUMPDEST SUB SWAP1 RETURN JUMPDEST PUSH2 0x198 JUMP JUMPDEST MLOAD SWAP1 JUMP JUMPDEST PUSH1 0x20 SWAP2 DUP2 MSTORE ADD SWAP1 JUMP JUMPDEST PUSH1 0x20 ADD SWAP1 JUMP JUMPDEST SWAP1 PUSH2 0x10EC SWAP1 PUSH1 0xE0 DUP1 PUSH2 0x1087 PUSH2 0x100 DUP5 ADD PUSH2 0x1075 PUSH0 DUP9 ADD MLOAD PUSH0 DUP8 ADD SWAP1 PUSH2 0x2B2 JUMP JUMPDEST PUSH1 0x20 DUP8 ADD MLOAD DUP6 DUP3 SUB PUSH1 0x20 DUP8 ADD MSTORE PUSH2 0x2E1 JUMP JUMPDEST SWAP5 PUSH2 0x109A PUSH1 0x40 DUP3 ADD MLOAD PUSH1 0x40 DUP7 ADD SWAP1 PUSH2 0x2B2 JUMP JUMPDEST PUSH2 0x10AC PUSH1 0x60 DUP3 ADD MLOAD PUSH1 0x60 DUP7 ADD SWAP1 PUSH2 0x2B2 JUMP JUMPDEST PUSH2 0x10BE PUSH1 0x80 DUP3 ADD MLOAD PUSH1 0x80 DUP7 ADD SWAP1 PUSH2 0x2B2 JUMP JUMPDEST PUSH2 0x10D0 PUSH1 0xA0 DUP3 ADD MLOAD PUSH1 0xA0 DUP7 ADD SWAP1 PUSH2 0x2B2 JUMP JUMPDEST PUSH2 0x10E2 PUSH1 0xC0 DUP3 ADD MLOAD PUSH1 0xC0 DUP7 ADD SWAP1 PUSH2 0x2B2 JUMP JUMPDEST ADD MLOAD SWAP2 ADD SWAP1 PUSH2 0x34D JUMP JUMPDEST SWAP1 JUMP JUMPDEST SWAP1 PUSH2 0x10F9 SWAP2 PUSH2 0x1055 JUMP JUMPDEST SWAP1 JUMP JUMPDEST PUSH1 0x20 ADD SWAP1 JUMP JUMPDEST SWAP1 PUSH2 0x1116 PUSH2 0x110F DUP4 PUSH2 0x1042 JUMP JUMPDEST DUP1 SWAP3 PUSH2 0x1046 JUMP JUMPDEST SWAP1 DUP2 PUSH2 0x1127 PUSH1 0x20 DUP4 MUL DUP5 ADD SWAP5 PUSH2 0x104F JUMP JUMPDEST SWAP3 PUSH0 SWAP2 JUMPDEST DUP4 DUP4 LT PUSH2 0x113A JUMPI POP POP POP POP POP SWAP1 JUMP JUMPDEST SWAP1 SWAP2 SWAP3 SWAP4 SWAP5 PUSH1 0x20 PUSH2 0x115C PUSH2 0x1156 DUP4 DUP6 PUSH1 0x1 SWAP6 SUB DUP8 MSTORE DUP10 MLOAD PUSH2 0x10EF JUMP JUMPDEST SWAP8 PUSH2 0x10FC JUMP JUMPDEST SWAP4 ADD SWAP4 ADD SWAP2 SWAP4 SWAP3 SWAP1 PUSH2 0x112B JUMP JUMPDEST PUSH2 0x117E SWAP2 PUSH1 0x20 DUP3 ADD SWAP2 PUSH0 DUP2 DUP5 SUB SWAP2 ADD MSTORE PUSH2 0x1102 JUMP JUMPDEST SWAP1 JUMP JUMPDEST CALLVALUE PUSH2 0x11B1 JUMPI PUSH2 0x1191 CALLDATASIZE PUSH1 0x4 PUSH2 0xA03 JUMP JUMPDEST PUSH2 0x11AD PUSH2 0x119C PUSH2 0x32F1 JUMP JUMPDEST PUSH2 0x11A4 PUSH2 0x192 JUMP JUMPDEST SWAP2 DUP3 SWAP2 DUP3 PUSH2 0x1169 JUMP JUMPDEST SUB SWAP1 RETURN JUMPDEST PUSH2 0x198 JUMP JUMPDEST SHR SWAP1 JUMP JUMPDEST PUSH1 0x1 DUP1 PUSH1 0xA0 SHL SUB AND SWAP1 JUMP JUMPDEST PUSH2 0x11D5 SWAP1 PUSH1 0x8 PUSH2 0x11DA SWAP4 MUL PUSH2 0x11B6 JUMP JUMPDEST PUSH2 0x11BA JUMP JUMPDEST SWAP1 JUMP JUMPDEST SWAP1 PUSH2 0x11E8 SWAP2 SLOAD PUSH2 0x11C5 JUMP JUMPDEST SWAP1 JUMP JUMPDEST PUSH2 0x11F7 PUSH1 0x1 PUSH0 SWAP1 PUSH2 0x11DD JUMP JUMPDEST SWAP1 JUMP JUMPDEST SWAP1 JUMP JUMPDEST PUSH2 0x1211 PUSH2 0x120C PUSH2 0x1216 SWAP3 PUSH2 0x62C JUMP JUMPDEST PUSH2 0x11FA JUMP JUMPDEST PUSH2 0x62C JUMP JUMPDEST SWAP1 JUMP JUMPDEST PUSH2 0x1222 SWAP1 PUSH2 0x11FD JUMP JUMPDEST SWAP1 JUMP JUMPDEST PUSH2 0x122E SWAP1 PUSH2 0x1219 JUMP JUMPDEST SWAP1 JUMP JUMPDEST PUSH2 0x123A SWAP1 PUSH2 0x1225 JUMP JUMPDEST SWAP1 MSTORE JUMP JUMPDEST SWAP2 SWAP1 PUSH2 0x1251 SWAP1 PUSH0 PUSH1 0x20 DUP6 ADD SWAP5 ADD SWAP1 PUSH2 0x1231 JUMP JUMPDEST JUMP JUMPDEST CALLVALUE PUSH2 0x1283 JUMPI PUSH2 0x1263 CALLDATASIZE PUSH1 0x4 PUSH2 0xA03 JUMP JUMPDEST PUSH2 0x127F PUSH2 0x126E PUSH2 0x11EB JUMP JUMPDEST PUSH2 0x1276 PUSH2 0x192 JUMP JUMPDEST SWAP2 DUP3 SWAP2 DUP3 PUSH2 0x123E JUMP JUMPDEST SUB SWAP1 RETURN JUMPDEST PUSH2 0x198 JUMP JUMPDEST CALLVALUE PUSH2 0x12B7 JUMPI PUSH2 0x12A1 PUSH2 0x129B CALLDATASIZE PUSH1 0x4 PUSH2 0xD7A JUMP JUMPDEST SWAP1 PUSH2 0x34B6 JUMP JUMPDEST PUSH2 0x12A9 PUSH2 0x192 JUMP JUMPDEST DUP1 PUSH2 0x12B3 DUP2 PUSH2 0x25B JUMP JUMPDEST SUB SWAP1 RETURN JUMPDEST PUSH2 0x198 JUMP JUMPDEST SWAP2 SWAP1 SWAP2 PUSH1 0xA0 DUP2 DUP5 SUB SLT PUSH2 0x133E JUMPI PUSH0 DUP2 ADD CALLDATALOAD PUSH8 0xFFFFFFFFFFFFFFFF DUP2 GT PUSH2 0x1339 JUMPI DUP4 PUSH2 0x12E8 SWAP2 DUP4 ADD PUSH2 0x590 JUMP JUMPDEST SWAP3 PUSH2 0x12F6 DUP2 PUSH1 0x20 DUP5 ADD PUSH2 0x1BB JUMP JUMPDEST SWAP3 PUSH2 0x1304 DUP3 PUSH1 0x40 DUP6 ADD PUSH2 0x1BB JUMP JUMPDEST SWAP3 PUSH2 0x1312 DUP4 PUSH1 0x60 DUP4 ADD PUSH2 0x1BB JUMP JUMPDEST SWAP3 PUSH1 0x80 DUP3 ADD CALLDATALOAD PUSH8 0xFFFFFFFFFFFFFFFF DUP2 GT PUSH2 0x1334 JUMPI PUSH2 0x1331 SWAP3 ADD PUSH2 0x590 JUMP JUMPDEST SWAP1 JUMP JUMPDEST PUSH2 0x1A0 JUMP JUMPDEST PUSH2 0x1A0 JUMP JUMPDEST PUSH2 0x19C JUMP JUMPDEST CALLVALUE PUSH2 0x1375 JUMPI PUSH2 0x135F PUSH2 0x1356 CALLDATASIZE PUSH1 0x4 PUSH2 0x12BC JUMP JUMPDEST SWAP4 SWAP3 SWAP1 SWAP3 PUSH2 0x3AEA JUMP JUMPDEST PUSH2 0x1367 PUSH2 0x192 JUMP JUMPDEST DUP1 PUSH2 0x1371 DUP2 PUSH2 0x25B JUMP JUMPDEST SUB SWAP1 RETURN JUMPDEST PUSH2 0x198 JUMP JUMPDEST PUSH0 DUP1 REVERT JUMPDEST SWAP1 PUSH2 0x1391 SWAP3 SWAP2 PUSH2 0x138C PUSH2 0x3F8F JUMP JUMPDEST PUSH2 0x167A JUMP JUMPDEST JUMP JUMPDEST SWAP1 PUSH2 0x139D SWAP1 PUSH2 0x1A4 JUMP JUMPDEST SWAP1 MSTORE JUMP JUMPDEST MSTORE JUMP JUMPDEST SWAP1 PUSH2 0x13AE SWAP1 PUSH2 0x335 JUMP JUMPDEST SWAP1 MSTORE JUMP JUMPDEST PUSH2 0x13BD PUSH2 0x100 PUSH2 0x517 JUMP JUMPDEST SWAP1 JUMP JUMPDEST SWAP1 PUSH2 0x1487 PUSH2 0x147E PUSH1 0x7 PUSH2 0x13D1 PUSH2 0x13B2 JUMP JUMPDEST SWAP5 PUSH2 0x13E8 PUSH2 0x13E0 PUSH0 DUP4 ADD PUSH2 0xAAA JUMP JUMPDEST PUSH0 DUP9 ADD PUSH2 0x1393 JUMP JUMPDEST PUSH2 0x1400 PUSH2 0x13F7 PUSH1 0x1 DUP4 ADD PUSH2 0xB97 JUMP JUMPDEST PUSH1 0x20 DUP9 ADD PUSH2 0x13A1 JUMP JUMPDEST PUSH2 0x1418 PUSH2 0x140F PUSH1 0x2 DUP4 ADD PUSH2 0xAAA JUMP JUMPDEST PUSH1 0x40 DUP9 ADD PUSH2 0x1393 JUMP JUMPDEST PUSH2 0x1430 PUSH2 0x1427 PUSH1 0x3 DUP4 ADD PUSH2 0xAAA JUMP JUMPDEST PUSH1 0x60 DUP9 ADD PUSH2 0x1393 JUMP JUMPDEST PUSH2 0x1448 PUSH2 0x143F PUSH1 0x4 DUP4 ADD PUSH2 0xAAA JUMP JUMPDEST PUSH1 0x80 DUP9 ADD PUSH2 0x1393 JUMP JUMPDEST PUSH2 0x1460 PUSH2 0x1457 PUSH1 0x5 DUP4 ADD PUSH2 0xAAA JUMP JUMPDEST PUSH1 0xA0 DUP9 ADD PUSH2 0x1393 JUMP JUMPDEST PUSH2 0x1478 PUSH2 0x146F PUSH1 0x6 DUP4 ADD PUSH2 0xAAA JUMP JUMPDEST PUSH1 0xC0 DUP9 ADD PUSH2 0x1393 JUMP JUMPDEST ADD PUSH2 0xBD3 JUMP JUMPDEST PUSH1 0xE0 DUP5 ADD PUSH2 0x13A4 JUMP JUMPDEST JUMP JUMPDEST PUSH2 0x1492 SWAP1 PUSH2 0x13C0 JUMP JUMPDEST SWAP1 JUMP JUMPDEST SWAP1 JUMP JUMPDEST PUSH2 0x14AC PUSH2 0x14A7 PUSH2 0x14B1 SWAP3 PUSH2 0x1495 JUMP JUMPDEST PUSH2 0x11FA JUMP JUMPDEST PUSH2 0x1A4 JUMP JUMPDEST SWAP1 JUMP JUMPDEST SWAP1 JUMP JUMPDEST PUSH2 0x14CB PUSH2 0x14C6 PUSH2 0x14D0 SWAP3 PUSH2 0x14B4 JUMP JUMPDEST PUSH2 0x11FA JUMP JUMPDEST PUSH2 0x1A4 JUMP JUMPDEST SWAP1 JUMP JUMPDEST PUSH4 0x4E487B71 PUSH1 0xE0 SHL PUSH0 MSTORE PUSH1 0x11 PUSH1 0x4 MSTORE PUSH1 0x24 PUSH0 REVERT JUMPDEST PUSH2 0x14F6 PUSH2 0x14FC SWAP2 SWAP4 SWAP3 SWAP4 PUSH2 0x1A4 JUMP JUMPDEST SWAP3 PUSH2 0x1A4 JUMP JUMPDEST DUP3 ADD DUP1 SWAP3 GT PUSH2 0x1507 JUMPI JUMP JUMPDEST PUSH2 0x14D3 JUMP JUMPDEST POP SWAP1 JUMP JUMPDEST PUSH2 0x151A SWAP1 MLOAD PUSH2 0x1A4 JUMP JUMPDEST SWAP1 JUMP JUMPDEST SWAP2 SWAP1 DUP2 LT ISZERO PUSH2 0x152D JUMPI PUSH1 0x20 MUL ADD SWAP1 JUMP JUMPDEST PUSH2 0xA45 JUMP JUMPDEST CALLDATALOAD PUSH2 0x153C DUP2 PUSH2 0x1A7 JUMP JUMPDEST SWAP1 JUMP JUMPDEST PUSH2 0x1548 SWAP1 PUSH2 0x47B JUMP JUMPDEST SWAP1 JUMP JUMPDEST SWAP1 PUSH2 0x1555 SWAP1 PUSH2 0x153F JUMP JUMPDEST PUSH0 MSTORE PUSH1 0x20 MSTORE PUSH1 0x40 PUSH0 KECCAK256 SWAP1 JUMP JUMPDEST PUSH1 0x1 DUP1 PUSH1 0xA0 SHL SUB AND SWAP1 JUMP JUMPDEST PUSH2 0x1578 PUSH2 0x157D SWAP2 PUSH2 0xA8E JUMP JUMPDEST PUSH2 0x1561 JUMP JUMPDEST SWAP1 JUMP JUMPDEST PUSH2 0x158A SWAP1 SLOAD PUSH2 0x156C JUMP JUMPDEST SWAP1 JUMP JUMPDEST SWAP1 PUSH2 0x1597 SWAP1 PUSH2 0x637 JUMP JUMPDEST SWAP1 MSTORE JUMP JUMPDEST PUSH1 0xA0 SHR SWAP1 JUMP JUMPDEST PUSH1 0xFF AND SWAP1 JUMP JUMPDEST PUSH2 0x15B3 PUSH2 0x15B8 SWAP2 PUSH2 0x159B JUMP JUMPDEST PUSH2 0x15A1 JUMP JUMPDEST SWAP1 JUMP JUMPDEST PUSH2 0x15C5 SWAP1 SLOAD PUSH2 0x15A7 JUMP JUMPDEST SWAP1 JUMP JUMPDEST SWAP1 PUSH2 0x15D2 SWAP1 PUSH2 0x650 JUMP JUMPDEST SWAP1 MSTORE JUMP JUMPDEST PUSH2 0x15E0 PUSH1 0x60 PUSH2 0x517 JUMP JUMPDEST SWAP1 JUMP JUMPDEST SWAP1 PUSH2 0x1631 PUSH2 0x1628 PUSH1 0x1 PUSH2 0x15F4 PUSH2 0x15D6 JUMP JUMPDEST SWAP5 PUSH2 0x160B PUSH2 0x1603 PUSH0 DUP4 ADD PUSH2 0x1580 JUMP JUMPDEST PUSH0 DUP9 ADD PUSH2 0x158D JUMP JUMPDEST PUSH2 0x1622 PUSH2 0x1619 PUSH0 DUP4 ADD PUSH2 0x15BB JUMP JUMPDEST PUSH1 0x20 DUP9 ADD PUSH2 0x15C8 JUMP JUMPDEST ADD PUSH2 0xB97 JUMP JUMPDEST PUSH1 0x40 DUP5 ADD PUSH2 0x13A1 JUMP JUMPDEST JUMP JUMPDEST PUSH2 0x163C SWAP1 PUSH2 0x15E3 JUMP JUMPDEST SWAP1 JUMP JUMPDEST SWAP1 JUMP JUMPDEST PUSH2 0x1656 PUSH2 0x1651 PUSH2 0x165B SWAP3 PUSH2 0x163F JUMP JUMPDEST PUSH2 0x11FA JUMP JUMPDEST PUSH2 0x1A4 JUMP JUMPDEST SWAP1 JUMP JUMPDEST PUSH2 0x1667 SWAP1 PUSH2 0x1A4 JUMP JUMPDEST PUSH0 NOT DUP2 EQ PUSH2 0x1675 JUMPI PUSH1 0x1 ADD SWAP1 JUMP JUMPDEST PUSH2 0x14D3 JUMP JUMPDEST SWAP3 SWAP2 SWAP3 PUSH2 0x1692 PUSH2 0x168C PUSH1 0x2 DUP4 SWAP1 PUSH2 0xA66 JUMP JUMPDEST POP PUSH2 0x1489 JUMP JUMPDEST SWAP2 PUSH2 0x169C PUSH0 PUSH2 0x1498 JUMP JUMPDEST SWAP5 PUSH2 0x16A6 PUSH0 PUSH2 0x1498 JUMP JUMPDEST SWAP6 JUMPDEST DUP7 PUSH2 0x16C5 PUSH2 0x16BF PUSH2 0x16BA DUP7 DUP7 SWAP1 PUSH2 0x150C JUMP JUMPDEST PUSH2 0x1A4 JUMP JUMPDEST SWAP2 PUSH2 0x1A4 JUMP JUMPDEST LT ISZERO PUSH2 0x17A0 JUMPI PUSH2 0x1789 PUSH2 0x179A SWAP2 PUSH2 0x1784 DUP10 PUSH2 0x176D PUSH2 0x1768 DUP10 PUSH2 0x1762 DUP13 DUP12 PUSH2 0x175C PUSH2 0x1757 DUP14 PUSH2 0x172B PUSH2 0x1726 DUP9 PUSH2 0x1720 DUP9 DUP15 PUSH2 0x171A PUSH2 0x1715 PUSH2 0x170A PUSH1 0xA0 PUSH1 0x4 SWAP8 SWAP6 ADD PUSH2 0x1510 JUMP JUMPDEST SWAP3 DUP13 SWAP1 DUP11 SWAP1 SWAP2 PUSH2 0x151D JUMP JUMPDEST PUSH2 0x1532 JUMP JUMPDEST SWAP2 PUSH2 0x3211 JUMP JUMPDEST SWAP1 PUSH2 0x154B JUMP JUMPDEST PUSH2 0x1633 JUMP JUMPDEST SWAP10 PUSH2 0x1751 PUSH2 0x173E PUSH1 0xA0 PUSH1 0x4 SWAP11 SWAP9 ADD PUSH2 0x1510 JUMP JUMPDEST SWAP6 SWAP3 SWAP2 PUSH2 0x174B PUSH1 0x1 PUSH2 0x1642 JUMP JUMPDEST SWAP1 PUSH2 0x14E7 JUMP JUMPDEST SWAP2 PUSH2 0x151D JUMP JUMPDEST PUSH2 0x1532 JUMP JUMPDEST SWAP2 PUSH2 0x3211 JUMP JUMPDEST SWAP1 PUSH2 0x154B JUMP JUMPDEST PUSH2 0x1633 JUMP JUMPDEST DUP9 SWAP2 PUSH2 0x177B PUSH1 0xA0 DUP13 ADD PUSH2 0x1510 JUMP JUMPDEST DUP6 SWAP2 SWAP3 SWAP4 PUSH2 0x27A7 JUMP JUMPDEST PUSH2 0x165E JUMP JUMPDEST SWAP7 PUSH2 0x1794 PUSH1 0x2 PUSH2 0x14B7 JUMP JUMPDEST SWAP1 PUSH2 0x14E7 JUMP JUMPDEST SWAP6 PUSH2 0x16A8 JUMP JUMPDEST POP POP POP SWAP2 SWAP3 POP POP PUSH2 0x17DD PUSH32 0xD3C80747CF34C27F74C281E72950414233266100A718398CDB1ECC060A2A6DAB SWAP2 PUSH2 0x17D4 PUSH2 0x192 JUMP JUMPDEST SWAP2 DUP3 SWAP2 DUP3 PUSH2 0xF71 JUMP JUMPDEST SUB SWAP1 LOG1 JUMP JUMPDEST SWAP1 PUSH2 0x17ED SWAP3 SWAP2 PUSH2 0x137E JUMP JUMPDEST JUMP JUMPDEST PUSH0 SWAP1 JUMP JUMPDEST PUSH1 0x60 SWAP1 JUMP JUMPDEST PUSH0 SWAP1 JUMP JUMPDEST PUSH2 0x1804 PUSH2 0x13B2 JUMP JUMPDEST SWAP1 PUSH1 0x20 DUP1 DUP1 DUP1 DUP1 DUP1 DUP1 DUP1 DUP10 PUSH2 0x1817 PUSH2 0x17EF JUMP JUMPDEST DUP2 MSTORE ADD PUSH2 0x1822 PUSH2 0x17F3 JUMP JUMPDEST DUP2 MSTORE ADD PUSH2 0x182D PUSH2 0x17EF JUMP JUMPDEST DUP2 MSTORE ADD PUSH2 0x1838 PUSH2 0x17EF JUMP JUMPDEST DUP2 MSTORE ADD PUSH2 0x1843 PUSH2 0x17EF JUMP JUMPDEST DUP2 MSTORE ADD PUSH2 0x184E PUSH2 0x17EF JUMP JUMPDEST DUP2 MSTORE ADD PUSH2 0x1859 PUSH2 0x17EF JUMP JUMPDEST DUP2 MSTORE ADD PUSH2 0x1864 PUSH2 0x17F8 JUMP JUMPDEST DUP2 MSTORE POP POP JUMP JUMPDEST PUSH2 0x1872 PUSH2 0x17FC JUMP JUMPDEST SWAP1 JUMP JUMPDEST PUSH2 0x188C PUSH2 0x1892 SWAP2 PUSH2 0x1884 PUSH2 0x186A JUMP JUMPDEST POP PUSH1 0x2 PUSH2 0xA66 JUMP JUMPDEST POP PUSH2 0x1489 JUMP JUMPDEST SWAP1 JUMP JUMPDEST PUSH0 SWAP1 JUMP JUMPDEST SWAP1 JUMP JUMPDEST PUSH2 0x18A8 PUSH2 0x18AD SWAP2 PUSH2 0x1A4 JUMP JUMPDEST PUSH2 0x1899 JUMP JUMPDEST SWAP1 MSTORE JUMP JUMPDEST PUSH1 0x20 SWAP4 SWAP3 PUSH2 0x18D0 DUP6 DUP4 PUSH2 0x18C8 DUP3 SWAP6 PUSH2 0x18D8 SWAP8 PUSH2 0x189C JUMP JUMPDEST ADD DUP1 SWAP3 PUSH2 0x189C JUMP JUMPDEST ADD DUP1 SWAP3 PUSH2 0x189C JUMP JUMPDEST ADD SWAP1 JUMP JUMPDEST PUSH1 0x20 ADD SWAP1 JUMP JUMPDEST MLOAD SWAP1 JUMP JUMPDEST SWAP1 PUSH2 0x190D PUSH2 0x191C SWAP3 PUSH2 0x18F6 PUSH2 0x1895 JUMP JUMPDEST POP SWAP2 SWAP4 PUSH2 0x1901 PUSH2 0x192 JUMP JUMPDEST SWAP5 DUP6 SWAP4 PUSH1 0x20 DUP6 ADD PUSH2 0x18B1 JUMP JUMPDEST PUSH1 0x20 DUP3 ADD DUP2 SUB DUP3 MSTORE SUB DUP3 PUSH2 0x4EE JUMP JUMPDEST PUSH2 0x192E PUSH2 0x1928 DUP3 PUSH2 0x18E2 JUMP JUMPDEST SWAP2 PUSH2 0x18DC JUMP JUMPDEST KECCAK256 SWAP1 JUMP JUMPDEST SWAP1 JUMP JUMPDEST PUSH0 PUSH32 0x746F75726E616D656E742069736E27742070656E64696E670000000000000000 SWAP2 ADD MSTORE JUMP JUMPDEST PUSH2 0x1969 PUSH1 0x18 PUSH1 0x20 SWAP3 PUSH2 0xC77 JUMP JUMPDEST PUSH2 0x1972 DUP2 PUSH2 0x1935 JUMP JUMPDEST ADD SWAP1 JUMP JUMPDEST PUSH2 0x198B SWAP1 PUSH1 0x20 DUP2 ADD SWAP1 PUSH0 DUP2 DUP4 SUB SWAP2 ADD MSTORE PUSH2 0x195C JUMP JUMPDEST SWAP1 JUMP JUMPDEST ISZERO PUSH2 0x1995 JUMPI JUMP JUMPDEST PUSH2 0x199D PUSH2 0x192 JUMP JUMPDEST PUSH3 0x461BCD PUSH1 0xE5 SHL DUP2 MSTORE DUP1 PUSH2 0x19B3 PUSH1 0x4 DUP3 ADD PUSH2 0x1976 JUMP JUMPDEST SUB SWAP1 REVERT JUMPDEST PUSH0 PUSH32 0x646561646C696E65207265616368656400000000000000000000000000000000 SWAP2 ADD MSTORE JUMP JUMPDEST PUSH2 0x19EB PUSH1 0x10 PUSH1 0x20 SWAP3 PUSH2 0xC77 JUMP JUMPDEST PUSH2 0x19F4 DUP2 PUSH2 0x19B7 JUMP JUMPDEST ADD SWAP1 JUMP JUMPDEST PUSH2 0x1A0D SWAP1 PUSH1 0x20 DUP2 ADD SWAP1 PUSH0 DUP2 DUP4 SUB SWAP2 ADD MSTORE PUSH2 0x19DE JUMP JUMPDEST SWAP1 JUMP JUMPDEST ISZERO PUSH2 0x1A17 JUMPI JUMP JUMPDEST PUSH2 0x1A1F PUSH2 0x192 JUMP JUMPDEST PUSH3 0x461BCD PUSH1 0xE5 SHL DUP2 MSTORE DUP1 PUSH2 0x1A35 PUSH1 0x4 DUP3 ADD PUSH2 0x19F8 JUMP JUMPDEST SUB SWAP1 REVERT JUMPDEST PUSH0 PUSH32 0x746F75726E616D656E742069732066756C6C0000000000000000000000000000 SWAP2 ADD MSTORE JUMP JUMPDEST PUSH2 0x1A6D PUSH1 0x12 PUSH1 0x20 SWAP3 PUSH2 0xC77 JUMP JUMPDEST PUSH2 0x1A76 DUP2 PUSH2 0x1A39 JUMP JUMPDEST ADD SWAP1 JUMP JUMPDEST PUSH2 0x1A8F SWAP1 PUSH1 0x20 DUP2 ADD SWAP1 PUSH0 DUP2 DUP4 SUB SWAP2 ADD MSTORE PUSH2 0x1A60 JUMP JUMPDEST SWAP1 JUMP JUMPDEST ISZERO PUSH2 0x1A99 JUMPI JUMP JUMPDEST PUSH2 0x1AA1 PUSH2 0x192 JUMP JUMPDEST PUSH3 0x461BCD PUSH1 0xE5 SHL DUP2 MSTORE DUP1 PUSH2 0x1AB7 PUSH1 0x4 DUP3 ADD PUSH2 0x1A7A JUMP JUMPDEST SUB SWAP1 REVERT JUMPDEST SWAP1 JUMP JUMPDEST SWAP1 JUMP JUMPDEST PUSH2 0x1AD5 PUSH2 0x1AD0 PUSH2 0x1ADA SWAP3 PUSH2 0x1ABE JUMP JUMPDEST PUSH2 0x11FA JUMP JUMPDEST PUSH2 0x1A4 JUMP JUMPDEST SWAP1 JUMP JUMPDEST SWAP1 JUMP JUMPDEST PUSH2 0x1AF4 PUSH2 0x1AEF PUSH2 0x1AF9 SWAP3 PUSH2 0x1ADD JUMP JUMPDEST PUSH2 0x11FA JUMP JUMPDEST PUSH2 0x1A4 JUMP JUMPDEST SWAP1 JUMP JUMPDEST PUSH0 PUSH32 0x557365726E616D65206C656E67746820696E76616C6964000000000000000000 SWAP2 ADD MSTORE JUMP JUMPDEST PUSH2 0x1B30 PUSH1 0x17 PUSH1 0x20 SWAP3 PUSH2 0xC77 JUMP JUMPDEST PUSH2 0x1B39 DUP2 PUSH2 0x1AFC JUMP JUMPDEST ADD SWAP1 JUMP JUMPDEST PUSH2 0x1B52 SWAP1 PUSH1 0x20 DUP2 ADD SWAP1 PUSH0 DUP2 DUP4 SUB SWAP2 ADD MSTORE PUSH2 0x1B23 JUMP JUMPDEST SWAP1 JUMP JUMPDEST ISZERO PUSH2 0x1B5C JUMPI JUMP JUMPDEST PUSH2 0x1B64 PUSH2 0x192 JUMP JUMPDEST PUSH3 0x461BCD PUSH1 0xE5 SHL DUP2 MSTORE DUP1 PUSH2 0x1B7A PUSH1 0x4 DUP3 ADD PUSH2 0x1B3D JUMP JUMPDEST SUB SWAP1 REVERT JUMPDEST SWAP1 POP SWAP1 JUMP JUMPDEST PUSH2 0x1BA8 PUSH2 0x1B9F SWAP3 PUSH1 0x20 SWAP3 PUSH2 0x1B96 DUP2 PUSH2 0x2BF JUMP JUMPDEST SWAP5 DUP6 DUP1 SWAP4 PUSH2 0x1B7E JUMP JUMPDEST SWAP4 DUP5 SWAP2 ADD PUSH2 0x2CC JUMP JUMPDEST ADD SWAP1 JUMP JUMPDEST DUP1 PUSH2 0x1BBD PUSH1 0x20 SWAP3 PUSH2 0x1BC4 SWAP6 SWAP5 PUSH2 0x189C JUMP JUMPDEST ADD SWAP1 PUSH2 0x1B83 JUMP JUMPDEST SWAP1 JUMP JUMPDEST SWAP1 PUSH2 0x1BD1 SWAP1 PUSH2 0x153F JUMP JUMPDEST PUSH0 MSTORE PUSH1 0x20 MSTORE PUSH1 0x40 PUSH0 KECCAK256 SWAP1 JUMP JUMPDEST PUSH2 0x1BE9 PUSH2 0x1BEE SWAP2 PUSH2 0xA8E JUMP JUMPDEST PUSH2 0x15A1 JUMP JUMPDEST SWAP1 JUMP JUMPDEST PUSH2 0x1BFB SWAP1 SLOAD PUSH2 0x1BDD JUMP JUMPDEST SWAP1 JUMP JUMPDEST PUSH0 PUSH32 0x557365726E616D6520616C726561647920757365640000000000000000000000 SWAP2 ADD MSTORE JUMP JUMPDEST PUSH2 0x1C32 PUSH1 0x15 PUSH1 0x20 SWAP3 PUSH2 0xC77 JUMP JUMPDEST PUSH2 0x1C3B DUP2 PUSH2 0x1BFE JUMP JUMPDEST ADD SWAP1 JUMP JUMPDEST PUSH2 0x1C54 SWAP1 PUSH1 0x20 DUP2 ADD SWAP1 PUSH0 DUP2 DUP4 SUB SWAP2 ADD MSTORE PUSH2 0x1C25 JUMP JUMPDEST SWAP1 JUMP JUMPDEST ISZERO PUSH2 0x1C5E JUMPI JUMP JUMPDEST PUSH2 0x1C66 PUSH2 0x192 JUMP JUMPDEST PUSH3 0x461BCD PUSH1 0xE5 SHL DUP2 MSTORE DUP1 PUSH2 0x1C7C PUSH1 0x4 DUP3 ADD PUSH2 0x1C3F JUMP JUMPDEST SUB SWAP1 REVERT JUMPDEST PUSH2 0x1C8C PUSH2 0x1C91 SWAP2 PUSH2 0xA8E JUMP JUMPDEST PUSH2 0x11BA JUMP JUMPDEST SWAP1 JUMP JUMPDEST PUSH2 0x1C9E SWAP1 SLOAD PUSH2 0x1C80 JUMP JUMPDEST SWAP1 JUMP JUMPDEST PUSH2 0x1CAA SWAP1 PUSH2 0x1219 JUMP JUMPDEST SWAP1 JUMP JUMPDEST PUSH1 0xE0 SHL SWAP1 JUMP JUMPDEST SWAP1 POP MLOAD SWAP1 PUSH2 0x1CC0 DUP3 PUSH2 0x781 JUMP JUMPDEST JUMP JUMPDEST SWAP1 PUSH1 0x20 DUP3 DUP3 SUB SLT PUSH2 0x1CDB JUMPI PUSH2 0x1CD8 SWAP2 PUSH0 ADD PUSH2 0x1CB3 JUMP JUMPDEST SWAP1 JUMP JUMPDEST PUSH2 0x19C JUMP JUMPDEST PUSH1 0x40 SWAP1 PUSH2 0x1D09 PUSH2 0x1D10 SWAP5 SWAP7 SWAP6 SWAP4 SWAP7 PUSH2 0x1CFF PUSH1 0x60 DUP5 ADD SWAP9 PUSH0 DUP6 ADD SWAP1 PUSH2 0xE68 JUMP JUMPDEST PUSH1 0x20 DUP4 ADD SWAP1 PUSH2 0xE68 JUMP JUMPDEST ADD SWAP1 PUSH2 0xC6A JUMP JUMPDEST JUMP JUMPDEST PUSH2 0x1D1A PUSH2 0x192 JUMP JUMPDEST RETURNDATASIZE PUSH0 DUP3 RETURNDATACOPY RETURNDATASIZE SWAP1 REVERT JUMPDEST PUSH0 PUSH32 0x6E6F7420656E6F756768206361736820737472616E6765720000000000000000 SWAP2 ADD MSTORE JUMP JUMPDEST PUSH2 0x1D56 PUSH1 0x18 PUSH1 0x20 SWAP3 PUSH2 0xC77 JUMP JUMPDEST PUSH2 0x1D5F DUP2 PUSH2 0x1D22 JUMP JUMPDEST ADD SWAP1 JUMP JUMPDEST PUSH2 0x1D78 SWAP1 PUSH1 0x20 DUP2 ADD SWAP1 PUSH0 DUP2 DUP4 SUB SWAP2 ADD MSTORE PUSH2 0x1D49 JUMP JUMPDEST SWAP1 JUMP JUMPDEST ISZERO PUSH2 0x1D82 JUMPI JUMP JUMPDEST PUSH2 0x1D8A PUSH2 0x192 JUMP JUMPDEST PUSH3 0x461BCD PUSH1 0xE5 SHL DUP2 MSTORE DUP1 PUSH2 0x1DA0 PUSH1 0x4 DUP3 ADD PUSH2 0x1D63 JUMP JUMPDEST SUB SWAP1 REVERT JUMPDEST PUSH0 SHL SWAP1 JUMP JUMPDEST SWAP1 PUSH2 0x1DB5 PUSH0 NOT SWAP2 PUSH2 0x1DA4 JUMP JUMPDEST SWAP2 DUP2 NOT AND SWAP2 AND OR SWAP1 JUMP JUMPDEST PUSH2 0x1DD3 PUSH2 0x1DCE PUSH2 0x1DD8 SWAP3 PUSH2 0x1A4 JUMP JUMPDEST PUSH2 0x11FA JUMP JUMPDEST PUSH2 0x1A4 JUMP JUMPDEST SWAP1 JUMP JUMPDEST SWAP1 JUMP JUMPDEST SWAP1 PUSH2 0x1DF3 PUSH2 0x1DEE PUSH2 0x1DFA SWAP3 PUSH2 0x1DBF JUMP JUMPDEST PUSH2 0x1DDB JUMP JUMPDEST DUP3 SLOAD PUSH2 0x1DA9 JUMP JUMPDEST SWAP1 SSTORE JUMP JUMPDEST PUSH2 0x1E08 PUSH1 0x60 PUSH2 0x517 JUMP JUMPDEST SWAP1 JUMP JUMPDEST PUSH2 0x1E1A PUSH2 0x1E20 SWAP2 SWAP4 SWAP3 SWAP4 PUSH2 0x1A4 JUMP JUMPDEST SWAP3 PUSH2 0x1A4 JUMP JUMPDEST DUP3 SUB SWAP2 DUP3 GT PUSH2 0x1E2B JUMPI JUMP JUMPDEST PUSH2 0x14D3 JUMP JUMPDEST PUSH4 0x4E487B71 PUSH1 0xE0 SHL PUSH0 MSTORE PUSH0 PUSH1 0x4 MSTORE PUSH1 0x24 PUSH0 REVERT JUMPDEST PUSH2 0x1E4D SWAP1 MLOAD PUSH2 0x637 JUMP JUMPDEST SWAP1 JUMP JUMPDEST SWAP1 PUSH2 0x1E61 PUSH1 0x1 DUP1 PUSH1 0xA0 SHL SUB SWAP2 PUSH2 0x1DA4 JUMP JUMPDEST SWAP2 DUP2 NOT AND SWAP2 AND OR SWAP1 JUMP JUMPDEST PUSH2 0x1E74 SWAP1 PUSH2 0x1219 JUMP JUMPDEST SWAP1 JUMP JUMPDEST SWAP1 JUMP JUMPDEST SWAP1 PUSH2 0x1E8F PUSH2 0x1E8A PUSH2 0x1E96 SWAP3 PUSH2 0x1E6B JUMP JUMPDEST PUSH2 0x1E77 JUMP JUMPDEST DUP3 SLOAD PUSH2 0x1E50 JUMP JUMPDEST SWAP1 SSTORE JUMP JUMPDEST PUSH2 0x1EA4 SWAP1 MLOAD PUSH2 0x650 JUMP JUMPDEST SWAP1 JUMP JUMPDEST PUSH1 0xA0 SHL SWAP1 JUMP JUMPDEST SWAP1 PUSH2 0x1EBC PUSH1 0xFF PUSH1 0xA0 SHL SWAP2 PUSH2 0x1EA7 JUMP JUMPDEST SWAP2 DUP2 NOT AND SWAP2 AND OR SWAP1 JUMP JUMPDEST PUSH2 0x1ECF SWAP1 PUSH2 0x650 JUMP JUMPDEST SWAP1 JUMP JUMPDEST SWAP1 JUMP JUMPDEST SWAP1 PUSH2 0x1EEA PUSH2 0x1EE5 PUSH2 0x1EF1 SWAP3 PUSH2 0x1EC6 JUMP JUMPDEST PUSH2 0x1ED2 JUMP JUMPDEST DUP3 SLOAD PUSH2 0x1EAD JUMP JUMPDEST SWAP1 SSTORE JUMP JUMPDEST MLOAD SWAP1 JUMP JUMPDEST PUSH1 0x1F PUSH1 0x20 SWAP2 ADD DIV SWAP1 JUMP JUMPDEST SHL SWAP1 JUMP JUMPDEST SWAP2 SWAP1 PUSH1 0x8 PUSH2 0x1F22 SWAP2 MUL SWAP2 PUSH2 0x1F1C PUSH0 NOT DUP5 PUSH2 0x1F03 JUMP JUMPDEST SWAP3 PUSH2 0x1F03 JUMP JUMPDEST SWAP2 DUP2 NOT AND SWAP2 AND OR SWAP1 JUMP JUMPDEST SWAP2 SWAP1 PUSH2 0x1F42 PUSH2 0x1F3D PUSH2 0x1F4A SWAP4 PUSH2 0x1DBF JUMP JUMPDEST PUSH2 0x1DDB JUMP JUMPDEST SWAP1 DUP4 SLOAD PUSH2 0x1F07 JUMP JUMPDEST SWAP1 SSTORE JUMP JUMPDEST PUSH0 SWAP1 JUMP JUMPDEST PUSH2 0x1F64 SWAP2 PUSH2 0x1F5E PUSH2 0x1F4E JUMP JUMPDEST SWAP2 PUSH2 0x1F2C JUMP JUMPDEST JUMP JUMPDEST JUMPDEST DUP2 DUP2 LT PUSH2 0x1F72 JUMPI POP POP JUMP JUMPDEST DUP1 PUSH2 0x1F7F PUSH0 PUSH1 0x1 SWAP4 PUSH2 0x1F52 JUMP JUMPDEST ADD PUSH2 0x1F67 JUMP JUMPDEST SWAP2 SWAP1 PUSH1 0x1F DUP2 GT PUSH2 0x1F95 JUMPI JUMPDEST POP POP POP JUMP JUMPDEST PUSH2 0x1FA1 PUSH2 0x1FC6 SWAP4 PUSH2 0xAF5 JUMP JUMPDEST SWAP1 PUSH1 0x20 PUSH2 0x1FAD DUP5 PUSH2 0x1EF9 JUMP JUMPDEST DUP4 ADD SWAP4 LT PUSH2 0x1FCE JUMPI JUMPDEST PUSH2 0x1FBF SWAP1 PUSH2 0x1EF9 JUMP JUMPDEST ADD SWAP1 PUSH2 0x1F66 JUMP JUMPDEST PUSH0 DUP1 DUP1 PUSH2 0x1F90 JUMP JUMPDEST SWAP2 POP PUSH2 0x1FBF DUP2 SWAP3 SWAP1 POP PUSH2 0x1FB6 JUMP JUMPDEST SWAP1 PUSH2 0x1FEC SWAP1 PUSH0 NOT SWAP1 PUSH1 0x8 MUL PUSH2 0x11B6 JUMP JUMPDEST NOT AND SWAP1 JUMP JUMPDEST DUP2 PUSH2 0x1FFB SWAP2 PUSH2 0x1FDC JUMP JUMPDEST SWAP1 PUSH1 0x2 MUL OR SWAP1 JUMP JUMPDEST SWAP1 PUSH2 0x200D DUP2 PUSH2 0x2BF JUMP JUMPDEST SWAP1 PUSH8 0xFFFFFFFFFFFFFFFF DUP3 GT PUSH2 0x20CD JUMPI PUSH2 0x2031 DUP3 PUSH2 0x202B DUP6 SLOAD PUSH2 0xACB JUMP JUMPDEST DUP6 PUSH2 0x1F85 JUMP JUMPDEST PUSH1 0x20 SWAP1 PUSH1 0x1F DUP4 GT PUSH1 0x1 EQ PUSH2 0x2065 JUMPI SWAP2 DUP1 SWAP2 PUSH2 0x2054 SWAP4 PUSH0 SWAP3 PUSH2 0x2059 JUMPI JUMPDEST POP POP PUSH2 0x1FF1 JUMP JUMPDEST SWAP1 SSTORE JUMPDEST JUMP JUMPDEST SWAP1 SWAP2 POP ADD MLOAD PUSH0 DUP1 PUSH2 0x204D JUMP JUMPDEST PUSH1 0x1F NOT DUP4 AND SWAP2 PUSH2 0x2074 DUP6 PUSH2 0xAF5 JUMP JUMPDEST SWAP3 PUSH0 JUMPDEST DUP2 DUP2 LT PUSH2 0x20B5 JUMPI POP SWAP2 PUSH1 0x2 SWAP4 SWAP2 DUP6 PUSH1 0x1 SWAP7 SWAP5 LT PUSH2 0x209B JUMPI JUMPDEST POP POP POP MUL ADD SWAP1 SSTORE PUSH2 0x2057 JUMP JUMPDEST PUSH2 0x20AB SWAP2 ADD MLOAD PUSH1 0x1F DUP5 AND SWAP1 PUSH2 0x1FDC JUMP JUMPDEST SWAP1 SSTORE PUSH0 DUP1 DUP1 PUSH2 0x208F JUMP JUMPDEST SWAP2 SWAP4 PUSH1 0x20 PUSH1 0x1 DUP2 SWAP3 DUP8 DUP8 ADD MLOAD DUP2 SSTORE ADD SWAP6 ADD SWAP3 ADD PUSH2 0x2077 JUMP JUMPDEST PUSH2 0x4DA JUMP JUMPDEST SWAP1 PUSH2 0x20DC SWAP2 PUSH2 0x2003 JUMP JUMPDEST JUMP JUMPDEST SWAP1 PUSH2 0x2121 PUSH1 0x40 PUSH1 0x1 PUSH2 0x2127 SWAP5 PUSH2 0x2101 PUSH0 DUP3 ADD PUSH2 0x20FB PUSH0 DUP9 ADD PUSH2 0x1E43 JUMP JUMPDEST SWAP1 PUSH2 0x1E7A JUMP JUMPDEST PUSH2 0x2119 PUSH0 DUP3 ADD PUSH2 0x2113 PUSH1 0x20 DUP9 ADD PUSH2 0x1E9A JUMP JUMPDEST SWAP1 PUSH2 0x1ED5 JUMP JUMPDEST ADD SWAP3 ADD PUSH2 0x1EF5 JUMP JUMPDEST SWAP1 PUSH2 0x20D2 JUMP JUMPDEST JUMP JUMPDEST SWAP1 PUSH2 0x2133 SWAP2 PUSH2 0x20DE JUMP JUMPDEST JUMP JUMPDEST SWAP1 PUSH2 0x2141 PUSH1 0xFF SWAP2 PUSH2 0x1DA4 JUMP JUMPDEST SWAP2 DUP2 NOT AND SWAP2 AND OR SWAP1 JUMP JUMPDEST SWAP1 PUSH2 0x2160 PUSH2 0x215B PUSH2 0x2167 SWAP3 PUSH2 0x1EC6 JUMP JUMPDEST PUSH2 0x1ED2 JUMP JUMPDEST DUP3 SLOAD PUSH2 0x2135 JUMP JUMPDEST SWAP1 SSTORE JUMP JUMPDEST SWAP1 PUSH2 0x2181 PUSH2 0x217B PUSH1 0x2 DUP5 SWAP1 PUSH2 0xA66 JUMP JUMPDEST POP PUSH2 0x1932 JUMP JUMPDEST SWAP2 PUSH2 0x21A9 PUSH2 0x2191 PUSH1 0x7 DUP6 ADD PUSH2 0xBD3 JUMP JUMPDEST PUSH2 0x21A3 PUSH2 0x219D PUSH0 PUSH2 0x335 JUMP JUMPDEST SWAP2 PUSH2 0x335 JUMP JUMPDEST EQ PUSH2 0x198E JUMP JUMPDEST PUSH2 0x21D0 PUSH2 0x21B8 PUSH1 0x6 DUP6 ADD PUSH2 0xAAA JUMP JUMPDEST PUSH2 0x21CA PUSH2 0x21C4 TIMESTAMP PUSH2 0x1A4 JUMP JUMPDEST SWAP2 PUSH2 0x1A4 JUMP JUMPDEST GT PUSH2 0x1A10 JUMP JUMPDEST PUSH2 0x2202 PUSH2 0x21DF PUSH1 0x3 DUP6 ADD PUSH2 0xAAA JUMP JUMPDEST PUSH2 0x21FC PUSH2 0x21F6 PUSH2 0x21F1 PUSH1 0x4 DUP9 ADD PUSH2 0xAAA JUMP JUMPDEST PUSH2 0x1A4 JUMP JUMPDEST SWAP2 PUSH2 0x1A4 JUMP JUMPDEST LT PUSH2 0x1A92 JUMP JUMPDEST PUSH2 0x2239 PUSH2 0x2216 PUSH2 0x2211 DUP5 PUSH2 0x1ABB JUMP JUMPDEST PUSH2 0x18E2 JUMP JUMPDEST DUP1 PUSH2 0x222A PUSH2 0x2224 PUSH1 0x3 PUSH2 0x1AC1 JUMP JUMPDEST SWAP2 PUSH2 0x1A4 JUMP JUMPDEST LT ISZERO SWAP1 DUP2 PUSH2 0x2433 JUMPI JUMPDEST POP PUSH2 0x1B55 JUMP JUMPDEST PUSH2 0x229C PUSH2 0x2297 PUSH2 0x2291 PUSH2 0x228C PUSH1 0x5 DUP6 PUSH2 0x2273 DUP9 SWAP2 PUSH2 0x2264 PUSH2 0x2258 PUSH2 0x192 JUMP JUMPDEST SWAP4 DUP5 SWAP3 PUSH1 0x20 DUP5 ADD PUSH2 0x1BAC JUMP JUMPDEST PUSH1 0x20 DUP3 ADD DUP2 SUB DUP3 MSTORE SUB DUP3 PUSH2 0x4EE JUMP JUMPDEST PUSH2 0x2285 PUSH2 0x227F DUP3 PUSH2 0x18E2 JUMP JUMPDEST SWAP2 PUSH2 0x18DC JUMP JUMPDEST KECCAK256 SWAP1 PUSH2 0x1BC7 JUMP JUMPDEST PUSH2 0x1BF1 JUMP JUMPDEST ISZERO PUSH2 0x650 JUMP JUMPDEST PUSH2 0x1C57 JUMP JUMPDEST PUSH2 0x22AE PUSH2 0x22A9 PUSH1 0x1 PUSH2 0x1C94 JUMP JUMPDEST PUSH2 0x1225 JUMP JUMPDEST SWAP1 PUSH1 0x20 PUSH4 0x23B872DD SWAP3 CALLER SWAP1 PUSH2 0x22EA PUSH0 PUSH2 0x22C6 ADDRESS PUSH2 0x1CA1 JUMP JUMPDEST SWAP7 PUSH2 0x22F5 PUSH2 0x22D6 PUSH1 0x2 DUP13 ADD PUSH2 0xAAA JUMP JUMPDEST PUSH2 0x22DE PUSH2 0x192 JUMP JUMPDEST SWAP10 DUP11 SWAP8 DUP9 SWAP7 DUP8 SWAP6 PUSH2 0x1CAD JUMP JUMPDEST DUP6 MSTORE PUSH1 0x4 DUP6 ADD PUSH2 0x1CE0 JUMP JUMPDEST SUB SWAP3 GAS CALL DUP1 ISZERO PUSH2 0x242E JUMPI PUSH2 0x23FE SWAP5 PUSH2 0x231B PUSH2 0x23B1 SWAP3 PUSH2 0x23F9 SWAP6 PUSH0 SWAP2 PUSH2 0x2400 JUMPI JUMPDEST POP PUSH2 0x1D7B JUMP JUMPDEST PUSH2 0x2339 PUSH1 0x3 DUP3 ADD PUSH2 0x2333 PUSH2 0x232E DUP3 PUSH2 0xAAA JUMP JUMPDEST PUSH2 0x165E JUMP JUMPDEST SWAP1 PUSH2 0x1DDE JUMP JUMPDEST PUSH2 0x23AC CALLER PUSH2 0x236C PUSH0 PUSH2 0x2363 DUP10 SWAP2 PUSH2 0x235A PUSH2 0x2351 PUSH2 0x1DFE JUMP JUMPDEST SWAP6 PUSH0 DUP8 ADD PUSH2 0x158D JUMP JUMPDEST PUSH1 0x20 DUP6 ADD PUSH2 0x15C8 JUMP JUMPDEST PUSH1 0x40 DUP4 ADD PUSH2 0x13A1 JUMP JUMPDEST SWAP2 PUSH2 0x23A6 PUSH1 0x4 SWAP2 DUP7 SWAP1 PUSH2 0x23A0 PUSH2 0x2390 PUSH1 0x3 PUSH2 0x2389 PUSH1 0x5 DUP6 ADD PUSH2 0xAAA JUMP JUMPDEST SWAP4 ADD PUSH2 0xAAA JUMP JUMPDEST PUSH2 0x239A PUSH1 0x1 PUSH2 0x1642 JUMP JUMPDEST SWAP1 PUSH2 0x1E0B JUMP JUMPDEST SWAP2 PUSH2 0x3211 JUMP JUMPDEST SWAP1 PUSH2 0x154B JUMP JUMPDEST PUSH2 0x2129 JUMP JUMPDEST PUSH1 0x1 SWAP3 PUSH2 0x23E0 PUSH1 0x5 SWAP3 PUSH2 0x23D1 PUSH2 0x23C5 PUSH2 0x192 JUMP JUMPDEST SWAP4 DUP5 SWAP3 PUSH1 0x20 DUP5 ADD PUSH2 0x1BAC JUMP JUMPDEST PUSH1 0x20 DUP3 ADD DUP2 SUB DUP3 MSTORE SUB DUP3 PUSH2 0x4EE JUMP JUMPDEST PUSH2 0x23F2 PUSH2 0x23EC DUP3 PUSH2 0x18E2 JUMP JUMPDEST SWAP2 PUSH2 0x18DC JUMP JUMPDEST KECCAK256 SWAP1 PUSH2 0x1BC7 JUMP JUMPDEST PUSH2 0x214B JUMP JUMPDEST JUMP JUMPDEST PUSH2 0x2421 SWAP2 POP PUSH1 0x20 RETURNDATASIZE DUP2 GT PUSH2 0x2427 JUMPI JUMPDEST PUSH2 0x2419 DUP2 DUP4 PUSH2 0x4EE JUMP JUMPDEST DUP2 ADD SWAP1 PUSH2 0x1CC2 JUMP JUMPDEST PUSH0 PUSH2 0x2315 JUMP JUMPDEST POP RETURNDATASIZE PUSH2 0x240F JUMP JUMPDEST PUSH2 0x1D12 JUMP JUMPDEST SWAP1 POP PUSH2 0x2448 PUSH2 0x2442 PUSH1 0x12 PUSH2 0x1AE0 JUMP JUMPDEST SWAP2 PUSH2 0x1A4 JUMP JUMPDEST GT ISZERO PUSH0 PUSH2 0x2233 JUMP JUMPDEST PUSH2 0x245A PUSH1 0xA0 PUSH2 0x517 JUMP JUMPDEST SWAP1 JUMP JUMPDEST PUSH0 SWAP1 JUMP JUMPDEST PUSH0 SWAP1 JUMP JUMPDEST PUSH2 0x246D PUSH2 0x15D6 JUMP JUMPDEST SWAP1 PUSH1 0x20 DUP1 DUP1 DUP5 PUSH2 0x247B PUSH2 0x245D JUMP JUMPDEST DUP2 MSTORE ADD PUSH2 0x2486 PUSH2 0x2461 JUMP JUMPDEST DUP2 MSTORE ADD PUSH2 0x2491 PUSH2 0x17F3 JUMP JUMPDEST DUP2 MSTORE POP POP JUMP JUMPDEST PUSH2 0x249F PUSH2 0x2465 JUMP JUMPDEST SWAP1 JUMP JUMPDEST PUSH2 0x24AA PUSH2 0x2450 JUMP JUMPDEST SWAP1 PUSH1 0x20 DUP1 DUP1 DUP1 DUP1 DUP7 PUSH2 0x24BA PUSH2 0x2497 JUMP JUMPDEST DUP2 MSTORE ADD PUSH2 0x24C5 PUSH2 0x17EF JUMP JUMPDEST DUP2 MSTORE ADD PUSH2 0x24D0 PUSH2 0x2497 JUMP JUMPDEST DUP2 MSTORE ADD PUSH2 0x24DB PUSH2 0x17EF JUMP JUMPDEST DUP2 MSTORE ADD PUSH2 0x24E6 PUSH2 0x17F8 JUMP JUMPDEST DUP2 MSTORE POP POP JUMP JUMPDEST PUSH2 0x24F4 PUSH2 0x24A2 JUMP JUMPDEST SWAP1 JUMP JUMPDEST SWAP1 PUSH2 0x2501 SWAP1 PUSH2 0x153F JUMP JUMPDEST PUSH0 MSTORE PUSH1 0x20 MSTORE PUSH1 0x40 PUSH0 KECCAK256 SWAP1 JUMP JUMPDEST MSTORE JUMP JUMPDEST SWAP1 PUSH2 0x258F PUSH2 0x2586 PUSH1 0x6 PUSH2 0x2521 PUSH2 0x2450 JUMP JUMPDEST SWAP5 PUSH2 0x2538 PUSH2 0x2530 PUSH0 DUP4 ADD PUSH2 0x15E3 JUMP JUMPDEST PUSH0 DUP9 ADD PUSH2 0x250D JUMP JUMPDEST PUSH2 0x2550 PUSH2 0x2547 PUSH1 0x2 DUP4 ADD PUSH2 0xAAA JUMP JUMPDEST PUSH1 0x20 DUP9 ADD PUSH2 0x1393 JUMP JUMPDEST PUSH2 0x2568 PUSH2 0x255F PUSH1 0x3 DUP4 ADD PUSH2 0x15E3 JUMP JUMPDEST PUSH1 0x40 DUP9 ADD PUSH2 0x250D JUMP JUMPDEST PUSH2 0x2580 PUSH2 0x2577 PUSH1 0x5 DUP4 ADD PUSH2 0xAAA JUMP JUMPDEST PUSH1 0x60 DUP9 ADD PUSH2 0x1393 JUMP JUMPDEST ADD PUSH2 0xBD3 JUMP JUMPDEST PUSH1 0x80 DUP5 ADD PUSH2 0x13A4 JUMP JUMPDEST JUMP JUMPDEST PUSH2 0x259A SWAP1 PUSH2 0x2510 JUMP JUMPDEST SWAP1 JUMP JUMPDEST PUSH2 0x25BC PUSH2 0x25C2 SWAP3 PUSH2 0x25C7 SWAP5 PUSH2 0x25B0 PUSH2 0x24EC JUMP JUMPDEST POP PUSH1 0x3 SWAP4 SWAP2 SWAP1 SWAP2 PUSH2 0x18E6 JUMP JUMPDEST SWAP1 PUSH2 0x24F7 JUMP JUMPDEST PUSH2 0x2591 JUMP JUMPDEST SWAP1 JUMP JUMPDEST SWAP1 PUSH2 0x25DF SWAP5 SWAP4 SWAP3 SWAP2 PUSH2 0x25DA PUSH2 0x3F8F JUMP JUMPDEST PUSH2 0x26EA JUMP JUMPDEST JUMP JUMPDEST PUSH2 0x25EB PUSH1 0xA0 PUSH2 0x517 JUMP JUMPDEST SWAP1 JUMP JUMPDEST MLOAD SWAP1 JUMP JUMPDEST PUSH2 0x25FC SWAP1 MLOAD PUSH2 0x335 JUMP JUMPDEST SWAP1 JUMP JUMPDEST PUSH2 0x2608 SWAP1 PUSH2 0x335 JUMP JUMPDEST SWAP1 JUMP JUMPDEST SWAP1 JUMP JUMPDEST SWAP1 PUSH2 0x2623 PUSH2 0x261E PUSH2 0x262A SWAP3 PUSH2 0x25FF JUMP JUMPDEST PUSH2 0x260B JUMP JUMPDEST DUP3 SLOAD PUSH2 0x2135 JUMP JUMPDEST SWAP1 SSTORE JUMP JUMPDEST SWAP1 PUSH2 0x26A4 PUSH1 0x80 PUSH1 0x6 PUSH2 0x26AA SWAP5 PUSH2 0x2651 PUSH0 DUP3 ADD PUSH2 0x264B PUSH0 DUP9 ADD PUSH2 0x25EE JUMP JUMPDEST SWAP1 PUSH2 0x2129 JUMP JUMPDEST PUSH2 0x266A PUSH1 0x2 DUP3 ADD PUSH2 0x2664 PUSH1 0x20 DUP9 ADD PUSH2 0x1510 JUMP JUMPDEST SWAP1 PUSH2 0x1DDE JUMP JUMPDEST PUSH2 0x2683 PUSH1 0x3 DUP3 ADD PUSH2 0x267D PUSH1 0x40 DUP9 ADD PUSH2 0x25EE JUMP JUMPDEST SWAP1 PUSH2 0x2129 JUMP JUMPDEST PUSH2 0x269C PUSH1 0x5 DUP3 ADD PUSH2 0x2696 PUSH1 0x60 DUP9 ADD PUSH2 0x1510 JUMP JUMPDEST SWAP1 PUSH2 0x1DDE JUMP JUMPDEST ADD SWAP3 ADD PUSH2 0x25F2 JUMP JUMPDEST SWAP1 PUSH2 0x260E JUMP JUMPDEST JUMP JUMPDEST SWAP1 PUSH2 0x26B6 SWAP2 PUSH2 0x262E JUMP JUMPDEST JUMP JUMPDEST PUSH1 0x40 SWAP1 PUSH2 0x26E1 PUSH2 0x26E8 SWAP5 SWAP7 SWAP6 SWAP4 SWAP7 PUSH2 0x26D7 PUSH1 0x60 DUP5 ADD SWAP9 PUSH0 DUP6 ADD SWAP1 PUSH2 0xC6A JUMP JUMPDEST PUSH1 0x20 DUP4 ADD SWAP1 PUSH2 0xC6A JUMP JUMPDEST ADD SWAP1 PUSH2 0xC6A JUMP JUMPDEST JUMP JUMPDEST SWAP2 SWAP3 SWAP4 PUSH2 0x274D PUSH2 0x2769 SWAP3 SWAP6 SWAP2 PUSH2 0x2744 PUSH2 0x273B PUSH0 SWAP3 PUSH2 0x2736 PUSH0 SWAP2 PUSH2 0x272D PUSH2 0x2724 PUSH0 SWAP8 PUSH2 0x271F PUSH2 0x2716 PUSH2 0x25E1 JUMP JUMPDEST SWAP12 PUSH0 DUP14 ADD PUSH2 0x250D JUMP JUMPDEST PUSH2 0x1498 JUMP JUMPDEST PUSH1 0x20 DUP11 ADD PUSH2 0x1393 JUMP JUMPDEST PUSH1 0x40 DUP9 ADD PUSH2 0x250D JUMP JUMPDEST PUSH2 0x1498 JUMP JUMPDEST PUSH1 0x60 DUP6 ADD PUSH2 0x1393 JUMP JUMPDEST PUSH1 0x80 DUP4 ADD PUSH2 0x13A4 JUMP JUMPDEST PUSH2 0x2764 PUSH1 0x3 PUSH2 0x275E DUP6 DUP9 DUP9 SWAP2 PUSH2 0x18E6 JUMP JUMPDEST SWAP1 PUSH2 0x24F7 JUMP JUMPDEST PUSH2 0x26AC JUMP JUMPDEST SWAP2 SWAP1 SWAP2 PUSH2 0x27A2 PUSH32 0x5F6F5A0DE1D83B1D2AB2AF48B8E7FFABA041D7D1B99FD698FBF60083DEF9216C SWAP4 PUSH2 0x2799 PUSH2 0x192 JUMP JUMPDEST SWAP4 DUP5 SWAP4 DUP5 PUSH2 0x26B8 JUMP JUMPDEST SUB SWAP1 LOG1 JUMP JUMPDEST SWAP1 PUSH2 0x27B4 SWAP5 SWAP4 SWAP3 SWAP2 PUSH2 0x25CA JUMP JUMPDEST JUMP JUMPDEST SWAP1 PUSH2 0x27C9 SWAP3 SWAP2 PUSH2 0x27C4 PUSH2 0x3F8F JUMP JUMPDEST PUSH2 0x2801 JUMP JUMPDEST JUMP JUMPDEST PUSH4 0x4E487B71 PUSH1 0xE0 SHL PUSH0 MSTORE PUSH1 0x12 PUSH1 0x4 MSTORE PUSH1 0x24 PUSH0 REVERT JUMPDEST PUSH2 0x27EB PUSH2 0x27F1 SWAP2 PUSH2 0x1A4 JUMP JUMPDEST SWAP2 PUSH2 0x1A4 JUMP JUMPDEST SWAP1 DUP2 ISZERO PUSH2 0x27FC JUMPI DIV SWAP1 JUMP JUMPDEST PUSH2 0x27CB JUMP JUMPDEST SWAP2 PUSH2 0x284C SWAP3 PUSH2 0x2844 PUSH2 0x281E PUSH2 0x2818 PUSH1 0x2 DUP5 SWAP1 PUSH2 0xA66 JUMP JUMPDEST POP PUSH2 0x1932 JUMP JUMPDEST PUSH2 0x283E PUSH1 0x5 PUSH2 0x282D PUSH1 0x2 PUSH2 0x14B7 JUMP JUMPDEST SWAP3 ADD SWAP2 PUSH2 0x2839 DUP4 PUSH2 0xAAA JUMP JUMPDEST PUSH2 0x27DF JUMP JUMPDEST SWAP1 PUSH2 0x1DDE JUMP JUMPDEST SWAP2 SWAP1 SWAP2 PUSH2 0x17E2 JUMP JUMPDEST JUMP JUMPDEST SWAP1 PUSH2 0x2859 SWAP3 SWAP2 PUSH2 0x27B6 JUMP JUMPDEST JUMP JUMPDEST PUSH2 0x2863 PUSH2 0x2465 JUMP JUMPDEST SWAP1 JUMP JUMPDEST PUSH2 0x2885 PUSH2 0x288B SWAP3 PUSH2 0x2890 SWAP5 PUSH2 0x2879 PUSH2 0x285B JUMP JUMPDEST POP PUSH1 0x4 SWAP4 SWAP2 SWAP1 SWAP2 PUSH2 0x3211 JUMP JUMPDEST SWAP1 PUSH2 0x154B JUMP JUMPDEST PUSH2 0x1633 JUMP JUMPDEST SWAP1 JUMP JUMPDEST PUSH2 0x28AA PUSH2 0x28AF SWAP2 PUSH2 0x28A2 PUSH2 0x24EC JUMP JUMPDEST POP PUSH1 0x3 PUSH2 0x24F7 JUMP JUMPDEST PUSH2 0x2591 JUMP JUMPDEST SWAP1 JUMP JUMPDEST PUSH2 0x28BA PUSH2 0x3F8F JUMP JUMPDEST PUSH2 0x28C2 PUSH2 0x28EC JUMP JUMPDEST JUMP JUMPDEST PUSH2 0x28D8 PUSH2 0x28D3 PUSH2 0x28DD SWAP3 PUSH2 0x1495 JUMP JUMPDEST PUSH2 0x11FA JUMP JUMPDEST PUSH2 0x62C JUMP JUMPDEST SWAP1 JUMP JUMPDEST PUSH2 0x28E9 SWAP1 PUSH2 0x28C4 JUMP JUMPDEST SWAP1 JUMP JUMPDEST PUSH2 0x28FD PUSH2 0x28F8 PUSH0 PUSH2 0x28E0 JUMP JUMPDEST PUSH2 0x3FDD JUMP JUMPDEST JUMP JUMPDEST PUSH2 0x2907 PUSH2 0x28B2 JUMP JUMPDEST JUMP JUMPDEST PUSH0 PUSH32 0x506C6179657220696E646578206F7574206F662072616E676500000000000000 SWAP2 ADD MSTORE JUMP JUMPDEST PUSH2 0x293D PUSH1 0x19 PUSH1 0x20 SWAP3 PUSH2 0xC77 JUMP JUMPDEST PUSH2 0x2946 DUP2 PUSH2 0x2909 JUMP JUMPDEST ADD SWAP1 JUMP JUMPDEST PUSH2 0x295F SWAP1 PUSH1 0x20 DUP2 ADD SWAP1 PUSH0 DUP2 DUP4 SUB SWAP2 ADD MSTORE PUSH2 0x2930 JUMP JUMPDEST SWAP1 JUMP JUMPDEST ISZERO PUSH2 0x2969 JUMPI JUMP JUMPDEST PUSH2 0x2971 PUSH2 0x192 JUMP JUMPDEST PUSH3 0x461BCD PUSH1 0xE5 SHL DUP2 MSTORE DUP1 PUSH2 0x2987 PUSH1 0x4 DUP3 ADD PUSH2 0x294A JUMP JUMPDEST SUB SWAP1 REVERT JUMPDEST PUSH0 PUSH32 0x546F75726E616D6E6574206964206F7574206F662072616E6765000000000000 SWAP2 ADD MSTORE JUMP JUMPDEST PUSH2 0x29BF PUSH1 0x1A PUSH1 0x20 SWAP3 PUSH2 0xC77 JUMP JUMPDEST PUSH2 0x29C8 DUP2 PUSH2 0x298B JUMP JUMPDEST ADD SWAP1 JUMP JUMPDEST PUSH2 0x29E1 SWAP1 PUSH1 0x20 DUP2 ADD SWAP1 PUSH0 DUP2 DUP4 SUB SWAP2 ADD MSTORE PUSH2 0x29B2 JUMP JUMPDEST SWAP1 JUMP JUMPDEST ISZERO PUSH2 0x29EB JUMPI JUMP JUMPDEST PUSH2 0x29F3 PUSH2 0x192 JUMP JUMPDEST PUSH3 0x461BCD PUSH1 0xE5 SHL DUP2 MSTORE DUP1 PUSH2 0x2A09 PUSH1 0x4 DUP3 ADD PUSH2 0x29CC JUMP JUMPDEST SUB SWAP1 REVERT JUMPDEST PUSH0 PUSH32 0x546F75726E616D656E742069736E27742066696E697368656400000000000000 SWAP2 ADD MSTORE JUMP JUMPDEST PUSH2 0x2A41 PUSH1 0x19 PUSH1 0x20 SWAP3 PUSH2 0xC77 JUMP JUMPDEST PUSH2 0x2A4A DUP2 PUSH2 0x2A0D JUMP JUMPDEST ADD SWAP1 JUMP JUMPDEST PUSH2 0x2A63 SWAP1 PUSH1 0x20 DUP2 ADD SWAP1 PUSH0 DUP2 DUP4 SUB SWAP2 ADD MSTORE PUSH2 0x2A34 JUMP JUMPDEST SWAP1 JUMP JUMPDEST ISZERO PUSH2 0x2A6D JUMPI JUMP JUMPDEST PUSH2 0x2A75 PUSH2 0x192 JUMP JUMPDEST PUSH3 0x461BCD PUSH1 0xE5 SHL DUP2 MSTORE DUP1 PUSH2 0x2A8B PUSH1 0x4 DUP3 ADD PUSH2 0x2A4E JUMP JUMPDEST SUB SWAP1 REVERT JUMPDEST SWAP1 JUMP JUMPDEST PUSH0 PUSH32 0x4C617374206D617463682069736E27742066696E697368656400000000000000 SWAP2 ADD MSTORE JUMP JUMPDEST PUSH2 0x2AC6 PUSH1 0x19 PUSH1 0x20 SWAP3 PUSH2 0xC77 JUMP JUMPDEST PUSH2 0x2ACF DUP2 PUSH2 0x2A92 JUMP JUMPDEST ADD SWAP1 JUMP JUMPDEST PUSH2 0x2AE8 SWAP1 PUSH1 0x20 DUP2 ADD SWAP1 PUSH0 DUP2 DUP4 SUB SWAP2 ADD MSTORE PUSH2 0x2AB9 JUMP JUMPDEST SWAP1 JUMP JUMPDEST ISZERO PUSH2 0x2AF2 JUMPI JUMP JUMPDEST PUSH2 0x2AFA PUSH2 0x192 JUMP JUMPDEST PUSH3 0x461BCD PUSH1 0xE5 SHL DUP2 MSTORE DUP1 PUSH2 0x2B10 PUSH1 0x4 DUP3 ADD PUSH2 0x2AD3 JUMP JUMPDEST SUB SWAP1 REVERT JUMPDEST PUSH0 PUSH32 0x4B65657020647265616D696E67206F662077696E6E696E670000000000000000 SWAP2 ADD MSTORE JUMP JUMPDEST PUSH2 0x2B48 PUSH1 0x18 PUSH1 0x20 SWAP3 PUSH2 0xC77 JUMP JUMPDEST PUSH2 0x2B51 DUP2 PUSH2 0x2B14 JUMP JUMPDEST ADD SWAP1 JUMP JUMPDEST PUSH2 0x2B6A SWAP1 PUSH1 0x20 DUP2 ADD SWAP1 PUSH0 DUP2 DUP4 SUB SWAP2 ADD MSTORE PUSH2 0x2B3B JUMP JUMPDEST SWAP1 JUMP JUMPDEST ISZERO PUSH2 0x2B74 JUMPI JUMP JUMPDEST PUSH2 0x2B7C PUSH2 0x192 JUMP JUMPDEST PUSH3 0x461BCD PUSH1 0xE5 SHL DUP2 MSTORE DUP1 PUSH2 0x2B92 PUSH1 0x4 DUP3 ADD PUSH2 0x2B55 JUMP JUMPDEST SUB SWAP1 REVERT JUMPDEST PUSH0 PUSH32 0x5072697A6520616C726561647920636C61696D65640000000000000000000000 SWAP2 ADD MSTORE JUMP JUMPDEST PUSH2 0x2BCA PUSH1 0x15 PUSH1 0x20 SWAP3 PUSH2 0xC77 JUMP JUMPDEST PUSH2 0x2BD3 DUP2 PUSH2 0x2B96 JUMP JUMPDEST ADD SWAP1 JUMP JUMPDEST PUSH2 0x2BEC SWAP1 PUSH1 0x20 DUP2 ADD SWAP1 PUSH0 DUP2 DUP4 SUB SWAP2 ADD MSTORE PUSH2 0x2BBD JUMP JUMPDEST SWAP1 JUMP JUMPDEST ISZERO PUSH2 0x2BF6 JUMPI JUMP JUMPDEST PUSH2 0x2BFE PUSH2 0x192 JUMP JUMPDEST PUSH3 0x461BCD PUSH1 0xE5 SHL DUP2 MSTORE DUP1 PUSH2 0x2C14 PUSH1 0x4 DUP3 ADD PUSH2 0x2BD7 JUMP JUMPDEST SUB SWAP1 REVERT JUMPDEST PUSH2 0x2C27 PUSH2 0x2C2D SWAP2 SWAP4 SWAP3 SWAP4 PUSH2 0x1A4 JUMP JUMPDEST SWAP3 PUSH2 0x1A4 JUMP JUMPDEST SWAP2 PUSH2 0x2C39 DUP4 DUP3 MUL PUSH2 0x1A4 JUMP JUMPDEST SWAP3 DUP2 DUP5 DIV EQ SWAP1 ISZERO OR ISZERO PUSH2 0x2C48 JUMPI JUMP JUMPDEST PUSH2 0x14D3 JUMP JUMPDEST SWAP2 PUSH1 0x20 PUSH2 0x2C6E SWAP3 SWAP5 SWAP4 PUSH2 0x2C67 PUSH1 0x40 DUP3 ADD SWAP7 PUSH0 DUP4 ADD SWAP1 PUSH2 0xE68 JUMP JUMPDEST ADD SWAP1 PUSH2 0xC6A JUMP JUMPDEST JUMP JUMPDEST SWAP1 PUSH2 0x2C97 SWAP1 DUP1 PUSH2 0x2C88 PUSH2 0x2C82 PUSH0 PUSH2 0x1498 JUMP JUMPDEST SWAP2 PUSH2 0x1A4 JUMP JUMPDEST EQ SWAP1 DUP2 ISZERO PUSH2 0x2F08 JUMPI JUMPDEST POP PUSH2 0x2962 JUMP JUMPDEST DUP1 PUSH2 0x2CAA PUSH2 0x2CA4 PUSH0 PUSH2 0x1498 JUMP JUMPDEST SWAP2 PUSH2 0x1A4 JUMP JUMPDEST LT ISZERO DUP1 PUSH2 0x2EE0 JUMPI JUMPDEST PUSH2 0x2CBB SWAP1 PUSH2 0x29E4 JUMP JUMPDEST PUSH2 0x2D2B PUSH2 0x2D26 PUSH2 0x2CD6 PUSH2 0x2CD0 PUSH1 0x2 DUP6 SWAP1 PUSH2 0xA66 JUMP JUMPDEST POP PUSH2 0x1489 JUMP JUMPDEST SWAP3 PUSH2 0x2CFF PUSH2 0x2CE6 PUSH1 0xE0 DUP7 ADD PUSH2 0x25F2 JUMP JUMPDEST PUSH2 0x2CF9 PUSH2 0x2CF3 PUSH1 0x2 PUSH2 0x335 JUMP JUMPDEST SWAP2 PUSH2 0x335 JUMP JUMPDEST EQ PUSH2 0x2A66 JUMP JUMPDEST PUSH2 0x2D20 PUSH1 0x3 SWAP2 PUSH1 0x1 PUSH2 0x2D1A PUSH2 0x2D14 PUSH0 SWAP3 PUSH2 0x1642 JUMP JUMPDEST SWAP2 PUSH2 0x1498 JUMP JUMPDEST SWAP2 PUSH2 0x18E6 JUMP JUMPDEST SWAP1 PUSH2 0x24F7 JUMP JUMPDEST PUSH2 0x2A8F JUMP JUMPDEST PUSH2 0x2D53 PUSH2 0x2D3A PUSH1 0x6 DUP4 ADD PUSH2 0xBD3 JUMP JUMPDEST PUSH2 0x2D4D PUSH2 0x2D47 PUSH1 0x2 PUSH2 0x335 JUMP JUMPDEST SWAP2 PUSH2 0x335 JUMP JUMPDEST EQ PUSH2 0x2AEB JUMP JUMPDEST PUSH2 0x2D5F PUSH1 0x2 DUP3 ADD PUSH2 0xAAA JUMP JUMPDEST PUSH2 0x2D7C PUSH2 0x2D76 PUSH2 0x2D71 PUSH1 0x5 DUP6 ADD PUSH2 0xAAA JUMP JUMPDEST PUSH2 0x1A4 JUMP JUMPDEST SWAP2 PUSH2 0x1A4 JUMP JUMPDEST GT PUSH0 EQ PUSH2 0x2E82 JUMPI DUP1 PUSH2 0x2DAF PUSH2 0x2D97 PUSH0 DUP1 PUSH2 0x2DD9 SWAP6 ADD ADD PUSH2 0x1580 JUMP JUMPDEST PUSH2 0x2DA9 PUSH2 0x2DA3 CALLER PUSH2 0x637 JUMP JUMPDEST SWAP2 PUSH2 0x637 JUMP JUMPDEST EQ PUSH2 0x2B6D JUMP JUMPDEST PUSH2 0x2DCD PUSH2 0x2DC8 PUSH2 0x2DC2 PUSH0 DUP1 DUP6 ADD ADD PUSH2 0x15BB JUMP JUMPDEST ISZERO PUSH2 0x650 JUMP JUMPDEST PUSH2 0x2BEF JUMP JUMPDEST PUSH0 DUP1 PUSH1 0x1 SWAP3 ADD ADD PUSH2 0x1ED5 JUMP JUMPDEST JUMPDEST PUSH1 0x20 PUSH2 0x2DEE PUSH2 0x2DE9 PUSH1 0x1 PUSH2 0x1C94 JUMP JUMPDEST PUSH2 0x1225 JUMP JUMPDEST SWAP2 PUSH4 0xA9059CBB SWAP3 PUSH2 0x2E34 PUSH0 PUSH2 0x2E1C CALLER SWAP5 PUSH2 0x2E16 PUSH1 0x80 PUSH2 0x2E0F PUSH1 0x40 DUP5 ADD PUSH2 0x1510 JUMP JUMPDEST SWAP3 ADD PUSH2 0x1510 JUMP JUMPDEST SWAP1 PUSH2 0x2C18 JUMP JUMPDEST SWAP6 PUSH2 0x2E3F PUSH2 0x2E28 PUSH2 0x192 JUMP JUMPDEST SWAP8 DUP9 SWAP7 DUP8 SWAP6 DUP7 SWAP5 PUSH2 0x1CAD JUMP JUMPDEST DUP5 MSTORE PUSH1 0x4 DUP5 ADD PUSH2 0x2C4D JUMP JUMPDEST SUB SWAP3 GAS CALL DUP1 ISZERO PUSH2 0x2E7D JUMPI PUSH2 0x2E51 JUMPI JUMPDEST POP JUMP JUMPDEST PUSH2 0x2E71 SWAP1 PUSH1 0x20 RETURNDATASIZE DUP2 GT PUSH2 0x2E76 JUMPI JUMPDEST PUSH2 0x2E69 DUP2 DUP4 PUSH2 0x4EE JUMP JUMPDEST DUP2 ADD SWAP1 PUSH2 0x1CC2 JUMP JUMPDEST PUSH2 0x2E4E JUMP JUMPDEST POP RETURNDATASIZE PUSH2 0x2E5F JUMP JUMPDEST PUSH2 0x1D12 JUMP JUMPDEST DUP1 PUSH2 0x2EAF PUSH2 0x2E97 PUSH0 PUSH1 0x3 PUSH2 0x2EDB SWAP6 ADD ADD PUSH2 0x1580 JUMP JUMPDEST PUSH2 0x2EA9 PUSH2 0x2EA3 CALLER PUSH2 0x637 JUMP JUMPDEST SWAP2 PUSH2 0x637 JUMP JUMPDEST EQ PUSH2 0x2B6D JUMP JUMPDEST PUSH2 0x2ECE PUSH2 0x2EC9 PUSH2 0x2EC3 PUSH0 PUSH1 0x3 DUP6 ADD ADD PUSH2 0x15BB JUMP JUMPDEST ISZERO PUSH2 0x650 JUMP JUMPDEST PUSH2 0x2BEF JUMP JUMPDEST PUSH0 PUSH1 0x3 PUSH1 0x1 SWAP3 ADD ADD PUSH2 0x1ED5 JUMP JUMPDEST PUSH2 0x2DDA JUMP JUMPDEST POP PUSH2 0x2CBB DUP2 PUSH2 0x2F00 PUSH2 0x2EFA PUSH2 0x2EF5 PUSH1 0x2 PUSH2 0xA59 JUMP JUMPDEST PUSH2 0x1A4 JUMP JUMPDEST SWAP2 PUSH2 0x1A4 JUMP JUMPDEST LT SWAP1 POP PUSH2 0x2CB2 JUMP JUMPDEST SWAP1 POP PUSH2 0x2F1D PUSH2 0x2F17 PUSH1 0x1 PUSH2 0x1642 JUMP JUMPDEST SWAP2 PUSH2 0x1A4 JUMP JUMPDEST EQ PUSH0 PUSH2 0x2C91 JUMP JUMPDEST SWAP1 PUSH2 0x2F39 SWAP5 SWAP4 SWAP3 SWAP2 PUSH2 0x2F34 PUSH2 0x3F8F JUMP JUMPDEST PUSH2 0x2F3B JUMP JUMPDEST JUMP JUMPDEST SWAP2 SWAP3 SWAP1 SWAP4 PUSH2 0x2FA2 PUSH2 0x2F9C PUSH2 0x2F64 PUSH2 0x2F5F PUSH1 0x3 PUSH2 0x2F59 DUP9 DUP12 DUP12 SWAP2 PUSH2 0x18E6 JUMP JUMPDEST SWAP1 PUSH2 0x24F7 JUMP JUMPDEST PUSH2 0x2A8F JUMP JUMPDEST SWAP4 PUSH2 0x2F72 DUP2 PUSH1 0x2 DUP8 ADD PUSH2 0x1DDE JUMP JUMPDEST PUSH2 0x2F7F DUP5 PUSH1 0x5 DUP8 ADD PUSH2 0x1DDE JUMP JUMPDEST PUSH2 0x2F8D PUSH1 0x2 PUSH1 0x6 DUP8 ADD PUSH2 0x260E JUMP JUMPDEST PUSH2 0x2F95 PUSH2 0x285B JUMP JUMPDEST POP SWAP3 PUSH2 0x1A4 JUMP JUMPDEST SWAP2 PUSH2 0x1A4 JUMP JUMPDEST GT PUSH0 EQ PUSH2 0x3047 JUMPI PUSH0 PUSH2 0x2FB4 SWAP2 ADD PUSH2 0x1633 JUMP JUMPDEST JUMPDEST DUP4 PUSH2 0x2FC9 PUSH2 0x2FC3 PUSH1 0x1 PUSH2 0x1642 JUMP JUMPDEST SWAP2 PUSH2 0x1A4 JUMP JUMPDEST SUB PUSH2 0x300E JUMPI JUMPDEST POP SWAP2 SWAP1 SWAP2 PUSH2 0x3009 PUSH32 0x8E36A42896AC2A1D0C0B5CA5AFF8B1F91AB25DE19C492D83A3DAC09BA9764371 SWAP4 PUSH2 0x3000 PUSH2 0x192 JUMP JUMPDEST SWAP4 DUP5 SWAP4 DUP5 PUSH2 0x26B8 JUMP JUMPDEST SUB SWAP1 LOG1 JUMP JUMPDEST PUSH2 0x3041 SWAP1 PUSH2 0x303C PUSH1 0x4 PUSH2 0x3036 DUP6 PUSH2 0x302F DUP10 PUSH2 0x3029 PUSH1 0x2 PUSH2 0x14B7 JUMP JUMPDEST SWAP1 PUSH2 0x27DF JUMP JUMPDEST DUP9 SWAP2 PUSH2 0x3211 JUMP JUMPDEST SWAP1 PUSH2 0x154B JUMP JUMPDEST PUSH2 0x2129 JUMP JUMPDEST PUSH0 PUSH2 0x2FCF JUMP JUMPDEST PUSH1 0x3 PUSH2 0x3053 SWAP2 ADD PUSH2 0x1633 JUMP JUMPDEST PUSH2 0x2FB5 JUMP JUMPDEST SWAP1 PUSH2 0x3065 SWAP5 SWAP4 SWAP3 SWAP2 PUSH2 0x2F24 JUMP JUMPDEST JUMP JUMPDEST PUSH0 SWAP1 JUMP JUMPDEST PUSH2 0x3073 PUSH2 0x3067 JUMP JUMPDEST POP PUSH2 0x307D PUSH0 PUSH2 0x1580 JUMP JUMPDEST SWAP1 JUMP JUMPDEST SWAP1 PUSH2 0x3093 SWAP3 SWAP2 PUSH2 0x308E PUSH2 0x3F8F JUMP JUMPDEST PUSH2 0x3095 JUMP JUMPDEST JUMP JUMPDEST SWAP2 SWAP1 PUSH2 0x30C7 SWAP2 PUSH2 0x30BE PUSH2 0x30B3 PUSH2 0x30AD PUSH1 0x2 DUP8 SWAP1 PUSH2 0xA66 JUMP JUMPDEST POP PUSH2 0x1932 JUMP JUMPDEST PUSH1 0x7 PUSH1 0x1 SWAP2 ADD PUSH2 0x260E JUMP JUMPDEST DUP4 SWAP2 SWAP1 SWAP2 PUSH2 0x17E2 JUMP JUMPDEST PUSH2 0x30FD PUSH32 0x472DDE00D4A421D9E9FC7BEF66DBF7671C60E18DFA993294579A036528BC0820 SWAP2 PUSH2 0x30F4 PUSH2 0x192 JUMP JUMPDEST SWAP2 DUP3 SWAP2 DUP3 PUSH2 0xF71 JUMP JUMPDEST SUB SWAP1 LOG1 JUMP JUMPDEST SWAP1 PUSH2 0x310D SWAP3 SWAP2 PUSH2 0x3080 JUMP JUMPDEST JUMP JUMPDEST SWAP1 PUSH2 0x3121 SWAP2 PUSH2 0x311C PUSH2 0x3F8F JUMP JUMPDEST PUSH2 0x3123 JUMP JUMPDEST JUMP JUMPDEST PUSH2 0x3144 SWAP1 PUSH1 0x7 PUSH2 0x313E PUSH2 0x3138 PUSH1 0x2 DUP7 SWAP1 PUSH2 0xA66 JUMP JUMPDEST POP PUSH2 0x1932 JUMP JUMPDEST ADD PUSH2 0x260E JUMP JUMPDEST PUSH2 0x317A PUSH32 0x472DDE00D4A421D9E9FC7BEF66DBF7671C60E18DFA993294579A036528BC0820 SWAP2 PUSH2 0x3171 PUSH2 0x192 JUMP JUMPDEST SWAP2 DUP3 SWAP2 DUP3 PUSH2 0xF71 JUMP JUMPDEST SUB SWAP1 LOG1 JUMP JUMPDEST SWAP1 PUSH2 0x3189 SWAP2 PUSH2 0x310F JUMP JUMPDEST JUMP JUMPDEST PUSH2 0x3193 PUSH2 0x1F4E JUMP JUMPDEST POP PUSH2 0x319E PUSH1 0x2 PUSH2 0xA59 JUMP JUMPDEST SWAP1 JUMP JUMPDEST PUSH2 0x31B2 SWAP1 PUSH2 0x31AD PUSH2 0x3F8F JUMP JUMPDEST PUSH2 0x31B4 JUMP JUMPDEST JUMP JUMPDEST DUP1 PUSH2 0x31CF PUSH2 0x31C9 PUSH2 0x31C4 PUSH0 PUSH2 0x28E0 JUMP JUMPDEST PUSH2 0x637 JUMP JUMPDEST SWAP2 PUSH2 0x637 JUMP JUMPDEST EQ PUSH2 0x31DF JUMPI PUSH2 0x31DD SWAP1 PUSH2 0x3FDD JUMP JUMPDEST JUMP JUMPDEST PUSH2 0x3202 PUSH2 0x31EB PUSH0 PUSH2 0x28E0 JUMP JUMPDEST PUSH0 SWAP2 DUP3 SWAP2 PUSH4 0x1E4FBDF7 PUSH1 0xE0 SHL DUP4 MSTORE PUSH1 0x4 DUP4 ADD PUSH2 0xE75 JUMP JUMPDEST SUB SWAP1 REVERT JUMPDEST PUSH2 0x320F SWAP1 PUSH2 0x31A1 JUMP JUMPDEST JUMP JUMPDEST SWAP1 PUSH2 0x3238 PUSH2 0x3247 SWAP3 PUSH2 0x3221 PUSH2 0x1895 JUMP JUMPDEST POP SWAP2 SWAP4 PUSH2 0x322C PUSH2 0x192 JUMP JUMPDEST SWAP5 DUP6 SWAP4 PUSH1 0x20 DUP6 ADD PUSH2 0x18B1 JUMP JUMPDEST PUSH1 0x20 DUP3 ADD DUP2 SUB DUP3 MSTORE SUB DUP3 PUSH2 0x4EE JUMP JUMPDEST PUSH2 0x3259 PUSH2 0x3253 DUP3 PUSH2 0x18E2 JUMP JUMPDEST SWAP2 PUSH2 0x18DC JUMP JUMPDEST KECCAK256 SWAP1 JUMP JUMPDEST PUSH1 0x60 SWAP1 JUMP JUMPDEST PUSH8 0xFFFFFFFFFFFFFFFF DUP2 GT PUSH2 0x327A JUMPI PUSH1 0x20 DUP1 SWAP2 MUL ADD SWAP1 JUMP JUMPDEST PUSH2 0x4DA JUMP JUMPDEST SWAP1 PUSH2 0x3291 PUSH2 0x328C DUP4 PUSH2 0x3262 JUMP JUMPDEST PUSH2 0x517 JUMP JUMPDEST SWAP2 DUP3 MSTORE JUMP JUMPDEST SWAP1 PUSH2 0x32A0 DUP3 PUSH2 0xA59 JUMP JUMPDEST PUSH2 0x32A9 DUP2 PUSH2 0x327F JUMP JUMPDEST SWAP3 PUSH2 0x32B7 PUSH1 0x20 DUP6 ADD SWAP2 PUSH2 0xA5D JUMP JUMPDEST PUSH0 SWAP2 JUMPDEST DUP4 DUP4 LT PUSH2 0x32C7 JUMPI POP POP POP POP JUMP JUMPDEST PUSH1 0x8 PUSH1 0x20 PUSH1 0x1 SWAP3 PUSH2 0x32D7 DUP6 PUSH2 0x1489 JUMP JUMPDEST DUP2 MSTORE ADD SWAP3 ADD SWAP3 ADD SWAP2 SWAP1 PUSH2 0x32BA JUMP JUMPDEST PUSH2 0x32EE SWAP1 PUSH2 0x3296 JUMP JUMPDEST SWAP1 JUMP JUMPDEST PUSH2 0x32F9 PUSH2 0x325D JUMP JUMPDEST POP PUSH2 0x3304 PUSH1 0x2 PUSH2 0x32E5 JUMP JUMPDEST SWAP1 JUMP JUMPDEST SWAP1 JUMP JUMPDEST PUSH0 PUSH32 0x746F75726E616D656E742069736E277420657870697265640000000000000000 SWAP2 ADD MSTORE JUMP JUMPDEST PUSH2 0x333E PUSH1 0x18 PUSH1 0x20 SWAP3 PUSH2 0xC77 JUMP JUMPDEST PUSH2 0x3347 DUP2 PUSH2 0x330A JUMP JUMPDEST ADD SWAP1 JUMP JUMPDEST PUSH2 0x3360 SWAP1 PUSH1 0x20 DUP2 ADD SWAP1 PUSH0 DUP2 DUP4 SUB SWAP2 ADD MSTORE PUSH2 0x3331 JUMP JUMPDEST SWAP1 JUMP JUMPDEST ISZERO PUSH2 0x336A JUMPI JUMP JUMPDEST PUSH2 0x3372 PUSH2 0x192 JUMP JUMPDEST PUSH3 0x461BCD PUSH1 0xE5 SHL DUP2 MSTORE DUP1 PUSH2 0x3388 PUSH1 0x4 DUP3 ADD PUSH2 0x334B JUMP JUMPDEST SUB SWAP1 REVERT JUMPDEST PUSH1 0x20 PUSH32 0x66756E6473000000000000000000000000000000000000000000000000000000 SWAP2 PUSH32 0x547279696E6720746F207769746864726177206F746865722075736572277320 PUSH0 DUP3 ADD MSTORE ADD MSTORE JUMP JUMPDEST PUSH2 0x33E6 PUSH1 0x25 PUSH1 0x40 SWAP3 PUSH2 0xC77 JUMP JUMPDEST PUSH2 0x33EF DUP2 PUSH2 0x338C JUMP JUMPDEST ADD SWAP1 JUMP JUMPDEST PUSH2 0x3408 SWAP1 PUSH1 0x20 DUP2 ADD SWAP1 PUSH0 DUP2 DUP4 SUB SWAP2 ADD MSTORE PUSH2 0x33D9 JUMP JUMPDEST SWAP1 JUMP JUMPDEST ISZERO PUSH2 0x3412 JUMPI JUMP JUMPDEST PUSH2 0x341A PUSH2 0x192 JUMP JUMPDEST PUSH3 0x461BCD PUSH1 0xE5 SHL DUP2 MSTORE DUP1 PUSH2 0x3430 PUSH1 0x4 DUP3 ADD PUSH2 0x33F3 JUMP JUMPDEST SUB SWAP1 REVERT JUMPDEST PUSH0 PUSH32 0x7573657220616C726561647920636C61696D656420726566756E640000000000 SWAP2 ADD MSTORE JUMP JUMPDEST PUSH2 0x3468 PUSH1 0x1B PUSH1 0x20 SWAP3 PUSH2 0xC77 JUMP JUMPDEST PUSH2 0x3471 DUP2 PUSH2 0x3434 JUMP JUMPDEST ADD SWAP1 JUMP JUMPDEST PUSH2 0x348A SWAP1 PUSH1 0x20 DUP2 ADD SWAP1 PUSH0 DUP2 DUP4 SUB SWAP2 ADD MSTORE PUSH2 0x345B JUMP JUMPDEST SWAP1 JUMP JUMPDEST ISZERO PUSH2 0x3494 JUMPI JUMP JUMPDEST PUSH2 0x349C PUSH2 0x192 JUMP JUMPDEST PUSH3 0x461BCD PUSH1 0xE5 SHL DUP2 MSTORE DUP1 PUSH2 0x34B2 PUSH1 0x4 DUP3 ADD PUSH2 0x3475 JUMP JUMPDEST SUB SWAP1 REVERT JUMPDEST PUSH2 0x34FB PUSH2 0x34F6 PUSH2 0x3576 SWAP3 PUSH2 0x34F0 PUSH2 0x34D8 PUSH2 0x34D2 PUSH1 0x2 DUP5 SWAP1 PUSH2 0xA66 JUMP JUMPDEST POP PUSH2 0x1489 JUMP JUMPDEST SWAP6 PUSH1 0x4 SWAP3 SWAP1 PUSH2 0x34E9 PUSH1 0xA0 DUP10 ADD PUSH2 0x1510 JUMP JUMPDEST SWAP1 SWAP2 PUSH2 0x3211 JUMP JUMPDEST SWAP1 PUSH2 0x154B JUMP JUMPDEST PUSH2 0x3307 JUMP JUMPDEST PUSH2 0x3507 PUSH1 0xE0 DUP5 ADD PUSH2 0x25F2 JUMP JUMPDEST PUSH2 0x351A PUSH2 0x3514 PUSH1 0x3 PUSH2 0x335 JUMP JUMPDEST SWAP2 PUSH2 0x335 JUMP JUMPDEST EQ DUP1 PUSH2 0x3608 JUMPI JUMPDEST PUSH2 0x352A SWAP1 PUSH2 0x3363 JUMP JUMPDEST PUSH2 0x3550 PUSH2 0x3538 PUSH0 DUP4 ADD PUSH2 0x1580 JUMP JUMPDEST PUSH2 0x354A PUSH2 0x3544 CALLER PUSH2 0x637 JUMP JUMPDEST SWAP2 PUSH2 0x637 JUMP JUMPDEST EQ PUSH2 0x340B JUMP JUMPDEST PUSH2 0x356C PUSH2 0x3567 PUSH2 0x3561 PUSH0 DUP5 ADD PUSH2 0x15BB JUMP JUMPDEST ISZERO PUSH2 0x650 JUMP JUMPDEST PUSH2 0x348D JUMP JUMPDEST PUSH0 PUSH1 0x1 SWAP2 ADD PUSH2 0x1ED5 JUMP JUMPDEST PUSH1 0x20 PUSH2 0x358A PUSH2 0x3585 PUSH1 0x1 PUSH2 0x1C94 JUMP JUMPDEST PUSH2 0x1225 JUMP JUMPDEST SWAP2 PUSH4 0xA9059CBB SWAP3 PUSH2 0x35BA PUSH0 PUSH2 0x35A2 PUSH1 0x40 CALLER SWAP6 ADD PUSH2 0x1510 JUMP JUMPDEST SWAP6 PUSH2 0x35C5 PUSH2 0x35AE PUSH2 0x192 JUMP JUMPDEST SWAP8 DUP9 SWAP7 DUP8 SWAP6 DUP7 SWAP5 PUSH2 0x1CAD JUMP JUMPDEST DUP5 MSTORE PUSH1 0x4 DUP5 ADD PUSH2 0x2C4D JUMP JUMPDEST SUB SWAP3 GAS CALL DUP1 ISZERO PUSH2 0x3603 JUMPI PUSH2 0x35D7 JUMPI JUMPDEST POP JUMP JUMPDEST PUSH2 0x35F7 SWAP1 PUSH1 0x20 RETURNDATASIZE DUP2 GT PUSH2 0x35FC JUMPI JUMPDEST PUSH2 0x35EF DUP2 DUP4 PUSH2 0x4EE JUMP JUMPDEST DUP2 ADD SWAP1 PUSH2 0x1CC2 JUMP JUMPDEST PUSH2 0x35D4 JUMP JUMPDEST POP RETURNDATASIZE PUSH2 0x35E5 JUMP JUMPDEST PUSH2 0x1D12 JUMP JUMPDEST POP PUSH2 0x352A PUSH2 0x3618 PUSH1 0xC0 DUP6 ADD PUSH2 0x1510 JUMP JUMPDEST PUSH2 0x362A PUSH2 0x3624 TIMESTAMP PUSH2 0x1A4 JUMP JUMPDEST SWAP2 PUSH2 0x1A4 JUMP JUMPDEST LT SWAP1 POP PUSH2 0x3521 JUMP JUMPDEST SWAP1 POP MLOAD SWAP1 PUSH2 0x363F DUP3 PUSH2 0x1A7 JUMP JUMPDEST JUMP JUMPDEST SWAP1 PUSH1 0x20 DUP3 DUP3 SUB SLT PUSH2 0x365A JUMPI PUSH2 0x3657 SWAP2 PUSH0 ADD PUSH2 0x3632 JUMP JUMPDEST SWAP1 JUMP JUMPDEST PUSH2 0x19C JUMP JUMPDEST PUSH0 PUSH32 0x4E6F7420656E6F756768206361736820737472616E6765720000000000000000 SWAP2 ADD MSTORE JUMP JUMPDEST PUSH2 0x3693 PUSH1 0x18 PUSH1 0x20 SWAP3 PUSH2 0xC77 JUMP JUMPDEST PUSH2 0x369C DUP2 PUSH2 0x365F JUMP JUMPDEST ADD SWAP1 JUMP JUMPDEST PUSH2 0x36B5 SWAP1 PUSH1 0x20 DUP2 ADD SWAP1 PUSH0 DUP2 DUP4 SUB SWAP2 ADD MSTORE PUSH2 0x3686 JUMP JUMPDEST SWAP1 JUMP JUMPDEST ISZERO PUSH2 0x36BF JUMPI JUMP JUMPDEST PUSH2 0x36C7 PUSH2 0x192 JUMP JUMPDEST PUSH3 0x461BCD PUSH1 0xE5 SHL DUP2 MSTORE DUP1 PUSH2 0x36DD PUSH1 0x4 DUP3 ADD PUSH2 0x36A0 JUMP JUMPDEST SUB SWAP1 REVERT JUMPDEST PUSH0 PUSH32 0x546F6B656E207472616E73666572206661696C65640000000000000000000000 SWAP2 ADD MSTORE JUMP JUMPDEST PUSH2 0x3715 PUSH1 0x15 PUSH1 0x20 SWAP3 PUSH2 0xC77 JUMP JUMPDEST PUSH2 0x371E DUP2 PUSH2 0x36E1 JUMP JUMPDEST ADD SWAP1 JUMP JUMPDEST PUSH2 0x3737 SWAP1 PUSH1 0x20 DUP2 ADD SWAP1 PUSH0 DUP2 DUP4 SUB SWAP2 ADD MSTORE PUSH2 0x3708 JUMP JUMPDEST SWAP1 JUMP JUMPDEST ISZERO PUSH2 0x3741 JUMPI JUMP JUMPDEST PUSH2 0x3749 PUSH2 0x192 JUMP JUMPDEST PUSH3 0x461BCD PUSH1 0xE5 SHL DUP2 MSTORE DUP1 PUSH2 0x375F PUSH1 0x4 DUP3 ADD PUSH2 0x3722 JUMP JUMPDEST SUB SWAP1 REVERT JUMPDEST PUSH0 PUSH32 0x5469746C65206C656E67746820696E76616C6964000000000000000000000000 SWAP2 ADD MSTORE JUMP JUMPDEST PUSH2 0x3797 PUSH1 0x14 PUSH1 0x20 SWAP3 PUSH2 0xC77 JUMP JUMPDEST PUSH2 0x37A0 DUP2 PUSH2 0x3763 JUMP JUMPDEST ADD SWAP1 JUMP JUMPDEST PUSH2 0x37B9 SWAP1 PUSH1 0x20 DUP2 ADD SWAP1 PUSH0 DUP2 DUP4 SUB SWAP2 ADD MSTORE PUSH2 0x378A JUMP JUMPDEST SWAP1 JUMP JUMPDEST ISZERO PUSH2 0x37C3 JUMPI JUMP JUMPDEST PUSH2 0x37CB PUSH2 0x192 JUMP JUMPDEST PUSH3 0x461BCD PUSH1 0xE5 SHL DUP2 MSTORE DUP1 PUSH2 0x37E1 PUSH1 0x4 DUP3 ADD PUSH2 0x37A4 JUMP JUMPDEST SUB SWAP1 REVERT JUMPDEST PUSH0 PUSH32 0x456E74727920666565206D757374206265203E20300000000000000000000000 SWAP2 ADD MSTORE JUMP JUMPDEST PUSH2 0x3819 PUSH1 0x15 PUSH1 0x20 SWAP3 PUSH2 0xC77 JUMP JUMPDEST PUSH2 0x3822 DUP2 PUSH2 0x37E5 JUMP JUMPDEST ADD SWAP1 JUMP JUMPDEST PUSH2 0x383B SWAP1 PUSH1 0x20 DUP2 ADD SWAP1 PUSH0 DUP2 DUP4 SUB SWAP2 ADD MSTORE PUSH2 0x380C JUMP JUMPDEST SWAP1 JUMP JUMPDEST ISZERO PUSH2 0x3845 JUMPI JUMP JUMPDEST PUSH2 0x384D PUSH2 0x192 JUMP JUMPDEST PUSH3 0x461BCD PUSH1 0xE5 SHL DUP2 MSTORE DUP1 PUSH2 0x3863 PUSH1 0x4 DUP3 ADD PUSH2 0x3826 JUMP JUMPDEST SUB SWAP1 REVERT JUMPDEST PUSH1 0x20 PUSH32 0x6620320000000000000000000000000000000000000000000000000000000000 SWAP2 PUSH32 0x4D6178207061727469636970616E7473206D75737420626520706F776572206F PUSH0 DUP3 ADD MSTORE ADD MSTORE JUMP JUMPDEST PUSH2 0x38C1 PUSH1 0x23 PUSH1 0x40 SWAP3 PUSH2 0xC77 JUMP JUMPDEST PUSH2 0x38CA DUP2 PUSH2 0x3867 JUMP JUMPDEST ADD SWAP1 JUMP JUMPDEST PUSH2 0x38E3 SWAP1 PUSH1 0x20 DUP2 ADD SWAP1 PUSH0 DUP2 DUP4 SUB SWAP2 ADD MSTORE PUSH2 0x38B4 JUMP JUMPDEST SWAP1 JUMP JUMPDEST ISZERO PUSH2 0x38ED JUMPI JUMP JUMPDEST PUSH2 0x38F5 PUSH2 0x192 JUMP JUMPDEST PUSH3 0x461BCD PUSH1 0xE5 SHL DUP2 MSTORE DUP1 PUSH2 0x390B PUSH1 0x4 DUP3 ADD PUSH2 0x38CE JUMP JUMPDEST SUB SWAP1 REVERT JUMPDEST PUSH0 PUSH32 0x53746172742074696D65206D75737420626520696E2074686520667574757265 SWAP2 ADD MSTORE JUMP JUMPDEST PUSH2 0x3942 PUSH1 0x20 DUP1 SWAP3 PUSH2 0xC77 JUMP JUMPDEST PUSH2 0x394B DUP2 PUSH2 0x390F JUMP JUMPDEST ADD SWAP1 JUMP JUMPDEST PUSH2 0x3964 SWAP1 PUSH1 0x20 DUP2 ADD SWAP1 PUSH0 DUP2 DUP4 SUB SWAP2 ADD MSTORE PUSH2 0x3936 JUMP JUMPDEST SWAP1 JUMP JUMPDEST ISZERO PUSH2 0x396E JUMPI JUMP JUMPDEST PUSH2 0x3976 PUSH2 0x192 JUMP JUMPDEST PUSH3 0x461BCD PUSH1 0xE5 SHL DUP2 MSTORE DUP1 PUSH2 0x398C PUSH1 0x4 DUP3 ADD PUSH2 0x394F JUMP JUMPDEST SUB SWAP1 REVERT JUMPDEST SWAP1 JUMP JUMPDEST PUSH2 0x399E PUSH2 0x100 PUSH2 0x517 JUMP JUMPDEST SWAP1 JUMP JUMPDEST PUSH0 MSTORE PUSH1 0x20 PUSH0 KECCAK256 SWAP1 JUMP JUMPDEST SLOAD SWAP1 JUMP JUMPDEST PUSH2 0x39B7 DUP2 PUSH2 0x39AA JUMP JUMPDEST DUP3 LT ISZERO PUSH2 0x39D1 JUMPI PUSH2 0x39C9 PUSH1 0x8 SWAP2 PUSH2 0x39A1 JUMP JUMPDEST SWAP2 MUL ADD SWAP1 PUSH0 SWAP1 JUMP JUMPDEST PUSH2 0xA45 JUMP JUMPDEST SWAP1 PUSH2 0x3A97 PUSH1 0xE0 PUSH1 0x7 PUSH2 0x3A9D SWAP5 PUSH2 0x39F9 PUSH0 DUP3 ADD PUSH2 0x39F3 PUSH0 DUP9 ADD PUSH2 0x1510 JUMP JUMPDEST SWAP1 PUSH2 0x1DDE JUMP JUMPDEST PUSH2 0x3A12 PUSH1 0x1 DUP3 ADD PUSH2 0x3A0C PUSH1 0x20 DUP9 ADD PUSH2 0x1EF5 JUMP JUMPDEST SWAP1 PUSH2 0x20D2 JUMP JUMPDEST PUSH2 0x3A2B PUSH1 0x2 DUP3 ADD PUSH2 0x3A25 PUSH1 0x40 DUP9 ADD PUSH2 0x1510 JUMP JUMPDEST SWAP1 PUSH2 0x1DDE JUMP JUMPDEST PUSH2 0x3A44 PUSH1 0x3 DUP3 ADD PUSH2 0x3A3E PUSH1 0x60 DUP9 ADD PUSH2 0x1510 JUMP JUMPDEST SWAP1 PUSH2 0x1DDE JUMP JUMPDEST PUSH2 0x3A5D PUSH1 0x4 DUP3 ADD PUSH2 0x3A57 PUSH1 0x80 DUP9 ADD PUSH2 0x1510 JUMP JUMPDEST SWAP1 PUSH2 0x1DDE JUMP JUMPDEST PUSH2 0x3A76 PUSH1 0x5 DUP3 ADD PUSH2 0x3A70 PUSH1 0xA0 DUP9 ADD PUSH2 0x1510 JUMP JUMPDEST SWAP1 PUSH2 0x1DDE JUMP JUMPDEST PUSH2 0x3A8F PUSH1 0x6 DUP3 ADD PUSH2 0x3A89 PUSH1 0xC0 DUP9 ADD PUSH2 0x1510 JUMP JUMPDEST SWAP1 PUSH2 0x1DDE JUMP JUMPDEST ADD SWAP3 ADD PUSH2 0x25F2 JUMP JUMPDEST SWAP1 PUSH2 0x260E JUMP JUMPDEST JUMP JUMPDEST SWAP2 SWAP1 PUSH2 0x3AB0 JUMPI PUSH2 0x3AAE SWAP2 PUSH2 0x39D6 JUMP JUMPDEST JUMP JUMPDEST PUSH2 0x1E30 JUMP JUMPDEST SWAP1 DUP2 SLOAD SWAP2 PUSH9 0x10000000000000000 DUP4 LT ISZERO PUSH2 0x3AE5 JUMPI DUP3 PUSH2 0x3ADD SWAP2 PUSH1 0x1 PUSH2 0x3AE3 SWAP6 ADD DUP2 SSTORE PUSH2 0x39AE JUMP JUMPDEST SWAP1 PUSH2 0x3A9F JUMP JUMPDEST JUMP JUMPDEST PUSH2 0x4DA JUMP JUMPDEST SWAP1 SWAP3 SWAP2 SWAP3 PUSH2 0x3B2F PUSH1 0x20 PUSH2 0x3B05 PUSH2 0x3B00 PUSH1 0x1 PUSH2 0x1C94 JUMP JUMPDEST PUSH2 0x1225 JUMP JUMPDEST PUSH4 0x70A08231 SWAP1 PUSH2 0x3B24 CALLER SWAP3 PUSH2 0x3B18 PUSH2 0x192 JUMP JUMPDEST SWAP6 DUP7 SWAP5 DUP6 SWAP4 DUP5 SWAP4 PUSH2 0x1CAD JUMP JUMPDEST DUP4 MSTORE PUSH1 0x4 DUP4 ADD PUSH2 0xE75 JUMP JUMPDEST SUB SWAP2 GAS STATICCALL DUP1 ISZERO PUSH2 0x3F8A JUMPI PUSH2 0x3B5E SWAP2 PUSH0 SWAP2 PUSH2 0x3F5C JUMPI JUMPDEST POP PUSH2 0x3B57 PUSH2 0x3B51 DUP5 PUSH2 0x1A4 JUMP JUMPDEST SWAP2 PUSH2 0x1A4 JUMP JUMPDEST LT ISZERO PUSH2 0x36B8 JUMP JUMPDEST PUSH2 0x3B70 PUSH2 0x3B6B PUSH1 0x1 PUSH2 0x1C94 JUMP JUMPDEST PUSH2 0x1225 JUMP JUMPDEST PUSH1 0x20 PUSH4 0x23B872DD SWAP2 CALLER SWAP1 PUSH2 0x3BA0 PUSH0 PUSH2 0x3B87 ADDRESS PUSH2 0x1CA1 JUMP JUMPDEST SWAP6 PUSH2 0x3BAB DUP9 PUSH2 0x3B94 PUSH2 0x192 JUMP JUMPDEST SWAP9 DUP10 SWAP8 DUP9 SWAP7 DUP8 SWAP6 PUSH2 0x1CAD JUMP JUMPDEST DUP6 MSTORE PUSH1 0x4 DUP6 ADD PUSH2 0x1CE0 JUMP JUMPDEST SUB SWAP3 GAS CALL DUP1 ISZERO PUSH2 0x3F57 JUMPI PUSH2 0x3BC6 SWAP2 PUSH0 SWAP2 PUSH2 0x3F29 JUMPI JUMPDEST POP PUSH2 0x373A JUMP JUMPDEST PUSH2 0x3BFD PUSH2 0x3BDA PUSH2 0x3BD5 DUP5 PUSH2 0x1ABB JUMP JUMPDEST PUSH2 0x18E2 JUMP JUMPDEST DUP1 PUSH2 0x3BEE PUSH2 0x3BE8 PUSH1 0x3 PUSH2 0x1AC1 JUMP JUMPDEST SWAP2 PUSH2 0x1A4 JUMP JUMPDEST LT ISZERO SWAP1 DUP2 PUSH2 0x3F0C JUMPI JUMPDEST POP PUSH2 0x37BC JUMP JUMPDEST PUSH2 0x3C34 PUSH2 0x3C11 PUSH2 0x3C0C DUP8 PUSH2 0x1ABB JUMP JUMPDEST PUSH2 0x18E2 JUMP JUMPDEST DUP1 PUSH2 0x3C25 PUSH2 0x3C1F PUSH1 0x3 PUSH2 0x1AC1 JUMP JUMPDEST SWAP2 PUSH2 0x1A4 JUMP JUMPDEST LT ISZERO SWAP1 DUP2 PUSH2 0x3EEF JUMPI JUMPDEST POP PUSH2 0x1B55 JUMP JUMPDEST PUSH2 0x3C50 DUP2 PUSH2 0x3C4A PUSH2 0x3C44 PUSH0 PUSH2 0x1498 JUMP JUMPDEST SWAP2 PUSH2 0x1A4 JUMP JUMPDEST GT PUSH2 0x383E JUMP JUMPDEST DUP4 PUSH2 0x3C64 PUSH2 0x3C5E PUSH1 0x1 PUSH2 0x1642 JUMP JUMPDEST SWAP2 PUSH2 0x1A4 JUMP JUMPDEST GT DUP1 PUSH2 0x3EBB JUMPI JUMPDEST PUSH2 0x3C74 SWAP1 PUSH2 0x38E6 JUMP JUMPDEST DUP3 TIMESTAMP PUSH2 0x3C7F SWAP1 PUSH2 0x1A4 JUMP JUMPDEST SWAP1 PUSH2 0x3C89 SWAP1 PUSH2 0x1A4 JUMP JUMPDEST GT PUSH2 0x3C93 SWAP1 PUSH2 0x3967 JUMP JUMPDEST PUSH1 0x2 PUSH2 0x3C9E SWAP1 PUSH2 0x3990 JUMP JUMPDEST SWAP3 PUSH1 0x2 PUSH2 0x3CAA SWAP1 PUSH2 0xA59 JUMP JUMPDEST SWAP3 SWAP2 SWAP1 PUSH1 0x1 DUP7 SWAP1 DUP8 PUSH1 0x2 PUSH2 0x3CBD SWAP1 PUSH2 0x14B7 JUMP JUMPDEST PUSH2 0x3CC6 SWAP2 PUSH2 0x27DF JUMP JUMPDEST SWAP3 SWAP4 PUSH0 SWAP6 PUSH2 0x3CD2 PUSH2 0x3993 JUMP JUMPDEST SWAP8 PUSH0 DUP10 ADD SWAP1 PUSH2 0x3CE0 SWAP2 PUSH2 0x1393 JUMP JUMPDEST PUSH1 0x20 DUP9 ADD SWAP1 PUSH2 0x3CEE SWAP2 PUSH2 0x13A1 JUMP JUMPDEST PUSH1 0x40 DUP8 ADD SWAP1 PUSH2 0x3CFC SWAP2 PUSH2 0x1393 JUMP JUMPDEST PUSH2 0x3D05 SWAP1 PUSH2 0x1642 JUMP JUMPDEST PUSH1 0x60 DUP7 ADD SWAP1 PUSH2 0x3D13 SWAP2 PUSH2 0x1393 JUMP JUMPDEST PUSH1 0x80 DUP6 ADD SWAP1 PUSH2 0x3D21 SWAP2 PUSH2 0x1393 JUMP JUMPDEST PUSH1 0xA0 DUP5 ADD SWAP1 PUSH2 0x3D2F SWAP2 PUSH2 0x1393 JUMP JUMPDEST PUSH1 0xC0 DUP4 ADD SWAP1 PUSH2 0x3D3D SWAP2 PUSH2 0x1393 JUMP JUMPDEST PUSH1 0xE0 DUP3 ADD SWAP1 PUSH2 0x3D4B SWAP2 PUSH2 0x13A4 JUMP JUMPDEST PUSH2 0x3D54 SWAP2 PUSH2 0x3AB5 JUMP JUMPDEST CALLER PUSH0 DUP4 SWAP1 PUSH2 0x3D60 PUSH2 0x1DFE JUMP JUMPDEST SWAP3 PUSH0 DUP5 ADD SWAP1 PUSH2 0x3D6E SWAP2 PUSH2 0x158D JUMP JUMPDEST PUSH1 0x20 DUP4 ADD SWAP1 PUSH2 0x3D7C SWAP2 PUSH2 0x15C8 JUMP JUMPDEST PUSH1 0x40 DUP3 ADD SWAP1 PUSH2 0x3D8A SWAP2 PUSH2 0x13A1 JUMP JUMPDEST SWAP1 PUSH1 0x4 SWAP1 PUSH1 0x2 PUSH2 0x3D99 SWAP1 PUSH2 0xA59 JUMP JUMPDEST PUSH1 0x1 PUSH2 0x3DA4 SWAP1 PUSH2 0x1642 JUMP JUMPDEST PUSH2 0x3DAD SWAP2 PUSH2 0x1E0B JUMP JUMPDEST SWAP1 PUSH1 0x2 PUSH2 0x3DB9 SWAP1 PUSH2 0x14B7 JUMP JUMPDEST PUSH2 0x3DC2 SWAP2 PUSH2 0x27DF JUMP JUMPDEST PUSH0 PUSH2 0x3DCC SWAP1 PUSH2 0x1498 JUMP JUMPDEST SWAP1 PUSH2 0x3DD6 SWAP3 PUSH2 0x3211 JUMP JUMPDEST PUSH2 0x3DDF SWAP2 PUSH2 0x154B JUMP JUMPDEST SWAP1 PUSH2 0x3DE9 SWAP2 PUSH2 0x2129 JUMP JUMPDEST PUSH1 0x1 SWAP1 PUSH1 0x5 SWAP1 PUSH1 0x2 PUSH2 0x3DFA SWAP1 PUSH2 0xA59 JUMP JUMPDEST PUSH1 0x1 PUSH2 0x3E05 SWAP1 PUSH2 0x1642 JUMP JUMPDEST PUSH2 0x3E0E SWAP2 PUSH2 0x1E0B JUMP JUMPDEST SWAP1 PUSH2 0x3E17 PUSH2 0x192 JUMP JUMPDEST SWAP2 DUP3 SWAP2 PUSH1 0x20 DUP4 ADD SWAP2 PUSH2 0x3E28 SWAP3 PUSH2 0x1BAC JUMP JUMPDEST PUSH1 0x20 DUP3 ADD DUP2 SUB DUP3 MSTORE SUB PUSH2 0x3E3B SWAP1 DUP3 PUSH2 0x4EE JUMP JUMPDEST PUSH2 0x3E44 DUP2 PUSH2 0x18E2 JUMP JUMPDEST SWAP1 PUSH2 0x3E4E SWAP1 PUSH2 0x18DC JUMP JUMPDEST KECCAK256 PUSH2 0x3E58 SWAP2 PUSH2 0x1BC7 JUMP JUMPDEST SWAP1 PUSH2 0x3E62 SWAP2 PUSH2 0x214B JUMP JUMPDEST PUSH1 0x2 PUSH2 0x3E6D SWAP1 PUSH2 0xA59 JUMP JUMPDEST PUSH1 0x1 PUSH2 0x3E78 SWAP1 PUSH2 0x1642 JUMP JUMPDEST PUSH2 0x3E81 SWAP2 PUSH2 0x1E0B JUMP JUMPDEST PUSH32 0x113D32D0B7AEC15A8C7F50AF4CB42F4695E5B95524ED69519AC88D6C1F1F40F6 SWAP1 PUSH2 0x3EAB PUSH2 0x192 JUMP JUMPDEST PUSH2 0x3EB6 DUP2 SWAP3 DUP3 PUSH2 0xF71 JUMP JUMPDEST SUB SWAP1 LOG1 JUMP JUMPDEST POP PUSH2 0x3C74 DUP5 PUSH2 0x3ED4 DUP7 PUSH2 0x3ECE PUSH1 0x1 PUSH2 0x1642 JUMP JUMPDEST SWAP1 PUSH2 0x1E0B JUMP JUMPDEST AND PUSH2 0x3EE7 PUSH2 0x3EE1 PUSH0 PUSH2 0x1498 JUMP JUMPDEST SWAP2 PUSH2 0x1A4 JUMP JUMPDEST EQ SWAP1 POP PUSH2 0x3C6B JUMP JUMPDEST SWAP1 POP PUSH2 0x3F04 PUSH2 0x3EFE PUSH1 0x12 PUSH2 0x1AE0 JUMP JUMPDEST SWAP2 PUSH2 0x1A4 JUMP JUMPDEST GT ISZERO PUSH0 PUSH2 0x3C2E JUMP JUMPDEST SWAP1 POP PUSH2 0x3F21 PUSH2 0x3F1B PUSH1 0x12 PUSH2 0x1AE0 JUMP JUMPDEST SWAP2 PUSH2 0x1A4 JUMP JUMPDEST GT ISZERO PUSH0 PUSH2 0x3BF7 JUMP JUMPDEST PUSH2 0x3F4A SWAP2 POP PUSH1 0x20 RETURNDATASIZE DUP2 GT PUSH2 0x3F50 JUMPI JUMPDEST PUSH2 0x3F42 DUP2 DUP4 PUSH2 0x4EE JUMP JUMPDEST DUP2 ADD SWAP1 PUSH2 0x1CC2 JUMP JUMPDEST PUSH0 PUSH2 0x3BC0 JUMP JUMPDEST POP RETURNDATASIZE PUSH2 0x3F38 JUMP JUMPDEST PUSH2 0x1D12 JUMP JUMPDEST PUSH2 0x3F7D SWAP2 POP PUSH1 0x20 RETURNDATASIZE DUP2 GT PUSH2 0x3F83 JUMPI JUMPDEST PUSH2 0x3F75 DUP2 DUP4 PUSH2 0x4EE JUMP JUMPDEST DUP2 ADD SWAP1 PUSH2 0x3641 JUMP JUMPDEST PUSH0 PUSH2 0x3B44 JUMP JUMPDEST POP RETURNDATASIZE PUSH2 0x3F6B JUMP JUMPDEST PUSH2 0x1D12 JUMP JUMPDEST PUSH2 0x3F97 PUSH2 0x306B JUMP JUMPDEST PUSH2 0x3FB0 PUSH2 0x3FAA PUSH2 0x3FA5 PUSH2 0x403C JUMP JUMPDEST PUSH2 0x637 JUMP JUMPDEST SWAP2 PUSH2 0x637 JUMP JUMPDEST SUB PUSH2 0x3FB7 JUMPI JUMP JUMPDEST PUSH2 0x3FD9 PUSH2 0x3FC2 PUSH2 0x403C JUMP JUMPDEST PUSH0 SWAP2 DUP3 SWAP2 PUSH4 0x118CDAA7 PUSH1 0xE0 SHL DUP4 MSTORE PUSH1 0x4 DUP4 ADD PUSH2 0xE75 JUMP JUMPDEST SUB SWAP1 REVERT JUMPDEST PUSH2 0x3FE6 PUSH0 PUSH2 0x1580 JUMP JUMPDEST PUSH2 0x3FF0 DUP3 PUSH0 PUSH2 0x1E7A JUMP JUMPDEST SWAP1 PUSH2 0x4024 PUSH2 0x401E PUSH32 0x8BE0079C531659141344CD1FD0A4F28419497F9722A3DAAFE3B4186F6B6457E0 SWAP4 PUSH2 0x1E6B JUMP JUMPDEST SWAP2 PUSH2 0x1E6B JUMP JUMPDEST SWAP2 PUSH2 0x402D PUSH2 0x192 JUMP JUMPDEST DUP1 PUSH2 0x4037 DUP2 PUSH2 0x25B JUMP JUMPDEST SUB SWAP1 LOG3 JUMP JUMPDEST PUSH2 0x4044 PUSH2 0x3067 JUMP JUMPDEST POP CALLER SWAP1 JUMP INVALID LOG2 PUSH5 0x6970667358 0x22 SLT KECCAK256 0xDD SWAP10 DUP1 PUSH26 0x1936210436168EC4EE01AE5DA7CA473593376D2CCCCDAD9FAB13 PUSH9 0x6664736F6C63430008 SHR STOP CALLER "},"methodIdentifiers":{"claimPrize(uint256,uint256)":"7b154140","claimRefunds(uint256,uint256)":"fd0c7dfb","createMatch(uint256,uint256,uint256,(address,bool,string),(address,bool,string))":"30e6aaf2","createNextRound(uint256,uint256[])":"32bdb9e2","createRound(uint256,uint256[])":"04808088","createTournament(string,uint256,uint256,uint256,string)":"ffdde68c","getMatch(uint256,uint256,uint256)":"2c542b88","getMatchKey(uint256,uint256,uint256)":"1bd9103b","getMatchWithKey(bytes32)":"679224b4","getPlayer(uint256,uint256,uint256)":"4c7be95f","getPlayerKey(uint256,uint256,uint256)":"f4716df2","getTournament(uint256)":"1a5bd7fc","getTournamentLength()":"c1deef52","getTournaments()":"f7f20cb3","joinTournament(uint256,string)":"22654955","owner()":"8da5cb5b","renounceOwnership()":"715018a6","setTournamentStatus(uint8,uint256)":"bf14c887","startTournament(uint256,uint256[])":"9d5d40fb","submitMatchScore(uint256,uint256,uint256,uint256,uint256)":"89870d5a","token()":"fc0c546a","tournaments(uint256)":"7503e1b7","transferOwnership(address)":"f2fde38b"}}}}}