{"project/contracts/TournamentFactory.sol":{"TournamentFactory":{"abi":[{"inputs":[{"internalType":"address","name":"tokenAddress","type":"address"}],"stateMutability":"nonpayable","type":"constructor"},{"inputs":[{"internalType":"address","name":"owner","type":"address"}],"name":"OwnableInvalidOwner","type":"error"},{"inputs":[{"internalType":"address","name":"account","type":"address"}],"name":"OwnableUnauthorizedAccount","type":"error"},{"anonymous":false,"inputs":[{"indexed":true,"internalType":"address","name":"previousOwner","type":"address"},{"indexed":true,"internalType":"address","name":"newOwner","type":"address"}],"name":"OwnershipTransferred","type":"event"},{"anonymous":false,"inputs":[{"indexed":false,"internalType":"uint256","name":"id","type":"uint256"},{"indexed":false,"internalType":"uint256","name":"entryFee","type":"uint256"},{"indexed":false,"internalType":"uint8","name":"participants","type":"uint8"},{"indexed":false,"internalType":"uint256","name":"startDate","type":"uint256"},{"indexed":false,"internalType":"enum TournamentFactory.Status","name":"status","type":"uint8"}],"name":"TournamentCreated","type":"event"},{"inputs":[{"internalType":"string","name":"_title","type":"string"},{"internalType":"uint256","name":"_entryFee","type":"uint256"},{"internalType":"uint8","name":"_participants","type":"uint8"},{"internalType":"uint256","name":"_startTime","type":"uint256"},{"internalType":"enum TournamentFactory.Status","name":"_status","type":"uint8"}],"name":"createTournament","outputs":[],"stateMutability":"nonpayable","type":"function"},{"inputs":[{"internalType":"uint256","name":"id","type":"uint256"}],"name":"getTournament","outputs":[{"components":[{"internalType":"uint256","name":"id","type":"uint256"},{"internalType":"string","name":"title","type":"string"},{"internalType":"uint256","name":"entryFee","type":"uint256"},{"internalType":"uint8","name":"participants","type":"uint8"},{"internalType":"uint256","name":"startTime","type":"uint256"},{"internalType":"enum TournamentFactory.Status","name":"status","type":"uint8"},{"components":[{"internalType":"address","name":"player1","type":"address"},{"internalType":"uint256","name":"player1Score","type":"uint256"},{"internalType":"address","name":"player2","type":"address"},{"internalType":"uint256","name":"player2Score","type":"uint256"},{"internalType":"enum TournamentFactory.Status","name":"status","type":"uint8"}],"internalType":"struct TournamentFactory.Match[]","name":"matches","type":"tuple[]"}],"internalType":"struct TournamentFactory.Tournament","name":"","type":"tuple"}],"stateMutability":"view","type":"function"},{"inputs":[],"name":"getTournaments","outputs":[{"components":[{"internalType":"uint256","name":"id","type":"uint256"},{"internalType":"string","name":"title","type":"string"},{"internalType":"uint256","name":"entryFee","type":"uint256"},{"internalType":"uint8","name":"participants","type":"uint8"},{"internalType":"uint256","name":"startTime","type":"uint256"},{"internalType":"enum TournamentFactory.Status","name":"status","type":"uint8"},{"components":[{"internalType":"address","name":"player1","type":"address"},{"internalType":"uint256","name":"player1Score","type":"uint256"},{"internalType":"address","name":"player2","type":"address"},{"internalType":"uint256","name":"player2Score","type":"uint256"},{"internalType":"enum TournamentFactory.Status","name":"status","type":"uint8"}],"internalType":"struct TournamentFactory.Match[]","name":"matches","type":"tuple[]"}],"internalType":"struct TournamentFactory.Tournament[]","name":"","type":"tuple[]"}],"stateMutability":"view","type":"function"},{"inputs":[],"name":"owner","outputs":[{"internalType":"address","name":"","type":"address"}],"stateMutability":"view","type":"function"},{"inputs":[],"name":"renounceOwnership","outputs":[],"stateMutability":"nonpayable","type":"function"},{"inputs":[],"name":"token","outputs":[{"internalType":"contract TRIZcoin","name":"","type":"address"}],"stateMutability":"view","type":"function"},{"inputs":[{"internalType":"uint256","name":"","type":"uint256"}],"name":"tournaments","outputs":[{"internalType":"uint256","name":"id","type":"uint256"},{"internalType":"string","name":"title","type":"string"},{"internalType":"uint256","name":"entryFee","type":"uint256"},{"internalType":"uint8","name":"participants","type":"uint8"},{"internalType":"uint256","name":"startTime","type":"uint256"},{"internalType":"enum TournamentFactory.Status","name":"status","type":"uint8"}],"stateMutability":"view","type":"function"},{"inputs":[{"internalType":"address","name":"newOwner","type":"address"}],"name":"transferOwnership","outputs":[],"stateMutability":"nonpayable","type":"function"}],"evm":{"bytecode":{"linkReferences":{},"object":"60806040523461002f576100196100146100f4565b61019b565b610021610034565b611d7c6103298239611d7c90f35b61003a565b60405190565b5f80fd5b601f801991011690565b634e487b7160e01b5f52604160045260245ffd5b906100669061003e565b810190811060018060401b0382111761007e57604052565b610048565b9061009661008f610034565b928361005c565b565b5f80fd5b60018060a01b031690565b6100b09061009c565b90565b6100bc816100a7565b036100c357565b5f80fd5b905051906100d4826100b3565b565b906020828203126100ef576100ec915f016100c7565b90565b610098565b6101126120a58038038061010781610083565b9283398101906100d6565b90565b90565b61012c6101276101319261009c565b610115565b61009c565b90565b61013d90610118565b90565b61014990610134565b90565b5f1b90565b9061016260018060a01b039161014c565b9181191691161790565b61017590610134565b90565b90565b9061019061018b6101979261016c565b610178565b8254610151565b9055565b6101b06101b7916101ab33610206565b610140565b600161017b565b565b90565b6101d06101cb6101d5926101b9565b610115565b61009c565b90565b6101e1906101bc565b90565b6101ed906100a7565b9052565b9190610204905f602085019401906101e4565b565b8061022161021b6102165f6101d8565b6100a7565b916100a7565b146102315761022f906102c9565b565b61025461023d5f6101d8565b5f918291631e4fbdf760e01b8352600483016101f1565b0390fd5b5f1c90565b60018060a01b031690565b61027461027991610258565b61025d565b90565b6102869054610268565b90565b61029290610118565b90565b61029e90610289565b90565b90565b906102b96102b46102c092610295565b6102a1565b8254610151565b9055565b5f0190565b6102d25f61027c565b6102dc825f6102a4565b9061031061030a7f8be0079c531659141344cd1fd0a4f28419497f9722a3daafe3b4186f6b6457e093610295565b91610295565b91610319610034565b80610323816102c4565b0390a356fe60806040526004361015610013575b610bc0565b61001d5f3561009c565b80631a5bd7fc14610097578063715018a6146100925780637503e1b71461008d5780638da5cb5b14610088578063b7ebf9aa14610083578063f2fde38b1461007e578063f7f20cb3146100795763fc0c546a0361000e57610b8b565b610ab9565b610956565b6108de565b610757565b6106f9565b610397565b61034e565b60e01c90565b60405190565b5f80fd5b5f80fd5b5f80fd5b90565b6100c0816100b4565b036100c757565b5f80fd5b905035906100d8826100b7565b565b906020828203126100f3576100f0915f016100cb565b90565b6100ac565b610101906100b4565b9052565b5190565b60209181520190565b90825f9392825e0152565b601f801991011690565b61014661014f6020936101549361013d81610105565b93848093610109565b95869101610112565b61011d565b0190565b60ff1690565b61016790610158565b9052565b634e487b7160e01b5f52602160045260245ffd5b6003111561018957565b61016b565b906101988261017f565b565b6101a39061018e565b90565b6101af9061019a565b9052565b5190565b60209181520190565b60200190565b60018060a01b031690565b6101da906101c6565b90565b6101e6906101d1565b9052565b90608080610242936102025f8201515f8601906101dd565b610214602082015160208601906100f8565b610226604082015160408601906101dd565b610238606082015160608601906100f8565b01519101906101a6565b565b906102518160a0936101ea565b0190565b60200190565b9061027861027261026b846101b3565b80936101b7565b926101c0565b905f5b8181106102885750505090565b9091926102a161029b6001928651610244565b94610255565b910191909161027b565b6103339160c06102da60e083016102c85f8601515f8601906100f8565b60208501518482036020860152610127565b926102ed604082015160408501906100f8565b6102ff6060820151606085019061015e565b610311608082015160808501906100f8565b61032360a082015160a08501906101a6565b01519060c081840391015261025b565b90565b61034b9160208201915f8184039101526102ab565b90565b3461037e5761037a6103696103643660046100da565b610ea5565b6103716100a2565b91829182610336565b0390f35b6100a8565b5f91031261038d57565b6100ac565b5f0190565b346103c5576103a7366004610383565b6103af610f15565b6103b76100a2565b806103c181610392565b0390f35b6100a8565b634e487b7160e01b5f52603260045260245ffd5b5490565b5f5260205f2090565b6103f4816103de565b82101561040e576104066007916103e2565b910201905f90565b6103ca565b5f1c90565b90565b61042761042c91610413565b610418565b90565b610439905461041b565b90565b634e487b7160e01b5f52602260045260245ffd5b9060016002830492168015610470575b602083101461046b57565b61043c565b91607f1691610460565b5f5260205f2090565b905f929180549061049d61049683610450565b8094610109565b916001811690815f146104f457506001146104b8575b505050565b6104c5919293945061047a565b915f925b8184106104dc57505001905f80806104b3565b600181602092959395548486015201910192906104c9565b92949550505060ff19168252151560200201905f80806104b3565b9061051991610483565b90565b634e487b7160e01b5f52604160045260245ffd5b9061053a9061011d565b810190811067ffffffffffffffff82111761055457604052565b61051c565b90610579610572926105696100a2565b9384809261050f565b0383610530565b565b60ff1690565b61058d61059291610413565b61057b565b90565b61059f9054610581565b90565b60ff1690565b6105b46105b991610413565b6105a2565b90565b6105c690546105a8565b90565b6002906105d5826103de565b811015610635576105e5916103eb565b50906105f25f830161042f565b916105ff60018201610559565b9161060c6002830161042f565b9161061960038201610595565b91610632600561062b6004850161042f565b93016105bc565b90565b5f80fd5b610642906100b4565b9052565b60209181520190565b61066e61067760209361067c9361066581610105565b93848093610646565b95869101610112565b61011d565b0190565b61068990610158565b9052565b6106969061019a565b9052565b91946106e660a0949897956106dc6106d16106f0956106f79a6106c460c08a01925f8b0190610639565b88820360208a015261064f565b9a6040870190610639565b6060850190610680565b6080830190610639565b019061068d565b565b346107305761072c61071461070f3660046100da565b6105c9565b926107239694969291926100a2565b9687968761069a565b0390f35b6100a8565b61073e906101d1565b9052565b9190610755905f60208501940190610735565b565b3461078757610767366004610383565b610783610772610f23565b61077a6100a2565b91829182610742565b0390f35b6100a8565b5f80fd5b5f80fd5b906107a76107a06100a2565b9283610530565b565b67ffffffffffffffff81116107c7576107c360209161011d565b0190565b61051c565b90825f939282370152565b909291926107ec6107e7826107a9565b610794565b9381855260208501908284011161080857610806926107cc565b565b610790565b9080601f8301121561082b57816020610828933591016107d7565b90565b61078c565b61083981610158565b0361084057565b5f80fd5b9050359061085182610830565b565b6003111561085d57565b5f80fd5b9050359061086e82610853565b565b919060a0838203126108d9575f83013567ffffffffffffffff81116108d4578161089b91850161080d565b926108a982602083016100cb565b926108d16108ba8460408501610844565b936108c881606086016100cb565b93608001610861565b90565b6100b0565b6100ac565b34610910576108fa6108f1366004610870565b939290926118b2565b6109026100a2565b8061090c81610392565b0390f35b6100a8565b61091e816101d1565b0361092557565b5f80fd5b9050359061093682610915565b565b906020828203126109515761094e915f01610929565b90565b6100ac565b346109845761096e610969366004610938565b611bd7565b6109766100a2565b8061098081610392565b0390f35b6100a8565b5190565b60209181520190565b60200190565b610a249160c06109cb60e083016109b95f8601515f8601906100f8565b60208501518482036020860152610127565b926109de604082015160408501906100f8565b6109f06060820151606085019061015e565b610a02608082015160808501906100f8565b610a1460a082015160a08501906101a6565b01519060c081840391015261025b565b90565b90610a319161099c565b90565b60200190565b90610a4e610a4783610989565b809261098d565b9081610a5f60208302840194610996565b925f915b838310610a7257505050505090565b90919293946020610a94610a8e83856001950387528951610a27565b97610a34565b9301930191939290610a63565b610ab69160208201915f818403910152610a3a565b90565b34610ae957610ac9366004610383565b610ae5610ad4611c76565b610adc6100a2565b91829182610aa1565b0390f35b6100a8565b1c90565b60018060a01b031690565b610b0d906008610b129302610aee565b610af2565b90565b90610b209154610afd565b90565b610b2f60015f90610b15565b90565b90565b610b49610b44610b4e926101c6565b610b32565b6101c6565b90565b610b5a90610b35565b90565b610b6690610b51565b90565b610b7290610b5d565b9052565b9190610b89905f60208501940190610b69565b565b34610bbb57610b9b366004610383565b610bb7610ba6610b23565b610bae6100a2565b91829182610b76565b0390f35b6100a8565b5f80fd5b610bce60e0610794565b90565b5f90565b606090565b5f90565b5f90565b606090565b610bef610bc4565b90602080808080808088610c01610bd1565b815201610c0c610bd5565b815201610c17610bd1565b815201610c22610bda565b815201610c2d610bd1565b815201610c38610bde565b815201610c43610be2565b81525050565b610c51610be7565b90565b90610c5e906100b4565b9052565b52565b90610c6f90610158565b9052565b90610c7d9061018e565b9052565b5490565b67ffffffffffffffff8111610c9d5760208091020190565b61051c565b90610cb4610caf83610c85565b610794565b918252565b5f5260205f2090565b60018060a01b031690565b610cd9610cde91610413565b610cc2565b90565b610ceb9054610ccd565b90565b90610cf8906101d1565b9052565b610d0660a0610794565b90565b90610d88610d7f6004610d1a610cfc565b94610d31610d295f8301610ce1565b5f8801610cee565b610d49610d406001830161042f565b60208801610c54565b610d61610d5860028301610ce1565b60408801610cee565b610d79610d706003830161042f565b60608801610c54565b016105bc565b60808401610c73565b565b610d9390610d09565b90565b90610da082610c81565b610da981610ca2565b92610db76020850191610cb9565b5f915b838310610dc75750505050565b60056020600192610dd785610d8a565b815201920192019190610dba565b52565b90610e97610e8e6006610df9610bc4565b94610e10610e085f830161042f565b5f8801610c54565b610e28610e1f60018301610559565b60208801610c62565b610e40610e376002830161042f565b60408801610c54565b610e58610e4f60038301610595565b60608801610c65565b610e70610e676004830161042f565b60808801610c54565b610e88610e7f600583016105bc565b60a08801610c73565b01610d96565b60c08401610de5565b565b610ea290610de8565b90565b610ebc610ec291610eb4610c49565b5060026103eb565b50610e99565b90565b610ecd611c8c565b610ed5610f02565b565b90565b610eee610ee9610ef392610ed7565b610b32565b6101c6565b90565b610eff90610eda565b90565b610f13610f0e5f610ef6565b611cda565b565b610f1d610ec5565b565b5f90565b610f2b610f1f565b50610f355f610ce1565b90565b610f44610f4991610413565b610af2565b90565b610f569054610f38565b90565b60e01b90565b90505190610f6c826100b7565b565b90602082820312610f8757610f84915f01610f5f565b90565b6100ac565b610f946100a2565b3d5f823e3d90fd5b5f7f6e6f7420656e6f7567682063617368207374616e676572000000000000000000910152565b610fd06017602092610646565b610fd981610f9c565b0190565b610ff29060208101905f818303910152610fc3565b90565b15610ffc57565b6110046100a2565b62461bcd60e51b81528061101a60048201610fdd565b0390fd5b61102790610b51565b90565b151590565b6110388161102a565b0361103f57565b5f80fd5b905051906110508261102f565b565b9060208282031261106b57611068915f01611043565b90565b6100ac565b6040906110996110a0949695939661108f60608401985f850190610735565b6020830190610735565b0190610639565b565b90565b6110b96110b46110be926110a2565b610b32565b6100b4565b90565b5f90565b6110cd610cfc565b90602080808080866110dd6110c1565b8152016110e8610bd1565b8152016110f36110c1565b8152016110fe610bd1565b815201611109610bde565b81525050565b6111176110c5565b90565b5f5b82811061112857505050565b60209061113361110f565b818401520161111c565b9061116261114a83610ca2565b926020806111588693610c85565b920191039061111a565b565b61116e60a0610794565b90565b61118561118061118a92610ed7565b610b32565b6100b4565b90565b90611197826101b3565b8110156111a8576020809102010190565b6103ca565b90565b6111ba60e0610794565b90565b5f5260205f2090565b5490565b6111d3816111c6565b8210156111ed576111e56007916111bd565b910201905f90565b6103ca565b634e487b7160e01b5f525f60045260245ffd5b61120f90516100b4565b90565b5f1b90565b906112235f1991611212565b9181191691161790565b61124161123c611246926100b4565b610b32565b6100b4565b90565b90565b9061126161125c6112689261122d565b611249565b8254611217565b9055565b5190565b601f602091010490565b1b90565b919060086112999102916112935f198461127a565b9261127a565b9181191691161790565b91906112b96112b46112c19361122d565b611249565b90835461127e565b9055565b5f90565b6112db916112d56112c5565b916112a3565b565b5b8181106112e9575050565b806112f65f6001936112c9565b016112de565b9190601f811161130c575b505050565b61131861133d9361047a565b90602061132484611270565b83019310611345575b61133690611270565b01906112dd565b5f8080611307565b91506113368192905061132d565b90611363905f1990600802610aee565b191690565b8161137291611353565b906002021790565b9061138481610105565b9067ffffffffffffffff8211611444576113a8826113a28554610450565b856112fc565b602090601f83116001146113dc579180916113cb935f926113d0575b5050611368565b90555b565b90915001515f806113c4565b601f198316916113eb8561047a565b925f5b81811061142c57509160029391856001969410611412575b505050020190556113ce565b611422910151601f841690611353565b90555f8080611406565b919360206001819287870151815501950192016113ee565b61051c565b906114539161137a565b565b61145f9051610158565b90565b9061146e60ff91611212565b9181191691161790565b61148c61148761149192610158565b610b32565b610158565b90565b90565b906114ac6114a76114b392611478565b611494565b8254611462565b9055565b6114c1905161018e565b90565b6114cd9061018e565b90565b90565b906114e86114e36114ef926114c4565b6114d0565b8254611462565b9055565b5190565b634e487b7160e01b5f52601160045260245ffd5b61151a611520919392936100b4565b926100b4565b9161152c8382026100b4565b92818404149015171561153b57565b6114f7565b61154b90600561150b565b90565b60045f91828082015561156483600183016112c9565b82600282015561157783600383016112c9565b0155565b905f0361158d5761158b9061154e565b565b6111f2565b5b81811061159e575050565b806115ab5f60059361157b565b01611593565b90918281106115c0575b505050565b6115de6115d86115d26115e995611540565b92611540565b92610cb9565b918201910190611592565b5f80806115bb565b9068010000000000000000811161161a578161160f61161893610c81565b908281556115b1565b565b61051c565b5190565b61162d90516101d1565b90565b9061164160018060a01b0391611212565b9181191691161790565b61165490610b51565b90565b90565b9061166f61166a6116769261164b565b611657565b8254611630565b9055565b906116f0608060046116f69461169d5f82016116975f8801611623565b9061165a565b6116b6600182016116b060208801611205565b9061124c565b6116cf600282016116c960408801611623565b9061165a565b6116e8600382016116e260608801611205565b9061124c565b0192016114b7565b906114d3565b565b906117029161167a565b565b611729611723611713846101b3565b9361171e85856115f1565b6101c0565b91610cb9565b5f915b8383106117395750505050565b600560208261175261174c60019561161f565b866116f8565b0192019201919061172c565b9061176891611704565b565b9061181260c060066118189461178d5f82016117875f8801611205565b9061124c565b6117a6600182016117a06020880161126c565b90611449565b6117bf600282016117b960408801611205565b9061124c565b6117d8600382016117d260608801611455565b90611497565b6117f1600482016117eb60808801611205565b9061124c565b61180a6005820161180460a088016114b7565b906114d3565b0192016114f3565b9061175e565b565b919061182b576118299161176a565b565b6111f2565b9081549168010000000000000000831015611860578261185891600161185e950181556111ca565b9061181a565b565b61051c565b909594926118b09461189f6118a99261189560809661188b60a088019c5f890190610639565b6020870190610639565b6040850190610680565b6060830190610639565b019061068d565b565b6118f360206118c96118c46001610f4c565b610b5d565b6370a08231906118e833926118dc6100a2565b95869485938493610f59565b835260048301610742565b03915afa8015611b6d57611922915f91611b3f575b5061191b611915856100b4565b916100b4565b1015610ff5565b61193461192f6001610f4c565b610b5d565b60206323b872dd9133906119645f61194b3061101e565b9561196f896119586100a2565b98899788968795610f59565b855260048501611070565b03925af18015611b3a57611b0e575b50600161198a906110a5565b6119939061113d565b90335f5f6119a090610ef6565b5f905f926119ac611164565b945f8601906119ba91610cee565b6119c390611171565b60208501906119d191610c54565b60408401906119df91610cee565b6119e890611171565b60608301906119f691610c54565b6080820190611a0491610c73565b82905f90611a1182611171565b611a1b908461118d565b52611a2590611171565b611a2e9161118d565b51506002611a3b906111ad565b916002611a47906103de565b9190848688918a9394611a586111b0565b965f880190611a6691610c54565b6020870190611a7491610c62565b6040860190611a8291610c54565b6060850190611a9091610c65565b6080840190611a9e91610c54565b60a0830190611aac91610c73565b60c0820190611aba91610de5565b611ac391611830565b6002611ace906103de565b909192937f5200794ba7d5386d6d997f966e54f17526ab61032ac5e883f64d3ae762fbef5994611afc6100a2565b948594611b099486611865565b0390a1565b611b2e9060203d8111611b33575b611b268183610530565b810190611052565b61197e565b503d611b1c565b610f8c565b611b60915060203d8111611b66575b611b588183610530565b810190610f6e565b5f611908565b503d611b4e565b610f8c565b611b8390611b7e611c8c565b611b85565b565b80611ba0611b9a611b955f610ef6565b6101d1565b916101d1565b14611bb057611bae90611cda565b565b611bd3611bbc5f610ef6565b5f918291631e4fbdf760e01b835260048301610742565b0390fd5b611be090611b72565b565b606090565b67ffffffffffffffff8111611bff5760208091020190565b61051c565b90611c16611c1183611be7565b610794565b918252565b90611c25826103de565b611c2e81611c04565b92611c3c60208501916103e2565b5f915b838310611c4c5750505050565b60076020600192611c5c85610e99565b815201920192019190611c3f565b611c7390611c1b565b90565b611c7e611be2565b50611c896002611c6a565b90565b611c94610f23565b611cad611ca7611ca2611d39565b6101d1565b916101d1565b03611cb457565b611cd6611cbf611d39565b5f91829163118cdaa760e01b835260048301610742565b0390fd5b611ce35f610ce1565b611ced825f61165a565b90611d21611d1b7f8be0079c531659141344cd1fd0a4f28419497f9722a3daafe3b4186f6b6457e09361164b565b9161164b565b91611d2a6100a2565b80611d3481610392565b0390a3565b611d41610f1f565b50339056fea2646970667358221220f22453fa1a654b3f1e4a329d5881f0f921c3ccf1f0e9557ca60cf31cb469f0b264736f6c634300081c0033","opcodes":"PUSH1 0x80 PUSH1 0x40 MSTORE CALLVALUE PUSH2 0x2F JUMPI PUSH2 0x19 PUSH2 0x14 PUSH2 0xF4 JUMP JUMPDEST PUSH2 0x19B JUMP JUMPDEST PUSH2 0x21 PUSH2 0x34 JUMP JUMPDEST PUSH2 0x1D7C PUSH2 0x329 DUP3 CODECOPY PUSH2 0x1D7C SWAP1 RETURN JUMPDEST PUSH2 0x3A JUMP JUMPDEST PUSH1 0x40 MLOAD SWAP1 JUMP JUMPDEST PUSH0 DUP1 REVERT JUMPDEST PUSH1 0x1F DUP1 NOT SWAP2 ADD AND SWAP1 JUMP JUMPDEST PUSH4 0x4E487B71 PUSH1 0xE0 SHL PUSH0 MSTORE PUSH1 0x41 PUSH1 0x4 MSTORE PUSH1 0x24 PUSH0 REVERT JUMPDEST SWAP1 PUSH2 0x66 SWAP1 PUSH2 0x3E JUMP JUMPDEST DUP2 ADD SWAP1 DUP2 LT PUSH1 0x1 DUP1 PUSH1 0x40 SHL SUB DUP3 GT OR PUSH2 0x7E JUMPI PUSH1 0x40 MSTORE JUMP JUMPDEST PUSH2 0x48 JUMP JUMPDEST SWAP1 PUSH2 0x96 PUSH2 0x8F PUSH2 0x34 JUMP JUMPDEST SWAP3 DUP4 PUSH2 0x5C JUMP JUMPDEST JUMP JUMPDEST PUSH0 DUP1 REVERT JUMPDEST PUSH1 0x1 DUP1 PUSH1 0xA0 SHL SUB AND SWAP1 JUMP JUMPDEST PUSH2 0xB0 SWAP1 PUSH2 0x9C JUMP JUMPDEST SWAP1 JUMP JUMPDEST PUSH2 0xBC DUP2 PUSH2 0xA7 JUMP JUMPDEST SUB PUSH2 0xC3 JUMPI JUMP JUMPDEST PUSH0 DUP1 REVERT JUMPDEST SWAP1 POP MLOAD SWAP1 PUSH2 0xD4 DUP3 PUSH2 0xB3 JUMP JUMPDEST JUMP JUMPDEST SWAP1 PUSH1 0x20 DUP3 DUP3 SUB SLT PUSH2 0xEF JUMPI PUSH2 0xEC SWAP2 PUSH0 ADD PUSH2 0xC7 JUMP JUMPDEST SWAP1 JUMP JUMPDEST PUSH2 0x98 JUMP JUMPDEST PUSH2 0x112 PUSH2 0x20A5 DUP1 CODESIZE SUB DUP1 PUSH2 0x107 DUP2 PUSH2 0x83 JUMP JUMPDEST SWAP3 DUP4 CODECOPY DUP2 ADD SWAP1 PUSH2 0xD6 JUMP JUMPDEST SWAP1 JUMP JUMPDEST SWAP1 JUMP JUMPDEST PUSH2 0x12C PUSH2 0x127 PUSH2 0x131 SWAP3 PUSH2 0x9C JUMP JUMPDEST PUSH2 0x115 JUMP JUMPDEST PUSH2 0x9C JUMP JUMPDEST SWAP1 JUMP JUMPDEST PUSH2 0x13D SWAP1 PUSH2 0x118 JUMP JUMPDEST SWAP1 JUMP JUMPDEST PUSH2 0x149 SWAP1 PUSH2 0x134 JUMP JUMPDEST SWAP1 JUMP JUMPDEST PUSH0 SHL SWAP1 JUMP JUMPDEST SWAP1 PUSH2 0x162 PUSH1 0x1 DUP1 PUSH1 0xA0 SHL SUB SWAP2 PUSH2 0x14C JUMP JUMPDEST SWAP2 DUP2 NOT AND SWAP2 AND OR SWAP1 JUMP JUMPDEST PUSH2 0x175 SWAP1 PUSH2 0x134 JUMP JUMPDEST SWAP1 JUMP JUMPDEST SWAP1 JUMP JUMPDEST SWAP1 PUSH2 0x190 PUSH2 0x18B PUSH2 0x197 SWAP3 PUSH2 0x16C JUMP JUMPDEST PUSH2 0x178 JUMP JUMPDEST DUP3 SLOAD PUSH2 0x151 JUMP JUMPDEST SWAP1 SSTORE JUMP JUMPDEST PUSH2 0x1B0 PUSH2 0x1B7 SWAP2 PUSH2 0x1AB CALLER PUSH2 0x206 JUMP JUMPDEST PUSH2 0x140 JUMP JUMPDEST PUSH1 0x1 PUSH2 0x17B JUMP JUMPDEST JUMP JUMPDEST SWAP1 JUMP JUMPDEST PUSH2 0x1D0 PUSH2 0x1CB PUSH2 0x1D5 SWAP3 PUSH2 0x1B9 JUMP JUMPDEST PUSH2 0x115 JUMP JUMPDEST PUSH2 0x9C JUMP JUMPDEST SWAP1 JUMP JUMPDEST PUSH2 0x1E1 SWAP1 PUSH2 0x1BC JUMP JUMPDEST SWAP1 JUMP JUMPDEST PUSH2 0x1ED SWAP1 PUSH2 0xA7 JUMP JUMPDEST SWAP1 MSTORE JUMP JUMPDEST SWAP2 SWAP1 PUSH2 0x204 SWAP1 PUSH0 PUSH1 0x20 DUP6 ADD SWAP5 ADD SWAP1 PUSH2 0x1E4 JUMP JUMPDEST JUMP JUMPDEST DUP1 PUSH2 0x221 PUSH2 0x21B PUSH2 0x216 PUSH0 PUSH2 0x1D8 JUMP JUMPDEST PUSH2 0xA7 JUMP JUMPDEST SWAP2 PUSH2 0xA7 JUMP JUMPDEST EQ PUSH2 0x231 JUMPI PUSH2 0x22F SWAP1 PUSH2 0x2C9 JUMP JUMPDEST JUMP JUMPDEST PUSH2 0x254 PUSH2 0x23D PUSH0 PUSH2 0x1D8 JUMP JUMPDEST PUSH0 SWAP2 DUP3 SWAP2 PUSH4 0x1E4FBDF7 PUSH1 0xE0 SHL DUP4 MSTORE PUSH1 0x4 DUP4 ADD PUSH2 0x1F1 JUMP JUMPDEST SUB SWAP1 REVERT JUMPDEST PUSH0 SHR SWAP1 JUMP JUMPDEST PUSH1 0x1 DUP1 PUSH1 0xA0 SHL SUB AND SWAP1 JUMP JUMPDEST PUSH2 0x274 PUSH2 0x279 SWAP2 PUSH2 0x258 JUMP JUMPDEST PUSH2 0x25D JUMP JUMPDEST SWAP1 JUMP JUMPDEST PUSH2 0x286 SWAP1 SLOAD PUSH2 0x268 JUMP JUMPDEST SWAP1 JUMP JUMPDEST PUSH2 0x292 SWAP1 PUSH2 0x118 JUMP JUMPDEST SWAP1 JUMP JUMPDEST PUSH2 0x29E SWAP1 PUSH2 0x289 JUMP JUMPDEST SWAP1 JUMP JUMPDEST SWAP1 JUMP JUMPDEST SWAP1 PUSH2 0x2B9 PUSH2 0x2B4 PUSH2 0x2C0 SWAP3 PUSH2 0x295 JUMP JUMPDEST PUSH2 0x2A1 JUMP JUMPDEST DUP3 SLOAD PUSH2 0x151 JUMP JUMPDEST SWAP1 SSTORE JUMP JUMPDEST PUSH0 ADD SWAP1 JUMP JUMPDEST PUSH2 0x2D2 PUSH0 PUSH2 0x27C JUMP JUMPDEST PUSH2 0x2DC DUP3 PUSH0 PUSH2 0x2A4 JUMP JUMPDEST SWAP1 PUSH2 0x310 PUSH2 0x30A PUSH32 0x8BE0079C531659141344CD1FD0A4F28419497F9722A3DAAFE3B4186F6B6457E0 SWAP4 PUSH2 0x295 JUMP JUMPDEST SWAP2 PUSH2 0x295 JUMP JUMPDEST SWAP2 PUSH2 0x319 PUSH2 0x34 JUMP JUMPDEST DUP1 PUSH2 0x323 DUP2 PUSH2 0x2C4 JUMP JUMPDEST SUB SWAP1 LOG3 JUMP INVALID PUSH1 0x80 PUSH1 0x40 MSTORE PUSH1 0x4 CALLDATASIZE LT ISZERO PUSH2 0x13 JUMPI JUMPDEST PUSH2 0xBC0 JUMP JUMPDEST PUSH2 0x1D PUSH0 CALLDATALOAD PUSH2 0x9C JUMP JUMPDEST DUP1 PUSH4 0x1A5BD7FC EQ PUSH2 0x97 JUMPI DUP1 PUSH4 0x715018A6 EQ PUSH2 0x92 JUMPI DUP1 PUSH4 0x7503E1B7 EQ PUSH2 0x8D JUMPI DUP1 PUSH4 0x8DA5CB5B EQ PUSH2 0x88 JUMPI DUP1 PUSH4 0xB7EBF9AA EQ PUSH2 0x83 JUMPI DUP1 PUSH4 0xF2FDE38B EQ PUSH2 0x7E JUMPI DUP1 PUSH4 0xF7F20CB3 EQ PUSH2 0x79 JUMPI PUSH4 0xFC0C546A SUB PUSH2 0xE JUMPI PUSH2 0xB8B JUMP JUMPDEST PUSH2 0xAB9 JUMP JUMPDEST PUSH2 0x956 JUMP JUMPDEST PUSH2 0x8DE JUMP JUMPDEST PUSH2 0x757 JUMP JUMPDEST PUSH2 0x6F9 JUMP JUMPDEST PUSH2 0x397 JUMP JUMPDEST PUSH2 0x34E JUMP JUMPDEST PUSH1 0xE0 SHR SWAP1 JUMP JUMPDEST PUSH1 0x40 MLOAD SWAP1 JUMP JUMPDEST PUSH0 DUP1 REVERT JUMPDEST PUSH0 DUP1 REVERT JUMPDEST PUSH0 DUP1 REVERT JUMPDEST SWAP1 JUMP JUMPDEST PUSH2 0xC0 DUP2 PUSH2 0xB4 JUMP JUMPDEST SUB PUSH2 0xC7 JUMPI JUMP JUMPDEST PUSH0 DUP1 REVERT JUMPDEST SWAP1 POP CALLDATALOAD SWAP1 PUSH2 0xD8 DUP3 PUSH2 0xB7 JUMP JUMPDEST JUMP JUMPDEST SWAP1 PUSH1 0x20 DUP3 DUP3 SUB SLT PUSH2 0xF3 JUMPI PUSH2 0xF0 SWAP2 PUSH0 ADD PUSH2 0xCB JUMP JUMPDEST SWAP1 JUMP JUMPDEST PUSH2 0xAC JUMP JUMPDEST PUSH2 0x101 SWAP1 PUSH2 0xB4 JUMP JUMPDEST SWAP1 MSTORE JUMP JUMPDEST MLOAD SWAP1 JUMP JUMPDEST PUSH1 0x20 SWAP2 DUP2 MSTORE ADD SWAP1 JUMP JUMPDEST SWAP1 DUP3 PUSH0 SWAP4 SWAP3 DUP3 MCOPY ADD MSTORE JUMP JUMPDEST PUSH1 0x1F DUP1 NOT SWAP2 ADD AND SWAP1 JUMP JUMPDEST PUSH2 0x146 PUSH2 0x14F PUSH1 0x20 SWAP4 PUSH2 0x154 SWAP4 PUSH2 0x13D DUP2 PUSH2 0x105 JUMP JUMPDEST SWAP4 DUP5 DUP1 SWAP4 PUSH2 0x109 JUMP JUMPDEST SWAP6 DUP7 SWAP2 ADD PUSH2 0x112 JUMP JUMPDEST PUSH2 0x11D JUMP JUMPDEST ADD SWAP1 JUMP JUMPDEST PUSH1 0xFF AND SWAP1 JUMP JUMPDEST PUSH2 0x167 SWAP1 PUSH2 0x158 JUMP JUMPDEST SWAP1 MSTORE JUMP JUMPDEST PUSH4 0x4E487B71 PUSH1 0xE0 SHL PUSH0 MSTORE PUSH1 0x21 PUSH1 0x4 MSTORE PUSH1 0x24 PUSH0 REVERT JUMPDEST PUSH1 0x3 GT ISZERO PUSH2 0x189 JUMPI JUMP JUMPDEST PUSH2 0x16B JUMP JUMPDEST SWAP1 PUSH2 0x198 DUP3 PUSH2 0x17F JUMP JUMPDEST JUMP JUMPDEST PUSH2 0x1A3 SWAP1 PUSH2 0x18E JUMP JUMPDEST SWAP1 JUMP JUMPDEST PUSH2 0x1AF SWAP1 PUSH2 0x19A JUMP JUMPDEST SWAP1 MSTORE JUMP JUMPDEST MLOAD SWAP1 JUMP JUMPDEST PUSH1 0x20 SWAP2 DUP2 MSTORE ADD SWAP1 JUMP JUMPDEST PUSH1 0x20 ADD SWAP1 JUMP JUMPDEST PUSH1 0x1 DUP1 PUSH1 0xA0 SHL SUB AND SWAP1 JUMP JUMPDEST PUSH2 0x1DA SWAP1 PUSH2 0x1C6 JUMP JUMPDEST SWAP1 JUMP JUMPDEST PUSH2 0x1E6 SWAP1 PUSH2 0x1D1 JUMP JUMPDEST SWAP1 MSTORE JUMP JUMPDEST SWAP1 PUSH1 0x80 DUP1 PUSH2 0x242 SWAP4 PUSH2 0x202 PUSH0 DUP3 ADD MLOAD PUSH0 DUP7 ADD SWAP1 PUSH2 0x1DD JUMP JUMPDEST PUSH2 0x214 PUSH1 0x20 DUP3 ADD MLOAD PUSH1 0x20 DUP7 ADD SWAP1 PUSH2 0xF8 JUMP JUMPDEST PUSH2 0x226 PUSH1 0x40 DUP3 ADD MLOAD PUSH1 0x40 DUP7 ADD SWAP1 PUSH2 0x1DD JUMP JUMPDEST PUSH2 0x238 PUSH1 0x60 DUP3 ADD MLOAD PUSH1 0x60 DUP7 ADD SWAP1 PUSH2 0xF8 JUMP JUMPDEST ADD MLOAD SWAP2 ADD SWAP1 PUSH2 0x1A6 JUMP JUMPDEST JUMP JUMPDEST SWAP1 PUSH2 0x251 DUP2 PUSH1 0xA0 SWAP4 PUSH2 0x1EA JUMP JUMPDEST ADD SWAP1 JUMP JUMPDEST PUSH1 0x20 ADD SWAP1 JUMP JUMPDEST SWAP1 PUSH2 0x278 PUSH2 0x272 PUSH2 0x26B DUP5 PUSH2 0x1B3 JUMP JUMPDEST DUP1 SWAP4 PUSH2 0x1B7 JUMP JUMPDEST SWAP3 PUSH2 0x1C0 JUMP JUMPDEST SWAP1 PUSH0 JUMPDEST DUP2 DUP2 LT PUSH2 0x288 JUMPI POP POP POP SWAP1 JUMP JUMPDEST SWAP1 SWAP2 SWAP3 PUSH2 0x2A1 PUSH2 0x29B PUSH1 0x1 SWAP3 DUP7 MLOAD PUSH2 0x244 JUMP JUMPDEST SWAP5 PUSH2 0x255 JUMP JUMPDEST SWAP2 ADD SWAP2 SWAP1 SWAP2 PUSH2 0x27B JUMP JUMPDEST PUSH2 0x333 SWAP2 PUSH1 0xC0 PUSH2 0x2DA PUSH1 0xE0 DUP4 ADD PUSH2 0x2C8 PUSH0 DUP7 ADD MLOAD PUSH0 DUP7 ADD SWAP1 PUSH2 0xF8 JUMP JUMPDEST PUSH1 0x20 DUP6 ADD MLOAD DUP5 DUP3 SUB PUSH1 0x20 DUP7 ADD MSTORE PUSH2 0x127 JUMP JUMPDEST SWAP3 PUSH2 0x2ED PUSH1 0x40 DUP3 ADD MLOAD PUSH1 0x40 DUP6 ADD SWAP1 PUSH2 0xF8 JUMP JUMPDEST PUSH2 0x2FF PUSH1 0x60 DUP3 ADD MLOAD PUSH1 0x60 DUP6 ADD SWAP1 PUSH2 0x15E JUMP JUMPDEST PUSH2 0x311 PUSH1 0x80 DUP3 ADD MLOAD PUSH1 0x80 DUP6 ADD SWAP1 PUSH2 0xF8 JUMP JUMPDEST PUSH2 0x323 PUSH1 0xA0 DUP3 ADD MLOAD PUSH1 0xA0 DUP6 ADD SWAP1 PUSH2 0x1A6 JUMP JUMPDEST ADD MLOAD SWAP1 PUSH1 0xC0 DUP2 DUP5 SUB SWAP2 ADD MSTORE PUSH2 0x25B JUMP JUMPDEST SWAP1 JUMP JUMPDEST PUSH2 0x34B SWAP2 PUSH1 0x20 DUP3 ADD SWAP2 PUSH0 DUP2 DUP5 SUB SWAP2 ADD MSTORE PUSH2 0x2AB JUMP JUMPDEST SWAP1 JUMP JUMPDEST CALLVALUE PUSH2 0x37E JUMPI PUSH2 0x37A PUSH2 0x369 PUSH2 0x364 CALLDATASIZE PUSH1 0x4 PUSH2 0xDA JUMP JUMPDEST PUSH2 0xEA5 JUMP JUMPDEST PUSH2 0x371 PUSH2 0xA2 JUMP JUMPDEST SWAP2 DUP3 SWAP2 DUP3 PUSH2 0x336 JUMP JUMPDEST SUB SWAP1 RETURN JUMPDEST PUSH2 0xA8 JUMP JUMPDEST PUSH0 SWAP2 SUB SLT PUSH2 0x38D JUMPI JUMP JUMPDEST PUSH2 0xAC JUMP JUMPDEST PUSH0 ADD SWAP1 JUMP JUMPDEST CALLVALUE PUSH2 0x3C5 JUMPI PUSH2 0x3A7 CALLDATASIZE PUSH1 0x4 PUSH2 0x383 JUMP JUMPDEST PUSH2 0x3AF PUSH2 0xF15 JUMP JUMPDEST PUSH2 0x3B7 PUSH2 0xA2 JUMP JUMPDEST DUP1 PUSH2 0x3C1 DUP2 PUSH2 0x392 JUMP JUMPDEST SUB SWAP1 RETURN JUMPDEST PUSH2 0xA8 JUMP JUMPDEST PUSH4 0x4E487B71 PUSH1 0xE0 SHL PUSH0 MSTORE PUSH1 0x32 PUSH1 0x4 MSTORE PUSH1 0x24 PUSH0 REVERT JUMPDEST SLOAD SWAP1 JUMP JUMPDEST PUSH0 MSTORE PUSH1 0x20 PUSH0 KECCAK256 SWAP1 JUMP JUMPDEST PUSH2 0x3F4 DUP2 PUSH2 0x3DE JUMP JUMPDEST DUP3 LT ISZERO PUSH2 0x40E JUMPI PUSH2 0x406 PUSH1 0x7 SWAP2 PUSH2 0x3E2 JUMP JUMPDEST SWAP2 MUL ADD SWAP1 PUSH0 SWAP1 JUMP JUMPDEST PUSH2 0x3CA JUMP JUMPDEST PUSH0 SHR SWAP1 JUMP JUMPDEST SWAP1 JUMP JUMPDEST PUSH2 0x427 PUSH2 0x42C SWAP2 PUSH2 0x413 JUMP JUMPDEST PUSH2 0x418 JUMP JUMPDEST SWAP1 JUMP JUMPDEST PUSH2 0x439 SWAP1 SLOAD PUSH2 0x41B JUMP JUMPDEST SWAP1 JUMP JUMPDEST PUSH4 0x4E487B71 PUSH1 0xE0 SHL PUSH0 MSTORE PUSH1 0x22 PUSH1 0x4 MSTORE PUSH1 0x24 PUSH0 REVERT JUMPDEST SWAP1 PUSH1 0x1 PUSH1 0x2 DUP4 DIV SWAP3 AND DUP1 ISZERO PUSH2 0x470 JUMPI JUMPDEST PUSH1 0x20 DUP4 LT EQ PUSH2 0x46B JUMPI JUMP JUMPDEST PUSH2 0x43C JUMP JUMPDEST SWAP2 PUSH1 0x7F AND SWAP2 PUSH2 0x460 JUMP JUMPDEST PUSH0 MSTORE PUSH1 0x20 PUSH0 KECCAK256 SWAP1 JUMP JUMPDEST SWAP1 PUSH0 SWAP3 SWAP2 DUP1 SLOAD SWAP1 PUSH2 0x49D PUSH2 0x496 DUP4 PUSH2 0x450 JUMP JUMPDEST DUP1 SWAP5 PUSH2 0x109 JUMP JUMPDEST SWAP2 PUSH1 0x1 DUP2 AND SWAP1 DUP2 PUSH0 EQ PUSH2 0x4F4 JUMPI POP PUSH1 0x1 EQ PUSH2 0x4B8 JUMPI JUMPDEST POP POP POP JUMP JUMPDEST PUSH2 0x4C5 SWAP2 SWAP3 SWAP4 SWAP5 POP PUSH2 0x47A JUMP JUMPDEST SWAP2 PUSH0 SWAP3 JUMPDEST DUP2 DUP5 LT PUSH2 0x4DC JUMPI POP POP ADD SWAP1 PUSH0 DUP1 DUP1 PUSH2 0x4B3 JUMP JUMPDEST PUSH1 0x1 DUP2 PUSH1 0x20 SWAP3 SWAP6 SWAP4 SWAP6 SLOAD DUP5 DUP7 ADD MSTORE ADD SWAP2 ADD SWAP3 SWAP1 PUSH2 0x4C9 JUMP JUMPDEST SWAP3 SWAP5 SWAP6 POP POP POP PUSH1 0xFF NOT AND DUP3 MSTORE ISZERO ISZERO PUSH1 0x20 MUL ADD SWAP1 PUSH0 DUP1 DUP1 PUSH2 0x4B3 JUMP JUMPDEST SWAP1 PUSH2 0x519 SWAP2 PUSH2 0x483 JUMP JUMPDEST SWAP1 JUMP JUMPDEST PUSH4 0x4E487B71 PUSH1 0xE0 SHL PUSH0 MSTORE PUSH1 0x41 PUSH1 0x4 MSTORE PUSH1 0x24 PUSH0 REVERT JUMPDEST SWAP1 PUSH2 0x53A SWAP1 PUSH2 0x11D JUMP JUMPDEST DUP2 ADD SWAP1 DUP2 LT PUSH8 0xFFFFFFFFFFFFFFFF DUP3 GT OR PUSH2 0x554 JUMPI PUSH1 0x40 MSTORE JUMP JUMPDEST PUSH2 0x51C JUMP JUMPDEST SWAP1 PUSH2 0x579 PUSH2 0x572 SWAP3 PUSH2 0x569 PUSH2 0xA2 JUMP JUMPDEST SWAP4 DUP5 DUP1 SWAP3 PUSH2 0x50F JUMP JUMPDEST SUB DUP4 PUSH2 0x530 JUMP JUMPDEST JUMP JUMPDEST PUSH1 0xFF AND SWAP1 JUMP JUMPDEST PUSH2 0x58D PUSH2 0x592 SWAP2 PUSH2 0x413 JUMP JUMPDEST PUSH2 0x57B JUMP JUMPDEST SWAP1 JUMP JUMPDEST PUSH2 0x59F SWAP1 SLOAD PUSH2 0x581 JUMP JUMPDEST SWAP1 JUMP JUMPDEST PUSH1 0xFF AND SWAP1 JUMP JUMPDEST PUSH2 0x5B4 PUSH2 0x5B9 SWAP2 PUSH2 0x413 JUMP JUMPDEST PUSH2 0x5A2 JUMP JUMPDEST SWAP1 JUMP JUMPDEST PUSH2 0x5C6 SWAP1 SLOAD PUSH2 0x5A8 JUMP JUMPDEST SWAP1 JUMP JUMPDEST PUSH1 0x2 SWAP1 PUSH2 0x5D5 DUP3 PUSH2 0x3DE JUMP JUMPDEST DUP2 LT ISZERO PUSH2 0x635 JUMPI PUSH2 0x5E5 SWAP2 PUSH2 0x3EB JUMP JUMPDEST POP SWAP1 PUSH2 0x5F2 PUSH0 DUP4 ADD PUSH2 0x42F JUMP JUMPDEST SWAP2 PUSH2 0x5FF PUSH1 0x1 DUP3 ADD PUSH2 0x559 JUMP JUMPDEST SWAP2 PUSH2 0x60C PUSH1 0x2 DUP4 ADD PUSH2 0x42F JUMP JUMPDEST SWAP2 PUSH2 0x619 PUSH1 0x3 DUP3 ADD PUSH2 0x595 JUMP JUMPDEST SWAP2 PUSH2 0x632 PUSH1 0x5 PUSH2 0x62B PUSH1 0x4 DUP6 ADD PUSH2 0x42F JUMP JUMPDEST SWAP4 ADD PUSH2 0x5BC JUMP JUMPDEST SWAP1 JUMP JUMPDEST PUSH0 DUP1 REVERT JUMPDEST PUSH2 0x642 SWAP1 PUSH2 0xB4 JUMP JUMPDEST SWAP1 MSTORE JUMP JUMPDEST PUSH1 0x20 SWAP2 DUP2 MSTORE ADD SWAP1 JUMP JUMPDEST PUSH2 0x66E PUSH2 0x677 PUSH1 0x20 SWAP4 PUSH2 0x67C SWAP4 PUSH2 0x665 DUP2 PUSH2 0x105 JUMP JUMPDEST SWAP4 DUP5 DUP1 SWAP4 PUSH2 0x646 JUMP JUMPDEST SWAP6 DUP7 SWAP2 ADD PUSH2 0x112 JUMP JUMPDEST PUSH2 0x11D JUMP JUMPDEST ADD SWAP1 JUMP JUMPDEST PUSH2 0x689 SWAP1 PUSH2 0x158 JUMP JUMPDEST SWAP1 MSTORE JUMP JUMPDEST PUSH2 0x696 SWAP1 PUSH2 0x19A JUMP JUMPDEST SWAP1 MSTORE JUMP JUMPDEST SWAP2 SWAP5 PUSH2 0x6E6 PUSH1 0xA0 SWAP5 SWAP9 SWAP8 SWAP6 PUSH2 0x6DC PUSH2 0x6D1 PUSH2 0x6F0 SWAP6 PUSH2 0x6F7 SWAP11 PUSH2 0x6C4 PUSH1 0xC0 DUP11 ADD SWAP3 PUSH0 DUP12 ADD SWAP1 PUSH2 0x639 JUMP JUMPDEST DUP9 DUP3 SUB PUSH1 0x20 DUP11 ADD MSTORE PUSH2 0x64F JUMP JUMPDEST SWAP11 PUSH1 0x40 DUP8 ADD SWAP1 PUSH2 0x639 JUMP JUMPDEST PUSH1 0x60 DUP6 ADD SWAP1 PUSH2 0x680 JUMP JUMPDEST PUSH1 0x80 DUP4 ADD SWAP1 PUSH2 0x639 JUMP JUMPDEST ADD SWAP1 PUSH2 0x68D JUMP JUMPDEST JUMP JUMPDEST CALLVALUE PUSH2 0x730 JUMPI PUSH2 0x72C PUSH2 0x714 PUSH2 0x70F CALLDATASIZE PUSH1 0x4 PUSH2 0xDA JUMP JUMPDEST PUSH2 0x5C9 JUMP JUMPDEST SWAP3 PUSH2 0x723 SWAP7 SWAP5 SWAP7 SWAP3 SWAP2 SWAP3 PUSH2 0xA2 JUMP JUMPDEST SWAP7 DUP8 SWAP7 DUP8 PUSH2 0x69A JUMP JUMPDEST SUB SWAP1 RETURN JUMPDEST PUSH2 0xA8 JUMP JUMPDEST PUSH2 0x73E SWAP1 PUSH2 0x1D1 JUMP JUMPDEST SWAP1 MSTORE JUMP JUMPDEST SWAP2 SWAP1 PUSH2 0x755 SWAP1 PUSH0 PUSH1 0x20 DUP6 ADD SWAP5 ADD SWAP1 PUSH2 0x735 JUMP JUMPDEST JUMP JUMPDEST CALLVALUE PUSH2 0x787 JUMPI PUSH2 0x767 CALLDATASIZE PUSH1 0x4 PUSH2 0x383 JUMP JUMPDEST PUSH2 0x783 PUSH2 0x772 PUSH2 0xF23 JUMP JUMPDEST PUSH2 0x77A PUSH2 0xA2 JUMP JUMPDEST SWAP2 DUP3 SWAP2 DUP3 PUSH2 0x742 JUMP JUMPDEST SUB SWAP1 RETURN JUMPDEST PUSH2 0xA8 JUMP JUMPDEST PUSH0 DUP1 REVERT JUMPDEST PUSH0 DUP1 REVERT JUMPDEST SWAP1 PUSH2 0x7A7 PUSH2 0x7A0 PUSH2 0xA2 JUMP JUMPDEST SWAP3 DUP4 PUSH2 0x530 JUMP JUMPDEST JUMP JUMPDEST PUSH8 0xFFFFFFFFFFFFFFFF DUP2 GT PUSH2 0x7C7 JUMPI PUSH2 0x7C3 PUSH1 0x20 SWAP2 PUSH2 0x11D JUMP JUMPDEST ADD SWAP1 JUMP JUMPDEST PUSH2 0x51C JUMP JUMPDEST SWAP1 DUP3 PUSH0 SWAP4 SWAP3 DUP3 CALLDATACOPY ADD MSTORE JUMP JUMPDEST SWAP1 SWAP3 SWAP2 SWAP3 PUSH2 0x7EC PUSH2 0x7E7 DUP3 PUSH2 0x7A9 JUMP JUMPDEST PUSH2 0x794 JUMP JUMPDEST SWAP4 DUP2 DUP6 MSTORE PUSH1 0x20 DUP6 ADD SWAP1 DUP3 DUP5 ADD GT PUSH2 0x808 JUMPI PUSH2 0x806 SWAP3 PUSH2 0x7CC JUMP JUMPDEST JUMP JUMPDEST PUSH2 0x790 JUMP JUMPDEST SWAP1 DUP1 PUSH1 0x1F DUP4 ADD SLT ISZERO PUSH2 0x82B JUMPI DUP2 PUSH1 0x20 PUSH2 0x828 SWAP4 CALLDATALOAD SWAP2 ADD PUSH2 0x7D7 JUMP JUMPDEST SWAP1 JUMP JUMPDEST PUSH2 0x78C JUMP JUMPDEST PUSH2 0x839 DUP2 PUSH2 0x158 JUMP JUMPDEST SUB PUSH2 0x840 JUMPI JUMP JUMPDEST PUSH0 DUP1 REVERT JUMPDEST SWAP1 POP CALLDATALOAD SWAP1 PUSH2 0x851 DUP3 PUSH2 0x830 JUMP JUMPDEST JUMP JUMPDEST PUSH1 0x3 GT ISZERO PUSH2 0x85D JUMPI JUMP JUMPDEST PUSH0 DUP1 REVERT JUMPDEST SWAP1 POP CALLDATALOAD SWAP1 PUSH2 0x86E DUP3 PUSH2 0x853 JUMP JUMPDEST JUMP JUMPDEST SWAP2 SWAP1 PUSH1 0xA0 DUP4 DUP3 SUB SLT PUSH2 0x8D9 JUMPI PUSH0 DUP4 ADD CALLDATALOAD PUSH8 0xFFFFFFFFFFFFFFFF DUP2 GT PUSH2 0x8D4 JUMPI DUP2 PUSH2 0x89B SWAP2 DUP6 ADD PUSH2 0x80D JUMP JUMPDEST SWAP3 PUSH2 0x8A9 DUP3 PUSH1 0x20 DUP4 ADD PUSH2 0xCB JUMP JUMPDEST SWAP3 PUSH2 0x8D1 PUSH2 0x8BA DUP5 PUSH1 0x40 DUP6 ADD PUSH2 0x844 JUMP JUMPDEST SWAP4 PUSH2 0x8C8 DUP2 PUSH1 0x60 DUP7 ADD PUSH2 0xCB JUMP JUMPDEST SWAP4 PUSH1 0x80 ADD PUSH2 0x861 JUMP JUMPDEST SWAP1 JUMP JUMPDEST PUSH2 0xB0 JUMP JUMPDEST PUSH2 0xAC JUMP JUMPDEST CALLVALUE PUSH2 0x910 JUMPI PUSH2 0x8FA PUSH2 0x8F1 CALLDATASIZE PUSH1 0x4 PUSH2 0x870 JUMP JUMPDEST SWAP4 SWAP3 SWAP1 SWAP3 PUSH2 0x18B2 JUMP JUMPDEST PUSH2 0x902 PUSH2 0xA2 JUMP JUMPDEST DUP1 PUSH2 0x90C DUP2 PUSH2 0x392 JUMP JUMPDEST SUB SWAP1 RETURN JUMPDEST PUSH2 0xA8 JUMP JUMPDEST PUSH2 0x91E DUP2 PUSH2 0x1D1 JUMP JUMPDEST SUB PUSH2 0x925 JUMPI JUMP JUMPDEST PUSH0 DUP1 REVERT JUMPDEST SWAP1 POP CALLDATALOAD SWAP1 PUSH2 0x936 DUP3 PUSH2 0x915 JUMP JUMPDEST JUMP JUMPDEST SWAP1 PUSH1 0x20 DUP3 DUP3 SUB SLT PUSH2 0x951 JUMPI PUSH2 0x94E SWAP2 PUSH0 ADD PUSH2 0x929 JUMP JUMPDEST SWAP1 JUMP JUMPDEST PUSH2 0xAC JUMP JUMPDEST CALLVALUE PUSH2 0x984 JUMPI PUSH2 0x96E PUSH2 0x969 CALLDATASIZE PUSH1 0x4 PUSH2 0x938 JUMP JUMPDEST PUSH2 0x1BD7 JUMP JUMPDEST PUSH2 0x976 PUSH2 0xA2 JUMP JUMPDEST DUP1 PUSH2 0x980 DUP2 PUSH2 0x392 JUMP JUMPDEST SUB SWAP1 RETURN JUMPDEST PUSH2 0xA8 JUMP JUMPDEST MLOAD SWAP1 JUMP JUMPDEST PUSH1 0x20 SWAP2 DUP2 MSTORE ADD SWAP1 JUMP JUMPDEST PUSH1 0x20 ADD SWAP1 JUMP JUMPDEST PUSH2 0xA24 SWAP2 PUSH1 0xC0 PUSH2 0x9CB PUSH1 0xE0 DUP4 ADD PUSH2 0x9B9 PUSH0 DUP7 ADD MLOAD PUSH0 DUP7 ADD SWAP1 PUSH2 0xF8 JUMP JUMPDEST PUSH1 0x20 DUP6 ADD MLOAD DUP5 DUP3 SUB PUSH1 0x20 DUP7 ADD MSTORE PUSH2 0x127 JUMP JUMPDEST SWAP3 PUSH2 0x9DE PUSH1 0x40 DUP3 ADD MLOAD PUSH1 0x40 DUP6 ADD SWAP1 PUSH2 0xF8 JUMP JUMPDEST PUSH2 0x9F0 PUSH1 0x60 DUP3 ADD MLOAD PUSH1 0x60 DUP6 ADD SWAP1 PUSH2 0x15E JUMP JUMPDEST PUSH2 0xA02 PUSH1 0x80 DUP3 ADD MLOAD PUSH1 0x80 DUP6 ADD SWAP1 PUSH2 0xF8 JUMP JUMPDEST PUSH2 0xA14 PUSH1 0xA0 DUP3 ADD MLOAD PUSH1 0xA0 DUP6 ADD SWAP1 PUSH2 0x1A6 JUMP JUMPDEST ADD MLOAD SWAP1 PUSH1 0xC0 DUP2 DUP5 SUB SWAP2 ADD MSTORE PUSH2 0x25B JUMP JUMPDEST SWAP1 JUMP JUMPDEST SWAP1 PUSH2 0xA31 SWAP2 PUSH2 0x99C JUMP JUMPDEST SWAP1 JUMP JUMPDEST PUSH1 0x20 ADD SWAP1 JUMP JUMPDEST SWAP1 PUSH2 0xA4E PUSH2 0xA47 DUP4 PUSH2 0x989 JUMP JUMPDEST DUP1 SWAP3 PUSH2 0x98D JUMP JUMPDEST SWAP1 DUP2 PUSH2 0xA5F PUSH1 0x20 DUP4 MUL DUP5 ADD SWAP5 PUSH2 0x996 JUMP JUMPDEST SWAP3 PUSH0 SWAP2 JUMPDEST DUP4 DUP4 LT PUSH2 0xA72 JUMPI POP POP POP POP POP SWAP1 JUMP JUMPDEST SWAP1 SWAP2 SWAP3 SWAP4 SWAP5 PUSH1 0x20 PUSH2 0xA94 PUSH2 0xA8E DUP4 DUP6 PUSH1 0x1 SWAP6 SUB DUP8 MSTORE DUP10 MLOAD PUSH2 0xA27 JUMP JUMPDEST SWAP8 PUSH2 0xA34 JUMP JUMPDEST SWAP4 ADD SWAP4 ADD SWAP2 SWAP4 SWAP3 SWAP1 PUSH2 0xA63 JUMP JUMPDEST PUSH2 0xAB6 SWAP2 PUSH1 0x20 DUP3 ADD SWAP2 PUSH0 DUP2 DUP5 SUB SWAP2 ADD MSTORE PUSH2 0xA3A JUMP JUMPDEST SWAP1 JUMP JUMPDEST CALLVALUE PUSH2 0xAE9 JUMPI PUSH2 0xAC9 CALLDATASIZE PUSH1 0x4 PUSH2 0x383 JUMP JUMPDEST PUSH2 0xAE5 PUSH2 0xAD4 PUSH2 0x1C76 JUMP JUMPDEST PUSH2 0xADC PUSH2 0xA2 JUMP JUMPDEST SWAP2 DUP3 SWAP2 DUP3 PUSH2 0xAA1 JUMP JUMPDEST SUB SWAP1 RETURN JUMPDEST PUSH2 0xA8 JUMP JUMPDEST SHR SWAP1 JUMP JUMPDEST PUSH1 0x1 DUP1 PUSH1 0xA0 SHL SUB AND SWAP1 JUMP JUMPDEST PUSH2 0xB0D SWAP1 PUSH1 0x8 PUSH2 0xB12 SWAP4 MUL PUSH2 0xAEE JUMP JUMPDEST PUSH2 0xAF2 JUMP JUMPDEST SWAP1 JUMP JUMPDEST SWAP1 PUSH2 0xB20 SWAP2 SLOAD PUSH2 0xAFD JUMP JUMPDEST SWAP1 JUMP JUMPDEST PUSH2 0xB2F PUSH1 0x1 PUSH0 SWAP1 PUSH2 0xB15 JUMP JUMPDEST SWAP1 JUMP JUMPDEST SWAP1 JUMP JUMPDEST PUSH2 0xB49 PUSH2 0xB44 PUSH2 0xB4E SWAP3 PUSH2 0x1C6 JUMP JUMPDEST PUSH2 0xB32 JUMP JUMPDEST PUSH2 0x1C6 JUMP JUMPDEST SWAP1 JUMP JUMPDEST PUSH2 0xB5A SWAP1 PUSH2 0xB35 JUMP JUMPDEST SWAP1 JUMP JUMPDEST PUSH2 0xB66 SWAP1 PUSH2 0xB51 JUMP JUMPDEST SWAP1 JUMP JUMPDEST PUSH2 0xB72 SWAP1 PUSH2 0xB5D JUMP JUMPDEST SWAP1 MSTORE JUMP JUMPDEST SWAP2 SWAP1 PUSH2 0xB89 SWAP1 PUSH0 PUSH1 0x20 DUP6 ADD SWAP5 ADD SWAP1 PUSH2 0xB69 JUMP JUMPDEST JUMP JUMPDEST CALLVALUE PUSH2 0xBBB JUMPI PUSH2 0xB9B CALLDATASIZE PUSH1 0x4 PUSH2 0x383 JUMP JUMPDEST PUSH2 0xBB7 PUSH2 0xBA6 PUSH2 0xB23 JUMP JUMPDEST PUSH2 0xBAE PUSH2 0xA2 JUMP JUMPDEST SWAP2 DUP3 SWAP2 DUP3 PUSH2 0xB76 JUMP JUMPDEST SUB SWAP1 RETURN JUMPDEST PUSH2 0xA8 JUMP JUMPDEST PUSH0 DUP1 REVERT JUMPDEST PUSH2 0xBCE PUSH1 0xE0 PUSH2 0x794 JUMP JUMPDEST SWAP1 JUMP JUMPDEST PUSH0 SWAP1 JUMP JUMPDEST PUSH1 0x60 SWAP1 JUMP JUMPDEST PUSH0 SWAP1 JUMP JUMPDEST PUSH0 SWAP1 JUMP JUMPDEST PUSH1 0x60 SWAP1 JUMP JUMPDEST PUSH2 0xBEF PUSH2 0xBC4 JUMP JUMPDEST SWAP1 PUSH1 0x20 DUP1 DUP1 DUP1 DUP1 DUP1 DUP1 DUP9 PUSH2 0xC01 PUSH2 0xBD1 JUMP JUMPDEST DUP2 MSTORE ADD PUSH2 0xC0C PUSH2 0xBD5 JUMP JUMPDEST DUP2 MSTORE ADD PUSH2 0xC17 PUSH2 0xBD1 JUMP JUMPDEST DUP2 MSTORE ADD PUSH2 0xC22 PUSH2 0xBDA JUMP JUMPDEST DUP2 MSTORE ADD PUSH2 0xC2D PUSH2 0xBD1 JUMP JUMPDEST DUP2 MSTORE ADD PUSH2 0xC38 PUSH2 0xBDE JUMP JUMPDEST DUP2 MSTORE ADD PUSH2 0xC43 PUSH2 0xBE2 JUMP JUMPDEST DUP2 MSTORE POP POP JUMP JUMPDEST PUSH2 0xC51 PUSH2 0xBE7 JUMP JUMPDEST SWAP1 JUMP JUMPDEST SWAP1 PUSH2 0xC5E SWAP1 PUSH2 0xB4 JUMP JUMPDEST SWAP1 MSTORE JUMP JUMPDEST MSTORE JUMP JUMPDEST SWAP1 PUSH2 0xC6F SWAP1 PUSH2 0x158 JUMP JUMPDEST SWAP1 MSTORE JUMP JUMPDEST SWAP1 PUSH2 0xC7D SWAP1 PUSH2 0x18E JUMP JUMPDEST SWAP1 MSTORE JUMP JUMPDEST SLOAD SWAP1 JUMP JUMPDEST PUSH8 0xFFFFFFFFFFFFFFFF DUP2 GT PUSH2 0xC9D JUMPI PUSH1 0x20 DUP1 SWAP2 MUL ADD SWAP1 JUMP JUMPDEST PUSH2 0x51C JUMP JUMPDEST SWAP1 PUSH2 0xCB4 PUSH2 0xCAF DUP4 PUSH2 0xC85 JUMP JUMPDEST PUSH2 0x794 JUMP JUMPDEST SWAP2 DUP3 MSTORE JUMP JUMPDEST PUSH0 MSTORE PUSH1 0x20 PUSH0 KECCAK256 SWAP1 JUMP JUMPDEST PUSH1 0x1 DUP1 PUSH1 0xA0 SHL SUB AND SWAP1 JUMP JUMPDEST PUSH2 0xCD9 PUSH2 0xCDE SWAP2 PUSH2 0x413 JUMP JUMPDEST PUSH2 0xCC2 JUMP JUMPDEST SWAP1 JUMP JUMPDEST PUSH2 0xCEB SWAP1 SLOAD PUSH2 0xCCD JUMP JUMPDEST SWAP1 JUMP JUMPDEST SWAP1 PUSH2 0xCF8 SWAP1 PUSH2 0x1D1 JUMP JUMPDEST SWAP1 MSTORE JUMP JUMPDEST PUSH2 0xD06 PUSH1 0xA0 PUSH2 0x794 JUMP JUMPDEST SWAP1 JUMP JUMPDEST SWAP1 PUSH2 0xD88 PUSH2 0xD7F PUSH1 0x4 PUSH2 0xD1A PUSH2 0xCFC JUMP JUMPDEST SWAP5 PUSH2 0xD31 PUSH2 0xD29 PUSH0 DUP4 ADD PUSH2 0xCE1 JUMP JUMPDEST PUSH0 DUP9 ADD PUSH2 0xCEE JUMP JUMPDEST PUSH2 0xD49 PUSH2 0xD40 PUSH1 0x1 DUP4 ADD PUSH2 0x42F JUMP JUMPDEST PUSH1 0x20 DUP9 ADD PUSH2 0xC54 JUMP JUMPDEST PUSH2 0xD61 PUSH2 0xD58 PUSH1 0x2 DUP4 ADD PUSH2 0xCE1 JUMP JUMPDEST PUSH1 0x40 DUP9 ADD PUSH2 0xCEE JUMP JUMPDEST PUSH2 0xD79 PUSH2 0xD70 PUSH1 0x3 DUP4 ADD PUSH2 0x42F JUMP JUMPDEST PUSH1 0x60 DUP9 ADD PUSH2 0xC54 JUMP JUMPDEST ADD PUSH2 0x5BC JUMP JUMPDEST PUSH1 0x80 DUP5 ADD PUSH2 0xC73 JUMP JUMPDEST JUMP JUMPDEST PUSH2 0xD93 SWAP1 PUSH2 0xD09 JUMP JUMPDEST SWAP1 JUMP JUMPDEST SWAP1 PUSH2 0xDA0 DUP3 PUSH2 0xC81 JUMP JUMPDEST PUSH2 0xDA9 DUP2 PUSH2 0xCA2 JUMP JUMPDEST SWAP3 PUSH2 0xDB7 PUSH1 0x20 DUP6 ADD SWAP2 PUSH2 0xCB9 JUMP JUMPDEST PUSH0 SWAP2 JUMPDEST DUP4 DUP4 LT PUSH2 0xDC7 JUMPI POP POP POP POP JUMP JUMPDEST PUSH1 0x5 PUSH1 0x20 PUSH1 0x1 SWAP3 PUSH2 0xDD7 DUP6 PUSH2 0xD8A JUMP JUMPDEST DUP2 MSTORE ADD SWAP3 ADD SWAP3 ADD SWAP2 SWAP1 PUSH2 0xDBA JUMP JUMPDEST MSTORE JUMP JUMPDEST SWAP1 PUSH2 0xE97 PUSH2 0xE8E PUSH1 0x6 PUSH2 0xDF9 PUSH2 0xBC4 JUMP JUMPDEST SWAP5 PUSH2 0xE10 PUSH2 0xE08 PUSH0 DUP4 ADD PUSH2 0x42F JUMP JUMPDEST PUSH0 DUP9 ADD PUSH2 0xC54 JUMP JUMPDEST PUSH2 0xE28 PUSH2 0xE1F PUSH1 0x1 DUP4 ADD PUSH2 0x559 JUMP JUMPDEST PUSH1 0x20 DUP9 ADD PUSH2 0xC62 JUMP JUMPDEST PUSH2 0xE40 PUSH2 0xE37 PUSH1 0x2 DUP4 ADD PUSH2 0x42F JUMP JUMPDEST PUSH1 0x40 DUP9 ADD PUSH2 0xC54 JUMP JUMPDEST PUSH2 0xE58 PUSH2 0xE4F PUSH1 0x3 DUP4 ADD PUSH2 0x595 JUMP JUMPDEST PUSH1 0x60 DUP9 ADD PUSH2 0xC65 JUMP JUMPDEST PUSH2 0xE70 PUSH2 0xE67 PUSH1 0x4 DUP4 ADD PUSH2 0x42F JUMP JUMPDEST PUSH1 0x80 DUP9 ADD PUSH2 0xC54 JUMP JUMPDEST PUSH2 0xE88 PUSH2 0xE7F PUSH1 0x5 DUP4 ADD PUSH2 0x5BC JUMP JUMPDEST PUSH1 0xA0 DUP9 ADD PUSH2 0xC73 JUMP JUMPDEST ADD PUSH2 0xD96 JUMP JUMPDEST PUSH1 0xC0 DUP5 ADD PUSH2 0xDE5 JUMP JUMPDEST JUMP JUMPDEST PUSH2 0xEA2 SWAP1 PUSH2 0xDE8 JUMP JUMPDEST SWAP1 JUMP JUMPDEST PUSH2 0xEBC PUSH2 0xEC2 SWAP2 PUSH2 0xEB4 PUSH2 0xC49 JUMP JUMPDEST POP PUSH1 0x2 PUSH2 0x3EB JUMP JUMPDEST POP PUSH2 0xE99 JUMP JUMPDEST SWAP1 JUMP JUMPDEST PUSH2 0xECD PUSH2 0x1C8C JUMP JUMPDEST PUSH2 0xED5 PUSH2 0xF02 JUMP JUMPDEST JUMP JUMPDEST SWAP1 JUMP JUMPDEST PUSH2 0xEEE PUSH2 0xEE9 PUSH2 0xEF3 SWAP3 PUSH2 0xED7 JUMP JUMPDEST PUSH2 0xB32 JUMP JUMPDEST PUSH2 0x1C6 JUMP JUMPDEST SWAP1 JUMP JUMPDEST PUSH2 0xEFF SWAP1 PUSH2 0xEDA JUMP JUMPDEST SWAP1 JUMP JUMPDEST PUSH2 0xF13 PUSH2 0xF0E PUSH0 PUSH2 0xEF6 JUMP JUMPDEST PUSH2 0x1CDA JUMP JUMPDEST JUMP JUMPDEST PUSH2 0xF1D PUSH2 0xEC5 JUMP JUMPDEST JUMP JUMPDEST PUSH0 SWAP1 JUMP JUMPDEST PUSH2 0xF2B PUSH2 0xF1F JUMP JUMPDEST POP PUSH2 0xF35 PUSH0 PUSH2 0xCE1 JUMP JUMPDEST SWAP1 JUMP JUMPDEST PUSH2 0xF44 PUSH2 0xF49 SWAP2 PUSH2 0x413 JUMP JUMPDEST PUSH2 0xAF2 JUMP JUMPDEST SWAP1 JUMP JUMPDEST PUSH2 0xF56 SWAP1 SLOAD PUSH2 0xF38 JUMP JUMPDEST SWAP1 JUMP JUMPDEST PUSH1 0xE0 SHL SWAP1 JUMP JUMPDEST SWAP1 POP MLOAD SWAP1 PUSH2 0xF6C DUP3 PUSH2 0xB7 JUMP JUMPDEST JUMP JUMPDEST SWAP1 PUSH1 0x20 DUP3 DUP3 SUB SLT PUSH2 0xF87 JUMPI PUSH2 0xF84 SWAP2 PUSH0 ADD PUSH2 0xF5F JUMP JUMPDEST SWAP1 JUMP JUMPDEST PUSH2 0xAC JUMP JUMPDEST PUSH2 0xF94 PUSH2 0xA2 JUMP JUMPDEST RETURNDATASIZE PUSH0 DUP3 RETURNDATACOPY RETURNDATASIZE SWAP1 REVERT JUMPDEST PUSH0 PUSH32 0x6E6F7420656E6F7567682063617368207374616E676572000000000000000000 SWAP2 ADD MSTORE JUMP JUMPDEST PUSH2 0xFD0 PUSH1 0x17 PUSH1 0x20 SWAP3 PUSH2 0x646 JUMP JUMPDEST PUSH2 0xFD9 DUP2 PUSH2 0xF9C JUMP JUMPDEST ADD SWAP1 JUMP JUMPDEST PUSH2 0xFF2 SWAP1 PUSH1 0x20 DUP2 ADD SWAP1 PUSH0 DUP2 DUP4 SUB SWAP2 ADD MSTORE PUSH2 0xFC3 JUMP JUMPDEST SWAP1 JUMP JUMPDEST ISZERO PUSH2 0xFFC JUMPI JUMP JUMPDEST PUSH2 0x1004 PUSH2 0xA2 JUMP JUMPDEST PUSH3 0x461BCD PUSH1 0xE5 SHL DUP2 MSTORE DUP1 PUSH2 0x101A PUSH1 0x4 DUP3 ADD PUSH2 0xFDD JUMP JUMPDEST SUB SWAP1 REVERT JUMPDEST PUSH2 0x1027 SWAP1 PUSH2 0xB51 JUMP JUMPDEST SWAP1 JUMP JUMPDEST ISZERO ISZERO SWAP1 JUMP JUMPDEST PUSH2 0x1038 DUP2 PUSH2 0x102A JUMP JUMPDEST SUB PUSH2 0x103F JUMPI JUMP JUMPDEST PUSH0 DUP1 REVERT JUMPDEST SWAP1 POP MLOAD SWAP1 PUSH2 0x1050 DUP3 PUSH2 0x102F JUMP JUMPDEST JUMP JUMPDEST SWAP1 PUSH1 0x20 DUP3 DUP3 SUB SLT PUSH2 0x106B JUMPI PUSH2 0x1068 SWAP2 PUSH0 ADD PUSH2 0x1043 JUMP JUMPDEST SWAP1 JUMP JUMPDEST PUSH2 0xAC JUMP JUMPDEST PUSH1 0x40 SWAP1 PUSH2 0x1099 PUSH2 0x10A0 SWAP5 SWAP7 SWAP6 SWAP4 SWAP7 PUSH2 0x108F PUSH1 0x60 DUP5 ADD SWAP9 PUSH0 DUP6 ADD SWAP1 PUSH2 0x735 JUMP JUMPDEST PUSH1 0x20 DUP4 ADD SWAP1 PUSH2 0x735 JUMP JUMPDEST ADD SWAP1 PUSH2 0x639 JUMP JUMPDEST JUMP JUMPDEST SWAP1 JUMP JUMPDEST PUSH2 0x10B9 PUSH2 0x10B4 PUSH2 0x10BE SWAP3 PUSH2 0x10A2 JUMP JUMPDEST PUSH2 0xB32 JUMP JUMPDEST PUSH2 0xB4 JUMP JUMPDEST SWAP1 JUMP JUMPDEST PUSH0 SWAP1 JUMP JUMPDEST PUSH2 0x10CD PUSH2 0xCFC JUMP JUMPDEST SWAP1 PUSH1 0x20 DUP1 DUP1 DUP1 DUP1 DUP7 PUSH2 0x10DD PUSH2 0x10C1 JUMP JUMPDEST DUP2 MSTORE ADD PUSH2 0x10E8 PUSH2 0xBD1 JUMP JUMPDEST DUP2 MSTORE ADD PUSH2 0x10F3 PUSH2 0x10C1 JUMP JUMPDEST DUP2 MSTORE ADD PUSH2 0x10FE PUSH2 0xBD1 JUMP JUMPDEST DUP2 MSTORE ADD PUSH2 0x1109 PUSH2 0xBDE JUMP JUMPDEST DUP2 MSTORE POP POP JUMP JUMPDEST PUSH2 0x1117 PUSH2 0x10C5 JUMP JUMPDEST SWAP1 JUMP JUMPDEST PUSH0 JUMPDEST DUP3 DUP2 LT PUSH2 0x1128 JUMPI POP POP POP JUMP JUMPDEST PUSH1 0x20 SWAP1 PUSH2 0x1133 PUSH2 0x110F JUMP JUMPDEST DUP2 DUP5 ADD MSTORE ADD PUSH2 0x111C JUMP JUMPDEST SWAP1 PUSH2 0x1162 PUSH2 0x114A DUP4 PUSH2 0xCA2 JUMP JUMPDEST SWAP3 PUSH1 0x20 DUP1 PUSH2 0x1158 DUP7 SWAP4 PUSH2 0xC85 JUMP JUMPDEST SWAP3 ADD SWAP2 SUB SWAP1 PUSH2 0x111A JUMP JUMPDEST JUMP JUMPDEST PUSH2 0x116E PUSH1 0xA0 PUSH2 0x794 JUMP JUMPDEST SWAP1 JUMP JUMPDEST PUSH2 0x1185 PUSH2 0x1180 PUSH2 0x118A SWAP3 PUSH2 0xED7 JUMP JUMPDEST PUSH2 0xB32 JUMP JUMPDEST PUSH2 0xB4 JUMP JUMPDEST SWAP1 JUMP JUMPDEST SWAP1 PUSH2 0x1197 DUP3 PUSH2 0x1B3 JUMP JUMPDEST DUP2 LT ISZERO PUSH2 0x11A8 JUMPI PUSH1 0x20 DUP1 SWAP2 MUL ADD ADD SWAP1 JUMP JUMPDEST PUSH2 0x3CA JUMP JUMPDEST SWAP1 JUMP JUMPDEST PUSH2 0x11BA PUSH1 0xE0 PUSH2 0x794 JUMP JUMPDEST SWAP1 JUMP JUMPDEST PUSH0 MSTORE PUSH1 0x20 PUSH0 KECCAK256 SWAP1 JUMP JUMPDEST SLOAD SWAP1 JUMP JUMPDEST PUSH2 0x11D3 DUP2 PUSH2 0x11C6 JUMP JUMPDEST DUP3 LT ISZERO PUSH2 0x11ED JUMPI PUSH2 0x11E5 PUSH1 0x7 SWAP2 PUSH2 0x11BD JUMP JUMPDEST SWAP2 MUL ADD SWAP1 PUSH0 SWAP1 JUMP JUMPDEST PUSH2 0x3CA JUMP JUMPDEST PUSH4 0x4E487B71 PUSH1 0xE0 SHL PUSH0 MSTORE PUSH0 PUSH1 0x4 MSTORE PUSH1 0x24 PUSH0 REVERT JUMPDEST PUSH2 0x120F SWAP1 MLOAD PUSH2 0xB4 JUMP JUMPDEST SWAP1 JUMP JUMPDEST PUSH0 SHL SWAP1 JUMP JUMPDEST SWAP1 PUSH2 0x1223 PUSH0 NOT SWAP2 PUSH2 0x1212 JUMP JUMPDEST SWAP2 DUP2 NOT AND SWAP2 AND OR SWAP1 JUMP JUMPDEST PUSH2 0x1241 PUSH2 0x123C PUSH2 0x1246 SWAP3 PUSH2 0xB4 JUMP JUMPDEST PUSH2 0xB32 JUMP JUMPDEST PUSH2 0xB4 JUMP JUMPDEST SWAP1 JUMP JUMPDEST SWAP1 JUMP JUMPDEST SWAP1 PUSH2 0x1261 PUSH2 0x125C PUSH2 0x1268 SWAP3 PUSH2 0x122D JUMP JUMPDEST PUSH2 0x1249 JUMP JUMPDEST DUP3 SLOAD PUSH2 0x1217 JUMP JUMPDEST SWAP1 SSTORE JUMP JUMPDEST MLOAD SWAP1 JUMP JUMPDEST PUSH1 0x1F PUSH1 0x20 SWAP2 ADD DIV SWAP1 JUMP JUMPDEST SHL SWAP1 JUMP JUMPDEST SWAP2 SWAP1 PUSH1 0x8 PUSH2 0x1299 SWAP2 MUL SWAP2 PUSH2 0x1293 PUSH0 NOT DUP5 PUSH2 0x127A JUMP JUMPDEST SWAP3 PUSH2 0x127A JUMP JUMPDEST SWAP2 DUP2 NOT AND SWAP2 AND OR SWAP1 JUMP JUMPDEST SWAP2 SWAP1 PUSH2 0x12B9 PUSH2 0x12B4 PUSH2 0x12C1 SWAP4 PUSH2 0x122D JUMP JUMPDEST PUSH2 0x1249 JUMP JUMPDEST SWAP1 DUP4 SLOAD PUSH2 0x127E JUMP JUMPDEST SWAP1 SSTORE JUMP JUMPDEST PUSH0 SWAP1 JUMP JUMPDEST PUSH2 0x12DB SWAP2 PUSH2 0x12D5 PUSH2 0x12C5 JUMP JUMPDEST SWAP2 PUSH2 0x12A3 JUMP JUMPDEST JUMP JUMPDEST JUMPDEST DUP2 DUP2 LT PUSH2 0x12E9 JUMPI POP POP JUMP JUMPDEST DUP1 PUSH2 0x12F6 PUSH0 PUSH1 0x1 SWAP4 PUSH2 0x12C9 JUMP JUMPDEST ADD PUSH2 0x12DE JUMP JUMPDEST SWAP2 SWAP1 PUSH1 0x1F DUP2 GT PUSH2 0x130C JUMPI JUMPDEST POP POP POP JUMP JUMPDEST PUSH2 0x1318 PUSH2 0x133D SWAP4 PUSH2 0x47A JUMP JUMPDEST SWAP1 PUSH1 0x20 PUSH2 0x1324 DUP5 PUSH2 0x1270 JUMP JUMPDEST DUP4 ADD SWAP4 LT PUSH2 0x1345 JUMPI JUMPDEST PUSH2 0x1336 SWAP1 PUSH2 0x1270 JUMP JUMPDEST ADD SWAP1 PUSH2 0x12DD JUMP JUMPDEST PUSH0 DUP1 DUP1 PUSH2 0x1307 JUMP JUMPDEST SWAP2 POP PUSH2 0x1336 DUP2 SWAP3 SWAP1 POP PUSH2 0x132D JUMP JUMPDEST SWAP1 PUSH2 0x1363 SWAP1 PUSH0 NOT SWAP1 PUSH1 0x8 MUL PUSH2 0xAEE JUMP JUMPDEST NOT AND SWAP1 JUMP JUMPDEST DUP2 PUSH2 0x1372 SWAP2 PUSH2 0x1353 JUMP JUMPDEST SWAP1 PUSH1 0x2 MUL OR SWAP1 JUMP JUMPDEST SWAP1 PUSH2 0x1384 DUP2 PUSH2 0x105 JUMP JUMPDEST SWAP1 PUSH8 0xFFFFFFFFFFFFFFFF DUP3 GT PUSH2 0x1444 JUMPI PUSH2 0x13A8 DUP3 PUSH2 0x13A2 DUP6 SLOAD PUSH2 0x450 JUMP JUMPDEST DUP6 PUSH2 0x12FC JUMP JUMPDEST PUSH1 0x20 SWAP1 PUSH1 0x1F DUP4 GT PUSH1 0x1 EQ PUSH2 0x13DC JUMPI SWAP2 DUP1 SWAP2 PUSH2 0x13CB SWAP4 PUSH0 SWAP3 PUSH2 0x13D0 JUMPI JUMPDEST POP POP PUSH2 0x1368 JUMP JUMPDEST SWAP1 SSTORE JUMPDEST JUMP JUMPDEST SWAP1 SWAP2 POP ADD MLOAD PUSH0 DUP1 PUSH2 0x13C4 JUMP JUMPDEST PUSH1 0x1F NOT DUP4 AND SWAP2 PUSH2 0x13EB DUP6 PUSH2 0x47A JUMP JUMPDEST SWAP3 PUSH0 JUMPDEST DUP2 DUP2 LT PUSH2 0x142C JUMPI POP SWAP2 PUSH1 0x2 SWAP4 SWAP2 DUP6 PUSH1 0x1 SWAP7 SWAP5 LT PUSH2 0x1412 JUMPI JUMPDEST POP POP POP MUL ADD SWAP1 SSTORE PUSH2 0x13CE JUMP JUMPDEST PUSH2 0x1422 SWAP2 ADD MLOAD PUSH1 0x1F DUP5 AND SWAP1 PUSH2 0x1353 JUMP JUMPDEST SWAP1 SSTORE PUSH0 DUP1 DUP1 PUSH2 0x1406 JUMP JUMPDEST SWAP2 SWAP4 PUSH1 0x20 PUSH1 0x1 DUP2 SWAP3 DUP8 DUP8 ADD MLOAD DUP2 SSTORE ADD SWAP6 ADD SWAP3 ADD PUSH2 0x13EE JUMP JUMPDEST PUSH2 0x51C JUMP JUMPDEST SWAP1 PUSH2 0x1453 SWAP2 PUSH2 0x137A JUMP JUMPDEST JUMP JUMPDEST PUSH2 0x145F SWAP1 MLOAD PUSH2 0x158 JUMP JUMPDEST SWAP1 JUMP JUMPDEST SWAP1 PUSH2 0x146E PUSH1 0xFF SWAP2 PUSH2 0x1212 JUMP JUMPDEST SWAP2 DUP2 NOT AND SWAP2 AND OR SWAP1 JUMP JUMPDEST PUSH2 0x148C PUSH2 0x1487 PUSH2 0x1491 SWAP3 PUSH2 0x158 JUMP JUMPDEST PUSH2 0xB32 JUMP JUMPDEST PUSH2 0x158 JUMP JUMPDEST SWAP1 JUMP JUMPDEST SWAP1 JUMP JUMPDEST SWAP1 PUSH2 0x14AC PUSH2 0x14A7 PUSH2 0x14B3 SWAP3 PUSH2 0x1478 JUMP JUMPDEST PUSH2 0x1494 JUMP JUMPDEST DUP3 SLOAD PUSH2 0x1462 JUMP JUMPDEST SWAP1 SSTORE JUMP JUMPDEST PUSH2 0x14C1 SWAP1 MLOAD PUSH2 0x18E JUMP JUMPDEST SWAP1 JUMP JUMPDEST PUSH2 0x14CD SWAP1 PUSH2 0x18E JUMP JUMPDEST SWAP1 JUMP JUMPDEST SWAP1 JUMP JUMPDEST SWAP1 PUSH2 0x14E8 PUSH2 0x14E3 PUSH2 0x14EF SWAP3 PUSH2 0x14C4 JUMP JUMPDEST PUSH2 0x14D0 JUMP JUMPDEST DUP3 SLOAD PUSH2 0x1462 JUMP JUMPDEST SWAP1 SSTORE JUMP JUMPDEST MLOAD SWAP1 JUMP JUMPDEST PUSH4 0x4E487B71 PUSH1 0xE0 SHL PUSH0 MSTORE PUSH1 0x11 PUSH1 0x4 MSTORE PUSH1 0x24 PUSH0 REVERT JUMPDEST PUSH2 0x151A PUSH2 0x1520 SWAP2 SWAP4 SWAP3 SWAP4 PUSH2 0xB4 JUMP JUMPDEST SWAP3 PUSH2 0xB4 JUMP JUMPDEST SWAP2 PUSH2 0x152C DUP4 DUP3 MUL PUSH2 0xB4 JUMP JUMPDEST SWAP3 DUP2 DUP5 DIV EQ SWAP1 ISZERO OR ISZERO PUSH2 0x153B JUMPI JUMP JUMPDEST PUSH2 0x14F7 JUMP JUMPDEST PUSH2 0x154B SWAP1 PUSH1 0x5 PUSH2 0x150B JUMP JUMPDEST SWAP1 JUMP JUMPDEST PUSH1 0x4 PUSH0 SWAP2 DUP3 DUP1 DUP3 ADD SSTORE PUSH2 0x1564 DUP4 PUSH1 0x1 DUP4 ADD PUSH2 0x12C9 JUMP JUMPDEST DUP3 PUSH1 0x2 DUP3 ADD SSTORE PUSH2 0x1577 DUP4 PUSH1 0x3 DUP4 ADD PUSH2 0x12C9 JUMP JUMPDEST ADD SSTORE JUMP JUMPDEST SWAP1 PUSH0 SUB PUSH2 0x158D JUMPI PUSH2 0x158B SWAP1 PUSH2 0x154E JUMP JUMPDEST JUMP JUMPDEST PUSH2 0x11F2 JUMP JUMPDEST JUMPDEST DUP2 DUP2 LT PUSH2 0x159E JUMPI POP POP JUMP JUMPDEST DUP1 PUSH2 0x15AB PUSH0 PUSH1 0x5 SWAP4 PUSH2 0x157B JUMP JUMPDEST ADD PUSH2 0x1593 JUMP JUMPDEST SWAP1 SWAP2 DUP3 DUP2 LT PUSH2 0x15C0 JUMPI JUMPDEST POP POP POP JUMP JUMPDEST PUSH2 0x15DE PUSH2 0x15D8 PUSH2 0x15D2 PUSH2 0x15E9 SWAP6 PUSH2 0x1540 JUMP JUMPDEST SWAP3 PUSH2 0x1540 JUMP JUMPDEST SWAP3 PUSH2 0xCB9 JUMP JUMPDEST SWAP2 DUP3 ADD SWAP2 ADD SWAP1 PUSH2 0x1592 JUMP JUMPDEST PUSH0 DUP1 DUP1 PUSH2 0x15BB JUMP JUMPDEST SWAP1 PUSH9 0x10000000000000000 DUP2 GT PUSH2 0x161A JUMPI DUP2 PUSH2 0x160F PUSH2 0x1618 SWAP4 PUSH2 0xC81 JUMP JUMPDEST SWAP1 DUP3 DUP2 SSTORE PUSH2 0x15B1 JUMP JUMPDEST JUMP JUMPDEST PUSH2 0x51C JUMP JUMPDEST MLOAD SWAP1 JUMP JUMPDEST PUSH2 0x162D SWAP1 MLOAD PUSH2 0x1D1 JUMP JUMPDEST SWAP1 JUMP JUMPDEST SWAP1 PUSH2 0x1641 PUSH1 0x1 DUP1 PUSH1 0xA0 SHL SUB SWAP2 PUSH2 0x1212 JUMP JUMPDEST SWAP2 DUP2 NOT AND SWAP2 AND OR SWAP1 JUMP JUMPDEST PUSH2 0x1654 SWAP1 PUSH2 0xB51 JUMP JUMPDEST SWAP1 JUMP JUMPDEST SWAP1 JUMP JUMPDEST SWAP1 PUSH2 0x166F PUSH2 0x166A PUSH2 0x1676 SWAP3 PUSH2 0x164B JUMP JUMPDEST PUSH2 0x1657 JUMP JUMPDEST DUP3 SLOAD PUSH2 0x1630 JUMP JUMPDEST SWAP1 SSTORE JUMP JUMPDEST SWAP1 PUSH2 0x16F0 PUSH1 0x80 PUSH1 0x4 PUSH2 0x16F6 SWAP5 PUSH2 0x169D PUSH0 DUP3 ADD PUSH2 0x1697 PUSH0 DUP9 ADD PUSH2 0x1623 JUMP JUMPDEST SWAP1 PUSH2 0x165A JUMP JUMPDEST PUSH2 0x16B6 PUSH1 0x1 DUP3 ADD PUSH2 0x16B0 PUSH1 0x20 DUP9 ADD PUSH2 0x1205 JUMP JUMPDEST SWAP1 PUSH2 0x124C JUMP JUMPDEST PUSH2 0x16CF PUSH1 0x2 DUP3 ADD PUSH2 0x16C9 PUSH1 0x40 DUP9 ADD PUSH2 0x1623 JUMP JUMPDEST SWAP1 PUSH2 0x165A JUMP JUMPDEST PUSH2 0x16E8 PUSH1 0x3 DUP3 ADD PUSH2 0x16E2 PUSH1 0x60 DUP9 ADD PUSH2 0x1205 JUMP JUMPDEST SWAP1 PUSH2 0x124C JUMP JUMPDEST ADD SWAP3 ADD PUSH2 0x14B7 JUMP JUMPDEST SWAP1 PUSH2 0x14D3 JUMP JUMPDEST JUMP JUMPDEST SWAP1 PUSH2 0x1702 SWAP2 PUSH2 0x167A JUMP JUMPDEST JUMP JUMPDEST PUSH2 0x1729 PUSH2 0x1723 PUSH2 0x1713 DUP5 PUSH2 0x1B3 JUMP JUMPDEST SWAP4 PUSH2 0x171E DUP6 DUP6 PUSH2 0x15F1 JUMP JUMPDEST PUSH2 0x1C0 JUMP JUMPDEST SWAP2 PUSH2 0xCB9 JUMP JUMPDEST PUSH0 SWAP2 JUMPDEST DUP4 DUP4 LT PUSH2 0x1739 JUMPI POP POP POP POP JUMP JUMPDEST PUSH1 0x5 PUSH1 0x20 DUP3 PUSH2 0x1752 PUSH2 0x174C PUSH1 0x1 SWAP6 PUSH2 0x161F JUMP JUMPDEST DUP7 PUSH2 0x16F8 JUMP JUMPDEST ADD SWAP3 ADD SWAP3 ADD SWAP2 SWAP1 PUSH2 0x172C JUMP JUMPDEST SWAP1 PUSH2 0x1768 SWAP2 PUSH2 0x1704 JUMP JUMPDEST JUMP JUMPDEST SWAP1 PUSH2 0x1812 PUSH1 0xC0 PUSH1 0x6 PUSH2 0x1818 SWAP5 PUSH2 0x178D PUSH0 DUP3 ADD PUSH2 0x1787 PUSH0 DUP9 ADD PUSH2 0x1205 JUMP JUMPDEST SWAP1 PUSH2 0x124C JUMP JUMPDEST PUSH2 0x17A6 PUSH1 0x1 DUP3 ADD PUSH2 0x17A0 PUSH1 0x20 DUP9 ADD PUSH2 0x126C JUMP JUMPDEST SWAP1 PUSH2 0x1449 JUMP JUMPDEST PUSH2 0x17BF PUSH1 0x2 DUP3 ADD PUSH2 0x17B9 PUSH1 0x40 DUP9 ADD PUSH2 0x1205 JUMP JUMPDEST SWAP1 PUSH2 0x124C JUMP JUMPDEST PUSH2 0x17D8 PUSH1 0x3 DUP3 ADD PUSH2 0x17D2 PUSH1 0x60 DUP9 ADD PUSH2 0x1455 JUMP JUMPDEST SWAP1 PUSH2 0x1497 JUMP JUMPDEST PUSH2 0x17F1 PUSH1 0x4 DUP3 ADD PUSH2 0x17EB PUSH1 0x80 DUP9 ADD PUSH2 0x1205 JUMP JUMPDEST SWAP1 PUSH2 0x124C JUMP JUMPDEST PUSH2 0x180A PUSH1 0x5 DUP3 ADD PUSH2 0x1804 PUSH1 0xA0 DUP9 ADD PUSH2 0x14B7 JUMP JUMPDEST SWAP1 PUSH2 0x14D3 JUMP JUMPDEST ADD SWAP3 ADD PUSH2 0x14F3 JUMP JUMPDEST SWAP1 PUSH2 0x175E JUMP JUMPDEST JUMP JUMPDEST SWAP2 SWAP1 PUSH2 0x182B JUMPI PUSH2 0x1829 SWAP2 PUSH2 0x176A JUMP JUMPDEST JUMP JUMPDEST PUSH2 0x11F2 JUMP JUMPDEST SWAP1 DUP2 SLOAD SWAP2 PUSH9 0x10000000000000000 DUP4 LT ISZERO PUSH2 0x1860 JUMPI DUP3 PUSH2 0x1858 SWAP2 PUSH1 0x1 PUSH2 0x185E SWAP6 ADD DUP2 SSTORE PUSH2 0x11CA JUMP JUMPDEST SWAP1 PUSH2 0x181A JUMP JUMPDEST JUMP JUMPDEST PUSH2 0x51C JUMP JUMPDEST SWAP1 SWAP6 SWAP5 SWAP3 PUSH2 0x18B0 SWAP5 PUSH2 0x189F PUSH2 0x18A9 SWAP3 PUSH2 0x1895 PUSH1 0x80 SWAP7 PUSH2 0x188B PUSH1 0xA0 DUP9 ADD SWAP13 PUSH0 DUP10 ADD SWAP1 PUSH2 0x639 JUMP JUMPDEST PUSH1 0x20 DUP8 ADD SWAP1 PUSH2 0x639 JUMP JUMPDEST PUSH1 0x40 DUP6 ADD SWAP1 PUSH2 0x680 JUMP JUMPDEST PUSH1 0x60 DUP4 ADD SWAP1 PUSH2 0x639 JUMP JUMPDEST ADD SWAP1 PUSH2 0x68D JUMP JUMPDEST JUMP JUMPDEST PUSH2 0x18F3 PUSH1 0x20 PUSH2 0x18C9 PUSH2 0x18C4 PUSH1 0x1 PUSH2 0xF4C JUMP JUMPDEST PUSH2 0xB5D JUMP JUMPDEST PUSH4 0x70A08231 SWAP1 PUSH2 0x18E8 CALLER SWAP3 PUSH2 0x18DC PUSH2 0xA2 JUMP JUMPDEST SWAP6 DUP7 SWAP5 DUP6 SWAP4 DUP5 SWAP4 PUSH2 0xF59 JUMP JUMPDEST DUP4 MSTORE PUSH1 0x4 DUP4 ADD PUSH2 0x742 JUMP JUMPDEST SUB SWAP2 GAS STATICCALL DUP1 ISZERO PUSH2 0x1B6D JUMPI PUSH2 0x1922 SWAP2 PUSH0 SWAP2 PUSH2 0x1B3F JUMPI JUMPDEST POP PUSH2 0x191B PUSH2 0x1915 DUP6 PUSH2 0xB4 JUMP JUMPDEST SWAP2 PUSH2 0xB4 JUMP JUMPDEST LT ISZERO PUSH2 0xFF5 JUMP JUMPDEST PUSH2 0x1934 PUSH2 0x192F PUSH1 0x1 PUSH2 0xF4C JUMP JUMPDEST PUSH2 0xB5D JUMP JUMPDEST PUSH1 0x20 PUSH4 0x23B872DD SWAP2 CALLER SWAP1 PUSH2 0x1964 PUSH0 PUSH2 0x194B ADDRESS PUSH2 0x101E JUMP JUMPDEST SWAP6 PUSH2 0x196F DUP10 PUSH2 0x1958 PUSH2 0xA2 JUMP JUMPDEST SWAP9 DUP10 SWAP8 DUP9 SWAP7 DUP8 SWAP6 PUSH2 0xF59 JUMP JUMPDEST DUP6 MSTORE PUSH1 0x4 DUP6 ADD PUSH2 0x1070 JUMP JUMPDEST SUB SWAP3 GAS CALL DUP1 ISZERO PUSH2 0x1B3A JUMPI PUSH2 0x1B0E JUMPI JUMPDEST POP PUSH1 0x1 PUSH2 0x198A SWAP1 PUSH2 0x10A5 JUMP JUMPDEST PUSH2 0x1993 SWAP1 PUSH2 0x113D JUMP JUMPDEST SWAP1 CALLER PUSH0 PUSH0 PUSH2 0x19A0 SWAP1 PUSH2 0xEF6 JUMP JUMPDEST PUSH0 SWAP1 PUSH0 SWAP3 PUSH2 0x19AC PUSH2 0x1164 JUMP JUMPDEST SWAP5 PUSH0 DUP7 ADD SWAP1 PUSH2 0x19BA SWAP2 PUSH2 0xCEE JUMP JUMPDEST PUSH2 0x19C3 SWAP1 PUSH2 0x1171 JUMP JUMPDEST PUSH1 0x20 DUP6 ADD SWAP1 PUSH2 0x19D1 SWAP2 PUSH2 0xC54 JUMP JUMPDEST PUSH1 0x40 DUP5 ADD SWAP1 PUSH2 0x19DF SWAP2 PUSH2 0xCEE JUMP JUMPDEST PUSH2 0x19E8 SWAP1 PUSH2 0x1171 JUMP JUMPDEST PUSH1 0x60 DUP4 ADD SWAP1 PUSH2 0x19F6 SWAP2 PUSH2 0xC54 JUMP JUMPDEST PUSH1 0x80 DUP3 ADD SWAP1 PUSH2 0x1A04 SWAP2 PUSH2 0xC73 JUMP JUMPDEST DUP3 SWAP1 PUSH0 SWAP1 PUSH2 0x1A11 DUP3 PUSH2 0x1171 JUMP JUMPDEST PUSH2 0x1A1B SWAP1 DUP5 PUSH2 0x118D JUMP JUMPDEST MSTORE PUSH2 0x1A25 SWAP1 PUSH2 0x1171 JUMP JUMPDEST PUSH2 0x1A2E SWAP2 PUSH2 0x118D JUMP JUMPDEST MLOAD POP PUSH1 0x2 PUSH2 0x1A3B SWAP1 PUSH2 0x11AD JUMP JUMPDEST SWAP2 PUSH1 0x2 PUSH2 0x1A47 SWAP1 PUSH2 0x3DE JUMP JUMPDEST SWAP2 SWAP1 DUP5 DUP7 DUP9 SWAP2 DUP11 SWAP4 SWAP5 PUSH2 0x1A58 PUSH2 0x11B0 JUMP JUMPDEST SWAP7 PUSH0 DUP9 ADD SWAP1 PUSH2 0x1A66 SWAP2 PUSH2 0xC54 JUMP JUMPDEST PUSH1 0x20 DUP8 ADD SWAP1 PUSH2 0x1A74 SWAP2 PUSH2 0xC62 JUMP JUMPDEST PUSH1 0x40 DUP7 ADD SWAP1 PUSH2 0x1A82 SWAP2 PUSH2 0xC54 JUMP JUMPDEST PUSH1 0x60 DUP6 ADD SWAP1 PUSH2 0x1A90 SWAP2 PUSH2 0xC65 JUMP JUMPDEST PUSH1 0x80 DUP5 ADD SWAP1 PUSH2 0x1A9E SWAP2 PUSH2 0xC54 JUMP JUMPDEST PUSH1 0xA0 DUP4 ADD SWAP1 PUSH2 0x1AAC SWAP2 PUSH2 0xC73 JUMP JUMPDEST PUSH1 0xC0 DUP3 ADD SWAP1 PUSH2 0x1ABA SWAP2 PUSH2 0xDE5 JUMP JUMPDEST PUSH2 0x1AC3 SWAP2 PUSH2 0x1830 JUMP JUMPDEST PUSH1 0x2 PUSH2 0x1ACE SWAP1 PUSH2 0x3DE JUMP JUMPDEST SWAP1 SWAP2 SWAP3 SWAP4 PUSH32 0x5200794BA7D5386D6D997F966E54F17526AB61032AC5E883F64D3AE762FBEF59 SWAP5 PUSH2 0x1AFC PUSH2 0xA2 JUMP JUMPDEST SWAP5 DUP6 SWAP5 PUSH2 0x1B09 SWAP5 DUP7 PUSH2 0x1865 JUMP JUMPDEST SUB SWAP1 LOG1 JUMP JUMPDEST PUSH2 0x1B2E SWAP1 PUSH1 0x20 RETURNDATASIZE DUP2 GT PUSH2 0x1B33 JUMPI JUMPDEST PUSH2 0x1B26 DUP2 DUP4 PUSH2 0x530 JUMP JUMPDEST DUP2 ADD SWAP1 PUSH2 0x1052 JUMP JUMPDEST PUSH2 0x197E JUMP JUMPDEST POP RETURNDATASIZE PUSH2 0x1B1C JUMP JUMPDEST PUSH2 0xF8C JUMP JUMPDEST PUSH2 0x1B60 SWAP2 POP PUSH1 0x20 RETURNDATASIZE DUP2 GT PUSH2 0x1B66 JUMPI JUMPDEST PUSH2 0x1B58 DUP2 DUP4 PUSH2 0x530 JUMP JUMPDEST DUP2 ADD SWAP1 PUSH2 0xF6E JUMP JUMPDEST PUSH0 PUSH2 0x1908 JUMP JUMPDEST POP RETURNDATASIZE PUSH2 0x1B4E JUMP JUMPDEST PUSH2 0xF8C JUMP JUMPDEST PUSH2 0x1B83 SWAP1 PUSH2 0x1B7E PUSH2 0x1C8C JUMP JUMPDEST PUSH2 0x1B85 JUMP JUMPDEST JUMP JUMPDEST DUP1 PUSH2 0x1BA0 PUSH2 0x1B9A PUSH2 0x1B95 PUSH0 PUSH2 0xEF6 JUMP JUMPDEST PUSH2 0x1D1 JUMP JUMPDEST SWAP2 PUSH2 0x1D1 JUMP JUMPDEST EQ PUSH2 0x1BB0 JUMPI PUSH2 0x1BAE SWAP1 PUSH2 0x1CDA JUMP JUMPDEST JUMP JUMPDEST PUSH2 0x1BD3 PUSH2 0x1BBC PUSH0 PUSH2 0xEF6 JUMP JUMPDEST PUSH0 SWAP2 DUP3 SWAP2 PUSH4 0x1E4FBDF7 PUSH1 0xE0 SHL DUP4 MSTORE PUSH1 0x4 DUP4 ADD PUSH2 0x742 JUMP JUMPDEST SUB SWAP1 REVERT JUMPDEST PUSH2 0x1BE0 SWAP1 PUSH2 0x1B72 JUMP JUMPDEST JUMP JUMPDEST PUSH1 0x60 SWAP1 JUMP JUMPDEST PUSH8 0xFFFFFFFFFFFFFFFF DUP2 GT PUSH2 0x1BFF JUMPI PUSH1 0x20 DUP1 SWAP2 MUL ADD SWAP1 JUMP JUMPDEST PUSH2 0x51C JUMP JUMPDEST SWAP1 PUSH2 0x1C16 PUSH2 0x1C11 DUP4 PUSH2 0x1BE7 JUMP JUMPDEST PUSH2 0x794 JUMP JUMPDEST SWAP2 DUP3 MSTORE JUMP JUMPDEST SWAP1 PUSH2 0x1C25 DUP3 PUSH2 0x3DE JUMP JUMPDEST PUSH2 0x1C2E DUP2 PUSH2 0x1C04 JUMP JUMPDEST SWAP3 PUSH2 0x1C3C PUSH1 0x20 DUP6 ADD SWAP2 PUSH2 0x3E2 JUMP JUMPDEST PUSH0 SWAP2 JUMPDEST DUP4 DUP4 LT PUSH2 0x1C4C JUMPI POP POP POP POP JUMP JUMPDEST PUSH1 0x7 PUSH1 0x20 PUSH1 0x1 SWAP3 PUSH2 0x1C5C DUP6 PUSH2 0xE99 JUMP JUMPDEST DUP2 MSTORE ADD SWAP3 ADD SWAP3 ADD SWAP2 SWAP1 PUSH2 0x1C3F JUMP JUMPDEST PUSH2 0x1C73 SWAP1 PUSH2 0x1C1B JUMP JUMPDEST SWAP1 JUMP JUMPDEST PUSH2 0x1C7E PUSH2 0x1BE2 JUMP JUMPDEST POP PUSH2 0x1C89 PUSH1 0x2 PUSH2 0x1C6A JUMP JUMPDEST SWAP1 JUMP JUMPDEST PUSH2 0x1C94 PUSH2 0xF23 JUMP JUMPDEST PUSH2 0x1CAD PUSH2 0x1CA7 PUSH2 0x1CA2 PUSH2 0x1D39 JUMP JUMPDEST PUSH2 0x1D1 JUMP JUMPDEST SWAP2 PUSH2 0x1D1 JUMP JUMPDEST SUB PUSH2 0x1CB4 JUMPI JUMP JUMPDEST PUSH2 0x1CD6 PUSH2 0x1CBF PUSH2 0x1D39 JUMP JUMPDEST PUSH0 SWAP2 DUP3 SWAP2 PUSH4 0x118CDAA7 PUSH1 0xE0 SHL DUP4 MSTORE PUSH1 0x4 DUP4 ADD PUSH2 0x742 JUMP JUMPDEST SUB SWAP1 REVERT JUMPDEST PUSH2 0x1CE3 PUSH0 PUSH2 0xCE1 JUMP JUMPDEST PUSH2 0x1CED DUP3 PUSH0 PUSH2 0x165A JUMP JUMPDEST SWAP1 PUSH2 0x1D21 PUSH2 0x1D1B PUSH32 0x8BE0079C531659141344CD1FD0A4F28419497F9722A3DAAFE3B4186F6B6457E0 SWAP4 PUSH2 0x164B JUMP JUMPDEST SWAP2 PUSH2 0x164B JUMP JUMPDEST SWAP2 PUSH2 0x1D2A PUSH2 0xA2 JUMP JUMPDEST DUP1 PUSH2 0x1D34 DUP2 PUSH2 0x392 JUMP JUMPDEST SUB SWAP1 LOG3 JUMP JUMPDEST PUSH2 0x1D41 PUSH2 0xF1F JUMP JUMPDEST POP CALLER SWAP1 JUMP INVALID LOG2 PUSH5 0x6970667358 0x22 SLT KECCAK256 CALLCODE 0x24 MSTORE8 STATICCALL BYTE PUSH6 0x4B3F1E4A329D PC DUP2 CREATE 0xF9 0x21 0xC3 0xCC CALL CREATE 0xE9 SSTORE PUSH29 0xA60CF31CB469F0B264736F6C634300081C003300000000000000000000 "},"methodIdentifiers":{"createTournament(string,uint256,uint8,uint256,uint8)":"b7ebf9aa","getTournament(uint256)":"1a5bd7fc","getTournaments()":"f7f20cb3","owner()":"8da5cb5b","renounceOwnership()":"715018a6","token()":"fc0c546a","tournaments(uint256)":"7503e1b7","transferOwnership(address)":"f2fde38b"}}}}}