{"project/contracts/TournamentFactory.sol":{"TournamentFactory":{"abi":[{"inputs":[{"internalType":"address","name":"tokenAddress","type":"address"}],"stateMutability":"nonpayable","type":"constructor"},{"inputs":[{"internalType":"address","name":"owner","type":"address"}],"name":"OwnableInvalidOwner","type":"error"},{"inputs":[{"internalType":"address","name":"account","type":"address"}],"name":"OwnableUnauthorizedAccount","type":"error"},{"anonymous":false,"inputs":[{"indexed":false,"internalType":"uint256","name":"_id","type":"uint256"},{"indexed":false,"internalType":"uint256","name":"_round","type":"uint256"},{"indexed":false,"internalType":"uint256","name":"_matchId","type":"uint256"}],"name":"MatchCreated","type":"event"},{"anonymous":false,"inputs":[{"indexed":false,"internalType":"uint256","name":"_id","type":"uint256"},{"indexed":false,"internalType":"uint256","name":"_round","type":"uint256"},{"indexed":false,"internalType":"uint256","name":"_matchId","type":"uint256"}],"name":"MatchFinished","type":"event"},{"anonymous":false,"inputs":[{"indexed":true,"internalType":"address","name":"previousOwner","type":"address"},{"indexed":true,"internalType":"address","name":"newOwner","type":"address"}],"name":"OwnershipTransferred","type":"event"},{"anonymous":false,"inputs":[{"indexed":false,"internalType":"uint256","name":"_id","type":"uint256"}],"name":"SetStatus","type":"event"},{"anonymous":false,"inputs":[{"indexed":false,"internalType":"uint256","name":"_id","type":"uint256"}],"name":"TournamentCreated","type":"event"},{"inputs":[{"internalType":"uint256","name":"_id","type":"uint256"},{"internalType":"uint256","name":"_index","type":"uint256"}],"name":"claimPrize","outputs":[],"stateMutability":"nonpayable","type":"function"},{"inputs":[{"internalType":"uint256","name":"_id","type":"uint256"},{"internalType":"uint256","name":"_index","type":"uint256"}],"name":"claimRefunds","outputs":[],"stateMutability":"nonpayable","type":"function"},{"inputs":[{"internalType":"uint256","name":"_id","type":"uint256"},{"internalType":"uint256","name":"_round","type":"uint256"},{"internalType":"uint256","name":"_matchId","type":"uint256"},{"components":[{"internalType":"address","name":"addr","type":"address"},{"internalType":"bool","name":"claimed","type":"bool"},{"internalType":"string","name":"username","type":"string"}],"internalType":"struct TournamentFactory.Player","name":"p1","type":"tuple"},{"components":[{"internalType":"address","name":"addr","type":"address"},{"internalType":"bool","name":"claimed","type":"bool"},{"internalType":"string","name":"username","type":"string"}],"internalType":"struct TournamentFactory.Player","name":"p2","type":"tuple"}],"name":"createMatch","outputs":[],"stateMutability":"nonpayable","type":"function"},{"inputs":[{"internalType":"uint256","name":"_id","type":"uint256"},{"internalType":"uint256[]","name":"order","type":"uint256[]"}],"name":"createNextRound","outputs":[],"stateMutability":"nonpayable","type":"function"},{"inputs":[{"internalType":"uint256","name":"_id","type":"uint256"},{"internalType":"uint256[]","name":"order","type":"uint256[]"}],"name":"createRound","outputs":[],"stateMutability":"nonpayable","type":"function"},{"inputs":[{"internalType":"string","name":"_title","type":"string"},{"internalType":"uint256","name":"_entryFee","type":"uint256"},{"internalType":"uint256","name":"_maxParticipants","type":"uint256"},{"internalType":"uint256","name":"_startTime","type":"uint256"},{"internalType":"string","name":"_username","type":"string"}],"name":"createTournament","outputs":[],"stateMutability":"nonpayable","type":"function"},{"inputs":[{"internalType":"uint256","name":"_id","type":"uint256"},{"internalType":"uint256","name":"_round","type":"uint256"},{"internalType":"uint256","name":"_matchId","type":"uint256"}],"name":"getMatch","outputs":[{"components":[{"components":[{"internalType":"address","name":"addr","type":"address"},{"internalType":"bool","name":"claimed","type":"bool"},{"internalType":"string","name":"username","type":"string"}],"internalType":"struct TournamentFactory.Player","name":"player1","type":"tuple"},{"internalType":"uint256","name":"player1Score","type":"uint256"},{"components":[{"internalType":"address","name":"addr","type":"address"},{"internalType":"bool","name":"claimed","type":"bool"},{"internalType":"string","name":"username","type":"string"}],"internalType":"struct TournamentFactory.Player","name":"player2","type":"tuple"},{"internalType":"uint256","name":"player2Score","type":"uint256"},{"internalType":"enum TournamentFactory.Status","name":"status","type":"uint8"}],"internalType":"struct TournamentFactory.Match","name":"","type":"tuple"}],"stateMutability":"view","type":"function"},{"inputs":[{"internalType":"uint256","name":"tournamentId","type":"uint256"},{"internalType":"uint256","name":"round","type":"uint256"},{"internalType":"uint256","name":"matchNumber","type":"uint256"}],"name":"getMatchKey","outputs":[{"internalType":"bytes32","name":"","type":"bytes32"}],"stateMutability":"pure","type":"function"},{"inputs":[{"internalType":"bytes32","name":"_key","type":"bytes32"}],"name":"getMatchWithKey","outputs":[{"components":[{"components":[{"internalType":"address","name":"addr","type":"address"},{"internalType":"bool","name":"claimed","type":"bool"},{"internalType":"string","name":"username","type":"string"}],"internalType":"struct TournamentFactory.Player","name":"player1","type":"tuple"},{"internalType":"uint256","name":"player1Score","type":"uint256"},{"components":[{"internalType":"address","name":"addr","type":"address"},{"internalType":"bool","name":"claimed","type":"bool"},{"internalType":"string","name":"username","type":"string"}],"internalType":"struct TournamentFactory.Player","name":"player2","type":"tuple"},{"internalType":"uint256","name":"player2Score","type":"uint256"},{"internalType":"enum TournamentFactory.Status","name":"status","type":"uint8"}],"internalType":"struct TournamentFactory.Match","name":"","type":"tuple"}],"stateMutability":"view","type":"function"},{"inputs":[{"internalType":"uint256","name":"tournamentId","type":"uint256"},{"internalType":"uint256","name":"round","type":"uint256"},{"internalType":"uint256","name":"index","type":"uint256"}],"name":"getPlayer","outputs":[{"components":[{"internalType":"address","name":"addr","type":"address"},{"internalType":"bool","name":"claimed","type":"bool"},{"internalType":"string","name":"username","type":"string"}],"internalType":"struct TournamentFactory.Player","name":"","type":"tuple"}],"stateMutability":"view","type":"function"},{"inputs":[{"internalType":"uint256","name":"tournamentId","type":"uint256"},{"internalType":"uint256","name":"round","type":"uint256"},{"internalType":"uint256","name":"index","type":"uint256"}],"name":"getPlayerKey","outputs":[{"internalType":"bytes32","name":"","type":"bytes32"}],"stateMutability":"pure","type":"function"},{"inputs":[{"internalType":"uint256","name":"id","type":"uint256"}],"name":"getTournament","outputs":[{"components":[{"internalType":"uint256","name":"id","type":"uint256"},{"internalType":"string","name":"title","type":"string"},{"internalType":"uint256","name":"entryFee","type":"uint256"},{"internalType":"uint256","name":"participants","type":"uint256"},{"internalType":"uint256","name":"maxParticipants","type":"uint256"},{"internalType":"uint256","name":"currentRound","type":"uint256"},{"internalType":"uint256","name":"startTime","type":"uint256"},{"internalType":"enum TournamentFactory.Status","name":"status","type":"uint8"}],"internalType":"struct TournamentFactory.Tournament","name":"","type":"tuple"}],"stateMutability":"view","type":"function"},{"inputs":[],"name":"getTournamentLength","outputs":[{"internalType":"uint256","name":"","type":"uint256"}],"stateMutability":"view","type":"function"},{"inputs":[],"name":"getTournaments","outputs":[{"components":[{"internalType":"uint256","name":"id","type":"uint256"},{"internalType":"string","name":"title","type":"string"},{"internalType":"uint256","name":"entryFee","type":"uint256"},{"internalType":"uint256","name":"participants","type":"uint256"},{"internalType":"uint256","name":"maxParticipants","type":"uint256"},{"internalType":"uint256","name":"currentRound","type":"uint256"},{"internalType":"uint256","name":"startTime","type":"uint256"},{"internalType":"enum TournamentFactory.Status","name":"status","type":"uint8"}],"internalType":"struct TournamentFactory.Tournament[]","name":"","type":"tuple[]"}],"stateMutability":"view","type":"function"},{"inputs":[{"internalType":"uint256","name":"_id","type":"uint256"},{"internalType":"string","name":"_username","type":"string"}],"name":"joinTournament","outputs":[],"stateMutability":"nonpayable","type":"function"},{"inputs":[],"name":"owner","outputs":[{"internalType":"address","name":"","type":"address"}],"stateMutability":"view","type":"function"},{"inputs":[],"name":"renounceOwnership","outputs":[],"stateMutability":"nonpayable","type":"function"},{"inputs":[{"internalType":"enum TournamentFactory.Status","name":"_statue","type":"uint8"},{"internalType":"uint256","name":"_id","type":"uint256"}],"name":"setTournamentStatus","outputs":[],"stateMutability":"nonpayable","type":"function"},{"inputs":[{"internalType":"uint256","name":"_id","type":"uint256"},{"internalType":"uint256[]","name":"order","type":"uint256[]"}],"name":"startTournament","outputs":[],"stateMutability":"nonpayable","type":"function"},{"inputs":[{"internalType":"uint256","name":"_id","type":"uint256"},{"internalType":"uint256","name":"_round","type":"uint256"},{"internalType":"uint256","name":"_matchId","type":"uint256"},{"internalType":"uint256","name":"_score_1","type":"uint256"},{"internalType":"uint256","name":"_score_2","type":"uint256"}],"name":"submitMatchScore","outputs":[],"stateMutability":"nonpayable","type":"function"},{"inputs":[],"name":"token","outputs":[{"internalType":"contract TRIZcoin","name":"","type":"address"}],"stateMutability":"view","type":"function"},{"inputs":[{"internalType":"uint256","name":"","type":"uint256"}],"name":"tournaments","outputs":[{"internalType":"uint256","name":"id","type":"uint256"},{"internalType":"string","name":"title","type":"string"},{"internalType":"uint256","name":"entryFee","type":"uint256"},{"internalType":"uint256","name":"participants","type":"uint256"},{"internalType":"uint256","name":"maxParticipants","type":"uint256"},{"internalType":"uint256","name":"currentRound","type":"uint256"},{"internalType":"uint256","name":"startTime","type":"uint256"},{"internalType":"enum TournamentFactory.Status","name":"status","type":"uint8"}],"stateMutability":"view","type":"function"},{"inputs":[{"internalType":"address","name":"newOwner","type":"address"}],"name":"transferOwnership","outputs":[],"stateMutability":"nonpayable","type":"function"}],"evm":{"bytecode":{"linkReferences":{},"object":"60806040523461002f576100196100146100f4565b61019b565b610021610034565b6136b161032982396136b190f35b61003a565b60405190565b5f80fd5b601f801991011690565b634e487b7160e01b5f52604160045260245ffd5b906100669061003e565b810190811060018060401b0382111761007e57604052565b610048565b9061009661008f610034565b928361005c565b565b5f80fd5b60018060a01b031690565b6100b09061009c565b90565b6100bc816100a7565b036100c357565b5f80fd5b905051906100d4826100b3565b565b906020828203126100ef576100ec915f016100c7565b90565b610098565b6101126139da8038038061010781610083565b9283398101906100d6565b90565b90565b61012c6101276101319261009c565b610115565b61009c565b90565b61013d90610118565b90565b61014990610134565b90565b5f1b90565b9061016260018060a01b039161014c565b9181191691161790565b61017590610134565b90565b90565b9061019061018b6101979261016c565b610178565b8254610151565b9055565b6101b06101b7916101ab33610206565b610140565b600161017b565b565b90565b6101d06101cb6101d5926101b9565b610115565b61009c565b90565b6101e1906101bc565b90565b6101ed906100a7565b9052565b9190610204905f602085019401906101e4565b565b8061022161021b6102165f6101d8565b6100a7565b916100a7565b146102315761022f906102c9565b565b61025461023d5f6101d8565b5f918291631e4fbdf760e01b8352600483016101f1565b0390fd5b5f1c90565b60018060a01b031690565b61027461027991610258565b61025d565b90565b6102869054610268565b90565b61029290610118565b90565b61029e90610289565b90565b90565b906102b96102b46102c092610295565b6102a1565b8254610151565b9055565b5f0190565b6102d25f61027c565b6102dc825f6102a4565b9061031061030a7f8be0079c531659141344cd1fd0a4f28419497f9722a3daafe3b4186f6b6457e093610295565b91610295565b91610319610034565b80610323816102c4565b0390a356fe60806040526004361015610013575b61137a565b61001d5f3561018c565b806304808088146101875780631a5bd7fc146101825780631bd9103b1461017d57806322654955146101785780632c542b881461017357806330e6aaf21461016e57806332bdb9e2146101695780634c7be95f14610164578063679224b41461015f578063715018a61461015a5780637503e1b7146101555780637b1541401461015057806389870d5a1461014b5780638da5cb5b146101465780639d5d40fb14610141578063bf14c8871461013c578063c1deef5214610137578063f2fde38b14610132578063f4716df21461012d578063f7f20cb314610128578063fc0c546a14610123578063fd0c7dfb1461011e5763ffdde68c0361000e57611343565b611288565b611253565b611181565b61100c565b610fd9565b610f86565b610f3d565b610ebf565b610e8a565b610e31565b610da7565b610d3b565b610a12565b6109ce565b610957565b6108cb565b610894565b610720565b6105f8565b6104a0565b61040c565b610260565b60e01c90565b60405190565b5f80fd5b5f80fd5b5f80fd5b90565b6101b0816101a4565b036101b757565b5f80fd5b905035906101c8826101a7565b565b5f80fd5b5f80fd5b5f80fd5b909182601f830112156102105781359167ffffffffffffffff831161020b57602001926020830284011161020657565b6101d2565b6101ce565b6101ca565b9190916040818403126102565761022e835f83016101bb565b92602082013567ffffffffffffffff81116102515761024d92016101d6565b9091565b6101a0565b61019c565b5f0190565b3461028f57610279610273366004610215565b916117a9565b610281610192565b8061028b8161025b565b0390f35b610198565b906020828203126102ad576102aa915f016101bb565b90565b61019c565b6102bb906101a4565b9052565b5190565b60209181520190565b90825f9392825e0152565b601f801991011690565b61030061030960209361030e936102f7816102bf565b938480936102c3565b958691016102cc565b6102d7565b0190565b634e487b7160e01b5f52602160045260245ffd5b6004111561033057565b610312565b9061033f82610326565b565b61034a90610335565b90565b61035690610341565b9052565b906103f19060e08061038c610100840161037a5f8801515f8701906102b2565b602087015185820360208701526102e1565b9461039f604082015160408601906102b2565b6103b1606082015160608601906102b2565b6103c3608082015160808601906102b2565b6103d560a082015160a08601906102b2565b6103e760c082015160c08601906102b2565b015191019061034d565b90565b6104099160208201915f81840391015261035a565b90565b3461043c57610438610427610422366004610294565b61183c565b61042f610192565b918291826103f4565b0390f35b610198565b90916060828403126104765761047361045c845f85016101bb565b9361046a81602086016101bb565b936040016101bb565b90565b61019c565b90565b6104879061047b565b9052565b919061049e905f6020850194019061047e565b565b346104d1576104cd6104bc6104b6366004610441565b916118ad565b6104c4610192565b9182918261048b565b0390f35b610198565b5f80fd5b634e487b7160e01b5f52604160045260245ffd5b906104f8906102d7565b810190811067ffffffffffffffff82111761051257604052565b6104da565b9061052a610523610192565b92836104ee565b565b67ffffffffffffffff811161054a576105466020916102d7565b0190565b6104da565b90825f939282370152565b9092919261056f61056a8261052c565b610517565b9381855260208501908284011161058b576105899261054f565b565b6104d6565b9080601f830112156105ae578160206105ab9335910161055a565b90565b6101ca565b9190916040818403126105f3576105cc835f83016101bb565b92602082013567ffffffffffffffff81116105ee576105eb9201610590565b90565b6101a0565b61019c565b346106275761061161060b3660046105b3565b90611f37565b610619610192565b806106238161025b565b0390f35b610198565b60018060a01b031690565b6106409061062c565b90565b61064c90610637565b9052565b151590565b61065e90610650565b9052565b61069f916040606082019261067d5f8201515f850190610643565b61068f60208201516020850190610655565b01519060408184039101526102e1565b90565b90610705906080806106e86106c460a085015f8801518682035f880152610662565b6106d6602088015160208701906102b2565b60408701518582036040870152610662565b946106fb606082015160608601906102b2565b015191019061034d565b90565b61071d9160208201915f8184039101526106a2565b90565b346107515761074d61073c610736366004610441565b9161225c565b610744610192565b91829182610708565b0390f35b610198565b5f80fd5b5f80fd5b61076781610637565b0361076e57565b5f80fd5b9050359061077f8261075e565b565b61078a81610650565b0361079157565b5f80fd5b905035906107a282610781565b565b919091606081840312610808576107bb6060610517565b926107c8815f8401610772565b5f8501526107d98160208401610795565b6020850152604082013567ffffffffffffffff8111610803576107fc9201610590565b6040830152565b61075a565b610756565b91909160a08184031261088f57610826835f83016101bb565b9261083481602084016101bb565b9261084282604085016101bb565b92606081013567ffffffffffffffff811161088a57836108639183016107a4565b92608082013567ffffffffffffffff81116108855761088292016107a4565b90565b6101a0565b6101a0565b61019c565b346108c6576108b06108a736600461080d565b9392909261247c565b6108b8610192565b806108c28161025b565b0390f35b610198565b346108fa576108e46108de366004610215565b91612523565b6108ec610192565b806108f68161025b565b0390f35b610198565b61093c916040606082019261091a5f8201515f850190610643565b61092c60208201516020850190610655565b01519060408184039101526102e1565b90565b6109549160208201915f8184039101526108ff565b90565b346109885761098461097361096d366004610441565b9161253b565b61097b610192565b9182918261093f565b0390f35b610198565b6109968161047b565b0361099d57565b5f80fd5b905035906109ae8261098d565b565b906020828203126109c9576109c6915f016109a1565b90565b61019c565b346109fe576109fa6109e96109e43660046109b0565b612568565b6109f1610192565b91829182610708565b0390f35b610198565b5f910312610a0d57565b61019c565b34610a4057610a22366004610a03565b610a2a6125d4565b610a32610192565b80610a3c8161025b565b0390f35b610198565b634e487b7160e01b5f52603260045260245ffd5b5490565b5f5260205f2090565b610a6f81610a59565b821015610a8957610a81600891610a5d565b910201905f90565b610a45565b5f1c90565b90565b610aa2610aa791610a8e565b610a93565b90565b610ab49054610a96565b90565b634e487b7160e01b5f52602260045260245ffd5b9060016002830492168015610aeb575b6020831014610ae657565b610ab7565b91607f1691610adb565b5f5260205f2090565b905f9291805490610b18610b1183610acb565b80946102c3565b916001811690815f14610b6f5750600114610b33575b505050565b610b409192939450610af5565b915f925b818410610b5757505001905f8080610b2e565b60018160209295939554848601520191019290610b44565b92949550505060ff19168252151560200201905f8080610b2e565b90610b9491610afe565b90565b90610bb7610bb092610ba7610192565b93848092610b8a565b03836104ee565b565b60ff1690565b610bcb610bd091610a8e565b610bb9565b90565b610bdd9054610bbf565b90565b600290610bec82610a59565b811015610c6657610bfc91610a66565b5090610c095f8301610aaa565b91610c1660018201610b97565b91610c2360028301610aaa565b91610c3060038201610aaa565b91610c3d60048301610aaa565b91610c4a60058201610aaa565b91610c636007610c5c60068501610aaa565b9301610bd3565b90565b5f80fd5b610c73906101a4565b9052565b60209181520190565b610c9f610ca8602093610cad93610c96816102bf565b93848093610c77565b958691016102cc565b6102d7565b0190565b610cba90610341565b9052565b9395610d1e60e096610d14610d32969c9b99610d0a610cff8a610d399e99610cf1610d289a5f6101008501940190610c6a565b8c6020818403910152610c80565b9e60408b0190610c6a565b6060890190610c6a565b6080870190610c6a565b60a0850190610c6a565b60c0830190610c6a565b0190610cb1565b565b34610d7557610d71610d56610d51366004610294565b610be0565b94610d68989698949194939293610192565b98899889610cbe565b0390f35b610198565b9190604083820312610da25780610d96610d9f925f86016101bb565b936020016101bb565b90565b61019c565b34610dd657610dc0610dba366004610d7a565b90612945565b610dc8610192565b80610dd28161025b565b0390f35b610198565b919060a083820312610e2c57610df3815f85016101bb565b92610e0182602083016101bb565b92610e29610e1284604085016101bb565b93610e2081606086016101bb565b936080016101bb565b90565b61019c565b34610e6357610e4d610e44366004610ddb565b93929092612d2d565b610e55610192565b80610e5f8161025b565b0390f35b610198565b610e7190610637565b9052565b9190610e88905f60208501940190610e68565b565b34610eba57610e9a366004610a03565b610eb6610ea5612d40565b610ead610192565b91829182610e75565b0390f35b610198565b34610eee57610ed8610ed2366004610215565b91612dd7565b610ee0610192565b80610eea8161025b565b0390f35b610198565b60041115610efd57565b5f80fd5b90503590610f0e82610ef3565b565b9190604083820312610f385780610f2c610f35925f8601610f01565b936020016101bb565b90565b61019c565b34610f6c57610f56610f50366004610f10565b90612de4565b610f5e610192565b80610f688161025b565b0390f35b610198565b9190610f84905f60208501940190610c6a565b565b34610fb657610f96366004610a03565b610fb2610fa1612e40565b610fa9610192565b91829182610f71565b0390f35b610198565b90602082820312610fd457610fd1915f01610772565b90565b61019c565b3461100757610ff1610fec366004610fbb565b612ebb565b610ff9610192565b806110038161025b565b0390f35b610198565b3461103d57611039611028611022366004610441565b91612ec6565b611030610192565b9182918261048b565b0390f35b610198565b5190565b60209181520190565b60200190565b906110ec9060e08061108761010084016110755f8801515f8701906102b2565b602087015185820360208701526102e1565b9461109a604082015160408601906102b2565b6110ac606082015160608601906102b2565b6110be608082015160808601906102b2565b6110d060a082015160a08601906102b2565b6110e260c082015160c08601906102b2565b015191019061034d565b90565b906110f991611055565b90565b60200190565b9061111661110f83611042565b8092611046565b90816111276020830284019461104f565b925f915b83831061113a57505050505090565b9091929394602061115c611156838560019503875289516110ef565b976110fc565b930193019193929061112b565b61117e9160208201915f818403910152611102565b90565b346111b157611191366004610a03565b6111ad61119c612fa6565b6111a4610192565b91829182611169565b0390f35b610198565b1c90565b60018060a01b031690565b6111d59060086111da93026111b6565b6111ba565b90565b906111e891546111c5565b90565b6111f760015f906111dd565b90565b90565b61121161120c6112169261062c565b6111fa565b61062c565b90565b611222906111fd565b90565b61122e90611219565b90565b61123a90611225565b9052565b9190611251905f60208501940190611231565b565b3461128357611263366004610a03565b61127f61126e6111eb565b611276610192565b9182918261123e565b0390f35b610198565b346112b7576112a161129b366004610d7a565b906130c3565b6112a9610192565b806112b38161025b565b0390f35b610198565b91909160a08184031261133e575f81013567ffffffffffffffff811161133957836112e8918301610590565b926112f681602084016101bb565b9261130482604085016101bb565b9261131283606083016101bb565b92608082013567ffffffffffffffff8111611334576113319201610590565b90565b6101a0565b6101a0565b61019c565b346113755761135f6113563660046112bc565b93929092613373565b611367610192565b806113718161025b565b0390f35b610198565b5f80fd5b90611391929161138c6135c1565b61167a565b565b9061139d906101a4565b9052565b52565b906113ae90610335565b9052565b6113bd610100610517565b90565b9061148761147e60076113d16113b2565b946113e86113e05f8301610aaa565b5f8801611393565b6114006113f760018301610b97565b602088016113a1565b61141861140f60028301610aaa565b60408801611393565b61143061142760038301610aaa565b60608801611393565b61144861143f60048301610aaa565b60808801611393565b61146061145760058301610aaa565b60a08801611393565b61147861146f60068301610aaa565b60c08801611393565b01610bd3565b60e084016113a4565b565b611492906113c0565b90565b90565b6114ac6114a76114b192611495565b6111fa565b6101a4565b90565b90565b6114cb6114c66114d0926114b4565b6111fa565b6101a4565b90565b634e487b7160e01b5f52601160045260245ffd5b6114f66114fc919392936101a4565b926101a4565b820180921161150757565b6114d3565b5090565b61151a90516101a4565b90565b919081101561152d576020020190565b610a45565b3561153c816101a7565b90565b6115489061047b565b90565b906115559061153f565b5f5260205260405f2090565b60018060a01b031690565b61157861157d91610a8e565b611561565b90565b61158a905461156c565b90565b9061159790610637565b9052565b60a01c90565b60ff1690565b6115b36115b89161159b565b6115a1565b90565b6115c590546115a7565b90565b906115d290610650565b9052565b6115e06060610517565b90565b9061163161162860016115f46115d6565b9461160b6116035f8301611580565b5f880161158d565b6116226116195f83016115bb565b602088016115c8565b01610b97565b604084016113a1565b565b61163c906115e3565b90565b90565b61165661165161165b9261163f565b6111fa565b6101a4565b90565b611667906101a4565b5f1981146116755760010190565b6114d3565b92919261169261168c60028390610a66565b50611489565b9161169c5f611498565b946116a65f611498565b955b866116c56116bf6116ba86869061150c565b6101a4565b916101a4565b10156117a05761178961179a916117848961176d611768896117628c8b61175c6117578d61172b61172688611720888e61171a61171561170a60a06004979501611510565b928c908a909161151d565b611532565b91612ec6565b9061154b565b611633565b9961175161173e60a060049a9801611510565b95929161174b6001611642565b906114e7565b9161151d565b611532565b91612ec6565b9061154b565b611633565b889161177b60a08c01611510565b8591929361247c565b61165e565b9661179460026114b7565b906114e7565b956116a8565b50505050509050565b906117b4929161137e565b565b5f90565b606090565b5f90565b6117cb6113b2565b90602080808080808080896117de6117b6565b8152016117e96117ba565b8152016117f46117b6565b8152016117ff6117b6565b81520161180a6117b6565b8152016118156117b6565b8152016118206117b6565b81520161182b6117bf565b81525050565b6118396117c3565b90565b6118536118599161184b611831565b506002610a66565b50611489565b90565b5f90565b90565b61186f611874916101a4565b611860565b9052565b60209392611897858361188f829561189f97611863565b018092611863565b018092611863565b0190565b60200190565b5190565b906118d46118e3926118bd61185c565b5091936118c8610192565b94859360208501611878565b602082018103825203826104ee565b6118f56118ef826118a9565b916118a3565b2090565b90565b5f7f746f75726e616d656e742069736e27742070656e64696e670000000000000000910152565b6119306018602092610c77565b611939816118fc565b0190565b6119529060208101905f818303910152611923565b90565b1561195c57565b611964610192565b62461bcd60e51b81528061197a6004820161193d565b0390fd5b5f7f646561646c696e65207265616368656400000000000000000000000000000000910152565b6119b26010602092610c77565b6119bb8161197e565b0190565b6119d49060208101905f8183039101526119a5565b90565b156119de57565b6119e6610192565b62461bcd60e51b8152806119fc600482016119bf565b0390fd5b5f7f746f75726e616d656e742069732066756c6c0000000000000000000000000000910152565b611a346012602092610c77565b611a3d81611a00565b0190565b611a569060208101905f818303910152611a27565b90565b15611a6057565b611a68610192565b62461bcd60e51b815280611a7e60048201611a41565b0390fd5b611a8e611a9391610a8e565b6111ba565b90565b611aa09054611a82565b90565b611aac90611219565b90565b60e01b90565b90505190611ac282610781565b565b90602082820312611add57611ada915f01611ab5565b90565b61019c565b604090611b0b611b129496959396611b0160608401985f850190610e68565b6020830190610e68565b0190610c6a565b565b611b1c610192565b3d5f823e3d90fd5b5f7f6e6f7420656e6f756768206361736820737472616e6765720000000000000000910152565b611b586018602092610c77565b611b6181611b24565b0190565b611b7a9060208101905f818303910152611b4b565b90565b15611b8457565b611b8c610192565b62461bcd60e51b815280611ba260048201611b65565b0390fd5b5f1b90565b90611bb75f1991611ba6565b9181191691161790565b611bd5611bd0611bda926101a4565b6111fa565b6101a4565b90565b90565b90611bf5611bf0611bfc92611bc1565b611bdd565b8254611bab565b9055565b611c0a6060610517565b90565b611c1c611c22919392936101a4565b926101a4565b8203918211611c2d57565b6114d3565b634e487b7160e01b5f525f60045260245ffd5b611c4f9051610637565b90565b90611c6360018060a01b0391611ba6565b9181191691161790565b611c7690611219565b90565b90565b90611c91611c8c611c9892611c6d565b611c79565b8254611c52565b9055565b611ca69051610650565b90565b60a01b90565b90611cbe60ff60a01b91611ca9565b9181191691161790565b611cd190610650565b90565b90565b90611cec611ce7611cf392611cc8565b611cd4565b8254611caf565b9055565b5190565b601f602091010490565b1b90565b91906008611d24910291611d1e5f1984611d05565b92611d05565b9181191691161790565b9190611d44611d3f611d4c93611bc1565b611bdd565b908354611d09565b9055565b5f90565b611d6691611d60611d50565b91611d2e565b565b5b818110611d74575050565b80611d815f600193611d54565b01611d69565b9190601f8111611d97575b505050565b611da3611dc893610af5565b906020611daf84611cfb565b83019310611dd0575b611dc190611cfb565b0190611d68565b5f8080611d92565b9150611dc181929050611db8565b90611dee905f19906008026111b6565b191690565b81611dfd91611dde565b906002021790565b90611e0f816102bf565b9067ffffffffffffffff8211611ecf57611e3382611e2d8554610acb565b85611d87565b602090601f8311600114611e6757918091611e56935f92611e5b575b5050611df3565b90555b565b90915001515f80611e4f565b601f19831691611e7685610af5565b925f5b818110611eb757509160029391856001969410611e9d575b50505002019055611e59565b611ead910151601f841690611dde565b90555f8080611e91565b91936020600181928787015181550195019201611e79565b6104da565b90611ede91611e05565b565b90611f2360406001611f2994611f035f8201611efd5f8801611c45565b90611c7c565b611f1b5f8201611f1560208801611c9c565b90611cd7565b019201611cf7565b90611ed4565b565b90611f3591611ee0565b565b611f4c611f4660028390610a66565b506118f9565b90611f74611f5c60078401610bd3565b611f6e611f685f610335565b91610335565b14611955565b611f9b611f8360068401610aaa565b611f95611f8f426101a4565b916101a4565b116119d7565b611fcd611faa60038401610aaa565b611fc7611fc1611fbc60048701610aaa565b6101a4565b916101a4565b10611a59565b611fdf611fda6001611a96565b611225565b9060206323b872dd92339061201b5f611ff730611aa3565b9661202661200760028b01610aaa565b61200f610192565b998a9788968795611aaf565b855260048501611ae2565b03925af1801561210a576120da9461204c6120cf926120d5955f916120dc575b50611b7d565b61206a6003860161206461205f82610aaa565b61165e565b90611be0565b61209933916120905f61208761207e611c00565b955f870161158d565b602085016115c8565b604083016113a1565b93600492906120c96120b960036120b260058501610aaa565b9301610aaa565b6120c36001611642565b90611c0d565b91612ec6565b9061154b565b611f2b565b565b6120fd915060203d8111612103575b6120f581836104ee565b810190611ac4565b5f612046565b503d6120eb565b611b14565b61211960a0610517565b90565b5f90565b5f90565b61212c6115d6565b90602080808461213a61211c565b815201612145612120565b8152016121506117ba565b81525050565b61215e612124565b90565b61216961210f565b9060208080808086612179612156565b8152016121846117b6565b81520161218f612156565b81520161219a6117b6565b8152016121a56117bf565b81525050565b6121b3612161565b90565b906121c09061153f565b5f5260205260405f2090565b52565b9061224e61224560066121e061210f565b946121f76121ef5f83016115e3565b5f88016121cc565b61220f61220660028301610aaa565b60208801611393565b61222761221e600383016115e3565b604088016121cc565b61223f61223660058301610aaa565b60608801611393565b01610bd3565b608084016113a4565b565b612259906121cf565b90565b61227b612281926122869461226f6121ab565b506003939190916118ad565b906121b6565b612250565b90565b9061229e949392916122996135c1565b6123bf565b565b6122aa60a0610517565b90565b5190565b6122bb9051610335565b90565b906122ca60ff91611ba6565b9181191691161790565b6122dd90610335565b90565b90565b906122f86122f36122ff926122d4565b6122e0565b82546122be565b9055565b906123796080600661237f946123265f82016123205f88016122ad565b90611f2b565b61233f6002820161233960208801611510565b90611be0565b61235860038201612352604088016122ad565b90611f2b565b6123716005820161236b60608801611510565b90611be0565b0192016122b1565b906122e3565b565b9061238b91612303565b565b6040906123b66123bd94969593966123ac60608401985f850190610c6a565b6020830190610c6a565b0190610c6a565b565b91929361242261243e9295916124196124105f9261240b5f916124026123f95f976123f46123eb6122a0565b9b5f8d016121cc565b611498565b60208a01611393565b604088016121cc565b611498565b60608501611393565b608083016113a4565b6124396003612433858888916118ad565b906121b6565b612381565b9190916124777f5f6f5a0de1d83b1d2ab2af48b8e7ffaba041d7d1b99fd698fbf60083def9216c9361246e610192565b9384938461238d565b0390a1565b9061248994939291612289565b565b9061249e92916124996135c1565b6124d6565b565b634e487b7160e01b5f52601260045260245ffd5b6124c06124c6916101a4565b916101a4565b9081156124d1570490565b6124a0565b91612521926125196124f36124ed60028490610a66565b506118f9565b612513600561250260026114b7565b92019161250e83610aaa565b6124b4565b90611be0565b9190916117a9565b565b9061252e929161248b565b565b612538612124565b90565b61255a612560926125659461254e612530565b50600493919091612ec6565b9061154b565b611633565b90565b61257f612584916125776121ab565b5060036121b6565b612250565b90565b61258f6135c1565b6125976125c1565b565b6125ad6125a86125b292611495565b6111fa565b61062c565b90565b6125be90612599565b90565b6125d26125cd5f6125b5565b61360f565b565b6125dc612587565b565b5f7f506c6179657220696e646578206f7574206f662072616e676500000000000000910152565b6126126019602092610c77565b61261b816125de565b0190565b6126349060208101905f818303910152612605565b90565b1561263e57565b612646610192565b62461bcd60e51b81528061265c6004820161261f565b0390fd5b5f7f546f75726e616d6e6574206964206f7574206f662072616e6765000000000000910152565b612694601a602092610c77565b61269d81612660565b0190565b6126b69060208101905f818303910152612687565b90565b156126c057565b6126c8610192565b62461bcd60e51b8152806126de600482016126a1565b0390fd5b5f7f546f75726e616d656e742069736e27742066696e697368656400000000000000910152565b6127166019602092610c77565b61271f816126e2565b0190565b6127389060208101905f818303910152612709565b90565b1561274257565b61274a610192565b62461bcd60e51b81528061276060048201612723565b0390fd5b90565b5f7f4c617374206d617463682069736e27742066696e697368656400000000000000910152565b61279b6019602092610c77565b6127a481612767565b0190565b6127bd9060208101905f81830391015261278e565b90565b156127c757565b6127cf610192565b62461bcd60e51b8152806127e5600482016127a8565b0390fd5b5f7f4b65657020647265616d696e67206f662077696e6e696e670000000000000000910152565b61281d6018602092610c77565b612826816127e9565b0190565b61283f9060208101905f818303910152612810565b90565b1561284957565b612851610192565b62461bcd60e51b8152806128676004820161282a565b0390fd5b5f7f5072697a6520616c726561647920636c61696d65640000000000000000000000910152565b61289f6015602092610c77565b6128a88161286b565b0190565b6128c19060208101905f818303910152612892565b90565b156128cb57565b6128d3610192565b62461bcd60e51b8152806128e9600482016128ac565b0390fd5b6128fc612902919392936101a4565b926101a4565b9161290e8382026101a4565b92818404149015171561291d57565b6114d3565b91602061294392949361293c60408201965f830190610e68565b0190610c6a565b565b9061296c908061295d6129575f611498565b916101a4565b14908115612bdd575b50612637565b8061297f6129795f611498565b916101a4565b101580612bb5575b612990906126b9565b612a006129fb6129ab6129a560028590610a66565b50611489565b926129d46129bb60e086016122b1565b6129ce6129c86002610335565b91610335565b1461273b565b6129f560039160016129ef6129e95f92611642565b91611498565b916118ad565b906121b6565b612764565b612a28612a0f60068301610bd3565b612a22612a1c6002610335565b91610335565b146127c0565b612a3460028201610aaa565b612a51612a4b612a4660058501610aaa565b6101a4565b916101a4565b115f14612b575780612a84612a6c5f80612aae950101611580565b612a7e612a7833610637565b91610637565b14612842565b612aa2612a9d612a975f808501016115bb565b15610650565b6128c4565b5f806001920101611cd7565b5b6020612ac3612abe6001611a96565b611225565b9163a9059cbb92612b095f612af13394612aeb6080612ae460408401611510565b9201611510565b906128ed565b95612b14612afd610192565b97889687958694611aaf565b845260048401612922565b03925af18015612b5257612b26575b50565b612b469060203d8111612b4b575b612b3e81836104ee565b810190611ac4565b612b23565b503d612b34565b611b14565b80612b84612b6c5f6003612bb0950101611580565b612b7e612b7833610637565b91610637565b14612842565b612ba3612b9e612b985f60038501016115bb565b15610650565b6128c4565b5f60036001920101611cd7565b612aaf565b5061299081612bd5612bcf612bca6002610a59565b6101a4565b916101a4565b109050612987565b9050612bf2612bec6001611642565b916101a4565b145f612966565b90612c0e94939291612c096135c1565b612c10565b565b91929093612c77612c71612c39612c346003612c2e888b8b916118ad565b906121b6565b612764565b93612c478160028701611be0565b612c548460058701611be0565b612c626002600687016122e3565b612c6a612530565b50926101a4565b916101a4565b115f14612d1c575f612c899101611633565b5b83612c9e612c986001611642565b916101a4565b03612ce3575b50919091612cde7f8e36a42896ac2a1d0c0b5ca5aff8b1f91ab25de19c492d83a3dac09ba976437193612cd5610192565b9384938461238d565b0390a1565b612d1690612d116004612d0b85612d0489612cfe60026114b7565b906124b4565b8891612ec6565b9061154b565b611f2b565b5f612ca4565b6003612d289101611633565b612c8a565b90612d3a94939291612bf9565b565b5f90565b612d48612d3c565b50612d525f611580565b90565b90612d689291612d636135c1565b612d6a565b565b9190612d9c91612d93612d88612d8260028790610a66565b506118f9565b6007600191016122e3565b839190916117a9565b612dd27f472dde00d4a421d9e9fc7bef66dbf7671c60e18dfa993294579a036528bc082091612dc9610192565b91829182610f71565b0390a1565b90612de29291612d55565b565b612e05906007612dff612df960028690610a66565b506118f9565b016122e3565b612e3b7f472dde00d4a421d9e9fc7bef66dbf7671c60e18dfa993294579a036528bc082091612e32610192565b91829182610f71565b0390a1565b612e48611d50565b50612e536002610a59565b90565b612e6790612e626135c1565b612e69565b565b80612e84612e7e612e795f6125b5565b610637565b91610637565b14612e9457612e929061360f565b565b612eb7612ea05f6125b5565b5f918291631e4fbdf760e01b835260048301610e75565b0390fd5b612ec490612e56565b565b90612eed612efc92612ed661185c565b509193612ee1610192565b94859360208501611878565b602082018103825203826104ee565b612f0e612f08826118a9565b916118a3565b2090565b606090565b67ffffffffffffffff8111612f2f5760208091020190565b6104da565b90612f46612f4183612f17565b610517565b918252565b90612f5582610a59565b612f5e81612f34565b92612f6c6020850191610a5d565b5f915b838310612f7c5750505050565b60086020600192612f8c85611489565b815201920192019190612f6f565b612fa390612f4b565b90565b612fae612f12565b50612fb96002612f9a565b90565b90565b5f7f746f75726e616d656e742069736e277420657870697265640000000000000000910152565b612ff36018602092610c77565b612ffc81612fbf565b0190565b6130159060208101905f818303910152612fe6565b90565b1561301f57565b613027610192565b62461bcd60e51b81528061303d60048201613000565b0390fd5b5f7f7573657220616c726561647920636c61696d656420726566756e640000000000910152565b613075601b602092610c77565b61307e81613041565b0190565b6130979060208101905f818303910152613068565b90565b156130a157565b6130a9610192565b62461bcd60e51b8152806130bf60048201613082565b0390fd5b61310861310361315d926130fd6130e56130df60028490610a66565b50611489565b95600492906130f660a08901611510565b9091612ec6565b9061154b565b612fbc565b61311460e084016122b1565b6131276131216003610335565b91610335565b14806131ef575b61313790613018565b61315361314e6131485f84016115bb565b15610650565b61309a565b5f60019101611cd7565b602061317161316c6001611a96565b611225565b9163a9059cbb926131a15f6131896040339501611510565b956131ac613195610192565b97889687958694611aaf565b845260048401612922565b03925af180156131ea576131be575b50565b6131de9060203d81116131e3575b6131d681836104ee565b810190611ac4565b6131bb565b503d6131cc565b611b14565b506131376131ff60c08501611510565b61321161320b426101a4565b916101a4565b10905061312e565b90565b613227610100610517565b90565b5f5260205f2090565b5490565b61324081613233565b82101561325a5761325260089161322a565b910201905f90565b610a45565b9061332060e06007613326946132825f820161327c5f8801611510565b90611be0565b61329b6001820161329560208801611cf7565b90611ed4565b6132b4600282016132ae60408801611510565b90611be0565b6132cd600382016132c760608801611510565b90611be0565b6132e6600482016132e060808801611510565b90611be0565b6132ff600582016132f960a08801611510565b90611be0565b6133186006820161331260c08801611510565b90611be0565b0192016122b1565b906122e3565b565b9190613339576133379161325f565b565b611c32565b908154916801000000000000000083101561336e578261336691600161336c95018155613237565b90613328565b565b6104da565b909392919361338a6133856001611a96565b611225565b60206323b872dd9133906133ba5f6133a130611aa3565b956133c5886133ae610192565b98899788968795611aaf565b855260048501611ae2565b03925af180156135bc576133e0915f9161358e575b50611b7d565b60026133eb90613219565b9260026133f790610a59565b9291906001879088600261340a906114b7565b613413916124b4565b92935f9561341f61321c565b975f89019061342d91611393565b602088019061343b916113a1565b604087019061344991611393565b61345290611642565b606086019061346091611393565b608085019061346e91611393565b60a084019061347c91611393565b60c083019061348a91611393565b60e0820190613498916113a4565b6134a19161333e565b33905f6134ac611c00565b925f8401906134ba9161158d565b60208301906134c8916115c8565b60408201906134d6916113a1565b9060049060026134e590610a59565b60016134f090611642565b6134f991611c0d565b906002613505906114b7565b61350e916124b4565b5f61351890611498565b9061352292612ec6565b61352b9161154b565b9061353591611f2b565b600261354090610a59565b600161354b90611642565b61355491611c0d565b7f113d32d0b7aec15a8c7f50af4cb42f4695e5b95524ed69519ac88d6c1f1f40f69061357e610192565b613589819282610f71565b0390a1565b6135af915060203d81116135b5575b6135a781836104ee565b810190611ac4565b5f6133da565b503d61359d565b611b14565b6135c9612d40565b6135e26135dc6135d761366e565b610637565b91610637565b036135e957565b61360b6135f461366e565b5f91829163118cdaa760e01b835260048301610e75565b0390fd5b6136185f611580565b613622825f611c7c565b906136566136507f8be0079c531659141344cd1fd0a4f28419497f9722a3daafe3b4186f6b6457e093611c6d565b91611c6d565b9161365f610192565b806136698161025b565b0390a3565b613676612d3c565b50339056fea26469706673582212201851618ae38d32bec907ed73ea73bf8e4b200297a13fe02da15a43e2bb1e60d264736f6c634300081c0033","opcodes":"PUSH1 0x80 PUSH1 0x40 MSTORE CALLVALUE PUSH2 0x2F JUMPI PUSH2 0x19 PUSH2 0x14 PUSH2 0xF4 JUMP JUMPDEST PUSH2 0x19B JUMP JUMPDEST PUSH2 0x21 PUSH2 0x34 JUMP JUMPDEST PUSH2 0x36B1 PUSH2 0x329 DUP3 CODECOPY PUSH2 0x36B1 SWAP1 RETURN JUMPDEST PUSH2 0x3A JUMP JUMPDEST PUSH1 0x40 MLOAD SWAP1 JUMP JUMPDEST PUSH0 DUP1 REVERT JUMPDEST PUSH1 0x1F DUP1 NOT SWAP2 ADD AND SWAP1 JUMP JUMPDEST PUSH4 0x4E487B71 PUSH1 0xE0 SHL PUSH0 MSTORE PUSH1 0x41 PUSH1 0x4 MSTORE PUSH1 0x24 PUSH0 REVERT JUMPDEST SWAP1 PUSH2 0x66 SWAP1 PUSH2 0x3E JUMP JUMPDEST DUP2 ADD SWAP1 DUP2 LT PUSH1 0x1 DUP1 PUSH1 0x40 SHL SUB DUP3 GT OR PUSH2 0x7E JUMPI PUSH1 0x40 MSTORE JUMP JUMPDEST PUSH2 0x48 JUMP JUMPDEST SWAP1 PUSH2 0x96 PUSH2 0x8F PUSH2 0x34 JUMP JUMPDEST SWAP3 DUP4 PUSH2 0x5C JUMP JUMPDEST JUMP JUMPDEST PUSH0 DUP1 REVERT JUMPDEST PUSH1 0x1 DUP1 PUSH1 0xA0 SHL SUB AND SWAP1 JUMP JUMPDEST PUSH2 0xB0 SWAP1 PUSH2 0x9C JUMP JUMPDEST SWAP1 JUMP JUMPDEST PUSH2 0xBC DUP2 PUSH2 0xA7 JUMP JUMPDEST SUB PUSH2 0xC3 JUMPI JUMP JUMPDEST PUSH0 DUP1 REVERT JUMPDEST SWAP1 POP MLOAD SWAP1 PUSH2 0xD4 DUP3 PUSH2 0xB3 JUMP JUMPDEST JUMP JUMPDEST SWAP1 PUSH1 0x20 DUP3 DUP3 SUB SLT PUSH2 0xEF JUMPI PUSH2 0xEC SWAP2 PUSH0 ADD PUSH2 0xC7 JUMP JUMPDEST SWAP1 JUMP JUMPDEST PUSH2 0x98 JUMP JUMPDEST PUSH2 0x112 PUSH2 0x39DA DUP1 CODESIZE SUB DUP1 PUSH2 0x107 DUP2 PUSH2 0x83 JUMP JUMPDEST SWAP3 DUP4 CODECOPY DUP2 ADD SWAP1 PUSH2 0xD6 JUMP JUMPDEST SWAP1 JUMP JUMPDEST SWAP1 JUMP JUMPDEST PUSH2 0x12C PUSH2 0x127 PUSH2 0x131 SWAP3 PUSH2 0x9C JUMP JUMPDEST PUSH2 0x115 JUMP JUMPDEST PUSH2 0x9C JUMP JUMPDEST SWAP1 JUMP JUMPDEST PUSH2 0x13D SWAP1 PUSH2 0x118 JUMP JUMPDEST SWAP1 JUMP JUMPDEST PUSH2 0x149 SWAP1 PUSH2 0x134 JUMP JUMPDEST SWAP1 JUMP JUMPDEST PUSH0 SHL SWAP1 JUMP JUMPDEST SWAP1 PUSH2 0x162 PUSH1 0x1 DUP1 PUSH1 0xA0 SHL SUB SWAP2 PUSH2 0x14C JUMP JUMPDEST SWAP2 DUP2 NOT AND SWAP2 AND OR SWAP1 JUMP JUMPDEST PUSH2 0x175 SWAP1 PUSH2 0x134 JUMP JUMPDEST SWAP1 JUMP JUMPDEST SWAP1 JUMP JUMPDEST SWAP1 PUSH2 0x190 PUSH2 0x18B PUSH2 0x197 SWAP3 PUSH2 0x16C JUMP JUMPDEST PUSH2 0x178 JUMP JUMPDEST DUP3 SLOAD PUSH2 0x151 JUMP JUMPDEST SWAP1 SSTORE JUMP JUMPDEST PUSH2 0x1B0 PUSH2 0x1B7 SWAP2 PUSH2 0x1AB CALLER PUSH2 0x206 JUMP JUMPDEST PUSH2 0x140 JUMP JUMPDEST PUSH1 0x1 PUSH2 0x17B JUMP JUMPDEST JUMP JUMPDEST SWAP1 JUMP JUMPDEST PUSH2 0x1D0 PUSH2 0x1CB PUSH2 0x1D5 SWAP3 PUSH2 0x1B9 JUMP JUMPDEST PUSH2 0x115 JUMP JUMPDEST PUSH2 0x9C JUMP JUMPDEST SWAP1 JUMP JUMPDEST PUSH2 0x1E1 SWAP1 PUSH2 0x1BC JUMP JUMPDEST SWAP1 JUMP JUMPDEST PUSH2 0x1ED SWAP1 PUSH2 0xA7 JUMP JUMPDEST SWAP1 MSTORE JUMP JUMPDEST SWAP2 SWAP1 PUSH2 0x204 SWAP1 PUSH0 PUSH1 0x20 DUP6 ADD SWAP5 ADD SWAP1 PUSH2 0x1E4 JUMP JUMPDEST JUMP JUMPDEST DUP1 PUSH2 0x221 PUSH2 0x21B PUSH2 0x216 PUSH0 PUSH2 0x1D8 JUMP JUMPDEST PUSH2 0xA7 JUMP JUMPDEST SWAP2 PUSH2 0xA7 JUMP JUMPDEST EQ PUSH2 0x231 JUMPI PUSH2 0x22F SWAP1 PUSH2 0x2C9 JUMP JUMPDEST JUMP JUMPDEST PUSH2 0x254 PUSH2 0x23D PUSH0 PUSH2 0x1D8 JUMP JUMPDEST PUSH0 SWAP2 DUP3 SWAP2 PUSH4 0x1E4FBDF7 PUSH1 0xE0 SHL DUP4 MSTORE PUSH1 0x4 DUP4 ADD PUSH2 0x1F1 JUMP JUMPDEST SUB SWAP1 REVERT JUMPDEST PUSH0 SHR SWAP1 JUMP JUMPDEST PUSH1 0x1 DUP1 PUSH1 0xA0 SHL SUB AND SWAP1 JUMP JUMPDEST PUSH2 0x274 PUSH2 0x279 SWAP2 PUSH2 0x258 JUMP JUMPDEST PUSH2 0x25D JUMP JUMPDEST SWAP1 JUMP JUMPDEST PUSH2 0x286 SWAP1 SLOAD PUSH2 0x268 JUMP JUMPDEST SWAP1 JUMP JUMPDEST PUSH2 0x292 SWAP1 PUSH2 0x118 JUMP JUMPDEST SWAP1 JUMP JUMPDEST PUSH2 0x29E SWAP1 PUSH2 0x289 JUMP JUMPDEST SWAP1 JUMP JUMPDEST SWAP1 JUMP JUMPDEST SWAP1 PUSH2 0x2B9 PUSH2 0x2B4 PUSH2 0x2C0 SWAP3 PUSH2 0x295 JUMP JUMPDEST PUSH2 0x2A1 JUMP JUMPDEST DUP3 SLOAD PUSH2 0x151 JUMP JUMPDEST SWAP1 SSTORE JUMP JUMPDEST PUSH0 ADD SWAP1 JUMP JUMPDEST PUSH2 0x2D2 PUSH0 PUSH2 0x27C JUMP JUMPDEST PUSH2 0x2DC DUP3 PUSH0 PUSH2 0x2A4 JUMP JUMPDEST SWAP1 PUSH2 0x310 PUSH2 0x30A PUSH32 0x8BE0079C531659141344CD1FD0A4F28419497F9722A3DAAFE3B4186F6B6457E0 SWAP4 PUSH2 0x295 JUMP JUMPDEST SWAP2 PUSH2 0x295 JUMP JUMPDEST SWAP2 PUSH2 0x319 PUSH2 0x34 JUMP JUMPDEST DUP1 PUSH2 0x323 DUP2 PUSH2 0x2C4 JUMP JUMPDEST SUB SWAP1 LOG3 JUMP INVALID PUSH1 0x80 PUSH1 0x40 MSTORE PUSH1 0x4 CALLDATASIZE LT ISZERO PUSH2 0x13 JUMPI JUMPDEST PUSH2 0x137A JUMP JUMPDEST PUSH2 0x1D PUSH0 CALLDATALOAD PUSH2 0x18C JUMP JUMPDEST DUP1 PUSH4 0x4808088 EQ PUSH2 0x187 JUMPI DUP1 PUSH4 0x1A5BD7FC EQ PUSH2 0x182 JUMPI DUP1 PUSH4 0x1BD9103B EQ PUSH2 0x17D JUMPI DUP1 PUSH4 0x22654955 EQ PUSH2 0x178 JUMPI DUP1 PUSH4 0x2C542B88 EQ PUSH2 0x173 JUMPI DUP1 PUSH4 0x30E6AAF2 EQ PUSH2 0x16E JUMPI DUP1 PUSH4 0x32BDB9E2 EQ PUSH2 0x169 JUMPI DUP1 PUSH4 0x4C7BE95F EQ PUSH2 0x164 JUMPI DUP1 PUSH4 0x679224B4 EQ PUSH2 0x15F JUMPI DUP1 PUSH4 0x715018A6 EQ PUSH2 0x15A JUMPI DUP1 PUSH4 0x7503E1B7 EQ PUSH2 0x155 JUMPI DUP1 PUSH4 0x7B154140 EQ PUSH2 0x150 JUMPI DUP1 PUSH4 0x89870D5A EQ PUSH2 0x14B JUMPI DUP1 PUSH4 0x8DA5CB5B EQ PUSH2 0x146 JUMPI DUP1 PUSH4 0x9D5D40FB EQ PUSH2 0x141 JUMPI DUP1 PUSH4 0xBF14C887 EQ PUSH2 0x13C JUMPI DUP1 PUSH4 0xC1DEEF52 EQ PUSH2 0x137 JUMPI DUP1 PUSH4 0xF2FDE38B EQ PUSH2 0x132 JUMPI DUP1 PUSH4 0xF4716DF2 EQ PUSH2 0x12D JUMPI DUP1 PUSH4 0xF7F20CB3 EQ PUSH2 0x128 JUMPI DUP1 PUSH4 0xFC0C546A EQ PUSH2 0x123 JUMPI DUP1 PUSH4 0xFD0C7DFB EQ PUSH2 0x11E JUMPI PUSH4 0xFFDDE68C SUB PUSH2 0xE JUMPI PUSH2 0x1343 JUMP JUMPDEST PUSH2 0x1288 JUMP JUMPDEST PUSH2 0x1253 JUMP JUMPDEST PUSH2 0x1181 JUMP JUMPDEST PUSH2 0x100C JUMP JUMPDEST PUSH2 0xFD9 JUMP JUMPDEST PUSH2 0xF86 JUMP JUMPDEST PUSH2 0xF3D JUMP JUMPDEST PUSH2 0xEBF JUMP JUMPDEST PUSH2 0xE8A JUMP JUMPDEST PUSH2 0xE31 JUMP JUMPDEST PUSH2 0xDA7 JUMP JUMPDEST PUSH2 0xD3B JUMP JUMPDEST PUSH2 0xA12 JUMP JUMPDEST PUSH2 0x9CE JUMP JUMPDEST PUSH2 0x957 JUMP JUMPDEST PUSH2 0x8CB JUMP JUMPDEST PUSH2 0x894 JUMP JUMPDEST PUSH2 0x720 JUMP JUMPDEST PUSH2 0x5F8 JUMP JUMPDEST PUSH2 0x4A0 JUMP JUMPDEST PUSH2 0x40C JUMP JUMPDEST PUSH2 0x260 JUMP JUMPDEST PUSH1 0xE0 SHR SWAP1 JUMP JUMPDEST PUSH1 0x40 MLOAD SWAP1 JUMP JUMPDEST PUSH0 DUP1 REVERT JUMPDEST PUSH0 DUP1 REVERT JUMPDEST PUSH0 DUP1 REVERT JUMPDEST SWAP1 JUMP JUMPDEST PUSH2 0x1B0 DUP2 PUSH2 0x1A4 JUMP JUMPDEST SUB PUSH2 0x1B7 JUMPI JUMP JUMPDEST PUSH0 DUP1 REVERT JUMPDEST SWAP1 POP CALLDATALOAD SWAP1 PUSH2 0x1C8 DUP3 PUSH2 0x1A7 JUMP JUMPDEST JUMP JUMPDEST PUSH0 DUP1 REVERT JUMPDEST PUSH0 DUP1 REVERT JUMPDEST PUSH0 DUP1 REVERT JUMPDEST SWAP1 SWAP2 DUP3 PUSH1 0x1F DUP4 ADD SLT ISZERO PUSH2 0x210 JUMPI DUP2 CALLDATALOAD SWAP2 PUSH8 0xFFFFFFFFFFFFFFFF DUP4 GT PUSH2 0x20B JUMPI PUSH1 0x20 ADD SWAP3 PUSH1 0x20 DUP4 MUL DUP5 ADD GT PUSH2 0x206 JUMPI JUMP JUMPDEST PUSH2 0x1D2 JUMP JUMPDEST PUSH2 0x1CE JUMP JUMPDEST PUSH2 0x1CA JUMP JUMPDEST SWAP2 SWAP1 SWAP2 PUSH1 0x40 DUP2 DUP5 SUB SLT PUSH2 0x256 JUMPI PUSH2 0x22E DUP4 PUSH0 DUP4 ADD PUSH2 0x1BB JUMP JUMPDEST SWAP3 PUSH1 0x20 DUP3 ADD CALLDATALOAD PUSH8 0xFFFFFFFFFFFFFFFF DUP2 GT PUSH2 0x251 JUMPI PUSH2 0x24D SWAP3 ADD PUSH2 0x1D6 JUMP JUMPDEST SWAP1 SWAP2 JUMP JUMPDEST PUSH2 0x1A0 JUMP JUMPDEST PUSH2 0x19C JUMP JUMPDEST PUSH0 ADD SWAP1 JUMP JUMPDEST CALLVALUE PUSH2 0x28F JUMPI PUSH2 0x279 PUSH2 0x273 CALLDATASIZE PUSH1 0x4 PUSH2 0x215 JUMP JUMPDEST SWAP2 PUSH2 0x17A9 JUMP JUMPDEST PUSH2 0x281 PUSH2 0x192 JUMP JUMPDEST DUP1 PUSH2 0x28B DUP2 PUSH2 0x25B JUMP JUMPDEST SUB SWAP1 RETURN JUMPDEST PUSH2 0x198 JUMP JUMPDEST SWAP1 PUSH1 0x20 DUP3 DUP3 SUB SLT PUSH2 0x2AD JUMPI PUSH2 0x2AA SWAP2 PUSH0 ADD PUSH2 0x1BB JUMP JUMPDEST SWAP1 JUMP JUMPDEST PUSH2 0x19C JUMP JUMPDEST PUSH2 0x2BB SWAP1 PUSH2 0x1A4 JUMP JUMPDEST SWAP1 MSTORE JUMP JUMPDEST MLOAD SWAP1 JUMP JUMPDEST PUSH1 0x20 SWAP2 DUP2 MSTORE ADD SWAP1 JUMP JUMPDEST SWAP1 DUP3 PUSH0 SWAP4 SWAP3 DUP3 MCOPY ADD MSTORE JUMP JUMPDEST PUSH1 0x1F DUP1 NOT SWAP2 ADD AND SWAP1 JUMP JUMPDEST PUSH2 0x300 PUSH2 0x309 PUSH1 0x20 SWAP4 PUSH2 0x30E SWAP4 PUSH2 0x2F7 DUP2 PUSH2 0x2BF JUMP JUMPDEST SWAP4 DUP5 DUP1 SWAP4 PUSH2 0x2C3 JUMP JUMPDEST SWAP6 DUP7 SWAP2 ADD PUSH2 0x2CC JUMP JUMPDEST PUSH2 0x2D7 JUMP JUMPDEST ADD SWAP1 JUMP JUMPDEST PUSH4 0x4E487B71 PUSH1 0xE0 SHL PUSH0 MSTORE PUSH1 0x21 PUSH1 0x4 MSTORE PUSH1 0x24 PUSH0 REVERT JUMPDEST PUSH1 0x4 GT ISZERO PUSH2 0x330 JUMPI JUMP JUMPDEST PUSH2 0x312 JUMP JUMPDEST SWAP1 PUSH2 0x33F DUP3 PUSH2 0x326 JUMP JUMPDEST JUMP JUMPDEST PUSH2 0x34A SWAP1 PUSH2 0x335 JUMP JUMPDEST SWAP1 JUMP JUMPDEST PUSH2 0x356 SWAP1 PUSH2 0x341 JUMP JUMPDEST SWAP1 MSTORE JUMP JUMPDEST SWAP1 PUSH2 0x3F1 SWAP1 PUSH1 0xE0 DUP1 PUSH2 0x38C PUSH2 0x100 DUP5 ADD PUSH2 0x37A PUSH0 DUP9 ADD MLOAD PUSH0 DUP8 ADD SWAP1 PUSH2 0x2B2 JUMP JUMPDEST PUSH1 0x20 DUP8 ADD MLOAD DUP6 DUP3 SUB PUSH1 0x20 DUP8 ADD MSTORE PUSH2 0x2E1 JUMP JUMPDEST SWAP5 PUSH2 0x39F PUSH1 0x40 DUP3 ADD MLOAD PUSH1 0x40 DUP7 ADD SWAP1 PUSH2 0x2B2 JUMP JUMPDEST PUSH2 0x3B1 PUSH1 0x60 DUP3 ADD MLOAD PUSH1 0x60 DUP7 ADD SWAP1 PUSH2 0x2B2 JUMP JUMPDEST PUSH2 0x3C3 PUSH1 0x80 DUP3 ADD MLOAD PUSH1 0x80 DUP7 ADD SWAP1 PUSH2 0x2B2 JUMP JUMPDEST PUSH2 0x3D5 PUSH1 0xA0 DUP3 ADD MLOAD PUSH1 0xA0 DUP7 ADD SWAP1 PUSH2 0x2B2 JUMP JUMPDEST PUSH2 0x3E7 PUSH1 0xC0 DUP3 ADD MLOAD PUSH1 0xC0 DUP7 ADD SWAP1 PUSH2 0x2B2 JUMP JUMPDEST ADD MLOAD SWAP2 ADD SWAP1 PUSH2 0x34D JUMP JUMPDEST SWAP1 JUMP JUMPDEST PUSH2 0x409 SWAP2 PUSH1 0x20 DUP3 ADD SWAP2 PUSH0 DUP2 DUP5 SUB SWAP2 ADD MSTORE PUSH2 0x35A JUMP JUMPDEST SWAP1 JUMP JUMPDEST CALLVALUE PUSH2 0x43C JUMPI PUSH2 0x438 PUSH2 0x427 PUSH2 0x422 CALLDATASIZE PUSH1 0x4 PUSH2 0x294 JUMP JUMPDEST PUSH2 0x183C JUMP JUMPDEST PUSH2 0x42F PUSH2 0x192 JUMP JUMPDEST SWAP2 DUP3 SWAP2 DUP3 PUSH2 0x3F4 JUMP JUMPDEST SUB SWAP1 RETURN JUMPDEST PUSH2 0x198 JUMP JUMPDEST SWAP1 SWAP2 PUSH1 0x60 DUP3 DUP5 SUB SLT PUSH2 0x476 JUMPI PUSH2 0x473 PUSH2 0x45C DUP5 PUSH0 DUP6 ADD PUSH2 0x1BB JUMP JUMPDEST SWAP4 PUSH2 0x46A DUP2 PUSH1 0x20 DUP7 ADD PUSH2 0x1BB JUMP JUMPDEST SWAP4 PUSH1 0x40 ADD PUSH2 0x1BB JUMP JUMPDEST SWAP1 JUMP JUMPDEST PUSH2 0x19C JUMP JUMPDEST SWAP1 JUMP JUMPDEST PUSH2 0x487 SWAP1 PUSH2 0x47B JUMP JUMPDEST SWAP1 MSTORE JUMP JUMPDEST SWAP2 SWAP1 PUSH2 0x49E SWAP1 PUSH0 PUSH1 0x20 DUP6 ADD SWAP5 ADD SWAP1 PUSH2 0x47E JUMP JUMPDEST JUMP JUMPDEST CALLVALUE PUSH2 0x4D1 JUMPI PUSH2 0x4CD PUSH2 0x4BC PUSH2 0x4B6 CALLDATASIZE PUSH1 0x4 PUSH2 0x441 JUMP JUMPDEST SWAP2 PUSH2 0x18AD JUMP JUMPDEST PUSH2 0x4C4 PUSH2 0x192 JUMP JUMPDEST SWAP2 DUP3 SWAP2 DUP3 PUSH2 0x48B JUMP JUMPDEST SUB SWAP1 RETURN JUMPDEST PUSH2 0x198 JUMP JUMPDEST PUSH0 DUP1 REVERT JUMPDEST PUSH4 0x4E487B71 PUSH1 0xE0 SHL PUSH0 MSTORE PUSH1 0x41 PUSH1 0x4 MSTORE PUSH1 0x24 PUSH0 REVERT JUMPDEST SWAP1 PUSH2 0x4F8 SWAP1 PUSH2 0x2D7 JUMP JUMPDEST DUP2 ADD SWAP1 DUP2 LT PUSH8 0xFFFFFFFFFFFFFFFF DUP3 GT OR PUSH2 0x512 JUMPI PUSH1 0x40 MSTORE JUMP JUMPDEST PUSH2 0x4DA JUMP JUMPDEST SWAP1 PUSH2 0x52A PUSH2 0x523 PUSH2 0x192 JUMP JUMPDEST SWAP3 DUP4 PUSH2 0x4EE JUMP JUMPDEST JUMP JUMPDEST PUSH8 0xFFFFFFFFFFFFFFFF DUP2 GT PUSH2 0x54A JUMPI PUSH2 0x546 PUSH1 0x20 SWAP2 PUSH2 0x2D7 JUMP JUMPDEST ADD SWAP1 JUMP JUMPDEST PUSH2 0x4DA JUMP JUMPDEST SWAP1 DUP3 PUSH0 SWAP4 SWAP3 DUP3 CALLDATACOPY ADD MSTORE JUMP JUMPDEST SWAP1 SWAP3 SWAP2 SWAP3 PUSH2 0x56F PUSH2 0x56A DUP3 PUSH2 0x52C JUMP JUMPDEST PUSH2 0x517 JUMP JUMPDEST SWAP4 DUP2 DUP6 MSTORE PUSH1 0x20 DUP6 ADD SWAP1 DUP3 DUP5 ADD GT PUSH2 0x58B JUMPI PUSH2 0x589 SWAP3 PUSH2 0x54F JUMP JUMPDEST JUMP JUMPDEST PUSH2 0x4D6 JUMP JUMPDEST SWAP1 DUP1 PUSH1 0x1F DUP4 ADD SLT ISZERO PUSH2 0x5AE JUMPI DUP2 PUSH1 0x20 PUSH2 0x5AB SWAP4 CALLDATALOAD SWAP2 ADD PUSH2 0x55A JUMP JUMPDEST SWAP1 JUMP JUMPDEST PUSH2 0x1CA JUMP JUMPDEST SWAP2 SWAP1 SWAP2 PUSH1 0x40 DUP2 DUP5 SUB SLT PUSH2 0x5F3 JUMPI PUSH2 0x5CC DUP4 PUSH0 DUP4 ADD PUSH2 0x1BB JUMP JUMPDEST SWAP3 PUSH1 0x20 DUP3 ADD CALLDATALOAD PUSH8 0xFFFFFFFFFFFFFFFF DUP2 GT PUSH2 0x5EE JUMPI PUSH2 0x5EB SWAP3 ADD PUSH2 0x590 JUMP JUMPDEST SWAP1 JUMP JUMPDEST PUSH2 0x1A0 JUMP JUMPDEST PUSH2 0x19C JUMP JUMPDEST CALLVALUE PUSH2 0x627 JUMPI PUSH2 0x611 PUSH2 0x60B CALLDATASIZE PUSH1 0x4 PUSH2 0x5B3 JUMP JUMPDEST SWAP1 PUSH2 0x1F37 JUMP JUMPDEST PUSH2 0x619 PUSH2 0x192 JUMP JUMPDEST DUP1 PUSH2 0x623 DUP2 PUSH2 0x25B JUMP JUMPDEST SUB SWAP1 RETURN JUMPDEST PUSH2 0x198 JUMP JUMPDEST PUSH1 0x1 DUP1 PUSH1 0xA0 SHL SUB AND SWAP1 JUMP JUMPDEST PUSH2 0x640 SWAP1 PUSH2 0x62C JUMP JUMPDEST SWAP1 JUMP JUMPDEST PUSH2 0x64C SWAP1 PUSH2 0x637 JUMP JUMPDEST SWAP1 MSTORE JUMP JUMPDEST ISZERO ISZERO SWAP1 JUMP JUMPDEST PUSH2 0x65E SWAP1 PUSH2 0x650 JUMP JUMPDEST SWAP1 MSTORE JUMP JUMPDEST PUSH2 0x69F SWAP2 PUSH1 0x40 PUSH1 0x60 DUP3 ADD SWAP3 PUSH2 0x67D PUSH0 DUP3 ADD MLOAD PUSH0 DUP6 ADD SWAP1 PUSH2 0x643 JUMP JUMPDEST PUSH2 0x68F PUSH1 0x20 DUP3 ADD MLOAD PUSH1 0x20 DUP6 ADD SWAP1 PUSH2 0x655 JUMP JUMPDEST ADD MLOAD SWAP1 PUSH1 0x40 DUP2 DUP5 SUB SWAP2 ADD MSTORE PUSH2 0x2E1 JUMP JUMPDEST SWAP1 JUMP JUMPDEST SWAP1 PUSH2 0x705 SWAP1 PUSH1 0x80 DUP1 PUSH2 0x6E8 PUSH2 0x6C4 PUSH1 0xA0 DUP6 ADD PUSH0 DUP9 ADD MLOAD DUP7 DUP3 SUB PUSH0 DUP9 ADD MSTORE PUSH2 0x662 JUMP JUMPDEST PUSH2 0x6D6 PUSH1 0x20 DUP9 ADD MLOAD PUSH1 0x20 DUP8 ADD SWAP1 PUSH2 0x2B2 JUMP JUMPDEST PUSH1 0x40 DUP8 ADD MLOAD DUP6 DUP3 SUB PUSH1 0x40 DUP8 ADD MSTORE PUSH2 0x662 JUMP JUMPDEST SWAP5 PUSH2 0x6FB PUSH1 0x60 DUP3 ADD MLOAD PUSH1 0x60 DUP7 ADD SWAP1 PUSH2 0x2B2 JUMP JUMPDEST ADD MLOAD SWAP2 ADD SWAP1 PUSH2 0x34D JUMP JUMPDEST SWAP1 JUMP JUMPDEST PUSH2 0x71D SWAP2 PUSH1 0x20 DUP3 ADD SWAP2 PUSH0 DUP2 DUP5 SUB SWAP2 ADD MSTORE PUSH2 0x6A2 JUMP JUMPDEST SWAP1 JUMP JUMPDEST CALLVALUE PUSH2 0x751 JUMPI PUSH2 0x74D PUSH2 0x73C PUSH2 0x736 CALLDATASIZE PUSH1 0x4 PUSH2 0x441 JUMP JUMPDEST SWAP2 PUSH2 0x225C JUMP JUMPDEST PUSH2 0x744 PUSH2 0x192 JUMP JUMPDEST SWAP2 DUP3 SWAP2 DUP3 PUSH2 0x708 JUMP JUMPDEST SUB SWAP1 RETURN JUMPDEST PUSH2 0x198 JUMP JUMPDEST PUSH0 DUP1 REVERT JUMPDEST PUSH0 DUP1 REVERT JUMPDEST PUSH2 0x767 DUP2 PUSH2 0x637 JUMP JUMPDEST SUB PUSH2 0x76E JUMPI JUMP JUMPDEST PUSH0 DUP1 REVERT JUMPDEST SWAP1 POP CALLDATALOAD SWAP1 PUSH2 0x77F DUP3 PUSH2 0x75E JUMP JUMPDEST JUMP JUMPDEST PUSH2 0x78A DUP2 PUSH2 0x650 JUMP JUMPDEST SUB PUSH2 0x791 JUMPI JUMP JUMPDEST PUSH0 DUP1 REVERT JUMPDEST SWAP1 POP CALLDATALOAD SWAP1 PUSH2 0x7A2 DUP3 PUSH2 0x781 JUMP JUMPDEST JUMP JUMPDEST SWAP2 SWAP1 SWAP2 PUSH1 0x60 DUP2 DUP5 SUB SLT PUSH2 0x808 JUMPI PUSH2 0x7BB PUSH1 0x60 PUSH2 0x517 JUMP JUMPDEST SWAP3 PUSH2 0x7C8 DUP2 PUSH0 DUP5 ADD PUSH2 0x772 JUMP JUMPDEST PUSH0 DUP6 ADD MSTORE PUSH2 0x7D9 DUP2 PUSH1 0x20 DUP5 ADD PUSH2 0x795 JUMP JUMPDEST PUSH1 0x20 DUP6 ADD MSTORE PUSH1 0x40 DUP3 ADD CALLDATALOAD PUSH8 0xFFFFFFFFFFFFFFFF DUP2 GT PUSH2 0x803 JUMPI PUSH2 0x7FC SWAP3 ADD PUSH2 0x590 JUMP JUMPDEST PUSH1 0x40 DUP4 ADD MSTORE JUMP JUMPDEST PUSH2 0x75A JUMP JUMPDEST PUSH2 0x756 JUMP JUMPDEST SWAP2 SWAP1 SWAP2 PUSH1 0xA0 DUP2 DUP5 SUB SLT PUSH2 0x88F JUMPI PUSH2 0x826 DUP4 PUSH0 DUP4 ADD PUSH2 0x1BB JUMP JUMPDEST SWAP3 PUSH2 0x834 DUP2 PUSH1 0x20 DUP5 ADD PUSH2 0x1BB JUMP JUMPDEST SWAP3 PUSH2 0x842 DUP3 PUSH1 0x40 DUP6 ADD PUSH2 0x1BB JUMP JUMPDEST SWAP3 PUSH1 0x60 DUP2 ADD CALLDATALOAD PUSH8 0xFFFFFFFFFFFFFFFF DUP2 GT PUSH2 0x88A JUMPI DUP4 PUSH2 0x863 SWAP2 DUP4 ADD PUSH2 0x7A4 JUMP JUMPDEST SWAP3 PUSH1 0x80 DUP3 ADD CALLDATALOAD PUSH8 0xFFFFFFFFFFFFFFFF DUP2 GT PUSH2 0x885 JUMPI PUSH2 0x882 SWAP3 ADD PUSH2 0x7A4 JUMP JUMPDEST SWAP1 JUMP JUMPDEST PUSH2 0x1A0 JUMP JUMPDEST PUSH2 0x1A0 JUMP JUMPDEST PUSH2 0x19C JUMP JUMPDEST CALLVALUE PUSH2 0x8C6 JUMPI PUSH2 0x8B0 PUSH2 0x8A7 CALLDATASIZE PUSH1 0x4 PUSH2 0x80D JUMP JUMPDEST SWAP4 SWAP3 SWAP1 SWAP3 PUSH2 0x247C JUMP JUMPDEST PUSH2 0x8B8 PUSH2 0x192 JUMP JUMPDEST DUP1 PUSH2 0x8C2 DUP2 PUSH2 0x25B JUMP JUMPDEST SUB SWAP1 RETURN JUMPDEST PUSH2 0x198 JUMP JUMPDEST CALLVALUE PUSH2 0x8FA JUMPI PUSH2 0x8E4 PUSH2 0x8DE CALLDATASIZE PUSH1 0x4 PUSH2 0x215 JUMP JUMPDEST SWAP2 PUSH2 0x2523 JUMP JUMPDEST PUSH2 0x8EC PUSH2 0x192 JUMP JUMPDEST DUP1 PUSH2 0x8F6 DUP2 PUSH2 0x25B JUMP JUMPDEST SUB SWAP1 RETURN JUMPDEST PUSH2 0x198 JUMP JUMPDEST PUSH2 0x93C SWAP2 PUSH1 0x40 PUSH1 0x60 DUP3 ADD SWAP3 PUSH2 0x91A PUSH0 DUP3 ADD MLOAD PUSH0 DUP6 ADD SWAP1 PUSH2 0x643 JUMP JUMPDEST PUSH2 0x92C PUSH1 0x20 DUP3 ADD MLOAD PUSH1 0x20 DUP6 ADD SWAP1 PUSH2 0x655 JUMP JUMPDEST ADD MLOAD SWAP1 PUSH1 0x40 DUP2 DUP5 SUB SWAP2 ADD MSTORE PUSH2 0x2E1 JUMP JUMPDEST SWAP1 JUMP JUMPDEST PUSH2 0x954 SWAP2 PUSH1 0x20 DUP3 ADD SWAP2 PUSH0 DUP2 DUP5 SUB SWAP2 ADD MSTORE PUSH2 0x8FF JUMP JUMPDEST SWAP1 JUMP JUMPDEST CALLVALUE PUSH2 0x988 JUMPI PUSH2 0x984 PUSH2 0x973 PUSH2 0x96D CALLDATASIZE PUSH1 0x4 PUSH2 0x441 JUMP JUMPDEST SWAP2 PUSH2 0x253B JUMP JUMPDEST PUSH2 0x97B PUSH2 0x192 JUMP JUMPDEST SWAP2 DUP3 SWAP2 DUP3 PUSH2 0x93F JUMP JUMPDEST SUB SWAP1 RETURN JUMPDEST PUSH2 0x198 JUMP JUMPDEST PUSH2 0x996 DUP2 PUSH2 0x47B JUMP JUMPDEST SUB PUSH2 0x99D JUMPI JUMP JUMPDEST PUSH0 DUP1 REVERT JUMPDEST SWAP1 POP CALLDATALOAD SWAP1 PUSH2 0x9AE DUP3 PUSH2 0x98D JUMP JUMPDEST JUMP JUMPDEST SWAP1 PUSH1 0x20 DUP3 DUP3 SUB SLT PUSH2 0x9C9 JUMPI PUSH2 0x9C6 SWAP2 PUSH0 ADD PUSH2 0x9A1 JUMP JUMPDEST SWAP1 JUMP JUMPDEST PUSH2 0x19C JUMP JUMPDEST CALLVALUE PUSH2 0x9FE JUMPI PUSH2 0x9FA PUSH2 0x9E9 PUSH2 0x9E4 CALLDATASIZE PUSH1 0x4 PUSH2 0x9B0 JUMP JUMPDEST PUSH2 0x2568 JUMP JUMPDEST PUSH2 0x9F1 PUSH2 0x192 JUMP JUMPDEST SWAP2 DUP3 SWAP2 DUP3 PUSH2 0x708 JUMP JUMPDEST SUB SWAP1 RETURN JUMPDEST PUSH2 0x198 JUMP JUMPDEST PUSH0 SWAP2 SUB SLT PUSH2 0xA0D JUMPI JUMP JUMPDEST PUSH2 0x19C JUMP JUMPDEST CALLVALUE PUSH2 0xA40 JUMPI PUSH2 0xA22 CALLDATASIZE PUSH1 0x4 PUSH2 0xA03 JUMP JUMPDEST PUSH2 0xA2A PUSH2 0x25D4 JUMP JUMPDEST PUSH2 0xA32 PUSH2 0x192 JUMP JUMPDEST DUP1 PUSH2 0xA3C DUP2 PUSH2 0x25B JUMP JUMPDEST SUB SWAP1 RETURN JUMPDEST PUSH2 0x198 JUMP JUMPDEST PUSH4 0x4E487B71 PUSH1 0xE0 SHL PUSH0 MSTORE PUSH1 0x32 PUSH1 0x4 MSTORE PUSH1 0x24 PUSH0 REVERT JUMPDEST SLOAD SWAP1 JUMP JUMPDEST PUSH0 MSTORE PUSH1 0x20 PUSH0 KECCAK256 SWAP1 JUMP JUMPDEST PUSH2 0xA6F DUP2 PUSH2 0xA59 JUMP JUMPDEST DUP3 LT ISZERO PUSH2 0xA89 JUMPI PUSH2 0xA81 PUSH1 0x8 SWAP2 PUSH2 0xA5D JUMP JUMPDEST SWAP2 MUL ADD SWAP1 PUSH0 SWAP1 JUMP JUMPDEST PUSH2 0xA45 JUMP JUMPDEST PUSH0 SHR SWAP1 JUMP JUMPDEST SWAP1 JUMP JUMPDEST PUSH2 0xAA2 PUSH2 0xAA7 SWAP2 PUSH2 0xA8E JUMP JUMPDEST PUSH2 0xA93 JUMP JUMPDEST SWAP1 JUMP JUMPDEST PUSH2 0xAB4 SWAP1 SLOAD PUSH2 0xA96 JUMP JUMPDEST SWAP1 JUMP JUMPDEST PUSH4 0x4E487B71 PUSH1 0xE0 SHL PUSH0 MSTORE PUSH1 0x22 PUSH1 0x4 MSTORE PUSH1 0x24 PUSH0 REVERT JUMPDEST SWAP1 PUSH1 0x1 PUSH1 0x2 DUP4 DIV SWAP3 AND DUP1 ISZERO PUSH2 0xAEB JUMPI JUMPDEST PUSH1 0x20 DUP4 LT EQ PUSH2 0xAE6 JUMPI JUMP JUMPDEST PUSH2 0xAB7 JUMP JUMPDEST SWAP2 PUSH1 0x7F AND SWAP2 PUSH2 0xADB JUMP JUMPDEST PUSH0 MSTORE PUSH1 0x20 PUSH0 KECCAK256 SWAP1 JUMP JUMPDEST SWAP1 PUSH0 SWAP3 SWAP2 DUP1 SLOAD SWAP1 PUSH2 0xB18 PUSH2 0xB11 DUP4 PUSH2 0xACB JUMP JUMPDEST DUP1 SWAP5 PUSH2 0x2C3 JUMP JUMPDEST SWAP2 PUSH1 0x1 DUP2 AND SWAP1 DUP2 PUSH0 EQ PUSH2 0xB6F JUMPI POP PUSH1 0x1 EQ PUSH2 0xB33 JUMPI JUMPDEST POP POP POP JUMP JUMPDEST PUSH2 0xB40 SWAP2 SWAP3 SWAP4 SWAP5 POP PUSH2 0xAF5 JUMP JUMPDEST SWAP2 PUSH0 SWAP3 JUMPDEST DUP2 DUP5 LT PUSH2 0xB57 JUMPI POP POP ADD SWAP1 PUSH0 DUP1 DUP1 PUSH2 0xB2E JUMP JUMPDEST PUSH1 0x1 DUP2 PUSH1 0x20 SWAP3 SWAP6 SWAP4 SWAP6 SLOAD DUP5 DUP7 ADD MSTORE ADD SWAP2 ADD SWAP3 SWAP1 PUSH2 0xB44 JUMP JUMPDEST SWAP3 SWAP5 SWAP6 POP POP POP PUSH1 0xFF NOT AND DUP3 MSTORE ISZERO ISZERO PUSH1 0x20 MUL ADD SWAP1 PUSH0 DUP1 DUP1 PUSH2 0xB2E JUMP JUMPDEST SWAP1 PUSH2 0xB94 SWAP2 PUSH2 0xAFE JUMP JUMPDEST SWAP1 JUMP JUMPDEST SWAP1 PUSH2 0xBB7 PUSH2 0xBB0 SWAP3 PUSH2 0xBA7 PUSH2 0x192 JUMP JUMPDEST SWAP4 DUP5 DUP1 SWAP3 PUSH2 0xB8A JUMP JUMPDEST SUB DUP4 PUSH2 0x4EE JUMP JUMPDEST JUMP JUMPDEST PUSH1 0xFF AND SWAP1 JUMP JUMPDEST PUSH2 0xBCB PUSH2 0xBD0 SWAP2 PUSH2 0xA8E JUMP JUMPDEST PUSH2 0xBB9 JUMP JUMPDEST SWAP1 JUMP JUMPDEST PUSH2 0xBDD SWAP1 SLOAD PUSH2 0xBBF JUMP JUMPDEST SWAP1 JUMP JUMPDEST PUSH1 0x2 SWAP1 PUSH2 0xBEC DUP3 PUSH2 0xA59 JUMP JUMPDEST DUP2 LT ISZERO PUSH2 0xC66 JUMPI PUSH2 0xBFC SWAP2 PUSH2 0xA66 JUMP JUMPDEST POP SWAP1 PUSH2 0xC09 PUSH0 DUP4 ADD PUSH2 0xAAA JUMP JUMPDEST SWAP2 PUSH2 0xC16 PUSH1 0x1 DUP3 ADD PUSH2 0xB97 JUMP JUMPDEST SWAP2 PUSH2 0xC23 PUSH1 0x2 DUP4 ADD PUSH2 0xAAA JUMP JUMPDEST SWAP2 PUSH2 0xC30 PUSH1 0x3 DUP3 ADD PUSH2 0xAAA JUMP JUMPDEST SWAP2 PUSH2 0xC3D PUSH1 0x4 DUP4 ADD PUSH2 0xAAA JUMP JUMPDEST SWAP2 PUSH2 0xC4A PUSH1 0x5 DUP3 ADD PUSH2 0xAAA JUMP JUMPDEST SWAP2 PUSH2 0xC63 PUSH1 0x7 PUSH2 0xC5C PUSH1 0x6 DUP6 ADD PUSH2 0xAAA JUMP JUMPDEST SWAP4 ADD PUSH2 0xBD3 JUMP JUMPDEST SWAP1 JUMP JUMPDEST PUSH0 DUP1 REVERT JUMPDEST PUSH2 0xC73 SWAP1 PUSH2 0x1A4 JUMP JUMPDEST SWAP1 MSTORE JUMP JUMPDEST PUSH1 0x20 SWAP2 DUP2 MSTORE ADD SWAP1 JUMP JUMPDEST PUSH2 0xC9F PUSH2 0xCA8 PUSH1 0x20 SWAP4 PUSH2 0xCAD SWAP4 PUSH2 0xC96 DUP2 PUSH2 0x2BF JUMP JUMPDEST SWAP4 DUP5 DUP1 SWAP4 PUSH2 0xC77 JUMP JUMPDEST SWAP6 DUP7 SWAP2 ADD PUSH2 0x2CC JUMP JUMPDEST PUSH2 0x2D7 JUMP JUMPDEST ADD SWAP1 JUMP JUMPDEST PUSH2 0xCBA SWAP1 PUSH2 0x341 JUMP JUMPDEST SWAP1 MSTORE JUMP JUMPDEST SWAP4 SWAP6 PUSH2 0xD1E PUSH1 0xE0 SWAP7 PUSH2 0xD14 PUSH2 0xD32 SWAP7 SWAP13 SWAP12 SWAP10 PUSH2 0xD0A PUSH2 0xCFF DUP11 PUSH2 0xD39 SWAP15 SWAP10 PUSH2 0xCF1 PUSH2 0xD28 SWAP11 PUSH0 PUSH2 0x100 DUP6 ADD SWAP5 ADD SWAP1 PUSH2 0xC6A JUMP JUMPDEST DUP13 PUSH1 0x20 DUP2 DUP5 SUB SWAP2 ADD MSTORE PUSH2 0xC80 JUMP JUMPDEST SWAP15 PUSH1 0x40 DUP12 ADD SWAP1 PUSH2 0xC6A JUMP JUMPDEST PUSH1 0x60 DUP10 ADD SWAP1 PUSH2 0xC6A JUMP JUMPDEST PUSH1 0x80 DUP8 ADD SWAP1 PUSH2 0xC6A JUMP JUMPDEST PUSH1 0xA0 DUP6 ADD SWAP1 PUSH2 0xC6A JUMP JUMPDEST PUSH1 0xC0 DUP4 ADD SWAP1 PUSH2 0xC6A JUMP JUMPDEST ADD SWAP1 PUSH2 0xCB1 JUMP JUMPDEST JUMP JUMPDEST CALLVALUE PUSH2 0xD75 JUMPI PUSH2 0xD71 PUSH2 0xD56 PUSH2 0xD51 CALLDATASIZE PUSH1 0x4 PUSH2 0x294 JUMP JUMPDEST PUSH2 0xBE0 JUMP JUMPDEST SWAP5 PUSH2 0xD68 SWAP9 SWAP7 SWAP9 SWAP5 SWAP2 SWAP5 SWAP4 SWAP3 SWAP4 PUSH2 0x192 JUMP JUMPDEST SWAP9 DUP10 SWAP9 DUP10 PUSH2 0xCBE JUMP JUMPDEST SUB SWAP1 RETURN JUMPDEST PUSH2 0x198 JUMP JUMPDEST SWAP2 SWAP1 PUSH1 0x40 DUP4 DUP3 SUB SLT PUSH2 0xDA2 JUMPI DUP1 PUSH2 0xD96 PUSH2 0xD9F SWAP3 PUSH0 DUP7 ADD PUSH2 0x1BB JUMP JUMPDEST SWAP4 PUSH1 0x20 ADD PUSH2 0x1BB JUMP JUMPDEST SWAP1 JUMP JUMPDEST PUSH2 0x19C JUMP JUMPDEST CALLVALUE PUSH2 0xDD6 JUMPI PUSH2 0xDC0 PUSH2 0xDBA CALLDATASIZE PUSH1 0x4 PUSH2 0xD7A JUMP JUMPDEST SWAP1 PUSH2 0x2945 JUMP JUMPDEST PUSH2 0xDC8 PUSH2 0x192 JUMP JUMPDEST DUP1 PUSH2 0xDD2 DUP2 PUSH2 0x25B JUMP JUMPDEST SUB SWAP1 RETURN JUMPDEST PUSH2 0x198 JUMP JUMPDEST SWAP2 SWAP1 PUSH1 0xA0 DUP4 DUP3 SUB SLT PUSH2 0xE2C JUMPI PUSH2 0xDF3 DUP2 PUSH0 DUP6 ADD PUSH2 0x1BB JUMP JUMPDEST SWAP3 PUSH2 0xE01 DUP3 PUSH1 0x20 DUP4 ADD PUSH2 0x1BB JUMP JUMPDEST SWAP3 PUSH2 0xE29 PUSH2 0xE12 DUP5 PUSH1 0x40 DUP6 ADD PUSH2 0x1BB JUMP JUMPDEST SWAP4 PUSH2 0xE20 DUP2 PUSH1 0x60 DUP7 ADD PUSH2 0x1BB JUMP JUMPDEST SWAP4 PUSH1 0x80 ADD PUSH2 0x1BB JUMP JUMPDEST SWAP1 JUMP JUMPDEST PUSH2 0x19C JUMP JUMPDEST CALLVALUE PUSH2 0xE63 JUMPI PUSH2 0xE4D PUSH2 0xE44 CALLDATASIZE PUSH1 0x4 PUSH2 0xDDB JUMP JUMPDEST SWAP4 SWAP3 SWAP1 SWAP3 PUSH2 0x2D2D JUMP JUMPDEST PUSH2 0xE55 PUSH2 0x192 JUMP JUMPDEST DUP1 PUSH2 0xE5F DUP2 PUSH2 0x25B JUMP JUMPDEST SUB SWAP1 RETURN JUMPDEST PUSH2 0x198 JUMP JUMPDEST PUSH2 0xE71 SWAP1 PUSH2 0x637 JUMP JUMPDEST SWAP1 MSTORE JUMP JUMPDEST SWAP2 SWAP1 PUSH2 0xE88 SWAP1 PUSH0 PUSH1 0x20 DUP6 ADD SWAP5 ADD SWAP1 PUSH2 0xE68 JUMP JUMPDEST JUMP JUMPDEST CALLVALUE PUSH2 0xEBA JUMPI PUSH2 0xE9A CALLDATASIZE PUSH1 0x4 PUSH2 0xA03 JUMP JUMPDEST PUSH2 0xEB6 PUSH2 0xEA5 PUSH2 0x2D40 JUMP JUMPDEST PUSH2 0xEAD PUSH2 0x192 JUMP JUMPDEST SWAP2 DUP3 SWAP2 DUP3 PUSH2 0xE75 JUMP JUMPDEST SUB SWAP1 RETURN JUMPDEST PUSH2 0x198 JUMP JUMPDEST CALLVALUE PUSH2 0xEEE JUMPI PUSH2 0xED8 PUSH2 0xED2 CALLDATASIZE PUSH1 0x4 PUSH2 0x215 JUMP JUMPDEST SWAP2 PUSH2 0x2DD7 JUMP JUMPDEST PUSH2 0xEE0 PUSH2 0x192 JUMP JUMPDEST DUP1 PUSH2 0xEEA DUP2 PUSH2 0x25B JUMP JUMPDEST SUB SWAP1 RETURN JUMPDEST PUSH2 0x198 JUMP JUMPDEST PUSH1 0x4 GT ISZERO PUSH2 0xEFD JUMPI JUMP JUMPDEST PUSH0 DUP1 REVERT JUMPDEST SWAP1 POP CALLDATALOAD SWAP1 PUSH2 0xF0E DUP3 PUSH2 0xEF3 JUMP JUMPDEST JUMP JUMPDEST SWAP2 SWAP1 PUSH1 0x40 DUP4 DUP3 SUB SLT PUSH2 0xF38 JUMPI DUP1 PUSH2 0xF2C PUSH2 0xF35 SWAP3 PUSH0 DUP7 ADD PUSH2 0xF01 JUMP JUMPDEST SWAP4 PUSH1 0x20 ADD PUSH2 0x1BB JUMP JUMPDEST SWAP1 JUMP JUMPDEST PUSH2 0x19C JUMP JUMPDEST CALLVALUE PUSH2 0xF6C JUMPI PUSH2 0xF56 PUSH2 0xF50 CALLDATASIZE PUSH1 0x4 PUSH2 0xF10 JUMP JUMPDEST SWAP1 PUSH2 0x2DE4 JUMP JUMPDEST PUSH2 0xF5E PUSH2 0x192 JUMP JUMPDEST DUP1 PUSH2 0xF68 DUP2 PUSH2 0x25B JUMP JUMPDEST SUB SWAP1 RETURN JUMPDEST PUSH2 0x198 JUMP JUMPDEST SWAP2 SWAP1 PUSH2 0xF84 SWAP1 PUSH0 PUSH1 0x20 DUP6 ADD SWAP5 ADD SWAP1 PUSH2 0xC6A JUMP JUMPDEST JUMP JUMPDEST CALLVALUE PUSH2 0xFB6 JUMPI PUSH2 0xF96 CALLDATASIZE PUSH1 0x4 PUSH2 0xA03 JUMP JUMPDEST PUSH2 0xFB2 PUSH2 0xFA1 PUSH2 0x2E40 JUMP JUMPDEST PUSH2 0xFA9 PUSH2 0x192 JUMP JUMPDEST SWAP2 DUP3 SWAP2 DUP3 PUSH2 0xF71 JUMP JUMPDEST SUB SWAP1 RETURN JUMPDEST PUSH2 0x198 JUMP JUMPDEST SWAP1 PUSH1 0x20 DUP3 DUP3 SUB SLT PUSH2 0xFD4 JUMPI PUSH2 0xFD1 SWAP2 PUSH0 ADD PUSH2 0x772 JUMP JUMPDEST SWAP1 JUMP JUMPDEST PUSH2 0x19C JUMP JUMPDEST CALLVALUE PUSH2 0x1007 JUMPI PUSH2 0xFF1 PUSH2 0xFEC CALLDATASIZE PUSH1 0x4 PUSH2 0xFBB JUMP JUMPDEST PUSH2 0x2EBB JUMP JUMPDEST PUSH2 0xFF9 PUSH2 0x192 JUMP JUMPDEST DUP1 PUSH2 0x1003 DUP2 PUSH2 0x25B JUMP JUMPDEST SUB SWAP1 RETURN JUMPDEST PUSH2 0x198 JUMP JUMPDEST CALLVALUE PUSH2 0x103D JUMPI PUSH2 0x1039 PUSH2 0x1028 PUSH2 0x1022 CALLDATASIZE PUSH1 0x4 PUSH2 0x441 JUMP JUMPDEST SWAP2 PUSH2 0x2EC6 JUMP JUMPDEST PUSH2 0x1030 PUSH2 0x192 JUMP JUMPDEST SWAP2 DUP3 SWAP2 DUP3 PUSH2 0x48B JUMP JUMPDEST SUB SWAP1 RETURN JUMPDEST PUSH2 0x198 JUMP JUMPDEST MLOAD SWAP1 JUMP JUMPDEST PUSH1 0x20 SWAP2 DUP2 MSTORE ADD SWAP1 JUMP JUMPDEST PUSH1 0x20 ADD SWAP1 JUMP JUMPDEST SWAP1 PUSH2 0x10EC SWAP1 PUSH1 0xE0 DUP1 PUSH2 0x1087 PUSH2 0x100 DUP5 ADD PUSH2 0x1075 PUSH0 DUP9 ADD MLOAD PUSH0 DUP8 ADD SWAP1 PUSH2 0x2B2 JUMP JUMPDEST PUSH1 0x20 DUP8 ADD MLOAD DUP6 DUP3 SUB PUSH1 0x20 DUP8 ADD MSTORE PUSH2 0x2E1 JUMP JUMPDEST SWAP5 PUSH2 0x109A PUSH1 0x40 DUP3 ADD MLOAD PUSH1 0x40 DUP7 ADD SWAP1 PUSH2 0x2B2 JUMP JUMPDEST PUSH2 0x10AC PUSH1 0x60 DUP3 ADD MLOAD PUSH1 0x60 DUP7 ADD SWAP1 PUSH2 0x2B2 JUMP JUMPDEST PUSH2 0x10BE PUSH1 0x80 DUP3 ADD MLOAD PUSH1 0x80 DUP7 ADD SWAP1 PUSH2 0x2B2 JUMP JUMPDEST PUSH2 0x10D0 PUSH1 0xA0 DUP3 ADD MLOAD PUSH1 0xA0 DUP7 ADD SWAP1 PUSH2 0x2B2 JUMP JUMPDEST PUSH2 0x10E2 PUSH1 0xC0 DUP3 ADD MLOAD PUSH1 0xC0 DUP7 ADD SWAP1 PUSH2 0x2B2 JUMP JUMPDEST ADD MLOAD SWAP2 ADD SWAP1 PUSH2 0x34D JUMP JUMPDEST SWAP1 JUMP JUMPDEST SWAP1 PUSH2 0x10F9 SWAP2 PUSH2 0x1055 JUMP JUMPDEST SWAP1 JUMP JUMPDEST PUSH1 0x20 ADD SWAP1 JUMP JUMPDEST SWAP1 PUSH2 0x1116 PUSH2 0x110F DUP4 PUSH2 0x1042 JUMP JUMPDEST DUP1 SWAP3 PUSH2 0x1046 JUMP JUMPDEST SWAP1 DUP2 PUSH2 0x1127 PUSH1 0x20 DUP4 MUL DUP5 ADD SWAP5 PUSH2 0x104F JUMP JUMPDEST SWAP3 PUSH0 SWAP2 JUMPDEST DUP4 DUP4 LT PUSH2 0x113A JUMPI POP POP POP POP POP SWAP1 JUMP JUMPDEST SWAP1 SWAP2 SWAP3 SWAP4 SWAP5 PUSH1 0x20 PUSH2 0x115C PUSH2 0x1156 DUP4 DUP6 PUSH1 0x1 SWAP6 SUB DUP8 MSTORE DUP10 MLOAD PUSH2 0x10EF JUMP JUMPDEST SWAP8 PUSH2 0x10FC JUMP JUMPDEST SWAP4 ADD SWAP4 ADD SWAP2 SWAP4 SWAP3 SWAP1 PUSH2 0x112B JUMP JUMPDEST PUSH2 0x117E SWAP2 PUSH1 0x20 DUP3 ADD SWAP2 PUSH0 DUP2 DUP5 SUB SWAP2 ADD MSTORE PUSH2 0x1102 JUMP JUMPDEST SWAP1 JUMP JUMPDEST CALLVALUE PUSH2 0x11B1 JUMPI PUSH2 0x1191 CALLDATASIZE PUSH1 0x4 PUSH2 0xA03 JUMP JUMPDEST PUSH2 0x11AD PUSH2 0x119C PUSH2 0x2FA6 JUMP JUMPDEST PUSH2 0x11A4 PUSH2 0x192 JUMP JUMPDEST SWAP2 DUP3 SWAP2 DUP3 PUSH2 0x1169 JUMP JUMPDEST SUB SWAP1 RETURN JUMPDEST PUSH2 0x198 JUMP JUMPDEST SHR SWAP1 JUMP JUMPDEST PUSH1 0x1 DUP1 PUSH1 0xA0 SHL SUB AND SWAP1 JUMP JUMPDEST PUSH2 0x11D5 SWAP1 PUSH1 0x8 PUSH2 0x11DA SWAP4 MUL PUSH2 0x11B6 JUMP JUMPDEST PUSH2 0x11BA JUMP JUMPDEST SWAP1 JUMP JUMPDEST SWAP1 PUSH2 0x11E8 SWAP2 SLOAD PUSH2 0x11C5 JUMP JUMPDEST SWAP1 JUMP JUMPDEST PUSH2 0x11F7 PUSH1 0x1 PUSH0 SWAP1 PUSH2 0x11DD JUMP JUMPDEST SWAP1 JUMP JUMPDEST SWAP1 JUMP JUMPDEST PUSH2 0x1211 PUSH2 0x120C PUSH2 0x1216 SWAP3 PUSH2 0x62C JUMP JUMPDEST PUSH2 0x11FA JUMP JUMPDEST PUSH2 0x62C JUMP JUMPDEST SWAP1 JUMP JUMPDEST PUSH2 0x1222 SWAP1 PUSH2 0x11FD JUMP JUMPDEST SWAP1 JUMP JUMPDEST PUSH2 0x122E SWAP1 PUSH2 0x1219 JUMP JUMPDEST SWAP1 JUMP JUMPDEST PUSH2 0x123A SWAP1 PUSH2 0x1225 JUMP JUMPDEST SWAP1 MSTORE JUMP JUMPDEST SWAP2 SWAP1 PUSH2 0x1251 SWAP1 PUSH0 PUSH1 0x20 DUP6 ADD SWAP5 ADD SWAP1 PUSH2 0x1231 JUMP JUMPDEST JUMP JUMPDEST CALLVALUE PUSH2 0x1283 JUMPI PUSH2 0x1263 CALLDATASIZE PUSH1 0x4 PUSH2 0xA03 JUMP JUMPDEST PUSH2 0x127F PUSH2 0x126E PUSH2 0x11EB JUMP JUMPDEST PUSH2 0x1276 PUSH2 0x192 JUMP JUMPDEST SWAP2 DUP3 SWAP2 DUP3 PUSH2 0x123E JUMP JUMPDEST SUB SWAP1 RETURN JUMPDEST PUSH2 0x198 JUMP JUMPDEST CALLVALUE PUSH2 0x12B7 JUMPI PUSH2 0x12A1 PUSH2 0x129B CALLDATASIZE PUSH1 0x4 PUSH2 0xD7A JUMP JUMPDEST SWAP1 PUSH2 0x30C3 JUMP JUMPDEST PUSH2 0x12A9 PUSH2 0x192 JUMP JUMPDEST DUP1 PUSH2 0x12B3 DUP2 PUSH2 0x25B JUMP JUMPDEST SUB SWAP1 RETURN JUMPDEST PUSH2 0x198 JUMP JUMPDEST SWAP2 SWAP1 SWAP2 PUSH1 0xA0 DUP2 DUP5 SUB SLT PUSH2 0x133E JUMPI PUSH0 DUP2 ADD CALLDATALOAD PUSH8 0xFFFFFFFFFFFFFFFF DUP2 GT PUSH2 0x1339 JUMPI DUP4 PUSH2 0x12E8 SWAP2 DUP4 ADD PUSH2 0x590 JUMP JUMPDEST SWAP3 PUSH2 0x12F6 DUP2 PUSH1 0x20 DUP5 ADD PUSH2 0x1BB JUMP JUMPDEST SWAP3 PUSH2 0x1304 DUP3 PUSH1 0x40 DUP6 ADD PUSH2 0x1BB JUMP JUMPDEST SWAP3 PUSH2 0x1312 DUP4 PUSH1 0x60 DUP4 ADD PUSH2 0x1BB JUMP JUMPDEST SWAP3 PUSH1 0x80 DUP3 ADD CALLDATALOAD PUSH8 0xFFFFFFFFFFFFFFFF DUP2 GT PUSH2 0x1334 JUMPI PUSH2 0x1331 SWAP3 ADD PUSH2 0x590 JUMP JUMPDEST SWAP1 JUMP JUMPDEST PUSH2 0x1A0 JUMP JUMPDEST PUSH2 0x1A0 JUMP JUMPDEST PUSH2 0x19C JUMP JUMPDEST CALLVALUE PUSH2 0x1375 JUMPI PUSH2 0x135F PUSH2 0x1356 CALLDATASIZE PUSH1 0x4 PUSH2 0x12BC JUMP JUMPDEST SWAP4 SWAP3 SWAP1 SWAP3 PUSH2 0x3373 JUMP JUMPDEST PUSH2 0x1367 PUSH2 0x192 JUMP JUMPDEST DUP1 PUSH2 0x1371 DUP2 PUSH2 0x25B JUMP JUMPDEST SUB SWAP1 RETURN JUMPDEST PUSH2 0x198 JUMP JUMPDEST PUSH0 DUP1 REVERT JUMPDEST SWAP1 PUSH2 0x1391 SWAP3 SWAP2 PUSH2 0x138C PUSH2 0x35C1 JUMP JUMPDEST PUSH2 0x167A JUMP JUMPDEST JUMP JUMPDEST SWAP1 PUSH2 0x139D SWAP1 PUSH2 0x1A4 JUMP JUMPDEST SWAP1 MSTORE JUMP JUMPDEST MSTORE JUMP JUMPDEST SWAP1 PUSH2 0x13AE SWAP1 PUSH2 0x335 JUMP JUMPDEST SWAP1 MSTORE JUMP JUMPDEST PUSH2 0x13BD PUSH2 0x100 PUSH2 0x517 JUMP JUMPDEST SWAP1 JUMP JUMPDEST SWAP1 PUSH2 0x1487 PUSH2 0x147E PUSH1 0x7 PUSH2 0x13D1 PUSH2 0x13B2 JUMP JUMPDEST SWAP5 PUSH2 0x13E8 PUSH2 0x13E0 PUSH0 DUP4 ADD PUSH2 0xAAA JUMP JUMPDEST PUSH0 DUP9 ADD PUSH2 0x1393 JUMP JUMPDEST PUSH2 0x1400 PUSH2 0x13F7 PUSH1 0x1 DUP4 ADD PUSH2 0xB97 JUMP JUMPDEST PUSH1 0x20 DUP9 ADD PUSH2 0x13A1 JUMP JUMPDEST PUSH2 0x1418 PUSH2 0x140F PUSH1 0x2 DUP4 ADD PUSH2 0xAAA JUMP JUMPDEST PUSH1 0x40 DUP9 ADD PUSH2 0x1393 JUMP JUMPDEST PUSH2 0x1430 PUSH2 0x1427 PUSH1 0x3 DUP4 ADD PUSH2 0xAAA JUMP JUMPDEST PUSH1 0x60 DUP9 ADD PUSH2 0x1393 JUMP JUMPDEST PUSH2 0x1448 PUSH2 0x143F PUSH1 0x4 DUP4 ADD PUSH2 0xAAA JUMP JUMPDEST PUSH1 0x80 DUP9 ADD PUSH2 0x1393 JUMP JUMPDEST PUSH2 0x1460 PUSH2 0x1457 PUSH1 0x5 DUP4 ADD PUSH2 0xAAA JUMP JUMPDEST PUSH1 0xA0 DUP9 ADD PUSH2 0x1393 JUMP JUMPDEST PUSH2 0x1478 PUSH2 0x146F PUSH1 0x6 DUP4 ADD PUSH2 0xAAA JUMP JUMPDEST PUSH1 0xC0 DUP9 ADD PUSH2 0x1393 JUMP JUMPDEST ADD PUSH2 0xBD3 JUMP JUMPDEST PUSH1 0xE0 DUP5 ADD PUSH2 0x13A4 JUMP JUMPDEST JUMP JUMPDEST PUSH2 0x1492 SWAP1 PUSH2 0x13C0 JUMP JUMPDEST SWAP1 JUMP JUMPDEST SWAP1 JUMP JUMPDEST PUSH2 0x14AC PUSH2 0x14A7 PUSH2 0x14B1 SWAP3 PUSH2 0x1495 JUMP JUMPDEST PUSH2 0x11FA JUMP JUMPDEST PUSH2 0x1A4 JUMP JUMPDEST SWAP1 JUMP JUMPDEST SWAP1 JUMP JUMPDEST PUSH2 0x14CB PUSH2 0x14C6 PUSH2 0x14D0 SWAP3 PUSH2 0x14B4 JUMP JUMPDEST PUSH2 0x11FA JUMP JUMPDEST PUSH2 0x1A4 JUMP JUMPDEST SWAP1 JUMP JUMPDEST PUSH4 0x4E487B71 PUSH1 0xE0 SHL PUSH0 MSTORE PUSH1 0x11 PUSH1 0x4 MSTORE PUSH1 0x24 PUSH0 REVERT JUMPDEST PUSH2 0x14F6 PUSH2 0x14FC SWAP2 SWAP4 SWAP3 SWAP4 PUSH2 0x1A4 JUMP JUMPDEST SWAP3 PUSH2 0x1A4 JUMP JUMPDEST DUP3 ADD DUP1 SWAP3 GT PUSH2 0x1507 JUMPI JUMP JUMPDEST PUSH2 0x14D3 JUMP JUMPDEST POP SWAP1 JUMP JUMPDEST PUSH2 0x151A SWAP1 MLOAD PUSH2 0x1A4 JUMP JUMPDEST SWAP1 JUMP JUMPDEST SWAP2 SWAP1 DUP2 LT ISZERO PUSH2 0x152D JUMPI PUSH1 0x20 MUL ADD SWAP1 JUMP JUMPDEST PUSH2 0xA45 JUMP JUMPDEST CALLDATALOAD PUSH2 0x153C DUP2 PUSH2 0x1A7 JUMP JUMPDEST SWAP1 JUMP JUMPDEST PUSH2 0x1548 SWAP1 PUSH2 0x47B JUMP JUMPDEST SWAP1 JUMP JUMPDEST SWAP1 PUSH2 0x1555 SWAP1 PUSH2 0x153F JUMP JUMPDEST PUSH0 MSTORE PUSH1 0x20 MSTORE PUSH1 0x40 PUSH0 KECCAK256 SWAP1 JUMP JUMPDEST PUSH1 0x1 DUP1 PUSH1 0xA0 SHL SUB AND SWAP1 JUMP JUMPDEST PUSH2 0x1578 PUSH2 0x157D SWAP2 PUSH2 0xA8E JUMP JUMPDEST PUSH2 0x1561 JUMP JUMPDEST SWAP1 JUMP JUMPDEST PUSH2 0x158A SWAP1 SLOAD PUSH2 0x156C JUMP JUMPDEST SWAP1 JUMP JUMPDEST SWAP1 PUSH2 0x1597 SWAP1 PUSH2 0x637 JUMP JUMPDEST SWAP1 MSTORE JUMP JUMPDEST PUSH1 0xA0 SHR SWAP1 JUMP JUMPDEST PUSH1 0xFF AND SWAP1 JUMP JUMPDEST PUSH2 0x15B3 PUSH2 0x15B8 SWAP2 PUSH2 0x159B JUMP JUMPDEST PUSH2 0x15A1 JUMP JUMPDEST SWAP1 JUMP JUMPDEST PUSH2 0x15C5 SWAP1 SLOAD PUSH2 0x15A7 JUMP JUMPDEST SWAP1 JUMP JUMPDEST SWAP1 PUSH2 0x15D2 SWAP1 PUSH2 0x650 JUMP JUMPDEST SWAP1 MSTORE JUMP JUMPDEST PUSH2 0x15E0 PUSH1 0x60 PUSH2 0x517 JUMP JUMPDEST SWAP1 JUMP JUMPDEST SWAP1 PUSH2 0x1631 PUSH2 0x1628 PUSH1 0x1 PUSH2 0x15F4 PUSH2 0x15D6 JUMP JUMPDEST SWAP5 PUSH2 0x160B PUSH2 0x1603 PUSH0 DUP4 ADD PUSH2 0x1580 JUMP JUMPDEST PUSH0 DUP9 ADD PUSH2 0x158D JUMP JUMPDEST PUSH2 0x1622 PUSH2 0x1619 PUSH0 DUP4 ADD PUSH2 0x15BB JUMP JUMPDEST PUSH1 0x20 DUP9 ADD PUSH2 0x15C8 JUMP JUMPDEST ADD PUSH2 0xB97 JUMP JUMPDEST PUSH1 0x40 DUP5 ADD PUSH2 0x13A1 JUMP JUMPDEST JUMP JUMPDEST PUSH2 0x163C SWAP1 PUSH2 0x15E3 JUMP JUMPDEST SWAP1 JUMP JUMPDEST SWAP1 JUMP JUMPDEST PUSH2 0x1656 PUSH2 0x1651 PUSH2 0x165B SWAP3 PUSH2 0x163F JUMP JUMPDEST PUSH2 0x11FA JUMP JUMPDEST PUSH2 0x1A4 JUMP JUMPDEST SWAP1 JUMP JUMPDEST PUSH2 0x1667 SWAP1 PUSH2 0x1A4 JUMP JUMPDEST PUSH0 NOT DUP2 EQ PUSH2 0x1675 JUMPI PUSH1 0x1 ADD SWAP1 JUMP JUMPDEST PUSH2 0x14D3 JUMP JUMPDEST SWAP3 SWAP2 SWAP3 PUSH2 0x1692 PUSH2 0x168C PUSH1 0x2 DUP4 SWAP1 PUSH2 0xA66 JUMP JUMPDEST POP PUSH2 0x1489 JUMP JUMPDEST SWAP2 PUSH2 0x169C PUSH0 PUSH2 0x1498 JUMP JUMPDEST SWAP5 PUSH2 0x16A6 PUSH0 PUSH2 0x1498 JUMP JUMPDEST SWAP6 JUMPDEST DUP7 PUSH2 0x16C5 PUSH2 0x16BF PUSH2 0x16BA DUP7 DUP7 SWAP1 PUSH2 0x150C JUMP JUMPDEST PUSH2 0x1A4 JUMP JUMPDEST SWAP2 PUSH2 0x1A4 JUMP JUMPDEST LT ISZERO PUSH2 0x17A0 JUMPI PUSH2 0x1789 PUSH2 0x179A SWAP2 PUSH2 0x1784 DUP10 PUSH2 0x176D PUSH2 0x1768 DUP10 PUSH2 0x1762 DUP13 DUP12 PUSH2 0x175C PUSH2 0x1757 DUP14 PUSH2 0x172B PUSH2 0x1726 DUP9 PUSH2 0x1720 DUP9 DUP15 PUSH2 0x171A PUSH2 0x1715 PUSH2 0x170A PUSH1 0xA0 PUSH1 0x4 SWAP8 SWAP6 ADD PUSH2 0x1510 JUMP JUMPDEST SWAP3 DUP13 SWAP1 DUP11 SWAP1 SWAP2 PUSH2 0x151D JUMP JUMPDEST PUSH2 0x1532 JUMP JUMPDEST SWAP2 PUSH2 0x2EC6 JUMP JUMPDEST SWAP1 PUSH2 0x154B JUMP JUMPDEST PUSH2 0x1633 JUMP JUMPDEST SWAP10 PUSH2 0x1751 PUSH2 0x173E PUSH1 0xA0 PUSH1 0x4 SWAP11 SWAP9 ADD PUSH2 0x1510 JUMP JUMPDEST SWAP6 SWAP3 SWAP2 PUSH2 0x174B PUSH1 0x1 PUSH2 0x1642 JUMP JUMPDEST SWAP1 PUSH2 0x14E7 JUMP JUMPDEST SWAP2 PUSH2 0x151D JUMP JUMPDEST PUSH2 0x1532 JUMP JUMPDEST SWAP2 PUSH2 0x2EC6 JUMP JUMPDEST SWAP1 PUSH2 0x154B JUMP JUMPDEST PUSH2 0x1633 JUMP JUMPDEST DUP9 SWAP2 PUSH2 0x177B PUSH1 0xA0 DUP13 ADD PUSH2 0x1510 JUMP JUMPDEST DUP6 SWAP2 SWAP3 SWAP4 PUSH2 0x247C JUMP JUMPDEST PUSH2 0x165E JUMP JUMPDEST SWAP7 PUSH2 0x1794 PUSH1 0x2 PUSH2 0x14B7 JUMP JUMPDEST SWAP1 PUSH2 0x14E7 JUMP JUMPDEST SWAP6 PUSH2 0x16A8 JUMP JUMPDEST POP POP POP POP POP SWAP1 POP JUMP JUMPDEST SWAP1 PUSH2 0x17B4 SWAP3 SWAP2 PUSH2 0x137E JUMP JUMPDEST JUMP JUMPDEST PUSH0 SWAP1 JUMP JUMPDEST PUSH1 0x60 SWAP1 JUMP JUMPDEST PUSH0 SWAP1 JUMP JUMPDEST PUSH2 0x17CB PUSH2 0x13B2 JUMP JUMPDEST SWAP1 PUSH1 0x20 DUP1 DUP1 DUP1 DUP1 DUP1 DUP1 DUP1 DUP10 PUSH2 0x17DE PUSH2 0x17B6 JUMP JUMPDEST DUP2 MSTORE ADD PUSH2 0x17E9 PUSH2 0x17BA JUMP JUMPDEST DUP2 MSTORE ADD PUSH2 0x17F4 PUSH2 0x17B6 JUMP JUMPDEST DUP2 MSTORE ADD PUSH2 0x17FF PUSH2 0x17B6 JUMP JUMPDEST DUP2 MSTORE ADD PUSH2 0x180A PUSH2 0x17B6 JUMP JUMPDEST DUP2 MSTORE ADD PUSH2 0x1815 PUSH2 0x17B6 JUMP JUMPDEST DUP2 MSTORE ADD PUSH2 0x1820 PUSH2 0x17B6 JUMP JUMPDEST DUP2 MSTORE ADD PUSH2 0x182B PUSH2 0x17BF JUMP JUMPDEST DUP2 MSTORE POP POP JUMP JUMPDEST PUSH2 0x1839 PUSH2 0x17C3 JUMP JUMPDEST SWAP1 JUMP JUMPDEST PUSH2 0x1853 PUSH2 0x1859 SWAP2 PUSH2 0x184B PUSH2 0x1831 JUMP JUMPDEST POP PUSH1 0x2 PUSH2 0xA66 JUMP JUMPDEST POP PUSH2 0x1489 JUMP JUMPDEST SWAP1 JUMP JUMPDEST PUSH0 SWAP1 JUMP JUMPDEST SWAP1 JUMP JUMPDEST PUSH2 0x186F PUSH2 0x1874 SWAP2 PUSH2 0x1A4 JUMP JUMPDEST PUSH2 0x1860 JUMP JUMPDEST SWAP1 MSTORE JUMP JUMPDEST PUSH1 0x20 SWAP4 SWAP3 PUSH2 0x1897 DUP6 DUP4 PUSH2 0x188F DUP3 SWAP6 PUSH2 0x189F SWAP8 PUSH2 0x1863 JUMP JUMPDEST ADD DUP1 SWAP3 PUSH2 0x1863 JUMP JUMPDEST ADD DUP1 SWAP3 PUSH2 0x1863 JUMP JUMPDEST ADD SWAP1 JUMP JUMPDEST PUSH1 0x20 ADD SWAP1 JUMP JUMPDEST MLOAD SWAP1 JUMP JUMPDEST SWAP1 PUSH2 0x18D4 PUSH2 0x18E3 SWAP3 PUSH2 0x18BD PUSH2 0x185C JUMP JUMPDEST POP SWAP2 SWAP4 PUSH2 0x18C8 PUSH2 0x192 JUMP JUMPDEST SWAP5 DUP6 SWAP4 PUSH1 0x20 DUP6 ADD PUSH2 0x1878 JUMP JUMPDEST PUSH1 0x20 DUP3 ADD DUP2 SUB DUP3 MSTORE SUB DUP3 PUSH2 0x4EE JUMP JUMPDEST PUSH2 0x18F5 PUSH2 0x18EF DUP3 PUSH2 0x18A9 JUMP JUMPDEST SWAP2 PUSH2 0x18A3 JUMP JUMPDEST KECCAK256 SWAP1 JUMP JUMPDEST SWAP1 JUMP JUMPDEST PUSH0 PUSH32 0x746F75726E616D656E742069736E27742070656E64696E670000000000000000 SWAP2 ADD MSTORE JUMP JUMPDEST PUSH2 0x1930 PUSH1 0x18 PUSH1 0x20 SWAP3 PUSH2 0xC77 JUMP JUMPDEST PUSH2 0x1939 DUP2 PUSH2 0x18FC JUMP JUMPDEST ADD SWAP1 JUMP JUMPDEST PUSH2 0x1952 SWAP1 PUSH1 0x20 DUP2 ADD SWAP1 PUSH0 DUP2 DUP4 SUB SWAP2 ADD MSTORE PUSH2 0x1923 JUMP JUMPDEST SWAP1 JUMP JUMPDEST ISZERO PUSH2 0x195C JUMPI JUMP JUMPDEST PUSH2 0x1964 PUSH2 0x192 JUMP JUMPDEST PUSH3 0x461BCD PUSH1 0xE5 SHL DUP2 MSTORE DUP1 PUSH2 0x197A PUSH1 0x4 DUP3 ADD PUSH2 0x193D JUMP JUMPDEST SUB SWAP1 REVERT JUMPDEST PUSH0 PUSH32 0x646561646C696E65207265616368656400000000000000000000000000000000 SWAP2 ADD MSTORE JUMP JUMPDEST PUSH2 0x19B2 PUSH1 0x10 PUSH1 0x20 SWAP3 PUSH2 0xC77 JUMP JUMPDEST PUSH2 0x19BB DUP2 PUSH2 0x197E JUMP JUMPDEST ADD SWAP1 JUMP JUMPDEST PUSH2 0x19D4 SWAP1 PUSH1 0x20 DUP2 ADD SWAP1 PUSH0 DUP2 DUP4 SUB SWAP2 ADD MSTORE PUSH2 0x19A5 JUMP JUMPDEST SWAP1 JUMP JUMPDEST ISZERO PUSH2 0x19DE JUMPI JUMP JUMPDEST PUSH2 0x19E6 PUSH2 0x192 JUMP JUMPDEST PUSH3 0x461BCD PUSH1 0xE5 SHL DUP2 MSTORE DUP1 PUSH2 0x19FC PUSH1 0x4 DUP3 ADD PUSH2 0x19BF JUMP JUMPDEST SUB SWAP1 REVERT JUMPDEST PUSH0 PUSH32 0x746F75726E616D656E742069732066756C6C0000000000000000000000000000 SWAP2 ADD MSTORE JUMP JUMPDEST PUSH2 0x1A34 PUSH1 0x12 PUSH1 0x20 SWAP3 PUSH2 0xC77 JUMP JUMPDEST PUSH2 0x1A3D DUP2 PUSH2 0x1A00 JUMP JUMPDEST ADD SWAP1 JUMP JUMPDEST PUSH2 0x1A56 SWAP1 PUSH1 0x20 DUP2 ADD SWAP1 PUSH0 DUP2 DUP4 SUB SWAP2 ADD MSTORE PUSH2 0x1A27 JUMP JUMPDEST SWAP1 JUMP JUMPDEST ISZERO PUSH2 0x1A60 JUMPI JUMP JUMPDEST PUSH2 0x1A68 PUSH2 0x192 JUMP JUMPDEST PUSH3 0x461BCD PUSH1 0xE5 SHL DUP2 MSTORE DUP1 PUSH2 0x1A7E PUSH1 0x4 DUP3 ADD PUSH2 0x1A41 JUMP JUMPDEST SUB SWAP1 REVERT JUMPDEST PUSH2 0x1A8E PUSH2 0x1A93 SWAP2 PUSH2 0xA8E JUMP JUMPDEST PUSH2 0x11BA JUMP JUMPDEST SWAP1 JUMP JUMPDEST PUSH2 0x1AA0 SWAP1 SLOAD PUSH2 0x1A82 JUMP JUMPDEST SWAP1 JUMP JUMPDEST PUSH2 0x1AAC SWAP1 PUSH2 0x1219 JUMP JUMPDEST SWAP1 JUMP JUMPDEST PUSH1 0xE0 SHL SWAP1 JUMP JUMPDEST SWAP1 POP MLOAD SWAP1 PUSH2 0x1AC2 DUP3 PUSH2 0x781 JUMP JUMPDEST JUMP JUMPDEST SWAP1 PUSH1 0x20 DUP3 DUP3 SUB SLT PUSH2 0x1ADD JUMPI PUSH2 0x1ADA SWAP2 PUSH0 ADD PUSH2 0x1AB5 JUMP JUMPDEST SWAP1 JUMP JUMPDEST PUSH2 0x19C JUMP JUMPDEST PUSH1 0x40 SWAP1 PUSH2 0x1B0B PUSH2 0x1B12 SWAP5 SWAP7 SWAP6 SWAP4 SWAP7 PUSH2 0x1B01 PUSH1 0x60 DUP5 ADD SWAP9 PUSH0 DUP6 ADD SWAP1 PUSH2 0xE68 JUMP JUMPDEST PUSH1 0x20 DUP4 ADD SWAP1 PUSH2 0xE68 JUMP JUMPDEST ADD SWAP1 PUSH2 0xC6A JUMP JUMPDEST JUMP JUMPDEST PUSH2 0x1B1C PUSH2 0x192 JUMP JUMPDEST RETURNDATASIZE PUSH0 DUP3 RETURNDATACOPY RETURNDATASIZE SWAP1 REVERT JUMPDEST PUSH0 PUSH32 0x6E6F7420656E6F756768206361736820737472616E6765720000000000000000 SWAP2 ADD MSTORE JUMP JUMPDEST PUSH2 0x1B58 PUSH1 0x18 PUSH1 0x20 SWAP3 PUSH2 0xC77 JUMP JUMPDEST PUSH2 0x1B61 DUP2 PUSH2 0x1B24 JUMP JUMPDEST ADD SWAP1 JUMP JUMPDEST PUSH2 0x1B7A SWAP1 PUSH1 0x20 DUP2 ADD SWAP1 PUSH0 DUP2 DUP4 SUB SWAP2 ADD MSTORE PUSH2 0x1B4B JUMP JUMPDEST SWAP1 JUMP JUMPDEST ISZERO PUSH2 0x1B84 JUMPI JUMP JUMPDEST PUSH2 0x1B8C PUSH2 0x192 JUMP JUMPDEST PUSH3 0x461BCD PUSH1 0xE5 SHL DUP2 MSTORE DUP1 PUSH2 0x1BA2 PUSH1 0x4 DUP3 ADD PUSH2 0x1B65 JUMP JUMPDEST SUB SWAP1 REVERT JUMPDEST PUSH0 SHL SWAP1 JUMP JUMPDEST SWAP1 PUSH2 0x1BB7 PUSH0 NOT SWAP2 PUSH2 0x1BA6 JUMP JUMPDEST SWAP2 DUP2 NOT AND SWAP2 AND OR SWAP1 JUMP JUMPDEST PUSH2 0x1BD5 PUSH2 0x1BD0 PUSH2 0x1BDA SWAP3 PUSH2 0x1A4 JUMP JUMPDEST PUSH2 0x11FA JUMP JUMPDEST PUSH2 0x1A4 JUMP JUMPDEST SWAP1 JUMP JUMPDEST SWAP1 JUMP JUMPDEST SWAP1 PUSH2 0x1BF5 PUSH2 0x1BF0 PUSH2 0x1BFC SWAP3 PUSH2 0x1BC1 JUMP JUMPDEST PUSH2 0x1BDD JUMP JUMPDEST DUP3 SLOAD PUSH2 0x1BAB JUMP JUMPDEST SWAP1 SSTORE JUMP JUMPDEST PUSH2 0x1C0A PUSH1 0x60 PUSH2 0x517 JUMP JUMPDEST SWAP1 JUMP JUMPDEST PUSH2 0x1C1C PUSH2 0x1C22 SWAP2 SWAP4 SWAP3 SWAP4 PUSH2 0x1A4 JUMP JUMPDEST SWAP3 PUSH2 0x1A4 JUMP JUMPDEST DUP3 SUB SWAP2 DUP3 GT PUSH2 0x1C2D JUMPI JUMP JUMPDEST PUSH2 0x14D3 JUMP JUMPDEST PUSH4 0x4E487B71 PUSH1 0xE0 SHL PUSH0 MSTORE PUSH0 PUSH1 0x4 MSTORE PUSH1 0x24 PUSH0 REVERT JUMPDEST PUSH2 0x1C4F SWAP1 MLOAD PUSH2 0x637 JUMP JUMPDEST SWAP1 JUMP JUMPDEST SWAP1 PUSH2 0x1C63 PUSH1 0x1 DUP1 PUSH1 0xA0 SHL SUB SWAP2 PUSH2 0x1BA6 JUMP JUMPDEST SWAP2 DUP2 NOT AND SWAP2 AND OR SWAP1 JUMP JUMPDEST PUSH2 0x1C76 SWAP1 PUSH2 0x1219 JUMP JUMPDEST SWAP1 JUMP JUMPDEST SWAP1 JUMP JUMPDEST SWAP1 PUSH2 0x1C91 PUSH2 0x1C8C PUSH2 0x1C98 SWAP3 PUSH2 0x1C6D JUMP JUMPDEST PUSH2 0x1C79 JUMP JUMPDEST DUP3 SLOAD PUSH2 0x1C52 JUMP JUMPDEST SWAP1 SSTORE JUMP JUMPDEST PUSH2 0x1CA6 SWAP1 MLOAD PUSH2 0x650 JUMP JUMPDEST SWAP1 JUMP JUMPDEST PUSH1 0xA0 SHL SWAP1 JUMP JUMPDEST SWAP1 PUSH2 0x1CBE PUSH1 0xFF PUSH1 0xA0 SHL SWAP2 PUSH2 0x1CA9 JUMP JUMPDEST SWAP2 DUP2 NOT AND SWAP2 AND OR SWAP1 JUMP JUMPDEST PUSH2 0x1CD1 SWAP1 PUSH2 0x650 JUMP JUMPDEST SWAP1 JUMP JUMPDEST SWAP1 JUMP JUMPDEST SWAP1 PUSH2 0x1CEC PUSH2 0x1CE7 PUSH2 0x1CF3 SWAP3 PUSH2 0x1CC8 JUMP JUMPDEST PUSH2 0x1CD4 JUMP JUMPDEST DUP3 SLOAD PUSH2 0x1CAF JUMP JUMPDEST SWAP1 SSTORE JUMP JUMPDEST MLOAD SWAP1 JUMP JUMPDEST PUSH1 0x1F PUSH1 0x20 SWAP2 ADD DIV SWAP1 JUMP JUMPDEST SHL SWAP1 JUMP JUMPDEST SWAP2 SWAP1 PUSH1 0x8 PUSH2 0x1D24 SWAP2 MUL SWAP2 PUSH2 0x1D1E PUSH0 NOT DUP5 PUSH2 0x1D05 JUMP JUMPDEST SWAP3 PUSH2 0x1D05 JUMP JUMPDEST SWAP2 DUP2 NOT AND SWAP2 AND OR SWAP1 JUMP JUMPDEST SWAP2 SWAP1 PUSH2 0x1D44 PUSH2 0x1D3F PUSH2 0x1D4C SWAP4 PUSH2 0x1BC1 JUMP JUMPDEST PUSH2 0x1BDD JUMP JUMPDEST SWAP1 DUP4 SLOAD PUSH2 0x1D09 JUMP JUMPDEST SWAP1 SSTORE JUMP JUMPDEST PUSH0 SWAP1 JUMP JUMPDEST PUSH2 0x1D66 SWAP2 PUSH2 0x1D60 PUSH2 0x1D50 JUMP JUMPDEST SWAP2 PUSH2 0x1D2E JUMP JUMPDEST JUMP JUMPDEST JUMPDEST DUP2 DUP2 LT PUSH2 0x1D74 JUMPI POP POP JUMP JUMPDEST DUP1 PUSH2 0x1D81 PUSH0 PUSH1 0x1 SWAP4 PUSH2 0x1D54 JUMP JUMPDEST ADD PUSH2 0x1D69 JUMP JUMPDEST SWAP2 SWAP1 PUSH1 0x1F DUP2 GT PUSH2 0x1D97 JUMPI JUMPDEST POP POP POP JUMP JUMPDEST PUSH2 0x1DA3 PUSH2 0x1DC8 SWAP4 PUSH2 0xAF5 JUMP JUMPDEST SWAP1 PUSH1 0x20 PUSH2 0x1DAF DUP5 PUSH2 0x1CFB JUMP JUMPDEST DUP4 ADD SWAP4 LT PUSH2 0x1DD0 JUMPI JUMPDEST PUSH2 0x1DC1 SWAP1 PUSH2 0x1CFB JUMP JUMPDEST ADD SWAP1 PUSH2 0x1D68 JUMP JUMPDEST PUSH0 DUP1 DUP1 PUSH2 0x1D92 JUMP JUMPDEST SWAP2 POP PUSH2 0x1DC1 DUP2 SWAP3 SWAP1 POP PUSH2 0x1DB8 JUMP JUMPDEST SWAP1 PUSH2 0x1DEE SWAP1 PUSH0 NOT SWAP1 PUSH1 0x8 MUL PUSH2 0x11B6 JUMP JUMPDEST NOT AND SWAP1 JUMP JUMPDEST DUP2 PUSH2 0x1DFD SWAP2 PUSH2 0x1DDE JUMP JUMPDEST SWAP1 PUSH1 0x2 MUL OR SWAP1 JUMP JUMPDEST SWAP1 PUSH2 0x1E0F DUP2 PUSH2 0x2BF JUMP JUMPDEST SWAP1 PUSH8 0xFFFFFFFFFFFFFFFF DUP3 GT PUSH2 0x1ECF JUMPI PUSH2 0x1E33 DUP3 PUSH2 0x1E2D DUP6 SLOAD PUSH2 0xACB JUMP JUMPDEST DUP6 PUSH2 0x1D87 JUMP JUMPDEST PUSH1 0x20 SWAP1 PUSH1 0x1F DUP4 GT PUSH1 0x1 EQ PUSH2 0x1E67 JUMPI SWAP2 DUP1 SWAP2 PUSH2 0x1E56 SWAP4 PUSH0 SWAP3 PUSH2 0x1E5B JUMPI JUMPDEST POP POP PUSH2 0x1DF3 JUMP JUMPDEST SWAP1 SSTORE JUMPDEST JUMP JUMPDEST SWAP1 SWAP2 POP ADD MLOAD PUSH0 DUP1 PUSH2 0x1E4F JUMP JUMPDEST PUSH1 0x1F NOT DUP4 AND SWAP2 PUSH2 0x1E76 DUP6 PUSH2 0xAF5 JUMP JUMPDEST SWAP3 PUSH0 JUMPDEST DUP2 DUP2 LT PUSH2 0x1EB7 JUMPI POP SWAP2 PUSH1 0x2 SWAP4 SWAP2 DUP6 PUSH1 0x1 SWAP7 SWAP5 LT PUSH2 0x1E9D JUMPI JUMPDEST POP POP POP MUL ADD SWAP1 SSTORE PUSH2 0x1E59 JUMP JUMPDEST PUSH2 0x1EAD SWAP2 ADD MLOAD PUSH1 0x1F DUP5 AND SWAP1 PUSH2 0x1DDE JUMP JUMPDEST SWAP1 SSTORE PUSH0 DUP1 DUP1 PUSH2 0x1E91 JUMP JUMPDEST SWAP2 SWAP4 PUSH1 0x20 PUSH1 0x1 DUP2 SWAP3 DUP8 DUP8 ADD MLOAD DUP2 SSTORE ADD SWAP6 ADD SWAP3 ADD PUSH2 0x1E79 JUMP JUMPDEST PUSH2 0x4DA JUMP JUMPDEST SWAP1 PUSH2 0x1EDE SWAP2 PUSH2 0x1E05 JUMP JUMPDEST JUMP JUMPDEST SWAP1 PUSH2 0x1F23 PUSH1 0x40 PUSH1 0x1 PUSH2 0x1F29 SWAP5 PUSH2 0x1F03 PUSH0 DUP3 ADD PUSH2 0x1EFD PUSH0 DUP9 ADD PUSH2 0x1C45 JUMP JUMPDEST SWAP1 PUSH2 0x1C7C JUMP JUMPDEST PUSH2 0x1F1B PUSH0 DUP3 ADD PUSH2 0x1F15 PUSH1 0x20 DUP9 ADD PUSH2 0x1C9C JUMP JUMPDEST SWAP1 PUSH2 0x1CD7 JUMP JUMPDEST ADD SWAP3 ADD PUSH2 0x1CF7 JUMP JUMPDEST SWAP1 PUSH2 0x1ED4 JUMP JUMPDEST JUMP JUMPDEST SWAP1 PUSH2 0x1F35 SWAP2 PUSH2 0x1EE0 JUMP JUMPDEST JUMP JUMPDEST PUSH2 0x1F4C PUSH2 0x1F46 PUSH1 0x2 DUP4 SWAP1 PUSH2 0xA66 JUMP JUMPDEST POP PUSH2 0x18F9 JUMP JUMPDEST SWAP1 PUSH2 0x1F74 PUSH2 0x1F5C PUSH1 0x7 DUP5 ADD PUSH2 0xBD3 JUMP JUMPDEST PUSH2 0x1F6E PUSH2 0x1F68 PUSH0 PUSH2 0x335 JUMP JUMPDEST SWAP2 PUSH2 0x335 JUMP JUMPDEST EQ PUSH2 0x1955 JUMP JUMPDEST PUSH2 0x1F9B PUSH2 0x1F83 PUSH1 0x6 DUP5 ADD PUSH2 0xAAA JUMP JUMPDEST PUSH2 0x1F95 PUSH2 0x1F8F TIMESTAMP PUSH2 0x1A4 JUMP JUMPDEST SWAP2 PUSH2 0x1A4 JUMP JUMPDEST GT PUSH2 0x19D7 JUMP JUMPDEST PUSH2 0x1FCD PUSH2 0x1FAA PUSH1 0x3 DUP5 ADD PUSH2 0xAAA JUMP JUMPDEST PUSH2 0x1FC7 PUSH2 0x1FC1 PUSH2 0x1FBC PUSH1 0x4 DUP8 ADD PUSH2 0xAAA JUMP JUMPDEST PUSH2 0x1A4 JUMP JUMPDEST SWAP2 PUSH2 0x1A4 JUMP JUMPDEST LT PUSH2 0x1A59 JUMP JUMPDEST PUSH2 0x1FDF PUSH2 0x1FDA PUSH1 0x1 PUSH2 0x1A96 JUMP JUMPDEST PUSH2 0x1225 JUMP JUMPDEST SWAP1 PUSH1 0x20 PUSH4 0x23B872DD SWAP3 CALLER SWAP1 PUSH2 0x201B PUSH0 PUSH2 0x1FF7 ADDRESS PUSH2 0x1AA3 JUMP JUMPDEST SWAP7 PUSH2 0x2026 PUSH2 0x2007 PUSH1 0x2 DUP12 ADD PUSH2 0xAAA JUMP JUMPDEST PUSH2 0x200F PUSH2 0x192 JUMP JUMPDEST SWAP10 DUP11 SWAP8 DUP9 SWAP7 DUP8 SWAP6 PUSH2 0x1AAF JUMP JUMPDEST DUP6 MSTORE PUSH1 0x4 DUP6 ADD PUSH2 0x1AE2 JUMP JUMPDEST SUB SWAP3 GAS CALL DUP1 ISZERO PUSH2 0x210A JUMPI PUSH2 0x20DA SWAP5 PUSH2 0x204C PUSH2 0x20CF SWAP3 PUSH2 0x20D5 SWAP6 PUSH0 SWAP2 PUSH2 0x20DC JUMPI JUMPDEST POP PUSH2 0x1B7D JUMP JUMPDEST PUSH2 0x206A PUSH1 0x3 DUP7 ADD PUSH2 0x2064 PUSH2 0x205F DUP3 PUSH2 0xAAA JUMP JUMPDEST PUSH2 0x165E JUMP JUMPDEST SWAP1 PUSH2 0x1BE0 JUMP JUMPDEST PUSH2 0x2099 CALLER SWAP2 PUSH2 0x2090 PUSH0 PUSH2 0x2087 PUSH2 0x207E PUSH2 0x1C00 JUMP JUMPDEST SWAP6 PUSH0 DUP8 ADD PUSH2 0x158D JUMP JUMPDEST PUSH1 0x20 DUP6 ADD PUSH2 0x15C8 JUMP JUMPDEST PUSH1 0x40 DUP4 ADD PUSH2 0x13A1 JUMP JUMPDEST SWAP4 PUSH1 0x4 SWAP3 SWAP1 PUSH2 0x20C9 PUSH2 0x20B9 PUSH1 0x3 PUSH2 0x20B2 PUSH1 0x5 DUP6 ADD PUSH2 0xAAA JUMP JUMPDEST SWAP4 ADD PUSH2 0xAAA JUMP JUMPDEST PUSH2 0x20C3 PUSH1 0x1 PUSH2 0x1642 JUMP JUMPDEST SWAP1 PUSH2 0x1C0D JUMP JUMPDEST SWAP2 PUSH2 0x2EC6 JUMP JUMPDEST SWAP1 PUSH2 0x154B JUMP JUMPDEST PUSH2 0x1F2B JUMP JUMPDEST JUMP JUMPDEST PUSH2 0x20FD SWAP2 POP PUSH1 0x20 RETURNDATASIZE DUP2 GT PUSH2 0x2103 JUMPI JUMPDEST PUSH2 0x20F5 DUP2 DUP4 PUSH2 0x4EE JUMP JUMPDEST DUP2 ADD SWAP1 PUSH2 0x1AC4 JUMP JUMPDEST PUSH0 PUSH2 0x2046 JUMP JUMPDEST POP RETURNDATASIZE PUSH2 0x20EB JUMP JUMPDEST PUSH2 0x1B14 JUMP JUMPDEST PUSH2 0x2119 PUSH1 0xA0 PUSH2 0x517 JUMP JUMPDEST SWAP1 JUMP JUMPDEST PUSH0 SWAP1 JUMP JUMPDEST PUSH0 SWAP1 JUMP JUMPDEST PUSH2 0x212C PUSH2 0x15D6 JUMP JUMPDEST SWAP1 PUSH1 0x20 DUP1 DUP1 DUP5 PUSH2 0x213A PUSH2 0x211C JUMP JUMPDEST DUP2 MSTORE ADD PUSH2 0x2145 PUSH2 0x2120 JUMP JUMPDEST DUP2 MSTORE ADD PUSH2 0x2150 PUSH2 0x17BA JUMP JUMPDEST DUP2 MSTORE POP POP JUMP JUMPDEST PUSH2 0x215E PUSH2 0x2124 JUMP JUMPDEST SWAP1 JUMP JUMPDEST PUSH2 0x2169 PUSH2 0x210F JUMP JUMPDEST SWAP1 PUSH1 0x20 DUP1 DUP1 DUP1 DUP1 DUP7 PUSH2 0x2179 PUSH2 0x2156 JUMP JUMPDEST DUP2 MSTORE ADD PUSH2 0x2184 PUSH2 0x17B6 JUMP JUMPDEST DUP2 MSTORE ADD PUSH2 0x218F PUSH2 0x2156 JUMP JUMPDEST DUP2 MSTORE ADD PUSH2 0x219A PUSH2 0x17B6 JUMP JUMPDEST DUP2 MSTORE ADD PUSH2 0x21A5 PUSH2 0x17BF JUMP JUMPDEST DUP2 MSTORE POP POP JUMP JUMPDEST PUSH2 0x21B3 PUSH2 0x2161 JUMP JUMPDEST SWAP1 JUMP JUMPDEST SWAP1 PUSH2 0x21C0 SWAP1 PUSH2 0x153F JUMP JUMPDEST PUSH0 MSTORE PUSH1 0x20 MSTORE PUSH1 0x40 PUSH0 KECCAK256 SWAP1 JUMP JUMPDEST MSTORE JUMP JUMPDEST SWAP1 PUSH2 0x224E PUSH2 0x2245 PUSH1 0x6 PUSH2 0x21E0 PUSH2 0x210F JUMP JUMPDEST SWAP5 PUSH2 0x21F7 PUSH2 0x21EF PUSH0 DUP4 ADD PUSH2 0x15E3 JUMP JUMPDEST PUSH0 DUP9 ADD PUSH2 0x21CC JUMP JUMPDEST PUSH2 0x220F PUSH2 0x2206 PUSH1 0x2 DUP4 ADD PUSH2 0xAAA JUMP JUMPDEST PUSH1 0x20 DUP9 ADD PUSH2 0x1393 JUMP JUMPDEST PUSH2 0x2227 PUSH2 0x221E PUSH1 0x3 DUP4 ADD PUSH2 0x15E3 JUMP JUMPDEST PUSH1 0x40 DUP9 ADD PUSH2 0x21CC JUMP JUMPDEST PUSH2 0x223F PUSH2 0x2236 PUSH1 0x5 DUP4 ADD PUSH2 0xAAA JUMP JUMPDEST PUSH1 0x60 DUP9 ADD PUSH2 0x1393 JUMP JUMPDEST ADD PUSH2 0xBD3 JUMP JUMPDEST PUSH1 0x80 DUP5 ADD PUSH2 0x13A4 JUMP JUMPDEST JUMP JUMPDEST PUSH2 0x2259 SWAP1 PUSH2 0x21CF JUMP JUMPDEST SWAP1 JUMP JUMPDEST PUSH2 0x227B PUSH2 0x2281 SWAP3 PUSH2 0x2286 SWAP5 PUSH2 0x226F PUSH2 0x21AB JUMP JUMPDEST POP PUSH1 0x3 SWAP4 SWAP2 SWAP1 SWAP2 PUSH2 0x18AD JUMP JUMPDEST SWAP1 PUSH2 0x21B6 JUMP JUMPDEST PUSH2 0x2250 JUMP JUMPDEST SWAP1 JUMP JUMPDEST SWAP1 PUSH2 0x229E SWAP5 SWAP4 SWAP3 SWAP2 PUSH2 0x2299 PUSH2 0x35C1 JUMP JUMPDEST PUSH2 0x23BF JUMP JUMPDEST JUMP JUMPDEST PUSH2 0x22AA PUSH1 0xA0 PUSH2 0x517 JUMP JUMPDEST SWAP1 JUMP JUMPDEST MLOAD SWAP1 JUMP JUMPDEST PUSH2 0x22BB SWAP1 MLOAD PUSH2 0x335 JUMP JUMPDEST SWAP1 JUMP JUMPDEST SWAP1 PUSH2 0x22CA PUSH1 0xFF SWAP2 PUSH2 0x1BA6 JUMP JUMPDEST SWAP2 DUP2 NOT AND SWAP2 AND OR SWAP1 JUMP JUMPDEST PUSH2 0x22DD SWAP1 PUSH2 0x335 JUMP JUMPDEST SWAP1 JUMP JUMPDEST SWAP1 JUMP JUMPDEST SWAP1 PUSH2 0x22F8 PUSH2 0x22F3 PUSH2 0x22FF SWAP3 PUSH2 0x22D4 JUMP JUMPDEST PUSH2 0x22E0 JUMP JUMPDEST DUP3 SLOAD PUSH2 0x22BE JUMP JUMPDEST SWAP1 SSTORE JUMP JUMPDEST SWAP1 PUSH2 0x2379 PUSH1 0x80 PUSH1 0x6 PUSH2 0x237F SWAP5 PUSH2 0x2326 PUSH0 DUP3 ADD PUSH2 0x2320 PUSH0 DUP9 ADD PUSH2 0x22AD JUMP JUMPDEST SWAP1 PUSH2 0x1F2B JUMP JUMPDEST PUSH2 0x233F PUSH1 0x2 DUP3 ADD PUSH2 0x2339 PUSH1 0x20 DUP9 ADD PUSH2 0x1510 JUMP JUMPDEST SWAP1 PUSH2 0x1BE0 JUMP JUMPDEST PUSH2 0x2358 PUSH1 0x3 DUP3 ADD PUSH2 0x2352 PUSH1 0x40 DUP9 ADD PUSH2 0x22AD JUMP JUMPDEST SWAP1 PUSH2 0x1F2B JUMP JUMPDEST PUSH2 0x2371 PUSH1 0x5 DUP3 ADD PUSH2 0x236B PUSH1 0x60 DUP9 ADD PUSH2 0x1510 JUMP JUMPDEST SWAP1 PUSH2 0x1BE0 JUMP JUMPDEST ADD SWAP3 ADD PUSH2 0x22B1 JUMP JUMPDEST SWAP1 PUSH2 0x22E3 JUMP JUMPDEST JUMP JUMPDEST SWAP1 PUSH2 0x238B SWAP2 PUSH2 0x2303 JUMP JUMPDEST JUMP JUMPDEST PUSH1 0x40 SWAP1 PUSH2 0x23B6 PUSH2 0x23BD SWAP5 SWAP7 SWAP6 SWAP4 SWAP7 PUSH2 0x23AC PUSH1 0x60 DUP5 ADD SWAP9 PUSH0 DUP6 ADD SWAP1 PUSH2 0xC6A JUMP JUMPDEST PUSH1 0x20 DUP4 ADD SWAP1 PUSH2 0xC6A JUMP JUMPDEST ADD SWAP1 PUSH2 0xC6A JUMP JUMPDEST JUMP JUMPDEST SWAP2 SWAP3 SWAP4 PUSH2 0x2422 PUSH2 0x243E SWAP3 SWAP6 SWAP2 PUSH2 0x2419 PUSH2 0x2410 PUSH0 SWAP3 PUSH2 0x240B PUSH0 SWAP2 PUSH2 0x2402 PUSH2 0x23F9 PUSH0 SWAP8 PUSH2 0x23F4 PUSH2 0x23EB PUSH2 0x22A0 JUMP JUMPDEST SWAP12 PUSH0 DUP14 ADD PUSH2 0x21CC JUMP JUMPDEST PUSH2 0x1498 JUMP JUMPDEST PUSH1 0x20 DUP11 ADD PUSH2 0x1393 JUMP JUMPDEST PUSH1 0x40 DUP9 ADD PUSH2 0x21CC JUMP JUMPDEST PUSH2 0x1498 JUMP JUMPDEST PUSH1 0x60 DUP6 ADD PUSH2 0x1393 JUMP JUMPDEST PUSH1 0x80 DUP4 ADD PUSH2 0x13A4 JUMP JUMPDEST PUSH2 0x2439 PUSH1 0x3 PUSH2 0x2433 DUP6 DUP9 DUP9 SWAP2 PUSH2 0x18AD JUMP JUMPDEST SWAP1 PUSH2 0x21B6 JUMP JUMPDEST PUSH2 0x2381 JUMP JUMPDEST SWAP2 SWAP1 SWAP2 PUSH2 0x2477 PUSH32 0x5F6F5A0DE1D83B1D2AB2AF48B8E7FFABA041D7D1B99FD698FBF60083DEF9216C SWAP4 PUSH2 0x246E PUSH2 0x192 JUMP JUMPDEST SWAP4 DUP5 SWAP4 DUP5 PUSH2 0x238D JUMP JUMPDEST SUB SWAP1 LOG1 JUMP JUMPDEST SWAP1 PUSH2 0x2489 SWAP5 SWAP4 SWAP3 SWAP2 PUSH2 0x2289 JUMP JUMPDEST JUMP JUMPDEST SWAP1 PUSH2 0x249E SWAP3 SWAP2 PUSH2 0x2499 PUSH2 0x35C1 JUMP JUMPDEST PUSH2 0x24D6 JUMP JUMPDEST JUMP JUMPDEST PUSH4 0x4E487B71 PUSH1 0xE0 SHL PUSH0 MSTORE PUSH1 0x12 PUSH1 0x4 MSTORE PUSH1 0x24 PUSH0 REVERT JUMPDEST PUSH2 0x24C0 PUSH2 0x24C6 SWAP2 PUSH2 0x1A4 JUMP JUMPDEST SWAP2 PUSH2 0x1A4 JUMP JUMPDEST SWAP1 DUP2 ISZERO PUSH2 0x24D1 JUMPI DIV SWAP1 JUMP JUMPDEST PUSH2 0x24A0 JUMP JUMPDEST SWAP2 PUSH2 0x2521 SWAP3 PUSH2 0x2519 PUSH2 0x24F3 PUSH2 0x24ED PUSH1 0x2 DUP5 SWAP1 PUSH2 0xA66 JUMP JUMPDEST POP PUSH2 0x18F9 JUMP JUMPDEST PUSH2 0x2513 PUSH1 0x5 PUSH2 0x2502 PUSH1 0x2 PUSH2 0x14B7 JUMP JUMPDEST SWAP3 ADD SWAP2 PUSH2 0x250E DUP4 PUSH2 0xAAA JUMP JUMPDEST PUSH2 0x24B4 JUMP JUMPDEST SWAP1 PUSH2 0x1BE0 JUMP JUMPDEST SWAP2 SWAP1 SWAP2 PUSH2 0x17A9 JUMP JUMPDEST JUMP JUMPDEST SWAP1 PUSH2 0x252E SWAP3 SWAP2 PUSH2 0x248B JUMP JUMPDEST JUMP JUMPDEST PUSH2 0x2538 PUSH2 0x2124 JUMP JUMPDEST SWAP1 JUMP JUMPDEST PUSH2 0x255A PUSH2 0x2560 SWAP3 PUSH2 0x2565 SWAP5 PUSH2 0x254E PUSH2 0x2530 JUMP JUMPDEST POP PUSH1 0x4 SWAP4 SWAP2 SWAP1 SWAP2 PUSH2 0x2EC6 JUMP JUMPDEST SWAP1 PUSH2 0x154B JUMP JUMPDEST PUSH2 0x1633 JUMP JUMPDEST SWAP1 JUMP JUMPDEST PUSH2 0x257F PUSH2 0x2584 SWAP2 PUSH2 0x2577 PUSH2 0x21AB JUMP JUMPDEST POP PUSH1 0x3 PUSH2 0x21B6 JUMP JUMPDEST PUSH2 0x2250 JUMP JUMPDEST SWAP1 JUMP JUMPDEST PUSH2 0x258F PUSH2 0x35C1 JUMP JUMPDEST PUSH2 0x2597 PUSH2 0x25C1 JUMP JUMPDEST JUMP JUMPDEST PUSH2 0x25AD PUSH2 0x25A8 PUSH2 0x25B2 SWAP3 PUSH2 0x1495 JUMP JUMPDEST PUSH2 0x11FA JUMP JUMPDEST PUSH2 0x62C JUMP JUMPDEST SWAP1 JUMP JUMPDEST PUSH2 0x25BE SWAP1 PUSH2 0x2599 JUMP JUMPDEST SWAP1 JUMP JUMPDEST PUSH2 0x25D2 PUSH2 0x25CD PUSH0 PUSH2 0x25B5 JUMP JUMPDEST PUSH2 0x360F JUMP JUMPDEST JUMP JUMPDEST PUSH2 0x25DC PUSH2 0x2587 JUMP JUMPDEST JUMP JUMPDEST PUSH0 PUSH32 0x506C6179657220696E646578206F7574206F662072616E676500000000000000 SWAP2 ADD MSTORE JUMP JUMPDEST PUSH2 0x2612 PUSH1 0x19 PUSH1 0x20 SWAP3 PUSH2 0xC77 JUMP JUMPDEST PUSH2 0x261B DUP2 PUSH2 0x25DE JUMP JUMPDEST ADD SWAP1 JUMP JUMPDEST PUSH2 0x2634 SWAP1 PUSH1 0x20 DUP2 ADD SWAP1 PUSH0 DUP2 DUP4 SUB SWAP2 ADD MSTORE PUSH2 0x2605 JUMP JUMPDEST SWAP1 JUMP JUMPDEST ISZERO PUSH2 0x263E JUMPI JUMP JUMPDEST PUSH2 0x2646 PUSH2 0x192 JUMP JUMPDEST PUSH3 0x461BCD PUSH1 0xE5 SHL DUP2 MSTORE DUP1 PUSH2 0x265C PUSH1 0x4 DUP3 ADD PUSH2 0x261F JUMP JUMPDEST SUB SWAP1 REVERT JUMPDEST PUSH0 PUSH32 0x546F75726E616D6E6574206964206F7574206F662072616E6765000000000000 SWAP2 ADD MSTORE JUMP JUMPDEST PUSH2 0x2694 PUSH1 0x1A PUSH1 0x20 SWAP3 PUSH2 0xC77 JUMP JUMPDEST PUSH2 0x269D DUP2 PUSH2 0x2660 JUMP JUMPDEST ADD SWAP1 JUMP JUMPDEST PUSH2 0x26B6 SWAP1 PUSH1 0x20 DUP2 ADD SWAP1 PUSH0 DUP2 DUP4 SUB SWAP2 ADD MSTORE PUSH2 0x2687 JUMP JUMPDEST SWAP1 JUMP JUMPDEST ISZERO PUSH2 0x26C0 JUMPI JUMP JUMPDEST PUSH2 0x26C8 PUSH2 0x192 JUMP JUMPDEST PUSH3 0x461BCD PUSH1 0xE5 SHL DUP2 MSTORE DUP1 PUSH2 0x26DE PUSH1 0x4 DUP3 ADD PUSH2 0x26A1 JUMP JUMPDEST SUB SWAP1 REVERT JUMPDEST PUSH0 PUSH32 0x546F75726E616D656E742069736E27742066696E697368656400000000000000 SWAP2 ADD MSTORE JUMP JUMPDEST PUSH2 0x2716 PUSH1 0x19 PUSH1 0x20 SWAP3 PUSH2 0xC77 JUMP JUMPDEST PUSH2 0x271F DUP2 PUSH2 0x26E2 JUMP JUMPDEST ADD SWAP1 JUMP JUMPDEST PUSH2 0x2738 SWAP1 PUSH1 0x20 DUP2 ADD SWAP1 PUSH0 DUP2 DUP4 SUB SWAP2 ADD MSTORE PUSH2 0x2709 JUMP JUMPDEST SWAP1 JUMP JUMPDEST ISZERO PUSH2 0x2742 JUMPI JUMP JUMPDEST PUSH2 0x274A PUSH2 0x192 JUMP JUMPDEST PUSH3 0x461BCD PUSH1 0xE5 SHL DUP2 MSTORE DUP1 PUSH2 0x2760 PUSH1 0x4 DUP3 ADD PUSH2 0x2723 JUMP JUMPDEST SUB SWAP1 REVERT JUMPDEST SWAP1 JUMP JUMPDEST PUSH0 PUSH32 0x4C617374206D617463682069736E27742066696E697368656400000000000000 SWAP2 ADD MSTORE JUMP JUMPDEST PUSH2 0x279B PUSH1 0x19 PUSH1 0x20 SWAP3 PUSH2 0xC77 JUMP JUMPDEST PUSH2 0x27A4 DUP2 PUSH2 0x2767 JUMP JUMPDEST ADD SWAP1 JUMP JUMPDEST PUSH2 0x27BD SWAP1 PUSH1 0x20 DUP2 ADD SWAP1 PUSH0 DUP2 DUP4 SUB SWAP2 ADD MSTORE PUSH2 0x278E JUMP JUMPDEST SWAP1 JUMP JUMPDEST ISZERO PUSH2 0x27C7 JUMPI JUMP JUMPDEST PUSH2 0x27CF PUSH2 0x192 JUMP JUMPDEST PUSH3 0x461BCD PUSH1 0xE5 SHL DUP2 MSTORE DUP1 PUSH2 0x27E5 PUSH1 0x4 DUP3 ADD PUSH2 0x27A8 JUMP JUMPDEST SUB SWAP1 REVERT JUMPDEST PUSH0 PUSH32 0x4B65657020647265616D696E67206F662077696E6E696E670000000000000000 SWAP2 ADD MSTORE JUMP JUMPDEST PUSH2 0x281D PUSH1 0x18 PUSH1 0x20 SWAP3 PUSH2 0xC77 JUMP JUMPDEST PUSH2 0x2826 DUP2 PUSH2 0x27E9 JUMP JUMPDEST ADD SWAP1 JUMP JUMPDEST PUSH2 0x283F SWAP1 PUSH1 0x20 DUP2 ADD SWAP1 PUSH0 DUP2 DUP4 SUB SWAP2 ADD MSTORE PUSH2 0x2810 JUMP JUMPDEST SWAP1 JUMP JUMPDEST ISZERO PUSH2 0x2849 JUMPI JUMP JUMPDEST PUSH2 0x2851 PUSH2 0x192 JUMP JUMPDEST PUSH3 0x461BCD PUSH1 0xE5 SHL DUP2 MSTORE DUP1 PUSH2 0x2867 PUSH1 0x4 DUP3 ADD PUSH2 0x282A JUMP JUMPDEST SUB SWAP1 REVERT JUMPDEST PUSH0 PUSH32 0x5072697A6520616C726561647920636C61696D65640000000000000000000000 SWAP2 ADD MSTORE JUMP JUMPDEST PUSH2 0x289F PUSH1 0x15 PUSH1 0x20 SWAP3 PUSH2 0xC77 JUMP JUMPDEST PUSH2 0x28A8 DUP2 PUSH2 0x286B JUMP JUMPDEST ADD SWAP1 JUMP JUMPDEST PUSH2 0x28C1 SWAP1 PUSH1 0x20 DUP2 ADD SWAP1 PUSH0 DUP2 DUP4 SUB SWAP2 ADD MSTORE PUSH2 0x2892 JUMP JUMPDEST SWAP1 JUMP JUMPDEST ISZERO PUSH2 0x28CB JUMPI JUMP JUMPDEST PUSH2 0x28D3 PUSH2 0x192 JUMP JUMPDEST PUSH3 0x461BCD PUSH1 0xE5 SHL DUP2 MSTORE DUP1 PUSH2 0x28E9 PUSH1 0x4 DUP3 ADD PUSH2 0x28AC JUMP JUMPDEST SUB SWAP1 REVERT JUMPDEST PUSH2 0x28FC PUSH2 0x2902 SWAP2 SWAP4 SWAP3 SWAP4 PUSH2 0x1A4 JUMP JUMPDEST SWAP3 PUSH2 0x1A4 JUMP JUMPDEST SWAP2 PUSH2 0x290E DUP4 DUP3 MUL PUSH2 0x1A4 JUMP JUMPDEST SWAP3 DUP2 DUP5 DIV EQ SWAP1 ISZERO OR ISZERO PUSH2 0x291D JUMPI JUMP JUMPDEST PUSH2 0x14D3 JUMP JUMPDEST SWAP2 PUSH1 0x20 PUSH2 0x2943 SWAP3 SWAP5 SWAP4 PUSH2 0x293C PUSH1 0x40 DUP3 ADD SWAP7 PUSH0 DUP4 ADD SWAP1 PUSH2 0xE68 JUMP JUMPDEST ADD SWAP1 PUSH2 0xC6A JUMP JUMPDEST JUMP JUMPDEST SWAP1 PUSH2 0x296C SWAP1 DUP1 PUSH2 0x295D PUSH2 0x2957 PUSH0 PUSH2 0x1498 JUMP JUMPDEST SWAP2 PUSH2 0x1A4 JUMP JUMPDEST EQ SWAP1 DUP2 ISZERO PUSH2 0x2BDD JUMPI JUMPDEST POP PUSH2 0x2637 JUMP JUMPDEST DUP1 PUSH2 0x297F PUSH2 0x2979 PUSH0 PUSH2 0x1498 JUMP JUMPDEST SWAP2 PUSH2 0x1A4 JUMP JUMPDEST LT ISZERO DUP1 PUSH2 0x2BB5 JUMPI JUMPDEST PUSH2 0x2990 SWAP1 PUSH2 0x26B9 JUMP JUMPDEST PUSH2 0x2A00 PUSH2 0x29FB PUSH2 0x29AB PUSH2 0x29A5 PUSH1 0x2 DUP6 SWAP1 PUSH2 0xA66 JUMP JUMPDEST POP PUSH2 0x1489 JUMP JUMPDEST SWAP3 PUSH2 0x29D4 PUSH2 0x29BB PUSH1 0xE0 DUP7 ADD PUSH2 0x22B1 JUMP JUMPDEST PUSH2 0x29CE PUSH2 0x29C8 PUSH1 0x2 PUSH2 0x335 JUMP JUMPDEST SWAP2 PUSH2 0x335 JUMP JUMPDEST EQ PUSH2 0x273B JUMP JUMPDEST PUSH2 0x29F5 PUSH1 0x3 SWAP2 PUSH1 0x1 PUSH2 0x29EF PUSH2 0x29E9 PUSH0 SWAP3 PUSH2 0x1642 JUMP JUMPDEST SWAP2 PUSH2 0x1498 JUMP JUMPDEST SWAP2 PUSH2 0x18AD JUMP JUMPDEST SWAP1 PUSH2 0x21B6 JUMP JUMPDEST PUSH2 0x2764 JUMP JUMPDEST PUSH2 0x2A28 PUSH2 0x2A0F PUSH1 0x6 DUP4 ADD PUSH2 0xBD3 JUMP JUMPDEST PUSH2 0x2A22 PUSH2 0x2A1C PUSH1 0x2 PUSH2 0x335 JUMP JUMPDEST SWAP2 PUSH2 0x335 JUMP JUMPDEST EQ PUSH2 0x27C0 JUMP JUMPDEST PUSH2 0x2A34 PUSH1 0x2 DUP3 ADD PUSH2 0xAAA JUMP JUMPDEST PUSH2 0x2A51 PUSH2 0x2A4B PUSH2 0x2A46 PUSH1 0x5 DUP6 ADD PUSH2 0xAAA JUMP JUMPDEST PUSH2 0x1A4 JUMP JUMPDEST SWAP2 PUSH2 0x1A4 JUMP JUMPDEST GT PUSH0 EQ PUSH2 0x2B57 JUMPI DUP1 PUSH2 0x2A84 PUSH2 0x2A6C PUSH0 DUP1 PUSH2 0x2AAE SWAP6 ADD ADD PUSH2 0x1580 JUMP JUMPDEST PUSH2 0x2A7E PUSH2 0x2A78 CALLER PUSH2 0x637 JUMP JUMPDEST SWAP2 PUSH2 0x637 JUMP JUMPDEST EQ PUSH2 0x2842 JUMP JUMPDEST PUSH2 0x2AA2 PUSH2 0x2A9D PUSH2 0x2A97 PUSH0 DUP1 DUP6 ADD ADD PUSH2 0x15BB JUMP JUMPDEST ISZERO PUSH2 0x650 JUMP JUMPDEST PUSH2 0x28C4 JUMP JUMPDEST PUSH0 DUP1 PUSH1 0x1 SWAP3 ADD ADD PUSH2 0x1CD7 JUMP JUMPDEST JUMPDEST PUSH1 0x20 PUSH2 0x2AC3 PUSH2 0x2ABE PUSH1 0x1 PUSH2 0x1A96 JUMP JUMPDEST PUSH2 0x1225 JUMP JUMPDEST SWAP2 PUSH4 0xA9059CBB SWAP3 PUSH2 0x2B09 PUSH0 PUSH2 0x2AF1 CALLER SWAP5 PUSH2 0x2AEB PUSH1 0x80 PUSH2 0x2AE4 PUSH1 0x40 DUP5 ADD PUSH2 0x1510 JUMP JUMPDEST SWAP3 ADD PUSH2 0x1510 JUMP JUMPDEST SWAP1 PUSH2 0x28ED JUMP JUMPDEST SWAP6 PUSH2 0x2B14 PUSH2 0x2AFD PUSH2 0x192 JUMP JUMPDEST SWAP8 DUP9 SWAP7 DUP8 SWAP6 DUP7 SWAP5 PUSH2 0x1AAF JUMP JUMPDEST DUP5 MSTORE PUSH1 0x4 DUP5 ADD PUSH2 0x2922 JUMP JUMPDEST SUB SWAP3 GAS CALL DUP1 ISZERO PUSH2 0x2B52 JUMPI PUSH2 0x2B26 JUMPI JUMPDEST POP JUMP JUMPDEST PUSH2 0x2B46 SWAP1 PUSH1 0x20 RETURNDATASIZE DUP2 GT PUSH2 0x2B4B JUMPI JUMPDEST PUSH2 0x2B3E DUP2 DUP4 PUSH2 0x4EE JUMP JUMPDEST DUP2 ADD SWAP1 PUSH2 0x1AC4 JUMP JUMPDEST PUSH2 0x2B23 JUMP JUMPDEST POP RETURNDATASIZE PUSH2 0x2B34 JUMP JUMPDEST PUSH2 0x1B14 JUMP JUMPDEST DUP1 PUSH2 0x2B84 PUSH2 0x2B6C PUSH0 PUSH1 0x3 PUSH2 0x2BB0 SWAP6 ADD ADD PUSH2 0x1580 JUMP JUMPDEST PUSH2 0x2B7E PUSH2 0x2B78 CALLER PUSH2 0x637 JUMP JUMPDEST SWAP2 PUSH2 0x637 JUMP JUMPDEST EQ PUSH2 0x2842 JUMP JUMPDEST PUSH2 0x2BA3 PUSH2 0x2B9E PUSH2 0x2B98 PUSH0 PUSH1 0x3 DUP6 ADD ADD PUSH2 0x15BB JUMP JUMPDEST ISZERO PUSH2 0x650 JUMP JUMPDEST PUSH2 0x28C4 JUMP JUMPDEST PUSH0 PUSH1 0x3 PUSH1 0x1 SWAP3 ADD ADD PUSH2 0x1CD7 JUMP JUMPDEST PUSH2 0x2AAF JUMP JUMPDEST POP PUSH2 0x2990 DUP2 PUSH2 0x2BD5 PUSH2 0x2BCF PUSH2 0x2BCA PUSH1 0x2 PUSH2 0xA59 JUMP JUMPDEST PUSH2 0x1A4 JUMP JUMPDEST SWAP2 PUSH2 0x1A4 JUMP JUMPDEST LT SWAP1 POP PUSH2 0x2987 JUMP JUMPDEST SWAP1 POP PUSH2 0x2BF2 PUSH2 0x2BEC PUSH1 0x1 PUSH2 0x1642 JUMP JUMPDEST SWAP2 PUSH2 0x1A4 JUMP JUMPDEST EQ PUSH0 PUSH2 0x2966 JUMP JUMPDEST SWAP1 PUSH2 0x2C0E SWAP5 SWAP4 SWAP3 SWAP2 PUSH2 0x2C09 PUSH2 0x35C1 JUMP JUMPDEST PUSH2 0x2C10 JUMP JUMPDEST JUMP JUMPDEST SWAP2 SWAP3 SWAP1 SWAP4 PUSH2 0x2C77 PUSH2 0x2C71 PUSH2 0x2C39 PUSH2 0x2C34 PUSH1 0x3 PUSH2 0x2C2E DUP9 DUP12 DUP12 SWAP2 PUSH2 0x18AD JUMP JUMPDEST SWAP1 PUSH2 0x21B6 JUMP JUMPDEST PUSH2 0x2764 JUMP JUMPDEST SWAP4 PUSH2 0x2C47 DUP2 PUSH1 0x2 DUP8 ADD PUSH2 0x1BE0 JUMP JUMPDEST PUSH2 0x2C54 DUP5 PUSH1 0x5 DUP8 ADD PUSH2 0x1BE0 JUMP JUMPDEST PUSH2 0x2C62 PUSH1 0x2 PUSH1 0x6 DUP8 ADD PUSH2 0x22E3 JUMP JUMPDEST PUSH2 0x2C6A PUSH2 0x2530 JUMP JUMPDEST POP SWAP3 PUSH2 0x1A4 JUMP JUMPDEST SWAP2 PUSH2 0x1A4 JUMP JUMPDEST GT PUSH0 EQ PUSH2 0x2D1C JUMPI PUSH0 PUSH2 0x2C89 SWAP2 ADD PUSH2 0x1633 JUMP JUMPDEST JUMPDEST DUP4 PUSH2 0x2C9E PUSH2 0x2C98 PUSH1 0x1 PUSH2 0x1642 JUMP JUMPDEST SWAP2 PUSH2 0x1A4 JUMP JUMPDEST SUB PUSH2 0x2CE3 JUMPI JUMPDEST POP SWAP2 SWAP1 SWAP2 PUSH2 0x2CDE PUSH32 0x8E36A42896AC2A1D0C0B5CA5AFF8B1F91AB25DE19C492D83A3DAC09BA9764371 SWAP4 PUSH2 0x2CD5 PUSH2 0x192 JUMP JUMPDEST SWAP4 DUP5 SWAP4 DUP5 PUSH2 0x238D JUMP JUMPDEST SUB SWAP1 LOG1 JUMP JUMPDEST PUSH2 0x2D16 SWAP1 PUSH2 0x2D11 PUSH1 0x4 PUSH2 0x2D0B DUP6 PUSH2 0x2D04 DUP10 PUSH2 0x2CFE PUSH1 0x2 PUSH2 0x14B7 JUMP JUMPDEST SWAP1 PUSH2 0x24B4 JUMP JUMPDEST DUP9 SWAP2 PUSH2 0x2EC6 JUMP JUMPDEST SWAP1 PUSH2 0x154B JUMP JUMPDEST PUSH2 0x1F2B JUMP JUMPDEST PUSH0 PUSH2 0x2CA4 JUMP JUMPDEST PUSH1 0x3 PUSH2 0x2D28 SWAP2 ADD PUSH2 0x1633 JUMP JUMPDEST PUSH2 0x2C8A JUMP JUMPDEST SWAP1 PUSH2 0x2D3A SWAP5 SWAP4 SWAP3 SWAP2 PUSH2 0x2BF9 JUMP JUMPDEST JUMP JUMPDEST PUSH0 SWAP1 JUMP JUMPDEST PUSH2 0x2D48 PUSH2 0x2D3C JUMP JUMPDEST POP PUSH2 0x2D52 PUSH0 PUSH2 0x1580 JUMP JUMPDEST SWAP1 JUMP JUMPDEST SWAP1 PUSH2 0x2D68 SWAP3 SWAP2 PUSH2 0x2D63 PUSH2 0x35C1 JUMP JUMPDEST PUSH2 0x2D6A JUMP JUMPDEST JUMP JUMPDEST SWAP2 SWAP1 PUSH2 0x2D9C SWAP2 PUSH2 0x2D93 PUSH2 0x2D88 PUSH2 0x2D82 PUSH1 0x2 DUP8 SWAP1 PUSH2 0xA66 JUMP JUMPDEST POP PUSH2 0x18F9 JUMP JUMPDEST PUSH1 0x7 PUSH1 0x1 SWAP2 ADD PUSH2 0x22E3 JUMP JUMPDEST DUP4 SWAP2 SWAP1 SWAP2 PUSH2 0x17A9 JUMP JUMPDEST PUSH2 0x2DD2 PUSH32 0x472DDE00D4A421D9E9FC7BEF66DBF7671C60E18DFA993294579A036528BC0820 SWAP2 PUSH2 0x2DC9 PUSH2 0x192 JUMP JUMPDEST SWAP2 DUP3 SWAP2 DUP3 PUSH2 0xF71 JUMP JUMPDEST SUB SWAP1 LOG1 JUMP JUMPDEST SWAP1 PUSH2 0x2DE2 SWAP3 SWAP2 PUSH2 0x2D55 JUMP JUMPDEST JUMP JUMPDEST PUSH2 0x2E05 SWAP1 PUSH1 0x7 PUSH2 0x2DFF PUSH2 0x2DF9 PUSH1 0x2 DUP7 SWAP1 PUSH2 0xA66 JUMP JUMPDEST POP PUSH2 0x18F9 JUMP JUMPDEST ADD PUSH2 0x22E3 JUMP JUMPDEST PUSH2 0x2E3B PUSH32 0x472DDE00D4A421D9E9FC7BEF66DBF7671C60E18DFA993294579A036528BC0820 SWAP2 PUSH2 0x2E32 PUSH2 0x192 JUMP JUMPDEST SWAP2 DUP3 SWAP2 DUP3 PUSH2 0xF71 JUMP JUMPDEST SUB SWAP1 LOG1 JUMP JUMPDEST PUSH2 0x2E48 PUSH2 0x1D50 JUMP JUMPDEST POP PUSH2 0x2E53 PUSH1 0x2 PUSH2 0xA59 JUMP JUMPDEST SWAP1 JUMP JUMPDEST PUSH2 0x2E67 SWAP1 PUSH2 0x2E62 PUSH2 0x35C1 JUMP JUMPDEST PUSH2 0x2E69 JUMP JUMPDEST JUMP JUMPDEST DUP1 PUSH2 0x2E84 PUSH2 0x2E7E PUSH2 0x2E79 PUSH0 PUSH2 0x25B5 JUMP JUMPDEST PUSH2 0x637 JUMP JUMPDEST SWAP2 PUSH2 0x637 JUMP JUMPDEST EQ PUSH2 0x2E94 JUMPI PUSH2 0x2E92 SWAP1 PUSH2 0x360F JUMP JUMPDEST JUMP JUMPDEST PUSH2 0x2EB7 PUSH2 0x2EA0 PUSH0 PUSH2 0x25B5 JUMP JUMPDEST PUSH0 SWAP2 DUP3 SWAP2 PUSH4 0x1E4FBDF7 PUSH1 0xE0 SHL DUP4 MSTORE PUSH1 0x4 DUP4 ADD PUSH2 0xE75 JUMP JUMPDEST SUB SWAP1 REVERT JUMPDEST PUSH2 0x2EC4 SWAP1 PUSH2 0x2E56 JUMP JUMPDEST JUMP JUMPDEST SWAP1 PUSH2 0x2EED PUSH2 0x2EFC SWAP3 PUSH2 0x2ED6 PUSH2 0x185C JUMP JUMPDEST POP SWAP2 SWAP4 PUSH2 0x2EE1 PUSH2 0x192 JUMP JUMPDEST SWAP5 DUP6 SWAP4 PUSH1 0x20 DUP6 ADD PUSH2 0x1878 JUMP JUMPDEST PUSH1 0x20 DUP3 ADD DUP2 SUB DUP3 MSTORE SUB DUP3 PUSH2 0x4EE JUMP JUMPDEST PUSH2 0x2F0E PUSH2 0x2F08 DUP3 PUSH2 0x18A9 JUMP JUMPDEST SWAP2 PUSH2 0x18A3 JUMP JUMPDEST KECCAK256 SWAP1 JUMP JUMPDEST PUSH1 0x60 SWAP1 JUMP JUMPDEST PUSH8 0xFFFFFFFFFFFFFFFF DUP2 GT PUSH2 0x2F2F JUMPI PUSH1 0x20 DUP1 SWAP2 MUL ADD SWAP1 JUMP JUMPDEST PUSH2 0x4DA JUMP JUMPDEST SWAP1 PUSH2 0x2F46 PUSH2 0x2F41 DUP4 PUSH2 0x2F17 JUMP JUMPDEST PUSH2 0x517 JUMP JUMPDEST SWAP2 DUP3 MSTORE JUMP JUMPDEST SWAP1 PUSH2 0x2F55 DUP3 PUSH2 0xA59 JUMP JUMPDEST PUSH2 0x2F5E DUP2 PUSH2 0x2F34 JUMP JUMPDEST SWAP3 PUSH2 0x2F6C PUSH1 0x20 DUP6 ADD SWAP2 PUSH2 0xA5D JUMP JUMPDEST PUSH0 SWAP2 JUMPDEST DUP4 DUP4 LT PUSH2 0x2F7C JUMPI POP POP POP POP JUMP JUMPDEST PUSH1 0x8 PUSH1 0x20 PUSH1 0x1 SWAP3 PUSH2 0x2F8C DUP6 PUSH2 0x1489 JUMP JUMPDEST DUP2 MSTORE ADD SWAP3 ADD SWAP3 ADD SWAP2 SWAP1 PUSH2 0x2F6F JUMP JUMPDEST PUSH2 0x2FA3 SWAP1 PUSH2 0x2F4B JUMP JUMPDEST SWAP1 JUMP JUMPDEST PUSH2 0x2FAE PUSH2 0x2F12 JUMP JUMPDEST POP PUSH2 0x2FB9 PUSH1 0x2 PUSH2 0x2F9A JUMP JUMPDEST SWAP1 JUMP JUMPDEST SWAP1 JUMP JUMPDEST PUSH0 PUSH32 0x746F75726E616D656E742069736E277420657870697265640000000000000000 SWAP2 ADD MSTORE JUMP JUMPDEST PUSH2 0x2FF3 PUSH1 0x18 PUSH1 0x20 SWAP3 PUSH2 0xC77 JUMP JUMPDEST PUSH2 0x2FFC DUP2 PUSH2 0x2FBF JUMP JUMPDEST ADD SWAP1 JUMP JUMPDEST PUSH2 0x3015 SWAP1 PUSH1 0x20 DUP2 ADD SWAP1 PUSH0 DUP2 DUP4 SUB SWAP2 ADD MSTORE PUSH2 0x2FE6 JUMP JUMPDEST SWAP1 JUMP JUMPDEST ISZERO PUSH2 0x301F JUMPI JUMP JUMPDEST PUSH2 0x3027 PUSH2 0x192 JUMP JUMPDEST PUSH3 0x461BCD PUSH1 0xE5 SHL DUP2 MSTORE DUP1 PUSH2 0x303D PUSH1 0x4 DUP3 ADD PUSH2 0x3000 JUMP JUMPDEST SUB SWAP1 REVERT JUMPDEST PUSH0 PUSH32 0x7573657220616C726561647920636C61696D656420726566756E640000000000 SWAP2 ADD MSTORE JUMP JUMPDEST PUSH2 0x3075 PUSH1 0x1B PUSH1 0x20 SWAP3 PUSH2 0xC77 JUMP JUMPDEST PUSH2 0x307E DUP2 PUSH2 0x3041 JUMP JUMPDEST ADD SWAP1 JUMP JUMPDEST PUSH2 0x3097 SWAP1 PUSH1 0x20 DUP2 ADD SWAP1 PUSH0 DUP2 DUP4 SUB SWAP2 ADD MSTORE PUSH2 0x3068 JUMP JUMPDEST SWAP1 JUMP JUMPDEST ISZERO PUSH2 0x30A1 JUMPI JUMP JUMPDEST PUSH2 0x30A9 PUSH2 0x192 JUMP JUMPDEST PUSH3 0x461BCD PUSH1 0xE5 SHL DUP2 MSTORE DUP1 PUSH2 0x30BF PUSH1 0x4 DUP3 ADD PUSH2 0x3082 JUMP JUMPDEST SUB SWAP1 REVERT JUMPDEST PUSH2 0x3108 PUSH2 0x3103 PUSH2 0x315D SWAP3 PUSH2 0x30FD PUSH2 0x30E5 PUSH2 0x30DF PUSH1 0x2 DUP5 SWAP1 PUSH2 0xA66 JUMP JUMPDEST POP PUSH2 0x1489 JUMP JUMPDEST SWAP6 PUSH1 0x4 SWAP3 SWAP1 PUSH2 0x30F6 PUSH1 0xA0 DUP10 ADD PUSH2 0x1510 JUMP JUMPDEST SWAP1 SWAP2 PUSH2 0x2EC6 JUMP JUMPDEST SWAP1 PUSH2 0x154B JUMP JUMPDEST PUSH2 0x2FBC JUMP JUMPDEST PUSH2 0x3114 PUSH1 0xE0 DUP5 ADD PUSH2 0x22B1 JUMP JUMPDEST PUSH2 0x3127 PUSH2 0x3121 PUSH1 0x3 PUSH2 0x335 JUMP JUMPDEST SWAP2 PUSH2 0x335 JUMP JUMPDEST EQ DUP1 PUSH2 0x31EF JUMPI JUMPDEST PUSH2 0x3137 SWAP1 PUSH2 0x3018 JUMP JUMPDEST PUSH2 0x3153 PUSH2 0x314E PUSH2 0x3148 PUSH0 DUP5 ADD PUSH2 0x15BB JUMP JUMPDEST ISZERO PUSH2 0x650 JUMP JUMPDEST PUSH2 0x309A JUMP JUMPDEST PUSH0 PUSH1 0x1 SWAP2 ADD PUSH2 0x1CD7 JUMP JUMPDEST PUSH1 0x20 PUSH2 0x3171 PUSH2 0x316C PUSH1 0x1 PUSH2 0x1A96 JUMP JUMPDEST PUSH2 0x1225 JUMP JUMPDEST SWAP2 PUSH4 0xA9059CBB SWAP3 PUSH2 0x31A1 PUSH0 PUSH2 0x3189 PUSH1 0x40 CALLER SWAP6 ADD PUSH2 0x1510 JUMP JUMPDEST SWAP6 PUSH2 0x31AC PUSH2 0x3195 PUSH2 0x192 JUMP JUMPDEST SWAP8 DUP9 SWAP7 DUP8 SWAP6 DUP7 SWAP5 PUSH2 0x1AAF JUMP JUMPDEST DUP5 MSTORE PUSH1 0x4 DUP5 ADD PUSH2 0x2922 JUMP JUMPDEST SUB SWAP3 GAS CALL DUP1 ISZERO PUSH2 0x31EA JUMPI PUSH2 0x31BE JUMPI JUMPDEST POP JUMP JUMPDEST PUSH2 0x31DE SWAP1 PUSH1 0x20 RETURNDATASIZE DUP2 GT PUSH2 0x31E3 JUMPI JUMPDEST PUSH2 0x31D6 DUP2 DUP4 PUSH2 0x4EE JUMP JUMPDEST DUP2 ADD SWAP1 PUSH2 0x1AC4 JUMP JUMPDEST PUSH2 0x31BB JUMP JUMPDEST POP RETURNDATASIZE PUSH2 0x31CC JUMP JUMPDEST PUSH2 0x1B14 JUMP JUMPDEST POP PUSH2 0x3137 PUSH2 0x31FF PUSH1 0xC0 DUP6 ADD PUSH2 0x1510 JUMP JUMPDEST PUSH2 0x3211 PUSH2 0x320B TIMESTAMP PUSH2 0x1A4 JUMP JUMPDEST SWAP2 PUSH2 0x1A4 JUMP JUMPDEST LT SWAP1 POP PUSH2 0x312E JUMP JUMPDEST SWAP1 JUMP JUMPDEST PUSH2 0x3227 PUSH2 0x100 PUSH2 0x517 JUMP JUMPDEST SWAP1 JUMP JUMPDEST PUSH0 MSTORE PUSH1 0x20 PUSH0 KECCAK256 SWAP1 JUMP JUMPDEST SLOAD SWAP1 JUMP JUMPDEST PUSH2 0x3240 DUP2 PUSH2 0x3233 JUMP JUMPDEST DUP3 LT ISZERO PUSH2 0x325A JUMPI PUSH2 0x3252 PUSH1 0x8 SWAP2 PUSH2 0x322A JUMP JUMPDEST SWAP2 MUL ADD SWAP1 PUSH0 SWAP1 JUMP JUMPDEST PUSH2 0xA45 JUMP JUMPDEST SWAP1 PUSH2 0x3320 PUSH1 0xE0 PUSH1 0x7 PUSH2 0x3326 SWAP5 PUSH2 0x3282 PUSH0 DUP3 ADD PUSH2 0x327C PUSH0 DUP9 ADD PUSH2 0x1510 JUMP JUMPDEST SWAP1 PUSH2 0x1BE0 JUMP JUMPDEST PUSH2 0x329B PUSH1 0x1 DUP3 ADD PUSH2 0x3295 PUSH1 0x20 DUP9 ADD PUSH2 0x1CF7 JUMP JUMPDEST SWAP1 PUSH2 0x1ED4 JUMP JUMPDEST PUSH2 0x32B4 PUSH1 0x2 DUP3 ADD PUSH2 0x32AE PUSH1 0x40 DUP9 ADD PUSH2 0x1510 JUMP JUMPDEST SWAP1 PUSH2 0x1BE0 JUMP JUMPDEST PUSH2 0x32CD PUSH1 0x3 DUP3 ADD PUSH2 0x32C7 PUSH1 0x60 DUP9 ADD PUSH2 0x1510 JUMP JUMPDEST SWAP1 PUSH2 0x1BE0 JUMP JUMPDEST PUSH2 0x32E6 PUSH1 0x4 DUP3 ADD PUSH2 0x32E0 PUSH1 0x80 DUP9 ADD PUSH2 0x1510 JUMP JUMPDEST SWAP1 PUSH2 0x1BE0 JUMP JUMPDEST PUSH2 0x32FF PUSH1 0x5 DUP3 ADD PUSH2 0x32F9 PUSH1 0xA0 DUP9 ADD PUSH2 0x1510 JUMP JUMPDEST SWAP1 PUSH2 0x1BE0 JUMP JUMPDEST PUSH2 0x3318 PUSH1 0x6 DUP3 ADD PUSH2 0x3312 PUSH1 0xC0 DUP9 ADD PUSH2 0x1510 JUMP JUMPDEST SWAP1 PUSH2 0x1BE0 JUMP JUMPDEST ADD SWAP3 ADD PUSH2 0x22B1 JUMP JUMPDEST SWAP1 PUSH2 0x22E3 JUMP JUMPDEST JUMP JUMPDEST SWAP2 SWAP1 PUSH2 0x3339 JUMPI PUSH2 0x3337 SWAP2 PUSH2 0x325F JUMP JUMPDEST JUMP JUMPDEST PUSH2 0x1C32 JUMP JUMPDEST SWAP1 DUP2 SLOAD SWAP2 PUSH9 0x10000000000000000 DUP4 LT ISZERO PUSH2 0x336E JUMPI DUP3 PUSH2 0x3366 SWAP2 PUSH1 0x1 PUSH2 0x336C SWAP6 ADD DUP2 SSTORE PUSH2 0x3237 JUMP JUMPDEST SWAP1 PUSH2 0x3328 JUMP JUMPDEST JUMP JUMPDEST PUSH2 0x4DA JUMP JUMPDEST SWAP1 SWAP4 SWAP3 SWAP2 SWAP4 PUSH2 0x338A PUSH2 0x3385 PUSH1 0x1 PUSH2 0x1A96 JUMP JUMPDEST PUSH2 0x1225 JUMP JUMPDEST PUSH1 0x20 PUSH4 0x23B872DD SWAP2 CALLER SWAP1 PUSH2 0x33BA PUSH0 PUSH2 0x33A1 ADDRESS PUSH2 0x1AA3 JUMP JUMPDEST SWAP6 PUSH2 0x33C5 DUP9 PUSH2 0x33AE PUSH2 0x192 JUMP JUMPDEST SWAP9 DUP10 SWAP8 DUP9 SWAP7 DUP8 SWAP6 PUSH2 0x1AAF JUMP JUMPDEST DUP6 MSTORE PUSH1 0x4 DUP6 ADD PUSH2 0x1AE2 JUMP JUMPDEST SUB SWAP3 GAS CALL DUP1 ISZERO PUSH2 0x35BC JUMPI PUSH2 0x33E0 SWAP2 PUSH0 SWAP2 PUSH2 0x358E JUMPI JUMPDEST POP PUSH2 0x1B7D JUMP JUMPDEST PUSH1 0x2 PUSH2 0x33EB SWAP1 PUSH2 0x3219 JUMP JUMPDEST SWAP3 PUSH1 0x2 PUSH2 0x33F7 SWAP1 PUSH2 0xA59 JUMP JUMPDEST SWAP3 SWAP2 SWAP1 PUSH1 0x1 DUP8 SWAP1 DUP9 PUSH1 0x2 PUSH2 0x340A SWAP1 PUSH2 0x14B7 JUMP JUMPDEST PUSH2 0x3413 SWAP2 PUSH2 0x24B4 JUMP JUMPDEST SWAP3 SWAP4 PUSH0 SWAP6 PUSH2 0x341F PUSH2 0x321C JUMP JUMPDEST SWAP8 PUSH0 DUP10 ADD SWAP1 PUSH2 0x342D SWAP2 PUSH2 0x1393 JUMP JUMPDEST PUSH1 0x20 DUP9 ADD SWAP1 PUSH2 0x343B SWAP2 PUSH2 0x13A1 JUMP JUMPDEST PUSH1 0x40 DUP8 ADD SWAP1 PUSH2 0x3449 SWAP2 PUSH2 0x1393 JUMP JUMPDEST PUSH2 0x3452 SWAP1 PUSH2 0x1642 JUMP JUMPDEST PUSH1 0x60 DUP7 ADD SWAP1 PUSH2 0x3460 SWAP2 PUSH2 0x1393 JUMP JUMPDEST PUSH1 0x80 DUP6 ADD SWAP1 PUSH2 0x346E SWAP2 PUSH2 0x1393 JUMP JUMPDEST PUSH1 0xA0 DUP5 ADD SWAP1 PUSH2 0x347C SWAP2 PUSH2 0x1393 JUMP JUMPDEST PUSH1 0xC0 DUP4 ADD SWAP1 PUSH2 0x348A SWAP2 PUSH2 0x1393 JUMP JUMPDEST PUSH1 0xE0 DUP3 ADD SWAP1 PUSH2 0x3498 SWAP2 PUSH2 0x13A4 JUMP JUMPDEST PUSH2 0x34A1 SWAP2 PUSH2 0x333E JUMP JUMPDEST CALLER SWAP1 PUSH0 PUSH2 0x34AC PUSH2 0x1C00 JUMP JUMPDEST SWAP3 PUSH0 DUP5 ADD SWAP1 PUSH2 0x34BA SWAP2 PUSH2 0x158D JUMP JUMPDEST PUSH1 0x20 DUP4 ADD SWAP1 PUSH2 0x34C8 SWAP2 PUSH2 0x15C8 JUMP JUMPDEST PUSH1 0x40 DUP3 ADD SWAP1 PUSH2 0x34D6 SWAP2 PUSH2 0x13A1 JUMP JUMPDEST SWAP1 PUSH1 0x4 SWAP1 PUSH1 0x2 PUSH2 0x34E5 SWAP1 PUSH2 0xA59 JUMP JUMPDEST PUSH1 0x1 PUSH2 0x34F0 SWAP1 PUSH2 0x1642 JUMP JUMPDEST PUSH2 0x34F9 SWAP2 PUSH2 0x1C0D JUMP JUMPDEST SWAP1 PUSH1 0x2 PUSH2 0x3505 SWAP1 PUSH2 0x14B7 JUMP JUMPDEST PUSH2 0x350E SWAP2 PUSH2 0x24B4 JUMP JUMPDEST PUSH0 PUSH2 0x3518 SWAP1 PUSH2 0x1498 JUMP JUMPDEST SWAP1 PUSH2 0x3522 SWAP3 PUSH2 0x2EC6 JUMP JUMPDEST PUSH2 0x352B SWAP2 PUSH2 0x154B JUMP JUMPDEST SWAP1 PUSH2 0x3535 SWAP2 PUSH2 0x1F2B JUMP JUMPDEST PUSH1 0x2 PUSH2 0x3540 SWAP1 PUSH2 0xA59 JUMP JUMPDEST PUSH1 0x1 PUSH2 0x354B SWAP1 PUSH2 0x1642 JUMP JUMPDEST PUSH2 0x3554 SWAP2 PUSH2 0x1C0D JUMP JUMPDEST PUSH32 0x113D32D0B7AEC15A8C7F50AF4CB42F4695E5B95524ED69519AC88D6C1F1F40F6 SWAP1 PUSH2 0x357E PUSH2 0x192 JUMP JUMPDEST PUSH2 0x3589 DUP2 SWAP3 DUP3 PUSH2 0xF71 JUMP JUMPDEST SUB SWAP1 LOG1 JUMP JUMPDEST PUSH2 0x35AF SWAP2 POP PUSH1 0x20 RETURNDATASIZE DUP2 GT PUSH2 0x35B5 JUMPI JUMPDEST PUSH2 0x35A7 DUP2 DUP4 PUSH2 0x4EE JUMP JUMPDEST DUP2 ADD SWAP1 PUSH2 0x1AC4 JUMP JUMPDEST PUSH0 PUSH2 0x33DA JUMP JUMPDEST POP RETURNDATASIZE PUSH2 0x359D JUMP JUMPDEST PUSH2 0x1B14 JUMP JUMPDEST PUSH2 0x35C9 PUSH2 0x2D40 JUMP JUMPDEST PUSH2 0x35E2 PUSH2 0x35DC PUSH2 0x35D7 PUSH2 0x366E JUMP JUMPDEST PUSH2 0x637 JUMP JUMPDEST SWAP2 PUSH2 0x637 JUMP JUMPDEST SUB PUSH2 0x35E9 JUMPI JUMP JUMPDEST PUSH2 0x360B PUSH2 0x35F4 PUSH2 0x366E JUMP JUMPDEST PUSH0 SWAP2 DUP3 SWAP2 PUSH4 0x118CDAA7 PUSH1 0xE0 SHL DUP4 MSTORE PUSH1 0x4 DUP4 ADD PUSH2 0xE75 JUMP JUMPDEST SUB SWAP1 REVERT JUMPDEST PUSH2 0x3618 PUSH0 PUSH2 0x1580 JUMP JUMPDEST PUSH2 0x3622 DUP3 PUSH0 PUSH2 0x1C7C JUMP JUMPDEST SWAP1 PUSH2 0x3656 PUSH2 0x3650 PUSH32 0x8BE0079C531659141344CD1FD0A4F28419497F9722A3DAAFE3B4186F6B6457E0 SWAP4 PUSH2 0x1C6D JUMP JUMPDEST SWAP2 PUSH2 0x1C6D JUMP JUMPDEST SWAP2 PUSH2 0x365F PUSH2 0x192 JUMP JUMPDEST DUP1 PUSH2 0x3669 DUP2 PUSH2 0x25B JUMP JUMPDEST SUB SWAP1 LOG3 JUMP JUMPDEST PUSH2 0x3676 PUSH2 0x2D3C JUMP JUMPDEST POP CALLER SWAP1 JUMP INVALID LOG2 PUSH5 0x6970667358 0x22 SLT KECCAK256 XOR MLOAD PUSH2 0x8AE3 DUP14 ORIGIN 0xBE 0xC9 SMOD 0xED PUSH20 0xEA73BF8E4B200297A13FE02DA15A43E2BB1E60D2 PUSH5 0x736F6C6343 STOP ADDMOD SHR STOP CALLER "},"methodIdentifiers":{"claimPrize(uint256,uint256)":"7b154140","claimRefunds(uint256,uint256)":"fd0c7dfb","createMatch(uint256,uint256,uint256,(address,bool,string),(address,bool,string))":"30e6aaf2","createNextRound(uint256,uint256[])":"32bdb9e2","createRound(uint256,uint256[])":"04808088","createTournament(string,uint256,uint256,uint256,string)":"ffdde68c","getMatch(uint256,uint256,uint256)":"2c542b88","getMatchKey(uint256,uint256,uint256)":"1bd9103b","getMatchWithKey(bytes32)":"679224b4","getPlayer(uint256,uint256,uint256)":"4c7be95f","getPlayerKey(uint256,uint256,uint256)":"f4716df2","getTournament(uint256)":"1a5bd7fc","getTournamentLength()":"c1deef52","getTournaments()":"f7f20cb3","joinTournament(uint256,string)":"22654955","owner()":"8da5cb5b","renounceOwnership()":"715018a6","setTournamentStatus(uint8,uint256)":"bf14c887","startTournament(uint256,uint256[])":"9d5d40fb","submitMatchScore(uint256,uint256,uint256,uint256,uint256)":"89870d5a","token()":"fc0c546a","tournaments(uint256)":"7503e1b7","transferOwnership(address)":"f2fde38b"}}}}}