{"project/contracts/TRIZcoin.sol":{"TRIZcoin":{"abi":[{"inputs":[],"stateMutability":"nonpayable","type":"constructor"},{"inputs":[{"internalType":"address","name":"spender","type":"address"},{"internalType":"uint256","name":"allowance","type":"uint256"},{"internalType":"uint256","name":"needed","type":"uint256"}],"name":"ERC20InsufficientAllowance","type":"error"},{"inputs":[{"internalType":"address","name":"sender","type":"address"},{"internalType":"uint256","name":"balance","type":"uint256"},{"internalType":"uint256","name":"needed","type":"uint256"}],"name":"ERC20InsufficientBalance","type":"error"},{"inputs":[{"internalType":"address","name":"approver","type":"address"}],"name":"ERC20InvalidApprover","type":"error"},{"inputs":[{"internalType":"address","name":"receiver","type":"address"}],"name":"ERC20InvalidReceiver","type":"error"},{"inputs":[{"internalType":"address","name":"sender","type":"address"}],"name":"ERC20InvalidSender","type":"error"},{"inputs":[{"internalType":"address","name":"spender","type":"address"}],"name":"ERC20InvalidSpender","type":"error"},{"inputs":[{"internalType":"address","name":"owner","type":"address"}],"name":"OwnableInvalidOwner","type":"error"},{"inputs":[{"internalType":"address","name":"account","type":"address"}],"name":"OwnableUnauthorizedAccount","type":"error"},{"anonymous":false,"inputs":[{"indexed":true,"internalType":"address","name":"owner","type":"address"},{"indexed":true,"internalType":"address","name":"spender","type":"address"},{"indexed":false,"internalType":"uint256","name":"value","type":"uint256"}],"name":"Approval","type":"event"},{"anonymous":false,"inputs":[{"indexed":true,"internalType":"address","name":"previousOwner","type":"address"},{"indexed":true,"internalType":"address","name":"newOwner","type":"address"}],"name":"OwnershipTransferred","type":"event"},{"anonymous":false,"inputs":[{"indexed":true,"internalType":"address","name":"from","type":"address"},{"indexed":true,"internalType":"address","name":"to","type":"address"},{"indexed":false,"internalType":"uint256","name":"value","type":"uint256"}],"name":"Transfer","type":"event"},{"inputs":[{"internalType":"address","name":"owner","type":"address"},{"internalType":"address","name":"spender","type":"address"}],"name":"allowance","outputs":[{"internalType":"uint256","name":"","type":"uint256"}],"stateMutability":"view","type":"function"},{"inputs":[{"internalType":"address","name":"spender","type":"address"},{"internalType":"uint256","name":"value","type":"uint256"}],"name":"approve","outputs":[{"internalType":"bool","name":"","type":"bool"}],"stateMutability":"nonpayable","type":"function"},{"inputs":[{"internalType":"address","name":"account","type":"address"}],"name":"balanceOf","outputs":[{"internalType":"uint256","name":"","type":"uint256"}],"stateMutability":"view","type":"function"},{"inputs":[],"name":"decimals","outputs":[{"internalType":"uint8","name":"","type":"uint8"}],"stateMutability":"view","type":"function"},{"inputs":[],"name":"name","outputs":[{"internalType":"string","name":"","type":"string"}],"stateMutability":"view","type":"function"},{"inputs":[],"name":"owner","outputs":[{"internalType":"address","name":"","type":"address"}],"stateMutability":"view","type":"function"},{"inputs":[],"name":"renounceOwnership","outputs":[],"stateMutability":"nonpayable","type":"function"},{"inputs":[],"name":"symbol","outputs":[{"internalType":"string","name":"","type":"string"}],"stateMutability":"view","type":"function"},{"inputs":[],"name":"totalSupply","outputs":[{"internalType":"uint256","name":"","type":"uint256"}],"stateMutability":"view","type":"function"},{"inputs":[{"internalType":"address","name":"to","type":"address"},{"internalType":"uint256","name":"value","type":"uint256"}],"name":"transfer","outputs":[{"internalType":"bool","name":"","type":"bool"}],"stateMutability":"nonpayable","type":"function"},{"inputs":[{"internalType":"address","name":"from","type":"address"},{"internalType":"address","name":"to","type":"address"},{"internalType":"uint256","name":"value","type":"uint256"}],"name":"transferFrom","outputs":[{"internalType":"bool","name":"","type":"bool"}],"stateMutability":"nonpayable","type":"function"},{"inputs":[{"internalType":"address","name":"newOwner","type":"address"}],"name":"transferOwnership","outputs":[],"stateMutability":"nonpayable","type":"function"}],"evm":{"bytecode":{"linkReferences":{},"object":"608060405234610027576100116101ee565b61001961002c565b610f8d61097c8239610f8d90f35b610032565b60405190565b5f80fd5b601f801991011690565b634e487b7160e01b5f52604160045260245ffd5b9061005e90610036565b810190811060018060401b0382111761007657604052565b610040565b9061008e61008761002c565b9283610054565b565b60018060401b0381116100ac576100a8602091610036565b0190565b610040565b906100c36100be83610090565b61007b565b918252565b5f7f5452495a636f696e000000000000000000000000000000000000000000000000910152565b6100f960086100b1565b90610106602083016100c8565b565b6101106100ef565b90565b5f7f5452495a00000000000000000000000000000000000000000000000000000000910152565b61014460046100b1565b9061015160208301610113565b565b61015b61013a565b90565b90565b90565b60ff1690565b634e487b7160e01b5f52601160045260245ffd5b61018790610164565b604d811161019557600a0a90565b61016a565b90565b6101b16101ac6101b69261019a565b610161565b61015e565b90565b6101c86101ce9193929361015e565b9261015e565b916101da83820261015e565b9281840414901517156101e957565b61016a565b610208336101fa610108565b610202610153565b9161029d565b61023733610231620f424061022c610226610221610585565b61017e565b9161019d565b6101b9565b9061059b565b565b90565b60018060a01b031690565b61025b61025661026092610239565b610161565b61023c565b90565b61026c90610247565b90565b6102789061023c565b90565b6102849061026f565b9052565b919061029b905f6020850194019061027b565b565b916102a79161054a565b806102c26102bc6102b75f610263565b61026f565b9161026f565b146102d2576102d0906106a6565b565b6102f56102de5f610263565b5f918291631e4fbdf760e01b835260048301610288565b0390fd5b5190565b634e487b7160e01b5f52602260045260245ffd5b9060016002830492168015610331575b602083101461032c57565b6102fd565b91607f1691610321565b5f5260205f2090565b601f602091010490565b1b90565b9190600861036d9102916103675f198461034e565b9261034e565b9181191691161790565b61038b6103866103909261015e565b610161565b61015e565b90565b90565b91906103ac6103a76103b493610377565b610393565b908354610352565b9055565b5f90565b6103ce916103c86103b8565b91610396565b565b5b8181106103dc575050565b806103e95f6001936103bc565b016103d1565b9190601f81116103ff575b505050565b61040b6104309361033b565b90602061041784610344565b83019310610438575b61042990610344565b01906103d0565b5f80806103fa565b915061042981929050610420565b1c90565b9061045a905f1990600802610446565b191690565b816104699161044a565b906002021790565b9061047b816102f9565b9060018060401b0382116105395761049d826104978554610311565b856103ef565b602090601f83116001146104d1579180916104c0935f926104c5575b505061045f565b90555b565b90915001515f806104b9565b601f198316916104e08561033b565b925f5b81811061052157509160029391856001969410610507575b505050020190556104c3565b610517910151601f84169061044a565b90555f80806104fb565b919360206001819287870151815501950192016104e3565b610040565b9061054891610471565b565b9061055961056092600361053e565b600461053e565b565b5f90565b90565b61057d61057861058292610566565b610161565b610164565b90565b61058d610562565b506105986012610569565b90565b806105b66105b06105ab5f610263565b61026f565b9161026f565b146105d2576105d0916105c85f610263565b91909161080c565b565b6105f56105de5f610263565b5f91829163ec442f0560e01b835260048301610288565b0390fd5b5f1c90565b60018060a01b031690565b61061561061a916105f9565b6105fe565b90565b6106279054610609565b90565b5f1b90565b9061064060018060a01b039161062a565b9181191691161790565b61065e6106596106639261023c565b610161565b61023c565b90565b61066f9061064a565b90565b61067b90610666565b90565b90565b9061069661069161069d92610672565b61067e565b825461062f565b9055565b5f0190565b6106b0600561061d565b6106bb826005610681565b906106ef6106e97f8be0079c531659141344cd1fd0a4f28419497f9722a3daafe3b4186f6b6457e093610672565b91610672565b916106f861002c565b80610702816106a1565b0390a3565b9061071190610672565b5f5260205260405f2090565b90565b61072c610731916105f9565b61071d565b90565b61073e9054610720565b90565b61074a9061015e565b9052565b60409061077761077e949695939661076d60608401985f85019061027b565b6020830190610741565b0190610741565b565b9061078b910361015e565b90565b9061079a5f199161062a565b9181191691161790565b906107b96107b46107c092610377565b610393565b825461078e565b9055565b6107d36107d99193929361015e565b9261015e565b82018092116107e457565b61016a565b906107f4910161015e565b90565b919061080a905f60208501940190610741565b565b9190918061082a61082461081f5f610263565b61026f565b9161026f565b145f1461090b5761084e610847836108426002610734565b6107c4565b60026107a4565b5b8261086a61086461085f5f610263565b61026f565b9161026f565b145f146108df5761088e610887836108826002610734565b610780565b60026107a4565b5b9190916108da6108c86108c27fddf252ad1be2c89b69c2b068fc378daa952ba7f163c4a11628f55a4df523b3ef93610672565b93610672565b936108d161002c565b918291826107f7565b0390a3565b610906826109006108f15f8790610707565b916108fb83610734565b6107e9565b906107a4565b61088f565b61091e6109195f8390610707565b610734565b8061093161092b8561015e565b9161015e565b1061095957610944610954918490610780565b61094f5f8490610707565b6107a4565b61084f565b906109779091925f93849363391434e360e21b85526004850161074e565b0390fdfe60806040526004361015610013575b610590565b61001d5f356100dc565b806306fdde03146100d7578063095ea7b3146100d257806318160ddd146100cd57806323b872dd146100c8578063313ce567146100c357806370a08231146100be578063715018a6146100b95780638da5cb5b146100b457806395d89b41146100af578063a9059cbb146100aa578063dd62ed3e146100a55763f2fde38b0361000e5761055d565b610527565b6104c4565b61048f565b61045a565b610405565b6103cb565b610378565b61031a565b6102ab565b610253565b61016a565b60e01c90565b60405190565b5f80fd5b5f80fd5b5f9103126100fa57565b6100ec565b5190565b60209181520190565b90825f9392825e0152565b601f801991011690565b61014061014960209361014e93610137816100ff565b93848093610103565b9586910161010c565b610117565b0190565b6101679160208201915f818403910152610121565b90565b3461019a5761017a3660046100f0565b6101966101856106ed565b61018d6100e2565b91829182610152565b0390f35b6100e8565b60018060a01b031690565b6101b39061019f565b90565b6101bf816101aa565b036101c657565b5f80fd5b905035906101d7826101b6565b565b90565b6101e5816101d9565b036101ec57565b5f80fd5b905035906101fd826101dc565b565b9190604083820312610227578061021b610224925f86016101ca565b936020016101f0565b90565b6100ec565b151590565b61023a9061022c565b9052565b9190610251905f60208501940190610231565b565b346102845761028061026f6102693660046101ff565b90610707565b6102776100e2565b9182918261023e565b0390f35b6100e8565b610292906101d9565b9052565b91906102a9905f60208501940190610289565b565b346102db576102bb3660046100f0565b6102d76102c6610756565b6102ce6100e2565b91829182610296565b0390f35b6100e8565b9091606082840312610315576103126102fb845f85016101ca565b9361030981602086016101ca565b936040016101f0565b90565b6100ec565b3461034b576103476103366103303660046102e0565b9161076c565b61033e6100e2565b9182918261023e565b0390f35b6100e8565b60ff1690565b61035f90610350565b9052565b9190610376905f60208501940190610356565b565b346103a8576103883660046100f0565b6103a46103936107c1565b61039b6100e2565b91829182610363565b0390f35b6100e8565b906020828203126103c6576103c3915f016101ca565b90565b6100ec565b346103fb576103f76103e66103e13660046103ad565b610821565b6103ee6100e2565b91829182610296565b0390f35b6100e8565b5f0190565b34610433576104153660046100f0565b61041d61088f565b6104256100e2565b8061042f81610400565b0390f35b6100e8565b610441906101aa565b9052565b9190610458905f60208501940190610438565b565b3461048a5761046a3660046100f0565b6104866104756108c9565b61047d6100e2565b91829182610445565b0390f35b6100e8565b346104bf5761049f3660046100f0565b6104bb6104aa6108df565b6104b26100e2565b91829182610152565b0390f35b6100e8565b346104f5576104f16104e06104da3660046101ff565b906108f5565b6104e86100e2565b9182918261023e565b0390f35b6100e8565b9190604083820312610522578061051661051f925f86016101ca565b936020016101ca565b90565b6100ec565b346105585761055461054361053d3660046104fa565b9061092d565b61054b6100e2565b91829182610296565b0390f35b6100e8565b3461058b576105756105703660046103ad565b6109ba565b61057d6100e2565b8061058781610400565b0390f35b6100e8565b5f80fd5b606090565b634e487b7160e01b5f52602260045260245ffd5b90600160028304921680156105cd575b60208310146105c857565b610599565b91607f16916105bd565b60209181520190565b5f5260205f2090565b905f92918054906106036105fc836105ad565b80946105d7565b916001811690815f1461065a575060011461061e575b505050565b61062b91929394506105e0565b915f925b81841061064257505001905f8080610619565b6001816020929593955484860152019101929061062f565b92949550505060ff19168252151560200201905f8080610619565b9061067f916105e9565b90565b634e487b7160e01b5f52604160045260245ffd5b906106a090610117565b810190811067ffffffffffffffff8211176106ba57604052565b610682565b906106df6106d8926106cf6100e2565b93848092610675565b0383610696565b565b6106ea906106bf565b90565b6106f5610594565b5061070060036106e1565b90565b5f90565b61072491610713610703565b5061071c6109c5565b9190916109d2565b600190565b5f90565b5f1c90565b90565b6107416107469161072d565b610732565b90565b6107539054610735565b90565b61075e610729565b506107696002610749565b90565b9161079692610779610703565b5061078e6107856109c5565b82908491610a22565b919091610aae565b600190565b5f90565b90565b90565b6107b96107b46107be9261079f565b6107a2565b610350565b90565b6107c961079b565b506107d460126107a5565b90565b6107eb6107e66107f09261019f565b6107a2565b61019f565b90565b6107fc906107d7565b90565b610808906107f3565b90565b90610815906107ff565b5f5260205260405f2090565b61083761083c91610830610729565b505f61080b565b610749565b90565b610847610b4b565b61084f61087c565b565b90565b61086861086361086d92610851565b6107a2565b61019f565b90565b61087990610854565b90565b61088d6108885f610870565b610bdc565b565b61089761083f565b565b5f90565b60018060a01b031690565b6108b46108b99161072d565b61089d565b90565b6108c690546108a8565b90565b6108d1610899565b506108dc60056108bc565b90565b6108e7610594565b506108f260046106e1565b90565b61091291610901610703565b5061090a6109c5565b919091610aae565b600190565b90610921906107ff565b5f5260205260405f2090565b6109529161094861094d92610940610729565b506001610917565b61080b565b610749565b90565b61096690610961610b4b565b610968565b565b8061098361097d6109785f610870565b6101aa565b916101aa565b146109935761099190610bdc565b565b6109b661099f5f610870565b5f918291631e4fbdf760e01b835260048301610445565b0390fd5b6109c390610955565b565b6109cd610899565b503390565b916109e09291600192610c92565b565b604090610a0b610a129496959396610a0160608401985f850190610438565b6020830190610289565b0190610289565b565b90610a1f91036101d9565b90565b929192610a3081839061092d565b9081610a45610a3f5f196101d9565b916101d9565b10610a52575b5050509050565b81610a65610a5f876101d9565b916101d9565b10610a8b57610a829394610a7a919392610a14565b905f92610c92565b805f8080610a4b565b50610aaa849291925f938493637dc7a0d960e11b8552600485016109e2565b0390fd5b9182610aca610ac4610abf5f610870565b6101aa565b916101aa565b14610b245781610aea610ae4610adf5f610870565b6101aa565b916101aa565b14610afd57610afb92919091610de8565b565b610b20610b095f610870565b5f91829163ec442f0560e01b835260048301610445565b0390fd5b610b47610b305f610870565b5f918291634b637e8f60e11b835260048301610445565b0390fd5b610b536108c9565b610b6c610b66610b616109c5565b6101aa565b916101aa565b03610b7357565b610b95610b7e6109c5565b5f91829163118cdaa760e01b835260048301610445565b0390fd5b5f1b90565b90610baf60018060a01b0391610b99565b9181191691161790565b90565b90610bd1610bcc610bd8926107ff565b610bb9565b8254610b9e565b9055565b610be660056108bc565b610bf1826005610bbc565b90610c25610c1f7f8be0079c531659141344cd1fd0a4f28419497f9722a3daafe3b4186f6b6457e0936107ff565b916107ff565b91610c2e6100e2565b80610c3881610400565b0390a3565b90610c495f1991610b99565b9181191691161790565b610c67610c62610c6c926101d9565b6107a2565b6101d9565b90565b90565b90610c87610c82610c8e92610c53565b610c6f565b8254610c3d565b9055565b909281610caf610ca9610ca45f610870565b6101aa565b916101aa565b14610d7a5783610ccf610cc9610cc45f610870565b6101aa565b916101aa565b14610d5357610cf383610cee610ce760018690610917565b879061080b565b610c72565b610cfd575b505050565b919091610d48610d36610d307f8c5be1e5ebec7d5bd14f71427d1e84f3dd0314c0f7b2291e5b200ac8c7c3b925936107ff565b936107ff565b93610d3f6100e2565b91829182610296565b0390a35f8080610cf8565b610d76610d5f5f610870565b5f918291634a1406b160e11b835260048301610445565b0390fd5b610d9d610d865f610870565b5f91829163e602df0560e01b835260048301610445565b0390fd5b634e487b7160e01b5f52601160045260245ffd5b610dc4610dca919392936101d9565b926101d9565b8201809211610dd557565b610da1565b90610de591016101d9565b90565b91909180610e06610e00610dfb5f610870565b6101aa565b916101aa565b145f14610ee757610e2a610e2383610e1e6002610749565b610db5565b6002610c72565b5b82610e46610e40610e3b5f610870565b6101aa565b916101aa565b145f14610ebb57610e6a610e6383610e5e6002610749565b610a14565b6002610c72565b5b919091610eb6610ea4610e9e7fddf252ad1be2c89b69c2b068fc378daa952ba7f163c4a11628f55a4df523b3ef936107ff565b936107ff565b93610ead6100e2565b91829182610296565b0390a3565b610ee282610edc610ecd5f879061080b565b91610ed783610749565b610dda565b90610c72565b610e6b565b610efa610ef55f839061080b565b610749565b80610f0d610f07856101d9565b916101d9565b10610f3557610f20610f30918490610a14565b610f2b5f849061080b565b610c72565b610e2b565b90610f539091925f93849363391434e360e21b8552600485016109e2565b0390fdfea26469706673582212209dd8ae8b7b57fa7d945ad385b2e58249eada4435aababeebcefc2ae76c3eb9c764736f6c634300081c0033","opcodes":"PUSH1 0x80 PUSH1 0x40 MSTORE CALLVALUE PUSH2 0x27 JUMPI PUSH2 0x11 PUSH2 0x1EE JUMP JUMPDEST PUSH2 0x19 PUSH2 0x2C JUMP JUMPDEST PUSH2 0xF8D PUSH2 0x97C DUP3 CODECOPY PUSH2 0xF8D SWAP1 RETURN JUMPDEST PUSH2 0x32 JUMP JUMPDEST PUSH1 0x40 MLOAD SWAP1 JUMP JUMPDEST PUSH0 DUP1 REVERT JUMPDEST PUSH1 0x1F DUP1 NOT SWAP2 ADD AND SWAP1 JUMP JUMPDEST PUSH4 0x4E487B71 PUSH1 0xE0 SHL PUSH0 MSTORE PUSH1 0x41 PUSH1 0x4 MSTORE PUSH1 0x24 PUSH0 REVERT JUMPDEST SWAP1 PUSH2 0x5E SWAP1 PUSH2 0x36 JUMP JUMPDEST DUP2 ADD SWAP1 DUP2 LT PUSH1 0x1 DUP1 PUSH1 0x40 SHL SUB DUP3 GT OR PUSH2 0x76 JUMPI PUSH1 0x40 MSTORE JUMP JUMPDEST PUSH2 0x40 JUMP JUMPDEST SWAP1 PUSH2 0x8E PUSH2 0x87 PUSH2 0x2C JUMP JUMPDEST SWAP3 DUP4 PUSH2 0x54 JUMP JUMPDEST JUMP JUMPDEST PUSH1 0x1 DUP1 PUSH1 0x40 SHL SUB DUP2 GT PUSH2 0xAC JUMPI PUSH2 0xA8 PUSH1 0x20 SWAP2 PUSH2 0x36 JUMP JUMPDEST ADD SWAP1 JUMP JUMPDEST PUSH2 0x40 JUMP JUMPDEST SWAP1 PUSH2 0xC3 PUSH2 0xBE DUP4 PUSH2 0x90 JUMP JUMPDEST PUSH2 0x7B JUMP JUMPDEST SWAP2 DUP3 MSTORE JUMP JUMPDEST PUSH0 PUSH32 0x5452495A636F696E000000000000000000000000000000000000000000000000 SWAP2 ADD MSTORE JUMP JUMPDEST PUSH2 0xF9 PUSH1 0x8 PUSH2 0xB1 JUMP JUMPDEST SWAP1 PUSH2 0x106 PUSH1 0x20 DUP4 ADD PUSH2 0xC8 JUMP JUMPDEST JUMP JUMPDEST PUSH2 0x110 PUSH2 0xEF JUMP JUMPDEST SWAP1 JUMP JUMPDEST PUSH0 PUSH32 0x5452495A00000000000000000000000000000000000000000000000000000000 SWAP2 ADD MSTORE JUMP JUMPDEST PUSH2 0x144 PUSH1 0x4 PUSH2 0xB1 JUMP JUMPDEST SWAP1 PUSH2 0x151 PUSH1 0x20 DUP4 ADD PUSH2 0x113 JUMP JUMPDEST JUMP JUMPDEST PUSH2 0x15B PUSH2 0x13A JUMP JUMPDEST SWAP1 JUMP JUMPDEST SWAP1 JUMP JUMPDEST SWAP1 JUMP JUMPDEST PUSH1 0xFF AND SWAP1 JUMP JUMPDEST PUSH4 0x4E487B71 PUSH1 0xE0 SHL PUSH0 MSTORE PUSH1 0x11 PUSH1 0x4 MSTORE PUSH1 0x24 PUSH0 REVERT JUMPDEST PUSH2 0x187 SWAP1 PUSH2 0x164 JUMP JUMPDEST PUSH1 0x4D DUP2 GT PUSH2 0x195 JUMPI PUSH1 0xA EXP SWAP1 JUMP JUMPDEST PUSH2 0x16A JUMP JUMPDEST SWAP1 JUMP JUMPDEST PUSH2 0x1B1 PUSH2 0x1AC PUSH2 0x1B6 SWAP3 PUSH2 0x19A JUMP JUMPDEST PUSH2 0x161 JUMP JUMPDEST PUSH2 0x15E JUMP JUMPDEST SWAP1 JUMP JUMPDEST PUSH2 0x1C8 PUSH2 0x1CE SWAP2 SWAP4 SWAP3 SWAP4 PUSH2 0x15E JUMP JUMPDEST SWAP3 PUSH2 0x15E JUMP JUMPDEST SWAP2 PUSH2 0x1DA DUP4 DUP3 MUL PUSH2 0x15E JUMP JUMPDEST SWAP3 DUP2 DUP5 DIV EQ SWAP1 ISZERO OR ISZERO PUSH2 0x1E9 JUMPI JUMP JUMPDEST PUSH2 0x16A JUMP JUMPDEST PUSH2 0x208 CALLER PUSH2 0x1FA PUSH2 0x108 JUMP JUMPDEST PUSH2 0x202 PUSH2 0x153 JUMP JUMPDEST SWAP2 PUSH2 0x29D JUMP JUMPDEST PUSH2 0x237 CALLER PUSH2 0x231 PUSH3 0xF4240 PUSH2 0x22C PUSH2 0x226 PUSH2 0x221 PUSH2 0x585 JUMP JUMPDEST PUSH2 0x17E JUMP JUMPDEST SWAP2 PUSH2 0x19D JUMP JUMPDEST PUSH2 0x1B9 JUMP JUMPDEST SWAP1 PUSH2 0x59B JUMP JUMPDEST JUMP JUMPDEST SWAP1 JUMP JUMPDEST PUSH1 0x1 DUP1 PUSH1 0xA0 SHL SUB AND SWAP1 JUMP JUMPDEST PUSH2 0x25B PUSH2 0x256 PUSH2 0x260 SWAP3 PUSH2 0x239 JUMP JUMPDEST PUSH2 0x161 JUMP JUMPDEST PUSH2 0x23C JUMP JUMPDEST SWAP1 JUMP JUMPDEST PUSH2 0x26C SWAP1 PUSH2 0x247 JUMP JUMPDEST SWAP1 JUMP JUMPDEST PUSH2 0x278 SWAP1 PUSH2 0x23C JUMP JUMPDEST SWAP1 JUMP JUMPDEST PUSH2 0x284 SWAP1 PUSH2 0x26F JUMP JUMPDEST SWAP1 MSTORE JUMP JUMPDEST SWAP2 SWAP1 PUSH2 0x29B SWAP1 PUSH0 PUSH1 0x20 DUP6 ADD SWAP5 ADD SWAP1 PUSH2 0x27B JUMP JUMPDEST JUMP JUMPDEST SWAP2 PUSH2 0x2A7 SWAP2 PUSH2 0x54A JUMP JUMPDEST DUP1 PUSH2 0x2C2 PUSH2 0x2BC PUSH2 0x2B7 PUSH0 PUSH2 0x263 JUMP JUMPDEST PUSH2 0x26F JUMP JUMPDEST SWAP2 PUSH2 0x26F JUMP JUMPDEST EQ PUSH2 0x2D2 JUMPI PUSH2 0x2D0 SWAP1 PUSH2 0x6A6 JUMP JUMPDEST JUMP JUMPDEST PUSH2 0x2F5 PUSH2 0x2DE PUSH0 PUSH2 0x263 JUMP JUMPDEST PUSH0 SWAP2 DUP3 SWAP2 PUSH4 0x1E4FBDF7 PUSH1 0xE0 SHL DUP4 MSTORE PUSH1 0x4 DUP4 ADD PUSH2 0x288 JUMP JUMPDEST SUB SWAP1 REVERT JUMPDEST MLOAD SWAP1 JUMP JUMPDEST PUSH4 0x4E487B71 PUSH1 0xE0 SHL PUSH0 MSTORE PUSH1 0x22 PUSH1 0x4 MSTORE PUSH1 0x24 PUSH0 REVERT JUMPDEST SWAP1 PUSH1 0x1 PUSH1 0x2 DUP4 DIV SWAP3 AND DUP1 ISZERO PUSH2 0x331 JUMPI JUMPDEST PUSH1 0x20 DUP4 LT EQ PUSH2 0x32C JUMPI JUMP JUMPDEST PUSH2 0x2FD JUMP JUMPDEST SWAP2 PUSH1 0x7F AND SWAP2 PUSH2 0x321 JUMP JUMPDEST PUSH0 MSTORE PUSH1 0x20 PUSH0 KECCAK256 SWAP1 JUMP JUMPDEST PUSH1 0x1F PUSH1 0x20 SWAP2 ADD DIV SWAP1 JUMP JUMPDEST SHL SWAP1 JUMP JUMPDEST SWAP2 SWAP1 PUSH1 0x8 PUSH2 0x36D SWAP2 MUL SWAP2 PUSH2 0x367 PUSH0 NOT DUP5 PUSH2 0x34E JUMP JUMPDEST SWAP3 PUSH2 0x34E JUMP JUMPDEST SWAP2 DUP2 NOT AND SWAP2 AND OR SWAP1 JUMP JUMPDEST PUSH2 0x38B PUSH2 0x386 PUSH2 0x390 SWAP3 PUSH2 0x15E JUMP JUMPDEST PUSH2 0x161 JUMP JUMPDEST PUSH2 0x15E JUMP JUMPDEST SWAP1 JUMP JUMPDEST SWAP1 JUMP JUMPDEST SWAP2 SWAP1 PUSH2 0x3AC PUSH2 0x3A7 PUSH2 0x3B4 SWAP4 PUSH2 0x377 JUMP JUMPDEST PUSH2 0x393 JUMP JUMPDEST SWAP1 DUP4 SLOAD PUSH2 0x352 JUMP JUMPDEST SWAP1 SSTORE JUMP JUMPDEST PUSH0 SWAP1 JUMP JUMPDEST PUSH2 0x3CE SWAP2 PUSH2 0x3C8 PUSH2 0x3B8 JUMP JUMPDEST SWAP2 PUSH2 0x396 JUMP JUMPDEST JUMP JUMPDEST JUMPDEST DUP2 DUP2 LT PUSH2 0x3DC JUMPI POP POP JUMP JUMPDEST DUP1 PUSH2 0x3E9 PUSH0 PUSH1 0x1 SWAP4 PUSH2 0x3BC JUMP JUMPDEST ADD PUSH2 0x3D1 JUMP JUMPDEST SWAP2 SWAP1 PUSH1 0x1F DUP2 GT PUSH2 0x3FF JUMPI JUMPDEST POP POP POP JUMP JUMPDEST PUSH2 0x40B PUSH2 0x430 SWAP4 PUSH2 0x33B JUMP JUMPDEST SWAP1 PUSH1 0x20 PUSH2 0x417 DUP5 PUSH2 0x344 JUMP JUMPDEST DUP4 ADD SWAP4 LT PUSH2 0x438 JUMPI JUMPDEST PUSH2 0x429 SWAP1 PUSH2 0x344 JUMP JUMPDEST ADD SWAP1 PUSH2 0x3D0 JUMP JUMPDEST PUSH0 DUP1 DUP1 PUSH2 0x3FA JUMP JUMPDEST SWAP2 POP PUSH2 0x429 DUP2 SWAP3 SWAP1 POP PUSH2 0x420 JUMP JUMPDEST SHR SWAP1 JUMP JUMPDEST SWAP1 PUSH2 0x45A SWAP1 PUSH0 NOT SWAP1 PUSH1 0x8 MUL PUSH2 0x446 JUMP JUMPDEST NOT AND SWAP1 JUMP JUMPDEST DUP2 PUSH2 0x469 SWAP2 PUSH2 0x44A JUMP JUMPDEST SWAP1 PUSH1 0x2 MUL OR SWAP1 JUMP JUMPDEST SWAP1 PUSH2 0x47B DUP2 PUSH2 0x2F9 JUMP JUMPDEST SWAP1 PUSH1 0x1 DUP1 PUSH1 0x40 SHL SUB DUP3 GT PUSH2 0x539 JUMPI PUSH2 0x49D DUP3 PUSH2 0x497 DUP6 SLOAD PUSH2 0x311 JUMP JUMPDEST DUP6 PUSH2 0x3EF JUMP JUMPDEST PUSH1 0x20 SWAP1 PUSH1 0x1F DUP4 GT PUSH1 0x1 EQ PUSH2 0x4D1 JUMPI SWAP2 DUP1 SWAP2 PUSH2 0x4C0 SWAP4 PUSH0 SWAP3 PUSH2 0x4C5 JUMPI JUMPDEST POP POP PUSH2 0x45F JUMP JUMPDEST SWAP1 SSTORE JUMPDEST JUMP JUMPDEST SWAP1 SWAP2 POP ADD MLOAD PUSH0 DUP1 PUSH2 0x4B9 JUMP JUMPDEST PUSH1 0x1F NOT DUP4 AND SWAP2 PUSH2 0x4E0 DUP6 PUSH2 0x33B JUMP JUMPDEST SWAP3 PUSH0 JUMPDEST DUP2 DUP2 LT PUSH2 0x521 JUMPI POP SWAP2 PUSH1 0x2 SWAP4 SWAP2 DUP6 PUSH1 0x1 SWAP7 SWAP5 LT PUSH2 0x507 JUMPI JUMPDEST POP POP POP MUL ADD SWAP1 SSTORE PUSH2 0x4C3 JUMP JUMPDEST PUSH2 0x517 SWAP2 ADD MLOAD PUSH1 0x1F DUP5 AND SWAP1 PUSH2 0x44A JUMP JUMPDEST SWAP1 SSTORE PUSH0 DUP1 DUP1 PUSH2 0x4FB JUMP JUMPDEST SWAP2 SWAP4 PUSH1 0x20 PUSH1 0x1 DUP2 SWAP3 DUP8 DUP8 ADD MLOAD DUP2 SSTORE ADD SWAP6 ADD SWAP3 ADD PUSH2 0x4E3 JUMP JUMPDEST PUSH2 0x40 JUMP JUMPDEST SWAP1 PUSH2 0x548 SWAP2 PUSH2 0x471 JUMP JUMPDEST JUMP JUMPDEST SWAP1 PUSH2 0x559 PUSH2 0x560 SWAP3 PUSH1 0x3 PUSH2 0x53E JUMP JUMPDEST PUSH1 0x4 PUSH2 0x53E JUMP JUMPDEST JUMP JUMPDEST PUSH0 SWAP1 JUMP JUMPDEST SWAP1 JUMP JUMPDEST PUSH2 0x57D PUSH2 0x578 PUSH2 0x582 SWAP3 PUSH2 0x566 JUMP JUMPDEST PUSH2 0x161 JUMP JUMPDEST PUSH2 0x164 JUMP JUMPDEST SWAP1 JUMP JUMPDEST PUSH2 0x58D PUSH2 0x562 JUMP JUMPDEST POP PUSH2 0x598 PUSH1 0x12 PUSH2 0x569 JUMP JUMPDEST SWAP1 JUMP JUMPDEST DUP1 PUSH2 0x5B6 PUSH2 0x5B0 PUSH2 0x5AB PUSH0 PUSH2 0x263 JUMP JUMPDEST PUSH2 0x26F JUMP JUMPDEST SWAP2 PUSH2 0x26F JUMP JUMPDEST EQ PUSH2 0x5D2 JUMPI PUSH2 0x5D0 SWAP2 PUSH2 0x5C8 PUSH0 PUSH2 0x263 JUMP JUMPDEST SWAP2 SWAP1 SWAP2 PUSH2 0x80C JUMP JUMPDEST JUMP JUMPDEST PUSH2 0x5F5 PUSH2 0x5DE PUSH0 PUSH2 0x263 JUMP JUMPDEST PUSH0 SWAP2 DUP3 SWAP2 PUSH4 0xEC442F05 PUSH1 0xE0 SHL DUP4 MSTORE PUSH1 0x4 DUP4 ADD PUSH2 0x288 JUMP JUMPDEST SUB SWAP1 REVERT JUMPDEST PUSH0 SHR SWAP1 JUMP JUMPDEST PUSH1 0x1 DUP1 PUSH1 0xA0 SHL SUB AND SWAP1 JUMP JUMPDEST PUSH2 0x615 PUSH2 0x61A SWAP2 PUSH2 0x5F9 JUMP JUMPDEST PUSH2 0x5FE JUMP JUMPDEST SWAP1 JUMP JUMPDEST PUSH2 0x627 SWAP1 SLOAD PUSH2 0x609 JUMP JUMPDEST SWAP1 JUMP JUMPDEST PUSH0 SHL SWAP1 JUMP JUMPDEST SWAP1 PUSH2 0x640 PUSH1 0x1 DUP1 PUSH1 0xA0 SHL SUB SWAP2 PUSH2 0x62A JUMP JUMPDEST SWAP2 DUP2 NOT AND SWAP2 AND OR SWAP1 JUMP JUMPDEST PUSH2 0x65E PUSH2 0x659 PUSH2 0x663 SWAP3 PUSH2 0x23C JUMP JUMPDEST PUSH2 0x161 JUMP JUMPDEST PUSH2 0x23C JUMP JUMPDEST SWAP1 JUMP JUMPDEST PUSH2 0x66F SWAP1 PUSH2 0x64A JUMP JUMPDEST SWAP1 JUMP JUMPDEST PUSH2 0x67B SWAP1 PUSH2 0x666 JUMP JUMPDEST SWAP1 JUMP JUMPDEST SWAP1 JUMP JUMPDEST SWAP1 PUSH2 0x696 PUSH2 0x691 PUSH2 0x69D SWAP3 PUSH2 0x672 JUMP JUMPDEST PUSH2 0x67E JUMP JUMPDEST DUP3 SLOAD PUSH2 0x62F JUMP JUMPDEST SWAP1 SSTORE JUMP JUMPDEST PUSH0 ADD SWAP1 JUMP JUMPDEST PUSH2 0x6B0 PUSH1 0x5 PUSH2 0x61D JUMP JUMPDEST PUSH2 0x6BB DUP3 PUSH1 0x5 PUSH2 0x681 JUMP JUMPDEST SWAP1 PUSH2 0x6EF PUSH2 0x6E9 PUSH32 0x8BE0079C531659141344CD1FD0A4F28419497F9722A3DAAFE3B4186F6B6457E0 SWAP4 PUSH2 0x672 JUMP JUMPDEST SWAP2 PUSH2 0x672 JUMP JUMPDEST SWAP2 PUSH2 0x6F8 PUSH2 0x2C JUMP JUMPDEST DUP1 PUSH2 0x702 DUP2 PUSH2 0x6A1 JUMP JUMPDEST SUB SWAP1 LOG3 JUMP JUMPDEST SWAP1 PUSH2 0x711 SWAP1 PUSH2 0x672 JUMP JUMPDEST PUSH0 MSTORE PUSH1 0x20 MSTORE PUSH1 0x40 PUSH0 KECCAK256 SWAP1 JUMP JUMPDEST SWAP1 JUMP JUMPDEST PUSH2 0x72C PUSH2 0x731 SWAP2 PUSH2 0x5F9 JUMP JUMPDEST PUSH2 0x71D JUMP JUMPDEST SWAP1 JUMP JUMPDEST PUSH2 0x73E SWAP1 SLOAD PUSH2 0x720 JUMP JUMPDEST SWAP1 JUMP JUMPDEST PUSH2 0x74A SWAP1 PUSH2 0x15E JUMP JUMPDEST SWAP1 MSTORE JUMP JUMPDEST PUSH1 0x40 SWAP1 PUSH2 0x777 PUSH2 0x77E SWAP5 SWAP7 SWAP6 SWAP4 SWAP7 PUSH2 0x76D PUSH1 0x60 DUP5 ADD SWAP9 PUSH0 DUP6 ADD SWAP1 PUSH2 0x27B JUMP JUMPDEST PUSH1 0x20 DUP4 ADD SWAP1 PUSH2 0x741 JUMP JUMPDEST ADD SWAP1 PUSH2 0x741 JUMP JUMPDEST JUMP JUMPDEST SWAP1 PUSH2 0x78B SWAP2 SUB PUSH2 0x15E JUMP JUMPDEST SWAP1 JUMP JUMPDEST SWAP1 PUSH2 0x79A PUSH0 NOT SWAP2 PUSH2 0x62A JUMP JUMPDEST SWAP2 DUP2 NOT AND SWAP2 AND OR SWAP1 JUMP JUMPDEST SWAP1 PUSH2 0x7B9 PUSH2 0x7B4 PUSH2 0x7C0 SWAP3 PUSH2 0x377 JUMP JUMPDEST PUSH2 0x393 JUMP JUMPDEST DUP3 SLOAD PUSH2 0x78E JUMP JUMPDEST SWAP1 SSTORE JUMP JUMPDEST PUSH2 0x7D3 PUSH2 0x7D9 SWAP2 SWAP4 SWAP3 SWAP4 PUSH2 0x15E JUMP JUMPDEST SWAP3 PUSH2 0x15E JUMP JUMPDEST DUP3 ADD DUP1 SWAP3 GT PUSH2 0x7E4 JUMPI JUMP JUMPDEST PUSH2 0x16A JUMP JUMPDEST SWAP1 PUSH2 0x7F4 SWAP2 ADD PUSH2 0x15E JUMP JUMPDEST SWAP1 JUMP JUMPDEST SWAP2 SWAP1 PUSH2 0x80A SWAP1 PUSH0 PUSH1 0x20 DUP6 ADD SWAP5 ADD SWAP1 PUSH2 0x741 JUMP JUMPDEST JUMP JUMPDEST SWAP2 SWAP1 SWAP2 DUP1 PUSH2 0x82A PUSH2 0x824 PUSH2 0x81F PUSH0 PUSH2 0x263 JUMP JUMPDEST PUSH2 0x26F JUMP JUMPDEST SWAP2 PUSH2 0x26F JUMP JUMPDEST EQ PUSH0 EQ PUSH2 0x90B JUMPI PUSH2 0x84E PUSH2 0x847 DUP4 PUSH2 0x842 PUSH1 0x2 PUSH2 0x734 JUMP JUMPDEST PUSH2 0x7C4 JUMP JUMPDEST PUSH1 0x2 PUSH2 0x7A4 JUMP JUMPDEST JUMPDEST DUP3 PUSH2 0x86A PUSH2 0x864 PUSH2 0x85F PUSH0 PUSH2 0x263 JUMP JUMPDEST PUSH2 0x26F JUMP JUMPDEST SWAP2 PUSH2 0x26F JUMP JUMPDEST EQ PUSH0 EQ PUSH2 0x8DF JUMPI PUSH2 0x88E PUSH2 0x887 DUP4 PUSH2 0x882 PUSH1 0x2 PUSH2 0x734 JUMP JUMPDEST PUSH2 0x780 JUMP JUMPDEST PUSH1 0x2 PUSH2 0x7A4 JUMP JUMPDEST JUMPDEST SWAP2 SWAP1 SWAP2 PUSH2 0x8DA PUSH2 0x8C8 PUSH2 0x8C2 PUSH32 0xDDF252AD1BE2C89B69C2B068FC378DAA952BA7F163C4A11628F55A4DF523B3EF SWAP4 PUSH2 0x672 JUMP JUMPDEST SWAP4 PUSH2 0x672 JUMP JUMPDEST SWAP4 PUSH2 0x8D1 PUSH2 0x2C JUMP JUMPDEST SWAP2 DUP3 SWAP2 DUP3 PUSH2 0x7F7 JUMP JUMPDEST SUB SWAP1 LOG3 JUMP JUMPDEST PUSH2 0x906 DUP3 PUSH2 0x900 PUSH2 0x8F1 PUSH0 DUP8 SWAP1 PUSH2 0x707 JUMP JUMPDEST SWAP2 PUSH2 0x8FB DUP4 PUSH2 0x734 JUMP JUMPDEST PUSH2 0x7E9 JUMP JUMPDEST SWAP1 PUSH2 0x7A4 JUMP JUMPDEST PUSH2 0x88F JUMP JUMPDEST PUSH2 0x91E PUSH2 0x919 PUSH0 DUP4 SWAP1 PUSH2 0x707 JUMP JUMPDEST PUSH2 0x734 JUMP JUMPDEST DUP1 PUSH2 0x931 PUSH2 0x92B DUP6 PUSH2 0x15E JUMP JUMPDEST SWAP2 PUSH2 0x15E JUMP JUMPDEST LT PUSH2 0x959 JUMPI PUSH2 0x944 PUSH2 0x954 SWAP2 DUP5 SWAP1 PUSH2 0x780 JUMP JUMPDEST PUSH2 0x94F PUSH0 DUP5 SWAP1 PUSH2 0x707 JUMP JUMPDEST PUSH2 0x7A4 JUMP JUMPDEST PUSH2 0x84F JUMP JUMPDEST SWAP1 PUSH2 0x977 SWAP1 SWAP2 SWAP3 PUSH0 SWAP4 DUP5 SWAP4 PUSH4 0x391434E3 PUSH1 0xE2 SHL DUP6 MSTORE PUSH1 0x4 DUP6 ADD PUSH2 0x74E JUMP JUMPDEST SUB SWAP1 REVERT INVALID PUSH1 0x80 PUSH1 0x40 MSTORE PUSH1 0x4 CALLDATASIZE LT ISZERO PUSH2 0x13 JUMPI JUMPDEST PUSH2 0x590 JUMP JUMPDEST PUSH2 0x1D PUSH0 CALLDATALOAD PUSH2 0xDC JUMP JUMPDEST DUP1 PUSH4 0x6FDDE03 EQ PUSH2 0xD7 JUMPI DUP1 PUSH4 0x95EA7B3 EQ PUSH2 0xD2 JUMPI DUP1 PUSH4 0x18160DDD EQ PUSH2 0xCD JUMPI DUP1 PUSH4 0x23B872DD EQ PUSH2 0xC8 JUMPI DUP1 PUSH4 0x313CE567 EQ PUSH2 0xC3 JUMPI DUP1 PUSH4 0x70A08231 EQ PUSH2 0xBE JUMPI DUP1 PUSH4 0x715018A6 EQ PUSH2 0xB9 JUMPI DUP1 PUSH4 0x8DA5CB5B EQ PUSH2 0xB4 JUMPI DUP1 PUSH4 0x95D89B41 EQ PUSH2 0xAF JUMPI DUP1 PUSH4 0xA9059CBB EQ PUSH2 0xAA JUMPI DUP1 PUSH4 0xDD62ED3E EQ PUSH2 0xA5 JUMPI PUSH4 0xF2FDE38B SUB PUSH2 0xE JUMPI PUSH2 0x55D JUMP JUMPDEST PUSH2 0x527 JUMP JUMPDEST PUSH2 0x4C4 JUMP JUMPDEST PUSH2 0x48F JUMP JUMPDEST PUSH2 0x45A JUMP JUMPDEST PUSH2 0x405 JUMP JUMPDEST PUSH2 0x3CB JUMP JUMPDEST PUSH2 0x378 JUMP JUMPDEST PUSH2 0x31A JUMP JUMPDEST PUSH2 0x2AB JUMP JUMPDEST PUSH2 0x253 JUMP JUMPDEST PUSH2 0x16A JUMP JUMPDEST PUSH1 0xE0 SHR SWAP1 JUMP JUMPDEST PUSH1 0x40 MLOAD SWAP1 JUMP JUMPDEST PUSH0 DUP1 REVERT JUMPDEST PUSH0 DUP1 REVERT JUMPDEST PUSH0 SWAP2 SUB SLT PUSH2 0xFA JUMPI JUMP JUMPDEST PUSH2 0xEC JUMP JUMPDEST MLOAD SWAP1 JUMP JUMPDEST PUSH1 0x20 SWAP2 DUP2 MSTORE ADD SWAP1 JUMP JUMPDEST SWAP1 DUP3 PUSH0 SWAP4 SWAP3 DUP3 MCOPY ADD MSTORE JUMP JUMPDEST PUSH1 0x1F DUP1 NOT SWAP2 ADD AND SWAP1 JUMP JUMPDEST PUSH2 0x140 PUSH2 0x149 PUSH1 0x20 SWAP4 PUSH2 0x14E SWAP4 PUSH2 0x137 DUP2 PUSH2 0xFF JUMP JUMPDEST SWAP4 DUP5 DUP1 SWAP4 PUSH2 0x103 JUMP JUMPDEST SWAP6 DUP7 SWAP2 ADD PUSH2 0x10C JUMP JUMPDEST PUSH2 0x117 JUMP JUMPDEST ADD SWAP1 JUMP JUMPDEST PUSH2 0x167 SWAP2 PUSH1 0x20 DUP3 ADD SWAP2 PUSH0 DUP2 DUP5 SUB SWAP2 ADD MSTORE PUSH2 0x121 JUMP JUMPDEST SWAP1 JUMP JUMPDEST CALLVALUE PUSH2 0x19A JUMPI PUSH2 0x17A CALLDATASIZE PUSH1 0x4 PUSH2 0xF0 JUMP JUMPDEST PUSH2 0x196 PUSH2 0x185 PUSH2 0x6ED JUMP JUMPDEST PUSH2 0x18D PUSH2 0xE2 JUMP JUMPDEST SWAP2 DUP3 SWAP2 DUP3 PUSH2 0x152 JUMP JUMPDEST SUB SWAP1 RETURN JUMPDEST PUSH2 0xE8 JUMP JUMPDEST PUSH1 0x1 DUP1 PUSH1 0xA0 SHL SUB AND SWAP1 JUMP JUMPDEST PUSH2 0x1B3 SWAP1 PUSH2 0x19F JUMP JUMPDEST SWAP1 JUMP JUMPDEST PUSH2 0x1BF DUP2 PUSH2 0x1AA JUMP JUMPDEST SUB PUSH2 0x1C6 JUMPI JUMP JUMPDEST PUSH0 DUP1 REVERT JUMPDEST SWAP1 POP CALLDATALOAD SWAP1 PUSH2 0x1D7 DUP3 PUSH2 0x1B6 JUMP JUMPDEST JUMP JUMPDEST SWAP1 JUMP JUMPDEST PUSH2 0x1E5 DUP2 PUSH2 0x1D9 JUMP JUMPDEST SUB PUSH2 0x1EC JUMPI JUMP JUMPDEST PUSH0 DUP1 REVERT JUMPDEST SWAP1 POP CALLDATALOAD SWAP1 PUSH2 0x1FD DUP3 PUSH2 0x1DC JUMP JUMPDEST JUMP JUMPDEST SWAP2 SWAP1 PUSH1 0x40 DUP4 DUP3 SUB SLT PUSH2 0x227 JUMPI DUP1 PUSH2 0x21B PUSH2 0x224 SWAP3 PUSH0 DUP7 ADD PUSH2 0x1CA JUMP JUMPDEST SWAP4 PUSH1 0x20 ADD PUSH2 0x1F0 JUMP JUMPDEST SWAP1 JUMP JUMPDEST PUSH2 0xEC JUMP JUMPDEST ISZERO ISZERO SWAP1 JUMP JUMPDEST PUSH2 0x23A SWAP1 PUSH2 0x22C JUMP JUMPDEST SWAP1 MSTORE JUMP JUMPDEST SWAP2 SWAP1 PUSH2 0x251 SWAP1 PUSH0 PUSH1 0x20 DUP6 ADD SWAP5 ADD SWAP1 PUSH2 0x231 JUMP JUMPDEST JUMP JUMPDEST CALLVALUE PUSH2 0x284 JUMPI PUSH2 0x280 PUSH2 0x26F PUSH2 0x269 CALLDATASIZE PUSH1 0x4 PUSH2 0x1FF JUMP JUMPDEST SWAP1 PUSH2 0x707 JUMP JUMPDEST PUSH2 0x277 PUSH2 0xE2 JUMP JUMPDEST SWAP2 DUP3 SWAP2 DUP3 PUSH2 0x23E JUMP JUMPDEST SUB SWAP1 RETURN JUMPDEST PUSH2 0xE8 JUMP JUMPDEST PUSH2 0x292 SWAP1 PUSH2 0x1D9 JUMP JUMPDEST SWAP1 MSTORE JUMP JUMPDEST SWAP2 SWAP1 PUSH2 0x2A9 SWAP1 PUSH0 PUSH1 0x20 DUP6 ADD SWAP5 ADD SWAP1 PUSH2 0x289 JUMP JUMPDEST JUMP JUMPDEST CALLVALUE PUSH2 0x2DB JUMPI PUSH2 0x2BB CALLDATASIZE PUSH1 0x4 PUSH2 0xF0 JUMP JUMPDEST PUSH2 0x2D7 PUSH2 0x2C6 PUSH2 0x756 JUMP JUMPDEST PUSH2 0x2CE PUSH2 0xE2 JUMP JUMPDEST SWAP2 DUP3 SWAP2 DUP3 PUSH2 0x296 JUMP JUMPDEST SUB SWAP1 RETURN JUMPDEST PUSH2 0xE8 JUMP JUMPDEST SWAP1 SWAP2 PUSH1 0x60 DUP3 DUP5 SUB SLT PUSH2 0x315 JUMPI PUSH2 0x312 PUSH2 0x2FB DUP5 PUSH0 DUP6 ADD PUSH2 0x1CA JUMP JUMPDEST SWAP4 PUSH2 0x309 DUP2 PUSH1 0x20 DUP7 ADD PUSH2 0x1CA JUMP JUMPDEST SWAP4 PUSH1 0x40 ADD PUSH2 0x1F0 JUMP JUMPDEST SWAP1 JUMP JUMPDEST PUSH2 0xEC JUMP JUMPDEST CALLVALUE PUSH2 0x34B JUMPI PUSH2 0x347 PUSH2 0x336 PUSH2 0x330 CALLDATASIZE PUSH1 0x4 PUSH2 0x2E0 JUMP JUMPDEST SWAP2 PUSH2 0x76C JUMP JUMPDEST PUSH2 0x33E PUSH2 0xE2 JUMP JUMPDEST SWAP2 DUP3 SWAP2 DUP3 PUSH2 0x23E JUMP JUMPDEST SUB SWAP1 RETURN JUMPDEST PUSH2 0xE8 JUMP JUMPDEST PUSH1 0xFF AND SWAP1 JUMP JUMPDEST PUSH2 0x35F SWAP1 PUSH2 0x350 JUMP JUMPDEST SWAP1 MSTORE JUMP JUMPDEST SWAP2 SWAP1 PUSH2 0x376 SWAP1 PUSH0 PUSH1 0x20 DUP6 ADD SWAP5 ADD SWAP1 PUSH2 0x356 JUMP JUMPDEST JUMP JUMPDEST CALLVALUE PUSH2 0x3A8 JUMPI PUSH2 0x388 CALLDATASIZE PUSH1 0x4 PUSH2 0xF0 JUMP JUMPDEST PUSH2 0x3A4 PUSH2 0x393 PUSH2 0x7C1 JUMP JUMPDEST PUSH2 0x39B PUSH2 0xE2 JUMP JUMPDEST SWAP2 DUP3 SWAP2 DUP3 PUSH2 0x363 JUMP JUMPDEST SUB SWAP1 RETURN JUMPDEST PUSH2 0xE8 JUMP JUMPDEST SWAP1 PUSH1 0x20 DUP3 DUP3 SUB SLT PUSH2 0x3C6 JUMPI PUSH2 0x3C3 SWAP2 PUSH0 ADD PUSH2 0x1CA JUMP JUMPDEST SWAP1 JUMP JUMPDEST PUSH2 0xEC JUMP JUMPDEST CALLVALUE PUSH2 0x3FB JUMPI PUSH2 0x3F7 PUSH2 0x3E6 PUSH2 0x3E1 CALLDATASIZE PUSH1 0x4 PUSH2 0x3AD JUMP JUMPDEST PUSH2 0x821 JUMP JUMPDEST PUSH2 0x3EE PUSH2 0xE2 JUMP JUMPDEST SWAP2 DUP3 SWAP2 DUP3 PUSH2 0x296 JUMP JUMPDEST SUB SWAP1 RETURN JUMPDEST PUSH2 0xE8 JUMP JUMPDEST PUSH0 ADD SWAP1 JUMP JUMPDEST CALLVALUE PUSH2 0x433 JUMPI PUSH2 0x415 CALLDATASIZE PUSH1 0x4 PUSH2 0xF0 JUMP JUMPDEST PUSH2 0x41D PUSH2 0x88F JUMP JUMPDEST PUSH2 0x425 PUSH2 0xE2 JUMP JUMPDEST DUP1 PUSH2 0x42F DUP2 PUSH2 0x400 JUMP JUMPDEST SUB SWAP1 RETURN JUMPDEST PUSH2 0xE8 JUMP JUMPDEST PUSH2 0x441 SWAP1 PUSH2 0x1AA JUMP JUMPDEST SWAP1 MSTORE JUMP JUMPDEST SWAP2 SWAP1 PUSH2 0x458 SWAP1 PUSH0 PUSH1 0x20 DUP6 ADD SWAP5 ADD SWAP1 PUSH2 0x438 JUMP JUMPDEST JUMP JUMPDEST CALLVALUE PUSH2 0x48A JUMPI PUSH2 0x46A CALLDATASIZE PUSH1 0x4 PUSH2 0xF0 JUMP JUMPDEST PUSH2 0x486 PUSH2 0x475 PUSH2 0x8C9 JUMP JUMPDEST PUSH2 0x47D PUSH2 0xE2 JUMP JUMPDEST SWAP2 DUP3 SWAP2 DUP3 PUSH2 0x445 JUMP JUMPDEST SUB SWAP1 RETURN JUMPDEST PUSH2 0xE8 JUMP JUMPDEST CALLVALUE PUSH2 0x4BF JUMPI PUSH2 0x49F CALLDATASIZE PUSH1 0x4 PUSH2 0xF0 JUMP JUMPDEST PUSH2 0x4BB PUSH2 0x4AA PUSH2 0x8DF JUMP JUMPDEST PUSH2 0x4B2 PUSH2 0xE2 JUMP JUMPDEST SWAP2 DUP3 SWAP2 DUP3 PUSH2 0x152 JUMP JUMPDEST SUB SWAP1 RETURN JUMPDEST PUSH2 0xE8 JUMP JUMPDEST CALLVALUE PUSH2 0x4F5 JUMPI PUSH2 0x4F1 PUSH2 0x4E0 PUSH2 0x4DA CALLDATASIZE PUSH1 0x4 PUSH2 0x1FF JUMP JUMPDEST SWAP1 PUSH2 0x8F5 JUMP JUMPDEST PUSH2 0x4E8 PUSH2 0xE2 JUMP JUMPDEST SWAP2 DUP3 SWAP2 DUP3 PUSH2 0x23E JUMP JUMPDEST SUB SWAP1 RETURN JUMPDEST PUSH2 0xE8 JUMP JUMPDEST SWAP2 SWAP1 PUSH1 0x40 DUP4 DUP3 SUB SLT PUSH2 0x522 JUMPI DUP1 PUSH2 0x516 PUSH2 0x51F SWAP3 PUSH0 DUP7 ADD PUSH2 0x1CA JUMP JUMPDEST SWAP4 PUSH1 0x20 ADD PUSH2 0x1CA JUMP JUMPDEST SWAP1 JUMP JUMPDEST PUSH2 0xEC JUMP JUMPDEST CALLVALUE PUSH2 0x558 JUMPI PUSH2 0x554 PUSH2 0x543 PUSH2 0x53D CALLDATASIZE PUSH1 0x4 PUSH2 0x4FA JUMP JUMPDEST SWAP1 PUSH2 0x92D JUMP JUMPDEST PUSH2 0x54B PUSH2 0xE2 JUMP JUMPDEST SWAP2 DUP3 SWAP2 DUP3 PUSH2 0x296 JUMP JUMPDEST SUB SWAP1 RETURN JUMPDEST PUSH2 0xE8 JUMP JUMPDEST CALLVALUE PUSH2 0x58B JUMPI PUSH2 0x575 PUSH2 0x570 CALLDATASIZE PUSH1 0x4 PUSH2 0x3AD JUMP JUMPDEST PUSH2 0x9BA JUMP JUMPDEST PUSH2 0x57D PUSH2 0xE2 JUMP JUMPDEST DUP1 PUSH2 0x587 DUP2 PUSH2 0x400 JUMP JUMPDEST SUB SWAP1 RETURN JUMPDEST PUSH2 0xE8 JUMP JUMPDEST PUSH0 DUP1 REVERT JUMPDEST PUSH1 0x60 SWAP1 JUMP JUMPDEST PUSH4 0x4E487B71 PUSH1 0xE0 SHL PUSH0 MSTORE PUSH1 0x22 PUSH1 0x4 MSTORE PUSH1 0x24 PUSH0 REVERT JUMPDEST SWAP1 PUSH1 0x1 PUSH1 0x2 DUP4 DIV SWAP3 AND DUP1 ISZERO PUSH2 0x5CD JUMPI JUMPDEST PUSH1 0x20 DUP4 LT EQ PUSH2 0x5C8 JUMPI JUMP JUMPDEST PUSH2 0x599 JUMP JUMPDEST SWAP2 PUSH1 0x7F AND SWAP2 PUSH2 0x5BD JUMP JUMPDEST PUSH1 0x20 SWAP2 DUP2 MSTORE ADD SWAP1 JUMP JUMPDEST PUSH0 MSTORE PUSH1 0x20 PUSH0 KECCAK256 SWAP1 JUMP JUMPDEST SWAP1 PUSH0 SWAP3 SWAP2 DUP1 SLOAD SWAP1 PUSH2 0x603 PUSH2 0x5FC DUP4 PUSH2 0x5AD JUMP JUMPDEST DUP1 SWAP5 PUSH2 0x5D7 JUMP JUMPDEST SWAP2 PUSH1 0x1 DUP2 AND SWAP1 DUP2 PUSH0 EQ PUSH2 0x65A JUMPI POP PUSH1 0x1 EQ PUSH2 0x61E JUMPI JUMPDEST POP POP POP JUMP JUMPDEST PUSH2 0x62B SWAP2 SWAP3 SWAP4 SWAP5 POP PUSH2 0x5E0 JUMP JUMPDEST SWAP2 PUSH0 SWAP3 JUMPDEST DUP2 DUP5 LT PUSH2 0x642 JUMPI POP POP ADD SWAP1 PUSH0 DUP1 DUP1 PUSH2 0x619 JUMP JUMPDEST PUSH1 0x1 DUP2 PUSH1 0x20 SWAP3 SWAP6 SWAP4 SWAP6 SLOAD DUP5 DUP7 ADD MSTORE ADD SWAP2 ADD SWAP3 SWAP1 PUSH2 0x62F JUMP JUMPDEST SWAP3 SWAP5 SWAP6 POP POP POP PUSH1 0xFF NOT AND DUP3 MSTORE ISZERO ISZERO PUSH1 0x20 MUL ADD SWAP1 PUSH0 DUP1 DUP1 PUSH2 0x619 JUMP JUMPDEST SWAP1 PUSH2 0x67F SWAP2 PUSH2 0x5E9 JUMP JUMPDEST SWAP1 JUMP JUMPDEST PUSH4 0x4E487B71 PUSH1 0xE0 SHL PUSH0 MSTORE PUSH1 0x41 PUSH1 0x4 MSTORE PUSH1 0x24 PUSH0 REVERT JUMPDEST SWAP1 PUSH2 0x6A0 SWAP1 PUSH2 0x117 JUMP JUMPDEST DUP2 ADD SWAP1 DUP2 LT PUSH8 0xFFFFFFFFFFFFFFFF DUP3 GT OR PUSH2 0x6BA JUMPI PUSH1 0x40 MSTORE JUMP JUMPDEST PUSH2 0x682 JUMP JUMPDEST SWAP1 PUSH2 0x6DF PUSH2 0x6D8 SWAP3 PUSH2 0x6CF PUSH2 0xE2 JUMP JUMPDEST SWAP4 DUP5 DUP1 SWAP3 PUSH2 0x675 JUMP JUMPDEST SUB DUP4 PUSH2 0x696 JUMP JUMPDEST JUMP JUMPDEST PUSH2 0x6EA SWAP1 PUSH2 0x6BF JUMP JUMPDEST SWAP1 JUMP JUMPDEST PUSH2 0x6F5 PUSH2 0x594 JUMP JUMPDEST POP PUSH2 0x700 PUSH1 0x3 PUSH2 0x6E1 JUMP JUMPDEST SWAP1 JUMP JUMPDEST PUSH0 SWAP1 JUMP JUMPDEST PUSH2 0x724 SWAP2 PUSH2 0x713 PUSH2 0x703 JUMP JUMPDEST POP PUSH2 0x71C PUSH2 0x9C5 JUMP JUMPDEST SWAP2 SWAP1 SWAP2 PUSH2 0x9D2 JUMP JUMPDEST PUSH1 0x1 SWAP1 JUMP JUMPDEST PUSH0 SWAP1 JUMP JUMPDEST PUSH0 SHR SWAP1 JUMP JUMPDEST SWAP1 JUMP JUMPDEST PUSH2 0x741 PUSH2 0x746 SWAP2 PUSH2 0x72D JUMP JUMPDEST PUSH2 0x732 JUMP JUMPDEST SWAP1 JUMP JUMPDEST PUSH2 0x753 SWAP1 SLOAD PUSH2 0x735 JUMP JUMPDEST SWAP1 JUMP JUMPDEST PUSH2 0x75E PUSH2 0x729 JUMP JUMPDEST POP PUSH2 0x769 PUSH1 0x2 PUSH2 0x749 JUMP JUMPDEST SWAP1 JUMP JUMPDEST SWAP2 PUSH2 0x796 SWAP3 PUSH2 0x779 PUSH2 0x703 JUMP JUMPDEST POP PUSH2 0x78E PUSH2 0x785 PUSH2 0x9C5 JUMP JUMPDEST DUP3 SWAP1 DUP5 SWAP2 PUSH2 0xA22 JUMP JUMPDEST SWAP2 SWAP1 SWAP2 PUSH2 0xAAE JUMP JUMPDEST PUSH1 0x1 SWAP1 JUMP JUMPDEST PUSH0 SWAP1 JUMP JUMPDEST SWAP1 JUMP JUMPDEST SWAP1 JUMP JUMPDEST PUSH2 0x7B9 PUSH2 0x7B4 PUSH2 0x7BE SWAP3 PUSH2 0x79F JUMP JUMPDEST PUSH2 0x7A2 JUMP JUMPDEST PUSH2 0x350 JUMP JUMPDEST SWAP1 JUMP JUMPDEST PUSH2 0x7C9 PUSH2 0x79B JUMP JUMPDEST POP PUSH2 0x7D4 PUSH1 0x12 PUSH2 0x7A5 JUMP JUMPDEST SWAP1 JUMP JUMPDEST PUSH2 0x7EB PUSH2 0x7E6 PUSH2 0x7F0 SWAP3 PUSH2 0x19F JUMP JUMPDEST PUSH2 0x7A2 JUMP JUMPDEST PUSH2 0x19F JUMP JUMPDEST SWAP1 JUMP JUMPDEST PUSH2 0x7FC SWAP1 PUSH2 0x7D7 JUMP JUMPDEST SWAP1 JUMP JUMPDEST PUSH2 0x808 SWAP1 PUSH2 0x7F3 JUMP JUMPDEST SWAP1 JUMP JUMPDEST SWAP1 PUSH2 0x815 SWAP1 PUSH2 0x7FF JUMP JUMPDEST PUSH0 MSTORE PUSH1 0x20 MSTORE PUSH1 0x40 PUSH0 KECCAK256 SWAP1 JUMP JUMPDEST PUSH2 0x837 PUSH2 0x83C SWAP2 PUSH2 0x830 PUSH2 0x729 JUMP JUMPDEST POP PUSH0 PUSH2 0x80B JUMP JUMPDEST PUSH2 0x749 JUMP JUMPDEST SWAP1 JUMP JUMPDEST PUSH2 0x847 PUSH2 0xB4B JUMP JUMPDEST PUSH2 0x84F PUSH2 0x87C JUMP JUMPDEST JUMP JUMPDEST SWAP1 JUMP JUMPDEST PUSH2 0x868 PUSH2 0x863 PUSH2 0x86D SWAP3 PUSH2 0x851 JUMP JUMPDEST PUSH2 0x7A2 JUMP JUMPDEST PUSH2 0x19F JUMP JUMPDEST SWAP1 JUMP JUMPDEST PUSH2 0x879 SWAP1 PUSH2 0x854 JUMP JUMPDEST SWAP1 JUMP JUMPDEST PUSH2 0x88D PUSH2 0x888 PUSH0 PUSH2 0x870 JUMP JUMPDEST PUSH2 0xBDC JUMP JUMPDEST JUMP JUMPDEST PUSH2 0x897 PUSH2 0x83F JUMP JUMPDEST JUMP JUMPDEST PUSH0 SWAP1 JUMP JUMPDEST PUSH1 0x1 DUP1 PUSH1 0xA0 SHL SUB AND SWAP1 JUMP JUMPDEST PUSH2 0x8B4 PUSH2 0x8B9 SWAP2 PUSH2 0x72D JUMP JUMPDEST PUSH2 0x89D JUMP JUMPDEST SWAP1 JUMP JUMPDEST PUSH2 0x8C6 SWAP1 SLOAD PUSH2 0x8A8 JUMP JUMPDEST SWAP1 JUMP JUMPDEST PUSH2 0x8D1 PUSH2 0x899 JUMP JUMPDEST POP PUSH2 0x8DC PUSH1 0x5 PUSH2 0x8BC JUMP JUMPDEST SWAP1 JUMP JUMPDEST PUSH2 0x8E7 PUSH2 0x594 JUMP JUMPDEST POP PUSH2 0x8F2 PUSH1 0x4 PUSH2 0x6E1 JUMP JUMPDEST SWAP1 JUMP JUMPDEST PUSH2 0x912 SWAP2 PUSH2 0x901 PUSH2 0x703 JUMP JUMPDEST POP PUSH2 0x90A PUSH2 0x9C5 JUMP JUMPDEST SWAP2 SWAP1 SWAP2 PUSH2 0xAAE JUMP JUMPDEST PUSH1 0x1 SWAP1 JUMP JUMPDEST SWAP1 PUSH2 0x921 SWAP1 PUSH2 0x7FF JUMP JUMPDEST PUSH0 MSTORE PUSH1 0x20 MSTORE PUSH1 0x40 PUSH0 KECCAK256 SWAP1 JUMP JUMPDEST PUSH2 0x952 SWAP2 PUSH2 0x948 PUSH2 0x94D SWAP3 PUSH2 0x940 PUSH2 0x729 JUMP JUMPDEST POP PUSH1 0x1 PUSH2 0x917 JUMP JUMPDEST PUSH2 0x80B JUMP JUMPDEST PUSH2 0x749 JUMP JUMPDEST SWAP1 JUMP JUMPDEST PUSH2 0x966 SWAP1 PUSH2 0x961 PUSH2 0xB4B JUMP JUMPDEST PUSH2 0x968 JUMP JUMPDEST JUMP JUMPDEST DUP1 PUSH2 0x983 PUSH2 0x97D PUSH2 0x978 PUSH0 PUSH2 0x870 JUMP JUMPDEST PUSH2 0x1AA JUMP JUMPDEST SWAP2 PUSH2 0x1AA JUMP JUMPDEST EQ PUSH2 0x993 JUMPI PUSH2 0x991 SWAP1 PUSH2 0xBDC JUMP JUMPDEST JUMP JUMPDEST PUSH2 0x9B6 PUSH2 0x99F PUSH0 PUSH2 0x870 JUMP JUMPDEST PUSH0 SWAP2 DUP3 SWAP2 PUSH4 0x1E4FBDF7 PUSH1 0xE0 SHL DUP4 MSTORE PUSH1 0x4 DUP4 ADD PUSH2 0x445 JUMP JUMPDEST SUB SWAP1 REVERT JUMPDEST PUSH2 0x9C3 SWAP1 PUSH2 0x955 JUMP JUMPDEST JUMP JUMPDEST PUSH2 0x9CD PUSH2 0x899 JUMP JUMPDEST POP CALLER SWAP1 JUMP JUMPDEST SWAP2 PUSH2 0x9E0 SWAP3 SWAP2 PUSH1 0x1 SWAP3 PUSH2 0xC92 JUMP JUMPDEST JUMP JUMPDEST PUSH1 0x40 SWAP1 PUSH2 0xA0B PUSH2 0xA12 SWAP5 SWAP7 SWAP6 SWAP4 SWAP7 PUSH2 0xA01 PUSH1 0x60 DUP5 ADD SWAP9 PUSH0 DUP6 ADD SWAP1 PUSH2 0x438 JUMP JUMPDEST PUSH1 0x20 DUP4 ADD SWAP1 PUSH2 0x289 JUMP JUMPDEST ADD SWAP1 PUSH2 0x289 JUMP JUMPDEST JUMP JUMPDEST SWAP1 PUSH2 0xA1F SWAP2 SUB PUSH2 0x1D9 JUMP JUMPDEST SWAP1 JUMP JUMPDEST SWAP3 SWAP2 SWAP3 PUSH2 0xA30 DUP2 DUP4 SWAP1 PUSH2 0x92D JUMP JUMPDEST SWAP1 DUP2 PUSH2 0xA45 PUSH2 0xA3F PUSH0 NOT PUSH2 0x1D9 JUMP JUMPDEST SWAP2 PUSH2 0x1D9 JUMP JUMPDEST LT PUSH2 0xA52 JUMPI JUMPDEST POP POP POP SWAP1 POP JUMP JUMPDEST DUP2 PUSH2 0xA65 PUSH2 0xA5F DUP8 PUSH2 0x1D9 JUMP JUMPDEST SWAP2 PUSH2 0x1D9 JUMP JUMPDEST LT PUSH2 0xA8B JUMPI PUSH2 0xA82 SWAP4 SWAP5 PUSH2 0xA7A SWAP2 SWAP4 SWAP3 PUSH2 0xA14 JUMP JUMPDEST SWAP1 PUSH0 SWAP3 PUSH2 0xC92 JUMP JUMPDEST DUP1 PUSH0 DUP1 DUP1 PUSH2 0xA4B JUMP JUMPDEST POP PUSH2 0xAAA DUP5 SWAP3 SWAP2 SWAP3 PUSH0 SWAP4 DUP5 SWAP4 PUSH4 0x7DC7A0D9 PUSH1 0xE1 SHL DUP6 MSTORE PUSH1 0x4 DUP6 ADD PUSH2 0x9E2 JUMP JUMPDEST SUB SWAP1 REVERT JUMPDEST SWAP2 DUP3 PUSH2 0xACA PUSH2 0xAC4 PUSH2 0xABF PUSH0 PUSH2 0x870 JUMP JUMPDEST PUSH2 0x1AA JUMP JUMPDEST SWAP2 PUSH2 0x1AA JUMP JUMPDEST EQ PUSH2 0xB24 JUMPI DUP2 PUSH2 0xAEA PUSH2 0xAE4 PUSH2 0xADF PUSH0 PUSH2 0x870 JUMP JUMPDEST PUSH2 0x1AA JUMP JUMPDEST SWAP2 PUSH2 0x1AA JUMP JUMPDEST EQ PUSH2 0xAFD JUMPI PUSH2 0xAFB SWAP3 SWAP2 SWAP1 SWAP2 PUSH2 0xDE8 JUMP JUMPDEST JUMP JUMPDEST PUSH2 0xB20 PUSH2 0xB09 PUSH0 PUSH2 0x870 JUMP JUMPDEST PUSH0 SWAP2 DUP3 SWAP2 PUSH4 0xEC442F05 PUSH1 0xE0 SHL DUP4 MSTORE PUSH1 0x4 DUP4 ADD PUSH2 0x445 JUMP JUMPDEST SUB SWAP1 REVERT JUMPDEST PUSH2 0xB47 PUSH2 0xB30 PUSH0 PUSH2 0x870 JUMP JUMPDEST PUSH0 SWAP2 DUP3 SWAP2 PUSH4 0x4B637E8F PUSH1 0xE1 SHL DUP4 MSTORE PUSH1 0x4 DUP4 ADD PUSH2 0x445 JUMP JUMPDEST SUB SWAP1 REVERT JUMPDEST PUSH2 0xB53 PUSH2 0x8C9 JUMP JUMPDEST PUSH2 0xB6C PUSH2 0xB66 PUSH2 0xB61 PUSH2 0x9C5 JUMP JUMPDEST PUSH2 0x1AA JUMP JUMPDEST SWAP2 PUSH2 0x1AA JUMP JUMPDEST SUB PUSH2 0xB73 JUMPI JUMP JUMPDEST PUSH2 0xB95 PUSH2 0xB7E PUSH2 0x9C5 JUMP JUMPDEST PUSH0 SWAP2 DUP3 SWAP2 PUSH4 0x118CDAA7 PUSH1 0xE0 SHL DUP4 MSTORE PUSH1 0x4 DUP4 ADD PUSH2 0x445 JUMP JUMPDEST SUB SWAP1 REVERT JUMPDEST PUSH0 SHL SWAP1 JUMP JUMPDEST SWAP1 PUSH2 0xBAF PUSH1 0x1 DUP1 PUSH1 0xA0 SHL SUB SWAP2 PUSH2 0xB99 JUMP JUMPDEST SWAP2 DUP2 NOT AND SWAP2 AND OR SWAP1 JUMP JUMPDEST SWAP1 JUMP JUMPDEST SWAP1 PUSH2 0xBD1 PUSH2 0xBCC PUSH2 0xBD8 SWAP3 PUSH2 0x7FF JUMP JUMPDEST PUSH2 0xBB9 JUMP JUMPDEST DUP3 SLOAD PUSH2 0xB9E JUMP JUMPDEST SWAP1 SSTORE JUMP JUMPDEST PUSH2 0xBE6 PUSH1 0x5 PUSH2 0x8BC JUMP JUMPDEST PUSH2 0xBF1 DUP3 PUSH1 0x5 PUSH2 0xBBC JUMP JUMPDEST SWAP1 PUSH2 0xC25 PUSH2 0xC1F PUSH32 0x8BE0079C531659141344CD1FD0A4F28419497F9722A3DAAFE3B4186F6B6457E0 SWAP4 PUSH2 0x7FF JUMP JUMPDEST SWAP2 PUSH2 0x7FF JUMP JUMPDEST SWAP2 PUSH2 0xC2E PUSH2 0xE2 JUMP JUMPDEST DUP1 PUSH2 0xC38 DUP2 PUSH2 0x400 JUMP JUMPDEST SUB SWAP1 LOG3 JUMP JUMPDEST SWAP1 PUSH2 0xC49 PUSH0 NOT SWAP2 PUSH2 0xB99 JUMP JUMPDEST SWAP2 DUP2 NOT AND SWAP2 AND OR SWAP1 JUMP JUMPDEST PUSH2 0xC67 PUSH2 0xC62 PUSH2 0xC6C SWAP3 PUSH2 0x1D9 JUMP JUMPDEST PUSH2 0x7A2 JUMP JUMPDEST PUSH2 0x1D9 JUMP JUMPDEST SWAP1 JUMP JUMPDEST SWAP1 JUMP JUMPDEST SWAP1 PUSH2 0xC87 PUSH2 0xC82 PUSH2 0xC8E SWAP3 PUSH2 0xC53 JUMP JUMPDEST PUSH2 0xC6F JUMP JUMPDEST DUP3 SLOAD PUSH2 0xC3D JUMP JUMPDEST SWAP1 SSTORE JUMP JUMPDEST SWAP1 SWAP3 DUP2 PUSH2 0xCAF PUSH2 0xCA9 PUSH2 0xCA4 PUSH0 PUSH2 0x870 JUMP JUMPDEST PUSH2 0x1AA JUMP JUMPDEST SWAP2 PUSH2 0x1AA JUMP JUMPDEST EQ PUSH2 0xD7A JUMPI DUP4 PUSH2 0xCCF PUSH2 0xCC9 PUSH2 0xCC4 PUSH0 PUSH2 0x870 JUMP JUMPDEST PUSH2 0x1AA JUMP JUMPDEST SWAP2 PUSH2 0x1AA JUMP JUMPDEST EQ PUSH2 0xD53 JUMPI PUSH2 0xCF3 DUP4 PUSH2 0xCEE PUSH2 0xCE7 PUSH1 0x1 DUP7 SWAP1 PUSH2 0x917 JUMP JUMPDEST DUP8 SWAP1 PUSH2 0x80B JUMP JUMPDEST PUSH2 0xC72 JUMP JUMPDEST PUSH2 0xCFD JUMPI JUMPDEST POP POP POP JUMP JUMPDEST SWAP2 SWAP1 SWAP2 PUSH2 0xD48 PUSH2 0xD36 PUSH2 0xD30 PUSH32 0x8C5BE1E5EBEC7D5BD14F71427D1E84F3DD0314C0F7B2291E5B200AC8C7C3B925 SWAP4 PUSH2 0x7FF JUMP JUMPDEST SWAP4 PUSH2 0x7FF JUMP JUMPDEST SWAP4 PUSH2 0xD3F PUSH2 0xE2 JUMP JUMPDEST SWAP2 DUP3 SWAP2 DUP3 PUSH2 0x296 JUMP JUMPDEST SUB SWAP1 LOG3 PUSH0 DUP1 DUP1 PUSH2 0xCF8 JUMP JUMPDEST PUSH2 0xD76 PUSH2 0xD5F PUSH0 PUSH2 0x870 JUMP JUMPDEST PUSH0 SWAP2 DUP3 SWAP2 PUSH4 0x4A1406B1 PUSH1 0xE1 SHL DUP4 MSTORE PUSH1 0x4 DUP4 ADD PUSH2 0x445 JUMP JUMPDEST SUB SWAP1 REVERT JUMPDEST PUSH2 0xD9D PUSH2 0xD86 PUSH0 PUSH2 0x870 JUMP JUMPDEST PUSH0 SWAP2 DUP3 SWAP2 PUSH4 0xE602DF05 PUSH1 0xE0 SHL DUP4 MSTORE PUSH1 0x4 DUP4 ADD PUSH2 0x445 JUMP JUMPDEST SUB SWAP1 REVERT JUMPDEST PUSH4 0x4E487B71 PUSH1 0xE0 SHL PUSH0 MSTORE PUSH1 0x11 PUSH1 0x4 MSTORE PUSH1 0x24 PUSH0 REVERT JUMPDEST PUSH2 0xDC4 PUSH2 0xDCA SWAP2 SWAP4 SWAP3 SWAP4 PUSH2 0x1D9 JUMP JUMPDEST SWAP3 PUSH2 0x1D9 JUMP JUMPDEST DUP3 ADD DUP1 SWAP3 GT PUSH2 0xDD5 JUMPI JUMP JUMPDEST PUSH2 0xDA1 JUMP JUMPDEST SWAP1 PUSH2 0xDE5 SWAP2 ADD PUSH2 0x1D9 JUMP JUMPDEST SWAP1 JUMP JUMPDEST SWAP2 SWAP1 SWAP2 DUP1 PUSH2 0xE06 PUSH2 0xE00 PUSH2 0xDFB PUSH0 PUSH2 0x870 JUMP JUMPDEST PUSH2 0x1AA JUMP JUMPDEST SWAP2 PUSH2 0x1AA JUMP JUMPDEST EQ PUSH0 EQ PUSH2 0xEE7 JUMPI PUSH2 0xE2A PUSH2 0xE23 DUP4 PUSH2 0xE1E PUSH1 0x2 PUSH2 0x749 JUMP JUMPDEST PUSH2 0xDB5 JUMP JUMPDEST PUSH1 0x2 PUSH2 0xC72 JUMP JUMPDEST JUMPDEST DUP3 PUSH2 0xE46 PUSH2 0xE40 PUSH2 0xE3B PUSH0 PUSH2 0x870 JUMP JUMPDEST PUSH2 0x1AA JUMP JUMPDEST SWAP2 PUSH2 0x1AA JUMP JUMPDEST EQ PUSH0 EQ PUSH2 0xEBB JUMPI PUSH2 0xE6A PUSH2 0xE63 DUP4 PUSH2 0xE5E PUSH1 0x2 PUSH2 0x749 JUMP JUMPDEST PUSH2 0xA14 JUMP JUMPDEST PUSH1 0x2 PUSH2 0xC72 JUMP JUMPDEST JUMPDEST SWAP2 SWAP1 SWAP2 PUSH2 0xEB6 PUSH2 0xEA4 PUSH2 0xE9E PUSH32 0xDDF252AD1BE2C89B69C2B068FC378DAA952BA7F163C4A11628F55A4DF523B3EF SWAP4 PUSH2 0x7FF JUMP JUMPDEST SWAP4 PUSH2 0x7FF JUMP JUMPDEST SWAP4 PUSH2 0xEAD PUSH2 0xE2 JUMP JUMPDEST SWAP2 DUP3 SWAP2 DUP3 PUSH2 0x296 JUMP JUMPDEST SUB SWAP1 LOG3 JUMP JUMPDEST PUSH2 0xEE2 DUP3 PUSH2 0xEDC PUSH2 0xECD PUSH0 DUP8 SWAP1 PUSH2 0x80B JUMP JUMPDEST SWAP2 PUSH2 0xED7 DUP4 PUSH2 0x749 JUMP JUMPDEST PUSH2 0xDDA JUMP JUMPDEST SWAP1 PUSH2 0xC72 JUMP JUMPDEST PUSH2 0xE6B JUMP JUMPDEST PUSH2 0xEFA PUSH2 0xEF5 PUSH0 DUP4 SWAP1 PUSH2 0x80B JUMP JUMPDEST PUSH2 0x749 JUMP JUMPDEST DUP1 PUSH2 0xF0D PUSH2 0xF07 DUP6 PUSH2 0x1D9 JUMP JUMPDEST SWAP2 PUSH2 0x1D9 JUMP JUMPDEST LT PUSH2 0xF35 JUMPI PUSH2 0xF20 PUSH2 0xF30 SWAP2 DUP5 SWAP1 PUSH2 0xA14 JUMP JUMPDEST PUSH2 0xF2B PUSH0 DUP5 SWAP1 PUSH2 0x80B JUMP JUMPDEST PUSH2 0xC72 JUMP JUMPDEST PUSH2 0xE2B JUMP JUMPDEST SWAP1 PUSH2 0xF53 SWAP1 SWAP2 SWAP3 PUSH0 SWAP4 DUP5 SWAP4 PUSH4 0x391434E3 PUSH1 0xE2 SHL DUP6 MSTORE PUSH1 0x4 DUP6 ADD PUSH2 0x9E2 JUMP JUMPDEST SUB SWAP1 REVERT INVALID LOG2 PUSH5 0x6970667358 0x22 SLT KECCAK256 SWAP14 0xD8 0xAE DUP12 PUSH28 0x57FA7D945AD385B2E58249EADA4435AABABEEBCEFC2AE76C3EB9C764 PUSH20 0x6F6C634300081C00330000000000000000000000 "},"methodIdentifiers":{"allowance(address,address)":"dd62ed3e","approve(address,uint256)":"095ea7b3","balanceOf(address)":"70a08231","decimals()":"313ce567","name()":"06fdde03","owner()":"8da5cb5b","renounceOwnership()":"715018a6","symbol()":"95d89b41","totalSupply()":"18160ddd","transfer(address,uint256)":"a9059cbb","transferFrom(address,address,uint256)":"23b872dd","transferOwnership(address)":"f2fde38b"}}}}}